:100000000C9476560C9495560C9495560C949556E3
:100010000C9495560C947C5A0C94E05A0C94445BC6
:100020000C94575B0C9495560C94CE590C949556A1
:100030000C9495560C9495560C9495560C94955694
:100040000C9495560C9495560C9495560C94955684
:100050000C9495560C9495560C9495560C94955674
:100060000C9495560C9495560C9495560C94955664
:100070000C9495560C9495560C9495560C94955654
:100080000C9495560C9495560C9495567F7F7F7FD3
:100090007F7F7F7F7F7F7F7F7F7F7F7F7F7F7F7F70
:1000A0007F7F7F7F7F7F070007047F7F7F7F7F7F4A
:1000B000077F7F7F7F7F057F047F7F7F7F7F7F7FBD
:1000C0000F7F0E7F067F0D7F0C7F7F7F7F7F1F7FDF
:1000D000177F167F157F1C7F147F7F7F7F7F007FB8
:1000E000277F1E7F257F1D7F247F7F7F7F7F187F57
:1000F000207F217F267F227F237F7F7F7F7F7F7FDF
:10010000107F197F1A7F1B7F137F7F7F7F7F0818E7
:10011000117F127F0A7F037F0B7F7F7F7F7F081015
:10012000081F097F080F027F08197F7F7F7F7F7F6D
:1001300008027F7F081308117F7F7F7F070C087FED
:10014000017F080B7F7F08077F7F7F7F7F7F080706
:100150007F7F7F7F7F7F7F7F07037F7F7F7F047F1E
:100160007F7F1C7F1B7F7F7F7F7F7F7F037F0810C8
:100170000C7F247F237F137F7A7F7F7F7F7F08110F
:10018000147F081908200B7F7F7F7F7F7F7F7F7F11
:100190007F7F7F7F7F7F7F7F7F7F7F7F7F7F7F7F6F
:1001A0007F7F7F7F7F7F7F7F7F7F7F7F7F7F7F7F5F
:1001B0007F7F7F7F7F7F7F7F7F7F7F7F7F7F7F7F4F
:1001C0007F7F7F7F7F7F7F7F7F7F7F7F7F7F7F7F3F
:1001D0007F7F7F7F7F7F7F7F7F7F7F7F7F7F7F7F2F
:1001E0007F7F7F7F7F7F7F7F7F7F7F7F7F7F7F7F1F
:1001F0007F7F7F7F7F7F7F7F7F7F7F7F7F7F7F7F0F
:100200007F7F7F7F7F7F7F7F7F7F7F7F7F7F7F7FFE
:100210007F7F7F7F7F7F7F7F7F7F7F7F7F7F7F7FEE
:1002200008277F7F7F7F7F7F7F7F7F7F7F7F7F7FAD
:100230007F7F7F7F7F7F7F7F7F7F7F7F7F7F7F7FCE
:10024000017F7F7F7F7F7F7F7F7F7F7F7F7F7F7F3C
:100250007F7F7F7F7F7F7F7F7F7F7F7F7F7F08158F
:100260007F7F072408057F7F7F7F7F7F080D070B37
:1002700007237F7F0713071B7A7F7F7F7F7F7F7F27
:10028000071C7F7F7F7F07147F7F7F7FFF1F627F39
:10029000C23C006088FFFFA0089001324006C8C63B
:1002A0000019FF03050A4414812241CF068AF32076
:1002B0000365FBA00C94290035FF0CFF9881325098
:1002C00006CA5419E9380366E0A94EC68800987931
:1002D000D364800CB907FF00F014C00258FF0B6014
:1002E000012C80040C080A790270F3A640F305A0E3
:1002F00043E6019CB39912E050DB81C0280DA2E0D7
:1003000050E4D334C0D3B09C16B998FC262CFF819E
:1003100020046200B3208040109802B3083701AC7B
:10032000E010A6E4E8FE030486FF98FF857D4DE615
:1003300090C184D3FB02404E8381200CC4DC50402A
:10034000101ABDE0632440C66540FFA356B8FB9970
:1003500006C204EF9003F39B00389942FD48E04049
:100360003EDB8B19F574F8149396DCD3099230CDEB
:100370007AF0D326B420459D1B09FCC0A041F90AA0
:1003800006D2021AEECA29219661DA26D8FF8240E7
:10039000032C140122D91005CC68A00581CBD03ADA
:1003A000F841204F75A080A10650121A69D308E5C4
:1003B000903AC6D8FAFB9BCD42DA8306C016965611
:1003C00028FFCA0131FC23E0B57FD96E180A42FF2D
:1003D00062B390071815883A601041BD3CFC07C015
:1003E000800E0403901AEE2C30E1B4D35FE5A6C072
:1003F0004103607BFD80811C93EC18D06070768394
:10040000D3FECC8045DD263E08024157F4CC7DED7D
:1004100080E7660812D664025F956225B3FA58C079
:1004200073FC5060147F115F464E6609106086258C
:10043000C6220DFA104D20FF68110B21128C02907C
:100440005FB444875C91019F8BDD39B3115F18E481
:10045000010458D23293340887F404928487EC3A2A
:100460007FB28010F8FF60810C0707315FD6C303AD
:1004700078990F9D0C83D7F240A5325AB019F3CD6D
:1004800066E04177CA3040FF1EC802782003E001D1
:1004900043D3431E99C01610295FDFD778FBDEAB2C
:1004A000FD3A9F20102FE3BF7FF07661125F01C4F9
:1004B0005C1910060285C38100A1D3C92A42F3EA60
:1004C000D0E606F0F963CC20A1C749B9036991339E
:1004D000F626E0903DEC6014402CB242E4B345C0F7
:1004E000C7264FC01260040CC181095DB10299405A
:1004F0001118FFE621300918F9A001D734A1B15F26
:100500001A400EE40D2011BF135848830203FD6802
:100510000821B05094B2BB08D5F8048F84A093068C
:1005200072E08BE968044DF190E7C0D044840B2859
:10053000E90C402285ECAFFABC3FD88D4F3EDCF28F
:100540004AFAFC363AFB7F7FDBC306786FF7392027
:10055000080429A2C0FB836A8E777A643110016493
:10056000EA0880E09319F3034001EAB304FB1E3963
:1005700066444D860632331983209F02272FE8C236
:1005800040F518C80338E48BBCCE78F99F30819CC5
:1005900093020120D1C02CF3ABC36421726609CF52
:1005A000E819DA2216FFCC112340D0842CF0ADCB11
:1005B000F9F340034882319D49A5F3F935C7061682
:1005C000E9D71175AE44AF021A98A780F19426D9E5
:1005D0008408FF313E67100246C166F921E7229F79
:1005E00066801020C48286406FD202F632E9FA7B20
:1005F000700D8007BC08575A9308F30132A520F309
:10060000187FE9412CB3104BB4DFB2A007F0801E75
:10061000F8C0035A000FCEF56BF078982D1810DE55
:100620008B35ABFECDF90806A6DEBFC52058354B8D
:100630002E88873FD9984110E0BCC120D7FB6B4280
:10064000207FEE5E1059F298F00168E16E898CEC23
:10065000B4461C2898CEEC44FD800510CCFEF3B1C6
:1006600030042649580F5240D20A4C8B11BD98983D
:100670002BFCDF3E8441200218F9FEA0018088F3A4
:100680000173306921AD0D47DB103A491A41F92158
:10069000A288101B396584AF34AFEF9C500F212D19
:1006A0001E50048A60FC44AE51300256795EB69703
:1006B000AF176A5FFED9B6C4F3A2089337783CBC83
:1006C00034E3365F5C9408266E96BC03E8BCE5BD57
:1006D0004B0D321D60C0B830F4E080A39BE4FFD125
:1006E000406DF6CCFAE0AF41759807F120CD30703F
:1006F0004071EA7D38E3B3F90FD28041D0FEE0C00B
:10070000119064986C6D140C29C904B5980DE3849C
:10071000FC1266A71A25B38A065F553DC068048D92
:100720002F9E015341035481014D25FC0407474F7F
:10073000EC080B204233AF50BE168B0180840419A5
:10074000A70026EB18067F2798F5024258298FDB71
:10075000818A91BD76845BF37B190209DF20FDEB72
:1007600098B2FCC5BC985D16E68BBE98022CCEEC08
:100770006466093CE05C3DA5C8E00FAF1630D28648
:10078000F3E4998210FE6C86308B87D78820FC8C2E
:10079000BBF3AD447EBFC43C98FD2E8F573D601A1D
:1007A000BEF103BB4B80FE33C2B0ED90B92276049C
:1007B000D78C081712B38B01215C229D4C3DA210EF
:1007C0009BFC7F8905038DC19082D3F2604218BAE9
:1007D000ACBA77FF7F452C8845300478F9C7A0056F
:1007E000BB86EFACE78E24800473600A4120AAFB2D
:1007F000812404063B86CAD334BCE0ED40F80AD11C
:100800002D20F02BE518AE2EF7C33411AC5A156726
:10081000644AA3B0D08DEAC5E6A2B25E013B76E998
:100820000802D1CB18A304B5DF1958FC80411CAED7
:1008300010D79118CAD21657FBA088986911617613
:100840000480219EC8E20139B2A8BC2B0660404357
:10085000E0F13C00062257C345BB20A34AE190FBD0
:10086000790924020672BC19530548FE1942FE3765
:1008700059101E98B51471F88A013457E0AC19E28A
:100880002362F24802280C45BE2F66FAA66F7F1B32
:10089000FE700F0102986003600C2CC350F7210614
:1008A00001043842122008E52F9FD517C203134CCC
:1008B000DBCB84E77C04016DC428AF9824980E50EC
:1008C000EB6FC1FDDEB28807F02095531A97C8FB85
:1008D00098400684C4B6768DF3BF32246AF8D7F206
:1008E00041B398F140D382EF78000BF598F0DE8B9E
:1008F000DF5820D22719E2DCCD4118BE5A8B7B98F5
:1009000022407F591FC7659D54C2DE1F22FB4FFC4A
:100910004E8DEA3F45693F1945200A16C0BB08D3F2
:100920009844B3282B0AF3EC41ED600F4001B62147
:10093000EBB17FE7C48144B640C1F90218015260AF
:1009400023C68411D320808602088A40E79E11982E
:10095000FDEEA001B0EEA4824819C0952031EFB899
:10096000520882409EA0830D2030DF2D2C9FAAB01C
:10097000013080225F8C309709E74DB6148617D07E
:1009800002C81A447D750DEE7E12D8F8D724C8DE51
:10099000B6B32F2B22DFEFF3B873FF6EE8A6820108
:1009A000218BE8E152C30C2872D423F9530C034184
:1009B0003029EAB33C7280066FBE70D102FD95C04B
:1009C000EA9208D34BF5795F5A054881B25D179FCB
:1009D00003E01C100161EE400FE2658CC020DD7564
:1009E0002ADD0D0FD0FD8F08317A3B421D68DBE612
:1009F0003CD040C2205808A7398C0208B3EB4919F3
:100A0000F141E720C414D40B6038262050D10A17D6
:100A100011015970CDF5660212F9BD1306167BA5BA
:100A2000111323EEC902CAB80E48841BF39BB3E628
:100A3000125115F66AF85D983296182461D384A095
:100A40000D07BC0408CA02A093F4F832DB72FF7BE6
:100A5000A5C003BF18C598DC72BAD00343F33BC7E7
:100A6000E64C0CA05EA539D30278E05E5E4DD32043
:100A7000166852C3F364FA2C10F8FA04EB7EFCA556
:100A8000FF3F98EE84EAA606F38D21566640C0111A
:100A90002D307482BE775FC6D7C21CFCDD3AFBE9FD
:100AA000FBE230C83E7A8004CB3E9E760246840844
:100AB00046DA30F34CE09133BC4B8776E3C02259E1
:100AC000A8C96201BBFA0F14021F10091B41429909
:100AD00000F1A07C89FC11C23582F390028348EBBF
:100AE0000403A441E63001264B8B5F8D9DC815C1E0
:100AF0009A6639A384A0865C3093A146ED50AE304F
:100B0000CEF408F30368611CA47A140AE4FA1B46C5
:100B100026C0B80EEE9BE1F308B6EE1B8C114DFF1C
:100B2000207E50C8D33646DDFBE48BE63548FBEC2F
:100B300092100114DD0E220402DDA638CC500EC442
:100B4000AFB48E758D034DCE485E866BD6F0E0CC8B
:100B50004D7170602E8C07EF58836010E20FE80132
:100B60000730E2FD80094D816614FE1BEE8184850D
:100B7000CE01205289642504C5A01066EBFB4420F9
:100B80008D2214CD2898C76878D2DF0C20B20FA927
:100B9000274CA0853A9FCBFC73C90646C0FB118148
:100BA0009012F480815030519E485723010C01B6B9
:100BB0000D9FF27F80BD9842224D2FEE808209E189
:100BC00030B408E1FE444C5690FA2CF86080F1985D
:100BD0004B699ED5E0013C67D0B2A2C40347F379CC
:100BE0008B99A4E297D23C90161EF3D34E1E30632D
:100BF000C80378BD98019A2C0BFE2FD7B58CF88FBF
:100C00003540F4EC2D5ED87F0B4B923419E3D96C50
:100C1000BFA84F7534A9F06379B1FC205F5F4C1415
:100C200081A0F3488C8811B316C9804448B3411D94
:100C3000A280337A64BE7FB83D17180500FF614279
:100C40000C81010411804DB3025309A6F4C0FCA825
:100C5000FF20103580FCB3249A40080C798DBFD357
:100C600030019A8A404D6305A165DB9AB34E5180ED
:100C70004611BC9898664D2214342FC6444AD20BB4
:100C80002CD890763770FDBC305A427E6EF530F12C
:100C900027F74430791D897A9606D5A8086E072271
:100CA000CA3DF7D877C0CCD30730B30231EE200E5F
:100CB00084F87F254BDB5759E8B631DBEA6E4BC22F
:100CC00082EDF2C8197A71E02BA641591C0330FD60
:100CD000A7C02E68FC0495087DDBD298B7FE8D7FF7
:100CE0004C37EA92A7ECFE8211B0B3107E807EA44E
:100CF000B08846C184BECC71BD480273822076881C
:100D000014CFE209E6A001808F10F97A84C015881B
:100D1000C81944B884800B2B6E874B622090463FE5
:100D2000C635DAAF5EAC9502FFF0D54080246B8704
:100D3000227DE34908096EE3029C4130FB602F0DE0
:100D40002001F2AF8040C559DD0B68CF233140163A
:100D5000C42B3672B301E6CFEF663CA005D6F04057
:100D600065D518D3FEE22BAF67F6C60F60FA402CAC
:100D700000D0FEEB23FDD210713A79311CE331240F
:100D8000D65AB16121FFDC7F1103DCB675A50121C4
:100D9000F79A6A7DFD0100E71116D1B38092944065
:100DA000F23042B30278D3624228360923CF303082
:100DB0004110C1FE221804236211881AE97C0F0831
:100DC000F3D2024042B350229AE9FAA0B206F912D5
:100DD000888A48118DD72D2027D926DC5A408203D6
:100DE000560459C4CD6AA00470F7C6951AD7436853
:100DF00097C8E7A116F39A44EB03280CDEFDB44034
:100E00001CF9D7CFC5D302F2D5B9501069FB8F4179
:100E10003C1D772E3108FC2ABC93DDBA845A2C97EE
:100E2000E5A8A1FCF9BC98BE6099FE0E84927F8A69
:100E30008B1916DDECFE4BB50A4BF885CDFD98906D
:100E40005FCC2823F3B39B1EC0080329F3B310D74C
:100E500060FECA1A46D13C5735088DD4EBF3016EBB
:100E60001C09D32CDADF7AE5084930C1E68A414013
:100E7000886626947CC00CF5230911019E4E02A3BE
:100E8000FD1584A2D211736C0C44D231AE06CE8013
:100E9000581761210D817128AFAD971853A88CD7D1
:100EA00041379C187F8744401231072226049484DE
:100EB00067CEB92C1951AFFE57D28857DBCA3CDC3C
:100EC000F298EFB132401EAEC0155D36BBDF05C5EE
:100ED000BC4FAAABE89BE007F0B8309BE0E401B25E
:100EE0008E9FF38358400F64FA803C1018F83560E9
:100EF0007B3C60200402F2BBBC8BFE1650F3DAFC94
:100F0000DA58029766EDE60672D5FE1730F3E6C4AE
:100F100010B28E74CC41FE60AC04C69301C1226253
:100F2000B9485326E4C4441832F2F32C9005C6D5D0
:100F3000B3086AB39E84E00206C82C1035F506CECD
:100F40003080208657C5339A4202A6113BB9C8F8B3
:100F50005E315053FF7D31AF33E237DB2C50FBB8AD
:100F600010E5D2402F500159F31006F3C6D9DC44E6
:100F7000B32401E03312D31019C121FF98DEFF28FA
:100F80009363A666E62836D3DF90FFC431EB63A6F1
:100F90008A3FF5CCFA2578FBCC1623E2930A93A678
:100FA0000419FE2DFC0FCB32514C374CCFCD02240F
:100FB000C926F3FFF8FBE3B5045FECCC18FF4C1B2C
:100FC000FDD8DA01AF9E814BA2803535CE3DF74B7F
:100FD00040B5A851B302BF96D12CF23056FF30D79E
:100FE000E359BB01999AAFB10217585F99E6C8A4BB
:100FF00002E5EF9830BF0496F9FB6F6FC61014C777
:101000004CCE62412058C74EB3FFF1FBC64C492E6F
:10101000F68218FE8C767FB63C01C7A3A265146CDD
:101020002002BFDA640681F3A5FDCA90C7DCFAE0AE
:1010300001025A138218F1BF9E94517E529BCE41F9
:10104000EFCDE011FC08DDFE80F9EC80D1E2BB0FB2
:101050005C8077ABEA20D7C8029E77EA67295C817B
:10106000B0826A57B684F5B40438A668FE40F90524
:1010700036DDD7D4523E7111030C8509713D32948F
:101080006BC0FF81282480A020622D03143509D570
:10109000E0B0FF25400885A1A616003F6B11800334
:1010A0004C053FB148F9201031C3070AF1911200F5
:1010B000C0FF0211823C2027E7050A68D9C7B0E6C5
:1010C0005C18814C50CE4F6671FDB68040C701035D
:1010D0004C3181D3FF8E83C020B0048D40FE3000A0
:1010E00042413120585C19066DE4473E7840E4F7F0
:1010F000081079B1B31F5BE280EC66802C8B5FB780
:10110000B88127BD80F790FC4510F4CC9744F2DFFE
:101110002EBB13A683B50467FD1AF96870C482FC60
:101120008B0EEEC83881C2EF9AB2FB2123B3F717BA
:10113000F3C5CC4BC2DDF2E931C32FEB1658FAED03
:10114000388C24FD58B60953E54EEDB7F8FC94876A
:1011500009FE3E460FC56FF60F4EADAD30BE2FC532
:101160007D17D8BBFDADCBFC0F09F2622BD4102C40
:101170004FDD82806AF06E9ECB60F9E9F81DF3BE08
:10118000C7BCF1025046F3279BC72060EE6E35B115
:10119000D95EF6C508207ABFFBD175406488C6CEFB
:1011A000CC25FBD95F37D1FD7FF9BFEBE901E85BC7
:1011B00059D87CC57E1BDDEA0846BB6FE545F119B1
:1011C000864BFF0813E62F18FDCEDB23768004A0A4
:1011D00005228DF165BFCB62325DD969F81F9B0591
:1011E0008A69C5B9C075DA18FBCF2C6930335A1932
:1011F00001975A98F9BA1920D8D5CED5FF80B156A3
:1012000094B16726DA20B3FBDC58C7CCFFEF33BCC0
:10121000DBFFC8FA71908065F9F28BFDB88CEA7F2C
:10122000FFC2DFD8D104CBE49CFB62BF6567AC7919
:1012300010E37925A5406A2FB1FAAF58BA40F79B61
:1012400047AE9A084BC678B3088CCF7FC543B32FFF
:101250005AB03F196C5628FDD9409EDE6A19B0F885
:10126000D7F68C08A94A42FD6FEB45E933B6FE423A
:10127000DE6F11B27F80D5EE4071F4980AB3809B87
:101280001030FE343FD14F444B8521756C80847CF7
:10129000243B96C0F934D6C7CBC12DECCFDF3C152B
:1012A00018F41718B666160E4FBD8F635EEF662FE3
:1012B00026405BD008B37DFC4833202FB03CE5FDD1
:1012C000FE519804116464111897D242D34242EC43
:1012D00022DD2D82695AF18F19F3D0FF2045CDC14F
:1012E000B32202B86BDD204245F2C63E2BC9FC801A
:1012F00095BD409002C32120A14454A34E8E24FDED
:1013000060070C30B41B80528113121B41610FA186
:10131000189C14DB840A090BB4CB0C40E64D325107
:1013200059B9A005C63DC0C8801803C81BA00187D5
:101330003406A750442824039F098AF9208302C158
:1013400022323C7C2B1620A778970AAE90FF919210
:1013500004C10D0C0048EC1A75019567023E11801E
:10136000B02206891C81E4ED1140F11848F80520EF
:1013700002FF84042362541803FB63100CB0FC5F6B
:10138000D16508CAE2FA46E573818A701BB7D62593
:10139000A67120A7E8B090F6BEBF764F98FADE851A
:1013A00091107A51067E8A828BFBEEA6339E3B60BB
:1013B0002045C4F9B941ED7AF402D7D47740C7C9C2
:1013C0000488EF03BCFA82C26CA38953277A08040D
:1013D00010FA4D0C35F46F143DECFCBF8ACD56006D
:1013E000E4E51801C62F34A1DE1840162CDBCEED43
:1013F00045A8FD7DF60172EA06FE9677A7AB570277
:101400001CEDE6201BF0F97B3B5C08C0F87FC48331
:10141000802D6C9711A0FECC21D0AFF3EB2BEF28E1
:10142000F3A811E715D0F908631C8B62E516F143A8
:10143000588F361EA0FE3BDB7B103B6B8CA8BDEAB1
:10144000CFEA9CD1F9663719249803B1738FED2A3E
:10145000BF12069DFACCCB5B1FD3B075E72188374E
:10146000E1D8FCF98CFC5D7F9A2A99349F34B31043
:1014700096FA80267EDB08FB2DF702CFB85ACF41C3
:1014800098E9E66D8488FC3DE5F7A88CFC7FB2E224
:10149000B600D9A60462DFEA3BE21CFACCF8CEB370
:1014A0002E56C80269C118A8AB50FDA030DC813FA0
:1014B000D0421A40036844D1D69C20A64A48092845
:1014C000F35B8FB31247D2D30402BB40BF8A232AF7
:1014D0002101205C1668F3870C8CCFA090A6C0FE7B
:1014E000809481C1BDB718352358762097666080F7
:1014F000BE08F5E003BE5A8137C60C82667CFA66E8
:10150000A338F9E17EEDC08360200C8620D0C04C6A
:10151000F3AE38D8E0408EF75141306B891EC8A138
:1015200003D368E130000690D37F0378200FE001F9
:10153000C1381098FAA334BF40D02480608D2302B4
:10154000924CE5FE74521450ABEB120C24CCB3FF5A
:10155000DD6B20BEC99A400331D33AD4300A03DC94
:1015600048E4106A04795F350248FF4F2822204082
:101570002849BA60AB596AC14226D384101E144070
:1015800021F433FE67B5D7160224FE15D3FEAA5FF9
:10159000C241FB1176A7D001EB88FF33BD0D26E4D5
:1015A0002650530A1E0F08043C0C07F1A1CE16F377
:1015B00096681672B5607AE090073267198048E045
:1015C000644043F3161A3CD379200EE1023C085ADA
:1015D000F875E01A9979FA7CF905FB9B03BD6E0159
:1015E000627E83ED06C0407A3B0223CF8988D366B2
:1015F00093ECFE55023C268204181A93D24322191A
:10160000D3F69A2342270C80852C5DEFF37F91302F
:1016100041E0048C5893B30C93B0E40826C85D7E77
:101620001364144ED3C60960EC9A7B9DD8F198BD23
:10163000E221200441344CEF0A09C84A42F00DFD72
:1016400098246AF8D7B2018A1F7567D32821F54418
:101650000476F4060A4983D74528AF9868EBB17F32
:101660001A98A9303345FA39DFF6C306BAFC629BF3
:10167000B1A2E0B3F88C2D1AB60360FC3E0152D340
:10168000E1A3F35FDF66EFE584415E78DCF040E3E1
:10169000E4100CC8D63B0793A683F30F1533F378F9
:1016A000FDD8B41706D077C4B0795CCDC85048A92E
:1016B000C39FFACC115C7DD096F340018CA0C08111
:1016C0004F55902023603F3C80043102F181FD485A
:1016D0005972C54422C204A0C9002CD34FE306C1ED
:1016E000109FD361404C82B1511FF2323211C0DDE4
:1016F000DBDC980111069556D3FA460AFC3221AF7D
:10170000B31BC59DE04FF93C0FE2810C0CAFF061BB
:10171000980378AED9DE0CDD6337ED3C2D19063C1D
:1017200098EFDEDF30D32BC4C798E2FF8409AFA463
:101730009803C697B6F397A9DEECF367F5FEFE783B
:101740006FF4ECD3B4C4FAB027660FFF8089F93088
:101750000840810414BD53C030B21143B333D3B435
:1017600090B316BBC2506124332C04F30935D3481F
:10177000ED6B64403C063012E8FCEE9D3480E130B5
:10178000DF86090702088077A4984A57D2A34C68DD
:1017900008CFD2042EED3F5BCB9875F682CE038A3C
:1017A00040037AEC412890F55EFB19465E9872D5AD
:1017B00080FC96E8AC71679FB5A0B4C1220DDD84B2
:1017C0007AB9FABC586890E1B099C00260877F8905
:1017D0009819B1A30E1610E2303F03BA7161105789
:1017E000F608CDCCF3047A980A2E013CB9CA0CA6AF
:1017F0000442D02281764B01FF46895008E546021B
:101800009E735E987B1398049E23872C105064E986
:1018100024A613F060413AA03560A2FE9FC90120C2
:10182000402434F313B13F93311226C18223E014D4
:1018300096472D4C8D315FF81130B00806AFC8BF08
:1018400060C498E01F220204104AF601F932F4CE77
:10185000D0FAAA3D88EE7230C00309DC015369E179
:10186000987A7A2003F3B87FB2877C987DE0401E97
:10187000C083799817D3293040D378AF2041980C92
:10188000D168FB3EBF96989ACFF27D80EF57E581F5
:10189000D9AC9A12BB086E09FB6494A188D3A30249
:1018A000EC8F93F698A1FCBC986B2682CB98DBA5B5
:1018B0004C8162B3EFDD2C9005B330B9CA86B80510
:1018C000E0B903539320E086320F26089E14D30B11
:1018D0006102FFE706A0F8C63480D706D0175D3F47
:1018E0004020A410368016D712008A98DB31F02CE5
:1018F000C0C809E7C00803E0480CE201A011FC06DB
:101900001050000A65AB2A41B9309480FDE446C20C
:101910002A185F5440EBD2047E168D52711965C8A7
:101920007D25E6D3AAE182FBDF7D46DEFC71D4F99A
:101930003559A549A60886882019E7B2107830DD08
:10194000F784D7013009EAB3E09058051785983A33
:10195000D31884FAECF498381D98FFFF807BFC20A4
:10196000247A7222BA8419F1BF048C30DDCAE3886C
:1019700066ED024217D0F5CC2445F3D677909B4014
:10198000B312BD9805C22BFBBB51A39503209E0B40
:10199000E08C0284660D82380862CA40762C804949
:1019A000F9C8647B409210593B5974CD3102CD5037
:1019B0007CDF259B0213F83073A779FB5304359025
:1019C00012AA4C83E33DBCEF17F0400E81C0385C97
:1019D00023B701EDB10AAAF865FE683D401AE01B85
:1019E0004F5D98B1CB307AF83026E0FAEF0EA5FEC5
:1019F000AE913F30AEC5CBC8F823C5B3C88078D30D
:101A0000BF42CE8BE3505E6E3071FD57B344DF3280
:101A1000C23DDFEE573008375D62122CB321DE97EE
:101A2000641165C8310B9320E18C5C05B3BB48970A
:101A3000032072300AB27B0434BF91D59868F57DDB
:101A4000C523E19C1FC53096EB77EE7F242EF5521F
:101A50001048F901BC8B60D7514B8A7BF930B42612
:101A6000E7B380DBF69F60BC6AA302B16E35305AE3
:101A70001612AFF8095B5940798BC74D9EF3C6F437
:101A800008A8FB40C069C55DECA58041E5ED0620D6
:101A900043FC3040D9AC02DD50AF416EB4E0C9C860
:101AA0009349D344F3A2C019F198B9E6B8FD28B31D
:101AB000840FC02298D302506080094124D1CA7398
:101AC00030212823F1B5FDD350ABABA80943519881
:101AD000900A037CC38C8005303F24C04890EB42C1
:101AE000A360A3647A31099AF8E63D0046EFCF7F00
:101AF000884C2C0208218875C04498C43068464D33
:101B00006F8998F0D3D716C0173D5D0491C8CAE716
:101B1000F0980FE430B0EB9CFAE0F5B907B4071683
:101B20000965D5DE981B1EC40E7A666364CF9003E8
:101B30006D37E5E7308807F2FB2012C08078B2C825
:101B4000BD98B277AE9879E4302C3699C8BF06E8D4
:101B5000B0928FCA00A9ECEB5A8481EC9FEEB6FDDF
:101B6000E35DF29249F7E8B877928266201EF1F9B8
:101B7000FDB4F05BC02266C818FDADE3EC0F210197
:101B8000C6668045D8B3BF7F014EA62688026EF395
:101B900083D2FC65A7C8F8F87230D1141A0A23154D
:101BA00092E6E1C52B18F19B29AB01563712C66EA0
:101BB000A5AB9AAC8AFBDD5F3B98FB72D1105CE170
:101BC000C891B4E5B0F992AA19835BD58B7DE25335
:101BD0000730B3F3B121FF81011A6E97D37AFE204B
:101BE00070FDF398FFD9805EA501DE48779098DDFF
:101BF000C83942FC0CDF827F9BCD06C1BFEC7877F1
:101C00007C44311006C42808E819FF649898FCC584
:101C1000280590C2B498485359C84A93143BC3E965
:101C20007F7B21B50432B31C660146C04990D5F2D2
:101C300068210C01C0B2C8974A23F3302122C2BAEE
:101C4000FFAE85B4BEEC1722A25346F4985897F322
:101C5000D6F5E59FC9CB11475EBC472570301E11F4
:101C600022C8BA17FC9EC8A602A0FFEF0A98861EDB
:101C70001978ECEFC80C88F798035810AF0F079845
:101C800005662EB460E530F2D9A8ED79200F739B7C
:101C90000ED6C0034FC8192C10C0B7FAE14A667EB1
:101CA0005FC8F7BF97F3AD9810B87DD7F4778989EF
:101CB00045DAC48AE549E008D3B680CCC810DB58C1
:101CC000FBF130AE4BC83847B3148C808C11D91857
:101CD000806DAFAF91304126AEC17510936004D3D3
:101CE000642626ADC88D1C612122AE8D78FF33CDD0
:101CF000360BD85C3092A3EAB424807D221232C421
:101D00002009E24BE6FC55B38AAAB321B7A026B559
:101D100012F298FE850210BEDF575BB898A805B690
:101D200018E0FB0CBCBFE42DFABDC5812DC656E4FE
:101D3000824F2C7506BDBC3BE789A81F08F090FCBC
:101D4000C081B48007263DF2601006DBE90EC4BCFA
:101D500098BF4E0CADC059AF029B96A6824507C1F5
:101D60008EE3E53040E361F3D0037840A20AB3612B
:101D7000662408700906C0BF1850A2600189057466
:101D8000266CC0842736D84CA17F8AE780F905D31A
:101D9000436FB302DF0C28E000E698FD689FE9215D
:101DA000300AA8FE21C219C4C4A07FBD1A8189309F
:101DB000103DB118011360DE121E20CDD4FC04AD1D
:101DC00086DA6A40723080B93D1602480959263FCA
:101DD000668978F3A8FF602D7C987553200BC3505B
:101DE000F1F0AF406E981920E350386657D30B30AE
:101DF000834E6B30E4819030313A1EC083F598E019
:101E0000733068FC2DB6FA38D7C5988679E5E2F3C9
:101E1000D6CF4CFF31E004B4C5F3D84E0043FC9359
:101E2000C8D33A2833B311E010BBC07E49601448D0
:101E300082C8F74B084C90D8093081B3786BBB0B44
:101E4000DBA5114C4DF5F6481820F872041F9008D8
:101E50000550FB23AF1E1A90401A31A0020D63D427
:101E600080D7029D98B42195D90412FD649B36FC5D
:101E7000D05F1298E0B4EF3B989E3049A809B41E99
:101E8000ECFD86DFEA42F053120CFAD7CD98B88AFF
:101E9000CEFA7F3F666C35BF516203EC7FEC20B811
:101EA00099FDFA2879B8A0265FB9E3C5468015DA0E
:101EB00030E50F8241FA9A675CB65F9C6BC43013C1
:101EC0006D9B8E20FD98B885FE111C54DBD318083D
:101ED000534C214C8924C8A292ABE50305B75B6D36
:101EE00096AB5D9BD42934EF68412CD998B3D69832
:101EF0000867BB04D32122D3ABFF981016CFA002F2
:101F0000A0906008AF802E98CE4C84F313600A37FF
:101F1000AFD9494468F8CF8889BF26020840A44257
:101F200038E050B01426B9BB1081306020307F31CA
:101F3000FEE0812C80078AA4BE3CBCC5BD98A0BF32
:101F4000048F30E4500D36BC30B59075ABE8010C11
:101F5000CD3D40122DD32033C830D0401EF393190D
:101F6000C656C83B668018F60CFCB4D5F3985E12D2
:101F7000305DE4D7F69358A9B38C5E5FACB440E310
:101F800030FCE5D792620AF87004B9FAEF09D3BFC2
:101F9000F3888CBF88D79828BEB38C80492012D58F
:101FA000B3086AB3BD84B304770030E82C9029B33A
:101FB000BB841035C612F9EEA0DA2C6664FFCCCBD8
:101FC0002E1F57FFF8974BD76C9F85C6AF71F39CB8
:101FD000ACB122B6D3B8F9030487FF98FF28634653
:101FE0009371D18E2D39903ECCFFB080E86BFE5AB4
:101FF00088F08BB3A00CCBC1CC3197C6B8FC046879
:1020000051118A1944E6BEE6E0A0F35920C66DFBE3
:1020100080B5B040FECC98FADF4ED437D53DC1A094
:102020004609881766591A7C69B284795828B1FF25
:10203000FFB2E43825C4080A67F3195FD9CCFE283B
:102040003C08EB4CA8FFDA7050AB52288CD3FD3221
:1020500005F7D950B1FA02E0E383CDA4CD0277832E
:1020600004669998F9A9D850F9AFDB0B99899FDDDF
:102070004BF10871D98A66AC0CFF8FD8572149ED16
:10208000A084209C866C99EDA0F880028B68048067
:10209000DB1396E442EBDD1113FDDC411716B7ECC0
:1020A00004420BBFCAB67000CF5EE2FBC714974F65
:1020B000FE6529E6FBDE9F669E3A7869E20E86CAD7
:1020C000F813F320E88221EC7418FD48DF41E38027
:1020D000CC5019F624C2F8859B32D690B6C417A806
:1020E000690566A0B4606EA480E778105A03EF20FB
:1020F0000244572542FFC60B20432903A40FA0FF2B
:102100003C34510180793857F1408800146B5259A2
:102110006D8121B4F003C0B01846D9010BFFCF8107
:10212000E224910426750345AC15216050FE013070
:102130004A9024935314F350D1B8FBA1BFCA465F11
:102140001B263820FC16DFEC3DF1FFB3B884D3E545
:10215000E08079C7BBE8B4FC69F4AC9347BF8AD68A
:10216000F33BABAC7A4F8BB7EDCC7A0F94B711F34E
:102170006AB42779F7B9FF71BC89AC7B205B46EC68
:10218000BB1CCCE302FAB147E5DF08F9C7D0FA2758
:1021900088D3F63E18C67C3BC73691F78DE79E8103
:1021A000B3B6FD5B7A101885FED7ED19478607FD9B
:1021B0005DB1FF528ACBD5756280A80E06369C4B66
:1021C0009AFCD49911206EB6B102AF80CBCCE3A9B2
:1021D0002FBA4770FD312653C614334CD65C40ED00
:1021E000E570F989FD01E194588F9B9EF9E200E3C7
:1021F00078F3DBEC4036D6E0FE783CB2E097F301B2
:102200009BBD9BE7FD84892C9498C56602A9C19368
:10221000F6832A0FB1101F6CC6B0FFFE4BE202D44A
:102220001BDB617145D6649D5ECD40D0FC88FA1AF7
:1022300020C67AF458A999A8EB6D21FBB10568F284
:10224000B30856C742242062BC167A5CF9CE23EF4D
:10225000431E31FF6FED7CB8FF8C00C5E00184A602
:10226000B15B3490FE62FDDB662C9A2147ECA4E65C
:10227000B080F80314E59640B7D89052FFA45819DF
:1022800028B3C44D8F328ACDCBC93FEC72FFECF43A
:10229000C8F82BFAE033D3C5513BB7F6F578FF2DDC
:1022A000C6DD18FF2CB0FD65ACB44040D9C7BAF10B
:1022B000B480D9C2F85E987E98B58F6F3C10319A81
:1022C000FDA53BC010A3D868FE625E1FD81080BE7B
:1022D000EC3F10C28932DB1BD548FF8377B3B6339E
:1022E000C4CC717F5BDC50FF29DD0964A811105656
:1022F000C797B420E9D5BFF5A6A0F9ABFF08CFD9A1
:10230000CB645D0F098064EC93BCF3A16FA4085DFE
:102310009782F9E18132B4040EE4FD378FD162DC9B
:102320005B856FD4C7F9766D2122F767046BDDF109
:10233000080104F02DF186D68E4051AE63E23E9D39
:1023400099DF58F8A8D70C16CF8EF506122072DA4E
:10235000909F960618604B011C8CC9B26F9BE7904A
:1023600030DEAB0348102045D8C401629E8AC551B7
:10237000A10367B605F33054CF804224900428FAB5
:1023800040A020C0F94E3C04BC28B817E0881003D8
:102390000120F970080C4004F7110777348E0CBB4C
:1023A000EE120640190BF40B4EC48022E0528191CC
:1023B0007FE805BA40292156FF01108D9881302C05
:1023C00028F1004520602248FB01E8FC80FB9B20AF
:1023D00040421C4D71469BF231BDD725019EE3F66C
:1023E000BC08B804F7934608F38011BFB735D0F99D
:1023F0001ED2FC7FED8C40343842D8BF10EEF93548
:10240000AF14D299F1284A55EFA2CFD725CFDB40A0
:10241000E7C3BD8740FBD004843D22635BEAB7403D
:1024200068DC2CF95F6DAB018C2A265CFF0AB32FA8
:1024300008376C6CAD88FAEF166D32A696772CB51E
:10244000105B6FD4E966B24BF7F9378CFD7824DC6A
:102450001F5B869BB33B6588F80838DACF591302B7
:1024600086A2C525DBDA04339B6C50F83F25F5AE18
:10247000E62F3DAB9D10758902B3AFB8F963FC033D
:102480006C45B70437F85E9320B56ED8A0E0B34C26
:10249000A3181CF5D7808DADE4D00D66BA18037073
:1024A000E7CCC369CC3173932D2019FD624BE80C46
:1024B00029BA206EB76EB62D17CC9FA6A4E9FFC32C
:1024C0008D336ADB4CB8FF3C52C831DDAEB49FE2BD
:1024D0001D325C7DC8C0C1F8A0E2148222EF001A50
:1024E00071EEA081303B86C020B87EBFC721D914D1
:1024F00004FB49C0318180D0F7E0803004EB81C01B
:102500000695E701D5CBCF8E241070FD9780AC6E79
:102510007E18DBF65220715A9E46B2C07F250677A0
:102520001B9D7B3190FBD0E001ED8ADDFEC7418031
:10253000FC3C8807F24018C9D860F2E6B33087B691
:102540006E3C08C006F039E003706E33BC3CC6C078
:1025500042A3D384A62C11B3FAA05E0536E902BFCC
:102560005518D245203D516BE044E5F03F9C695B36
:102570006AFE16C142584453689A2E10364A7908AA
:10258000AA2EB30F0020D1D0FCF203F17A1906B6BF
:10259000C749EBF1F3874324625C6D5B8A48EC42E8
:1025A000100389AB7476ABA0C435DF0BBA1182FF80
:1025B000CAB0FA60FE400C900532201E53ACE9A070
:1025C000809F0C8E324002C0E9037800902D67296D
:1025D000B260E00781F21E48E040AE69C601101605
:1025E00003C51820193782F8FDFBFBC420BF1882F1
:1025F000341E082006C1BFA60377D69FD913DDCDB0
:1026000077EBB9C2EEF7F3267E177DD3682815E481
:10261000E5DECD0814E298AFB221300196850C8931
:102620006F1C112267702CFFED324246C004184027
:10263000FD9360122C08456E8FC0BCAF94868C86CB
:1026400031ADFD9D9F34501098484A91016EF38042
:1026500006F598882584A07A9AB35CF8C01490AFE8
:10266000D0EB2A91683D551080C0DAB9371C04FBC5
:1026700098111497FBE6E5701A73ADCF06F6F71BB9
:102680007FDB7E0CAFE42123F84672DA3CF32B9219
:1026900010FB6045D6E770201EED6140BF0AEBECF1
:1026A000DEB808807840BEDF0B3F9C2C403008B479
:1026B0004614B9419C4539FA7F02272FC608FF8886
:1026C0000967AE90029A1AA86074A1083111584A9D
:1026D0004A684BD150F03FBCB13001466765CFE04E
:1026E00026CAB3F387FA8517841005D06BFAE05D2C
:1026F000C640DFD0EB020406D87642402BD798A024
:102700007C927BB010F398940784F8D0014074EB6E
:102710005916C4F4DF93D477B898C9F8601E3C907A
:1027200007B078534403787309EF3C358930E0985B
:1027300013196001B33CBA6366433DD3F2B8E05766
:10274000B2D1C9D377171EC84BE70BBD98689BFA67
:102750001B30BA64EFBFB9CBA9F6EC40DD37B3311B
:10276000C866DC8FB66FA90C84E944666FAA0E199F
:10277000F2986EB3800814E018450CA7B3E0A2608D
:10278000123BEF05303DB4454BD3C2B3DD605EA5CF
:10279000A289E02ED3813C28BB88D898F9A07E3648
:1027A00080125072EE4041B38B19F072501AF33020
:1027B000011666EDE07AA4057326D022E013D70C4B
:1027C00000453A72B51ABE69538819424080FB9B96
:1027D0005304844E009FD021032B2CBEFD17623979
:1027E000F9A5FE9847B9F85EB98489B0DDF880FB99
:1027F000CC71BFCC790D7A983166F342E0D0BE7FC0
:10280000EE593008CB19815226FA824A413CFBEB43
:1028100057FD98884CC638FD15FDE6409025A71257
:10282000EE67A030203481488DA668EE1081C43F49
:102830007F3027538118059593CCE8F4345216B1B4
:10284000BE35D3D1CB42B5F804E2B29BFE5F2B215B
:10285000E098F34088868379C69C1A73982210CE3C
:10286000C0886C1361FE0ABEBCBB1E0910D7DA9883
:10287000C0FEF7D29005B2952096EB550BFC988ED2
:10288000A3E35013E33095E0B4EBA502FD980C34BC
:102890002E10D34737FB9870FA737F020426F4EEAC
:1028A000601BF82C5FA9F49F31B341F830FF3578F5
:1028B000CE010C88DB4B75E06E3939E881FF893534
:1028C000F814E498B328E445BB44847FD29F3820B1
:1028D000CEE17DD32B49DD2B18A150DE98C90582AE
:1028E000BB69402F5FE3982DFCD7A08162515879D6
:1028F00002402161FC385F3081AD72C88C884397FB
:102900003010F3EA4050D71309B0FA1034FF12C068
:10291000821A400348D7A0D82422CB2DC8FCA58C0E
:10292000BDBCD8D48087EE7E41CB47B62988CFB1D5
:102930008D20F80F7CF388FC804121750772F5D15A
:10294000D1174AA6CCE8F4C546889978E044FD67DB
:10295000FD32FD370124D32041023B65F3F2D3FD64
:10296000573EC62110F0F840060A204846E5B1045B
:10297000D2D284EFA7865768418C6259305E78299D
:10298000B5B8228461FDC47814F92818040B622BB1
:102990000178FB04B34EDD40081894B121A032A6A3
:1029A00006A9BE7FECF65C8530117865AD74CDF07C
:1029B000983C212BE048EE2AFF7F6360804387FD2F
:1029C000F9EBFDE0805D02B2201EDE98D10F2850A9
:1029D000FC30C38378D60FE0580197A298B0FA1E56
:1029E000C00228FA0FE8BB040954390F0DE4C101F5
:1029F0002CBFC04BAF953018EBE540FEB95BEC79CE
:102A00009879D8890AFFE02DD32DFF2FEF37E5F90C
:102A10007F66F051FD404438081681AE14B3EDC016
:102A2000BB12C9B88902D84C818BB348309C09E0ED
:102A300004190C12425A8CE3107E21CA86B3F7980F
:102A4000F8A00566C808655309F997E498E0803254
:102A5000CFFA7FE07F9C424050E0E00C8C2F1F8B30
:102A6000DF820243212BD363D87D02D8F98081D93C
:102A7000C809FC6269E6983CFF70D4041947CEF19E
:102A8000977D79A716B057C8165D57C8A4C512FD23
:102A9000C0F33CAC0699C8D060AB96E0F372B84086
:102AA0007BCD200632FD9810A10EF33CAE324A8455
:102AB00003E8E957A3E148FD044B30C5BD9812BFB8
:102AC0000821E7624002E58150B30B923A3859BEC3
:102AD000F9B9D84210C2B364D20D205C2667F298CF
:102AE000C66102E92480915FFDC784015BA3CF0822
:102AF00098F560018CB682F5981371AE192FE31D1D
:102B00008F22F206800298720BBE13FFDA32087C25
:102B1000E0F96B0220FE6060767AC81E4802F0A5DC
:102B20002C8F2F9816AB837F2B3080D398F0D3C097
:102B3000BF03C4984563F30AFC4001680009E0FB49
:102B4000B908B0FB8023C09831FF3F9894EAC0D306
:102B50002E15F3B8FAFEB6E180A9FC403020F1FD55
:102B600009495C2D46FD98B03B19C014BC9857D656
:102B70002CFD09E6B31132EF5D9818CFCA8C84059D
:102B8000316AB35FA133E6B04DFBFDA041040206FC
:102B9000D87BA501082FD4CCC8104D0A44FE98B1AB
:102BA000210E7C3004308142D2077B98214105DE22
:102BB00098F9C2828A500B8CD78921F5650CFAE608
:102BC00045B90E469F9B596479559F91C8DB79782A
:102BD0001789DF86D2B1C7D74B4830C840F5900778
:102BE000C3F346612B61C68BF644BC98B830BC98E1
:102BF000C434FDBA045D19E4987D8048BA1ABD6BEF
:102C00001076ABA584DB98F0FFD98FC022FBCA0AEF
:102C100060D5E45004C268848949682B48CC2143BC
:102C2000D1E586B914C28875AF13AFE86698084637
:102C30000C900C22F3A6248029E36B97FDE0731A15
:102C40002898AC04DF690C90C817AD68931646410C
:102C50007219503410E5260258CB6825A5E166E0CC
:102C6000690B7D327A98810611FC57F7213032AE1C
:102C70006B30782097303C7A9812D736C83D716710
:102C800017D385A5F31ED0033A16625F52AF0251E7
:102C900098C0B0FE98CB20FB92BC9852061C20D75F
:102CA000650C428BF130713DFBA30A21FF168BB1FD
:102CB000BEE57FB098E9FA16BBFC260128BC985205
:102CC00019C00A88A6B34EF3D30532CF57B30957BC
:102CD000E10930E019EE888291E8B12D3C4B60D3D8
:102CE000B06650FEEA34B3C84259C85E9865F23007
:102CF000A025319DC530DE7EA20214E475681E81D8
:102D0000A80153BD688A089D032E89247BDEE8F95B
:102D10007F4BBEEB2F943010F879EF8AED4932FFEC
:102D20006140B6D9E0036BE16BE5FEEDAE57C856E6
:102D3000B15DC8C0308A3DFA95EBB111E53008FFAE
:102D40009FE5840361F60FC6F3042018CCC0035638
:102D50000CCED33835F88475ED9140C3306D6227C1
:102D6000F5A2860800D74250C535725842CFE130EF
:102D70008B1AC8255922E0125188D104EFFF0908A7
:102D80006024848805343A9CFF04EAABCDC898DD02
:102D9000E4B52CE130BA878B245DC4623C3038D373
:102DA00004C067B42360CD0144D932265922D3131D
:102DB000E78890B020D7A8FA2E5D88CCC8C43878B0
:102DC0006DB9300E2B46ABB18C16479C3090043059
:102DD000FBD3C8835840F830BF8F0A84C0FE43300D
:102DE0003CDF50F9EA9801E25D364BE230F3E5F75B
:102DF0009831621C305E987FEC8C41AE3FF38B3093
:102E0000F4B5F846E1212680B7F59841725009BD26
:102E100098113DE305B0089CB3BB099F3D82585013
:102E20000B10E8804A028672D32810B8FE1C305D71
:102E3000A0FEFDA6148942500279A567C8A03044BF
:102E400046F32EF508B959E4F9C8FA02A2C2D0082F
:102E5000DFE5680121773E3046C4821A48BD5E49ED
:102E60008B2014E50AE8F8A8211984A3468FC12015
:102E700081F38F31F78F2F98D712049AB269AFFD83
:102E8000B04EEC78FD40BF20068A7460EA032F2E16
:102E9000982E1D65501E84D3F9986710B8EDC0C6F2
:102EA000C2EB18C48382D7B819FE2E30E72A8841B6
:102EB000B930F877AB0E16CD985A693102CD0F5B59
:102EC0007AB884EF33ABB78E284FED20C00819993C
:102ED000011784654CCD44D23B48B2C802F89275C4
:102EE000E2BF4911044041E00818857D60222C8230
:102EF00000723040977FA37B9809B0713F97D5A6A9
:102F0000FE52024082843269BB9239C8E0087CBD1F
:102F1000117732EB0118FC8B77B70E207330000F5E
:102F2000BBE09130B0771EC87898CBE63D0253667F
:102F300055AB6866C803539DE05A407F3A3005F0B0
:102F400020F56B69DE98F72C20B0FEF55164C8BB04
:102F50007B8F06F8E74D3E72EEB54A5AB350B5B3D3
:102F60008881E498E09408CFE08081D7362E619F75
:102F7000EFCFC9FBCDA00820B682C9C845CF09064E
:102F8000FB980203DC6014B36DF6CAC211768BB3F2
:102F90003FC80143402148DF8105C330B30B7FA206
:102FA00098216078FD31B3FF73B335E802624DD3E9
:102FB000D8F9A6518843C65071F39CD16CE00589BD
:102FC000B0D398FB18243BFF98FF240A8C66713914
:102FD000D888FBC3157D108A36E9C8FA6986E6FFF2
:102FE00035A6FE9EC2651AF3FCBFECFFB0FBB351E1
:102FF00028371233E6C5B5EDE6BEE0249ED36A77E6
:10300000C4C8FF608FF5CCF27FFBCA2248E3318948
:103010009FD2D1510180F3D72FCF776CF618FC3FA8
:10302000F3EF737513F59880FD51676D4E9FF2595C
:103030003F8EFEEB617636D0FDCBEADDD3E81DFD99
:103040003240B2238059D0FECEB1FE03673CF7CFA9
:103050003CE461B22ECD6EB408FC5EFA8269B60122
:103060003183DF3C6365C49BEB90FB4F178CFC8086
:103070004AAF40DA1542B0EF824018879298FD219E
:10308000F2D514E4D3907B8F08019080A0F410FB5C
:10309000777FC1D26E72DF8020E66A29F8CE20F7F2
:1030A00080A64541BF48D7D70104039E3DF820A81C
:1030B000FF3AF790C002C9B2DC23EEFE806825A17A
:1030C00032947FF906026068C5A8671666BF1F14B0
:1030D0002001AEB98433D02AF8288EA80CA07F42F4
:1030E000025450E7402103A60C3014F966332088BF
:1030F000F492FC706844E040206F42A00604E25164
:1031000010484EAF62E903388CFCFE2E4884A42898
:1031100012154748CF08A05B2950280F548AFC108D
:10312000068060011187FC08D2B9F91D20DFED8708
:103130000B3E345581EC46427F6C6381DFB840CF53
:1031400041384299D16175FE0ABE84BEFEBED5D318
:10315000E40EA2469D34B1826F404E10B490F872D6
:10316000ED3ECC8FECFE7259F9D7C650F505F3D67B
:103170000E4BFF4CFC2D2FCF36CC5E8D08F06FE050
:1031800070FB04E8FE12F57C14BF1842BEEC9908EF
:10319000FF1DC1A960FDAFAD0E28FB5F8002425844
:1031A000EDAFAC02404BB6F302CDE3A8FB9C8C0D17
:1031B0008DF29401DBCCDCD349DA56F8FD33A5C59A
:1031C0008BE68E98FFA7F65458F9724B08C756B68F
:1031D0000859D296015B4967FEA120C6F648C6731E
:1031E000E5C8D8FB80872F500125FBAB0A899E6775
:1031F000E0B622766E100220CD7978FA1BE4FD8AC3
:103200008FE9AD6DF0B1FA718428D901A1DD4E0CC2
:10321000B0FEA3ED9FFE2DCE36DCED39A81966E891
:103220001820EC7FF12901ED408DAADD3820A0FFA8
:103230008BF9738B18169F9E4011969019172CFFCF
:1032400002EF3727D62688FAC2BF3356D16B02D990
:103250002CF2D0F9B35E3CC4B814BE57FFAEAF3306
:103260001EF6480319FE1488FCC5F2DAC2FE1B6480
:10327000FFFE16E39C0B3DCD207A66FDCDE3B10940
:103280007E7BC4FFB7D886FBC53F0510614EED3C81
:10329000045BC958F827CC5421DDF640E6682AAE15
:1032A000592E9B22B6087F2EE5D84A01E1B1ED8662
:1032B00040482CD084EFEC7F30FACF96F4D7187DBD
:1032C000CBBB8D70FF6CA940A79B9B9A2C064051ED
:1032D000BA04629FB1EE5CFA8A6BC74020779F10F8
:1032E0008FBED8414002790964A8464A8401FE5144
:1032F000E508B5DAFFA20AEC25F1A3082F84106EC9
:10330000D0E0FBFB46F5E48049E604F46A3E2CA1DC
:10331000EE8298F5FD20A6470A689C34D021A3725E
:1033200054229AE768FD409EA0F0B241040B3C1283
:103330000A0548FCEA95142340341D0A082361A8B5
:10334000DE182B69EA390C107FD38E9342C02CD043
:103350000FD12084810E091FD49722D30490A1019C
:1033600028CC400966F8FFD430088A85586B28FFBE
:10337000C0D042800861500485BE1335E2ADFE50D6
:10338000C02B68EF97C3799D5A9336A430FC09800F
:10339000026A2122FFB9051011824C2022E07A2115
:1033A0006F5706BCFDC8419812DE66FF4A9601AD14
:1033B000BF8EB410FD7381BF9C41E6474280E37924
:1033C000F0FB4F4A528215D5C6F7E89304EF70FE22
:1033D0007F9C130E2825C03AEEAE4120D0AA2C8047
:1033E000467FECCC40FF1005EBAD017B7828D8F987
:1033F00010A7571FDB6A19C6A5C0F7831BC61F712C
:10340000F6188BE4DCBE32C2DE167A266FAF468039
:1034100004F477A6FF409B23F9331B18AC6E20F30E
:103420006571407419BF506EB6A7D5C40860FD46DB
:103430000BC6A1BBA4639A9D6ABAB12617E6B8FC75
:103440000A627CFD633BE5B70859AA80AD86D0FED1
:10345000A169850BAF403CA0DDFA50B1FB92C8EBEF
:103460009A1BCBC373A0BCAF9BBA88F81FDB1C1F91
:10347000E35C764F30FBDFF6138081B4DD96633971
:10348000A6AA7A83106ECE015BB3FF8A7457F30B42
:1034900031D80462A8200829D605B3019BE3C0FEF9
:1034A0000BFC4C03CF8BCB58377B8AB0FA1323D15C
:1034B0001818D3C65D5973205D7DB918CE68CFF951
:1034C0002015A046C1E5088B50BE7AC6499DD9504B
:1034D000044B2BE702EC34F719A09004D780223C70
:1034E000D840096984A5E0AC160C8E5928BBD3D10D
:1034F00033F8DE9346A548059590EFC6C5359DD9AE
:103500000360A90F1BBABE0F80FEC0013C65A3F18A
:10351000E904E0ED0FE881134BC4F3409D0ECB3876
:10352000109FF380ED0281F01C3EBC60200F821FD3
:103530003D08024ED38003203E0CE09CAA90FDA0E3
:103540002EB040144275851160122DD3F5D344F28C
:103550009E8642F3B334FF338981B42685C25A8FE5
:103560001064C1010C92117AC870B3610BC1CA8C8E
:1035700008A8EA6401C0228701108E03EC8271EE74
:10358000033718FA2193202440594301C9B305EDAC
:10359000AD8619617B60FB4AF011D040025020AD2E
:1035A0002A09FE32FD600C0CEBDD3040F1B978B237
:1035B0000F64DE3601300716C00370F30B3C391977
:1035C00060FF813C9005F0801EC8CE005819E48150
:1035D00052C6921E73D35840F34170B3FB2E301085
:1035E00002C05F52F382E306EF5DE603FB558115EF
:1035F000FB7FF6298CF8AED6FA84D79130CA08B092
:10360000BD46C122187C7F394C5C33ED265B18E344
:10361000040B44F84C820930CCE6B709363714C0A5
:1036200002909AB88130D385B30A208818E00993B4
:10363000403D5C10C2F9A0FD948806D000022B59D1
:1036400042D99830022500E188236C6525A2E69FC7
:10365000D277BB4F51DF8A4001D76904BB983484CD
:1036600012F56329BF11DA6B38FD2FAD23A5A97EB2
:10367000D1D4C21879B82D9330B7F70C6AF8810607
:1036800030432D731028E0F857F359F13C1CD0F863
:10369000FDC1A1DCE0C081190FF2E8013C10BD8B37
:1036A000F0FB7F04E07D37C6DDA2C43AED07C040E1
:1036B000EAD41F93E0312006F45E984F4F0C84014A
:1036C0003807B0F822E76640466290E5658D26F936
:1036D00082F7807046A36842CBB0010F3BB0B1497E
:1036E00031C1268F72211044E4420C8189642CCEB2
:1036F000584816202C613935EB12FED9A8402657C0
:10370000776EFE80F7980906081E180713011180CE
:10371000806C9822FE66CF022268840711906001B7
:103720003EF31206420804ECEE554420EEA6E8FBF8
:1037300052F9AA141B6F46980CFC07F0201EC40215
:10374000AEB0D9AE0CC2B426E0E01406703DD3E4AE
:10375000013C785E591EF38C5ABB773CE51050FD56
:10376000137EEEC1EFAEEAAF44D28C20D618DB96C2
:1037700083082BCB62044EDF2530FB83086CE69F69
:10378000C9FCC02051EFC00F765C8285B04C890225
:10379000199145D1188F3032A041388206C1ABDF74
:1037A000DC44240C8805D732414F62C6534001FEE9
:1037B0002C9009320820F9BDDF90AF065AD2497A21
:1037C0009804EFFAC84A60132958C601872F30447D
:1037D0005CE0025FF585A83014C7303C8C282005DA
:1037E000222E140918C4F696BF7240AE20B3DEC56F
:1037F000E739919A280C1760D7A84141F3940C102F
:1038000019083B06D7191979C5796B7557DE4BC86E
:103810000F04E00CFE45303CD707E1577693785C07
:103820003D08FA06F1401CC0DCF604CCB911C9FF12
:10383000F0CD320246F02490D3C72C101EB2BAF15C
:10384000BD9222AC419BA6B3023D4C32F84226D039
:103850002040FC08621438107CB40016E0651A049D
:103860004044E74090056010FA2733A926C17EEB5B
:1038700096814B8BD831C122627A2321818C597871
:1038800010EDB301027C41C9FB03631C169071B5B6
:10389000C024332113FD804F7522E0FC20724610B6
:1038A000DFDE983CA001F0B930025EB89662E672A5
:1038B000B4607AED9007F2FE0F8378938301D3050D
:1038C000AEF4573083F9DCE0810C83AFF9AEB9B7C1
:1038D00074F098EBE4BFF3AD7F8429C53831FFCA9B
:1038E0003483CA24F87CC19041B69A07EBD7FB8099
:1038F000767E46C19E98FF0C8201300226C2143D9E
:10390000DB1242017F5F310A673FB750300A16D0A1
:1039100022FD9840236801807FBF20445DF4CF04DE
:1039200003F6208029591AAEFE6B6A0206B6B15121
:10393000BE98765F509FF54DA01180677CCCC5ED99
:1039400002E8425124E0B8C78BC6CBA2B9FC91680B
:10395000F3BBA055CDF8FB4C103C3987DE198481B0
:10396000625E985FCF79F5B75DB1C503C7D930E620
:10397000E0FABD813090070819EDA619E4571957F0
:10398000A1175D1603ECE30841B338A22069FA8C55
:10399000C8C869D30798E0F3080B2B8EC67EC8FD14
:1039A0007829308126308289A61E9C4C553021AF63
:1039B000EFE7741364F38241B304C9B3ED208F08B9
:1039C00019D7100BFF9FA249304220D2D714807C18
:1039D00057044C0210EF2F6AF9DD63C211BE73FE6B
:1039E000989946F30162FD24028C8005B088657BBE
:1039F0006BDC088877D6D047D0E012020618A605FF
:103A0000BA242145C6B1D788F919309E985C50FF79
:103A10001EC40378400B644167E5C87AA5884F83CC
:103A2000E0C803793419E0F3CA07F1F3FB2FF29BE6
:103A30006F9BF8EB286F2C98AFC83F9885507F7527
:103A4000649FF47EB67169AA0030FD14C2325876C4
:103A50007581B9FDF88F02D6C2BE98F78009310191
:103A6000F70AA360F6042240287BB34048C434051B
:103A70004FC0018B6041E74D8151C016C8D3281853
:103A8000790A0CFC0110300270FACBAA94FDF649B9
:103A9000BD98A027866DD0083FF38928008DA089A6
:103AA0000521677B988934D18146C27B78148DFFCC
:103AB000B01136A12250021A9361F3BEA8AC09D905
:103AC000C8FEBA322873A86E1D03F598419E1A7F6E
:103AD0001E50D36993A810C4BC40A457E6B46B78B9
:103AE000F8ED3470C0ED5E9848E03C0295B8FEE811
:103AF00078100C6CE00844B3EF4D4B1CD321E3B3BA
:103B0000874277D7DF9F98EEEBF804201580359534
:103B10001021E8D72C398034F348F120FF6C02489B
:103B20000805B304DF6591300906C1C742025F543E
:103B3000E64C8151C944636459574378B5900132CA
:103B4000DC8AFB84CBAD0493FC98FEE18D21164802
:103B500022671124674CD6301167276605ED2602CF
:103B6000E4441801D63F4C8405108D22049388F359
:103B7000D102E82C8089BDBB171CEF800711F59896
:103B80002066F50D66F3B436C42AF5986088F330E4
:103B9000012D2EB0F2781D23E0412C00A3F316C8AE
:103BA0000318C6625FDFCAE0FCDEF3A527C698B63D
:103BB00040FF2398FC10F298E9C574778BA583B871
:103BC000C880F917EF7FE80C084AC609F198EBB6F0
:103BD00006C9C8969002B3E914CA600F2808B1401C
:103BE0000F604B29887A21C1101A7CF612024248D4
:103BF000203A24C8C7F30B710CFB4044302288B92B
:103C000030914E110A5081FE2E30F38450281A63F1
:103C1000680301A05F77669CB4D3DA26027BB64DB9
:103C2000A4FF05348042D2081B01176941AF4D0142
:103C30007EB4B3FF86CEA8C2FFA3E213378D30FB5C
:103C4000BE405C3DAF013BE5C9782C084DEF0C84CC
:103C5000787E6597C8747124198B110FF5E0813C4B
:103C600010F456F3BF61CC8BFFD2CC81B3E0BFF62A
:103C700083779D78D557F075179E4AF3CC70FADF9D
:103C800020091056899022309E8D5071FC9328187F
:103C9000200B60CDD301FF419FEFE520214412FAB4
:103CA0000403402360F67809B12C10E8D39050E764
:103CB0007DD309310883DAAFA20453FE676024EC98
:103CC000FCD70926C20819CEEC61FD8440CFC97B20
:103CD000B23F33C6C004982049D12C592378F0C292
:103CE0004458E723BE4C849A11D3D9EA17435D1296
:103CF0001B40027F0E30F307B0EE753058400FC600
:103D000043777AB0E0012CF59820723D79B81049DC
:103D1000E0C6D3AC1695C8F3EE7E1020FCDFB718D2
:103D200001FA9831BF9F80CA18045C1BF3792038D0
:103D300066E23EFA9F1BF77284823725C60300C1F4
:103D40005C2BAE11AD175A0AC83FB38C80093021E5
:103D5000062BD9FC7F10240C0B0510F74B11210406
:103D6000C014D2F51A400362CAFA11CFD524141038
:103D70009C02B321423F010820D89FFFAF30A01220
:103D8000140E4AB8D4EF1D98CF26D07F62116AE096
:103D9000018524433467F9983B4CD0089BFBCEA89F
:103DA000FE11328006D8440A37236C0CA74DD3028B
:103DB00088FD6FCB300256C606C2E6F3604023B2E0
:103DC000AECF3619F5A501AF2D23C0765CE6D378CA
:103DD000FFBDB220AE022E308BDF0FCDE481DD07B8
:103DE0007350048359C82CCEF619E0418B93D2A5A9
:103DF000C019060E84BC7897B308ABB3E0DE9838E0
:103E0000FD0484576079DE902012EAAF2DB9AEE050
:103E10001A38F84001C99309677ECC09E7E0229877
:103E200004C60860F3218005320A82834820E193AA
:103E30004081608845F221A0F8A0BF40C82BC2EBAA
:103E40007FE8F0B34258C358043D0B849011887941
:103E500098CE08C208983423BBD9868079C873D716
:103E60001123D22C33A1B0EDFC5E9833EA101CC0B4
:103E7000EB017840CE98F8F613063918EB100BE0FA
:103E8000CCC5E51981DE78AF402FA57A6B62413C45
:103E900088C958D3AF021F8BE62C2010FB7F2D4A18
:103EA000017C9842B677D29FEF02613E88D8208786
:103EB000D17FE0CA4083EABECD071068FC87D720D7
:103EC0008840834BEE90F9D6F644C0D7DB98821138
:103ED000BF5208E659200AE4284BE6EB3FAB64DF0B
:103EE000C52420445023EE60842DEF6C1580400BD8
:103EF00081089841D684B322C7FE89A034A6807E6B
:103F00004A488EB0E430820F5008024578F36D3491
:103F1000029E669E35FDD4089A9A9A4001CFA880E9
:103F200006105B0FDD2368911A3A2108FCE2733218
:103F300056FE9DBC9DD78C90E319FEECBCB8D11108
:103F4000415C4345C6C650BE55D3FE80AA06C13A61
:103F5000F7C083E58AE478C5BFB44155760CC0014B
:103F60007F9C98EDBF07D7987270E05B087F3B4B52
:103F7000FFEC78FA0410B00A46B99160AF0B80CC20
:103F800084A6CE870223F362024CB0F4216ABB6C94
:103F90005EF82808318040DC849010FF830A2C04EE
:103FA00009010246F8C2005810221E240C9005395F
:103FB0007AD2FB84D502BA1777BF0122216C099807
:103FC00040483C08022120CCC64216DF3B6FFF7FF1
:103FD0000126C042CE1810841220B9EA01E006087A
:103FE000048B03936481F9B0F44038FEE05D9907D7
:103FF000BC0E466BCC3001B10B06CBF34552DCA9AD
:1040000066ABABE841337D07E0162923E068FF810A
:104010000C880530801EC0D60218D70FFBDF40FC8D
:1040200080F4AE8D66F61CF4F002E2A088815A801E
:10403000ADB3505AB38801E9D01849D3613F732C0E
:1040400004025AA2A301E2FB37FD43B3ADC14CF316
:104050000B624D4C82D9010D7B801360C804205C3B
:10406000B611DF196AB3CFA001901688049A904B5D
:104070006869490902E90480587D1B118C8021FA86
:10408000AF6366FF61B3FF607F5C3E6F67B6D34C82
:10409000FF52E201CE31F3B3973DD3E080F9C12165
:1040A000FF986161668E36D3ABFC092D6689FE9B55
:1040B000F09E5851F6D9E6EADF74DA60FB8151626E
:1040C00086447F18319817168DF399FB8247D7CC19
:1040D000DB7FF18584261A2DFEEDA0080182C1CB7D
:1040E00038B30F16FF01E5A3FBC7FC5F511A40FD73
:1040F000DAFCB0028FFB71084023B6DE0C46EC2BD5
:10410000FF82EAFB7A1E350C34863FD481FAB279FD
:104110005F98A3FBF028C48CE3A3F33DB4842DD3B4
:10412000BE288EE2F880B720FE668476F1A0FFE616
:1041300046AB24045FAF4BD8AD22AA62218FE03C8E
:104140007113C8FD0B90717D726F40E0EE81BFF47A
:10415000F480EEB802A4C47B19404274DF2B88704F
:1041600089EFD18C42FB12E8822068B3F8B4FC8559
:104170007B816DE8814109B2220CA3EFA23DB3011E
:104180002F95062041DDC540107135B38B2038A72F
:10419000FFAB1001240B02580212B5AE801320C0F1
:1041A000C0B6828D4C1AF840432D2805ECD7B36079
:1041B0000501FF90A030C004830A181B01A4EB0086
:1041C000AD80EBF526C5B804B5F5289FF0666520EF
:1041D00006E4C0411EC0057E9808DB153F0BE2C017
:1041E00029885B0C3C050341203676502E25FC9235
:1041F000882A02A845533D28FE300C044180580609
:104200002F4854ACFE8802500968FC0A84342642C8
:10421000B7E5464403199640AABE701989FDCCFF44
:104220008EBF02E64BF3245DF3D2B30CB5F0D8A4F5
:10423000FA068891EF581DFBCC8296DD11BEECB3D7
:1042400044F666DFC47BE764AE8A405C86826DFD1F
:104250002F60F88A796A2CB920738C73934466D4E2
:1042600030FA8CEDBEB2BE4C714466E376FC49FE7A
:1042700037D047EC10B920F3FE11A9E4BF4060B875
:1042800024F3D49CCEFD7F6089F6E201D73684FF0B
:10429000A159996DC3804098B5631D9C765BC6FE9D
:1042A000B3FCCBEAEF36655EF711D767AB1950C2A6
:1042B000BFA1CFF7D11008B87B0603106DFD9B405E
:1042C000F8AF197EC98404DD1918E981B2AEEF4355
:1042D000105922483F4B3BE628FA63F43127406FE0
:1042E000F6F625D15F9B7DD575B092C9EC50F8806C
:1042F0004BE84386D88DCFDBA718E515B8FF7F6C58
:10430000A0EC1002067CCB593126875B4448D8B616
:10431000FB3B468B868CECDF31658FD931106D4FBE
:104320000209CB19FE2C1D5BB399DB9F8067A81493
:10433000805E8FE0FD3B041EF5D3597BB204D23D75
:1043400010EFC609199440B502D2B00AC9D5900839
:10435000699D39D8FE8B1885B26808C5F498B46297
:10436000C50CE87F56100879D07517B1B371148465
:10437000C7FFF95089AC9FFD67EC47F3EC183F3A53
:10438000F5EBF8F07F58A937899AB3E5D29ED37739
:10439000769D18F869E58F7CCFBF20EF46F3E9558D
:1043A000F390AAD380FFDB7F401BA2904E6D54E2B6
:1043B00063612119DFB837D0FE98B9A1CF8C36FFE1
:1043C000840824DBD190FB5C1151E9E6AB1736FF82
:1043D00002014B7360FD6BEB251845F824C64D3781
:1043E000FBCA8053E77DBF24AFEF6CC970FB51CD92
:1043F00082633F80647AC7268CAC968934FAD8E70A
:1044000084A5D8C09D42B703FACBD38B11F34D6E70
:10441000AF20B437513A4867CEF318B8FE1B960D5B
:104420004480E52881E85AF3ED64E6CC67179120D3
:10443000EA903525E3B008E0678D7E403C86211088
:1044400008FF01D28020B67F4BF2BBDA6F01100F5C
:10445000462022DB88D04F3343C07E20443D0F519D
:104460008620E6E41A2C4E0E30FC602E053607330B
:104470004002E3480A0B670144AD85028726040029
:10448000CFCE4AEE050D207887B491270A1F050884
:1044900090BB01DF5850100C4029030F2042B62179
:1044A0001C110F41258008E71038FCDB8106FF8ACC
:1044B0004120184262401DFF08816104202E4142C4
:1044C0009F01B7901804821232F218358D7FB3081D
:1044D0008065142A02C1833050D781B0FCF2C42019
:1044E0000680D6D8108E00B801410D0EFEE537F2D9
:1044F00081AE4F40E986FEB414FE6D02218C179FF9
:10450000DECC08DEC10990848480DB20094CBE72B9
:104510006F0110B066E28F50FC04AF3D8840AFDF02
:10452000FDC26DAFDB2D20BA98D3AD19CBBB33786C
:10453000248B8077C0264DBDD8F888F9087DEA6ABB
:104540009F02C448E6AAE56E0497C2E2D3951642DC
:10455000F125B6FB10FC98B02187973240FD471E2D
:10456000983E2CFDB68E2CFEDFD05E0C21A0D830FC
:1045700045DA7001FBCC136F90D0F823B79B5FDB5B
:10458000E210F9AD9FA6AD79471AB57DA6B7F658EA
:10459000F92CC60651358EF131F9F040D8598C8B83
:1045A000E0F9061A25FF266B9FFD65B0FF9E046E9D
:1045B00095627B2F96094F7F0D605A90A266FFC4CB
:1045C0008D313B1D4863EB6118319010B5FF22A47B
:1045D00063F2D237BAD88D01B16FBC8668DFCC38B0
:1045E000866058FDCC5B2F0118FB9E57979935CB01
:1045F000040825F0D8B1FE5D581906C22308F1A9B8
:1046000094DF1404B6F447AFA490D3153CD5C5BDD0
:10461000E32044C0C87F51AAC1B9F373E904810300
:1046200068FC84A00E01C607420A109983ED45BFBD
:10463000F0948002D13C1A4103281F0180111467B5
:104640006BABA005AE144AF180BFE6E72028736E7D
:1046500082161B18AF43C1984D9C50D3A0FA294134
:104660000A6FCA9A02DB75B84882F2BB96380876A0
:10467000B66581205E43892977FA030CBB9FB95B3D
:1046800068FBE08B30079A31A0C0D7B70C8201F2EB
:10469000301006C2E93D036E49E059E6FA18C00140
:1046A0001827DDD30483FD60200380412CDFA59F04
:1046B0001EF318100C60236CE238FE741130C09A9F
:1046C0002856A329D39A203DC0E402039CF0F6109B
:1046D00030467B6614A14A6C98CC8F04F4F3091021
:1046E00005668D5A0B4AC382D7B7C0FE80AD9002D3
:1046F000672D88D9B69F84BE100902C4210019B362
:1047000082F02CB54019064226BE8779E020244C61
:10471000409C29F2C0029055A0F38444AA12C660BE
:10472000FB0A2C7D70F04016C030D40B60CCF30532
:10473000E49C0A4036CB6364F33919E0FE010C8037
:104740000730401E63E0784C0FF324FFD3F240069D
:10475000D0027810C90B20E6E1BBF9DA7906C15F17
:104760007C83E7D06919B27941CFE94CED4DD3C0D4
:104770002009D73DC3C140282B39E1BFCE61EF48A6
:104780000173E698FAB92104ACE0D74323A08F085F
:10479000AE38065C4E19D39001FF5198A4FFCAF8B9
:1047A000C12DFFA54FD3080049455C9D9F46C00120
:1047B0003CEE60118CD67668F81F8494C08D22443C
:1047C0003FB721291120A0FA08828012D0F4770384
:1047D000C69C812F524DB324FF22D98C48FF11195A
:1047E00014A08E5ADE7F818BE7058210D38A44D6CF
:1047F0002368E70D505F44FE69963BDE97A00126D3
:104800008DCF2B66192484FF0CE46641E8FF0680F7
:104810001DDFA8DF26BCB8215937190C3507C0FDAC
:10482000B3D0EDF22FDDE4F28072721CC028185470
:1048300083A4BF64E633B3043BF9BF819A01FF64EC
:104840005D2B06E7820AE01EF498E1F2EE100362A7
:10485000B32D412EEFFE4A8344B4F8DB590A0147D9
:104860009A0429C0CCF613B6C1657BA4A0FFCCF88E
:1048700041C0CFFF20190424127268089F198810C4
:104880000516D04B0D13BDFB1038D2FBF85005B800
:10489000420208FF1903100422808C1CB0DDD8C22C
:1048A000ECE860022F8445300172B3205FFFCA6ECE
:1048B0008065FF0902D311EBE0DFE6982AC5C1301D
:1048C000882B93F5F542FE5261F9E0142D99B0461C
:1048D0001E4B87580F3D9D3D9005FBDBE77820037D
:1048E000E63C1071191EBC669640FFBE98A100E020
:1048F000FD2BD3D098E04C6303BB83DD9810D8FA2E
:104900007D1F7DD91173447E9831D7C498D6AE18D7
:10491000B87AB3C9D9C8ED3D7102C420E4E0FF5CA8
:10492000C82B39A97BFC445F4590C119838312C40D
:104930009910B3509429B35C04BCC0196FE0901671
:10494000B312BFCCAFC1A17FB3765DBE71E02BBE09
:1049500012A870F80BF67D7092D8FCBC31301110A3
:10496000F3F14A5061F28CF0A14930065FE99808F2
:10497000F25C4C79B3FFCC7FCA3288E83886AD024E
:104980008B1CFEC5300482127FC68A401308142D8A
:10499000FB04503409786CA1C814997139C6195EAA
:1049A0004968C1FF6C6600B6BF5BE120F02BAEAD7D
:1049B0002243EFE27DF9997B5EA5AF04E5B90F8252
:1049C000EF17F3A8C583395FFDB7E31B610D66934D
:1049D000087103DC30D17810E07A98044D400C2047
:1049E000DC303E99F8FD24485F37DA71A0FA4FECCD
:1049F000EB89DFF388C5C0B769FAE584DBCF98FFA0
:104A00007F34212633B9586D68709C2D052602FB32
:104A1000AE92C15788F8300A08FE044B805DE282EE
:104A200088EB1161CB53F78026FD7F303290496DC2
:104A300011FECCDF5B061216F830796F20880591E5
:104A4000C440011710613CAF4C42011382FD337D1D
:104A50000D46F077FC5C7840036805EAB812FA7FEF
:104A60003B16CD98BECCD96670DA403CF030A590AC
:104A7000E025795EC5C6EC5E2001EB0C48F9DBB29F
:104A80000806BAE1046085B680B630CBCEFCABDB5D
:104A900036EB0AA266FC97E0C43CEC60100C84AED6
:104AA0006AAD7080714A5422F798E8FC80D741B013
:104AB000085D13F80262114CA805A6F119E5CB4C6C
:104AC00084999519A0CB30125E603004882DF56C66
:104AD000281801E798F33014C25FD9C72340A748CC
:104AE0004302B8FB0A317999C6C044564C9D8C21CB
:104AF0002934F377A69843F34D7765142117B30152
:104B0000306BCC30A105EB0B26D2EBB0F8CC25A056
:104B100002E58216F36FF62002F025045134F6A068
:104B2000F9F9F869E6AABA222FD1E35DFCAFB830F3
:104B3000035E2D303BAFAFDE010F0210A23139F61C
:104B4000E42140EE0F0478E0FBE041BBF27F1EF26F
:104B5000BC985246F3C112FC8212B5B3F59820728C
:104B60003012D7D198891FE54B949BD37F243024F2
:104B7000ABEE597A20F7981008FB0044AA9B010C71
:104B800060BF4F8245B3B329F00A3BB94C30C55FD3
:104B90001993C2306673EB4404B34041EE27A19CE5
:104BA00005265DC65C03117A98B0061AFF2AF598AF
:104BB00080DF6E5C3D016C3FAF35AF7F8C257BC7DE
:104BC00089902084B340B58FE630903164D31220B1
:104BD0009228D390EE413026F9049820A0507D9E73
:104BE000424C02D8F8EF24984306D746798B98B206
:104BF0004E066DBD8BE05EC571192DBB027930E2AA
:104C00002B0332A820D3B910095DB15E8B031EC0FF
:104C1000D7024857CE3D0370F88041C0B69FC58A81
:104C2000D451F37F92AF0A848DA97ECCF26612191B
:104C300095715F96B7967A84288EEADDF650130B4D
:104C40006F59FBC28009FD1216C1005804C2B37E21
:104C50006D38160419D6BF5CA0B8AFDACC0AF3CA17
:104C60000204429CE0B48957E06B1D2262C64C18D6
:104C7000A921FFD30401B01018FDA09F08910600E0
:104C8000421AA4406F25F7B33480226F49896836F1
:104C9000B0A0BDF764F330A43070646A4A6B6B0156
:104CA000219C23924411E68643A2CF892701340A2E
:104CB000DD68FED28CB3917302C995526992BBF341
:104CC000DF28C8F96DFF0C82663DD3109408CA8DA9
:104CD00028F861F2D3CA676BE658F9EB12F5B90010
:104CE00095D5EB5842BECCFD4D6201F3881AA39BCB
:104CF000FF35668880E985C4E59DC819200BDFF97A
:104D00009906911ED381580C5F850F60FCC2041177
:104D1000D1A206AAC1C64CE5B01A40FA9F4E27128E
:104D20006E11062B5FDACC50F3CA0405A6B04324FB
:104D30008AE73F4481510A01B70F1AFF040829028C
:104D400020840930E101B0FA1CC822C074D5D61104
:104D500001B3019130F2C44A66090D3F301CB528F9
:104D6000FDCC01AE8C62272154930F2320CC420A44
:104D700084114D16C172918B73942C02C012D728E6
:104D8000FF8ADF50EDB1C83FC80BE001048005AFDA
:104D9000D07A98821820036FE6A002FACCF36DC691
:104DA00066238195D314ECB58358BB9030BB03CCFC
:104DB00016D00E480007EE0303FC76B50B06C1FAC9
:104DC000CC01324534AFEF3645EA0A35DEE53084B2
:104DD000B1EF725D0AE6E802C2EF4EB851C68481B7
:104DE00073CF38FCEFB109DB562B2EF76B88E5D576
:104DF0001EE0C4D04530CB1AA439FF9BC05C30FB09
:104E00000540B00880BD9803738641209501C6E82F
:104E10005E1301F04C8009C2C440FE3B8090024EFC
:104E20000B308CE6A101342DD1936C635781D6A849
:104E30008951BBB3723004E212E330F2C8BD98402E
:104E400013600277AB9889DAE20A40633301A01A53
:104E5000DCC4E330FCA5B830FCB6C81638D1CAF6BD
:104E600024E130D74566C9300A8645D3E498D36D2E
:104E70009ABF102EE326302C68FB7DF63C0806F224
:104E80007130379B0FE271503A0C908360FBF9BE92
:104E9000658BB3B164481166F97B59C83EE00C10CC
:104EA00081781AF298F33EB29BEF3B98BD3BF8FD38
:104EB000086ECD44BFA6425F9ACE81A0B321A44024
:104EC000E0E4402360567F210022014519EB9888D9
:104ED0008B54A717FA3404D72402CF846412448178
:104EE00092010DB39F6A0328020C80C38930DD73E1
:104EF000FDFD942204713070BAE56250309FDF5F8F
:104F00000E60999F08026C45B3EB98025F4EDD037B
:104F1000E11202EF1198E590AE3F4020048820F5A1
:104F20005752F04505312E59C9C8F77F2F307AE224
:104F300030E35090167AD788984368199ABB880155
:104F40002166FFE059C8BC11231D09FA5F7640C8ED
:104F50009548D8EF8B2028FE84BF81EDD9B830D793
:104F6000D59803E50A9720FD7FC6EDF9B547D39F95
:104F7000F3C530F799682BBF30FCAE10D9FB2F1169
:104F8000302120EEC44098E4308C377D52CCA60B03
:104F900001132441D2300A6E84BFCC9077DD32A950
:104FA000AF415FBB26D8981061CEE230D917B54328
:104FB000F8AD9020B96088FC87042E9FD282E7CAA2
:104FC0000DA0119734FA67C88168EB1121A0F4CEC7
:104FD00002B377EDCC013F32A0A23150E252E4306F
:104FE000109A7DFAC2FEC80A44DBDB9898FBCD41DB
:104FF000884ECFD02C2159285DF3222FF996CCCDA5
:105000008A6681F39C4EA5DED882FE6B46ADDE98A3
:10501000EB90FCE03AE201C0482303D9B482ED15DD
:10502000FFBFA161BB19473CF100FF337F26300C65
:10503000F4C11E04C89ABC0B40701D06A020DA7192
:10504000303F9978FD2405B180288A852D096B5859
:105050004530A1C1F3CFEB206084D4B430847FDE2F
:10506000CC8276E5DF05FC22BC9A13FA22A1CC891A
:1050700004B31041857F979896A8E6E3083B0602A3
:10508000E58D4064C87A21F5DBC80066C860044A33
:10509000AB8DF63ECCDBF5F49091956FC4E6CA2259
:1050A0000A9F4F062084284037B2526C48EEF2F037
:1050B000F9E55D0774B1AC23D3D5E8230710772158
:1050C00030783B8830C9FFB6CC7E6660413CA00199
:1050D00010B803DB8230DA70FA9860BB9CC896FF88
:1050E000DBBAAF47F0AFFF0651FA216DA7CBA25D47
:1050F00073FF6F5F8518C530F78CA1DB085A5230FB
:10510000E228FD0FED0406C01619068B6063A8485F
:105110005F30E4217C9B11B751D5C6A0C430F97F24
:1051200035304085D49119130340739B3222779612
:10513000DC91C5196F2DF8FF3FA414922601408D14
:105140001A41FF281425A0213400C68BD08A0F6392
:10515000680381101DFC30AEA00230D79B30A00543
:10516000F3C802775A99F898B5FBE730141248A1B2
:10517000F8999B7E51C84FA780C56DA61C9EB75C51
:105180003001AF0830AF0D521901CAC95FD340BC1E
:10519000F678FEA5F833226BFC0321020CBD98A023
:1051A000D707C0D7651230DE3CF2B3E53022AFA19D
:1051B0009889A1D3E0D704D09A6B79981A76FA9897
:1051C000310670FA01D2CD1204E55876BC0A7EE3AE
:1051D00011318226C1755C4803C98F24D8B81219D1
:1051E00096FF10BC305CA02797F51A409F03D5446A
:1051F000A105063DB3D02202FC305D1DEB20B2FDBF
:10520000D1924024C0A1191180D6848049C8F38E60
:105210004505DA4489DAC82FB36D98100139300892
:105220008048B8EA8BF58F03F198F3EF049808E40F
:105230003001FAB350FCE0817E5DF0401ED0025890
:105240006B46642BC8D5B80EC0309DC05D6805ABF9
:105250009BBB9002238D303D9878BF20C998BD1E1E
:1052600069EC98801C1AB03B66EFA3CCC820BFB68F
:10527000C58B667564FD441604D3F7CC5875631F5F
:1052800019C60FBE6B7F9098E1BBF389302520CA09
:10529000A9F8EDD576C467C812445ED276E98CC110
:1052A000B31399609190D3BB094BB7F6CC08BCCA35
:1052B0002692ED16EF6F982362F498118316183436
:1052C000C920DAAF05C08BF86367FF17B3CBCCD723
:1052D0004FB132C6D3F0FB5AD779787C17B35688D2
:1052E000F3DEFFA387B4D6662138D32C662631FFC0
:1052F000F166A7D8FF24F26680C9E3301C62397AD0
:10530000FD31F26EFBCC1A32711BF548FA123FE107
:105310004D33CD2CB830C44DB6C5E7D33666E0FF6B
:105320002824BC02DECF336EC1D323F376B169FFEC
:10533000C6FEF9CE31B4C6D398FFC6BED2C50CE9BD
:105340008FD72C431128D9B236C8DFE5CCA2886CA0
:105350005AB2888CAB7FFB7BB0FBD4B980A46C368F
:1053600044B299150BDDF41131CE6FA772C818FB4A
:10537000407FD9BE86CC79D7881E1DCA66B6DBC8E9
:10538000FDFB5B672C1D085DA102624A92045BCEA7
:10539000FC11DF996537A136BFD9452AC6013CF219
:1053A000D9DC89CFFE57B8F8B83DFE14EBFCDDB66A
:1053B000286CE40102487F8EE5FBAEC18DB6F5A1F5
:1053C00008054670D00D40FD02BDD20241FA4009E9
:1053D0002701212304A3CBFC74C47A28F367356327
:1053E0000449A701FB23C1FFFB408014B002163122
:1053F000C1927D0A40826D7B78C03430E0C43E03A8
:1054000050682505CFFFD2C02809FA0614A056D04F
:10541000677830018EA0058F0214D60418787A03BD
:105420008C30037C60FF00B9065FF9C4138AFE026A
:105430004230188814211F00A281872002C5AA408B
:10544000F60915815678677A21604F60110873E07C
:1054500082818624AE16AD21C15F11814269031895
:10546000F8BC08DB8521531277228251F7188AF99C
:10547000D9B7444D6BE4CF5D7E5EF9EFDD88FDA1C9
:10548000BC231090F6C9AF07AF81CDF644F784DF97
:10549000C4B1826F3C1386F3B7F817DD86646FB52D
:1054A00096D653E2E8F3CA3CC5788FC1317EA6FF99
:1054B000C8FC0316FB4D3F8C806BAFE56D58F8F9C7
:1054C00006F51310CFFD0C40C65D51EC9EDEB28098
:1054D000938F80B3FC69C6BEE2DA93DCCEC579DE79
:1054E00002B7013C73F1C86DE5A0FDFE455FE4B66F
:1054F000834EC676659708D13AE494ED6BB66BEDB2
:105500008AA8FFB95A9FD63735E600BB09669E06C2
:10551000192C53C325FAB5C7F449CFE6A188FFED8E
:1055200088E5F3B7D6FA06DEE3B1017357CDF03C58
:1055300014CB01B4C0B6FE32A1BC81D3768420C6A0
:105540005162AB01D8C2CFE5F8A0AE99FCC6831278
:105550007AA308D7EF7D1D74FDF0FD9C025C6962A3
:10556000BAD063EDFF94FB8DF917FB7365AE550858
:1055700031206ED8AAFEFFD85AF911E78B30423895
:10558000F818AFD8CB62FFAF98B0CCAFF6DD0432DD
:10559000987EAD1510BE1AC23CAD4031E12FADF67C
:1055A0006C34E0FF6C79C2D519FB90C7199BF1836D
:1055B00018C29F02D073CDFEA190FDC53E58DCDB22
:1055C000137E3CBCF8C7F796086BFB8A81716BC9E8
:1055D00063FF2EB1801F6CDEACF967D6BF0229CB0A
:1055E000620414F2FF5A7FF92CC382483AB808C506
:1055F0004C715147B0A3F99612F3C20E7D4B086768
:105600009E1D7859A46E6D70F5565ED98BEECD88CF
:10561000FE0AEDCE1310B14080F65C10205FD8C1B9
:10562000C65BF9DA93C93020E97BB804014DCB247D
:10563000409BED4430FB31DE0802442DD5F4439409
:105640008044F525EAC6967AB30279B4026500690A
:105650004FDB58FB8083F004A00330B98C9250BB21
:10566000992AEF0DBFC82414E91E212A19888FCB6F
:10567000D33355B303CEA9A805149F878C01091015
:105680002AED4C80607B3750950BB3BF7E90FA803B
:1056900094FF1A2396E051450013275ED02321F38F
:1056A0000C248010C0E0FE4048080B052054F1197E
:1056B0004072CE0C0E601870CC040A7C4148818484
:1056C00069B59D8C089470045CC10610FF8014902D
:1056D0000A0B38FF202BF2EF96CAE93746D3F37254
:1056E0002934B32234F92579E04136E50112E40189
:1056F000416AD7DE98FFF0D14480B33AD881402088
:10570000082A90C02217C49B68A66498B39EED68CF
:1057100001BD98FA46DFCBF01015DE932002DC7D48
:10572000594D8BE0102BD8DA7CFC1742FD4F99C7FE
:10573000588BA6331CE3783D8068B2FF4BA5CC9B09
:10574000FEDEC840E86816463B35CE091028FDFF4E
:10575000B79534C5D01729C380B1102108D5B22818
:10576000546F118A64F35D58FF2CB744CEC47B0B91
:10577000406106AC3E18DDB3E3D7C0509AA3871949
:105780006399FEDE10F819B4402EC6B068C76D04E8
:10579000D44B386696800F4FE54008F318EDFEDFD6
:1057A0005CE67D6B8688FC7717CD9871A1CE8BEE79
:1057B0005380C49BD388FD133FE5ACC8E3EC397537
:1057C000016736C5C8FF7ED9013A3563BFC3970468
:1057D000B597D35EF8D6DA78FCA596089794B7B15A
:1057E00001BCDE23308A67EBEF58FEF8A01034814D
:1057F000461C4282404E60240D9FDDA142D4089A8F
:10580000CE50119D80A11D059FA348B8919E06789A
:105810000A05602521338334A091180B4008EE0C53
:105820004241CE3C38FB7B7B310806F8856EDF0CAD
:105830006BCF0680D20383DD766801302469D10600
:1058400004BFB95EBFD3A333E0FF9C80B31006C38F
:105850009B0EC3037049C00CD3A0C0D3121146598C
:10586000ABC433E0BD3CE0C85F71A10C93DBA52461
:105870006E03298664E290CFFE8051021612C600A4
:1058800092D2136AD38570FC46883A590402FCBC54
:105890008086AFCF49B38439B6D39840718C82C229
:1058A00045B05EAC382A8A408F7C62D8F980881077
:1058B000FAB3C40081044CE920A3300F0642084823
:1058C000F9200964220CED620AB349DC2C087F58E8
:1058D000208B60CC8140F831E5ABC002676B1F4084
:1058E00080AD09FF42FCE0012CA007F0FC0016C0CF
:1058F000031A2059E439E08005F04F1EDD78000FCF
:10590000EC60410CEF134AD323078A3088D3E08739
:10591000C656F2202009795A100BE2D3EF00F0F8B6
:10592000DDECC2CBD6605FC9ACC09095AF6280ECB5
:10593000CFEBFDFED956FAAD56607C6AFFAD9FB93C
:105940001CE6A885FB45F3204114C020049E9376F5
:1059500080844943EDCDC0083E027C252D11809EF8
:1059600019FA8930042408E537033FE08241884072
:1059700020C4035808832301CF8890B31050FAF550
:1059800000081489D9494379C76820AF247EA11241
:1059900008101A41439E7FA4811422D5BB246AF8C3
:1059A000A732E016D048A54A3A023F7414C2461204
:1059B0000042FF2008290C41048414E51154FF9291
:1059C000BF9BD2F833DFA303E698FEE6B60CF39C48
:1059D00097FCC4F5CBC9E430F76577E9F8FD5FE7DC
:1059E0002B0BE315DC0392958153F92C18B3B819EE
:1059F00085ED32ECD396847220C906C1E0B015DB88
:105A0000FB2ED3F38BFFF36441B9A9FF3E905C7585
:105A10003DEE0361847AA5B006821065E00166DE82
:105A2000988022C43F7F023BC082985C8C4B7C599B
:105A3000C2281045F4F4810820A6F373FC8431B821
:105A400046C90488E779C6020CA7905AC004480BDF
:105A50000B62020C7667114172B351B901445D7259
:105A6000F39360024C939048088474082DE72080DB
:105A70000919C1F95EC5EE900730F6985A40BDC5C8
:105A80003CFFA005F28016C80378FB100F60012CC4
:105A90003BE832E077D3B0207898F3D3E8012DF3D8
:105AA000F2D2000E1620BD982CD710D05764DAAC75
:105AB000F2ED0CFE195AE3080C5E98623B464BD39C
:105AC00008F892EF2FE5A3ACC689D3CB824CB94935
:105AD000FA8DED083FED22100583409F12E0413022
