:100000000C9402450C9421450C9421450C942145F7
:100010000C9421450C9428490C948C490C94F0497B
:100020000C94034A0C9421450C945A480C94214595
:100030000C9421450C9421450C9421450C942145A8
:100040000C9421450C9421450C9421450C94214598
:100050000C9421450C9421450C9421450C94214588
:100060000C9421450C9421450C9421450C94214578
:100070000C9421450C9421450C9421450C94214568
:100080000C9421450C9421450C9421457F7F7F7F62
:100090007F7F7F7F7F7F7F7F7F7F7F7F7F7F7F7F70
:1000A0007F7F7F7F7F7F070007047F7F7F7F7F7F4A
:1000B000077F7F7F7F7F057F047F7F7F7F7F7F7FBD
:1000C0000F7F0E7F067F0D7F0C7F7F7F7F7F1F7FDF
:1000D000177F167F157F1C7F147F7F7F7F7F007FB8
:1000E000277F1E7F257F1D7F247F7F7F7F7F187F57
:1000F000207F217F267F227F237F7F7F7F7F7F7FDF
:10010000107F197F1A7F1B7F137F7F7F7F7F0818E7
:10011000117F127F0A7F037F0B7F7F7F7F7F081015
:10012000081F097F080F027F08197F7F7F7F7F7F6D
:1001300008027F7F081308117F7F7F7F070C087FED
:10014000017F080B7F7F08077F7F7F7F7F7F080706
:100150007F7F7F7F7F7F7F7F07037F7F7F7F047F1E
:100160007F7F1C7F1B7F7F7F7F7F7F7F037F0810C8
:100170000C7F247F237F137F7A7F7F7F7F7F08110F
:10018000147F081908200B7F7F7F7F7F7F7F7F7F11
:100190007F7F7F7F7F7F7F7F7F7F7F7F7F7F7F7F6F
:1001A0007F7F7F7F7F7F7F7F7F7F7F7F7F7F7F7F5F
:1001B0007F7F7F7F7F7F7F7F7F7F7F7F7F7F7F7F4F
:1001C0007F7F7F7F7F7F7F7F7F7F7F7F7F7F7F7F3F
:1001D0007F7F7F7F7F7F7F7F7F7F7F7F7F7F7F7F2F
:1001E0007F7F7F7F7F7F7F7F7F7F7F7F7F7F7F7F1F
:1001F0007F7F7F7F7F7F7F7F7F7F7F7F7F7F7F7F0F
:100200007F7F7F7F7F7F7F7F7F7F7F7F7F7F7F7FFE
:100210007F7F7F7F7F7F7F7F7F7F7F7F7F7F7F7FEE
:1002200008277F7F7F7F7F7F7F7F7F7F7F7F7F7FAD
:100230007F7F7F7F7F7F7F7F7F7F7F7F7F7F7F7FCE
:10024000017F7F7F7F7F7F7F7F7F7F7F7F7F7F7F3C
:100250007F7F7F7F7F7F7F7F7F7F7F7F7F7F08158F
:100260007F7F072408057F7F7F7F7F7F080D070B37
:1002700007237F7F0713071B7A7F7F7F7F7F7F7F27
:10028000071C7F7F7F7F07147F7F7F7FFF1F627F39
:10029000C23C006088FFFFA0089001324006C8C63B
:1002A0000019FF03050A4414812241CF068AF32076
:1002B0000365FBA00C94290034FF7FED81325006CA
:1002C000CC54DE1928E0A799C68800983CD36480F6
:1002D0000CFFB9F0F80014C002580F0B60F0012CAD
:1002E0008004C0870A029A70F34064F305A0E630E8
:1002F00019C9B312E09850DBC01028DA2EE0504C38
:10030000D334D3B00916B9C298FC6090FFD898FFD7
:10031000BAE5200504880066818010020260660844
:10032000DE01E0B2109BE4E8FECFCA5ADD01B0D195
:1003300081400833873604058CA4CF21B323E3C75B
:10034000D00AE850012A163515CDEC4042E3A3B39C
:10035000FB9202F4FE43B38E08CA65CC08809C1B56
:10036000C98BB3E0666602103442D0C30AC3E4B35B
:100370008403EFA7FD770920048106840EFA09E0C3
:100380004468B24BA22D92D246FC77682008994E61
:10039000EF1B113692104115700B0CB48D02E09CCE
:1003A00016D812419CD3FDB049EEEB88F96E790660
:1003B0008051D660BA12F911180D828A7DB8FFDB20
:1003C00080C18D7054EF06C22D765AF310F8F1C437
:1003D000FD91C0F09135BB761003DC0220A30D9A8D
:1003E000B393E0972FF044D0B37FE8E907D489377F
:1003F0007A011CDFF6FCFAEF82FEC60B015DFBFD05
:10040000634204330D0A60F3A0B1850FE0810190CF
:100410006646C2444070B3810C4D7FC02066187B95
:100420008B602401BFA1F885FD118330C64427FFEE
:10043000DF0440E9ED02F297036A7F24300A67295E
:10044000B2107FC04EE4086014E6F1114681EDFE63
:100450002301214C08449E95FAE04138BAF79E46A4
:100460008318400F4AB8924C460639789B5BE60CDD
:1004700038B47D9C3CA005F417D366830F180C4C50
:10048000D3391ECDD358F3E0348388FA805FB9693D
:10049000F6ACC4C358BB62EC924FE57B96BFE5B6A1
:1004A00030B00339DE8360C63082FB358430F95FBB
:1004B00088FC918B44DDF87E26280F5718A3FE4157
:1004C00006CF7BB5302106C1C0F75C84D3B8208647
:1004D00066D3445C9095E4FCE39893140F9A44A788
:1004E0000AE5A8513429F3E010D813649FBA982084
:1004F00010B0FA0A4C7103D24D0278E79212011340
:10050000F309848124F611DFE4FCE79891D62AEB05
:100510000C02D693205F1B86371D80308A53E01271
:1005200042D8F31AFB7489EE32310798F8471079F4
:10053000D21C02DDBD81AC1C308170195E986BD578
:1005400095DB3B38FD26C06A574539D4C2F7419246
:100550004FCFF9A88537180628D091B8BCD2E63914
:100560001A400C681625EE9880083405267DF97A25
:10057000F2819C6B10421423F3499F83A0288810BA
:1005800031C812DB195F300240C48807059270A39E
:10059000C5BA0977BBC0130144BC24CFF798488083
:1005A00010D7200138EA1302146EF47810077B98F4
:1005B00041048D2088F5300189FDE8981035F0E47C
:1005C000D221C30FE4C00C805D3FE1C00318B12FFE
:1005D0005D98E0E0A510D39370D36B3C78F3AFD374
:1005E0004F5EE0F32008FAEF840131F6A50802E23D
:1005F000663601FA9FF5E5309E18488E068EF85F44
:100600006EFBB7FE726EF3831F33D32019FF80B9E0
:1006100005CD428750A10525892001FCFC45D3C6A4
:10062000907FA49880D908160B43BEF360218CF804
:1006300038D30146A61103F560082C82DC10F8FEC1
:10064000E2C1848815C9FE446802014FF7A016C0B4
:10065000085F7FDF6101E6987F5D17B56BC7EA7BB6
:10066000A18081D7240A0C30F7403C8420C16EB0B1
:1006700012FA8DDD8ECBE40931C239C246EFBE9845
:10068000672D6640F68A6B1A828F23E330CBF1FD2B
:10069000EC48FF60DE74AE04948E76EAC18138DDEA
:1006A0000130EBA972CCDE44AE77DB8240FFD60C82
:1006B000E82537D3DE988203BFE301853D78E1F971
:1006C000A485EE4214D4BE0BFD3D8C84093480FE1B
:1006D000B1D82068A6FE9610310126C09394231548
:1006E000289A80898566795850CD2457AB3B36705F
:1006F000FC04FFFA42A65871848C1C51CE9440A38E
:100700008004668044C645CEF398FAD7FD7985A06B
:10071000604120C6EE302206E7300B4041EB8C01F1
:1007200084D57BF9ECB2A007F8AA1CC883787203C1
:1007300046B31A325EC5DD8118B65C21EF98813C64
:1007400088075D145C10130F60023C5D63CA308340
:10075000F28B74D320C0F9534A0D20F7C562400CC8
:10076000DF8041FE9F180801F3F8102F182FA5AF66
:10077000A23FC54882F34AD7D3F398D58998EE981B
:100780009110464945B3533A0F8811F9E834855022
:10079000837FEC94B0FF4E98518626C298951362E1
:1007A000142CDFB802BDB9ED08940CE6F9E0FB208B
:1007B000050F405B2F767DC80D211124DA1BAE5842
:1007C000D61704987887FE7F89340116C0D3339BEF
:1007D0008C96045E985F52FE13612220B089006FF0
:1007E000C4FE37E701D30144F3465ED879F39F9006
:1007F000C80D26C2BF1F1C97C89F0CBCF6F0F90796
:10080000FD99F9C85C10A081436D08DD53CFFF7FCF
:10081000C00120DA8007F64E0FEDDD8707C21C838A
:10082000ECC1C80DF0C8FC80105F9540E0980F0F38
:10083000090422A226B120D86BAC473BC83089D32B
:100840009623890D4A73822CF3AE7D1FFFC63012AA
:1008500073FC02441422A02DEF7260E92541798BCC
:100860007EAC0869A641EE30B1060CFBC80A40C058
:1008700022B77A147F2DEF4634AF7F0C014030420F
:10088000E9FF83E038EE800332CEC87840BDD21C49
:10089000C4900777295D78CF40B13C0CAFC82CA538
:1008A00094C8E0BD3B472CA0B3C8C4E8037910C688
:1008B00064D3A8199646099C8AD7200C1F3DA562CF
:1008C000E4175F9680F324FF6DE798E5C8B1663EB4
:1008D000F32069FA802941CDD0C242E0FDBF88846F
:1008E00005300A7A78588E0C319F16B3102266B301
:1008F00002DE93152120F3B05F40AD35628164C8FC
:10090000EBC1B8F823C8E546D8F678DED7DF823EDB
:100910003A26C8089A40146088CBBEA3CEF4E505F9
:10092000E14816C83FA45BD5CA2E8AFC1DC63B22EF
:100930002D3BC61160FD8FE711469AE4080C721931
:10094000BC6B5EF7390188F99819E0AE5408026271
:100950008BE67B02F8F9BC82E52D886EF00C2B92B9
:100960008EF0FB6EEF71EBEC11F198C46DE298CA5A
:10097000BC98FF661E0371F4C2BD51E0B9FE834608
:100980000CE3ED410B72018828EAB8ED8CB9572BC6
:10099000C8D69881BED1D7214CDDACF8F9501D0ADC
:1009A0006881CDE612EADAAFFF0620040218039050
:1009B00000D742405D24D5A1C0BA6B448C604BDDAA
:1009C000980840C0FFB69514DBBAD446763F20089D
:1009D000609CEABB902BC8BBDE4006F95D64FD80DD
:1009E0003C8801324066E81AEE31305F5C98202383
:1009F0007766B12CC604EF7C6B7A200F6880F7D342
:100A000058FC04FBFF8018016D36B7ABF218EFF409
:100A1000FBAC11E3305FAF522EA53F30E610BE6253
:100A200053F3B9208981FB8408BB205C4303612117
:100A3000EEE08830EB0EF2BBB2C8C47C985FEDE507
:100A400098A78579587DA37B6B1360DD1028EFDCB8
:100A500098F98049185F16900401C6480099024928
:100A6000899E82167DE9450368017EAC80CFFF7FB9
:100A7000413402C5261229B2700D051A6C73300973
:100A800044FE2C9005021184F85733EE8FC2ECDE41
:100A9000207D0C841DDAA5DCF15311198879987A30
:100AA000AA06973A049BDCF13078BBACD3EBC8FCC8
:100AB000C0DADF028120E1DC1260468BBDE5A2FBDB
:100AC0003631410C25A81207D240AE5EDD976BC9C6
:100AD0003060C670B90AFACA0E4FC8284C90604000
:100AE00059AA2EB36BDC02908C304B7F491011A2B7
:100AF00006C0AD08AF09AF35DA8C8170306D2101C9
:100B0000DE98D79BF900303B19045890B34C711014
:100B10003082405C6E20E0306CFF2E98D6982052D8
:100B2000A84760D34E38E63001134AF0C6F65E415E
:100B3000FF7F5D38A00770401C96C8F8B9F5B60273
:100B4000E030163C2393C8E0B403161015786B967A
:100B500066F3BC30B940C620CAC8FADEE23DDA39D5
:100B60005FC310C76AA5CA031589F27D40EE57EA34
:100B70008017109E0BD37F0B7DF6DAC6B1FB1EFAF1
:100B80001662201A04A04F020C04888730805EC5CC
:100B9000EB104260D6728479B37A85016EB3081582
:100BA00086E2F5CCF7D0F330820C27A1A838FCE719
:100BB000204580C19004FC9B608A080C01F43C062F
:100BC000A116E0BB6199C2A011D167B3FF31914C6E
:100BD00088E6020113752CB65EBCD5BC9827691255
:100BE000019824D4110FF69804C4ED359FE150D636
:100BF0004793ACFF41F2B5F3B24E388226CBFB6788
:100C0000B71CB0A2F8EAFECC400852E02744E1E964
:100C1000F8456EA8EF888CF2B3FB52BEC74E64B3A2
:100C2000200EFC9D6EF304C0712805A63AE4FD0475
:100C300065BF84C0A737C1224C6E56428BFCA5917C
:100C4000FC769720CE606689341188E2982D52CFC9
:100C50000D7301B689EF81C828FF8810311258FB47
:100C60008421F9301120C044EE8A0B71F802104B38
:100C700099B2C80F011080CB8109FB39B3311887B5
:100C8000DE020525E021817E3446368858BE327F5B
:100C9000EB04403012A8F8D7E0002B3072D7D28393
:100CA000FA980CB2F5D3CB982CF5FEA5B1ED807374
:100CB0001016C077F93CE8013CD3B8F0C6E2D3F097
:100CC0006B37F8FCACAD30B636DD0C01DB29AF601C
:100CD000CB59418E3FE37FB5F36B5CEFC806C4CBC5
:100CE000C8BF5230F32098FA801300E1A640087C78
:100CF000011321114C1F88004246773F5D23620497
:100D00008C8811B1B00CA4C9FDC13D980217C3BFB6
:100D10008B310146C004195CCAE0414C901C0CA008
:100D2000F962033F06D084F182508A0021217B05BD
:100D300004A144FB4460AF8196EDDF7E7DC8B0C066
:100D4000261026E043FC0C99A78206FBE09A40138C
:100D500073220D80D011C2C4FE7E51AF8DFE98A3C8
:100D600081B6D7BD60192CE367E0302DE00EE9F3C2
:100D7000F2CBCAD44560A95FD2CD78F9CD0C1C96D0
:100D800006BB12AB85D73E0228A171B08CF2FFDC06
:100D90007F38AD438E230E778AA5D4F65E81705DD1
:100DA000AFCF3050FF804576A23F24928FBE525184
:100DB000D926BCE50E1368B87E5B8D7D7FB3F8A89D
:100DC000018134429C0484200BCAF40DFD5D3CC1BA
:100DD000E5209AC8A2E630D3FDBA4412C8F22372C5
:100DE0000B6041C1B937241916855DC8FA320A343F
:100DF0005AFB1E64AA816157B21908A0D39A60B049
:100E00002003C605EB8860243E8E3004D1F9FCC572
:100E1000C8F0D71EC0AFD203F0982EF5C518FA322D
:100E20002D844DBC52AB68EDB29B03F29B29B9A552
:100E30003CC640A7AB6B6233C8E0190147E3EAAF99
:100E40006203F728065E987F5257E6A0D5B3507923
:100E5000B3E7E012269661E3F697C640F998F9C821
:100E6000DD19FAF85F147F1018111360487888971D
:100E700021707D0B23BF988505BF8BE3B375FF46BB
:100E80006F4904117F934BC6C004FB50200A6211C6
:100E9000F3C870B7FAFB9D1133FF0CB37DFFE8DF99
:100EA000FA20C61D9B6FB5015BF30219F3C6D1C6CC
:100EB000E028D3C098FD6090FFED98FF28CCA03FBC
:100EC000666690FFDEA0ECEC5E5020AD587C20669C
:100ED00066D8B0FFBFEC810154CDDFEC71F7C68856
:100EE000FD042FCB3331C844B1CF355F00E0C932A8
:100EF000245B1758F98CCFEF8432C34FDFCC78F4E2
:100F0000329466AC7B0867D3A450C228785A0B1081
:100F10005E5AA82837F848F9EA452045C746BE7703
:100F2000ECEC804DB30A6ED7D90410404B3718F95A
:100F3000989C63FB45887EB7DF6E2BB0FA302CA8F7
:100F4000BBBCB9D480DCF8FFB9C6AAFF77DB929BA3
:100F5000FC85DF6129A6FB6A7F9CF0F6B3F9FEE30E
:100F6000C958A9209F5E07C7B34057D0056BC8FF7B
:100F7000806A479790A79BC0FDF59ACF6A8BBC11FA
:100F800086FF01A1406E5F44C4FBDAF8FBFCCD3460
:100F9000DCBB40C2B88D124BF201D6AD1025CE6B32
:100FA000022120F5E00497E7B56B1B58FCF34028BD
:100FB0000C18B7021E881E12403C213F0CA0D4140E
:100FC0000F5450727A093233D05C008008A0093483
:100FD000C7A7583D0140C06AEA5902A0039FBFD489
:100FE000FA806028AC04F9C9481572603CFC0161C4
:100FF000100614402D180274043040D9A156C9B20D
:1010000043999D84B4B0023977880A08DB6A9C480A
:10101000A45207C9FC8879066585A7DD2ED6B44998
:101020003E9E656A067F5A60FD92BBAF58FE00D0B7
:101030007008A795E13E90688B52BE1C4ECD3B04D4
:1010400028CA32D34BBC481692F38E33FB0A90FB6E
:1010500033E8A2AE8C8E7B968301E7BA26EF0CF0C4
:1010600088F7A5A8FE2064989F5FBBEC202FBB3CAF
:1010700030FF647710B0A4BDFF40667B1090F8B2DB
:101080001076A81B2010C2936476C7ECFEC34327DA
:10109000CC3480F04FF64A88FCD8F0CA30029FEF7B
:1010A000C4FB2A76C6D0FBF50508B8BF1610ACB253
:1010B00010575C8248FC0806DF0A67ACB901283F7C
:1010C000B3B52218A6FCFC317A4E88D4B7C6FF7996
:1010D00040627FB3BF2877E3027903FEE1B1027378
:1010E000D23C295BD39BD9769CF9D81CC383FF766D
:1010F000C3B8FFCFED8404EB9660137062800130BB
:101100002C06E3CF7617D8FAC9D1EFFABC223DFC02
:10111000B1A8437BF28FC5BF619180F8C27D316178
:10112000FFEC1910FEC3390EDBB180FE3BF6E5146F
:10113000FFFD2CE62CEF9F0828FE6528EE02C1FC7F
:10114000AFFABCBAE1C5BECD6FDF10CBD7CD238BD4
:10115000E54C6231E38737D6EA80DD58DB38FF2D76
:101160005904F20958D249FBC3083D0FF86E935A4F
:10117000AE6172BE108C659FEC6F68F87BEC5B7F94
:10118000B615048039566F1DFA162DF6E704AC61CA
:10119000807CA8C4B956B8B7FAD9373E61226C042E
:1011A000C9FB82CFF3E3D5D6B3F8E4BBF9613EAC1B
:1011B000FD804FFA2289FA23F51C751B10E3F6A770
:1011C0001272F221C4575308AF7B01EC31087D0441
:1011D00001AFA9E0840C78AFF835604998126FEF41
:1011E00070E32802E0D6416C2C805BF7D50882C002
:1011F00028FED6C8FFFF08E1F89B60BD95D1660ABE
:10120000CCC0202A0907D482855A5B9D01F3850949
:101210009FB95F05CC9E15D502C00A91770E3F0C91
:10122000B0018602503EC64011004478F32018FAFF
:101230003C34B506E87880087827891560CE3020E0
:101240004F28982F8245A9F6880171317FE9D44053
:1012500019A1023021D15D85E70310A62A1A624444
:101260005D5F5E0ADFA8FDFA1F445B48807DCC17F6
:1012700019DEF8F3626BB30115EFFC0868FA46CD8E
:10128000CAEC20F9B13845D3D432858A820316DD01
:10129000DF04107E829B0CF32025E7FF6F97689296
:1012A00097DE02C7B28A42DE46B1DDCD19B74EEFF6
:1012B00008D4F9C4BAD9CCF3843C14CB16D5BCFD00
:1012C00076D118F8929C82614E9D6FF683A3A4227A
:1012D000B0A3FAF85525407D6FBED8FEF1BBE77488
:1012E00092FCD320D1B1F07ED796AB110CE3C7B4FA
:1012F000D9C1B3B548E5F5109EB36FAB4720303F79
:10130000FEECC948FFA3EFC16EBDBA80637AB66731
:10131000FDAFF9B3B2887E7FC2EE5B8C408BAA83AF
:10132000DBF324FB15DDB3048CA9B202B7047935D5
:10133000B9A8FBEBDC98FBC2672C3D10FDB08A938B
:1013400036A2FF30798E20C6BC45B8CDCDF7B5109A
:10135000D0FA79F1E1740BE02BEC4C53EB802BCD00
:10136000883864BAFBCEFE6688FCD5481865F9B5A6
:101370008FE5C5A6D9DEAD6518FC7BA38224667710
:10138000AC0402A3058808B4656D7AD049F74D1006
:10139000D348FB9F2006661FC6C085D849EBD3C043
:1013A00025F428F3FC80810CAB016612B34760037F
:1013B0000ADAB303046B4E40FE803E330F19FCA0E3
:1013C000404630C02C84F5B38DDF939C906611307D
:1013D0002B222C66B63D8C666796C4084F6DB90407
:1013E00040D827F418FCE0F6413C90035BD4302051
:1013F0009D1EFB78108BB6B4F04043880730683EE2
:1014000049BE0C9BCBFE80C33FD5F218E64E127E40
:101410008C06D5F80C73FBF8FD3019312C82C7D23D
:1014200014980236194430B3B12211B3CEF0100A29
:10143000D8F92D503A94B5B9246DEAB842CB7296DA
:10144000523427DB181011F58B01DFCAD9E0FBDE1F
:1014500075666D25B1879477631E32DBFC40ACD98D
:10146000408480C40B702F9640083FA4E1E65AFCEC
:101470008028DB9B62608227D6986829CD83090289
:1014800091E6987B4581FE32E0017F72FD1803B33F
:10149000D5DCC0FB200805236015EB1E3F96F52424
:1014A000CF3D301129FAD7E0018BD2F5BCA5D51874
:1014B000303EF3C0037920E3903BC8DFD3BC98CA29
:1014C0005AEA3026F90F9F3C07D8F8844AE00625EF
:1014D000661920B081EFF3036033D6D719419B46DC
:1014E0009BF091F3197764FC804BB326BC58C9EE8E
:1014F000BE980257B3D1C8469CB3B905C008651A57
:10150000B3290C4CF901EB30FA10DA9884D037F596
:10151000FC4D9002B46CF3014FCF98F56D4892EEFC
:10152000D190027AA737300688E47B0BC02BD7987E
:1015300040F23020CB31198D32A3590CA0FAA97F8B
:10154000C5CC66EA8360C54CC4ED5197E016AF0D7B
:1015500030E7F8DFC5BC4668DD668259250C462FAA
:10156000BB4DD02DEF246FCF3012E2FB84A7456630
:10157000C188984BF2225FD7AC48EFC160FDA7222B
:101580009FE698565B352F3E13E8661D02B8FFFEB6
:10159000985EA5B710D45FF0B5A3E5300C9CB4629B
:1015A0001ECFA5508303A73A300888F9F198ACBF45
:1015B000C2CDE5F85058434DC0302DA0B6E69BFF94
:1015C00069FBBD98420244E5B314AA81845A1AF11A
:1015D000309FE198DCB3B3244908B38C77333028CB
:1015E000FB7D016BF621FC3002028EBB58B3244315
:1015F000CB30026E4D3084AEF88972A508DF4CF214
:101600007FC898A0DDA848EEFD808132A7C0E85CC5
:1016100008816127AC4BA09E603070FC5B05ADBAC1
:1016200001D2E70263F5B3048FE7C850246FDF17D8
:10163000225BFF80AF49B4E05B07417EAB083B5FB4
:1016400033FBBC988C39DFDBB5608513EE22C1FB20
:10165000F398459638AAE070036CC0C83C627C30B1
:1016600066F998FC30A6086340F8D34F6536A22E81
:10167000393730F3613865CEE530A0BECA49C0DEE7
:101680004911015AAD2D5582BD6B886C19B311FA01
:1016900064FFB3CCBAA06DFF2C38305157EEDFCCCD
:1016A000DE234AD3A402B35BE9D1080C5214B3225F
:1016B000FCF8CCE53006B7A79881810401DB58FA25
:1016C000AFE703E4A50122B3C9F3690AFD9858B94D
:1016D000FD5807B404EA515F230CCB5D04CC19EE2E
:1016E000B35FFD35086FF4CC2F4DD1FE287EAA26BE
:1016F000D066E36F5E2E5066300C04E211C4B3C8AE
:10170000D065668650DF4715F27AFE77A2E8463943
:10171000D740A621D330068E8F4B661193115966A0
:10172000087C305E78B2601FE801D8FDE0415E9829
:101730007FEE3C38F5B83D2EDD80E030150FF65CCD
:101740002191C8D95ECFB73CF6980302B93090BF5B
:10175000FA2FC868F04140A9F5D6180A48E3F8AD59
:10176000EC4F2CC8ACD97EA01F761FF1F9BF802E9C
:101770007BF4E520279FB395C8C530E8E430ACFF83
:10178000B2CCFD4B306E0DD72002B53048F8FB8946
:101790008246F00A22D730F52412CC44CFE366CC3F
:1017A000E457C5987A34D370FAAE9620EC1C2CFF1F
:1017B000209796FB8081B40C32A479301E018AFBFD
:1017C00048608079C19FE798E7C8201881FD054BE4
:1017D00007042F5D4004021018D896A5FCA0EF184E
:1017E000988FAE988D4F721266413006BF20E17F10
:1017F000DB211D8FC7CAFD848A72CA82C9EDF460DD
:1018000090A8D606606DC83C3D9803B618E73080B6
:1018100006046BCB302012CDC8F0897998707AAE6F
:10182000185730309E43F0B740E43010B1C93D1630
:10183000AF892BEB980CBF2B39F2F9801131ADF544
:10184000A340A826EDD318018C417FD64B40A4B30A
:10185000F3F50A28F9A0E75583B3B46265B34612DD
:10186000DFDAE8799D8CF23001FFEDD79002DCF3EE
:101870002208FDB646F56260A7D85959EB8B402582
:101880008D38BCFBB3222E3EBD24360705DAAFB13E
:1018900012451901B69BE62C7EB096F3B0FFBA173D
:1018A000F54240B7FBD9064010FC98B428C48DB36C
:1018B000FD984C49A910C96F9FC88010C8FCAE04A0
:1018C000DC91C4F0BF8BA971A6807FE87F12A0C411
:1018D00017B3897E7F22DF74A3097E6EE4E8207847
:1018E000FDF2D7D69810AE837220066FA279CBDBBB
:1018F0001ACDC80FFE98B57052F3026368ED35AF8C
:10190000F398729DCDC803E19CD8A75BFEF9F2BFA6
:101910004BFEF3B76950B7F8DB7871B3F2C45804E3
:101920006C4F67ED49BBB32C0464FA982CFFDBB411
:10193000F965C8703006FAAF9809CA241D0430341E
:101940008EF230048DBEFD9884365AFC35E2A586B1
:10195000C696FF04766DC88833C801657130E3A36D
:101960001902B1403E3730ED4E029FDCE148F95795
:101970009EB8036DDE64481A05B3C80147E6F16BF3
:1019800093CD3DA811B651A8D2FE98797EAFF5D778
:1019900023FFA6DC88B9A31641ADB3889867C814A5
:1019A0008CAE8134FD378137983F88E68CF208DBB6
:1019B000F4BF2CD71719FC766CC807BE4030F0BFB7
:1019C0001E3FC8E0010C10046A666AABB2687FB6BD
:1019D0000F34E43CF36FC330D330B6FFEB64BCA5E7
:1019E000D466D72BC85608A0ABB35056B38841CDA8
:1019F000F3982F97AEA9E6C816F1A3806C1945F6A7
:101A000097C81AE69BB3371180112DE028D3B30194
:101A10000D286D90C83B0838F91AFB0330B3C7DCBA
:101A2000FFF8FB20D1CF80767AF7085912C6F37100
:101A3000D18E30D398FF18240DFFB32882426690D0
:101A4000F36613FAE731DEB5780819A4ABEEFE278A
:101A5000D61E2071C29E6601C0731173A9B5E6F34C
:101A6000A3A8D34888FBF35E40512C93441414710F
:101A700091BE651BEF93B1FFD8FF6498C27DFBCC8C
:101A8000100B3E32F3503F2DB01063882C5848B3F2
:101A900058D268FFD9B8FD3C9E2C523B2FFFB03284
:101AA0004BF54B08887D472CEF04326CB3D0F93AE4
:101AB0005975808BF1183BEF7FF18D64619BA48891
:101AC000FB7AA201C4BE366CF51149120467FD55BC
:101AD000DC08BB02DA4BFC2048E502DF854CAF2D69
:101AE0000D02B49D62F805B1052886FF0165FE9DD3
:101AF0006A9CB00805A06D50F9C92D141137BC10AF
:101B0000F5FCA2D729D18330B1506F5B7E40E6D37C
:101B100001DC4F6C95F953CC5D33F68730FD85CFF2
:101B20006A25AE10C5E68F528410C44CCE677B3850
:101B300039FA17FD0E108F6D079FFD0BE0FCAFD932
:101B40006F668A9CD0617FB6DEC8FE519787DDB193
:101B5000B0FB4BEB64FEE2DFEB468D124C082F4BE3
:101B6000B504C32BF67F101F2C66FE8ED95040A6FD
:101B7000AC17F3C448FF61C6D9EEFDE2D8B0FD89C9
:101B80008086DFCADED8FEC86771FCB905859A91E8
:101B900046B32D9686182C66FF12BC98C129B389CE
:101BA00064361901100966660602B310C57D4BA89C
:101BB000B0FDF38C88BDCD0BF866408A9681D8DDE8
:101BC000FF19D76EB204E8FD59F2DB2F61B854D883
:101BD0006680D9409FA7B875868A0ECD7CE8F9C586
:101BE000BB2540615F5EA724D899F87196CF7BFF33
:101BF00090FF627C83B1022FB101721F502E24B579
:101C0000EDFDFB408CA9CF23BB48156C1801805714
:101C10003E7C208CFE80237CB7D20AB9D88ECF269A
:101C200011940440DD5808657C05F3C159FE60CC71
:101C3000067E68BE50E594E490FCB80AB70C21B368
:101C4000B4FF2D05F9048001B022B949CD28FD9BD0
:101C50001589106175E6E415B0FAC205FBF5188325
:101C6000B7CD19C148DB9AE85002608E2F120126C9
:101C70006729B3211CA06C754BC718576B0421074B
:101C80003BFAE0F8042EA31E04FB17FA69F7E204FE
:101C9000306FD9E108330589EC3DB1436EDCDE22BB
:101CA000E7D9FF10A7CF98ABE7AC910157D7D6B4CF
:101CB000E57B98E5B030D74516C7FB4964F9C7B94D
:101CC0006B851C25B6406C8518F96FAC252CEE632E
:101CD00098FDF57D1197DDCC2002869C7AD840FCDA
:101CE0008F762340022DBB5F40CC3E5B7643A0162F
:101CF000F9988D3B4D0858FB530D35CD08680F61A1
:101D0000639638F96CCE96044114ED4D89F3C7D033
:101D1000FB6050667B80C7FE96C7F725184C1930CC
:101D200012DF0004EF3A210880848120108B8209A1
:101D30007F765E100523AF4D801012486A95DF1044
:101D400085BA8B40E46C49276EEDFDCA3168FD6CA5
:101D5000718001CEB3B33D94D84F663C0801304644
:101D6000D84A231E884D8EC53D98056CDADA60018D
:101D70007A41C0B3B30A7378B0FB46B9E2B81889A8
:101D8000D4F91B0DFC1C629D27BB22F0EC0BDC81FF
:101D9000E7924016F458504B512DFE7FB8CA74A9F3
:101DA00046C0E0A423AF84ADB28B1F184C89148CBD
:101DB0000D05309FFA9B041692D3AD5A01A012A3D1
:101DC0008A036EFC8C690070F91980E607F12053D4
:101DD000837DF603E0010CDC309806D1781E0FE21B
:101DE000013DCE48B46072DA047050D303C3113998
:101DF0001C88075E861E97260EAEE2F9FE1B06C003
:101E00001237B6FF9F40180420E74B0CF313E52A66
:101E100005CBD383D2662089BEA24AC6AE257CA25A
:101E2000FCC658CFB340810110A411A3984686B3D5
:101E300021DA6450F6F5C084BECCE1861BE60816B4
:101E400001B30592CD4CB096A9FC474C98E80DD251
:101E5000B8A4DD18D1ED04B1903F6EE21002FD523E
:101E600068DF72B405F2985D400DFDB1D4FE94D7E1
:101E70004D5311081EB914669EE7FFB2063EC2C953
:101E80005AE282B6DF30FA866CFE985E075ED5674E
:101E90007A9808C9D5DE05B0B35B0155A283ABE2E1
:101EA00088FFB208BD502030A20A36C208F9B462D9
:101EB00079DE73460B62A608C902419DB358102112
:101EC000EEE8B0208BF51926CAE0437EB4802130BD
:101ED0000102C1F786110C81B10935B305ED5561D9
:101EE000027F323042A61654216380C6265A11FA68
:101EF000E51E07DDEB5F3217E401F43C9005F05B73
:101F000077B698E04127FB7F04DAD37820F5980C68
:101F1000CBC61E89C60E3C0BE0FC44E4066BE99878
:101F20008493E51002C2F8AF98E5C3668360A240CF
:101F3000661DC65F18047DCCDE14D608219BAF97C2
:101F4000B3495AB30C8E40C6D6B30289D304D259D2
:101F5000EBAF46EF55010B4FB3B0CCFCA00195346D
:101F60004FF581EC7E1441CEE134DFD80865BA909C
:101F7000EC897898BBD39730247A9844EF3B982328
:101F8000EA088FA7F698C8F88873F7D48D29535EAE
:101F90001E61172C306045E268A3FA13FCFA4E4B21
:101FA000730862EF5FB4F1D2D6AB58D0C7CBCC6D1B
:101FB000FD988815E49D19730358FE9404B3C57BFE
:101FC000E2048C77B7A542C02B0A0AEC5F5FD59874
:101FD00001EA982051BC82B979982ECA4CF79868CA
:101FE000FC043DB21116C1271813DC4C8414F7F31E
:101FF00046C4243D39400C800989E8BA86669AF8BF
:102000006404FA32247B7A082B04FAB117C0FC600E
:10201000AF805DD2F0C830186BCBA5F53CB0E1B80D
:102020006B798C30FF22989DF2982F365F9810E1E3
:1020300098445E9801AFB798F0FE1AF7737D401090
:10204000E70C8201DD064272F3608C935B57FC2043
:1020500079981FF4D564EA98823BE7DB9870F8BE64
:1020600036D7973002F23D071D287E746196B34043
:1020700027ACFC028065F7EC0E5CC020466EF4983D
:10208000CBE7F75FE8F6FF2048049E983FEC148CFE
:10209000040824B986CF494FB12182110167F9980C
:1020A000F9C89E08D1882044B951850746084BD30A
:1020B000035E6C3014FCDCD6CF115A6F016E623DAA
:1020C000FEBC80E55A6D79B3BF5AF1B04A38FE20A4
:1020D000415C08E540169DC73D900980D8EA4281E1
:1020E0001A7D94A7F7CC8278F89888D3E3D0FC982F
:1020F0009950FE80E36FEC988D22C4F611F40888A5
:102100000221E5B1041E6E302088F59808E73D7382
:102110003020266A63AE0C73DB205BFDB301F4094B
:1021200006C028537FB9982041C6E9FC80040362A9
:10213000218C3B1010FB33D4662219BD50F30A5991
:10214000EB5B9E69BE4942C9FAB2D5B3C80064FAD6
:102150009870EFD7227899E2FA635EA5779198D3C9
:102160007D5D1F19CD3006C4FB075B17EB58F88067
:10217000ECCC9F2C98D0F5C2E827F9988A1E66F619
:10218000BD51F3107E5AC80E8BC6D9FEEF340E57E0
:10219000B3109298E01666AB824362362E08C43ABA
:1021A00061D34425E80D0A20FADA1B260830B3096A
:1021B0005E19FC100A50FC809166DC305D48129478
:1021C00047F80B124048CC01D69020194EB014C2EB
:1021D000284DD1D6442BF1B4EBD2DB602302BD985D
:1021E000A49708B3754293C93011D0A2C4EE583BEE
:1021F00004A75FB1C610AB4C303197F0C7FD40D695
:102200003808DEE03E9B0ED41C54D818D8AF40AF3F
:10221000EECCE05E875AC069E0231AF7B198F9CB9B
:10222000A411F2578C0881227FAFB64857DA84197F
:1022300076FDB177AE98D26E332011056616AF04E5
:10224000D7BC8B1630FF5C0462FF840531E9094678
:10225000C01D033F1D4C82052012AE0603FA03FB8E
:1022600062028C81511439661B09BF542B88E9978F
:10227000F2637866E3B3E0F96B0138CF98E330B3EB
:10228000D52C32F33011EE0A5058E69FAF9805F581
:102290009848CDF13C90FE986D9FC8C0F98041B53B
:1022A00030F198D5778998F38069E598B6892666E4
:1022B000BBC0F7B350FF7F100626EFD383F1E45B7A
:1022C000D761FD1B3D6DE3DA82B9A0F35840E72CDE
:1022D0002C4B8FCADA626F250A214AB30186F59822
:1022E00023A78C98F1FBEBE3140183896340088BEF
:1022F0000DD72010283090F3822E0C6CE206E319E3
:10230000CF7D5B10447E3782B8920D297BB712D403
:10231000AFFCDE39088DA081A03A40100666DB567E
:10232000C3302018623A9CB804A9F7E3F9C041EE23
:102330002888013FCA6E36D929AE4BE418BD3C3817
:10234000621FCC6C118058D85B248404097384B854
:10235000FA3B263481D5E721BFD980501011D1A690
:10236000C0B6F9C8D90435FFCCB6883F5FC598FF21
:102370007898BCC9669FFD5BFC804530AE111F306C
:10238000E103022120C48001FE4146C80818111053
:10239000B8A0448CB10421669309FF327ABC08B618
:1023A00058BF7F8A4ED60279FCD3C69823C898704E
:1023B00003640B9D5D70401E67C8100F9662F32387
:1023C000E398FFF04BB080FC98FE1B30C683DE190B
:1023D0000C08D8FBD7DE9818100301953981CB3053
:1023E0008494A960D6627E98781B97E066F5B179EF
:1023F00098FAAFBB08B96459F9FA7F3F3098800367
:102400002044409CC1E4221623F8101DD9C8B148CD
:102410003F3D98C623B4212DF16FFC14201EB3B9A3
:1024200040D0FE069080B57540E7024408FD802448
:10243000FA4804920010F578937B988011D88508AB
:10244000EF9098C812C9BB5F494EF21220FF85FA7F
:10245000B9C1531B2E86023B1945D8EE847E986F76
:102460009CBFC8F9DAE1386B2A821049EE418877BF
:10247000CA1A0CF298FD00088E7A980805013557A3
:10248000D082F57FF528B8E32450342B42C2CB89A3
:10249000085B2410C2BC109A48B80320F39E8C73CA
:1024A000CF98D9497F9B13FC2D9F0C68FB8409B002
:1024B000F80846C248407A6360EC2431F0B3120158
:1024C000826320C060FB8C0084102213F4980822E1
:1024D000B4D3F5320AEED44808A380D3275290F93A
:1024E000E0CD413853F0F9D5BB20D5A590C450F3C9
:1024F000AF7A1698A33BE798A41906FBDDC60EED4C
:102500009840FC1FF0CE30040361BDA581AE10627F
:10251000BE4018BF2BC84C5753ECCC9F3B98F822B9
:102520000302110C57B798E0FA35A317C4EBAC0BB4
:10253000BD5805AD10813C1A6B9B7B3114F5984258
:10254000B78C98FF469ABB8F113B69DF9850FBA070
:1025500031801F20041F180220EBCA0D5BE25D4092
:10256000714977FB3390301212F6989002DBC898CD
:10257000559CF409206A0929F9AF34803292190276
:102580008DB8D7111514CBF2100CD67D402FC53065
:10259000B6CAFE9C79FA0039731968FF2B19C698E0
:1025A0003006846E539513FAF4F9FD5E98B1606EAF
:1025B0005B30207B980C10BF01D56B60E798794B9E
:1025C0007E7F35BEFB892A998C728CA60F488204C7
:1025D000A2085C364636BBFC7788772DAE08F8300B
:1025E000B6F693C6A3B32D5F72D012C2B32F08C63E
:1025F000C002FE98102360222C84B5A2468F085892
:10260000FE048860012C8051BEFFD5BA0164B46617
:102610008004207FDD32E21EECB562145E98FD304E
:102620000908FFE081DE98FA201EC08378CFC80138
:102630000D88EE073040F78B100FE25BE0B50435F4
:10264000665CAB28B3DB7040F330A0017657C8EB73
:10265000EC0E27C8E2FE80A541F0C2AF163D4DC882
:10266000F302DEFF5E414B8C8055B350AAB348F3B2
:10267000667F0098B29BD38FEAF69811F8BD980A4E
:10268000AD16DAE308EFF022464D23211117F3DBF4
:10269000D60B663027D298400BD7D598B0E598C9AD
:1026A0005043F6BB4CBBA440FB2BEC53EFB3900C58
:1026B000B37DFFF897FA28F958FF32B50104F3D833
:1026C000F3CE32D1CCD3E0F338B8FF0C121DFF9813
:1026D000FF248918936866D2D8FBCF01C37374CFE7
:1026E000C6FAE8F8639B90FA2FEC907FE59180BAE8
:1026F000E001F3C6D3C409FD2477A57AFFEB8C98DB
:1027000044917511E0B11A751C24D37F660E20F632
:10271000F98CCF37FACC37C626B5E2D8FE5EF99CE5
:102720002EE1358FCAF21686DAC613147FFC78F8CC
:1027300067E6EE10C37FEC7088FB3558C7049799A5
:1027400098E4B3116E53616B9F50FF67ACB70222E0
:102750006D184088F64AC8CE0AE8FEDBECD632593E
:1027600014099AE1DB94FF8BF4B0C19831A5A680DF
:102770009FFB2D1027F9C260F8BAF1042001105C0C
:10278000B15EE1454BA70C8AAFF031A52D2415B5FC
:10279000086B017D2362B2CBF74B33F97F05A0C6EE
:1027A000A480B838C1B221E70C90C0A606047256C6
:1027B000A0DCC3C83F845C461402D0BDB033254DB5
:1027C000DE3414AF73E60610B328764AD1AADB24B0
:1027D000C6E0A78AFF024FD441CE36B119648221E8
:1027E000B6F053040A181BF70D98FDBC08F6DC3C44
:1027F000DFE836B3C2E6FFB0F9962020A60BC4B9D5
:10280000F679AC8CEE2E01DFB68D2047EC6E554F7D
:10281000ACFE28DB07D61C08BE22D9B8F9678BF1BD
:10282000A7C60F19B6FFD8F877EC0580213171568D
:102830003D10FDC90EDCE34D4FD8BD0463D0182C0C
:10284000782FD36218FAFBF3E51432870C36296C23
:102850000A50FB34FD9102A05C7411B530D8473E9C
:102860004070F80AC9F5AD0804A8BF026C49634B73
:10287000244C2C550F98B6F933B8FFA60863C662EE
:102880007EF6C189FE23EB1E800D77358062BF3254
:10289000BC0830C2DD6EED80FBF8E1AC2FF5E5023F
:1028A000AA8C04CAFEE430FFD87EB2A8CC58CE0170
:1028B0005FAC5090FC0608C3FFB39861966CC840AB
:1028C0005BB617FF6798B97664D998FEBEE9B04049
:1028D000E45758B38E98276BCE2F20B8FCCBFBBCA7
:1028E0000BB9C41065AC778CEE3BCA4C1B2CF15570
:1028F000AE6DED88C8FD8CF5E284E6B0FC7D64A386
:10290000C901BFCC2A333D0AB3FAB820BA1B7EB640
:10291000F92DF6313AEFB33DDB9190FB0C3F3D4092
:10292000640D348E01B8AEEB2DC8FC23B588C94BBD
:10293000B810E3C0D331FFDECB08D146FDDE15CDA4
:10294000E8F8B80502F09308AE8D01B504E183E024
:10295000098BACB402D51502AF03EAE61060FBF7B1
:102960000D7CC5B081025004B39D08B9B0020CE2E1
:10297000F3038DE880B1108FE51C40113EE3BDB339
:1029800088970AC935122040BA49A0DC2A208CBE9B
:102990007C5E0C0841300E9C804864E54A5510B6B8
:1029A00065812466DE14801CB5A0E7321810067914
:1029B0005D37A988FA8BDFB35EEC184004AF9672DE
:1029C000F015FB95A8FD7AF301F2043B56D7ED1400
:1029D00002B93BF7424014D35F2CE9BFD5086BD551
:1029E000A5A1FC193F3861C1FFEE3CDCFB02D42BF2
:1029F000BE33CFEDBC848CF598FE9FB220DDE92874
:102A0000FD049C06B008DD6109B6FA5B5A80EDE36F
:102A1000B66C1C0227FD8210AA79F8C8F388454CD1
:102A20000C694D8E761980C53E18BDE5FC656A1DA2
:102A300006CB580D40A7AD0108BECADFEFC626BFC2
:102A4000FA28FFCFFD6C9086FAA4D910FEE63D1758
:102A5000E9AABFF6A430F9E9EC487361EEB611D0EB
:102A6000FFABC00218308F9F7B2718FE38EEC2DD07
:102A7000595208597BB1FB1DD1B810FEEB51080823
:102A800096BA405A192474C990422A78C05C9214AC
:102A900075CD6DA0087888167B66A00176E67C84EB
:102AA000D420F6B135019E895A400802027A21B538
:102AB00010B8FDF87B4CBD5AFB048089622A1B804C
:102AC00043910669F6AEFA8976DE5CCEAF6850E5D2
:102AD0002CDB7A1EFAC03B4DBAFFC020F6436010D3
:102AE000B6E2C4C0B351C1DDC9B140B944F0B9CCFC
:102AF0000319FD6003CFA0A0FF6647E304822069AD
:102B0000A1647041EBCD95810202EC11312145B3F6
:102B1000400F105819AE67E088C68240DA0412EE02
:102B2000EFB8E2B3695544987381FC808405300A9C
:102B3000409989F30B96EC4C800943F31748FD4606
:102B40004C25019304E0A6850C0224099DF8601130
:102B50008C8231257B26B31C98F04CEA6D78F353B8
:102B6000E0413C8314031EC40E0A1E0FE259F3DB3E
:102B7000D0B96063F49840E00307E0E401E53C90DD
:102B800007C626F378F3E043F3D2A8FB6620BFD94B
:102B90001873D60C88DF013090A8E083A4F380B1CD
:102BA000F311FF89CA40188952E080D3065E39C606
:102BB00043F3B9C0BCFD190E041851FB26CDE02229
:102BC000C02E011107F330625E973DC0029804A346
:102BD000B3A0103FF3245008236173F320026BA0CD
:102BE000AFFA881842FD7F0D7FAC9240779098F342
:102BF0003F2090040A6ABFB52853F834D3401277B7
:102C0000AEBA08D48C044148D33545E5499F9BB4FE
:102C10000838FD652C8B0CBF2321D539E78671263A
:102C2000EBE00290DC211AFA9420FFEF30F0FC1B5D
:102C3000DBDD1E9BA20C0827D49803466776C404EC
:102C4000913C01E040DCC0D39468C9BD77C5BF5F4B
:102C500068CD4110F1FF29D822D942FE040B62024F
:102C60004C80053D0075E2FDA539D809110466AB1D
:102C7000FF44D2E5C07599930428951A847186089B
:102C800050B40A09E6C01180AE82D7FEB0A44B282A
:102C9000C3E1FA148CE0443004BD9804C308608694
:102CA0008C16B040CD796684413002685E78A78B7F
:102CB0005B80118132A6017697A6243B990AF8F928
:102CC000FEEFBDD2D0B483F1D2399911F3C0994D42
:102CD000F3812C9C675EFCF39001F040D303F678FF
:102CE000200FE8BE9832F37AE687C68DFE044501D0
:102CF000D494067F9FD2D312F3837A9C31C43B6471
:102D000031DA20062FD310EAA42FF3DC7E60E55FD2
:102D1000BFBCF8DB9C26208360E76D9041EE12C8B3
:102D20004BD30B9DA60530229EB35F32DCC422B389
:102D3000E6014C81F321BD9858E8001361E6BD8B94
:102D4000C8F0F82008261DC0B91DE498D0D0921410
:102D50008CCF600AFBA01104099DCF30213480067E
:102D60007F04886BE298CA0E450BBB0BA8FB2104BD
:102D70000848FF7E1430EE26BB808D38BC980511C4
:102D80009DA6F0BDBE7F1FCCE398DB80A310E1FCC5
:102D9000496B95FACF16CD3C88DE644523C7507E3B
:102DA000E9604B36A73FC09835F14BE52E16F298F7
:102DB00024A3F68153B1802BF345FC80A7647E41A8
:102DC000C05B0CB8302340962BD6701077B4988532
:102DD00088B33BDC1942B2408E75432C9044C0D37B
:102DE0009320C5B35077791728100106038C905DA6
:102DF00024FE10C80058040B61B77F44B6305B65F1
:102E00001031190901B840C1223C04136085CB81FF
:102E100032A726394587F761124C047FDEF8E06B54
:102E2000CE30C4037902F2A5E0302BD2980392BDD4
:102E3000B82C677664E8FE2194E0D3A140E0D37714
:102E4000AD98C839303DFB10C0FD8040B8308B8450
:102E5000C0983F8830CBDB8C504B4DFCBC6B06825E
:102E6000015F13FD72036227D341BD90FF5C4A43AB
:102E700019B9083DE0114080CAB3C2F9CBF34972D9
:102E8000859966AFB3C074EF089904E0B62CDEE311
:102E90000222E6D305B06B48FFA18F3BDA98400AC7
:102EA000198AD43456E7C0481AF36002F68120101C
:102EB00005FBEF6AF8C023889592D4AE8B20682179
:102EC0002EA005B2BCBF7641C50304FD4D2810B647
:102ED0000820DC7D6565C82F6604ECB120B7393762
:102EE0006F5EDE8406B480F386B258BC98D4E39B50
:102EF0007578F85E2530E112AF294CF0FB82BC7882
:102F0000E0CEF44B017A0CE59D800C234903BF3CD5
:102F1000E5A9847C4D3D8241175B1FCAEE179808D6
:102F200013324E8C05BF1214B75B0B850820F68256
:102F300010322177077D3DC3468202E58CF1811A6C
:102F4000359790089842093D219AFEEC7EC018738F
:102F50005261A284DD531AC1ED13600F2880EC0981
:102F60008110D46681F9A22210C008D399A3D62C6F
:102F700062F0B01046C0219985609814F150BA0AE9
:102F8000304B190CCD5D0102E0E04104882FF0C9FF
:102F9000C4011AC087643C6ABC6FDCA8E601F7264E
:102FA00007F220723040EC9BC8F3F1BD8B7A699D2B
:102FB000C870FB1FD6EEC5088360D7A53766769428
:102FC00061FDB1A93EC7174077AC98208CDFC8835C
:102FD000D32DF391AFF9DCEF22B3DC0103B39A51A7
:102FE000ED42DBE3BF8440F68011B008A6BADB41B6
:102FF000FE8211321006C80899B34002C0B52157AD
:10300000B312FFEC8485200410FE10867EFD57511C
:1030100040CA19F001FC48F102400308FA29A8113E
:10302000D37A6E34D263F824414082B9D29D0AFD2E
:10303000140DA41134027A8C9A41C72387FD8404AD
:103040000A68FFE6DBE4806D2DACD6EF0177177DD3
:1030500089C266406AD45D1D71FBEA41885AF4E07A
:10306000E57BBF578E57BE1F5DE558D14A5AADA7C5
:1030700042FD97212532C121B1600065E0104E6C00
:103080005FCDC911FDE07FBF38F9BB046BE2ED1FD6
:10309000538380C7124F63130201405957D921044B
:1030A0009F7E5B0922E0702458508AB412EC238C76
:1030B00094D312C49020BA79FAF98434AF228F8D58
:1030C00005F70B60102C77D114C176BFAF402420D8
:1030D0000208B06AB56E065CAADC1186199363C259
:1030E000E0443CC606C0408DF260C1142C3FB921BB
:1030F000D0FFE081699BC8C0B2C8BC98B85D61D9F7
:10310000C010F3170B238D30FFB94A806997D51A89
:10311000D3FA98C4E4F32898F3ABFF0B2B3490A5B3
:1031200018DFC73066F5C2E11259910C592D904550
:103130002188BFAE9808F6F204035BEDF998F964B4
:103140004EDE0871FDFDAE12BBDECF98E63022C028
:10315000D335C82CCD300203B1BBAFF05A45383B54
:10316000478842DFD3480821A0102BB359FC0364E1
:10317000B33313B0E2FEDFA085E598E754F8B2C997
:103180001944D97022164C0DF48406767FC8013498
:103190009186D0085F39950ADDC027855E5EB8420A
:1031A0007A0C84EBFD6CFA6C0CAD9268FDB9DFB063
:1031B0007101DB1B21F6B13102F3986F518321833A
:1031C000FE0F44F3CEC0C0FFBD41E61E01CB036835
:1031D000B9263436F6C0B9E82CD8CF3F4171F1405A
:1031E0002806B1FF386B01BF921145F3F986686676
:1031F000BF10D09883E80B2357F6A6D1104A449A03
:10320000962C20F39835B380F1081241222B04DA72
:103210000960822CA8C0D5C08390125B8CAFA061DE
:10322000204BFCDC09CFFF28180410600280909B23
:10323000093916BB3763FA60048C8221D39530FFBD
:10324000B58220C22604AC188A9BBE32310C061807
:103250007A9F106204F198D3EF31FBE0E230FA1C60
:10326000CAC8E9EBD601DE980F781077ACB808DE53
:10327000F4FEE0801CE05EA5A783E0E2413CBB9049
:10328000CF8B48D322D373D066817E9F3DCB300C49
:10329000FC98FCA2F5F3F865ECD3667F1AA5E01064
:1032A00002E0BCE5EED763619398E6A9FD5DF29A72
:1032B00010B302F3A55F6D9842C83B0D4C5DA4842A
:1032C00082CCE130D3FB114012881085E01903D382
:1032D0009E06C6580023E286FE5270FFBE61D38868
:1032E000E79EBFBB05124002E23061270924EC26AD
:1032F00042D0191E90348444925101EF2E2D24B4F3
:103300001985A0F37EF32022F598586AAF31F38532
:1033100039FF2046CD47ADA00248B446858321EA57
:10332000CE415EDB02F301EDCEA8FC02A64AF31EFD
:1033300022C4433453E030A5572D391056BB0AA898
:10334000AB61083757B38998E0682F6DCDC8C0DAF4
:10335000CC77B498A8FDE4A702A3822013BF60DC59
:1033600041091012898A1330C124D799D8BC7DEB4A
:10337000804590F78C886DA1768E85F2183590F790
:103380009878FE849585F6FE7F980488B50B81CBEE
:103390004530D75FC1720CB704F3987CEBC0103195
:1033A0006B498BEA9203403D381FC6C0241810C0F9
:1033B0000B61CF4C505C40D0FC84E0EF2C98B40EF5
:1033C000F2A55F43F1C230F3B830CEF1E59DFE1CAB
:1033D0008007F4401EC8EE7B03E2013CA05F6398C7
:1033E000200F2E773028FC801A23F9C57130E4F3C2
:1033F0003043665C30676CE3B5D3CDA803F9D56F75
:10340000E68B9E98F458F880093B4DED1183B71078
:1034100030D3AE3665308205399CB3F809182047A1
:10342000C0AF7BC04888113273B3FD98E0EFF8203D
:1034300004FB15B93D4077CA540F75F340116AA2D9
:1034400077F3CD3BB4511786976BE850D3E820C68D
:1034500034C42210F2829A4023D4738A8580A1FC5E
:103460002C92D5D006A7D9E286BCF9C04B2684653C
:10347000F341B7FD15014008827B9888FF2FF6E9DC
:10348000D0167ACE80BC98BD9B10DE0361C0B320FD
:103490004F975144C0902ED303DBA9B3C8040171E8
:1034A0000374A13FE8F884902BE69230988B33BEEA
:1034B000EC33FE8CBA917B9C8211813966283DF6F3
:1034C0001112846F1E0B0A11CA268850E64024D7B9
:1034D0001EA8B598B0FBD5ACEFB22258040BBB6068
:1034E000C881660E28189AB3082036D7DEE310018B
:1034F000D73EC885300446B39B019B08938CBBA57F
:1035000026C3C024CD0508C620DC30DDF8FEE698D1
:10351000B9C82EF8CAC857DC020323D607E243AE67
:103520006BD66CBA5AACE8EDD503F2783057C62F9B
:1035300030F419C6F364F3E82090FFC3137CDBC8B2
:10354000807B988360AE109B87F00545BBD8A95E51
:10355000CF720604401847E0F978FEE57AC6429437
:10356000E6F0B3DB310265C8FE6BDC40C2195F5B7D
:10357000F081513040DAFD47A9B3731D4222CDC01E
:1035800004E0130EB396200457B3F5FD1262949B2A
:10359000B3C018F86366FF571830FAFFBCB6E3BA39
:1035A00004EF3B58AC04E3F363D96ED8A924DBD312
:1035B00050FB018242FF98C70C66E3D11C6CD3AB71
:1035C000FC12596689FEAD66766280CFFB813FAC06
:1035D0001359B330BFFAAC7F83512CF3CF34D131C0
:1035E00031661761F9C123EBCCEC7FA389C1275B5E
:1035F000087AA541CDE2CA3DE738607E9AB0A6942C
:1036000002B106ECA6EBF3B8F8D8C68CE03E6CFF2E
:10361000B0FDAFB6AFFB73F39C146CEB651B689801
:1036200085967247C8F8E63D088BF4BADAAA81FDA0
:103630001C9C47469D73AE1098B3FAF749086EB2CA
:10364000B3204CC6A5C02091D649EDBE58F98C7E5A
:10365000FD40BE57DBAD1EFDD942621ECCB6846C68
:10366000B3A0FFBFADF9375CE18E866BB63D22207B
:1036700037AE22889EB9AFD3AFBE9B201B48F88FD0
:10368000F023C40BBD500842E8F388DCF3C48FB3C9
:1036900022689851CF4082A80C077BF148FD39F78A
:1036A000A185F7D31404A34C2887261C113CD6040B
:1036B0005801406C02200B0C3CB27980300204C9E6
:1036C00037981B78A453FE1273A109200033A13050
:1036D000C328FAC9D222BE6FC82402D7FC041650F0
:1036E00086DD20BFB00645220C0B4362B364D06870
:1036F000433A0580A0CE3BC320172880290F0E50E7
:10370000D28A1A61C034582F538006283619204FA8
:103710008BC06FC8211985EA659EB447E488158877
:10372000A8238CFDBFEF1CD0F9220EFC32433AF3E4
:10373000FE908BB31888B4D1EC11DD788192DC0C4B
:10374000F3223FB0A95AE6B0637C30B1105E3392E9
:1037500076320BFE7776A948FF18767D04DCF7D722
:10376000A0A935F476F874F3719F9E2F66F903963D
:103770005CB1204F688108F9B3CBF31CCD94C1C173
:10378000B63CD8F3D49DC5B99E38B4FC3088A9198D
:10379000266BF6577BA758FE671ED5DA5DE9628B6C
:1037A000310275850188FE70FDC6167E4123CD4D20
:1037B00080058CB84DD0FF04EC478C1863E5E56FAD
:1037C0008CF299FBDC40C68CDACFDF3B01A6BB87CD
:1037D00056AD0C043B02C8CDFF40DC04C4EEE16BE7
:1037E000ABF624716CE56498B4923F10DC7856A96E
:1037F0009197669DA6FD7F999EE6BDDC78799FBE78
:10380000D665597B1A1AB38096124025942D387EBE
:1038100057C15744072ABD01AA105BDF3BAB38FEF6
:103820007140F26121FF7138B1109ACAD818FEAA0E
:10383000BB10C4FE31766D2480308AD1E8FD239818
:10384000996E1363DF18B38046C980FCC638EBCE8F
:10385000FD7F068F7FFFA8F963BC91669961FFD257
:10386000B220B32EFE0187CBFF0823F67FFF59A4B9
:103870009E2067F61780B655D4E29665805AE3A07D
:10388000C655668096A479EC2DEDC2D717209FAA65
:10389000DAC7416D6B38FF749AFEF69A04400261F4
:1038A000C58C9896971A5DB66620022822B3024C02
:1038B000F86F7D4398FC4089AF7C0116BE4227F427
:1038C00091A61589734A78F86DE7FC991847DD834E
:1038D000B76EE1798DB721F404B75BE620BDCB0468
:1038E0005CFE4A1E27E16BEBBA08D7BD81FEA80437
:1038F000CBF395D4D805D178D676F94E46AF8EDB8A
:10390000D8FA20832D21ED8EFA20100282405CC36C
:1039100021E5DF2210962AE682E3B2FF42B7803427
:103920004323B7C1F7D1D4C0FB60DDA190D8D483C5
:103930001E0A40296A79A890A214F33FD10B70198E
:103940002430971CD3AF772015C6E0A414EEDC34E6
:10395000A0EAE630A801B920B8BD1C50743AAF08FF
:1039600060D780FD43212EFA70B20340117F4821B9
:103970001084F2D581282B9C49E1F823D8B2208706
:103980006E530EF7480461B083B6819F42771240B0
:103990001C509F809A0C200201F6110728FACBDBFD
:1039A00088CE7CDCBC42BCBD37FFB3CCD7B3A0080B
:1039B000DB26B240DBEFD9EC103FAEE3F0FE40DE99
:1039C00008C42EE05F3040F783FC714E024020C4F3
:1039D000FB751041E35A90C0CD341F7E4D14A0FDFD
:1039E000A9A5851A2B7FDB04F56095EB21BC3B8DE7
:1039F0007DB4D48CF9DE388B59C6F66906C8FDDC77
:103A0000BBCECBD70934588DD4FB9378B4F93B00A7
:103A10002CCBEE3C92BC1BCDCDBE63C75BFFFE083A
:103A20003589041E02C6373D80651FD6E60853D48B
:103A300050FB2CDF5FF68CA02084775CE9537F91EC
:103A4000E01EA22B03D18988B2FD0C29F07D6FEB1B
:103A5000D829972067ED51FDB66A25D848FAD6983F
:103A6000B2DECB31A26EDA1401B6EBE8FF49C665CF
:103A7000A08EE533986D46F55FF61E58FE4FEF01B8
:103A80004033F9CB08CF1B3192B59E02327470F9E6
:103A9000F3DF8C68FDD80740C20310C85BF0C02E6E
:103AA00071C831191DD8A241A27A40EEB3DFBEF32E
:103AB000DD2D8884FCB8DC63FD8285433EF209215C
:103AC00011068C8B8FD8280686B5BC91249B920258
:103AD0006F6ED706D043F828BD0C9FFF791B6BC5CE
:103AE000100371E38C002264FAD318D7F2D6309217
:103AF000F11C6FBD0C2DF87A9E346E71C833F256EE
:103B00003E0C2018BB0CFBCC1E80314578020FE622
:103B1000F9A8FE03F81DB26D9EF22C82090296CF21
:103B20004433E397ED264666A844B01606498976E5
:103B3000B18029FAF0140102589EB3A5119480BBFC
:103B4000BC300267341905B0884D190B02A2E0069B
:103B50000544C6BA8EB3D0F960E7DD30201EA7C891
:103B60004507E0414BEA70753B3C9DCE8B60803C45
:103B70003407F6F91CC0038EE0880730D3F79B0E9C
:103B800037F9F0FD7FD902C04A930365538041E3C2
:103B90006D24B966887E7F318F4537D332E01E664B
:103BA000A8FA80217FFA16C4829C108B5A86E08185
:103BB00009301B9808194DB330D302B8B31D122039
:103BC00069A47D32A3B3D8FBADA0400584E982127D
:103BD0000470219624E4BABAB208FF7F286AF8E498
:103BE0001410024856FEC3B3A43BC33C94FD93CBD0
:103BF0006EC37E9B8AF5539FEDDC860199C6C06635
:103C0000770D10FEA6B330F7C0F1716846F07F1B48
:103C10004CB6F86440DEA566FDCCECFFE8FBA4C31F
:103C2000AD144B9899EF8410CAB50958DF11B76EDF
:103C3000FE026FA60B04DA752FF5B69D4E3A2B6681
:103C4000110145E0DC2498829E4CB5300AC6F2E7AB
:103C5000FAE633C44B66C622D326FCB4002266A41F
:103C6000EB57676671FBE05F7F9D03501ED07BDCE6
:103C70000764023DEF39B8DD10625DB15E6B28E08C
:103C8000BEDBC5989B1B09FF7028F82DE23D980804
:103C900077A698049320CDFBEC3C19F5E00395F64C
:103CA0007FCD6699FBDC19FD46C28218018B0DB3EE
:103CB0002832AFEF9F20592609C8B3850519CBE6F6
:103CC000A32019037FF4CC58FD20DDD12410552EFC
:103CD0009301CBF52FCC98EE403005B486FBAECFE8
:103CE000B91720CA99D31AAFB8C246CBC8358F3797
:103CF000D832EDF2FDCA3CD38DD57F18BDFFF1C49B
:103D000071D8BF5ECE8C2CE04BD69001A407666EB6
:103D1000416FFECCA0FC043B95E824E5C5EDE5042D
:103D2000849090625FCCEC850104A56604E6A8C38C
:103D3000677FFDDA0488021AAF83FE7F8451302248
:103D400046C4E58F60CD26300A99948849F6B010B4
:103D50002004FF7FB9B0E898B6046B6628FFCBC596
:103D600057E940F8C552F3B950F0BB40F76620F967
:103D7000989AB3EBE6013DCCE28F3998FB1E6FEFCA
:103D80009820FD80417F9E9846E00C028036D3DC6F
:103D90003B2F432EFF3210BD98307FDB89FFCC4094
:103DA000FC718AC72D6A158CE37BC6B31941E339D0
:103DB0003B55F3C0FB62A69BF7210229B3206A950D
:103DC000BBFC9B3022544F7ACC81220105DBD43FCF
:103DD000CD98D319B0D3A16BD7A8ACFF22BF03985D
:103DE000F85FFC67E5D5BF9998CD668201B7185F8B
:103DF00097B798C8FF34B806C23E6BDB84105300F7
:103E000043B33B99CA8108D3BF01CC6C47D59820F6
:103E1000C57DD091EF14096484DA08128B85942B48
:103E2000D69812FDFFB40400D7C4BD984AE8F980C3
:103E300005661BC499EBDBA6A2729314E3C43BFF97
:103E4000328811B0104672F70BC9FB7F7F789870EB
:103E5000FDE001FD80029013199D03E4DA010CAF2F
:103E6000C058DB053919E4766CC8028F5998107E6A
:103E700098F618F88081A7490DE0F320B166EB862B
:103E8000083F8C306BD99831FE19470429B38B7FDA
:103E9000C136F309ABB3202B96DB48DF329D88C0D7
:103EA00046029EB36A7ECF98FCB6058024B4547B4C
:103EB0007D0128110465C122CAD30434C737E6F74F
:103EC000988610D0779E87EFBC849F5AC4AD3F3050
:103ED000387D8D1872C8B460DF8509E29DEB988447
:103EE00082BC316CF0C848F8601FE698CB7E302F5A
:103EF000CDA1B3BB446A5ECE81019405C4B8EACBC0
:103F0000CB847F6798FC24804126B4807BE9248899
:103F100048B056666022F56F05A2F294DDB30495B1
:103F200080B69654AB6612CD7FBFCCD0CAFD84D08C
:103F30003CDEF3BB1745DA3010AF9A14EA3032FC9E
:103F4000CB553D0424C184BFAE980A5BAE20E72E5A
:103F5000F8E0F1013D90049A30F207E82D3C50C999
:103F600038189E7EC8403C0803F0DFD0982C997921
:103F7000C8D780FEB6C50802A2F2406CF320BF3558
:103F80000E6D214001F2B56804C0D259B33E786F7E
:103F9000FACCFAD8760D9EB320844430D5C170B2E5
:103FA00042B56A8064BBB322C80465B3B0A1CABE7F
:103FB0007EC8FE200480A06FA5187154452804EB2C
:103FC00021EDFA7A568C3DDCFDC6A08184C0800BC1
:103FD0009CDDCB993D9090401ABF77929CFCF9C82C
:103FE000B1CC7998BF58B142FFB9107D187963EA16
:103FF00095F8FA94DB09FCC5479ECD8020DFF0BA26
:10400000240CC8E33750EDE7EE05046FD299D3F3E3
:10401000C97E7CCAFF084004416B824F51C52CE029
:104020006EE188FF2558B30688EFAA82467F5BE0E1
:104030007464DBC299FECCBB57669F58E098AE0112
:10404000D3AFB973287219087BB30530903BFE32A9
:104050000802011632E43D0B079366D34498B60874
:10406000706691FFE0370C809DBDE898641B1D08C9
:104070004ED36E78B0803C673E67E0011C2003B8E9
:104080003DDB8630B2F0C9E73008FC045D71B50253
:10409000E130A9D14010A9A79D61C643FF667177A1
:1040A000FC10D910089C30EDC08018D86621FC1E89
:1040B00028301206D7983044881A100934E003C11A
:1040C000212CD3E7FF113001AF22DAFF029DB3FBB1
:1040D0007F987E693090FBF784135202B9015441F6
:1040E0008720046B9EDB48044C96FA86AB664057EB
:1040F00066A0218426C2B31AD5A5249D01BF4842DB
:10410000BEF6C4F0FD493B19A919C81E0C51B77D74
:10411000AE6C9301BEDBF618712BEA880434D3ED44
:1041200083FB7DB97591AFEDD608F8B16C580F9E41
:10413000DB174079E6657B66C81CDBCE98F58610F8
:10414000BFB49858FB801716842FBACAF1DD7102EC
:104150007C12A5F60D0D93DBE70A57F8810880194C
:1041600072641ADB973005781736FFCCF0FC84496F
:10417000B0179F98E0514C19B213B32273A8428034
:1041800032B530F6CC66FF84312016E51993A2B320
:1041900020CBCFC868FBE0D7010C1A303719036079
:1041A0002F26F0E330BE02C43C986B1EA021C8B697
:1041B000F298EEBD2006DD1930BBFE8D6A7C98FFBB
:1041C000AF76DC1240580DFEB867E6C81151DC73BB
:1041D000B791983994669CFD1C310276DE98069161
:1041E0005639DF1CC6CA24B3FDC004300A2602BA01
:1041F000B3B0E62F0901DBE060F1F82004E0897E2E
:104200005442924022027DB720218408AE6EC80C31
:10421000FD7F099AB33CD302A12445DBCE0A4F416E
:104220009842E8D02082CED566F95ECD7A4608DF86
:10423000C5C6CD887147B6DB39740F01DAACE980A9
:1042400096DAA8FF8FF1F1ECAE7ADB21D7BD1760CB
:10425000100C198EE9FF41EB779EB4D37A8A70DC9B
:104260009692A7FCF420D8120401EE028123F1AC4F
:10427000632FBFF709672B6604CE114536236BFD0C
:104280007F9044919C1EEAF80E493010EFE97F08B8
:10429000A25F849701A7FC32D06604895B0A42A51D
:1042A000F33453B34EF604180522848E93BF28CD01
:1042B000933B9AFEAE604E8703530EC080D06DE0F4
:1042C00081BD9878C9100F7BF3B507F52403AE7D47
:1042D00099013C8803DE98B683F198C164EE71FCC5
:1042E000ECA549661869900BA9146E1A30F3025AAE
:1042F00076052DDAD8555E8CCB1D0627CE98166232
:104300002CFFAFCCFE803C04AEB3CF1DA0F24C908E
:1043100009DA2012B4B3110C6F6DDB620857B38455
:1043200001315D176FDAB1306C1902808CD8F7FD5E
:10433000DE99347B9663EAFFF8DDE3041163162C03
:104340005101C3F373B57536248DB0D350FB1824D7
:1043500036FF98FF36936718D1E339FAF9118625AD
:104360007DA63C6F77E72008F1CADE087FD99E273B
:10437000738B9379152DB5B4953CD3C629A56A4C9A
:1043800007B8FC6CEB6FF24F44F3F91335B136917B
:10439000EB8BC8C65AF184FFEC51FC202DF8CC0CF5
:1043A000C0D32C90D336FF9B0279C8E69D6AC182A8
:1043B000D7566441FFD068D5625F95B5A8FBCC7332
:1043C000480E9BFF38FF97C0141D8ECBE7057CD8A5
:1043D000DE80C1CCB9E29C39C0F0FA65AC6D013920
:1043E0002D67B3967CBECB59AE4466E43E4FA5D054
:1043F00066048D9931804D5926ED7F37FCE0FFFC36
:1044000082B6196DD10810CEBBDB813FC59885DE21
:10441000210DA13C6D3B95DCF4E8FAE5EA2080DC57
:10442000AA1C8275E00884A6A2BE758401C4C65089
:10443000EA50D74D817E92D5ADB09FFBCD0580016E
:1044400004084B82B704280F0CB002143E02C08B44
:104450006C7B93A1383BA96B9701F28081845AB39E
:10446000E4BB099BBB7630CFE856A8FEC04A3E733A
:1044700010B0070598762044DE04808A48D7FBE612
:10448000F1363FFDB1086104FD72DE422067308DD8
:1044900041D93D4BDEFD028E6FA07F995FA9B1111E
:1044A0008FA365468C74BF980F6680A8C6576DC5EC
:1044B000AC78022258DD2C10621F175A2715C6E56A
:1044C00025DDD104FCEB9B4073F03CDD46F068BA7F
:1044D000625C2866A552F8C01966BDE462BF3C6301
:1044E000CDFF90F8C6721E1BFFB69AC8FF57F18920
:1044F0000242AC084577206286657F7632C0F87943
:10450000029FF6E9E6B63DDD5608FBA16D97968C55
:1045100029F6BE3EE65DFE6618955DA559B646567F
:104520006CC8026843CD001CD541026507E46FFDED
:10453000C678FF95F0B8DB8B1533753102BFEDC738
:1045400020D6E2427105EBC5F82D1904639B952F27
:10455000B3ED9C0294D0B2207F45F81DE6A77FCB37
:104560004D731D36AC322FBF4B50B5F958EB08C90F
:10457000CE8C0B9DDA2BFBC060FC087F3F20652CA6
:10458000470863F90980FC926C50625FAB61195077
:10459000BA66FB030472FFF3981FF123236776E1E9
:1045A00010C57561F0B1F99FB0D5BBBBB110FD1D51
:1045B0005B4504188143DD9138F98F71079A2D63AB
:1045C0007FCCB0FCAFA5296596B2B3C01AE030FB32
:1045D000FDE504B26524C9F1F1F7617AFF448D1954
:1045E000161740671FF9F898841614ABEB0A089B5E
:1045F000B368FB37D65820149976DAC1B1A0DF58DA
:104600004B088ACA40DFF47720F32CDD8FDE42F9B5
:104610003FB54111E0CCB70801F20322F3BD13FD11
:104620002F1078DF53BA01BF21ECEB979E38F820AA
:104630002425EF63A0406BF68BB93AE6402001CF0A
:1046400009CFD378D7C3409BE075431AF9FF1D3CCF
:10465000FC93A09DE8B22EF0FA19656B08B0F53313
:104660006E6019E9A0EC300D08AF14496DBC3AF248
:10467000A3201ED59860024C92B3C0C40540B6F08A
:104680007308FE22251CED4028ADDABC7567046571
:1046900044BF9F20AC81453855621E08E6A02280A9
:1046A000E0826E92180FC2069DC0CE120A0AF6CFA3
:1046B000ED64FAA92BB7D795EDEF1440E4EC810433
:1046C00063ABFBEFE90C85CAEE33FF80D7E0D3B5CF
:1046D0005B8008EEB0286CD4084B65A09003464779
:1046E0009226C740F684F2CA76BCD8FA102DEB1099
:1046F0002010DB981DD6DD9CF98CD27396EF40C656
:10470000AB3FDD1750FDBF9A33ACD584458930648B
:104710007A4712CB330F3BD0D0B6FA696A0282E3F4
:1047200001A5A0CD40E6ED6A6710D4F4C6D566FABF
:10473000F647521E04C6F5C9C06ADE629B3FEDA073
:10474000FE80568D086AE320C5FA26C5FB97E82C43
:10475000192B58FF24D3E3B8F9B720E33D33F62BE8
:10476000012BF7479BDE796C9A1977D8329A1F1084
:10477000E3D31FDA060CD3C8FD0BFE9DC6E8E7F9AC
:10478000F5079B96BEFCABB14126A7C8FBC29D2393
:1047900082781B6CF1B8FF2DD1CB4AB1048FF1BDEB
:1047A000FB2004DDB7C6FEDE818B1F8C9F633E427B
:1047B000A0852412F7406048824CE21406BBFBD46B
:1047C000146A9C9C08FDD0FEB3C2FCB4C27559119A
:1047D000AAF860D7B2B1FCABD9035046B867ECC8B1
:1047E0000C411A2C69FE95025A20BD163C7F604987
:1047F000C04B78D69AB090FEEC6F0857F54118E19F
:1048000041972BFF2D18011DDB736464CFBDB35F8F
:10481000F8D3801152C1087F2CE420DFEC5D300A10
:10482000FFEE31300873B3850260AB80D1012A6995
:104830006F12230234B3841FF9F0FD60403CEA0597
:10484000C86C489203918DDDFC995939CBB4E0478F
:1048500019064002B958F32444BFB0F20318100FF0
:10486000F3BF7CFC27C39306C1783DBFF223C4B2DB
:104870000C66FEDEB541ED801869662089287F0B45
:10488000B87C89E67D0884FDBF2310B1C04FDECC23
:10489000307247FF29F88AFF80C6043070B31D01CB
:1048A00060CBC01076B3208298B388FE2BED1EBC7F
:1048B00098F383F29DC9F5DBC016FF4A208C73FF85
:1048C0003130B4BF14AF0269986821CF046BE3980C
:1048D000F00126B1D31CFE317DBED1ADA0FFDF5368
:1048E000A50AFF86B758BA9EB4C978FF9F6AE1B19E
:1048F000585E258DFF08C49CFFF4844120807B3BDB
:10490000520242BD552C6BE398FF0EA762FB70F874
:10491000048C848C57958F10CB660B7F942DCCFF25
:1049200072F88885FFAAC0A8F31802E11165F24861
:10493000019EA9051BFC041EB0086DA348FE446D32
:10494000AC01D7D9B0FD1B2DFF08585E044402CF3F
:1049500026FB5884027FDD25FA32081F86FD8C80F5
:1049600011B1E608A1FB8A3CFF2FD23C98BF8939E0
:10497000DD8369EB980888A3FFFEA70BFFE0013CED
:10498000EE800730F4987856BE98017898E2CD0F03
:10499000E24C0C44FFBCC309C9FB3D968A032DD5EC
:1049A000B0EB6B40FD981065F99874FED6B969EDCF
:1049B00049364EB336805A1E8B2D5A10BECCD7FFC7
:1049C0007F8009118206FCC02858040120565FA789
:1049D0009840F3B008E1C0FAA036FD7F08B7DB10BD
:1049E000FF7F84086BF6CCCFB320440481D3401200
:1049F00044600811B7AE9880FC4D41F9758440C8F9
:104A0000FEAD624B3203735BFECCD8B3FD1737A10A
:104A10009BEAEAD308D9FBE0B4FC33C37D988066F7
:104A2000FDCCBBB34130D78805FDF0D00262101F2A
:104A3000ACEA98043F168630EAFAFE6C97C028CE9E
:104A40005A8440ACB30A9FB7CCCFD6020498286CE6
:104A5000D329596FDCCF2804C6F32095FFA6E5784B
:104A6000D683FE98DC1602A70D90A746FFE84E50AD
:104A70001809C418229806E112D7F83288187A0368
:104A800002F7980521090BFB60059BEB9807BC9882
:104A9000D7764910BFCC6DCA6A64F598037B9844F9
:104AA00002AF78DFDD41CD301EC81739A6981CF45F
:104AB000FE8B6EA8944AC4B74B0866E61081EF6B74
:104AC000784220C598F8B79198661DEBEA98F8CD22
:104AD0007B321FEDE6157F0BCA133B9E301132214E
:104AE000227BC0980201F7E3106EB3A68CF30AF89C
:104AF000B83065C240E790197BFA23046C667F2DBD
:104B00003004B93090C904093E67136208B712E552
:104B100030011D2DC0B53764FEAC3B02ECD9130348
:104B20009C30B50AE53001AF688908F7CBF5980CE1
:104B3000C1B9D7AB9838EC1753D69808DC306DE57F
:104B400098D5B9F88C802B8C30CF149855D3C0F8F9
:104B5000FAEC843492BE1630CAFE98B304B83057CB
:104B6000FB51C737196C9E987BD3ABFA5FACF6014B
:104B700086C02427ED983009AFAD98065E5E8305A8
:104B800090084608859802CD2011EF05DF329A483B
:104B90002F23F9CEB9C53002CFF960108807F0791C
:104BA0001993C630D9C866F3306041482690B31EC9
:104BB0001958647A98C48239FDE2813C10A8717D4D
:104BC000797BB7197DFA156A6EB50A7419850110DB
:104BD000665C302C66CF0098EF6798C9FABC340940
:104BE00078B3B730D3FC73B36FDACC10FF7F8A4948
:104BF00045EDB3E3F360B282FD984076FA9CD8F9B4
:104C000020FBC6FC98CAD54040AF9B04723002DB43
:104C10009D30910442657CDC3421752F7B984600E1
:104C200082425C9BC8FCC8F3C8062CF250FFCDE35F
:104C30003039D90178C6B573682DA8FF336CEB21E4
:104C4000A2DD32E3F6848DFF98196801EB4D4C77B5
:104C50007364062CB4A25BE4FB9810FB3CC5328065
:104C6000461673710B0C79A91F84FBCC887697804C
:104C70004004500A9869D081409C80A5068E11B3EB
:104C80007CF8F9D68431AC8FC195B846E93361B967
:104C9000794CA7DBCC7FAD85095E7F5F325F99EBF6
:104CA0000888843EC820C1045833B5CF84FA85B043
:104CB0001028FACFC88001F07FD9EA3E98AC03AF44
:104CC000E82F98BFA5EECC3DAB3341D70C208A9896
:104CD00070FD3C0765C80DC663C0DE9859AE0B5821
:104CE000FE7FECE5C1FD17AF9C1E666E64F2158277
:104CF0008EAB1466FB65657A980CBCE564F6F95FCB
:104D0000369FBC6FF7937F7F836801A919FC30B58C
:104D100082E730851181A420A698A5DD2788FE981A
:104D20003A750503534182B370FC04DB35117D7F76
:104D3000BE77874013FD2C714EA7113011FC303225
:104D4000D306E1BAFF96E620471230E20DEF6C98E9
:104D500084FCBDB7A34BF381E32B963010BC30B578
:104D600008D83F0F16E1AC670030AEFB053001B646
:104D700021FBEB7E5E0D11D9DA8004776442026F6D
:104D8000E34BBAB071EA2C1360AE533064AC80FAD6
:104D9000138404B2818519DAEBAF082FD6988CBD45
:104DA000177FE8FB5044FE325C79304C73D3B3FE7E
:104DB000387C311236C14A1810F58060FE980E0218
:104DC000D737C8018C5E6D8927FE32118691EF516D
:104DD000EF853298773C308C8205B0EBB6FE60FBF5
:104DE0002907203FD79879F9987D7FFE98DAA002AD
:104DF0007030EE331C10E230F9E4CE5E987F2F3035
:104E0000D0F298E73060FF0459C867F9981A2379FF
:104E1000E59FAB0221F8308550AB9FEB9859B83035
:104E20000510D97B6EC743C6466165F23008DB4B7F
:104E3000AFEFD9E230FB782F95302CE39844F87E21
:104E40004DC8ED01B919FC43DB13099FA7CB300115
:104E50005E5F3080C0309DC630DE98DB402073300E
:104E600038FE29A092C267F5B1AF9ABDF46446A896
:104E7000B38A2D4DE8FCBBCAEDC508DE9836B0E01C
:104E8000671730EC7F18BE323036E3FE3F30ACE2BD
:104E9000BCE9C80F60D33899FBFC36F4B3D00C687A
:104EA000FCDBC802761708FE3F30ACDCBCDCC80D6A
:104EB000D3C89AF8A4FB08262B576614EF54621245
:104EC000051B7C68FC06CE2104A020EFCA3209EA4B
:104ED000F0984EFC3202D73C23D632BB622060F8F9
:104EE000B93007B2317A17ED9B6646783B2FC87709
:104EF000FFE0800CE5C87E7B40D720C8791EC80340
:104F0000011989E03D34EFFC355C1363BE986EFFF8
:104F1000B2413830CCCBC8BDE55181FB841E085965
:104F2000B3DC300268D8B3FE0030D798308008CBAD
:104F30008F3033B33C9852F3B3B0D3CD987DF44166
:104F4000B510F098970BFE83348FFCE130FA6FC9EF
:104F50003092E07FB398820DFC24DA8606F17770F8
:104F6000308BCFFD7FA59802A098317F0B30666E05
:104F70000030D78030333D98110606C9E03039C87B
:104F8000F8B3813907EC31201EDCDBC8181F19C6C5
:104F9000D2FE983D9CA005B279982B140CCE980AAD
:104FA000B3D34995FCF8F3FE88113426D06BEB7926
:104FB000107D8EDFCBED6410AF33300880E6407F8C
:104FC0008E98700C24592D5F45FC302298FA80058C
:104FD0002F0A06C1287A58488FAC1D20FB6111FBAF
:104FE000686BDB64105E4E3008D30104730B5810FD
:104FF0009D02D78C881730709818059FEF98310A5A
:10500000E8FFD7E081B798F000795CAFC7697E43CD
:10501000C873DD100769ED989003A7203068FA2D5A
:10502000880392F2982FB057A52CDC8FF37E67C8C7
:105030000C19FC84732FC120B3103FCD80BC60F4E9
:105040005A49366ED8028319CF3137E0A27DAF6D51
:10505000AC7998BFDFA2CC30C8FCEBFA8208E23111
:105060003FF7CC04F998BE517BA6AF1A30E9AF6F79
:10507000B60812BD40B310F62C900120C7B3F03033
:10508000DD48FBF6DB30FFB504D3FC53B3CCED5D5C
:10509000D3DCBBF965CD72DE47296395046AF30959
:1050A000E6F3DD6447BAA8B321EDCE37D323F31975
:1050B00015599A40E7EE9866DBFFB8FBA328A016C7
:1050C0003793E33065D1208DA8D3C366C6FEF7D7EA
:1050D000ECCC236FFF89FA1780CE9B28819368F36D
:1050E000059DC7309EE0FF46737BB3A8FEB5043232
:1050F00044FED9FFB17D2FD81801D31789F96893E1
:105100006286E2E603127FCC98FE018E7DEF985F07
:105110007AA190E33BD61A0563D810FD6618F1FA20
:10512000A780C696E3FE14ACCD088FB2AD327CBA30
:105130002AD941A0B2FCCCD2691902469D3BEB4B67
:10514000FD1C3DE07C50717A8A75E9EBE7045FE86D
:1051500000E8FEF1C74DB3CB2D4C226FFBA11CFD27
:1051600020E80D40845F7AEC080280A2AF3F9B826A
:10517000D710C3F4D8F8F3642F6322584D80C7EBDF
:10518000BC80C8ADE0100F22F3DF19BCEE02C9727B
:105190003E209B19A010400A302017510AECB2B3F0
:1051A00040C47B4E055BED4D768702C94009CEBBFE
:1051B00012F0D3033F1948806010E04D66C906A382
:1051C000624808E98809604F20B501026EC47AB1CF
:1051D000927090DCFD99D2F622DE2BD2379BC0650F
:1051E000446F03FC1265F03FB1E4DFB3CAFC86E014
:1051F000B30D0BB36F4934EDF281E2020A85CCD3D3
:10520000A43FD63321E44F8B6573EF61F963CB8301
:10521000013BA5EC8F8B773148F9616765650439EF
:10522000BF1973EDE3B0FB967A70D6462BBB863080
:105230000838FBE0666C7FF79A01989FF3B3D0FAC9
:10524000657DE6843C26185B105D33E6FEE5B4150B
:10525000C7C88FD0C9EDEF028CF2A1B08D664D1793
:1052600081D6B090A6F3F73B6D96B8BCC4BDA32021
:105270006ECE2C2BAFB13B5E3571EB1709BECEB4B1
:10528000C4F3433C68F63168FCC77838C6B640CFF3
:10529000F6C3FF20DFECCB3F6CFF38FF6FADBBD612
:1052A0007C043A637AF1D0CFD36224C2C2E61650AE
:1052B000FFC25F339ABF3C10623FAAB1F8FFA3322E
:1052C000C00996FFD82A66B202CC6F25EE8D98FCF5
:1052D000030485FF989A6663E70D69628B79B37D55
:1052E00032EBDE0212DB5F1CF3CA63CC237B3BB8DC
:1052F000F943EF0ACC6145F004B1209FD87F01FE4D
:10530000DBAA8BAA76378C7D7756F710E5CC968092
:1053100031DD4790FE18DA53AB6402D6711086A9CE
:105320006F35AC08E8E0E5D853E750F2310296CC8F
:1053300040220691B866197F7FB2055B6D80041D1F
:10534000ED5208E690F92EC398FD2E5106658FACFC
:10535000005CD0852B4CB91CEB048040D5B31046C3
:105360008AE4A7C08E08D9780473D0ACF9D7A0C05E
:10537000C62937C340B1718008A714F88202DC0146
:1053800003D2D90C202AB30C14B3774E4DF110067A
:1053900020F921D00DC6D08384C868481360EDFF82
:1053A00039F19004E3B718F9B2E44ABA6907410940
:1053B0000224897EBE8068E3C80360778EFB87C9BC
:1053C000AE3924FD20040110111432ED0C045945AE
:1053D0001FB8FF4CC246FF0220C63C8CE1B3B2A20C
:1053E000FB9C0ADBC8F92D1D6BE9AA087C79191A08
:1053F0002897B3DBA7F9F7117C73A9C6A0452AFE4D
:10540000303AABA5B57D97D765F52A1EB164ECA4FB
:10541000FF02736C6A5BCDF0CD0DC7B36B98FD6175
:105420004EA31610B1C64988FDCA58C90487581B37
:1054300053C3AB18F863DAB163AB08405582822BD3
:10544000D678AC176843C7F2F8EF364958EB38D72F
:105450005B172D6B80CB7AD64E04E6067BA5BCFC91
:105460006161718FE9158F98FF4DED7618FF904FB0
:105470006571838CF98DFCA962458FE6E5167F8501
:1054800020C0633F9D5A62638B3B202FDDDD2002ED
:105490000499A71EAEC3424EF721EF90FA6B9631E6
:1054A000899DDD13B401EB9DD2DEA0801BBAD7C469
:1054B0007C66E01A7E200A440957E01D44CB720A3C
:1054C00040C655D0AA6230E369B851CBFDD860849C
:1054D000660ABC176CCB98FFCA381706652492DCA5
:1054E000D106C0392CDD0CE3C375ED01AEC01C6FD5
:1054F000D43708AF18DDCC34B6A3F9B7CB20264398
:10550000CCDE656F588F1021BB226109BDF10BB451
:1055100001FEFF78FA2481281029C0096A538F20E0
:105520000127D36962029B8CF8303FA59693FDF565
:10553000C11093BB42FBE41246C388BDE608FEF8E7
:10554000FEC0010C8007E52603EBA03C90F31EFD96
:105550000318400E19F3E2B4ED5022E0C1D33894A1
:105560000FF8C64BB8C044792C2D60FBE709FDB994
:10557000EEA0300806BC35B4C351D6F39EB478ED26
:10558000F3E0040341E0024B3A06CDC65BE678FC4B
:1055900091B3460DE002ABED01A634FB1AE0B11069
:1055A00094B358F7E020112C1E1FB3B48377E61094
:1055B000F8F978A51F02421A0969EF98A49026C14C
:1055C0004E5DA06040B2EBCFF598201FD3EF9892CC
:1055D0000844219110D3579398EA48817FAD9834BD
:1055E000B6E38D267DC602BBC0C82319CFF2EFFB00
:1055F000A62BAC3F854621A7AD9830397D3236BB0E
:10560000C0FDDA93F0FDF370650BBCD83B977903CE
:1056100016F3DAE872EA403BD9C698FFEDACB096D3
:10562000E1F7BE0D37F382A9A968DB91621DB3DCF7
:1056300005B149AF580E99F3D3FCD75EB8AC02ABB5
:1056400053B34C24C0FB8018032002C966A648331C
:10565000F963120CEC8241B04B7A8A160477670B1F
:10566000020164454B16FD4B42B9240C0AD7D9F907
:10567000B8C58803F4540E706BEA98324E9A03ACA6
:105680000F6059F3DC14FBE0013D88074F4598108B
:10569000B804D388A6F3FF1A98A4FC3BADBB7418DA
:1056A000107FBF05AE0AF66E0130CF5B19417A98C4
:1056B0004043D05EF269EB98604F505E01662E0960
:1056C00012C257401EB2EDB44118E0F04CB6202093
:1056D000B39511CDF5F1FE05210124EF346B6FD3A5
:1056E0002041EE9730F8D79D3D124390A3D0840619
:1056F000A612FAA068FFB360FC98D3F36C426B600B
:10570000ED222130B830040A0B0DBF23F8B7FFF5A6
:1057100098029BC65533BB850814E66610F8FF2E29
:105720007DDAB108746417FAB4C0BE2AD3CC48ED50
:105730003C92B8B3C3707FF626A00153E328FB9DCB
:1057400008139006B96636B50601319DD98088B335
:10575000E90812E5208009A4A35361417AF8528731
:10576000190D100831B3201A70CA22DE90CF13A78A
:1057700011C64930B34197B350B7ED4810EABF4066
:10578000D772B608779803B04016F8DC3D7F1D6AE3
:10579000EE8B073040BD987A7799ABBC306EED4800
:1057A00036781B03E4B6F6FFDFEC79E38B6FFA097A
:1057B000AF0B3D9342665DE320E2C5AEC4BC98DD0D
:1057C000ED605F08B681EC0661068BF9FEBDDF1661
:1057D00030041C2D237D4B42D0C202B3B1B435B38B
:1057E00029ECED1402C7B324C6800569EE4B0960AD
:1057F0000AEF87C2208CFD6EC084FEC3100B6B5C69
:105800002CFD34821412DC3029E2C504B342FD9829
:10581000047EEE0B01F19834DA244166C8691D411B
:10582000770811407759B15C30AF205E1F40F763B5
:105830003A62B3083D7B036BCD8EF8FC65C8FE98D9
:10584000A4C8F20FAFB72E298A0D8CA34F2578D7A5
:10585000AFA2987812AD8FD732C870F4225DF148AC
:105860009DC880467130ABD52011C726446EC4B3A5
:1058700011BFCC28B8B04E0A386340BCADFE1B7DCA
:10588000192CBD67D2E3FD80455F10E4981912041E
:105890009DFC44C12433E06002CD31D92009C8B356
:1058A00040D608A71970301E221608E466623F8CA5
:1058B0008131B0F64078FCE09ED2AC1E97C819F951
:1058C0008B6D497A98205814DFAD9820383086F2D5
:1058D000C6705CC6E6BF304D1532D56E740C2E8A8C
:1058E0003B23ECAC53D7E58192ED1B605F93E75E01
:1058F000E915763A829BD3D1FB2B33C80CF8B03B29
:10590000A6C48875B3218872300A95F990F6624F63
:10591000363023689BB613F8105F7F4EEF9A401322
:1059200013BFACB40B261077263008E5023604010D
:10593000C57D9840F0600844099AF0309DEAB34C68
:105940000437F398FD904B19A5FBE804C719B6D0AE
:10595000402037E693629A61D5F8FE779C589D1EE9
:1059600082FD80065FD8EE98604003331317BBDFDB
:105970009A641A7DE5C81DF0DE27B8FC0CB88AECE5
:10598000AEF53D8AFF8A2FB64B66019B11F59890C4
:10599000FF7F98582222F584E7C39CA68BBB8D839A
:1059A00036E7FD04ED08C047E034C48C04EDD34075
:1059B000C4E20B04FD442C840121069CB3BC441FAB
:1059C000796A130211E14A2BC626F379148C9CF3F1
:1059D0001208FEDC523C53E11EC883BFC598F3FE9B
:1059E00098AC78ECB6011C47C89822BC6BBA7C9680
:1059F000D30CBE98BC1AF368ECFC56FF22986B15CA
:105A0000F00CE653F9C8B1105E3F303AC80C0216EC
:105A1000D3C6A7D3772A51FD5F8C951244EB4B4137
:105A2000D8B32001DBC210BD984172B340C43830F6
:105A3000E46698F7E024022C7D85ABB3140C7773F1
:105A40009560FB76B0737502059B0BAE09B3C81465
:105A5000DD128290C876802223A52CF79E2BFC486D
:105A600096300DB98E07402295697C9E4F1148F8FB
:105A70008D26786AD34C6DCCB3C0C518C9B1D31E7E
:105A800073B569B23C7F93B7FEF3387AEBC8FF3247
:105A9000C172C8E3D039B44046ED8B8C72C4FAA60B
:105AA0006688810E9A81381AB3F234F374409E8E60
:105AB0005ADE266D537ABA91C472318E1C75E40B8E
:105AC0000810F5CCCA78144FFAA1FD818008F004C3
:105AD00022E2FAA0315A107998179F22F7212C90D0
