:100000000C94AC4A0C94CB4A0C94CB4A0C94CB4A3B
:100010000C94CB4A0C94D24E0C94364F0C949A4FBD
:100020000C94AD4F0C94CB4A0C94044E0C94CB4AD8
:100030000C94CB4A0C94CB4A0C94CB4A0C94CB4AEC
:100040000C94CB4A0C94CB4A0C94CB4A0C94CB4ADC
:100050000C94CB4A0C94CB4A0C94CB4A0C94CB4ACC
:100060000C94CB4A0C94CB4A0C94CB4A0C94CB4ABC
:100070000C94CB4A0C94CB4A0C94CB4A0C94CB4AAC
:100080000C94CB4A0C94CB4A0C94CB4A7F7F7F7F55
:100090007F7F7F7F7F7F7F7F7F7F7F7F7F7F7F7F70
:1000A0007F7F7F7F7F7F070807047F7F7F7F7F7F42
:1000B000077F7F7F087F057F047F7F7F7F7F7F7F34
:1000C0000F7F0E7F067F0D7F0C7F7F7F7F7F1F7FDF
:1000D000177F167F157F1C7F147F7F7F7F7F007FB8
:1000E000277F1E7F257F1D7F247F7F7F7F7F187F57
:1000F000207F217F267F227F237F7F7F7F7F7F7FDF
:10010000107F197F1A7F1B7F137F7F7F7F7F0818E7
:10011000117F127F0A7F037F0B7F7F7F7F7F081015
:10012000081F097F080A027F08197F7F7F7F7F7F72
:1001300008027F7F081308117F7F7F7F070C077FEE
:10014000017F080B7F7F08077F7F7F7F7F7F080706
:100150007F7F7F7F7F7F7F7F07037F7F7F7F047F1E
:100160007F7F1C7F1B7F7F7F7F7F7F7F037F0810C8
:100170000C7F247F237F137F7A7F7F7F7F7F08110F
:10018000147F081908200B7F7F7F7F7F7F7F7F7F11
:100190007F7F7F7F7F7F7F7F7F7F7F7F7F7F7F7F6F
:1001A0007F7F7F7F7F7F7F7F7F7F7F7F7F7F7F7F5F
:1001B0007F7F7F7F087F7F7F7F7F7F7F7F7F7F7FC6
:1001C0007F7F7F7F7F7F7F7F7F7F7F7F7F7F7F7F3F
:1001D0007F7F7F7F7F7F7F7F7F7F7F7F7F7F7F7F2F
:1001E0007F7F7F7F7F7F7F7F7F7F7F7F7F7F7F7F1F
:1001F0007F7F7F7F7F7F7F7F7F7F7F7F7F7F7F7F0F
:100200007F7F7F7F7F7F7F7F7F7F7F7F7F7F7F7FFE
:100210007F7F7F7F7F7F7F7F7F7F7F7F7F7F7F7FEE
:1002200008277F7F7F7F7F7F7F7F7F7F7F7F7F7FAD
:100230007F7F7F7F7F7F7F7F7F7F7F7F7F7F7F7FCE
:10024000017F7F7F7F7F7F7F7F7F7F7F7F7F7F7F3C
:100250007F7F7F7F7F7F7F7F7F7F7F7F7F7F08158F
:100260007F7F072408057F7F7F7F7F7F080D070B37
:1002700007237F7F0713071B7A7F7F7F7F7F7F7F27
:10028000071C7F7F7F7F07147F7F7F7FFF1F627F39
:10029000C23C006088FFFFA0089001324006C8C63B
:1002A0000019FF03050A4414812241CF068AF32076
:1002B0000365FBA00C98290034FF7FED81325006C6
:1002C000CA4CF319280366E094063379C68800986F
:1002D000D3E764800CB910F8F80014C002587F0B03
:1002E00060012C808604040A3C0270D3F340F305BD
:1002F000A021E680CE4CB312E050C0DBC08628D1EE
:10030000E05072D33460D3B04E16B998FC13048613
:10031000FF98FFC5D0E51031024099E8EA40100887
:10032000310120B604808BE00829E4D898F9FC203C
:100330000F36E569C78081FB0268CBB314CFB36D7C
:10034000D316025BE00C04C39F9406F33ABCFD068F
:1003500049E050E0F32DFE43D1DC027F9D21CA012C
:1003600084926E6AF899C0D980B648CC09BA04065E
:1003700001F30347E57FA405C00B61FAF2A0013445
:10038000A2AF3F1A4403389525249D968082C9C5A3
:1003900023AFBC8578CF22FF3B68E003018BF69B3F
:1003A000101A60FC68690DA05C90B8FAEE97B3185B
:1003B000FD07FFD544FF90051838C1FFE6E0504E19
:1003C0001941FDAF70DE3230B3328D10B323657347
:1003D0000318A6A0B1DA2DC02FE00EF4C7F0F2C6C4
:1003E000840360C51A66F3C0FA75B23398B3040883
:1003F000E4C03C20B0BB94F3AB23FB2C2116B1210D
:10040000B3CC9922FA8BFDEF8184514BEF180CFE8F
:100410005073B2A8FBFA8172254878F860024CD27A
:1004200084F4F5478326CA024C12C457B2C6279CEF
:1004300012E38D087247A08734332440D382081D0D
:10044000FF600F3CA09C01E51ED00F7A200B6032AC
:100450007080F3894F390B04B1E6266607F02BC292
:10046000E0CAE07AF88B1E06C08018011649F370C6
:10047000662374B4F9B2B601DFBF7B23030279F3BC
:100480009CB66BF552E5B7F4ACDD79660DC63288E3
:1004900029F9B019A201C89E101064302204FB3162
:1004A0000A10908109CDE1088AB4B3C01419AF04D1
:1004B000DF5221FF321805A0605E4E4CF3D8FD1DBF
:1004C00084343829800A055F6801853008DA1612FD
:1004D00078B8D8604DAFBA98C2502236E03DF1D21C
:1004E00060FF0C01A048040244FD948080F0785322
:1004F000B2637DB840B70C23F22D291D80622A51CA
:100500000C770710D0FAB700302003B3BF04CF98A0
:10051000F5B870DFEC6CB16EF77FA8D4C2DADFB447
:1005200036B0A376C3F5FC01102088FC0870C148E2
:10053000DA1844B33E8810845EE3B3F42309200C38
:10054000EA629CB2B204540040FD339514EC443589
:10055000AC1BEC4B021113BB4049DF216597088DA2
:10056000BD780B684440188991B3FE2A6E98B9A0F3
:10057000A10CF14180820841E891FA6010BBEB16B2
:100580002EE2DF90802C10350C40E4B8463BEE3C68
:100590002012EDB1B11BE0AEF1905D3678E398B971
:1005A00050D0FB0476EFF04018F436020B305FD0E9
:1005B000E16232B1A94366FC97DC66FF8192884F05
:1005C0005FC1FE40484AF2D0F1D2EDCB0280A8953F
:1005D000C044F27FF358E1ABB3841046C753A6136F
:1005E00069017898FD76C8FAA00980C8EF5A615D64
:1005F00028CB3634DCD741200A5A0DFBE773CC6494
:100600007801BD191D106FFCC8101AEBC16811D11B
:100610004A343DE0FB804195F602BE8B0D8CF235ED
:1006200004D36FE03C14AF5C6DBD133020AF485D68
:100630004B38F9991CDD05E5B3E498DEC10122A32E
:100640000CAC3BEE7F648606E0D30B03B63E9AB457
:1006500007B0E24379C60FC08130C4E3FC04203BFD
:10066000F3B3422D4047C5FAF228EF4A5121AF3388
:100670008C89B3EC26F71182425035E32080B8AF65
:10068000440B42EFE2140C4F017960F8048D4421D1
:1006900073D80910DC240266A6220E181039EBBFAD
:1006A00080ECA1FD016316FAD0021A500B7CD4A095
:1006B0000901804634C6810802C78004102EE8FE76
:1006C00060D3B3871E235872C53C80B022F3E25D2D
:1006D000E3E739B4607735303440A669ACF3019272
:1006E000B909C603F260012C10B3BEB9D780303807
:1006F00019E2F438B669C575AC02D1C02096B7EDE1
:10070000BFA154D302C5C068FCAF04BBD9E4942098
:10071000B475EE0D441881ACEC2C0847EECCD70034
:10072000D40498940219F39A05FD06E530117C9FD4
:1007300070700501B338FB0634B910A661AF817B38
:1007400098A0108520FD9801E5080C0DF819E6ED3C
:10075000FF01167CA3AD292C91B424F698110C0648
:100760002DA4BB4ED4D7FD80D92C994B791379E5B4
:100770008A77FE2006BB81945D40D25FE7657030CA
:100780000EB8FF80123BCD5B158120F251BC982A38
:10079000F168D371B39FF2CC3573CAF020D303D77D
:1007A0002140AB9838CEB5CA41E303BFBF7885FB83
:1007B000297EAB2F50EB93BC6C913001C7DB02401C
:1007C00065D711C0F39FEA0084E5D7181D66ED9840
:1007D00004123F3158081069200C777186F3FA34FF
:1007E0004190F83ADE044074258008A273FF821815
:1007F0000110240448085C1E67BCB334A206087AC2
:1008000080CDC8047B9836117703CA5E989F84C652
:10081000300431FD5EDF72DB0E507050DDF31CCC16
:10082000231EC8EC83100F4F27C83007B0171ED007
:10083000D60358CB66F34C9FC820200F68813CD369
:10084000F8FF8077F47E90912D17DACC7DBF7F2260
:1008500010041D8975107DB970560D012129D341F1
:10086000F3A04706299C88C68997FC5AF8989526D4
:1008700046FCDE2920F246C02818A46B0B48F6EA95
:100880004179B30F932E180912AE400B73348602D0
:100890000273C6906010222120E6E5FBA0ED6CE318
:1008A0009C91E26A144CA491439850EB480A438E01
:1008B00050F360102EB3CB2451E4FC989B2FA0067C
:1008C0004E193066243A5B4969E60BFD9464F4BA2C
:1008D000262BC73072540359BB19B77119CC88E065
:1008E000F9959A60E5A5C93060612DB3B26E56875F
:1008F000A0563831166607C0E0B39440868A08FED9
:100900004E3003190EC0BD35A8CCFE086609E0B311
:10091000045A7F10401401808930AE02CB6440B786
:10092000C06780C45AB314046BDD1341FACC45048C
:10093000EA64D72B836002D30D202CDAFF37CE3048
:10094000E95F676E824C8788B02B66F182204AECA3
:100950002F80B19F1D2E63AF7A159876AE82110657
:10096000A0F58A2125CF026A66C81DFE403DC881D8
:10097000790F34F33DF369C550CDE70C1088B766A5
:1009800005B466A818BEDDBDA5075E9835F31AA4A8
:100990003266DBD0FA10367575EB7B31F6B1EE318D
:1009A0005D7CDDC842D71DF41CB9E06610B58066D9
:1009B000E741F85A09BB24109C18A6620480B3EDE5
:1009C000F549024408D55192C839C45DB424801059
:1009D0001F19A8EF350FFFCC23601135C229DF178F
:1009E000FEA0051473E64A44F8206A8240241334BA
:1009F000D550FF080A6013090021042CF34919227D
:100A00005BF3CA40A0FC1591D3F99502B03FF30CFB
:100A1000A48934228EFC03B8858F54F29822736720
:100A200008EFFFD8A830B79B98F5F197CA3068CB8C
:100A30007BD3811CF260BB20C798B8E04034CF83E1
:100A4000CB627C307653C8B301610D76B63C67F358
:100A5000B1C61003C5702040CBF4D8FAADBB05F584
:100A6000AA08D3BEF5843AB3A0D051F123668AFF19
:100A70007F40917937DEC48034B78F9A079368E35B
:100A800004012040A0F413FD80902C48C521D02201
:100A90000853220456AB63A2134B82EC12E130FFE1
:100AA000595E7213240F800931367CA29A64E020CB
:100AB00088907E4049F9E0010CE5E316DA02AE0FBA
:100AC000994E16B043AFC468C50B0439C4BD98B184
:100AD0002BC1843DF6CDC638F3907303037A3219E7
:100AE00060B96DEFFDBA243A32493C985AE37D6A09
:100AF000899E66FA2F20D1C2237E9EC660CE61FAFF
:100B000053020AF0C8DB4108B5BC0498401590BEFA
:100B10008B60242096A14122B3E8848024905A76E9
:100B200027B3442F040B3C86018405E6A190FECC3C
:100B3000B4E37FBDD211F32524048469D0FE08827A
:100B4000400B01040DCFE330DB4C914282D1672C86
:100B500041D0883435AE04E298B32F0DA0445BE950
:100B60009BFD9F306C97A1199752B0B80803169857
:100B700015AF0730790093CB0D83FD98303C5CFCBA
:100B8000804026BE98AE3AD26440D9C090E50311A9
:100B9000FB9FC53095D5A9FD30D3AE80A13734F683
:100BA0005F52991CD3186159C83AA5F904D25C5D0B
:100BB000D95AC9418CF3AFB081A753D7108852DE00
:100BC000EF12CC2DB44022059C84984250AF8A1A73
:100BD000A5B391F7461A1013C70201735B48FCF7DF
:100BE00004883040FD6121C22CE308222F1C778746
:100BF0002160440EB3B4C71C86221087C05A132349
:100C000002FF818C8809120146A0A700D308412069
:100C10004082EBE08F30F4B21E952353F769E7C8AA
:100C200016D0CC02794304D9A120A5B4CE3D8005CD
:100C3000F42AE73D58000FFDE0012CA00792FE9832
:100C40005EB59D817438FBB7EFB204E81F0ED2EF9A
:100C5000EB64B29EC4BA17FD12CF89C3ECAD71DD4F
:100C600063069CC8036207FF4698F907283871B2EB
:100C7000D9D5F50122049192C83972EF92600C0B1C
:100C80003FAB17A7BEB320C13ED30203401495B3B8
:100C900020A2FCBD360B6890AE21790540FFABD396
:100CA0001401638240FB0328088530B8303C049E61
:100CB000D586222502CFF198B3F08904902213E063
:100CC00008090B0D20F348048A16D158057F832D9F
:100CD000A4F211040A2419BE1AFF96A5DEBC3D2C0D
:100CE000BB71FF02652DF841F830736DB8FF5311E9
:100CF0005FA72B9564E36DDFF331F2CCF28C0547EF
:100D000035C860E27883BEECEFFDAC8401300806A4
:100D100072EA042F70400C98C0CE2030FDDDBF2F4A
:100D2000D002902039E00488B15C308A80B7730922
:100D30002DCCFC98CBF40E11AE279C71E5144CC160
:100D4000F281DD4642D99B6CA6CE2451C9CBF90372
:100D5000F84663B808E320842CF083224044D7612E
:100D60005660267B3412D92D0168F935DF01AA18A7
:100D700002E0D91842445090BB1222A0D9C102848B
:100D8000F33B9BF9FDFF49F0AE4041307A5E989805
:100D90000D16F0B506C750FC02B59B35666BABE887
:100DA00001FE3CF1401ED05716F53C012C90BB13C0
:100DB000F37920930FF3D348B7FA388A28B26ABC84
:100DC000B485C30CEBF38055B350ABB38881775E29
:100DD0005F095928726DA06EA908E5DD8835EBA181
:100DE000FAF9C705E010E5FA0864FC73BD1284FD4A
:100DF000C00419012061FA82D909049F3E98A0C954
:100E00000A14D4699542BFAFCB0220148229F32F74
:100E100012495C0202B1F9CF37F931B393DC7E7528
:100E20007470FB2096F7BBE32F9259F31006F37909
:100E3000CB98D347FF9FD3F5DCE5DEF7CCED3A84C2
:100E4000ABFF012CD3D9914068F1EFF8FA28307349
:100E5000956620636DD390FF9E067E80936A4467FB
:100E60009BFF1124D317599CBC0A6AC6ED18F920C0
:100E70004D488D06C5F3938EFD8E9FFD5498FA65FF
:100E800019B173849FCC2C91BD360724C6E658B0A7
:100E900066EBFBCCC11029D3D8B7FBEB37FC078F2F
:100EA00087193BF321FB62FFCBB1105F5987FE87A7
:100EB000CF9BF391D5B0854CFF18FDECC148047C65
:100EC000D9CF2C93B2EFBADAF78B40F8FD65F84E24
:100ED000D8E828E1B499E92212CF65309D24FF3B80
:100EE00001A0407E3701E1BE85610A5980DFCD66F1
:100EF00016ABD0FE4B5F6F5F887FED17010CA92703
:100F0000F59904ABA628FCA520C001EA6811C8D059
:100F1000B4086AA310E5C146B3C519D5B1EAB7DF75
:100F2000D7938EF48072E9FDDBC3758697E881283C
:100F30009A44D8C57A0262CF219BDB40531ED43835
:100F400020FC9522F3E1047AB8FA4061AA0121E07D
:100F500052507F1920402DA80C050396424EDB51BC
:100F60000B40BD9606676B628005E120B434B84142
:100F70006B7E06F1E614B38002F20BE1104349FBED
:100F80000C2068FEB50FC08710F002859858A02489
:100F90003E5004D0217FD58240A6480145D8200884
:100FA00087FFD3861484104807DD61429FCD285205
:100FB0000240AD20E017900FF380040866F86ED968
:100FC0002D61BA0D515386AF18C198FFDBC8017C63
:100FD00030B6B326C175FA80D0F6D57C4041F41105
:100FE000B5DD949648B426B72993950977DE87B77F
:100FF00042C6D7F6F7F4FACB12D7A618C7C5FF2515
:10100000B9F67519BE625A126D88F97F5A02629C50
:10101000916688EDB9CDCDF98533DCB33E40FE6AEB
:10102000D96C54A5C0BB9084DD1D7F1B25FDF36DDD
:10103000E397AB2C08286958DB91528C6804EC21AB
:10104000FB0283987DC7003079A7A12C84BB805C0C
:10105000FBE560F942C085A6FFED6980409650E847
:1010600080A0FFF5407C11C6DD5E97F8584E997C54
:101070009FD61543CA98FD791FB9D4FF095EBB639B
:10108000BBD0659B32B4C0A0FEF562BE1862ABE96E
:10109000065CAF373F262DC4F56308D1F0FFEB9512
:1010A0009B1D8430C6C7CC9AAFEDE668FBFEADCF82
:1010B000E40902B132931CF291DF6F5F7CFD30FCDA
:1010C000204004779791594B3AD046E531E1F858E2
:1010D0009F893E78196172FF01C5F73E18B3FEB6CD
:1010E00063CF30F0A3F862B9FD0C1056FF28D97B0E
:1010F0006E0D616ABF08C43F2F58B0FBBC79C63B78
:1011000015B86E666107D9C7DB37B380BD9750B697
:10111000FC30C39B92DC88B0C4C983A5F0B1FA7ED1
:10112000C08B04632BA0013FF39D409C41DAFA8001
:10113000B6E9100857987F49F56D968753D974F82A
:101140006FE57BD610513E857CC95CCE4DFCD0F856
:1011500091F6BC116DDA8DB24ED0FB19D34B0B2832
:10116000EFB2240207915FF38BEAAA10C55DAF408E
:10117000F0FD716DF9B2B54268DD0802D123D45A91
:1011800020FE6246CBBE981D08E1D78E34D7FEE123
:1011900090FCB816F375C1C1BF8E184DEE21F9440D
:1011A0008AFD37FAC179C01CB7326C3DFC68FA2061
:1011B000C004150F301402C8A05098A6D5103405ED
:1011C0000C860A780BA07B28B0101812FC8564A648
:1011D000C483404260D80CE0A130187651D760B289
:1011E000E5C8FA7CFFDEF84053E2806001E032851A
:1011F000E71805824B02CB2332CD38B6BDF381030D
:101200008890FF42805008440111213FC841208846
:10121000434207A4093AE42524DB9623C3CB91D3A8
:10122000DA6D25E01E913E8B7AEE80D8E459B30D3D
:101230008FF8FD75F8AFDBAB11F847C554B69025B4
:10124000F535F79C1219BC81F2D82FAA88BAEF683D
:101250000A50F9E2C92D63B64251AD06648AF3869D
:1012600040C06BE6165B780444B5F8308F9B6F94F2
:101270003D94AD20B902F8126B979036FA48FA41C6
:10128000C4C592F65ADC552CF12D2EFFAFFEB2BC30
:101290008D3EFE87C7F4AEF15FF464B1F388FF1BA7
:1012A000A51D28BC1A6CACDE2074118CD8A52D02AB
:1012B000EB66FA1A31827DAE7AB1FE16D7C8FDC44C
:1012C00089D4DC80627CE06EED05791ECB718037BD
:1012D0004CFC7F4CCE251D44A8A0FF98C4B5200728
:1012E0009304B0089F4E67E3994FA47BB3087659E7
:1012F00090E537E6BC10ED4B9BEB5D4014FB7FFAAD
:10130000E1C6D46780B467677188FA79A4FAB05DE2
:101310009E66ED438A2C61805B56F618DFCCDA1AA4
:10132000012E6E0552FA42934406A201C5FBAC5051
:10133000A3208454B20276CD0D28FEB72CF20440CF
:10134000CDD0B3C28F5A77501BB37E7A60B6C397A5
:10135000FF0E76E903C613B31CE360B3103D85802E
:101360005D6BB698FD7F90966C46A33466811A8AB1
:101370002C22CFE9A78009BCFB6DFB7610DDED11B7
:10138000300A33F982045C2436B4302CB39840B56B
:10139000620FDD9D4600CC6C7FB6D0EDFE16EEFAF6
:1013A000E0013DE2F9DDE8781836B0B4F2E0C801BA
:1013B00008E0E6BE07025AF392C6CCFCDBEFCC365F
:1013C000063F72ECC26019B65601E0476E80B66CFB
:1013D00012DBD0F9FDCC92B3DC1009B3D88889B800
:1013E000B3CB6964E0553C54A2C611BD98FC25C638
:1013F0009AAFACD2449F581D68C1B716C64BC8758A
:10140000936E16FB4A72648101523666FF24D367DD
:101410006584E77A9977FFC27138BB9CFC606FDB0B
:101420009F1829DD70666DAA99CA321CFEAC100F98
:10143000E5F607B7CF9FE63C0840B6FD59D8095FEF
:10144000059704191890BF9B983A528020042311E5
:10145000B3F5C8D9EDFF80319BB3604173B31DDD97
:1014600047401F73ED9880C6FD693AD30802FEB766
:1014700031FDBCDFDFCDA5C419696635A9B306B857
:101480006DE798B0C618201C56EDD8F984487D53F6
:10149000CB31CFA1192D79CEB7DB7FF2D9F8DBC0E4
:1014A00065B257B38218B6F01936AB5C809AC34C5C
:1014B00004FFC0C0F9106CDFB3613F9F0246FE31EC
:1014C000CC300109AFCF1DA567D0427A5E68BFC797
:1014D000843BB190FE6F59A504BE98469B116AF8F3
:1014E000C0CAE530FFB7165D59325FEDB118AEAF37
:1014F000175D9862E198032EB3CD6E701753BB98B9
:1015000010FC0C5EECBE010325CBCEFEF974D301BA
:101510000CBE4566A33819214F180401C2F911AB5E
:101520002601081997FB9F211BE53010FE984E8A73
:10153000C01080BCF880C59BF3386FE5CC1EC4E7B3
:1015400093E6983DCC300209AFE04BA5101EFC5E3F
:1015500003BBAE20DBD8FC01666A1961272D3083FE
:10156000FB4C202DFBBD6B316DAEFC580453032B9F
:10157000C798B38C88B11176B201238F191879FA04
:10158000502F18191A042D8519A0BED1BDE8FB866D
:10159000098BE77D1A404BD10598F306D0B102D3F1
:1015A000C98C219D84FAACF88BFD9B8CFA9818F5B8
:1015B0008802BF8D98190CEBE9FC2F965660A3D3D7
:1015C000883862FF7F7ED2DFE30FFE9717B3F9986A
:1015D000FC23D8A8FA8F9EA56D9681FD32B3EF1338
:1015E0000420770C46C11478985B0DB9779B6DDBAE
:1015F000FE9A4CB5C83BBD8C9D5BD4982088E00911
:1016000008645E0A20DFC402E098E3109DE9F1FD62
:10161000B79E98FA6FC323161062A2199C9C39C01A
:101620000308BDAFF3F015FE987BD330FD669BD663
:1016300098F5C7A59801967D2CA0661AC23839D3B3
:10164000E6EE41FEDFAC70A2B3E79F200C84B181CF
:101650004319BF3213B560FF4DA008554DFA148CE5
:101660006495D9CCF8DA22449E1C46912DEA98065E
:1016700018E69542F301AAB00706D2D1100AD31397
:101680007BA428FA62DC30018E723020E493300DA6
:1016900006C093EBFE707E3230BE0596A7602FED3C
:1016A000980702DD3781500A2B71F0A9C08A686E55
:1016B000360C606DB0FC08F656DCB3F51F218B6E5E
:1016C0004D46ECC8A80AE18FFD9FC0178774848C33
:1016D00022F9DB6AFA1BDC8B19DAD620112DEA9885
:1016E00026F93291E934200A1AA10BC804C9401026
:1016F000D082ED840901FECC59703EE25C30631B60
:101700004959D55E98C20158AE09355AF79830202C
:101710000F77815EB6F8E33027CDB8BC98C53CE5BD
:10172000F0E09420665B8F69D41763A682EAA1FC7F
:10173000C4BF32807665A84C468A1F19EB9841FDDC
:101740009801E8104482B66F5C4CFBBF6EEDFE0A58
:10175000013C7D0B82492EEC44118D67D0EB40C5D6
:10176000E34201A03B8B304475D353EA1036FC585A
:10177000DE4B7E591F7F7C860C23163719EBCCFD80
:1017800098085DD17AEF98D9191EB6046DD6070472
:1017900035DC0CB1645F3F9853CF7034C077DF55B0
:1017A000DC657010905C082DD8BF32526DF1356F3A
:1017B0002670F648028C18BF4EB146526877FCA0DE
:1017C0002189B32BD34AA909CB67651948BFEBEF31
:1017D00016D4B809F7637E989E823D0A804589D069
:1017E000131128FAB329F7D9F8FB6A196051660773
:1017F000F32C464073DE98182009E01A458F3169B2
:101800009BC8E0BDDEF96DAB63047E237D86500C82
:10181000EC63C598FD799836190480873036F9D97C
:10182000FFDE98BC01C0FFBDF9B322EC4881054D35
:10183000B4107FB7980111F66416BA5DBF32142E4A
:10184000C6EDB1FC99AFAF0405A0067B5C6802B1A0
:101850002D5E56301651AE6C7B98313478F3732977
:101860000159738116C8B1FB0CB405F59820188F87
:1018700098B2B6E42F80BC5EF35DB6E398CF90B229
:10188000F9F7F0603DF8A00701CF1638400F62620B
:10189000BA156DED98E0411EF3A277D704767DA8C6
:1018A000FFCB970553885E417440B1095EDDB1A658
:1018B000CC500B69BBD6D1EF440BD6C9B0F105C0F3
:1018C000A8FB6DD724BDFA09040212FE98E5082092
:1018D000043A8BF5177D037A98440E1022BCE1D7A9
:1018E00071A112DBEE4906D73BC80D904F429878A4
:1018F000B10F6F5D980297C8FA980C5AF309096204
:10190000D3962CC2C2B394DF289E66F30F15D5156B
:1019100006AF898266BDDE2006C6701555DB60F90C
:10192000638F5F1A58222439964A882CF361195321
:10193000772B9909C698B654FF1EA7AD3021685978
:10194000665AAFEBA00104A897E496E04D2BDA1796
:101950002601190BCF0142B548B0A0AD121EF16DA2
:1019600068210C60B394EC5CFEBF32E5557340C651
:101970003031EA980316F8ADDF5E5AF2AF085967C6
:10198000789E4B5CD6BF20E97FA30C62D9C85FACC0
:10199000B480E5303C6815A76DB3100E404DA6A885
:1019A000F89AB30381066A59D94C105D706FFD5ADD
:1019B0008024CB7503B830EF17C41168FC2C0D20C0
:1019C00031BB0513FE632A663C2216F215D3F3964B
:1019D000D4026EDD55C4FE665D757F20301047026F
:1019E000A740B8148090C10911B6712E19BD21030A
:1019F0000D7F96C56F0E20E53004AA6602D466DB23
:101A00008930E00B5E98478FF0305903F3F62C20B5
:101A100040FF7F51407A13F3B684016F9B185073D7
:101A2000B3FC78BE7FFE143045A3727C2091A910D0
:101A3000F6E1F96E978C5C9CF35FAC5E9805B99DFE
:101A400093CB7114BFAC23EE041208F1A5B55E91DF
:101A50003ED3028C900171C858FC58D1FF94B363F7
:101A6000E5FFA2FCAFB786105C104B3C0150F34D74
:101A70008CF3E3D12CD3CE03F3B8B1FF4DB066CDD8
:101A8000FF98D8FE289193868D6690FF8B2B990C3A
:101A9000EC79275E6C0C97C1A8FC6FF6D9A6C2C280
:101AA000F3FFC4CC66CFBCFB66DF9B3AFE042CBEC2
:101AB000F3515FB17D7FB31FFEF7F2F3DDA5FC8A22
:101AC000FCF926147DCCBAD398CAFDCC089EC56219
:101AD000A5FFC1EF99EAEC02FBCC38D9030E16FF43
:101AE0001829E69812ACAB08D5B3FE86AB7A06632C
:101AF0008A5FD7A618F67E68FE2FEB0B08083B4CD2
:101B00004066FDA6A6D896D7D88651DD9098FC9A57
:101B10008F19B16889A5D04033CAE80237F66FEE55
:101B2000020426397EC0FFCD5A910886DD158A222F
:101B30004D0196FEDBBF779E9AA518A3C9AE7EA481
:101B400064BB0754DFED401C0519B31870E1B30501
:101B5000DEB3608001B09ABE044425FBB0A16F01E2
:101B60003804A718B303080539C1F0FEA0B602EC8B
:101B7000EEA0B5F9F773280620C70A8902480B388A
:101B8000B2F06913B2D3401A0153F48210055A63BC
:101B9000D6C0A4E07F4958E1B6EC962031F7405416
:101BA000F908661B86ABF8402C4EFF51E1409BAF15
:101BB000C7912823DAF5DC80AFF60221F81CF5C1C5
:101BC0009DADE0B8FD878DB7010493ED3A88FB87A2
:101BD000E667FDF503D8FF61C12ABF5F8BF5B7E16A
:101BE0008BECFE5F9BEF1120CCC927E4C2050DA84A
:101BF000FA8A18E2505864EE71F0C28FB17FF39206
:101C000018D3151BD51704E6B07BA810FAB72030FF
:101C1000C3BB2C2BFCECF4A8FBFFB15C7E317CF544
:101C2000A780FDFE618A6C10CBF3E5462A90FCC7C5
:101C30000C417D20012DB6DDA498FD088AACD5802D
:101C40002AFBD24CD876506DDB641011FD0A9897B0
:101C5000D6FE1CFA8C80CBCD7B028203AAB8FF6132
:101C600077D885C6C066D8D8F973C68D7E6CC8FB98
:101C700059D9206106D7E7EC7A809FF67A1060FE8A
:101C8000676D9E40C9AB0F02633F35B74037F576AD
:101C9000DA08D0FC2A46B040C38DC2FE32C2EED96B
:101CA000AB0246D67EACAF02DF96D6F71128B280E3
:101CB000D7C84DB2A0B3049FE234EDC68C16619133
:101CC000E8B6FFED5880BFECFD104BCC937F340994
:101CD00040C2B6FE5EF148496FF9F8225862666567
:101CE000FF1CB940B304CB0201BD500907CAFB4039
:101CF0002FCA5C9DD0EDBC249078CE10600AFC41C8
:101D000001056622B36890990AB380E2CB0CA5CE98
:101D1000DEA3104009807699F0FBAC4F0802519386
:101D2000914425AF22FF1D142E600DA39A4236B1B7
:101D30002223AAE70201DF42736F0310F7068680B1
:101D4000A0FEE20447BEED06E8FC562808E7D29B59
:101D5000F1715C8919175AB45BE46EC93623F96FC7
:101D60006F1E100F598062A4B4CB7A998088B7DCBB
:101D70006D3021FE7F76CBB0FD679B62FD2B851910
:101D80007AB5501937FBDC196090FFD998FFE667E8
:101D9000EDFF0C8085BE4BD970FF7FCD8E20C83003
:101DA000D4C566FBB1081DD89E40479BC1204FDBC0
:101DB0006F08F78730F962FC0562ABE88018580DB0
:101DC0002861AB628427CC8DCE6DF290FFCC252E9E
:101DD00031ABFD59FC404BAD4273F309797489B0C6
:101DE000FAED74046DFBBD029BAD38F9309BC27FE8
:101DF0003108DF594B087EDEB180C5B408FD1B2ECB
:101E0000DBE2963BFD8749EFB8F876F0D222528D9F
:101E1000EFA27B0CA1894EB290420A7FFA60012C9E
:101E2000A44484B310BFE1113FBE16C2428A487A6F
:101E3000859016104661B20AA3A9DB2CE0FC7E3F18
:101E40000EADBFF97E60D8400CAFB69B06C02BE547
:101E50002FE4E5C01707C049A7039BF20FE001304C
:101E6000F766D3186678040ED9E830E4B32CC007BF
:101E7000E09A1ED360122361C68F181476B9788455
:101E8000FB924646FD88B3660F85302039B3024188
:101E9000F583680DEC8005A0EE1374D3FD069ED08B
:101EA00093208B60FD93210CF958B650603248FDA9
:101EB0003F76F8089D9CCA9050EB3BF159A34480B3
:101EC000D45B3662193E21EB85010264878F47811E
:101ED00040775A87723102777FF8E03319B2407049
:101EE00081013543013CCEB62016104F83F3684183
:101EF0001C669766D2B630301F1ED003A178F33629
:101F0000D2900763C451B1F3DFCCB7F9DC1203BF41
:101F1000ED6B76EFCC23BCC93FEB97EFE62F60B9B2
:101F200012F3310606B5A208B6037549FF8051FDCC
:101F30005F8188E33EE005A731264210117BC65140
:101F40003067E572E0E720587583600AFFBF3421EF
:101F500026043AF340133FCC30D2FDE745EA46C1B0
:101F6000AF48BD6470A408DE5228A6487C248C4784
:101F7000BE79C690881A0F0B29227F8398F55028C6
:101F80008A48FD3D85A82FD59CE9FE26629DD06F2D
:101F9000A6A6DE8CB806FCFF86ECD80794AF02D765
:101FA00073F7A0FE2906E0F028FC46E3E3BCE597C2
:101FB000A3039DBFE6985BAB84415E98FE4020186A
:101FC00080037810F134D6C5201C9983F90EB99F8F
:101FD0000848F988050234ACC1D7A313A38BC0C548
:101FE00098A026872CE8B00B3BF57F09E398E09892
:101FF000E1500360BFC9983D1A022379FA0D089099
:10200000F3DFABFDEBC5049B2A01825520227ACA7F
:1020100004FE16A0E471B2DE982795692444718706
:10202000308A08481251249F120621FCE0405E9835
:10203000863097261826D21C9070D3F4BC0FF36715
:1020400017B4976BB298201EE0D3D4981043E91EC2
:10205000C803D3E4C2010DF490FA8481726BF6B523
:10206000A619FC812CC9E2B23C08968F1C3FA9E05E
:10207000C74D023A8425D3F119DDC572B203DF578B
:10208000DB02AF124C339DFA649CFB421805D26907
:1020900011B33543DDEF881811FC5205FEF3F0FD56
:1020A000205124A2F7D7236804D74524307222C2D6
:1020B000218B610860F58CA101E6987F3F30804458
:1020C000C4188A08E963608140144BA448FD982134
:1020D0009EA0FC12C8F8DB2B91B6B1409B937F32D7
:1020E000506220938CE5E366884CE0F139887FDF0D
:1020F000FAE29813BB97B8AEF9E97E08067EC05C99
:102100005DFA0F80813088E65018C0FE5830409F3D
:10211000303002E1351E84E598DB2F3CBEC4FF4A17
:10212000980CC6EF2BFB8405EE320146F9A593F817
:10213000244C1004B05986D0F3BB45853092897881
:10214000980A26E43041E7860401B8300848681A46
:10215000A95988E6820104FBFBB5F7092F924620B6
:10216000142EE1E268F5C560FC30B302FD98507EA4
:10217000C99F2C751D7C33AE843FCBD9982890A382
:10218000F506F8FCE0BAAD0721D92619936446F3A9
:10219000321716D07F1930FE986BC587C430D3280C
:1021A00063198F82F7980760019A0CE5F85EE320C7
:1021B0006669D2E18CBBB3086BE2D8E6C47930061D
:1021C0005F927F9F4ECB10C0C758C68840F7302023
:1021D000F0F96E6316D3DF6F800C081030D7052638
:1021E000F75F110316A1983C8F3230140249B7E310
:1021F0000AC80D887906B384663C43EB4C7FE6340D
:1022000002D0FF8009C132C1FE5122184910681462
:1022100099D22484BC5D84CF086090208430B3427E
:1022200095668595EAFE8C40226A0E45A413FDC58D
:102230004A3CFB298185C15394AF8C14E509DEAF7C
:102240001832A58FC931F30F35E5225526F06B6F93
:102250003730D0979D18FBC06BBC06C1D7201E033A
:10226000307F707106C02E04FE720C8259E6CAB32C
:10227000C02786D318088113400EDC8041BD76D775
:102280008F1C3086FAD0FBA001341052AAF70A4006
:102290007DD82ED3C8FD7068DFF9B33687B3D3B0CD
:1022A0001093269637033BD38D08BCE622F08B5162
:1022B000606E4DCED4C3F91C88CAC4424CCD2F6089
:1022C000FCD2AF0995CDF3E398038967FC7F92ECCC
:1022D0009ED1BED49D6F2480040AE0B423F2E89B13
:1022E0005F31FEB50205CEB240238158FE703080CA
:1022F00007F20AF3FEBC0FE059E6DEE52B90D0783A
:10230000F0301EC03F18100F64010D0D163679C84D
:1023100059400FB2F62C2050FDF9C85DE16BFA8CE4
:1023200040F24E4216826283FFD70859D5371C848B
:10233000F10378D89038F3D360F1FA0DFEF059C864
:10234000DF4350DDC321A66E1C204ED3968089C486
:1023500054B6303CC00250C90A01E00EDD3522EF10
:1023600098410B6102AF4C9F75F3FFA005B0E210DE
:102370001608A7B368040CF2A10130829D9E9A084A
:10238000488189200CFCA07CA0A04F908641226A45
:10239000AD842E717230500282C4EC85C814EB08F3
:1023A00078F98F97CAF1FD8B2077A1301069CB4A5D
:1023B00022FAA4C4FD9840779E98F2BC20FCFF1836
:1023C00098D4211DE0FF80DD24B620E6300138BE20
:1023D00082B6E0EED75762199DFE9876667B20980C
:1023E0008121865C307FDCCC849F0EFB310838FB7A
:1023F000FD0441348006100890B3130C9E35172657
:10240000845A33176412AE4C33508B656B63CB4BDD
:10241000D37813B6281CDDE00ACA834850E70D0BB9
:10242000198AB35B899720A17E791401B39481AA9C
:10243000964A5A1133B4F649D3238994E0C580886B
:10244000B830BAAA1C0317E6C890727EF860AA0AD0
:10245000EBFBF93003FDE4010C90077275AEDC3044
:10246000A362393FCE98CA9B2FE00098EE2C30CD66
:10247000C80ED3016FF6802C922019F0DF2BF52EB9
:10248000710200E258FD7288DC276227FF9796D719
:102490000C17305AD27103FE98CAB9FABC57E0D073
:1024A0009F5F98D0050BDF2E1098208B40FB018892
:1024B0008081B0127DB42681429A20DE98A290E0FD
:1024C000CFC858502333B68CC621FF2250FE80114E
:1024D000260A8626EC9D829F79A088B0C022DDC2A4
:1024E00010CF300C4CA448D93041A4B78759C81A32
:1024F0001A7F7068820CB01014AF11ACD1FEC829DD
:102500000C05B001340FC4FA8077DB5F9DD2CB237A
:10251000C04E58300C8F1E3040B6C068F64120F2D5
:102520005F87D2729B75D348F9CB5D20BC98BE8F74
:102530007FFAE001398007E472B070EE595D38FE31
:102540004BBF4130C818A783D40F845C1015D9C87D
:10255000AF03CC9288F3087CFCA0AFB33F98B3FEE6
:1025600001D305813446B4D0E4300DB3F3F830F133
:1025700039E0FC98101340224C1E443089EDF53CA4
:1025800008A340D064A122E4C3FFACBBA1E0602F4C
:1025900015D8D3BB3F02BE60FCD8C8508F5FB0D502
:1025A000C4F9AC041B88880A3F3D20C85740BC8B47
:1025B0002299FB6097585D70B4387869190DAC901A
:1025C000B4C8F6986801CFE130E06992C826B83007
:1025D00065363DF3F9C8E758200BE62C00DF48FFCD
:1025E000BB56C08E1915870397C803B64BF38113EA
:1025F000E331FE52B55C0C44FCC60A08BEC7B4CF3A
:10260000B77D49BBFEDDD546D48232436181F5B347
:10261000E8465B75DA08237DDF9E1ABF5131C89802
:1026200053864C08FA1131C246C8FFBF0B4241988D
:102630000CB4B01968FCC0EE301200E6302309BCBF
:1026400098260580640F08625E4801896CF995F24E
:10265000B3CF8926C802F58A08130993C82C90992C
:10266000102442399C6963A83189E2FD2D337DB283
:10267000036C7394C014135D3B5E5B625F3237265C
:10268000100DD394411DC6AA5F0320D8E61AE0FEC0
:10269000C9C8F7779726C23E43A6D3E044D0F3D10A
:1026A0000442D888E6C80775E01E84BBB60EF9035D
:1026B000245C304BD30CB787B8C2FFA49634269C59
:1026C00030AD0A7B17304226D4BB1360CB812C9EE1
:1026D0003FAB64D76BA178989FD3272D0284340A2F
:1026E0004446C69C61F382281C05062E88FC04B271
:1026F000C8FF14987553DF1101906E8D1B027C1971
:10270000B19A1CF1C8200208E901D384AC8882C8C0
:102710003718100218F2F24880215A1BF2C85F9055
:10272000C530C2870CEF7D981EC800381072302C5F
:102730001B11C9C8D3EE401ED0CDA8607A6B0357D9
:10274000C63F3079400764010C2F79E330FC98854F
:102750002466E782F330100C779834A2FF08F4D98E
:10276000829F452BC48008105D6482049BF358F857
:10277000BF5C46DCD442895B7BE51131090409B3B7
:1027800034015F72B1090C94C8DBE0A32186B3C8A1
:1027900010AF26FEDE411344042C489AF308F9D802
:1027A000151026536D0B6C5F9FA2119D1F24E868C6
:1027B000112C809609C677A6E505EE1699E0010B67
:1027C00067830590E7349142F00A60F811090145EA
:1027D000B07D0012A875B1B64BC87127B0BE020912
:1027E0001966621CCA1CD2D3041803B47B0223C628
:1027F0003381D4BDC63085FA41833C0769EB98101C
:102800004F7598C02004C55DFBA7013F8F30E203E0
:10281000C9A8D34861481E3C080731FCB98E990904
:1028200032B3F8FADB25C8433E39304206C802838A
:1028300095F2220DA0E6D4BCDFDD43A801B073AD54
:102840002202AD402C148DA8809F16EC58109340A6
:10285000F3242C88115BB296FDBFFE989F14F408F8
:10286000011140434B87047FF6600102DB3165793B
:10287000980AE0F72EFA483D42C6180441B8828013
:10288000E92DB8ECFFE0019F5798E074A407F21619
:102890004CDC0368090C0F6A666AABBB68D798F01A
:1028A000B5E0200BE378D3320E16611938EB0BE25A
:1028B000DA9890FC2378E36D21857D57705807F4F2
:1028C0004456ABB35043B36CCFB8180960400CD634
:1028D000820196B4647104D498F3C631D821FC56B1
:1028E00005DE98804091D2B097E0EC18B9ADA0A376
:1028F00081296FB723F49812E93C241A5C04AF8C49
:10290000F9520526C10886F12362022C80FB34109F
:10291000F8FD001859FF0186B33EFFEFE8FA203BAF
:10292000CF4F04DB80BC4BF3F3CCB5E3D152E0FBDB
:10293000E56E2013D32F26C6F488FF8EFB30DEAC65
:10294000FFF2B1FBF56377579708FE247993892C42
:1029500066204466C6D8D3D8FB8C4C86F593018E8E
:102960001E60E065362C58F96718A7F9FF891E84A8
:102970000E4DF9D0FD905105B84416DFEC62467358
:10298000E7249E0A396AB1C448FE6091FDCC98FFE5
:1029900098506CC06127EC2108C6D4D0FBE3587175
:1029A0002FE7639FE26BF7FEAC1110F6E2B0FFCDAC
:1029B00031D5FFB59359B110E5B2A828FE0C3C689B
:1029C000FF01408CEEA20EB3DA493398FE98E3FC87
:1029D00014ED6F20BE5A709B0F33D9804019FD6EE5
:1029E000457F0A80E73F99E0A4B19518609FF7B54D
:1029F000B6D598F9FE0BB2013E5F1D04E6A12DF29B
:102A00007EE0380D17CB0428DA50F653EF4CE1FC8A
:102A100068067827DBE4848B73F3CCD2EFAF865B58
:102A2000AC02AF4D80621C081026ED44406BBDE047
:102A3000CFE5E2C9F780C8408187290C78F18C1B6B
:102A4000B5F5286775FD6BBE01A65B7EC30418D380
:102A5000210AF109103ED54032D86046B38B680D8B
:102A60000F5CFB80806B59C0C036198A12C0E4022B
:102A70006020A9C0D547F040100881C467BD1A2363
:102A80003007040DE57420780A7455852152C980F9
:102A90008409F6D66330ADFC82C534F799DB4680F5
:102AA0003C67D0EDBCF38CE1EE06C66DEEA03FCCEA
:102AB000414BC1806DA2C602D2DCD33311F152DB8F
:102AC000256AB77D142DD784FC25E2C26BCAD9FFD5
:102AD000EC9528E49380A3EA9337961508DF08D88D
:102AE00060FBA1B68BF511920566ECBEECAED0FA98
:102AF000C1D6D5615ED9DE9E71B3B87B170163FD87
:102B00001B7EECC320EFBDB0F0E8BDF9BB117A50DD
:102B100040DCE5DB56350829DB2302817011AEA0CD
:102B2000885C12D1B4085181A8B390CC9910DC0410
:102B3000F361369912EDF1C0FF901B677D9C7936E9
:102B400089181A9AA809E7F778F90A67F107848BB8
:102B5000FF802CA21BBD1C3084FFE30BCCBBF63ED8
:102B60000104C7D4AD02386FFD7F98FC8CFDF2756F
:102B70007F8919BFABEB226EAE81B56432C8D6D463
:102B800040579864F963BB9E98FB790ABB93041085
:102B90001DBA5F03C456AF60BC03B48033D23F9A02
:102BA000C8C7F8406DDB0510F238F3CF7CB1581F71
:102BB0009762B498B88B5EE0F9631F04B1407F5907
:102BC000A0027E636FCD4C78FB8AFDA7851D5C4615
:102BD000C9F92E66F95084DE9928BC0F59B282A536
:102BE00019C115FF415F7FBFFEECFC9E0BEF026138
:102BF000196A6D76DFD11911F35E13F1F5B0FC6E31
:102C000004724984DC488CDD536FE6FD0A429FFD67
:102C10009E10242CE2FE4BC37A308796D12062EEC0
:102C200040FF234B951231B0F3182964806824D9F2
:102C300030F9FC94682077D8C2D2AC80BC44DCD494
:102C4000D56FA8B8FDCED72F3836E1EBEF3CC1C722
:102C5000CB41AC17B5CA10B26B81F3A81F3CBC14B2
:102C60002896048EE9ECFB88D7F14680D97C09B11F
:102C7000415CCBB201D37248CB88DB1302094176A9
:102C800066782433F648721782D09D02C94EFB62E3
:102C90004D66801093C5CA96219F2A8021FCFA2197
:102CA00064FE60404D2312BDD30661A228DECEC370
:102CB000825204112E0180302B106BB30510CF25EA
:102CC000FA6471340D20C19CF3C71B40A7296638F4
:102CD000F980B954A498B410455F25279CE3B02D22
:102CE000E062450AF6030D707AB423060584BFB08E
:102CF00003CFA1887314181159E1E7280A03FAB425
:102D00004A777DED70FE80408B7C9BD8FB089E9DB2
:102D1000BA97CA9FF7BDFE20041E2DD77F6E6410A0
:102D2000066CD7A8513A226BE44220E36AB10FCA7D
:102D30007B81D23FE0AC68BE5D7702BEA8A8F810E8
:102D4000DCECF57140A18D8FE47DDBD32425D740E9
:102D5000F3A7B43EECF8F51599B7E39848B6D193CC
:102D6000CAB1E59FDD36C8F9B9EC9ED86359CA6788
:102D70009F9DF23AB3C37DD948414A56106CC2F0C8
:102D8000FBFFB0F1AF36D008533E68F8641AE3ACED
:102D900021802A37B23D1978FB6AF26769898D92E2
:102DA000A87028DBF6A420EECE0830FFD49BC335F4
:102DB000FF80B977EDA658FF9D9A4D803251CC42E5
:102DC000674DF5CDAC7BEFFA619A6D10D5AC50B282
:102DD00004BF4F98A3F81C5D5B75C09010F25B8038
:102DE0008CF2672B6D2B7E8870F8F32F4F2F57CD09
:102DF0007F89FDA01DE6B4CCF66FFB7F2012511831
:102E0000056AC282FF96DB40B99A11E314EBD8C879
:102E1000FBA0A517168F45EC4DA2444CF75228EFA6
:102E200096A368FBE710F58B1405BE46D35B4A28D2
:102E3000807B77E8FD76ED110677FA0C6EE1DA0318
:102E4000601861B75664D99127E013A8B088F80ECE
:102E5000018EB3FBCE63B3D9A783605746F023F34B
:102E600085BB3072C618CBF54C40EFB008FC80290A
:102E700064B4669029D8CFC014F60B6004B1019EEB
:102E8000DD1540F64C7B4EE8FBA380CEB4E715235E
:102E9000DAB75FDB97168CEAF62C76FAB00825AA2B
:102EA000AEC07BE09360440C25B22101CE1F68FBCD
:102EB00060103B8007931983FC0FC0604139F3B168
:102EC00020F3C90378F3B6B33C8FB55A06F09BE004
:102ED00090EC0C0DE0817A98FAFEB9B230034766A7
:102EE000FDBFDFC20202E5C93089F668C0FFB35FEB
:102EF0007EAF8BC6F27F405DB67ED1B340DC8845A5
:102F0000B35D3B960AFE28B3D808028BB310447B0E
:102F1000B3C0FBAFA03478F919F1E94DA431F3D473
:102F200028F100B49CC4BD9834B4215DF809D639A9
:102F3000FC375E134CCB78FA8EADFF3733F398C075
:102F40008659605E036E7A960653771E58D344C145
:102F5000BAD718FE8B4BF7FCC597CCC0756AA0B3E7
:102F6000069E98676994E2B3D359195DFDA260EE9D
:102F70007BB228FF88054E39B1E54CA1214466B9E2
:102F800024E00A629E98BD804E40D7106259FC39F9
:102F9000B17BFA22FBAE80DC18C673BBA3F477903A
:102FA00035BB40D15020330C087909621DFEBD0AA3
:102FB000B3903D970C8011B74BFBD3FB1130EBFF67
:102FC000E001D4A5F070AF035C08E8F3B9F1E05874
:102FD000C1400F625E98B52CFFA918200FB7E2F12F
:102FE0004AD370160EF8FD84035F15A5B3E7D61A11
:102FF000F37DF48BF998B0F7B266FAAF9ECAF1F898
:10300000C029C817B33D2EF380E6785042C516B3E9
:103010002088BE4356144AB34045C75FA0EE90FED9
:10302000A0FE8CD002FF6E712D20FEABD204EF58B3
:10303000C501A71F30F32CC5035DCBD9A4053EC441
:10304000E6A4090112F8D36D4E7C98F13CBC7F9840
:10305000C5D711CC397A2D81CDEEB1E0FB52C62611
:10306000C1D79A3084415AEAE07A4B038CF05B4630
:1030700064B370050295FDCC0F84DEFEE7FE048587
:10308000FA26C0B582FD5511DE8BB822B38CE3550C
:10309000641072AF6AB58D116420B28C2F7AB0982B
:1030A000FF84445248C2DF90957601E8A7467748EE
:1030B0001FB3F67F27976373F70961E2010C82B2B1
:1030C0001BE14188F37B607F9E98193B53E040C829
:1030D000F3FFB85076D53C0824B373D30270961032
:1030E000D35119CE3638FE8051286528A88329DFB0
:1030F000C598388B7998C789E62F0C233B99F678C9
:10310000FCBE4C262102CEB00BF88E805746A99803
:1031100014E770B10AA2B3C9D119B2405DB24D0132
:10312000213766FBA03767D424F23025EF74A4065C
:103130001410DAAC28B14E3F5F9801ED98136A7A0B
:103140009811DF88CA819BCCC8F8D6E1C0BDD547AD
:103150005AEA081051D1A88AFD34FE984DE080410A
:10316000B9B3AAF9FC8BB3943D80A64B8DC8F5FC8E
:103170002076834F6299C8B208BC98DBF67E788FC0
:10318000B098F8800577283D08919A24A02163889B
:103190008202A5FA018A71301CED04134914ED0175
:1031A0008009F649D1F96A81FE485C302F66CEC8A5
:1031B00044109F594280241803595B77D97FFEE55C
:1031C00034ED41865BF2AF20DB3209FA9802696F79
:1031D0004974FE6FEA9883E230F1C55681711E5E34
:1031E0007F7F9998E7B437EDF0407898064F243008
:1031F000187BA5C6F9F9F9D5B540CBC8D22841EA64
:10320000C63D98306BF7522C6640DEE51761FE76BE
:1032100078A5BD1FB320CF8051FB15C08240B32CD1
:10322000846DB382B1401CF97BE8FBA051F7BB264B
:10323000539610AB0DCCA048F316CFB502A90A44A3
:10324000810989FA9810D3F07B08571930DB7EBCCE
:10325000FB19DFADEBCEF3CB4E19E23033D738306C
:1032600056F2AFFCFF51B32043DC400DC8F3E01B26
:103270001884B3010462BE987E649B1837B3C60BF2
:103280009FD59884DD712618C340E44CD32420E9EF
:10329000D8889E18E561248CC57C98DD6480B321B4
:1032A00077CEE2D7FE843A3842C888CBA8BFA820A0
:1032B00044F388834922E40184107C367BB3B00850
:1032C0005EE85EBB87648C5CEA667F7FC8FF7F9D9B
:1032D000A5E0989FC46AF381F41E83C0787E6CC811
:1032E000084FD59820FDEC7810799892E8D7E04106
:1032F00036CAFA804F40177F3423022033862120BC
:103300000C67DBE50360F830CC6E6671FD6EF62568
:10331000C1CBF55EF86F14C008585E1360042C1B17
:103320001A3FB38C30D6B3F0FAEE6E3D4608E1AAF0
:1033300071BB0DE2B961542275111068E61C2DC7EE
:1033400030786BF6932DA81157D280A634B830D7B9
:10335000CDA5F425F48F62B1B843FF55E8610B1990
:103360003833F61A209E4BB2227C98B3C804AF8043
:10337000314B4E5A300CAB16702C9B93B3BABD0632
:1033800050FAE6B31610D566A4BB2154D588E58063
:1033900060C57830DB8B3DB637094903DFDFDC13CE
:1033A000FEE1BB2674E303751403BDC6F14010189B
:1033B00003F422247CB1B01FDF7F0193C88611EC97
:1033C0002480919FD380818491F9AF60773507F293
:1033D000209D1992F5F365BD1EF366C804C4FC98E0
:1033E0005FEDC303340BB7E4221AA3F19897BCFB3B
:1033F0000EFFB512ECD80640E518F38E7130E6D317
:103400005E5DC8FCEAC9FD044BDE27C8E03AB58121
:10341000052EB3A53AF3108F3BB32A028821E94C5D
:10342000A788B390FEA04E2612D002FF6EBE2D22BA
:10343000FC7612DDAB50CBE20419E0301061F24DA6
:10344000A82EDB511520CACF5FE5FAFD4AC440A083
:1034500053B2C172F5C6F83085468292D3A504C630
:10346000887030739EC25ADC79067DF6DE98713919
:103470008D64C8D7D8709B4B97B2DCE983F7B0F85E
:1034800084097571E391C310CE1101DDD0887BB83A
:103490002304418CD65B25C8D379B49FED7AD0FA4A
:1034A00011606621DF231AD688D4F7C61F8418035B
:1034B00020D80108AF5717AF9804EC1744B7AAC932
:1034C0007B7DD781492D30FCB830FF3598CABBF4DD
:1034D0009818D8F308B7AB9820C798190B626FFEFD
:1034E0009F782003FCDAC8F874A67699C869DC0ACC
:1034F0002018BBADECCF738530CA93C7CBFB983097
:10350000FE778098DE2202B334E029B392C09D0C8E
:1035100058B1E0B3F6198840284FAE4B843B66C7DC
:103520009803D4227FBB9825A451BD9808C19B4421
:10353000130241118B7A9840FE84265BC6F8D80EA0
:103540008508807429A0FAF66FB249EEF1E09D5E1D
:10355000C5CB400C521C32FFB87DFFEEA3E8FD0B3B
:10356000C0C009EAB00417F3FD7464163D99C87829
:103570001646D3FFF6D30F42FB58FC8F040146B624
:103580009F49EE288849EF3F0818052CB3BCDBC8DB
:10359000109BB5E7C811012CF486662C20EF69DE7C
:1035A000F904F9C6A5C074133AF1810802E0CA8390
:1035B0001BC220F2C8DFED4EDBC93002FD980B3A8A
:1035C0004B8C80D140F3B410150D59CB03F8F83D66
:1035D000FE235DDDD1F3B1701EC86F79CEC8200423
:1035E000D466D4ABBD85106998C8181A0F62169EB0
:1035F000F3AC19E881E8D360F9068C739E535D063D
:10360000CC1003AE219BD2798055B350B9B3BF978C
:10361000E55B17FD45FF9238E698FF5791AEC00174
:103620001BB3C489B930149E905C60010CECB57B6F
:1036300037B3371120B3E0369143B32D824DB348F1
:10364000FE8E7D01B9B38C9BDCFBE534FFBB208F84
:1036500075ECE408B6615AF34099F3C6CCE6E0692C
:10366000D3E2E619BC4BDC83C3E6FFB8FDDCA0C3A4
:10367000B366DBD3ABFC0D96790C21FDCCC1FEA962
:1036800080FFCC7699F17B61679766D90E3FEE2F6C
:1036900066E3406FEC5428F883EB4F35163144E372
:1036A000B1CD24B3C34068C6D839F86BF0CC988B41
:1036B000D310FF661181DA9BD67235A60D6BF0A888
:1036C000FC018239FF76B120C4FC0B1B0B17B980BB
:1036D000B62078F979308EFA3A08C5141904F3CB7C
:1036E000B0FAB33CD7D7F6101017361990F92EE57B
:1036F000B014BFFACC88FA3D532F805A755FD5803D
:1037000005D7EDFBFC99C4FC94CA231FEF46D27089
:10371000F9CD2DE7B7AB6C0C4010F5B1401CDD9135
:10372000A001C20DF32E0A6BF94EF8EC44E5C53347
:10373000F911EC0C080CA0C1BFF3D26D05E62B3DCE
:10374000B330C9012691AE196D732F7501407F0307
:10375000811A06CE0830A158F8B4C388FEDF8D1256
:103760007B874034DB82DB23CFD8508FDA34254689
:1037700005F593FE460138809ABFA8F8D34233F688
:10378000F20286E17798E6EF4AE5B35896FE97D1C4
:10379000AC5E8F8DFFC5049DED1630FF825F5BB17F
:1037A000AD75084C5E27F552409CF606FCC43D0101
:1037B000026BB6E417B66618FF5FEE974558FB2814
:1037C000E1CDBF996FED9280FAE628514B79BF7930
:1037D000B78EA31E08B33F291173FB78FC79C09AFA
:1037E000C37E58F651F6C2EBC9FB378C8926E33FFE
:1037F00012E70D78FB0C67717CE7D6181560FFB7F0
:10380000F9F32B1F31C2FEECF9C8FFCE30B5D1FF62
:10381000086C19609FDBFE021158490162B3B5FDC7
:10382000301D9FB61720798FBFF49028FEE36FEB11
:103830003201D7F950FDF985A76AE815BC19B3C163
:1038400013F6CCFE259BD30108F9CE01B302BDE5EA
:10385000FC677ECD80C73BF3406359C8B0FDB834E8
:10386000DDB20167FF69E8FC662DE704006CD880D3
:1038700065FDB590F8ED950402A1C3798FB299303A
:10388000C24FDB2F108EFBD0B8F9857779860BFFFE
:103890008037F4A90479B2508C19A574448A18BCF5
:1038A000DF284FE066E32730E9C63C4AFD52E301DA
:1038B000681076B64081E414F37E99AFFC7D453FF5
:1038C000F68019360618FEDE5AB3807F3F2025FEAB
:1038D000FF8C7D8CFFD9A308C9CDC11B7748F85652
:1038E000040848CA48D108E08F31C9350220AE62C9
:1038F0002F403713DCABEB90DED0F927F0820102CA
:10390000D02141B51CD3A310505960D4EC80AC0534
:103910004B571C20B3724A01F50D6AF3D141219F28
:1039200073DAF980C8A002A264C6E5AFA001BA218B
:10393000A7847E8818408320BA17087004B1240E2B
:1039400047E204A44073C1EFD02803396E8160FAC6
:103950000182410220CA7B36A63C5768D777D32123
:10396000F5358B76AF80FFB7E65A54088BBE1980C9
:10397000CAB251C602D0E337FDEC88EA31083C01F7
:10398000A262CF5BE402FAFC10FE9D7DEBF810868C
:103990001BF66FF6C072F0FBCAFD110493F64118D6
:1039A000FB9558FAD94004BCB6DE0208A2618EF637
:1039B00083C0F825D6C411ACB70841CFFE4531D637
:1039C000A66FD7FB98CBCF198DFD186AD3D978FD98
:1039D0007A406147ECCD0149F0FC79C698975EE2E8
:1039E000616FED3610167FFB1B6A2801CB5C61040A
:1039F00075D9B8F87DD42CE23A7BFFB8FEC08413A9
:103A0000C9C947B108F52080907A22D3AFDBCDFB3E
:103A100005E96C05638462CC6BFD000820E6F04B81
:103A20000968F86E9C63FB4967ACD6058F8EBFE5CD
:103A30004E903E6684084054240D11B3D202D888BB
:103A400044F1B3DFD93409A9B5A0EB6BFCF328042A
:103A5000AD6BF02122904837400327E601B9B0F85A
:103A600067F810B7E3586930BE5B2BA9CA42FC0364
:103A7000717C7B1978FE42CDF76CE006A2364AF3E2
:103A8000188131E63EF2A8F04018699968E001C655
:103A9000C00340647FE788FA43CD1EC064BBD446B0
:103AA000C8446FD82CB097C08081D0987BE1A051DA
:103AB000F6308A24C14F747DC0FBB30A266C0258CD
:103AC0008EE904800447600D0B505D3FEF69D3D849
:103AD000BFF90C45F8CDA40122FE617EA9F358661A
:103AE0003CFD8807B4801E10B31B0570153ABC78E6
:103AF000200333CF97B460FCB6BBD3E7F919813C00
:103B00009480168278E6F7D308E0FB329606C0E38D
:103B1000DDCF069B80F31096E3042DE5E6F7399799
:103B20000F99947FDFDD18F9F316B32864BBB361F6
:103B30008098C996CF12625E82E8C0021828B53715
:103B4000093369A0A2012B13E99CFB08A580B334BB
:103B50009884F720D8101A2CF725FDB51BCFDAD0A2
:103B6000280AB703F52CC0295F09A4A09D04FBB463
:103B7000F89FE2B2E3D47BC9E5780CB14AA8C0163D
:103B80004FD9511C78D9D8FBEEB3064180F56D0CA6
:103B900091E698E978042B4BC020BE8FC9EB544EB8
:103BA000FB323C1050FE2FAF9C46CFC0685F416691
:103BB0005896CE4AE01808DDB31046D79F6A853480
:103BC000D3B3F8FD1824D6C44457235D4D969570A1
:103BD000B3A43AEA046A0836D934843B683B47B94F
:103BE000FA3BDDB28003F0A7F6E50B0429E598DA8D
:103BF000B116F3F971A256B982E680C40C2067ECC5
:103C000049AF9FA2AC86CB0115DC5240B1B64D5DE9
:103C1000A3C1D61767BBFE26C208D42228FC67FAC8
:103C20009809E74424580446AD47EF04527BF73126
:103C30002190F8FD9850B22836CC04D007F32340E9
:103C4000B08081C4BD98065AC3B501DF988006C014
:103C50009B44D743B8309AF0E8FF59DE108252D324
:103C6000C6D6FF0656CB79B3B830D7FA27E8FC5C46
:103C7000190853468CADACF020C3D08180B1411EF1
:103C8000C56501AF07B7826D900720D3B33C6CFECA
:103C90009B04B302FAEBDDD0C0B508585711968AE1
:103CA000E626FBEA6163F3722A1352BFC03407D0E1
:103CB000FC042E1132667C2CBA0AFFD19881E88868
:103CC000F13029D590F62168D35E986AC68F0290AC
:103CD000BFFCD698B0FD8E5DE380F2B8509543608E
:103CE000A68C7F9098E0E5780E0416AAD332EE34C5
:103CF000BAE5302069AFB776510301DFACBD20D6FD
:103D00000CD88440B7D97FCB4D01454AB8CBB30A14
:103D1000D66903CDD3C402A0B33B0513CC7C26C126
:103D200069582D13BA7CD98E109AB2FCFDF1F5EFCB
:103D3000D914480C911644BFD5FDAE8411019EB430
:103D4000BD30C2925F329E221C31308403B3C8233F
:103D5000B9019A84379CF979E599E69869229E2FF2
:103D6000B70438DFA5DD2C20B9086628D0800119FA
:103D700036FF7FBFE024BBDD067967E4DAE0AD18EB
:103D80003968B80D5C036F917BF50820FC32140490
:103D9000DBF5108D70D911B20F44C4FC98B3C8186C
:103DA0007FF9EBA01104D3ADC05F1553D3C8E7BAB8
:103DB000770030BB46965F60CA84A03CD394C5139D
:103DC00018C0B74019708DDD2850E6A2C9C690E929
:103DD000D7C8FE78F8800772AC9F409892DC1E042A
:103DE0004346D027E89830B50E95A89EC8010CA090
:103DF0006DF320FC981638FBEED117061CBF9B987C
:103E000038660C8801EC4866BEAFB2A8F3A9375AF1
:103E1000A229F9FADBCDC884B7D66CED55481BB39F
:103E20004C8011F49810F6E026C414855CE3BEF1D2
:103E3000826D93C8F808BB483CC8024004C3B5096A
:103E40006AB34BDA98D2F6A1E9CDEA15EF390180D1
:103E500020124481E082FD85AAD08122407BE610B9
:103E6000340798F846C47F6D2F180DEECC1A50E039
:103E7000CC20DCADB4FD9BE4900120E036FD84ED68
:103E8000A0401E393081B11C3E9A647404217EC466
:103E900065C3880164FBC958F932E7240D4604B7AD
:103EA0004176355008188B8C053F4815BC6FB6100D
:103EB000E89249F43025DC0AABE6488002E09DB385
:103EC00010081603DEB66040CFA2B858397B6704ED
:103ED000060A11FD3214719DFCF8057F852604A0A9
:103EE000849E6E2DD1502CFDE90F0734400E647A6C
:103EF0009890D78B30CCB84BD89803F10B68A0437F
:103F000065E03DC6D9C878E6F0B908D0FB1366066F
:103F1000C08840CAF0980D3C986C7910FEBB642DA7
:103F2000A8480F6657C6DBC6F343F0F945FBE19896
:103F3000769808C0ED6842EEEF039809B1201E9B09
:103F40006469D8D2F9018B2DB069EF2F1D8346E645
:103F500002AFF05AE5B4E61E02D0840ACBE2FF14A9
:103F6000248F0401677D8069FC37521204A3D2308C
:103F7000D7C15CB46469EDA0C4FC19F8AB33016D22
:103F8000588501801906DC3079BDDFCF6F93269A02
:103F9000F8A0FCC645EA9392C841DB8530A988E5C4
:103FA000C8AF213070A4C13CDB0C2470307F3C10C2
:103FB00070F8AF08389875D89E65E05201A05F058B
:103FC000E69833C8302016348B2A50C7E6F3CBFD71
:103FD0007E76FA10484E6DC8A05894A111033103A3
:103FE00065F83064FA68F668493A0240C9C8CE15E7
:103FF000A665C8C9B379DFE603CDD10591719AA74B
:104000002C300C5B8D307D980C8B9034647B982029
:1040100018BBFBA8FEF3C9CBC86E31304EBF1B8D59
:10402000308CA9C6E6E9FDD3ED41F830B515422E36
:10403000D3CF042C0805D9A210FD6477293028F9C4
:10404000608614B7992128130DFE6B304830C6984E
:10405000F535FFED91408991D081AE98F987B5D9BA
:104060000104E5B4F9D61284AF98DFCC20ED9810A6
:10407000117AEB03FE6E160609F3E5555302BF1ADB
:104080006670504239C54B17CEE537195AC603B78B
:10409000C548FA91EA99FDEB7B5CA040B91C0C0C79
:1040A0009602B025E0982BF08510B365E373DD032D
:1040B000C2B520FA92FD8588717DC7F71BAF39D054
:1040C00050081AE07F99FAC719B7D746D8FD7F790B
:1040D000EE04E088C08FB31F5198C0FE84912FFA80
:1040E0005BC9097E7FA289E15084EC80313043A80E
:1040F00016BC814F19C40292BF452D43BD5E02EB31
:104100001230FFD5D208D5B1D64EBD17C007B0BB0F
:1041100006DEC50BE4013CC4BD98058B31063BCEE1
:1041200078204CD9C8F11E980770FC77086AF04EC9
:10413000338C3D9804B3827CB8D9E00142E060C47E
:10414000730D70A4F9ED02AFB3DB95227A4B80BEFC
:1041500032BB91280281CE3DB3BC46E8C0249822F0
:1041600048CE69407304C222EE5228FDD1B97AFFCD
:104170005FE335E850C66ABD785D37DF041AFFAEED
:10418000301034096766C880FFAC68EE2E080CF763
:104190004B0440C14BC643FC98B569FA6FFB3582AE
:1041A0007FB700E57231891119DFFFF96BCB3080E1
:1041B0007ED6C4105BC80BFFED5519C21F8490C892
:1041C00018A7FBCCE080045FC8CC3CFD0DDEC63CEC
:1041D0001018FC97F911EED088D8D347487F8EFB92
:1041E000AD3212DBCDA1B8319BC416115C83C84837
:1041F000B4345CE613F09050F36DFE3B17225E98EA
:104200006FABAF18F2A6418A36A702FEA16436F75B
:10421000D280D97137C1266AD861F2E6F5A5FEFCD5
:104220003080B0CAF3986E01302C2DD04D6657AB5C
:10423000682DE03072C8B910906567C820C0BFFF14
:104240006074B34583EEED9C0190AAB350D4B38B58
:10425000ED567B20D9C89631A9524809B415EF59BB
:1042600098443E980628FFD7CC4C1BC80B66DD2728
:10427000BB64D008F2C8BBF430DBA106EBC428B0A5
:10428000CB08E0191A33FF0CB3FEB35879F5A8AE8A
:10429000FBD104808F69E51D3CC6F751F39CC168D2
:1042A000ED6AE0019CD3D838FC89738EAC538059F9
:1042B000E650D9FB24AB66801B3166B5D3FAA6EC79
:1042C000E380FFA3E9DE1B5B60407DCC92C6DBE8A8
:1042D000FB99E14B73401532BD96E001DF646AC67D
:1042E0005B30B6FEFB8A27EDEC85F3E696B6679F5A
:1042F000E0D65F4B9771FD118247F6CC98FF39F6F7
:10430000E62BF615E64D5E765A98FC862F34AE61A4
:104310003B91C8FF64998BFE97629EAE7AEA48E3B0
:104320006035E7D0B0F9BBCF4BFD4118B11A962AE2
:10433000D878FF6026B10265E7B8B9B386025E1986
:10434000CD6CDDD8FD61B7405E72625CD68E20D345
:10435000CC1DBFD62780B616E0FDE6F07FE813201F
:10436000C6CFFA8437EDE8FBAD93CE02A50420D189
:104370006DA0FE14B314DDBBC0355C60BCBE160876
:1043800073F70A5B76D9A115CF2785010614F924A6
:1043900054800250E25BF0EE1108A0CEA1610262EF
:1043A0009C48FB0C3810F94E8CC8DFB749847F9DC0
:1043B00010093F90081501A0046737B32169936085
:1043C000720892378E902D62323707360722709628
:1043D000FBAA575B4FF9751851F8FFB7AD22159F2F
:1043E0003356FE32DDBB04AF44B3ACBFCC40B71094
:1043F000E39C65D608C7CBB6AAD8F81AF5BD9E4689
:104400005D0CD858FC8F6C32012C0CA6DBDB39B864
:10441000FE10FB020DDBFF90FF17DBA6097BE5908A
:104420006C353761D0FDCC6492B2B056D4224F982F
:1044300061E24604CA5976F0BA156C99632B5001B3
:1044400016FFEE1040FF46A258DE96594F3609AFD0
:1044500008B236343DCA70C660FF0A1823B6FFB0F2
:10446000FD2438B110E3C914EEDFA8FDC3BDB307C6
:104470007930FB64FDF49EF5B012A49F4D302FFD02
:10448000AA9420CF3CB613C2B61058FEC2BF23E593
:10449000EE27CF80CB8325C8B0B1FBBD30C6B1FFBE
:1044A000FCB1F97FB1A0FE333BDB8FA8FC0B168378
:1044B0002035AD46F8FD8C18CEF1E69FDDAF90FDBE
:1044C000AADB04C4BBD008626AAE4837D300A9C9CE
:1044D0006CAE38FB47F6D901AB89021A58601083DD
:1044E000EC50FF62FD31635D14637BE3D81020570D
:1044F000EBF702133751DD490189EAF630C53DE497
:1045000002657DF4944FBDFB4B40B2808C893676BA
:10451000FFB8FB402285B104B4AB01762BCFB5C800
:10452000F92A805F68667FCD800462FA58A140D77F
:10453000D3151A8FFCD8064B8838F96CCAB284D7C9
:10454000750199B2BF4966FA80885AF19AF3EF4231
:1045500004F8E340800848A0EA765BE8B340F10441
:104560005F950FC6EC72B3A866FC15EB06866E6D00
:10457000283F6C08148E2075C95101A1F37EA00557
:1045800010FA8071CE5284429764C4A76E10A005C1
:10459000020F94844F959620145866BFB3C0200133
:1045A0002A1110A73827504892F3143C2484AC19E0
:1045B000EE6200427C7E50300790FCB3CA7C7051A2
:1045C00023D4C0A6C8A6ECFEBF74AC934FE780D43A
:1045D000A0F821E64B8072CD6AF9060862FC75B43A
:1045E0004002ADB2DBE3C0BE44DBDEA82008F0FF32
:1045F00058F0AACD2058DBB758FFAF72B1C4FB7694
:10460000886497CF38B35CC796FFC05BF2D0F86878
:104610005D61271841EEAD95A8F5AF826798E45526
:10462000C07E2B60FB9788FA73943F65C21985B9E9
:104630002BD960F9E5CCD6A129A6AD79939DDD5C97
:1046400018FF9C7A6156593BA2F819C39CB3CFF965
:104650007DFF67914FB58FE85A05E6B421ED659867
:10466000FC19E86518E62114AC1880BED875FFBFA8
:1046700081BAB020B8195B66A0258230F9FF5CB919
:10468000FB26063B734A047DE7F6D0481620088ACD
:104690000146EEB310FDA530B91085038B23142815
:1046A0001C7F3A2ECA4F3304BC110512BFD03B2EDB
:1046B00006C03BBB8F824013EBCD7D334F7230037E
:1046C000DBFCE0F8FFB7C0B2407FD3404CE50362AB
:1046D0003406B32CFD4F417B410E90DC0318F89A51
:1046E0000CF2B22EEB9CB4B70130DC5FFCDD464728
:1046F000565379CF0A408E018CA2F5B309FF0BD136
:10470000924027FF95E8264014191AFF9044200490
:10471000B4E0EA17D8DFCDFC92EDE1790920A65389
:104720002806CE5AB2508744EF010C4CF4E4A4247E
:1047300039A74079901001DC18F89006D1ED5ADCC9
:1047400018AB77B0F9C9037ADD36832472B4E05D23
:10475000BCFCE116C033190F3EE03C880590E6D35F
:104760003A1093163C9EFB6DF98C04F064962AA9CE
:10477000680C660862BD1AEE0403614DE0307CA04F
:10478000C266B956E7B6CF98F986C4A6FDFCC9F251
:104790001362428DB65946FFCC2E1D07130BE960FC
:1047A000210C3C08D306410B03609C02E681B0F467
:1047B00052FBA00591E150081B77232A04398C4253
:1047C0000611BA16A096642425ED982422FF076BE3
:1047D000EB9880B4F079A6618201E58B348CEDF81A
:1047E00080413874BEB9F1D9462CDDFEA31A7A5245
:1047F000E459A102C20766D1F538BDFEB3C0C54079
:1048000006DC033878F2308007C0CC1A43CB02B6FE
:1048100001F3987EF1E3844110DE6E5E98BD0CA238
:10482000B047FB27F340C608D0EEFF840952E302ED
:104830000648F68D05065D2292111858B387B19887
:1048400005B05A78E4D0D44CE2E80A4214B357A831
:10485000CF1BA95BFE04764E5DDE9810BCC4F794B6
:10486000100402C71903AC09D82B8897AF9801E947
:1048700085D42EC15D5114F832131242879CC69123
:10488000FE6005F02944C01EC0B958953C34F3F0D1
:10489000F33146106C644FD798881F8DE798A911A3
:1048A00091F301BB19F0C93DF770FCA57241E31CFF
:1048B00098B311641175F072989F9F98E7A57D0BCE
:1048C0007998FBB1DA02A0FE1A84BB81F983FB055B
:1048D00033FA162D585FF7BC01406F910463B32D76
:1048E00008EC1102EFFBCC29209146BFCC13DD6010
:1048F00020D3B1C6487F475DFE40A009B008C0FA8A
:10490000BF9180C50650A5027844DE98952163E1E9
:10491000C52B60D698807F9398E08022AFC22F226B
:1049200045980D357188FF1758409260CC02457A42
:104930001435D664569BECB6F782602DB64B7E4D8F
:1049400099B1031DD3FE3910F8E09B2807C18DDD16
:104950003D98207EF7E30312F998896FE307E2BFE1
:1049600040C09853023C06B05F52AE8221232AC158
:1049700097FCCD32A14842A52502AF6B3648943052
:104980000834D829108BB3891677D2F98328FFFA17
:104990004540141808ED804C6F2F01F093FA63BF67
:1049A000268982422DE27C98BEB079F7116814CF37
:1049B000AF4531980D4B211293FC98BC5F40D6AFA8
:1049C000A0C18213AF42101AA0EBFAC69819904BFF
:1049D00053E64F1B98FDF05E5930E4FE9873E0906B
:1049E00007B432F5980B6F299001BF92C66BF36242
:1049F000042D3D90FEB7EC8D109F219880FAD80CC5
:104A00008497919872FFACEF604004E94C663319CB
:104A100083570CE6820131B3FC4EEFC726428CC1AE
:104A20009F2E9898DE150D1B219011FFCC2216D4D5
:104A30003CE44013648E1A95D3A0E25EA67F9F2CBF
:104A4000A009300A7084FC9FC24050020A44DF0370
:104A500028F9070A635AE1FEA0081205A48924C4B4
:104A60003830BA174A66B3F62B8C0898D602805FA6
:104A70000A49134A015C30F704106CFEFC324426EC
:104A8000712195E98B04E6625F322DECBE0BFFDDF0
:104A9000EC42A625BA39DD78FFCD3005C171FDAFF6
:104AA0009D98C72367F5200F36B32D70B59DEDD8BF
:104AB00006E212DD7E0EFFAC52DDC8D0AAEF607AAE
:104AC000C6B0FA8005D80B6679021C4A579E186852
:104AD00077D8BF886693EDE104887FABC281D5F3B8
:104AE0000598C8983E1360810CBFFD12D75BFACAC7
:104AF0006EE0EDEC217130E746A0D603F1048A8127
:104B0000D9FE9827C18F14015E981169BD7848CEEF
:104B1000D1A2F8440171E90C027F2109C1FBE081B7
:104B20007F306A06C06E595A772C7B988378EC20C8
:104B300009E0FE93B10330A0BB03E8F63B022D7BF6
:104B4000AC86F9BB8338100FE68D1C48BDFF904042
:104B500046FCBE980DFF772066CB0A2C11F5980114
:104B6000A7819869C3107CA1031804EB036210911C
:104B7000301132F1F9BABF294159DDC508427FD160
:104B80000340DE6BE5422444069EB45D69C316D83B
:104B900043AE658DA60482468074B34013CC5C306E
:104BA00003F0F95F383DED50041AC7986F2B0210DF
:104BB00095D2FAEF272101A481B1800F7FE43481DF
:104BC00042D1040240BF0BC198D78296E9B4D361A9
:104BD0000C6F39A4E8FBAB704A3A18FB3DCB778DDC
:104BE0007DFE458CFB4464F3426F3C3B05D73CC8DB
:104BF00028FEE0077230408DB372C8B48190D47043
:104C0000E50BF688F56526DC7026C8D3D5982CC34D
:104C10009CF3C0DA011A7B9848FAD72421107D064C
:104C2000269C30BFB0A60F4668BBFE21159EB43E41
:104C3000004026822244D17FBDE21405440817C6F5
:104C40002E1F0CEF4A20FB04A55052817551AF0A6C
:104C5000306713B569968ACB0189F311E6CB104012
:104C60006DB411BD9844013A7B1201427C3A811027
:104C7000C8FA60169C309708B0FB98A00169EC98C0
:104C80004009D9E60CFF7F3C7D9005B1B723F19830
:104C9000FB44F36359C89B3CF9F8F5B8416FC03049
:104CA0001AE4E8CDE30A68309EB47EDA56F9980B30
:104CB00066586F937765EDA897FD4DF67480DB39E4
:104CC000C8081689A001B310247628B423CFC912CE
:104CD0004681801E08BD982D728216BE5C2D426FE3
:104CE00041B0098930F81EA0EFEE445082CDC80CC7
:104CF000FD1833F324A890FD0804018409809FC3A4
:104D000030268859C8BB593FC88C881101825F3250
:104D100013401327AED32104CB066C197FB29A78C7
:104D200031BC76E3B813F397F651DCA39B610482A0
:104D30005F606BA8FC3F7BE420067E3430CFC86206
:104D4000200BB3E0FC9887CD3307E00206ECF5C8F2
:104D50000EC001E1981FFE82200CE8B95068D6F918
:104D6000089162EDDF1D11A9B3D9C8FD400104808F
:104D700009059EB3CE8130D311140D4477C30124AD
:104D8000F40816050666F9024260012899F520220A
:104D900023FBD71D7E5F980B6F0098EF473F21C420
:104DA000048AA350F33F8B30269E8A01B2C8FF15B8
:104DB000983AA86F2124A8FDE88110D9FD60CB4363
:104DC000717CD6C80C9DCC95C8EB98E010F198ED9D
:104DD000F31C880730D3C87B2380241A070A61F3A9
:104DE0008278016076EFF6FFEDCD4111E34F93C776
:104DF000497130897898F5ED02C180C53DB3090C41
:104E0000287F4E06650210B4829131FD2988BA4090
:104E10002DB37C984ABC577FDC13624244829134A4
:104E2000673F668009020826D0131841C52360EB4E
:104E30002DA8119230012FBB8402F12CB08520F2F5
:104E400078F97DBF7FD00DDE98A541D194A7BE989B
:104E500003081001043B3FD598A0FF6922D2201A15
:104E6000E1488368EB4D82D598C0EFBA5013488172
:104E70005C30F7302228FFFE8DC0DFD698208DC031
:104E80000340F9E362BE984B3960279B300221460C
:104E9000E638F8E6CE07C01337CB98CBC58CC747AA
:104EA0009F303108077220E418C081E305E298B80A
:104EB0009CA61003225D0C62771750FB5E9832327D
:104EC000C1C9FF3F98F574C0A2EA66682F207BCF66
:104ED000FFCC3081060F0298F8080A602288DF8034
:104EE000140504025EA521F3534CE3096A94FCCE39
:104EF000741DBF37301011BF3A8020408A8105678A
:104F0000F9983947012248812191440C347F2818AF
:104F10002070FA21041280F109F3D0FF60CE6FF007
:104F2000401E046BC530B7932016782F59980DDFBB
:104F30007F5C4ACA9007E0E1A78FBB0BD39805BD01
:104F40000EAEC4D6A40F7BAE1090FDB2CC5996DE47
:104F500098018AF998FCFC42D67F12F3A54F179866
:104F600074FA07310639FE8BF376D388FE989B04DA
:104F7000E8229F7C4204820134B311FF35B2E52060
:104F800046841964C8E6C8A809E124012F3F884275
:104F9000222CA209F23040D0FCF5B3C81077E269A8
:104FA000682EEB411492EBFBC4989178A40C4791C6
:104FB00030307006C82F03E630A8510ADAF97F5660
:104FC0002160440C8111319722B3EF7681407173D7
:104FD000B1C525F303C88A799898062F825D32629D
:104FE000A562F947FB135E98BF40287BBDFF3F9841
:104FF000800D4B0BB311E4300855CB3018F930E479
:10500000B440C9C83B9810F3E0703C39B0FB88B39A
:105010005E4EDA04188E663980C0E1BCFC5C306FED
:10502000E698CE4C88110571C01848AB40F1F58167
:10503000710514A9A0B3089A02680D017528AFFE86
:10504000AF665D9E84FDE1142CFCD0A008A79C6295
:10505000118AAC8FB697E3BA7E4E30804848402321
:10506000B93084C60029A4222F08CDD842F9903740
:105070002DF860ED73A3500F04765BC87B986041F8
:10508000DA0C1080646AAB9EE8BCA00732DB37D52F
:1050900001FB981EC012196BF368DB9840F960356C
:1050A00009CD0C64F961FE98B5A05AE2508BB303A8
:1050B000F28BFC90A8652D28F9020C726FE068193C
:1050C00088F25F58E445B3F2A008168237620761A0
:1050D0007D4484453401B29502DB47FC2AA6D09C6E
:1050E00044D10B623F4D04011177F10F9808CFE1D5
:1050F0002C8891EB3021684C1568FFCC35B33CAE61
:10510000F0595AFD46EB0CFD20E5491F7985C6E2B2
:1051100050F3B16202A43CE0A5D00FF3D371A8E62E
:10512000D868FEB16CE6B1345346FF5249019BD1B9
:10513000FA28153C66F3CF3166B6D3A3FCF3AD3045
:1051400086C7D5FF10E6A279396E7AF8F5C21290BB
:10515000866671769E666EB52C7BFEF74290FE04E5
:105160009B731E51FF6E44629F7D6DF7329EE01768
:105170006AA4DC29FD73608BFDCC18FF9E849680A9
:10518000E6BEB462FF197942BAFA80F5096075701B
:105190008B79E599A619127BDDD0FB6487C16FB6C8
:1051A000E33FFB330130EFD8B3C656CB402FF42F8B
:1051B000B346BF57E90502E6CD96FCF97949E6DF2B
:1051C0003E02B3083A529BC9C8F965F110C68B1864
:1051D0002CFF08A512FCA65BF596B89B166DF08B0C
:1051E0007ECF80F53A08E76FF51F00C25EE0096DDB
:1051F000490EEBEF40088EE0D85A0DFEA30D8089D2
:105200007E2D1146C76FF7F484319788732BAD213B
:10521000C998CD88FB0124C002108698C30CB6B58E
:10522000E7A04021035AD3B325D8B30530033D9BF3
:1052300070E40402C0B6F06EA00E50FF130A1A48C4
:10524000000D34AAFD777687B1CD291256DCCC6BE0
:1052500024049990A5C0B5C78124677BB4A060B928
:1052600070F9224E75488014533264602D3FD72068
:1052700018081441814498B2FABFE5016675F588B3
:10528000F8D37B203CED46BFDE0A10D2C370FC731E
:10529000F844207F4BA1465F807D5C3FA5B1110C97
:1052A000B57AEBBA37C5C011CB861D3FC94BAF806D
:1052B0006FA6511575B37EFBFAC4401A351691A935
:1052C0003CFF79891A18ACB3FC2DF55B60906467DC
:1052D000FB4750FD01BFACB10126F30B8CD74BBB94
:1052E0001788FEFC3BCA3607513F08799EB77FB34B
:1052F000354026FC9905652D9BADF3E0FB96536E7A
:10530000A86FB64D22B162F9F0DA60F818785BDB6D
:105310001C8013E65CF8FFDB8CCB28DD9C018B3610
:10532000EE08FE796C369002802AAEB740519502A5
:10533000BD9DECC5B0FC0616EE9508C61B53C0FA21
:105340003FCD26CCE4F34CCC6EE3A47C836640CB0B
:10535000E0FEE13CC8C74553C89B9B34405DEC4927
:1053600078FDE530088C756E9E8B6F97A1F9537DA3
:105370007F85FB0ADA04208BBBFF2D4E447758B1A2
:105380005BE69E33ADAA90FFB76CA202F3DE0BDBA7
:105390004C20FF0BB27BC5B2A2BFCAD86187D8CC64
:1053A000C7361A98FD33D1CAAC045D510468DD7E5E
:1053B0005BBFB65648FF187DD6BF5B74ED21AAF1DE
:1053C000D0CA5A192018E8EFD7D699E4CB0720CBDA
:1053D000024C1522D3D5288F58B1BFF668C8F8A65D
:1053E000A369DE0598460C167F7670FB6FE8FF8098
:1053F000EF32863AD9C7BC44CFF7403CFD10458018
:10540000F6F9DEC7BF05EC5C5BC59B8F97EB9A2076
:10541000C6FACF21FCD6EA105FC8B1987208887529
:105420001212E1A5E893E501D804621D0D5C996FA5
:10543000F3ABD128723912D55D4039E6A048193353
:10544000C180EDC0CD0250FB4035E809A0B99806F7
:10545000F6FD2860010805649F9CCA8001E4E144D0
:1054600014D4617F012928050C18C0009449B41395
:10547000819FA2803058F940C08052E5845011DCF1
:1054800035588901ECE1D380082A3F42C00B0181E5
:10549000D98082EE19BD2208733A034A9540C7A904
:1054A00020C92404ADCEFF18020905511C2264EB6B
:1054B000200EF8AFFE3722F9F89846542FD965012F
:1054C000DB6EE06DD4FBD8160839FA3799F997C02E
:1054D000C57F7F095DD4D7A641B082200312F93180
:1054E00039B408169BF8EA7D0221C6C2300388F859
:1054F000118CF6CD80C53DA18065AD4C04D6D1445C
:10550000769E628F71478A91B51CA9FBA133AFCCFF
:1055100030F524464ED84975BBE441465FC0FFDBF9
:105520006C97F3BF12590020CBE5012913E096FCDC
:10553000DF4FDE3F24B1209DDA970484DD6EB3791E
:10554000D9FD3736E7F93BA6323FB62FE361B330DA
:10555000B3F89647103CBAB305F8C6D96558B1FF01
:1055600091BF346131FF7534CB64FD1458BC40C326
:10557000120801679AB6B6FAC0F9772C19048E584A
:105580002F059EED48800B29ACFD939FDBCEE0FEFE
:1055900017DB6018D8A277012DC2227565205C82C6
:1055A000689FCBD0FAEDCC5C2647AF804ACF40ED68
:1055B000C5019E142D663FCC50F8224A4403281A98
:1055C00025024CD206D24AC3D0289D2585340A9E96
:1055D0001BFB159206D0026D4DE19491507683A18C
:1055E00074F60C049CB2F074625E51F92EB343F869
:1055F0006062896620E0A6C0E50301D5F24178F833
:1056000096B3FD56BB150803622923605DE7B341DD
:10561000FDCDC0E4013010B30F188003117BF0A062
:105620000180F086A6FD0F7DFD300818F9A3DB840C
:1056300018FB012060104CC043919D4FB3014C8872
:10564000D909A0DD129FA0B302068044D798481A5A
:10565000117D70CB908BDE66300178F9DBE7244852
:105660002142BD8012C0AD02C373605CAD8C11CF0E
:10567000FDCC1208E0D49B0B62FF2811DC46A2C3CC
:10568000BD021921B43078B3B02016C410782E0BA7
:10569000FE7F01F20616040758100BECE2012CFD08
:1056A00001AF3CE09001B1661ED0D320EFE3D6807D
:1056B00007222956CA0E5BCA652E7DF937A6200C33
:1056C000A8F3C4F3E1D67C623D99B511F957A969F5
:1056D000FB52A07F9B7F5FC057B3225804C5036075
:1056E000DA2C0209A6F330C6822CDC012081CB1211
:1056F00013FFBF44C143FFCF308921A0ED049820A0
:105700007F521259EB5ACF69F0CC3DF8FBA0057FD0
:10571000F6D018C15A08F448202D1019FC429028E0
:105720005A40214C828DEFBE140A0CB32D22DBB1FE
:105730004FFFB101048099161C1AF2B928BA34EB54
:10574000112010D29893C46B9E49DD37FA80419B9B
:10575000DD630604DED89442FB937B8202031E0DB8
:10576000E466C0E9FF8601E0C2BB40EDF956E00106
:10577000CAC201562DFE4C5CFDE04B1C97EF0EA9F2
:10578000B3C0F3039620F3E3B3FF087266407BFFD8
:1057900084013096E01EBE739B30C6A08BB8CF6BE1
:1057A000E495FFA1E0AC535A029760F5399C26C2FC
:1057B00010F3C713444BF330FFCC1125FFDD2488D1
:1057C00081FFC0C332E5A4C022191C2CB3BF10B79F
:1057D000D2A27620517CFD3BFE8409C0FAC68648E1
:1057E0000A2DA6224EB303F89329E0F39068B3ACD8
:1057F00010A166E28A1A043C022C46C046DCE897F7
:1058000090597A98A1EE27FFA391FD609D41F7077B
:10581000F0CA4638EAEB67EA0571F3C802D258408D
:10582000F33CD325E8BBE96680FFFFE0010C90055F
:10583000B440065E7873982C9069ED98184075CE48
:105840002EC5FF2F13A41F8460B572F38B8577F3E9
:105850001E02B364EABB8098A902844DBB3F107F4F
:10586000919858A7302E21FD6981B380D784907B11
:105870007114480881EDE32290890472F3B085F039
:10588000C3AFEBCCC1F97F8011C8BC058C0D84DFA0
:10589000CC7F8898DEE8E09D99E8F9A013FA9D8214
:1058A00048C41208B9018302C51018E140212A5AE0
:1058B00001E400CBB310E15F9F32ED348086C0EF8E
:1058C0008858101043F35FEE9891280C1EA048767C
:1058D000D368FBFABB4752AEDD0417A3B19EF3B306
:1058E000468BC466732D393A5AC9F6980340EFA423
:1058F000FFF1FB27FFA32018A604E00C02E2C3E996
:1059000057AF3E8D0C828130DB6D098566D320B3A5
:10591000E1511EF193EC980370A7FCE608A0FEDDB0
:105920008811C9D5082AC72344B888DE0E8482703E
:10593000F32242258865A1B3B79C983FA721B310F5
:105940000882972086F998FF6939B34A10E65CB35C
:10595000C272F8B910DB04A690E81048E1C3819543
:1059600022F3DB1D488C9C9FDFCC40E3A628162D3C
:10597000E6D71906FE3209E17133F72108F9607F95
:10598000EF7020C00EC4813A0773EA057400FCF37F
:10599000025A2007620B0D6FDACC259F66EA983217
:1059A0000B63182B92DD788007842BE703C698E6FB
:1059B0003C2710FC8469A3B47C838420D3C098A0C6
:1059C0006FA8F33B5CB2917D98084B2604B803D4D2
:1059D000FFDBCF98EF6408C1FC0611EEF9100898C0
:1059E00010235C868CE7CBC10218F9212060048C5F
:1059F000C92EE4F266E5300DAF3930824130ACF5A6
:105A0000C8889808D737F94AFE98BBA3FFD751300A
:105A100002B8F9C3A00443EB8040B401F1989AEFB7
:105A2000D08402CF49A03014BD08B3121C16BC307C
:105A3000F2A4053420EFFE5D3082EABAA1E2DD2F48
:105A40004D3F98D66BFCEB4E8265F7C2B68B0FA428
:105A5000CB82963021BC30DE8481ED6E196FF6FE6C
:105A60008BD6F8FEE7B93008DF0360C230BDB8302E
:105A700085E7F365DBA0B3B6FFF69881015FD8A791
:105A8000CFFD322DD8063C98BECCB3AEB8BDFA7F60
:105A9000D0C0105ADA23426C498AFEB63C7DFE0D16
:105AA000214530E6194F0130D289A0F788E2B3DAF8
:105AB00036FD5906FE98BB48699F24FA468699C868
:105AC000EF114212575AC696FC77C881801CD3B397
:105AD00064F33084099512E5E99805E073BA040A85
