:100000000C947A520C9499520C9499520C949952E3
:100010000C9499520C94A0560C9404570C94685765
:100020000C947B570C9499520C94D2550C94995281
:100030000C9499520C9499520C9499520C94995294
:100040000C9499520C9499520C9499520C94995284
:100050000C9499520C9499520C9499520C94995274
:100060000C9499520C9499520C9499520C94995264
:100070000C9499520C9499520C9499520C94995254
:100080000C9499520C9499520C9499527F7F7F7FD3
:100090007F7F7F7F7F7F7F7F7F7F7F7F7F7F7F7F70
:1000A0007F7F7F7F7F7F070007047F7F7F7F7F7F4A
:1000B000077F7F7F7F7F057F047F7F7F7F7F7F7FBD
:1000C0000F7F0E7F067F0D7F0C7F7F7F7F7F1F7FDF
:1000D000177F167F157F1C7F147F7F7F7F7F007FB8
:1000E000277F1E7F257F1D7F247F7F7F7F7F187F57
:1000F000207F217F267F227F237F7F7F7F7F7F7FDF
:10010000107F197F1A7F1B7F137F7F7F7F7F0818E7
:10011000117F127F0A7F037F0B7F7F7F7F7F081015
:10012000081F097F080F027F08197F7F7F7F7F7F6D
:1001300008027F7F081308117F7F7F7F070C087FED
:10014000017F080B7F7F08077F7F7F7F7F7F080706
:100150007F7F7F7F7F7F7F7F07037F7F7F7F047F1E
:100160007F7F1C7F1B7F7F7F7F7F7F7F037F0810C8
:100170000C7F247F237F137F7A7F7F7F7F7F08110F
:10018000147F081908200B7F7F7F7F7F7F7F7F7F11
:100190007F7F7F7F7F7F7F7F7F7F7F7F7F7F7F7F6F
:1001A0007F7F7F7F7F7F7F7F7F7F7F7F7F7F7F7F5F
:1001B0007F7F7F7F7F7F7F7F7F7F7F7F7F7F7F7F4F
:1001C0007F7F7F7F7F7F7F7F7F7F7F7F7F7F7F7F3F
:1001D0007F7F7F7F7F7F7F7F7F7F7F7F7F7F7F7F2F
:1001E0007F7F7F7F7F7F7F7F7F7F7F7F7F7F7F7F1F
:1001F0007F7F7F7F7F7F7F7F7F7F7F7F7F7F7F7F0F
:100200007F7F7F7F7F7F7F7F7F7F7F7F7F7F7F7FFE
:100210007F7F7F7F7F7F7F7F7F7F7F7F7F7F7F7FEE
:1002200008277F7F7F7F7F7F7F7F7F7F7F7F7F7FAD
:100230007F7F7F7F7F7F7F7F7F7F7F7F7F7F7F7FCE
:10024000017F7F7F7F7F7F7F7F7F7F7F7F7F7F7F3C
:100250007F7F7F7F7F7F7F7F7F7F7F7F7F7F08158F
:100260007F7F072408057F7F7F7F7F7F080D070B37
:1002700007237F7F0713071B7A7F7F7F7F7F7F7F27
:10028000071C7F7F7F7F07147F7F7F7FFF1F627F39
:10029000C23C006088FFFFA0089001324006C8C63B
:1002A0000019FF03050A4414812241CF068AF32076
:1002B0000366FBC00C94290034FF7FED81325006A9
:1002C000CA54CC1928E0A0D3F3A9C688009E98D3BD
:1002D00064800C7FB9F0FB0014C00287580BF860F3
:1002E000012C800460430ACD0270F34032F305A074
:1002F000E6180CE4B312CCE050DBC008286D17E020
:100300005026D334D3B00416E1B998FC3164FF1001
:100310000C0240667AEA4004080C01206D0480A2B9
:10032000E008CA60E4D8F9304866FF98FFFC200175
:1003300098964098CC7A8084A5FC8B20CB7E243480
:10034000D1D9D3021E41E65E240439556A51CE81CB
:100350002004FA0609E19301C3B3486ECF24E63BBB
:1003600004E9832005641B211795C5CC0E124C1B94
:10037000CC44A2DFC7427C90A109F6D2C3C9FA904F
:1003800084A22612B64942BCD70180FCF326188805
:1003900002FFEE692441280405106726680849C653
:1003A00003C53B68EC9C1424FA3B0B48080C0B84F7
:1003B000C8B4FD379016D1DD36FF96406D22D83A8D
:1003C000A30C0473F9B8FFE002A0C401C0BD06EBA2
:1003D0004240AAD2D8C0647C109584C6CF19B3EE2F
:1003E00007C8D218C4F503E17B3439F30481EABCB1
:1003F0000F6DBDE530AF0191F6E584DA418D3AC36A
:100400004218504BAC447B734F27FAB185063BAD85
:10041000FBBE0D10C22EAFF78220040CB9E2FAA089
:1004200005BB9C46F01801F1D8112C3029B1CF84BE
:100430003FE0130401200200B3CAFD83318B8A021E
:100440004B73935FF9E526C12218FA12029FB3B0ED
:100450001028F9E0FF013C8007F1401EC8F4031AA0
:10046000000FF3CAA007AE60F3784040E0B30C9CE5
:10047000B460010C80D369E0C01C0F5FD933F3B0C6
:100480003DC049D30EF49A3CF2F93B19E5CFA00CDC
:10049000E0D601E76F0684F3080398605F80ECFF05
:1004A00096CDE0E6D3AA96C01BFCD320DFF3D0FEA6
:1004B000808530FF0506C00419002321FA814C8293
:1004C0000580EC8E10FC0C03402084822207CE7A3B
:1004D000B305920846EDBD2137B38D023909C244F8
:1004E0001864B861197082A8FFA384A5AC107EE1DE
:1004F00048EFE6DD3406F318BFF968779913FDFF7E
:1005000098A046121704B9F5220901F66DEE980479
:100510004D224D7B54FCDE7669E27A53F1F8DF44DC
:100520008FEA4BD5305F37ABFEC38601DFCC70AFAF
:10053000D0AF21CDFA3008B0FC60FCCC07BC2BBB9F
:100540008443ED8EE957B9A0980F43016DF6CBBCFB
:10055000E35D87EF380807F47818CBEC04B06F0E32
:100560009821A29C3C72FA088E4453E7D22362A1E0
:1005700081D9634DD64208C88590B0B059FFCCDE12
:100580000681884BA14C8FF018FD860446C90506EC
:100590001BF90C516D20460EA76C4012EE06406010
:1005A000B384D210454C0C114019CFB31134C0168E
:1005B000BF04E63F8010782C0446C1B318B4418BC9
:1005C0000880C00928DD91F8E19869F04683B87881
:1005D00019425332F31EFB88F3E6CE4066E0AF3D8E
:1005E000349851D30FD37A9820BD98383CF36841A2
:1005F00020E952FE842406BDC49340CD0C02932012
:10060000DFEF951000F29FF3C43C98D7B65103AECC
:10061000E006C020D1F388C00129D751FDB0781081
:1006200046D771228B602B4CE9038942BB58BF2E01
:100630002C041031126731B320B476060288B32C33
:100640000F04B3BD9821C94228B97F8EF8B830563F
:10065000DCCDC55B09DCA8E0048126CA44F3F600C2
:100660000C20233FCB98D4BA90F972E082BCC4EE40
:100670005C3084F3DC420DF2DAE8FA078E649FD135
:10068000EAB44176DD01311078180646DEE5D66F12
:10069000E97780F0D7A0FC3B301007C47DCCE03078
:1006A000D431F8FA8803614001BBCC98E5FF0DFD19
:1006B000FFAFC443E30EBF41FBBC180486F3A72879
:1006C0000F18FE04E2103081FC80029960006B403C
:1006D000BBCF2048FA989010926491CFF198B61D44
:1006E0000AFCE077DC242120AE7E08107A191DDC9C
:1006F00038FDA43F0141460449ED8BE5904C3E177F
:10070000E13224610503668141EB22CF011931D327
:100710002216230913FA20142DB091F1F877AF189F
:10072000AEE4CEF4416638FFD3DE98401EC403DB4E
:10073000D5C5F4C05091F388FA986097D30573300B
:10074000835871E0723070BEBDBDB50E27E6AEF8BD
:10075000FB7F96D2D729DA126FB406C45D91770D6C
:100760005052308B7030DDE020D4AE665C3068666D
:100770005FCCD740FF3F301246C010582021B388CD
:100780000A49A614E089FDA360222C800971CA9C45
:10079000B381312610A0E08646E01121B384408465
:1007A000190CCEB351D4A0FAEC825DB931081F09FF
:1007B00012D12C24F3E5CA91C876A4117EB6072085
:1007C00048BF0A5EC87BA306101F18115C03E781AF
:1007D000220801CCFC6499D5DB0C769815B1FF7525
:1007E00075E6199FB578F44D30F8E90D029D19AE04
:1007F0005AF56D26E4ECDD672D194096E060ADD327
:10080000B08072EA706B7940FFCC10FA8009320236
:1008100026BED9B3D58109DFF96BB493F6D9440468
:10082000E46FEEBCA6E036244CF4E210D38B05193D
:1008300088249D29F61BFC31E002402610ED83063A
:10084000012D101131AE2644DB13CE422C6731024C
:10085000CE2F663DA5638B2F18E713208008B818AC
:10086000190033116631EBFEE04137D5F067F5181A
:1008700040779FA5C350F37A0B0FE22CF3EFBBCC6C
:10088000CFA5DB49BC6BFEF4557220061935F36029
:10089000FFBB28FC8081771DB7ECC54010DCE3412D
:1008A000356BC550E6AB69B4E4E0C342E020EFB578
:1008B00052F2E5F65E82817266D9FBCDBD98C1AC7D
:1008C000849FD5192090058069E3A5A6813BD311AB
:1008D000323CB39B6A1608D59304D784794B17F240
:1008E000FACC4C8009F498FED71134A49818C608A5
:1008F00002D381E884EF881001D1CF665E7E67FA6B
:100900004B04DFCD98786EF7DE280105A6302FD88E
:10091000FDF3E7CFDE221EBE37B533D0FCE5DF8C1A
:1009200030BEBF4D9FBF0878FCC0015CC40F801C67
:10093000EDC803187729E045E1F11E988AB0E0ED93
:10094000BF74CD98568E06BFA9D70F08B198E8FF9F
:100950002704CD268812827DEF6C42480172301444
:100960003D24FF7FF6218891807ED149BDFB522D29
:100970007357EF11B7F9824C733012F986807FE517
:100980001001021904A303428C76B2CD10C49A5709
:10099000F90803E84CEF52E540664623FC788D9752
:1009A000FE7F07142180CE452877FD60ECDFF5F04F
:1009B000E3E25302772D30307DB8E4D9010CE466D0
:1009C00099B405F3785FD17FF0AB35C60A62CF30BA
:1009D000E8FE8481AF303B88903062A80C3EECB5D5
:1009E000C8CAF5FB231144660679E0BF5E3AFF7E74
:1009F000F39629FF19A00B16C4FD84980413608197
:100A00003E19300246C24097D36173301011623AEA
:100A100063B416CD7B10A81917B5190C81ED98A8F1
:100A2000F967C80A20AE124630034CA08904B8E02A
:100A3000F37DFE022004889FC0302D04B51368B5F5
:100A400001F198BC895108AC429C9B01DCFB56FC2F
:100A50004B4DDD8801B92FE0EAD9E618BD912E99FA
:100A600036F65FC701FFDF0870FE602B26A2DBDED3
:100A7000068EA5489307781835F9BF02E6D93808DD
:100A8000FAAF2EFCFD7FC8B39906A226FD0C42B436
:100A9000A204280D70FBD9D5DC16C275BB017AC142
:100AA000B01052F30218818CC8FE6730A040961037
:100AB000027E6FC81425EF1A030E2D19A0287CF6AC
:100AC0004BFE80496AA0FEB3994412F0588BD24A7B
:100AD000809CED0B624CF6821134227FDE32BA36F6
:100AE000DD83A4972F91185AE30C8109802A2DFAEF
:100AF000FC3DBBF19F3078400FE4414BF3F0F3C86D
:100B0000203B46813C12F4980343E0D02FD3481891
:100B100080250B308E19640EB9EBEFD8FAF7CF10A1
:100B2000FA4E035723EBB93020C822F3F2C531E661
:100B30002E97FE2BE59BAFDF7FCD302110FE98A4D2
:100B4000D9B3B0D753C1287C0B261E84300646C0CB
:100B5000051866C882EDD8E3028FA798468E581014
:100B60009603A9DDB147C6667B11BC98B830B3D5F2
:100B7000D05AE803098115F9BBDD014495BBE89C17
:100B8000888C435BAF24825E5B7B04F330516093BF
:100B900068D3C2055F32659BD491DAFF8AF9980D5C
:100BA00090BE08A783986ACABD60F408E1E8FBC05C
:100BB00003104DDC1CD0ABB420065BCB7F2C506403
:100BC0004372E1607EEEE81718D06E88DE1957D0C8
:100BD000A898727DB93048C1FE2481300634424263
:100BE000E5E341018041B1E814C442AB6C934C4F42
:100BF000DA981091FAD25AB608B2490108D33119DD
:100C0000862CB2C80FF88431486F01BC1804630DFC
:100C1000110C7FFB0210F8142018018B1042A182E6
:100C20005930FE98383A022489B50B45CB97BBFC66
:100C30007FA6521990119266F8F7ECEBC840062F88
:100C4000C8CDD590DE98AEC42C30D9BB3DFE9838C7
:100C5000E088030BDD78831820F9BB5D744BD371FA
:100C600092D321F2B515317F9F9897F564BB19C2D5
:100C70006662D9C89740EDFDA7FE982FE02FEC5192
:100C80009861D3746448FA5509EFA581409804C56A
:100C9000032041C082A2464663D3828C311CAF7BC5
:100CA0002F2B65981809E0056977E67F14D323BFD9
:100CB0009F81AC88CEC8FA5134810AF935E0AE087C
:100CC000B8EEF3ECF3BA080940F211D90510CAB234
:100CD00005401514DF9A08F47F273DD42418516489
:100CE000C8E0D30825EF84F8D12FEA7E9C223D7816
:100CF000C037FD0889E5C81A8FE5C8B919F9C85E7B
:100D000083597B77A57D42501AB1A0B4E07604C820
:100D1000839E78621E9828D4201DC4C0BD288119E6
:100D2000BE72F5C8C87FCC58F8E08009824026AE74
:100D3000220A3DB83D9FD716122002015C30890C73
:100D400085DA000A9BBB3511A840D691D97E29C609
:100D5000E701D7141AEF4582E530930F66B62004F9
:100D600044A6581C118CE76520C408D70343400AE9
:100D7000764BBBEF532A7F8B3216C00448E2212307
:100D800060AFD3BF0166025C4F66148090913D66F0
:100D900031FFE0AF2E3DC8F0982FCBC8BCB8B930BA
:100DA000E8CB010DAD5366CEABD3B98FD306E0C906
:100DB000F29813C6F3B38821192CDFC8C1CA3010CA
:100DC000CA8B2FF33B8BBA860C8835655AB350A576
:100DD000B348D3F951364460BF7F2DB13903844FF6
:100DE000B361FC801185A2260E40B86A250427B3A2
:100DF000A0F3C8409F58F362044C80ED811011BAF3
:100E000062DD11349C80B3109007AEB345F87F5F6C
:100E10009820230114908CF3780060FBAC6CFFDC0D
:100E2000B3C416E5087BEEF0FB7EEEF010F29BFB00
:100E30000A38F3CFEA6436FC00E0C804D3D1D3C843
:100E400080FEC2C3FF739E3F2764FFD8F9B028A875
:100E500066C582393DD3B0B1FDB3791A23E3B173CE
:100E6000F4FC6B6F19FBFD9B109FFB8E081823BAD7
:100E700073391C107BBB08F80A01E3BE70442D4F88
:100E8000443386CDB8C504D3B90AE777B10AD0F8A0
:100E900018217ECC24F7D3F8FB80791BA96BE617C9
:100EA000A9F324D96229130AE167721B50DD95FA70
:100EB00065FA6D80FFB7FC16F3A735F2646DCD6C53
:100EC000EC38F99FB787517802B8A1A98D16FF5B5E
:100ED00078E9E5EDD5E8FBFFC129B5070342F8BA8B
:100EE0003238DAEFB4A1F3D7093A91F60518F95A76
:100EF0004FED4B1C9FED638B6C806E31242EED4CBF
:100F0000F8FD8DA7D619023874677E8090D5C6206B
:100F10004D66FE40CB7B84FEB15EEC6E1320043642
:100F20007E1027D9FD40E8A0086288F6CD4FA302C5
:100F30004F1030FA7FA7E5011E044111FEC515CA06
:100F4000978068D20482F7C45119011B75F8DF2E0F
:100F50008621BF51406862F130FF6080AB207FE2A4
:100F60005258500B0AC00320E104280EE65406E252
:100F7000112E012811E167B4660B90EBE134040AED
:100F80009BE3889FA89482043060AD0A9EDAC65025
:100F9000D8FC79B4100E0A42FF98024D48A4888309
:100FA000B0FF22080410113046C4814018CB22053E
:100FB00010396681C06850E01A01A47F87A50FC070
:100FC000149002E28C1044D20438A42A642418AD90
:100FD000190820F7029A0C7DC4C3191340639F7649
:100FE00036E122BEE6B4402404C8087C68FAA4F1C5
:100FF0001210B87C0619C08209E4E8100821A8AFD5
:1010000059E0FE57B51035F8EB202FDADC15F83132
:10101000C44F960C8F2BC638771B7FB6D268F82A40
:10102000CB2CA668FF584996F2BB50F9248CC88097
:101030004D4C918EDC6132FF60F6FA98FAB298C896
:101040000253C67435CF2EE7B737FB59DAF9B8F932
:10105000E54B208D1823B7595B8B49059DED88FB27
:10106000028971FA8CF9EB8C3BE88070FD25BE207B
:101070006843635A679620436913AF29B909FC7026
:10108000B2FCCCE9DD58BC029120B28210CFFABA92
:10109000E3303F36DC24361179B2E63D7FF69FA07F
:1010A000F8528005F6B902103B08774B10659A2E6E
:1010B00066D1FDC4FEB2C6C8B6BBCC5B19021EE742
:1010C000B396901BE6D63BDDF820108BFD1D79987A
:1010D0009FF6F23DE648E6707A43F858B362FF8E19
:1010E00020C4558920F6CC7E984470FFD8D8FBB731
:1010F000EC4908306DB3D0FF8B46EDCED6A8043B4B
:10110000AB0D14146DE968FEFF718061BA2101D541
:1011100081096C662CB02337C83345FE7DFCB32EA5
:10112000BCAAC7FFD0046599DD4DAAB0F888F62A9D
:1011300001C2C31A7779A8FC202BC56493B546CEAB
:1011400097049080B293F3AB13FDB9888AF93C728F
:101150007DFBCD5A724008F6B9CC28DDDA04B2ED39
:10116000FE8CF44FD4F811AE62ADBE02481BF600FF
:10117000827A5421F62AFC28E5A581B26420D8CED3
:1011800058A29B64812046E86FEF7F08CAB365EAE6
:10119000D8F9BB2BF244EBD588EFE9200FE5558158
:1011A00036F742407F517CE4B870A1CEFBBC64FFAF
:1011B00005BDFCCF6040BA1536805C79DD4851FC36
:1011C00074200C68943150A60338680E0726CE6E42
:1011D00019800C497438F8AB98282CA030D43040D2
:1011E00002260A9D2AED05C5F9CEA0099E42C52416
:1011F000982EC3500C7CB6020152C4C1AF10013D01
:101200006388A920509FCED0E4068979B46403088E
:10121000B787200139D6191AD4E19828228B143DBA
:10122000530630FCCA4E816807048206C23D162A66
:10123000E777AD25087D98FB78E635F8F4416F191E
:10124000ED5121E31CA29E0233EFCBB8FBA8022094
:101250004F51F344271BD0FA0E0865B31068FFB452
:1012600066ACC780A3651CD3007EEDABECFB4BC521
:10127000EDBFFF500228F03D58004DB7D79F69EBF6
:101280004B208FC9393EEA246AE162DD5DB1048EEC
:101290009D0A7B78F99E34B68033DAB899C7F72374
:1012A00070D9FF082A7620EB1F7295FBB7102FB17B
:1012B0003376FE15DDCF48B3FCB94108639C7EB29E
:1012C000800CF7F62C48FA58EAA76ECE0133189630
:1012D00031205A8920CDDEB4D0FEDCDBCE6CAA04EE
:1012E00002C3843BF0B5011E875D9D6EE3B7F93301
:1012F00042D68440865B7163E6EC29B6C99E986746
:10130000F94CE6D21664B1D73790ED7F42CC7E34EB
:10131000D30F76C138FBCA303E9356640252F310A5
:10132000D4C6339077FB38881481C6195881BB72B4
:10133000812811D6EE523C41F380C53DDDA05F1DF2
:10134000DF1242FE7F50041097B31AFF28A0055FFA
:101350009BA6FDA3200666FB187060D16606AE0250
:1013600037BC3159FF148DC6FC78800A285C193CC3
:10137000AABD1C05E2A5418EF0C341AF0F627CE11E
:10138000B90C191E0203FFDC492C1EBC1819E638E3
:1013900038FC1610816E490102538F6DECD110CDCF
:1013A000D1231A4C8C766A10150330A981281CEFC2
:1013B00070B333C95132FAC0660F280226497B093F
:1013C00019F78020900578B708985E9060010CC4EA
:1013D000DAB33001DFEC58040B4E4482892890BF09
:1013E000041F9DE880857FB1FFE002241A3B98E747
:1013F000C943E08149503439F1C4035810589FFA69
:101400002A3C88016719C003FB0F6029C6A380949A
:10141000066063A4E019B8E5664128B6B7B70E8840
:1014200041FDA636A9602026666BF28C299D1984A1
:101430000129B9EE127CFCFF14107D422213192001
:10144000084477F47510C896F68B60020D29EC906D
:101450001240CCD398DB0190B3C09FA4F6794A190F
:1014600029425AFDD709049D98F88348A080BE6997
:10147000124A3841D3FEB41106D9BE246CB635CF1A
:1014800086E298D3FF73981004901C2472F321BD58
:1014900098343CBFF98081B76D3F19E550F09FD675
:1014A00056CE0D068030C92F26B707139180E6600F
:1014B00099FDBD2CAA69A1FBCBF197CF34FD007F2C
:1014C00072013C67762164D3C09837F198B37FDD11
:1014D00033F47FB3C0FB28BD90E111EB2361042DF1
:1014E0000B7B822173ED513462DF7FBF10D09844B3
:1014F00053B302580A0B57948E98B331F80584DE23
:101500009859A2E59020017EDD45F7C228180526EE
:101510002588FA0ACEEFBE01B4207F6B98233CF1F8
:101520008409290F46042898F71013610178983E22
:1015300051FA60D7D098C0F078202760EE8007AFCE
:10154000F002B8BDB8E0B381FE3077E83D807A980C
:10155000505FCEE398D33029F3C640261983101488
:10156000FFBF74CE98F4A510BB5AF4C3C2F3A58292
:10157000668071C49E667FCBF9E099468201C62ED3
:101580001A5AC66135E678FFDBC111BD9805C2A3C2
:1015900060379691125CE0097AF80D800533D5D456
:1015A000B312EB7FE6F98CE011B3E3884AF06027D1
:1015B000E6A798FC10E50406810679782E7980EA82
:1015C00001F4E842C79304769963CF662001068050
:1015D00012C4BD9809B804A61D10FCE1C803083761
:1015E000A24434BBF86D967830E3E741CDE5B10312
:1015F0000D3766CAFF59E5107B1DBF036899FDBF13
:101600007F2C2B7E8F303CEABEEFCB2603D11357C5
:10161000B181AB4BF2F7C803FD7275BDA9C9EEC627
:1016200090FB0CBD98A201FC302EBF529DA610412C
:101630005F46BB94223FF4CC30BBC30881950A5D62
:10164000DBBE1499EC580866BD14D38AFDFA8431C8
:1016500028021617ECFB8D848C018B685EEF100856
:101660006014C93738F7908510B01966C74023BE9B
:10167000F01D447D8B7C89FC8361248C8049FAF0C9
:1016800060F9E001F59802FEE25EC52BC1C1C5E03C
:1016900016C0C67A5BD3B30CBA5C66D33563F22D41
:1016A0001E71C6C7F3F7001ED072C6C4BA840EFE00
:1016B0008412F3985F2EFD2FAA09E540A318B6FC0B
:1016C000F8CF5D6641FDD4800871AB2FE0813666AE
:1016D00040D330D789FB376A2143BBD6600A0CBDA3
:1016E00098160E02B8039EE0A0912021CDEE17843B
:1016F00011BF0EC21A90FFA32AC65C91353CE78445
:10170000B304B881FF050F81C6CE1028EE030CB8D4
:10171000B9B3C81649E24885771976FD173BED0441
:1017200080F9300A24FBC80F241040142298341B7F
:1017300090F144F8305BE371AAF9C8B620E3227E49
:101740005943021E9967663180F39BDDF8F8FF402C
:101750007898AFC0B987B3E05FEC2F50EB81286F6A
:10176000DF72D3E8E3DF95300F968ABFA9BC1184FE
:101770006663F9AB90EE756A984203BD2101111FB3
:101780009EC530F48D4C671266C309EF878C117EBD
:10179000EDC0140F3EF16B39EE1273F9E430464997
:1017A00088F21C88F603B3C8C0068073E26212C6D2
:1017B00009DB02227DD4ABF88205BC31F40A15A204
:1017C00091CB9026F3C9605C30FB45300429FCB90D
:1017D0003007AE70016A196B9AC8F4E0C774780CD0
:1017E000621978EFC50104E230F398955D2CE56B42
:1017F000ECD5037A86AEBD9838A7FDA0200680B44C
:1018000040FDDC88DFFC5C7D372860AD1910BE939D
:10181000DC19D720C8351A6654203519F698D1FE40
:1018200002EFE1464808D718028198DAA04567C858
:10183000099172E005CFFE7F8681BE62B930017EDC
:10184000CADBC525FE5C43E3B3EF10AFFC14C57ED5
:101850009E2BEDCBCE6236AE8C8849F303D7801138
:101860002B341965E0043B28B348BD660E84F306AB
:101870005FC29CC80DA0ACF1B62EFBA1F9AA02680C
:10188000CD464667ACA7A0D3197E4DFD06F618BB22
:10189000E610FE5FB97154703DACFCBFD5CB55D797
:1018A0008B107A8B08DBC0ECB54DAB42E3082E20E1
:1018B0001C6E930A403DB377195E8B4FC9E8FB88D5
:1018C000298190465C6ADC4003A05F0CAFA25DC436
:1018D00048E0C516DA64AD5E8454B32254BB408B35
:1018E00003F5CB05EFA5040610448A409AD38D0476
:1018F00060E34AFD57509398F511205C30DD21904C
:10190000E99828E09408D1A61A40CDFE7FA8895016
:101910008074BBE9DA9880457CDBC2189810607E41
:101920000440082F30203895FC26E598CBD4C0859C
:1019300053F32B1EF1C5988367F5810C2C66BF9776
:10194000D4EDF898DDE048E398F33C8B88307E7E58
:101950008E100F20403C7BE2FC84414CB5C8E23045
:10196000FD1EC06501B7185DB1FFDE9844E05A7EE8
:10197000578E93F2EEE1FE313310B42602C0773475
:1019800030A01105A1C1D4F3BB24BBDE84043BD23B
:101990004A301E3BC5B3ED13B3F90819EB021362CD
:1019A0002BBB9830B0FD56099E982B29EED8F5A791
:1019B000267D4B2EF301CDC8129E6D5C308D1058E4
:1019C000AF50B521F198D54ED31401209B9058FC0F
:1019D000B93006648184771F70C5F9F688C6EA5E5F
:1019E00068258226DDD3C06D95C8ECE5C0FC6D018D
:1019F0002CE1C8DCC0A144F65044F39128FDEECFA1
:101A00002F66F7D9C4401E7E670BFF5D98E0ED415D
:101A10004110FD2AE130FCA04C90C308875D23975C
:101A200001C4EECE1084AFF30781B66BF6D541B298
:101A3000758C7A98518F35F598D0304C0820E12C70
:101A40004050EB12EAFBBA0402260ACCE023D58808
:101A5000E8DBC80BBAD160020452333DB3304D4FBE
:101A6000841865E4DF324A87D0FFEE1361442B040B
:101A7000FF7F38FE6080242E635FBD03F51C9FC886
:101A8000F04016C4DD0358E8E20D8CDD3F62F53C02
:101A9000F2C6309E98CA3D88F3E335B2C860590C4F
:101AA000D7D05A17FA9883FF3BD2EDAC44F3C9DA8A
:101AB000FD02F66C01C92EAB17D94E9D66B7E66ED6
:101AC00049611D0C0D4C23F923324098DB98B1037A
:101AD0000BF9B3C84699C4F3205CAC118BC8A26D56
:101AE000F6D8E55EE998C0626BE998B0417FFD32B7
:101AF00060014C883719D8FE67C84692AC10D7C829
:101B00006CE8FB090F87E1A604248C4002CBDE556C
:101B10002301BE63C6A075041018F580E298E9DFC2
:101B2000CBADC0981B7CFABC98ED2E253C30EABCAE
:101B300098DF923010E6D5B30265EE8C18C9F869CB
:101B40006C8D6B8FC8FBCB984BFCF2460312BA37F7
:101B5000F59B04DC301432F6DBF63A44EB192C9694
:101B6000C61CFE9847099F9ECE5BD0FDA412E730AD
:101B700008444818DD0602C430A85F9D770D30B3D5
:101B800010B7ED3A0AFA5DBD31125E9847F6F99842
:101B90001DA0D560FB352897190478983C8898C615
:101BA000D960EE8C2890F2DB574B6007BEEC09320F
:101BB00001FE4AD318973F9478968049C872530D16
:101BC000D2122077B5F8F0FCE798E6C8C42D7AFC6D
:101BD000305E980306C87739A7E4010C8D673FFF94
:101BE0002C88013240068048D39630108A1978F24A
:101BF000986BF950F9DF981006C4201849A040B638
:101C00006BE79898659F17306D04C24D058FE03FD4
:101C1000D3F479FCE0F80207C0049C6BFE2B80A48F
:101C20000901BC98B2C8B9308CEC8481B0F166DB94
:101C3000924126AF8F19F2985EE044B3BB2CFF7F30
:101C400058FF208824FA8146040292CCC82197EFDD
:101C5000527670424FF3D48C880967F130FA0AFD4E
:101C6000900801491302FC300F40C437C5091D021A
:101C7000DD6D64FA176616309BEF65D564B30775A2
:101C8000F12C4601ECB92E560665F220C0D7DA9841
:101C90000840FD32F808AA20CEF598501CA4D3BB0A
:101CA0002433BB18D0E046576ECAE4EE529DE09054
:101CB000036FF60BED41E0A2940EBC040630FE1259
:101CC000F6F102187EAA5003082240F2666E7941AE
:101CD00003E66C1102CF3B66D9969222E8B8123E19
:101CE000EF4998D0FA197653C8F123FA3CF6280246
:101CF00016C1E6983BCF112C80CA7CC22218016025
:101D00007C420CB69AEAB9E3DA7EFC170926C002D7
:101D100041BF96C69846C6F7516004817EFF8FFA90
:101D2000E0402CA003FC32801EC0003AC043687F14
:101D3000B79816C478C59B192C0546BB9002D9B339
:101D40003C3526F4E078DA7898F2D3304006EBB3ED
:101D5000C8E841E226FBA728FF23A56C4D8036DBAF
:101D6000DE9884013090D7B61758ABB30CF4BCBCE6
:101D70006BDF923002CAF5D3823FE6F1FA80402051
:101D800004F742C210487E9980EE4E3086B3980424
:101D90009EE02D8009915A189A6E92B3F1129BE041
:101DA0001A025CDDC80AA5CBB56C97C8727DFBCF63
:101DB000CB562B6C55BD3115F6FF60FBB88FFE3F3F
:101DC000D7207BB633F30DB5D4F722E071F8E6D314
:101DD00059C619F3C66669598A11E9BE8A3BE710EC
:101DE000FF2853A0133393FA66C6DBD390FF4393C7
:101DF00015FDCC069CB2B108753930727DFFCD3728
:101E0000EC3173631D6FB7CC16ED66CCC6B8FB47DB
:101E1000995E1F8A6C447E998DE2B3EDDBEDCC4D6B
:101E200024C9A42CA8B1F89FB1F91366173DD36655
:101E3000F966FEF202C47FDD406518ED999DE3B2BC
:101E40004DF965FEA803D4AFC63D55806ED967979E
:101E5000FFD932073F198A3C8BB5115AC41018A814
:101E6000AFEC37409799B0F8086599E585DFB6CCB7
:101E700086F052B604C93FD8ED45DBF031FD18FDC0
:101E8000F104B95A908265F96DE0DE6D02DBD1A8EC
:101E9000FC143346FAACD36C15A3DF75A882B0E509
:101EA00049FDE56CEA5FCEB808FBB4A2C5FA68F557
:101EB00059406D7E04CA49F304F85A586A66DAC874
:101EC000FF9A939CDB46B1418E9FC8DE1108022128
:101ED0004BD40145F288B7F40A048479C048F883EA
:101EE0008505C6A00231DF60BC4A060C2863D89481
:101EF000A542AE0936DD03107E4CCBD4B00F1440A2
:101F000002C8A40AE584FFD5B0A1A02254808ABBF0
:101F1000027C510C0868F0195429AA7F802410060D
:101F20004120E90BA84842A2989A0A4703FE4C18A0
:101F30000121310CCE1FB26AD4904078F3011523F1
:101F40004573144F366E012638C06D16274FF508BD
:101F500059DAF8FBF5907EF908F346CD3E406DB1B5
:101F60003ED10920BBFF3500ACC9C7EF086DDCF9D5
:101F7000D8FA52FBFF49AF02E7416DF362D72288DE
:101F80004076CE090877A80040D58B83AD71F5E483
:101F9000046FFC53F9FA06192CFF88EEBF92DBEFB1
:101FA00038FF9B48021017E10A7A6A0E67FA760238
:101FB000C435AFF867762C80CE5BD9409EA9A76464
:101FC000ACD020D49BE0B766F34A3F768C80516A50
:101FD0008B19463E22DBB0FF9ED197B4014DF1181C
:101FE0009E20725C84C4F44FB6F03D049BA7CCB62F
:101FF000C370F8CBC040378CEAFFD8CA30B75B3C1F
:10200000BAADF8FC80370136B831E553201D6D09B3
:1020100068FB8C992231C9DCEB4FC8FACD303EF811
:1020200083EFD9807B6277996EBF135D2D79088924
:10203000E9F77517C2A9DECB58CB30A1569BE6E66F
:102040007FF6A9D8F9DF7F6EDFB1044D59AB01DE11
:10205000C74BE78837D64BFA299B07801BFDD10475
:102060008A6B0B20F9633B4DB14063B87FB3A83D49
:10207000CA90B2F8B2B6C283FF13E66450FBE3E73E
:102080000D4CFFEEEC79D0FFEDB068E5FF10BCFD24
:10209000A0CFFBB20CFD3D28B3FCBC36CF59F340BA
:1020A000FFD9B180561188FFC44D7F72F8C30DDC93
:1020B00080FAC2615F5977FF06B60451F058B385C4
:1020C0006BB50116DA286BF788FECC94CF585C010B
:1020D000AED84B89E996615CFE6819672C61408334
:1020E00038378CC65867F519F8BF007FB380CD31FB
:1020F000CCAEEED848089FB5CB30FD9780B7F3083B
:102100008081837B7410807ACB21CF52B740DC4230
:102110006BDB046B19322A20F3CA4742FC76515B11
:1021200079641B5642454843FC9B02E7053C345EFC
:10213000DBC7DC4080F60E202375900238DAE8FE1B
:10214000E01B09E6929D18F867F084DD06A039DBF4
:102150000458F3FB400160A80DD2D910E1F2070149
:1021600090B3811403E626200C93121F8315059A61
:102170000D791453BB56DB08408160B0FCF8C00EEB
:10218000A030805364079C16451A94196094FE4150
:102190008110045528094DACEB5099F345A9333F04
:1021A00068402A17F02881D11C8F04653F11958B58
:1021B000400B0FFF86E010188138000EED50FF80B5
:1021C000C80AD4F5F3420B3D7927D6DB407F9074E3
:1021D00019B58FCA975146220DCA19FB3DFBC002A3
:1021E00041C55AA8D008C08CA647E837E888DCE08B
:1021F000FF9DCDFB02821079864153EED8F871C263
:10220000EB9B02207E8CF35F8FB8323DBCEAF1F38A
:10221000584EFBBCFD20D3412F36F1A3706E34B075
:1022200002A3AF146CC0A0F8FF2364F1CCE54819F9
:102230006BD080ECB0DEB8FC8D1B9B7778FA8D7D7F
:10224000FB058079167DF50BEBED3BB6CD1066599D
:10225000FEFD03ECE0FF482BD3B473C213D5AFFEF1
:10226000FC2A2CE14F689717F34BCBE9CF675B054E
:10227000010B57E7377BBBA0FB73E675614086DA3D
:10228000F8BC1066DDBA30657DA788FAE4C0F3CCEF
:10229000166CA459F9AD5EEB0A32649BEE9BD29E9C
:1022A000499EB244C37E3B8FD850F5FBCE54EE64BA
:1022B0002F7912FAD1F31A15DDE780A99F75FEAFC9
:1022C00011FFEFEDE0D8FD8969787DC099FBC10170
:1022D0002862C5F39A98A3FCC539DC0163FEE62D9C
:1022E0006A405134345C60CE58FED788AD55101723
:1022F0007B417D7F34F312437A9409D440677A128C
:1023000001851AFB762A418F565FB41AE40CE60762
:1023100090F8799DCBA60364CEC4B0DA93297BB53F
:10232000066DF2E7D29685FA85A8FA0A035E766012
:102330004D9420847B4BAE3816EBE6FDDD60681CC7
:10234000B918FB0F7BA3FA207FD2783013E35DC16D
:10235000D673080153F5840588A863909AB6F2579E
:1023600039EB3CA055DD86FED6102302F2E6EDFEE9
:1023700080340342047DAF43EBFB8445F0CCC4566C
:10238000F9E7600228DDB334FBF3843DFD4601022A
:10239000FD7F37DC45ABB3184B53D45E0955D0F9FC
:1023A000E0EA58F0A8198D901FF3200ED003180E04
:1023B000076CF03CE5B460CCE03020A0D3E06E5177
:1023C000D307320DC6B560328828FFE3D7F7FC8308
:1023D0001287F30665F310F318598E5C3ED37F170E
:1023E00058D19FF3AFD27FB30A56F26E7BFE73EDE6
:1023F00014D424FB0B21FD22F37346849820E08241
:1024000072E210CE6BB31101747F08D30A141E2040
:102410002802EAB52119861719250FFE7974B242F0
:10242000B325033475B001E0EB908882E39ADC8138
:10243000C266F666A49DE0209142BAEE91FF149820
:10244000F3EAFB840402E4FDFBA3847A5320D13930
:10245000445FAE46AC576D700C56F886FADA67FDED
:1024600066DA15D3FF40D601C079DCE2C1B0BFCC3B
:10247000C4027022FBE93D660470E066FD85A10C94
:10248000CD2329EB09E04EFB30F82848DEE2D78463
:10249000266641D845E2B1E29E31636EF75E168151
:1024A000887D28CE95B02006BA210753604138AF09
:1024B0002810FAE3F8F6980240E7692320210B81FF
:1024C000114C20C210FBD21369228C124EB630D6AA
:1024D0001040F54D11C557E528F97F905DE30A20BE
:1024E0004909F9F8FBE0010CA0B7F276B119BD98E3
:1024F00081778098F006D00378EC07FF3400EE91E6
:102500000772E51878CDF13CA0FE9849D309E69E04
:102510001C06FE8401489253091942249FB673F3A6
:10252000405D4D210C580CAB190681B980A9107281
:102530005808D3C698F30AE6F329FCBD2E12D346F9
:10254000C2461360E9088C844386F2C0481001E05B
:102550002D4C9FE64B8B2716D719603B483401164C
:10256000BD988B27D3F28110E70278F86B34801482
:10257000BF54F84D41222EF598047A7A48EE33691B
:10258000D71720EE4A8285D23A0DCFF0C078980D49
:102590002308751B7B3168F94560CB30408D93571C
:1025A000C34436D96220596F95E6985E9E8F19BF55
:1025B00001BE771040FE60E5D432FFA237BC42E492
:1025C00085CDA6C860200B85E063B32CC08486232C
:1025D00032D0B910014A1980F7110BE0413BD0B855
:1025E000F98DD8507A081E3997C0D2F8B8644C6675
:1025F000EA630A8BD2B99618092D900426BA868010
:10260000266BA94203FFCC8005B02008D6FA84F6D9
:102610000722C09B5734ED11D3AD886E6313410878
:102620007C0337A6FE5501BF32028298679314E2FD
:102630000934DF0246C330F30A30C6843F70F8E045
:10264000013CA016F487C5931003DFE881CA300669
:10265000F2C5E39A10E430640770305B06FC987CA6
:10266000263C9007019A4A3619F198F3E81030FB9E
:10267000E3DB6B2C6DBFB83040467119B26E12CBE4
:10268000C9C0736FA4D2A978C6D26640D3F8EF5EF2
:1026900098A4B35EF07F3030C024742003395F18F3
:1026A0005FD4666527DC3D0F1418AF05AEC11B3043
:1026B00019A0C6A6D304669834E6F94879EDB7D2D6
:1026C0007F5D2804DE012088D18840C3DC3067E6C6
:1026D0003E3080BA57D04A3328F19B9C730F90400C
:1026E000BBA382304526D7ECFEC0416AD22F22160A
:1026F00076D686FAF97B6EF837C7416D1C95D5A45E
:10270000F163DAF0301EF0FD4047D65E4C25AC2672
:10271000AFE8E8802A8BC1F67F0877ADE580FC4BF7
:10272000B4AFD7D04B1417AE930B686480FDEB8128
:102730002F277641248029F0DE4059CE46B8576DC8
:10274000B10897B3853E66249802082A2AF3E5D596
:102750000A0AFCCC44049DBE6DABF972300ABED0AF
:10276000ED14DCE1BA59C88A28EECE370CBE30220F
:10277000CEDD6309CCB304186E106282EFB950004D
:102780008C832060CC110AF6905BE1BD988069CA09
:10279000304AF5EF802036B04D06B878979BC80ACE
:1027A00055F8E1002E5E98BFC0C698C68802E2BA0E
:1027B000CABBF798803C10D748FE82E529E30103A5
:1027C00077DFFAEB9820FDB80C46C97E9FC99E9B27
:1027D000801808EF3C98C6EDEE1F0362C9C8D3CC41
:1027E00091FAEDA02D46827FE2A3203B130244BD67
:1027F000980880188BD38C30F5B382A7FD325880AF
:10280000226476B145B6A9EEE39E226010C07CB08A
:102810002030F9ADECBB297D05212A81A3C2D882E5
:102820007F9D16E0981AFE7D22D7F03128753491ED
:10283000FE02024008E0471505E498179513F4F3EB
:1028400072D5D0B7F9FB0652D03F86CFA8D9CF8A30
:1028500066FC32B52632D7B927037FCEFFEE88FF5C
:10286000FE533021BD81606AD95F7F6BE8980C4DC3
:102870005766C29DFADB442193AD18E21942CE0C93
:1028800006060297EB03F8F5DA8F487330D0140987
:102890007ADF42D72550D5AFB798340299A1095EA7
:1028A00009F68E426BEC40959D44EE5A300126B3FA
:1028B000C840F90360210420D3F141AAFE841147E6
:1028C000C038E442B77A05FFC3D2049A5F32CD2202
:1028D0004C99B0B6ED6742FB5B303F398128180355
:1028E00010BB616FE3D46240F5AB60800A9FC311F7
:1028F00040FAE02B8BCB9879A0024826DDE841C155
:10290000306B1EC3983BC09859019B123AD31C9060
:10291000FBC9BD98104BF30D96E81E9C3026D3845E
:10292000F9FED791C2979C1DCDB709E5C8BF9C9809
:102930001965FD900B66F4BC98F5F320B71F239A38
:10294000C891DAE3FD7FD0271952E68C04BF803BA3
:10295000C88208FC986CE842D7B3804998BB40FE17
:102960007F0111040A6F1981FA55E4236081F1880F
:102970003BF398F9B50F10BB12960C299E5ABF462F
:10298000977648F23021CDF74BA00134BB818B30D4
:102990004FAAE3494F229868F8721A102437193861
:1029A000838B851961C746F9989A197F5FBECB3032
:1029B000034E061DCBCEA660FF5FD8F4D1E0AD611B
:1029C000B7BE5DC840E99838F867E72C90015D64B0
:1029D000185B10F443E1191F49AC0BC99E0CCCFBEA
:1029E00080489A71D044F7BC4022012253D1801D07
:1029F000DD64BB82FBB40A09556E04BEBA1481269D
:102A0000C16FDE0308EBBEB8A0BFBA689F243221B5
:102A1000B0208B85FF317752BFE413BD98205E98BC
:102A2000C71682D71804ABC24CD64B227A6730B88F
:102A3000100618031D603B94503002936605C322B4
:102A4000980AA6845CB1FBE047F9A571307A9864D6
:102A5000BD980781701E09DE98B308F2C8BF1C1C20
:102A6000DDA00793A8E040772D30903D98793F296D
:102A7000E0813C10C8B5FCE23DFBCC6F2F98BFEC69
:102A8000CC98BD321C3E7FEF2DF2BCB9F3E1EC399E
:102A900049F30AF3FD310829FEC0407AF2D296D3F9
:102AA00043DE985B415E98157B983410B50536BBC4
:102AB00067B3499093C188CB18613C92F334F3EE2D
:102AC000F264436010C73434D6DCFD9FABB93540A7
:102AD000A7CB828188B923449E42860A20811B119C
:102AE000FC3409E4CA4098E14B63B8F76E9581FE67
:102AF000CC5122843BB9E53B68FEE711B515A02B0C
:102B0000BFA8C5E046A22590D5BB626DCB30815EE3
:102B10005A10039BA39C992CDD28F8C0A82D243FB4
:102B2000A20878B78BD38447D3E4C84667F4CC05B2
:102B3000017B9A822310EAFCF84F8BC91EB9035E11
:102B4000985FE534B3FAF23A97D002F000F582C408
:102B50001E8ACCC184AC03BBA0CC98E71981093292
:102B60008F1040CF88987F64024C4D692116CE3675
:102B70000A6C249EBC3441F8F90A65812001FB11DE
:102B8000B35F2BC122E7259401049D8CB23040AA8B
:102B9000BB06DB7596899393E002930393AC84970D
:102BA00011DA7F7F0803EB04420A3EFF1050FB60FE
:102BB0001E0CA0FF0C98EE573040E00FF44E0EF3C1
:102BC0001810EE33309066E0166B9B74C1A5C37984
:102BD000AE0F5F3088ED980378799830D370FD2B75
:102BE00001A5FD93AFDFB292E8018C574F26C8E0F4
:102BF0003051E59664D595E0A9E6FB9E8BDD100A81
:102C0000E08BA1FC4205EE1214D1CC4A213D2804F0
:102C10007F4125C4E6081801A682C4B2C87F3532B8
:102C2000018240049B0311601B0CA437B312F83ED1
:102C3000E7A60204E6B208CA88FDC9F499020F5853
:102C4000402128F52280A801DA6010F45D63D80CD9
:102C5000818FF07FA00525A2C27E8C13D7C8F0B368
:102C600027402202D34408290688B4F9CAEAFDDCC9
:102C7000030A1D53F8620D7850DF2DB7F84888C756
:102C800053FE16306AFAE6B808A9E78888FA405F6A
:102C9000E34A101EE62B4002FD883CBF7A0310B7C2
:102CA000A332B35BAB4108C5C5970BB4D9F830BCB0
:102CB000986E540BEF34A8FB20689E831AA35FA183
:102CC00028B3DC9D6D490320655E69CF9A66AC88A8
:102CD000CCB580BC9BADE2BB5639D51601C6E044ED
:102CE00092602067A7F6FA80F109010220AB08B2D2
:102CF000BE22AAE0B33A048274C221240CF46C15FB
:102D0000B518EE908C0983CC4E448A0B611AD9E336
:102D1000E1496658C68F0C0AFE80493001D8F8E0B8
:102D2000250C67F58006EBC00238D498016359E89A
:102D3000B6D0CBC85E5ACA90A0ABE8DC0DE0C31E8B
:102D4000D0BB783BBB3D906F49980BF3D310BF6667
:102D50002EABEBD55E0530827E6EF510F59890AF08
:102D6000F6305802A566E76BF13D95C030E583D398
:102D70000E0AE699FD9EED1246D2488E2EE230F7FD
:102D80002D44C084DA802066C8B0DBD6E308AFB338
:102D900084053440E7020410C021627AB308861922
:102DA000F40BB8DD0410EDA6D8FAF201C4B841CE98
:102DB000DA9632ED56F00176E82BF9CF5FB5C53AD9
:102DC000C410F37EDAD69BF3AFFF083FFA8855E0D4
:102DD000F2EE3CB5F38DA89BD310FA12166EDE38D6
:102DE000FFB310CF5977F388FF249B731966A6F3BE
:102DF00079088DB1D3D8FB0BDE12FDCC40E6C43888
:102E00005F67FECCFFCCFBE76373153CB553FFA3B4
:102E1000ACB53FF5EE30C7301BBEFDB71BF37DAA46
:102E20008BFD1FA92498F34C1758FF46091FCCB5FA
:102E3000983319F8DEB86CC67F35027914AEAD1B35
:102E4000209BF5F0F82CD7CD16A68E3AFFB3043EA2
:102E50007CB6E3B815D88BD3EC7C6BE53BE4EB7820
:102E600002126D9780FACC9BB3387CB61C32D88C9A
:102E7000B2FFDA17C036F9B8FD9DC46C096E20B1F7
:102E8000803EDEEF8067BC10E2CC13CCE6EC4880DD
:102E9000F8FDB30638E3593A8670EBAB207FB37E7A
:102EA0004F2F6CE668FA8F86DA8E5D5E5B84810E4A
:102EB00004C4BF7F206CAE5A71A484A801AD90C039
:102EC0005A201034E7D960FD419D320801BC2BB473
:102ED0005AC57B13404EE7018120829BB52172B811
:102EE000C69212EBA666B0501905BF322070C360BF
:102EF000BF012C400EA0D486267CCB811070027AB4
:102F000030DB4A356780C00190873402E6035018F1
:102F1000CD4436A110EDC00F18FC1A20032C300C44
:102F20003F90FF8096C2025276748740B0D493C01F
:102F300062F524FD080647E014D265B79E669F211E
:102F40004B4C0B6C114F91089801B0877282F34182
:102F5000113C40C817C30C82FB700968FF8827EB3F
:102F60003D2F9B50CD02118856C5B9D3206FF36E0B
:102F700066447F4039D70428B75B78FEFD4ADEE11E
:102F80000DA9DF0DF261822CA62247C869E4ECA0EE
:102F90000B0FF004A880DB40FB6A773BFDB9FC1304
:102FA000EDB1409DE6B851410BB6AEF2ABCE58E460
:102FB000FBEF5982FAAEB110729FEA6433D9FAC3BB
:102FC000DF69B8DE60B30877D504414ED2FA10CF7E
:102FD000EEAA90FED1F841682D67B6221002AB83AD
:102FE0000975E8089C6C7A5140BB05F0B5FFE30E0B
:102FF00073E4F508046A72627E4AD202A0F70AF509
:103000004480C4B79C68CCD8E8FE9FE3F708B5318C
:103010002DCFA3B0DA2B40F05FFBF60E5FD8954FB3
:1030200099BF40BC65A5D4F066858BFF102C65CC9C
:103030006B4598FA8D78512540D1508CAD2208030C
:10304000483716AEEE6336FCF86670074623FB87FA
:1030500002619CDD6CEE41F758838EE1F96AA06352
:103060007F8F79831BAEFAC818D5A52C657BB42059
:1030700048B7F933BB36BB58D6CBA801085CA3715F
:10308000BB98E6D880F8BFD89760FFB098BBE53210
:10309000728C36E5D8FF576C7420796B2066716F9F
:1030A0009CD5B7FF4BC240E353DD3C0FC7321EDF58
:1030B000588610FB2C121AFF98FF3346D685016FF5
:1030C00091EBEE845F6AD910FCDB15679918FCC997
:1030D00079258973ADF8FE79AD96C0B1027FDF3FE7
:1030E00020E90944DF62247EE6B418CD7B121BF28E
:1030F000AF9502E31318FD3B149C3A7FB0F74048AC
:103100002F505CB308BF15698E1BE3AC77016BD6FB
:10311000E7C025FDFD5CFA95F6BF59C0D91A6719BD
:1031200011FFF7B201BF4868B7FA5BE30825C4088E
:1031300003AE6C97406B4850C9CB56F870B6150A71
:10314000408A7A8874BB042840E52B01E16EB24CBA
:10315000804BE411D36904C949D3807D0D652EDC11
:103160006AE9F8FC207A02476CFC7E44AB7EB3E34C
:103170000109FB4136EF0827C1FF2308DC02DBA66B
:10318000205B8180F33DD99EC0FDA5C001A68D3096
:10319000503EBB1240026478EDA001211F325B60FB
:1031A0001B00E5192C30D195F4D37621E1E705A079
:1031B000CB82523ED001830D453177EB34D804B831
:1031C0005D601A44B9C5BAFAD06020A04C4240F103
:1031D0002618B401FC1005624A8FA559CE601DB6B1
:1031E000B222CFF78844D801E0A04190622A42E1A0
:1031F0001114610C544F86B61802829F20192101C8
:103200000828DEF0F9898602918110D149200A80D0
:1032100023EFCCF3F2FF23DB8643F6FA201BFF6F8C
:103220002244F3C5C2E8F82DC48638FA828FED41F6
:10323000014019BEC219677D811BD833510411F6B4
:103240005072F742EF6C83FF1093D9B485C245FFEB
:10325000C088F0E1D809F99FEC50402ADB8F76A7AF
:1032600058FA96EA9028C2B0029B3B6C802446F440
:1032700060FDBA6EC8EDE404A9F81AE6ADF4208C3E
:10328000CA6998046BCD7DFD0A9FCD6801109E82AE
:103290006EBED80111B6D33F7EA8FD67F2DE01C62F
:1032A000F475BA95575285EDBF01EC08BE58B3F0DE
:1032B000AE63C808B558B880A9A989364388FF3BD2
:1032C000A73099B92B2584DB45400812D6EC30FB9A
:1032D000D5ED0146D3FFA7B318CDA6CDC8CFA9E33E
:1032E000E4339B6BA8FBFC19DD2E0262228FF0C633
:1032F000FDC8085DD168DDD8F0FED7AC70089363D7
:103300007377186CA658FD7FE5A84689FE1508F36B
:10331000DF2DB378AFFAA3AC5A4E66C40124F3A0F4
:103320000690186FF28AFD053489EE4B1086C3E1D2
:10333000446BE084F472D0F348F281F505CB11FDC3
:103340002496C9DBF58CB57CFF8DDB3A6709A0AE0E
:10335000800967FD7ABC3015062B5A4063D190F680
:10336000DE003EFDE0013008C494BC30DDDC0378B3
:10337000E05D760DC9EE60B31528712819B5C3D08C
:10338000EB489A044EDEE425110844E7FA0921AD22
:1033900020D83FB08AB5127D7340184803DC05027F
:1033A000A0E5191874ED99A9C1B0A7AFF8D3FC092D
:1033B000FC18013CA3804C88211A34660A519BC634
:1033C0000931629DE13CD1406002929367FBED2D93
:1033D000E8E90648A0D3D09AFCF52CF0DE5A1E107E
:1033E000F4550FE0710C8867708083014872393C96
:1033F000C419B73C20D3E8801EC0709A262C084917
:103400000C1EFB0CD303E4D380F9416ACEC3201811
:1034100086A0B6045FF3C613BB74B1301FDACF20A9
:103420009BD39EE0F3325240F32DFD2EED024FC0B0
:1034300011ED148C80FD0130420640481DF2A0675A
:103440002CB0FF3F043FE104582008629A24195130
:1034500020A6B367C6848038B230046BADFE3E99B7
:10346000ECBB34CBA537FA84FBC52D043662222190
:10347000E598BEA9881A40B8A9952D05AB5C88C30C
:10348000D3997904A9B2FE7B842079461EA9F3B2B0
:103490000C4DBD97F40629FCC4268166760940656B
:1034A0004E41FA681506DF99A67AED010CDFD9982E
:1034B00008C0F36ED064EC604A31FECC0242EF9D4E
:1034C0005FD007F0CBE950C6F312FF4BD8135DA5D0
:1034D000F0F828DFEA45D7ACE60421D8420987FC9A
:1034E0007F1242C008F5B3116044EA78B1F5E314E5
:1034F0006768688029F3B39AA5FF9541A0D8A1E039
:10350000668CC50640A25893F7DB850401623CDE59
:10351000A016EBA1666024D391070926C0D704400A
:10352000C37FF08C0810B07690FDC819C0141A70D3
:1035300035BD90F502E8C5483A0760F3AB10F7983F
:10354000A00330F94006C8017AF542E083690C0E09
:103550005110FF0F60403C0838FE0447C3B6D90342
:103560006057114866764410C4BB67C171607471BE
:103570009CB6BB06C225FB28604FE8B281FCE0F197
:10358000336ADC6111190E061AEA59015C88B10927
:103590002EF51A2223D0C96140263DD34930022896
:1035A0001918C5FCC17A229DFDCAB488A7A89968DC
:1035B000EABCB8B49A67F203CF8D10625E98FFB48C
:1035C0009046D802034020AF48EBB010B55C070826
:1035D0000B43E3840280CE05EF88F8DBE80D53CB84
:1035E000CA56F298312C2519C0FFF6791991AC8989
:1035F0008281F4BE18FD60A34BBB1E9AEC0F886E4F
:103600000E0631CAA2F19889B30CFECCF044EBD57A
:103610004441F29C60E4A91E6479D70F647D0AF8E6
:10362000FDA491A6EF27117D9004821020D07A5D31
:1036300023103B842813D1E92D90447DD2E10C372F
:103640000190104C33185138400BF3DA3497FF8A4D
:10365000046BB814B4510113A00C460589771713F5
:10366000512769C70111626F19084110128C40403F
:10367000C8D23242B3030F136024E72DA485C6D805
:10368000F95C4A32BD02DD4671EB100324C855D007
:10369000BC8BBD986446B07BFF1C88C00372F41ECF
:1036A000C0013A2626F3F0700716C0039479F3B9E7
:1036B000E82008FC73B68CFE3C6AC3EE1B23FA8339
:1036C00019F298DEE60403BFAF82BF8186EAC60323
:1036D000FF405731F8D8F88051A01482B3BB217550
:1036E000C690B249D3EE1DABE0248419F3EFFF98E6
:1036F000204262861007112144E44C8009ABC38646
:1037000082F9440360424C278BB0E087F9887F0739
:10371000326BAB1304F5FE41DD2349F6BC7E79C85C
:10372000A005B6D6F3D4041A612D22FF218011B56D
:1037300090125008FB9A44202C21F39BF8B2FBF91D
:103740009A026AF4E804022045CF3F67C4A5462BDD
:1037500018CBE589908F406436E250F89B33D74010
:103760001EDACCFA9802B4A22551725D4159D0F903
:10377000889120B09789E026E4CE6840F307F21ADA
:10378000E6467820F7A458F880BB8986CDF611B2BA
:10379000ED6BD9902E6207CC2800D6820599E2AC59
:1037A0006688107F0641424821D285283D0C1009C9
:1037B000167D9FFD575E98E60A4AFAC301ECBFC921
:1037C000F9328C8839AF094D2114EF51CB2CB13D22
:1037D00019119C32FCC042FFD30B62104802083022
:1037E000C18040902216330C41EA515E98ADF8AC8E
:1037F00090BFC8CB98EB1CCEEFCF4AC0015846A370
:103800007F48B1061E1C900170070EC8039E78B059
:1038100060401C6063B45E1ED377BA98B0F9803BF9
:10382000B32CF5AD1DC8668150FF92B3089F668129
:10383000302006C0AF4024A59684D7F31026231865
:10384000256003FD7E41E9F8A045F7D0EE04180994
:1038500065198401EE261908894096C6497FE7312B
:10386000C0000286F940088C202319932C93BC26B3
:10387000E6C02290A662EFFAD6B20818F8F3A5B80F
:103880004ADBCB9830C8D03F02410368812D8024A9
:10389000CFE630A08507C220D2FF049A40100C81E9
:1038A00001200F0480FF16D8005240014822D72182
:1038B00020C52BB3FA7D983069C42039460C27E225
:1038C0009861123526C9480C72C60174CF884063CE
:1038D00097FFCAF5A6B78A98E64A191640C94CC69A
:1038E000B33CCBB22FB5DCE702B6DFDEAA1CC0BA10
:1038F0005792750DBFB93080B520E5304127D90505
:10390000A4C822FE08010B2141048416340ACE63A8
:103910006608B270104284B1022185852C50EB30CC
:1039200041A2FF0509236242249110A8F322F8CC9A
:1039300030BB21373E207C7FB8734614142D0B61B9
:1039400073730931B302C91974C85E98C043401B30
:1039500008113338466D98AD609C568111301EF0C9
:10396000FBE0E24639BD0403BF2824C893F446387F
:103970002007E6B308FD980DD78005A098D07718EA
:10398000200F67C80310F9401EC08278D3806041C1
:10399000B9EFFB8041FD8C18C4C8A92B1AF500149F
:1039A000E0B82C0C4BD7980165C8DE985A8F2DF2E1
:1039B0003823E6D308849A2C69FCF5D241DC587789
:1039C000EF7F4CE1304B870913F93201869049D3E0
:1039D000673FB3903041166004FC08108100018CF1
:1039E000103C301243C2E7B348A3C68480FA098171
:1039F0001098FBFB6E4E5A2F1073308412AF1009D3
:103A00009868118A64C80FC214D202C00140F348FA
:103A1000042DB073A2CF1612EE510B28F2114924D7
:103A200010B925FCBF8B98945E07304048A06168B0
:103A30000CC4B22E6DE1C0345988E019F1F425456B
:103A40000C963AC9B31EDBFC60400F8881207004DD
:103A50005E980E4276A2C40122B05F6CAF82349DA4
:103A6000F078A68AC49BC68178BD7E0D0350F96CA0
:103A7000DACD11134280A6EBA284CB98B0E1A085E9
:103A8000624A662227B4B3210488F341B408425E37
:103A9000808B0248E4414084CA1D0BFC2EE020FECE
:103AA000320308B4AF6993203908871583AE605993
:103AB0007389DF327F960C67C801BD214237E085EC
:103AC00004F35904012BC651F219FEF7FEADCB5792
:103AD0006C0997980350BFF0DD984007E488F5B172
:103AE000379D077472C2381A1CE0F30314C3C6C4AE
:103AF000F212100762E65052B317BB66100301BC06
:103B000098E56640799875FE6D898817B3293DC29E
:103B1000F983BC20E0ED3BCFC98BC6013BE691FDAC
:103B200052DBDA767126900110CBB3B93020CB147A
:103B300084191275B30206409E992320080126EBD2
:103B4000342242DF4B051202804CCE8110A950FA7C
:103B50009708807D63B78F98FB901802C50120E617
:103B6000448028F321CE7DB410B59024123FD108B3
:103B700048044DA00910EBF7540238EA0A80F9888E
:103B8000052DC438F86D96D0FE98BB42CC38678DB1
:103B90003014CE10191CA3197B42E6CDE820B65292
:103BA000C8E162EE2F30C09FC4DD16D0F4BC576769
:103BB00009B3D979B50413B037D3A0156AFCD0B8CE
:103BC000302FC001383EEEFD8489B069CCC21D0A99
:103BD0000B22803CD484A0407A48FF0460040C96F9
:103BE000022B7EE749517824C8A740990208848BAC
:103BF0008232F80146800411795060BE31A934390F
:103C000028FA24B834931820AE825730813FD72643
:103C1000C04414001370875D31099C65952069D9F3
:103C20007B01860D72AA114A3221FEB8936001A36E
:103C3000F950300A38FB60C53D8090F0EC2F02CC83
:103C4000C838D7F3F4AD98833432CE1FB4ED1C8856
:103C500007F06BE898E81E3D900192B2C806781014
:103C600057D3B55198FFC530D49ED769E5989BE8E6
:103C7000C17E09301067FF7F31207F4317F4611048
:103C80000C8439BB064E2AEBD1FF45FFFDA0113055
:103C90004113D06A290BB8305619B4B2E0845C3CA9
:103CA000464C8849B3B4BFCC05F2180106C2943F14
:103CB000136004F044C020B031264849EEC6D32436
:103CC0008CE30A28AFFF5DF882F1211A66C8847D73
:103CD000FD90040241CE7A280885CEE964E3AFB4B2
:103CE000402D88C35110FB8480B01102B78B528BDA
:103CF0005049F50180A809AAE3FA6DDE0802B8E18F
:103D0000F553C2713079E88B7030076E560157D683
:103D1000DCF98D2DA03508815B525E4B5FCC96326D
:103D2000FAB9C8F520800784C230D2B20B033C191F
:103D300056DD653922D0C18A44DC810CDF981CD65F
:103D400042170F33A688FCE7A0F52042D048DE9149
:103D50000144807D3D329040C0DC3031F08C7648AB
:103D600090A6B2EFAA88811001FE40D0221A050960
:103D7000020F2D8010903021FC429204129FA25914
:103D80002130119080F8905626C2950155F57FDFBD
:103D9000D10A26C8185F327771A104309E0871F4E9
:103DA000B70D323946DFF1A423EE81F2DF2110484E
:103DB0002387174F829137D3B87030BBBDD7C50367
:103DC000E5C81DF3C230D1BF2F40963CC3A666AFF5
:103DD000ABE8011D90173240FF06C082381003E0A7
:103DE0008059C8AF7007983A9540F3CB0378F87DB7
:103DF000B85DDFC598F37130AEF6123080ADB350C8
:103E000002A919796B670E18085E21765DA8A9834F
:103E100018E9C26110A582F3983EB3B04016C028DD
:103E2000BECC8B199E101216410845B9AD01E07643
:103E30004030B2FE1956FF7F9B4212D8029A00FF13
:103E40005360224D90803411CD0642BD107A5E80C1
:103E50003F110121C0B8FA6366FF68B307F9F2FFAA
:103E6000707F9969BB2D77AF4B80CBD3BA25B6E372
:103E70008CD583F33CA3F3D35F351E16A898CDD31E
:103E8000A8FAA993864BFF0134490DFCA17384A6BF
:103E90006638D3C0ABFC66EACA06C3035E6EED8526
:103EA000F1FF971B409886E9CBE4E073681B673409
:103EB0004648FF5E6BF45F51679937FFD9634C1733
:103EC000B9F80669C2865FCC09A3D378FB661FD315
:103ED000A6103A18B83016B4C7CC20D7A0E8668F21
:103EE00072303E97D6E0042EE9D9C8FE04F4517E24
:103EF00045AD6346B566D7845E8778B44058F1FB1C
:103F00008A9D01C44CC9BF5B60011A0B9F79B492B2
:103F10007AB5FF33DCFE47C54F0BFD9103E9D09026
:103F2000FBDA4001FD57ED3168F892D7B3093BA5A4
:103F30000862A7B099C54B5E045FCB1A30197F5C4D
:103F400078128827EBFF2010002629E23D75DFD587
:103F50004B40F74E7C973A08D0CFBA048171D228F3
:103F6000FC40E310949EC049F704E548BF41A4E03B
:103F700044EF5B30627FC8B4223F6C80D1362D5B4A
:103F8000A10819C2CE05A0B480067FEB1B40012416
:103F9000850DE005C136780658000B67E285A567F8
:103FA0002E6440784EB4158C421E4031280E536B5F
:103FB000C6C00408F381211A6CA705F160FD2058E2
:103FC000BF068410180807CF6740FB8060201FE2FF
:103FD000C09805B209ABFB0A15C93D6629388C4269
:103FE000C11A30057F70C4814144570E1B9F32F5C2
:103FF000A22247A4F19744600EBBFE0A404FA19253
:1040000014C52D8F3F50446FA61D7F8D98E0111C65
:104010002BF6A5204882EADD11CC6B41EB5BA0F9C1
:10402000F2AA88DF21C0C78010769109E5C7BB7C62
:10403000B76623B1F0D1D0AFAF7D82FDD620FF703F
:1040400040FC3B0828F837ED4A0858B8C5DBFF03A9
:104050004037769508DD5CDFE0FAB6EF9C5F6C29AF
:1040600071148A7125BEA5B30446FE9065F713301E
:10407000FC64F3F0400947F865CC845AEA46B35231
:10408000D720E55AFB89F534EB900412241467120B
:104090004667DBBBB6FFC0FC6A3104C77ECEDC8F4F
:1040A000826EB65A2D0836F4E8F920B47EDEC6F8E2
:1040B000B1107D3FC4EC2AEE60EA70FDB6F3AA7F32
:1040C000AF5B38D7B7FF33B4FE8057E910D9AE00E5
:1040D000B50803D580E56BD61CC951F8C577182300
:1040E000BE419F6388E680ECA5F3F91FE3CB930400
:1040F000526A31F6FD5912487F145CEE683DDBF8D8
:10410000FE2FED60375700138C7D69B08068DA654B
:10411000FFF5A8F96798D7F2FF80C9DD3E90E6F970
:10412000CC7E88FA06172BFF028BF24C284551F8FB
:10413000B1F98D3141DD37585BB0C0AC4CFE60C881
:10414000C73E788C12D261DB491DF3F31ED54B12AA
:1041500089761741DD050866F5EF8FF50EBFF62667
:1041600070FF6F986EFF1ED19C6A5E019892B388B3
:104170004FB33763583308D9B079EF97C03136D091
:10418000FF4F6CA4107FAFAF2EC3BF63A84375C9A8
:1041900052C9027DFACFFB0F1D2F1D319B0F2C2121
:1041A000808A9B9FFF8029BB186117EC2F08CEDB0C
:1041B0009506B7F6B0FF7EBA08D558257186922CC1
:1041C000639EDE1175F3E6A3DFE0D8C8FDB1CA71C6
:1041D0004689F37F800862FADDD150FCCA9DEBA8C6
:1041E0009073F119F14BAC65AEC6016FE5FF20CBC2
:1041F0008DF62B23B41E65FB41F1C1F691CF89F2F8
:1042000082048F9164B84020F498FCD8816FFFB786
:104210001068FE29C4E88442E6E95A27AB88026B9D
:10422000846CCE48B268ED018FD340891EF702221C
:1042300080E0880901201BC8FD8160058B16744051
:104240009D3C0B6001242908A58D2206FC4B80496A
:10425000012BA0D9C720E81AA0F814026378980AA5
:10426000100C5F09850DA001FF34C084920013403B
:10427000043EF10515F0FE192A882E1EA8407FADD8
:10428000E057F4823520FE0F844018100277BB5CA3
:10429000421664CFFCCB30FF1F12401CF807C1222E
:1042A000F3089CC34670029C816F0490817D01CC11
:1042B000610026FB54076992606B2582A7DDBFC6AB
:1042C000032BD91A08E9912029E982272144242EB9
:1042D00047EDE5E72996FAF610BF8028D52C29503E
:1042E0009008AF840E811BCC9DFFB8CCD78BE0EB40
:1042F000A34D19FAF81980B981C2FC018C75C789E0
:10430000E9181B3C97E4DE313A2FF96BA734F8ED3E
:10431000AB919E10D9BC002CEB223796C85277FE89
:10432000F800DFBA12E4EDE85EC86FE6AF13AF51F4
:10433000086ED2C0FE37DF5A7C2298E14605B301F1
:1043400010A6063BD8FC0C12ED2980CBF38118CBCC
:104350007F3F57150532FBE0F8E23312E23DFB5197
:1043600013ED33417E9180FFE68810028E285123A1
:10437000F32E7814F2E1EBB116DDE8209455631AC0
:104380009BB711E90FC0B3F84880F1FE8F1D11A350
:1043900021F33D1B041EA077C603427FCE0908C04F
:1043A00004845DD3C842407BB721A5E1FEF79DBBE5
:1043B0001D811DDD8C0293A2AFF8C9E678E8FCC52B
:1043C000F33002D81020499E23320201D3FBDB7464
:1043D000F983333094C9F3CC5285D3BE3FF6FBFB4F
:1043E0006FACB9049557048FF84DB2DE94ADB8198F
:1043F000AE8491182B312008A289BB31BB123C5AE4
:1044000060A3083F8928003467A98490EDD0F308A1
:10441000014092F94D37FD26750FEA522109C6F089
:10442000BDFB770264F801B8F4A49D8E800130884A
:10443000F84B77AC4F03BF59B6600B661823AD9DA0
:10444000BB4EC0D80301AE6B723C692E2682491D5B
:1044500060A62F905A1A187FE828FB4BEA105E627C
:1044600044802C1C2620A0C6F219930347F328622F
:104470000EB484308505C0E441AF812988791A29BA
:10448000BD20F8425EE535F60AEE138008603BF584
:10449000B001AE46EB6761916062F68030067BB298
:1044A0001510AD26AFA32E749E7AB52226C0F63F16
:1044B0004180E571F025B30C53740CF99038100F5E
:1044C0000239F9900371401E1939040F60F3671324
:1044D000B5ED800780F05163CE26E01CF3F12BFC94
:1044E0001E4936F3587FDE7FF05A13AD0C9B3857C8
:1044F00044BF9F01A520F3319FE333ED089406D715
:10450000407A7C10397C6FE88220EEFC32A0B91230
:10451000F422E021044C1FB30942408081500B3E3D
:10452000062C1004308CCCDE1B95ED06947451C023
:104530008781B0462FBBF85B301740F85D43978208
:10454000F872AD6C162DA82F048016E9901842D58C
:1045500020F60D28043571B3FF44FC12421A409036
:1045600008292DF69EA66690041AE5EC0DCBE644CC
:1045700053195E975E46F04DB56CCBDA65E60CBE1E
:10458000DFB2D9F91877499102D84DBF8018BBDF47
:10459000C8FDB7402FB33F71D74B808AE0F3EB4D96
:1045A0003B9716047DD11019E574AB38FB07844C9A
:1045B0008EF78B70F92070E067B78F1420AFF84149
:1045C00010F0D77B0830113FAE19DE4C0299327FD4
:1045D000CB28A429308116C02D5FF966DBF8F8805E
:1045E000098110EF13EFB39A109CB0A3814204AD80
:1045F000FB228084853012DF9946C1029558ADEFC9
:104600006B0188208A1AC08FEECC7988FBFB99FE5B
:10461000E001FC98BD28795EC5AF8040B870951E5A
:104620007FE898E01B3C203BC598997B98201E832F
:10463000C478BB40CB78DD98200610DEB5B9601990
:10464000FB79B6E3A1F00C2BD5E29B35FB8B11EB8C
:1046500017D3D3C1960829D3F341AF3035E553D2F0
:1046600088E6D1FC3DE0901042FED4F34180080181
:10467000DA05F4A4C0449809FD212884293009886A
:10468000EF4C40C09F42495060828CFE8409B008C4
:1046900006C2025CCA1977F323E0FFF884EEA0108B
:1046A00001F985EBAF4D578B817F0D1A400328022E
:1046B0002D0571FD9FE998A4764F83408268208D77
:1046C0000D88433AD2120134C601A066D9D0F85AF7
:1046D000FF2FA2CDBB807494A3EAF716CF7A0810FF
:1046E00002B760F58418C7EBFFFFB0FF7AEA30D756
:1046F000745340F6B201B810C43A64BC2639FC9435
:1047000082D6D2AE083830B3D73D1EC0FE04790D34
:10471000A7A6E568E3287E9C852602040184B3F3FE
:104720007623A9FA0493C316083AE52160DBE1F683
:10473000F951B3C317AC3D0348FB840526ED0204D1
:1047400021EFEB408185D4258293EE13640833304A
:10475000FE7FBB04403ED2180342601F2C0440F091
:10476000304106C0A958E924E9808431A7F8F5E072
:10477000010D88E5FCDA8A78F6A5013CFF69B8C826
:1047800003F3042CA2E2B4F7788807710F16C0ED8A
:104790000178107D98407F9F6BED98F0FEFEC59BE1
:1047A000C4F004FCC5B6055E93E3BF404CC2D1B370
:1047B00045488940E7E082605C10477C97D3D7CDBD
:1047C000876B7FBF4B204042C0101804F3B3110C1D
:1047D00090E002FF16C1409820136104968CA1213D
:1047E000C530CA1016EFB12001601B4C04B4283B41
:1047F000B381C46B8111F78BF87F2906087FB598C8
:10480000120DE89880A6E91229F3FD4189A8012438
:10481000099FE7E8E7D602493CC70C09049BB5C5E8
:1048200010BB1748E4014D24E6DB19FD7159E6532E
:104830005E4A384C318CF2FF2F0CBD05F5D880FA5A
:10484000E5C0347D7510EDB0E55C0604F4B6D929F9
:10485000FF7F6FB5B9E70928C6012985AF2F78F02A
:104860000DE8FDCACF1625F0FD0439DD340144E022
:10487000A058D3EB36BB907965252816E8C3B9E07C
:10488000A8BF298B23B76420BE3242EAFD8031B82D
:104890005D690A98F0848D0C115BB7C5C0885F25EF
:1048A00040D7B6214172B54971CD20C14E6A23026D
:1048B00029B9C08830CA46441AF845A4D4FACD0AAA
:1048C00058FCE06D560734FD983DE0900730461ED9
:1048D00077205062591CC568C503E578F73C7978A4
:1048E000AE57BBD7E9978B8D7EE2FBAE5F7EF7F6C6
:1048F000713DB70A50F3330AC51BE0AFEF5262CAED
:1049000044CAC8210D392CFB01312061FA9BB34701
:10491000C8BEAEBDC58435D30ADADE196B46024C7B
:10492000B6911078B3C4D846FF1448081040840CE0
:1049300090DC4180790D7E45224682F5300150FFA2
:10494000E5A9F06FB50241FE412D2405EF62B88262
:104950009A7F0308818D21850467E7C8900481420E
:1049600012106F48234A019F8DF18610C0903CF1D0
:104970000340683D81107E9E786919411902471CE9
:1049800071841AF3340F0302F346C327E5A6C80C5B
:10499000038521FEBD96C0F3DECE5D1743BCE93230
:1049A00076D0E7A345B1484230F484A638F382CEEE
:1049B000FA343BC521809E279003416BE06274B6B8
:1049C000013747FDF815CB05F9285F7498016A2176
:1049D000EFE13691266E4440F68A0C8059E5FB499A
:1049E0008F84905BEC8B580A3FF62CA029108176BF
:1049F000EDDE50735C01F3E0FF840565464CA709CA
:104A0000030E0C409056F387F100929B63D16C82A9
:104A10002140B32C060F48900803CE60227B8830DB
:104A20002F26C082FB18200B0141BE3907A8F9E0F0
:104A300009DE98157E6978FCAFD56898401E3185EF
:104A4000F3A28875B17A98F401E00A3860E0683B17
:104A50008023770EC00369CC7B6B80FA6BE2982FC2
:104A60005F93EC98080642B68B4C28913BCF15FF1C
:104A7000E3F505FBC7626C94C83AB67017F5C6A893
:104A8000FFC0ACFF46C2FEEE1151600408C17E4675
:104A90000246804850BDB80113880967ECE3090558
:104AA000ED3FC00218041060FE8028840530120615
:104AB0000702480831B3228127B348FA20CF040502
:104AC00002911802A761A2892804F335801490E6A8
:104AD00045AF03E32A242133FC9849D3FC87F042F5
:104AE0005003482681C082EF036B40771C23E2DA33
:104AF000E4FCF1359391C4D146DA8471469E192FB6
:104B0000C2E20FF198E46D928DF30D0CCAF2B82F4A
:104B1000B3DE9982D97006359A5A40FAAF6C900884
:104B200001E367FD3707708E8F810C816038DE10DE
:104B300006C82FF66B8A18FA891CE6484FED680AFA
:104B40002C08C5448098426510B20B1A68C8054EFF
:104B5000CF79B2C020C114E55D37F508A129849949
:104B60000824F3F71361224C32516BFBCD643326DA
:104B7000BDCFFE035D4002110E0ABCB84FBCB3208E
:104B80002810EC043006E7B4502081E726C442F830
:104B9000A0405988F888044106819F18022360824A
:104BA000B98CB3B9F1FFE0803CBF03714006C0830C
:104BB0007780982BF3CBC533C81A16E0D8811C8FA9
:104BC000AE9888E43DD00F78200F64772E7A70F588
:104BD0005E79E30414FBEB848130BA7980103F06E0
:104BE000D79820F123FD17D840309E97AE4D64E44E
:104BF00060FCEA778B98156D64AF71F9E6EBB32230
:104C0000C0FF905060010C84CF04A1E0C428189329
:104C100021463A90C60110677ECE84372046C121D6
:104C2000978560D6112C7D9B0506410824B262D879
:104C3000673A48FE2009EC30114F42481208E8005C
:104C40000D22F344E4BB1A5A5A0122F3FB13C9C8DC
:104C5000D3FA502048010D786880149202F1433F46
:104C6000680041A001840FD8FD2D537D9703970163
:104C7000BE97F35FD1F2FE0CC5B830825D04FEF63C
:104C80004702C0209DB1CE840138D0FB575FB5DC10
:104C9000B080E95312AE40F3169E9FCCB10C32B3F4
:104CA00057BDC005D0BF406BEDEE927AAE60200CD0
:104CB0008865D308F8486ECED2BF9009A768B610B1
:104CC00036819716A93DDF212884119FE74AF60413
:104CD00041574C8FE72AA029B002067D5880082052
:104CE0006427A2919D50FBFF8405310420C222104D
:104CF000D221937481FE5D3048CCAD128079059F3E
:104D000067B31D3009CB48FC10046360220C29886E
:104D100013FF14C18240040B6202346E84E8AEFBC0
:104D2000173D3064F536DC3081701E81D01935F3C3
:104D3000E8F69C7E5AC8B6D30338B9C8BD70C62001
:104D400048C60C7BD0FDF3D5C4AF20E07F61101EB8
:104D500006310806B2C8D02CCE351BE53D04DFFA7B
:104D6000AD61BC29D31388C6EE9DD3B0FDC06E8360
:104D7000421AEC5109C0968CA108D3FBE39920405C
:104D80000B8CEC880512E3199F8620C04840081C54
:104D9000ACD3C39BB0814608E78090110C4C418591
:104DA0000040F950FB200481A3FC90184248104AAF
:104DB0001A0DE550C26B9A12510F082236F380216A
:104DC0009AC881FF50D008029E41B2140904758828
:104DD0002110CF3043080A04E221B085760678FD21
:104DE0009CAF78D67B0C2BC5613919E6E717649B1D
:104DF00096E471C9F2028471C6FFECCDE0FFFC3885
:104E000007414BC8625DAF1A16D50928FFD740414C
:104E1000B5A5422092D5C05116BAE245F2B4CFB73B
:104E2000497083FE509904C244B55DBF4FD650808F
:104E3000901634F258925A1AB728D3156ECA0F2812
:104E4000D8E0F77C884281EF6D2CA8CDC8227998F4
:104E50007F8284290B21AA83FC05001F4080021059
:104E6000D7018AC6AC88115D3BEE4C934081741922
:104E700011013A6A516AF8388842149F4008211398
:104E80006049E688E1C82680F2D90A60CB03301079
:104E900013D0F882E0BF1C72BB409C5D100FE4058C
:104EA000CF5030201EC459F52BF3762604A666AAEF
:104EB000ABE8F2EFE330B90340C00F62FA1C900791
:104EC0007180F79879100387E23C3515F8D4DE46F7
:104ED00001AE699E01F3810A188B29F17201CB881A
:104EE0005DB49F2FB32F7808C5B48FB43377894151
:104EF000207130FE5E5D643A2B41FCE73002404891
:104F00005C5DFE1361814C8404114C463498C0F200
:104F100062C04C90DA10129BB32011A0F5821016DB
:104F2000F053C6C9608286C11A064C0DBF21CF79E5
:104F300084F330424080FAC6CCFFA3B31F6DFFF864
:104F4000FB38101BB4255928C6F379D08DB0D3B8DF
:104F5000FF1856FFB101A7E398FE246151668E3118
:104F600039FAF900613986E6FF699EA9B1EDFF487B
:104F7000F9A6510CEFB9B511E2FA899B668BE07383
:104F80003088F6D3A0FA8D440DB17A128FEB31A49C
:104F90005FB4CCD3EA14769171FF20091FCCBF987F
:104FA000F63284C267E3CA2EBFB15ADF9B2ECC18FB
:104FB00025E7B0B2F979E9087841B7AFD31E17FBFE
:104FC000CB3CFFF6C970FDD9928068ED46B8DF751D
:104FD0001184BE84A302D7D83CD8FE1642229C2C52
:104FE000AF54806E54883C3D4ECEEF9608A8FC46E8
:104FF000E07A3140C6FB758064AC4A08A6EB6CFCD5
:10500000B6402B27ED52CCF853CCE4E1BC4064B45D
:10501000D628FFF06BFB4A01C5DB5AEBF4106F3367
:10502000694E4C50FC20256728F708C35E3AD0A68D
:105030008065D8FF9AED0401CB21F4E9406D30D9A9
:10504000145BFA3A08C4451EC01D8BEBA382C5F55C
:10505000D00DCAF24429F480661DF8B003848202A0
:10506000800540C38007896501B914CB12A610D012
:10507000A120CEF44BA80F0E14F04102580C09F2F7
:105080007328C0082C69B80EA44AFF1A6880A405CA
:1050900058F900FF5910060D4B010457DFA445EEE7
:1050A000E608D084060A023C904F9489C012B35897
:1050B0009F6624200A82C0F32A1804C2AA48E0018D
:1050C00041340F6AA711628802183E87A604A0F82F
:1050D000577FDDDB97F191509AE737EFF940201DBC
:1050E0009E195EE9318E10EF40EAD000C6CAF43353
:1050F000FCAF51B8FEC4F5B940A768A342E6C4F6B8
:1051000055BE83529CD682BE8C10C49388CA0BC7EE
:1051100086E80510D9C0FD4288E88494BB079EF359
:105120009F672C6602F355457810CD2D68FEA9EDDA
:10513000BA4F04E38C08F648CA1A1C080159F2FA5F
:105140003E5579BCDEDD6C6D622BAB0875BA14E29E
:10515000A6F633759BA82CB306F393341ECC5AE005
:1051600001F91D95C61CABE4FC2B96AB02E4F3E100
:1051700062EBB208350E806CCBD9E0FC9CB2652C9A
:1051800068034DB32067ECC5F7A311100131EFE0C0
:10519000F95896AC82806F363A1061A7BB60E8FF81
:1051A000B1089E31EA92143FAEE2D1B25BABD8F8BF
:1051B0002D7C017E58F8FAAB06DCE359D03DFDBBEF
:1051C000D08D7DCD91D643C033F62EEBDA803B7B7C
:1051D0006F20F912DB2B7FB1F81CB7313FC2AD7CD9
:1051E0008B1DABC4D460F8257AF240FEA387ECC8CF
:1051F0005CFABA1A0318CB2E2945026B9BD298CCC5
:10520000192D36FF3771F552C0A3F958FCB280FF53
:1052100097407A9102D4D1CF3365C555EE93ED42D4
:10522000F8FC8BAC8204632CD75554B8B2FB14C97C
:1052300080F6638778FECE80FDB1BD26E6A0FEC76E
:10524000F893C2845F98B019D5FF80622B65FF5335
:10525000F82547207FD821F7EC1A10413638B7FFE0
:10526000FB945EB091D8619BC790FA3D94016FF1B9
:1052700080D8C7D71B596CE367ECFB72F70AF3DAE7
:10528000313C28631E4E5A1D626D9DE8FBB273408F
:1052900080DA352C60B133E5FF1088FE12F83B65EB
:1052A000A5109DA0CD184BFB83107718C4FB28AE2A
:1052B00040161FEF67D0F6F059026062DF72A10856
:1052C000E1C90936E00221E7B2E962FC6717028210
:1052D00036DD20880E411410B840F118865A7B9EA6
:1052E00047D89B84B98855F410EF2370F84080F0BC
:1052F0000990B420F05253170A7AF343DB14C232F8
:1053000018F00AA003362CADE5B3A07FA7C080A497
:10531000169BD20F022C800EE6A0C1229F4A41C9E3
:105320001B812838E688FD9F50290A3001FD9844EA
:105330002C7145A43E4D190C20601461D3C17968CD
:10534000480C50366773DC66509920468E46E786D7
:1053500090087FBAE0FF013400281403206DFF623B
:1053600006812B100440FF425ACD2A0241D3E3D2DA
:10537000BD4C81BF40EC7B401897E3441AF891FC88
:1053800056A6656680BFFF3209E2EDE48DFCF67635
:10539000BDE201629A6978DC77FED94023D77A04AE
:1053A0002BEA229BB3A8FE4E870308678BCBE80845
:1053B000D6FF0143FA70F965ACCC082616BDD6BA03
:1053C000A2B20236411EB0FCCA59E01062D1DEC65C
:1053D000365B82B4B3F9C850D9FF04B918DE200295
:1053E000D06809B330CCB16B93FA191920B4405C82
:1053F0004C018DB722FB49BD3D6067978351D36156
:10540000058FB508D00B8F3C5013DB6CE3FCBFF865
:10541000CCD36B8C3BCD17F86D6A15F8D9E00261DF
:1054200026DB0279BD11476D99DD13E0FEB893B01C
:105430006893E33A317DEE2E18FA33BA3752886119
:105440002FAFA404227C2D3DA0F150B2FAFDC5116E
:10545000635A3667E48BAEB3B7F61DA0B2E0FBB873
:10546000C744F1B54449E530A9D2B10C93132C22BD
:10547000D9F7C0A3F89B3F60CB16A9A6817A1F205D
:10548000C859BC2089A1207DF1F9A00135B740128F
:10549000A0060466A011F70657B620B70C7B8D2234
:1054A00048303FFF979034014614FE0852400048B0
:1054B00021015EC630FB1A40080110819BEDC0FF40
:1054C000814BB8774BB1EDC8FBE50B13EEFF10082D
:1054D0005693D87A901AEBF6FD8064839D24710070
:1054E000790FF95C2487F4060170A1EC570138E5C7
:1054F000B56065111670EDCB421AEF07026EA0037E
:10550000587BF50C20F0F9FD86C05D2A2746F5048E
:10551000507725FF44F7FF07D90136FF3C69E86D56
:10552000433323B24CDF8151A37F6609CF2122F39D
:10553000893001D340F8740946EE04208040D62C0F
:10554000F248308010A64596E141044C9B7B063C16
:105550001A71CD2002E311A436404985B3CF260845
:10556000B30213504582FFE988FBE041F23C80071B
:10557000F02667EA5850E001FF3CA00732401EC801
:1055800000C03810EC68010CF719801CA0A701D3EB
:10559000C00338E4200FE20F9EC6EC1EC0834F2CE0
:1055A000F3813C10CD68FC33301DE3F5ACE7A6B3C6
:1055B000F3C22046039B4096823FA85C06FE1CDB9C
:1055C000FB8360EDD382413F8908D30350C641304D
:1055D0000048F91C05A140A2B32DCFCF8C02058352
:1055E000322684C07CB343200184BD39D32647FFD3
:1055F00029F892FF80CC91108D824F0802036091B0
:1056000011C052E3024AB3A6FEDF82117A79D8FCB8
:1056100020EAEDF9A8AC8E08BE834DF384026755ED
:105620008068FB0001810504D4B322FF77939DFFBE
:10563000B101D6248163335275924821CB2D01F9F3
:105640002D4482A36B9D28F94EBCFCCB6DD078D144
:105650001411E233FEFB472CB3182206FF0C7266CE
:10566000826BFF06CD31FAB1CFE74D68F980BF817B
:10567000EEB90F160381403C05DFC930B170320C22
:10568000C0DBF4B3027254E46680CBFF844CFD248B
:10569000880A42BCEBDF70F5592B03C7989DFB04C9
:1056A000A305E1D266487696D5919AC7391924A404
:1056B000A9B90519242EFF65EC8212FFC9A4A62CF6
:1056C0002BB6ADD8176DC006A3FF22018089341216
:1056D00043FCA504EA467F6C0103FE22042C0890DB
:1056E0003006755C8858B24DF3180F64312620FFE0
:1056F00007E433AFFF57A308C0DA9A11824434821B
:10570000E58F0578988FE902F10111FFE008AA27DB
:10571000EE1EC8F50358100FF30F0CF135F3D0CC83
:10572000EC0F62BC0C19469179660C11D31CEBE0AE
:105730007120F7EC39FCA9E7FFF080F3014A01DEA4
:105740005EEE2048F94AEE0650F3A56F5C98C0F370
:1057500042A9E8FE59CA223AB832E031E05762ADB8
:10576000E460B83C764A0481BE98C269FDA045B3A6
:10577000AE01C041FB0CA0913009DFB34360124C75
:105780000222B3B896D7F5CC92F07F311130B4260F
:10579000C100C0416020A6B8B30C582A097E7981A7
:1057A00005340160FA060406D72BFFD39828F512BA
:1057B000590E3FD40348048982DE81B0495FCC0191
:1057C000AFD732740002C6D376719581223A018038
:1057D00014E67F499265C40C907182BE57C8198443
:1057E0003B8DCA8020CD210CEEC65FCC6E6600D901
:1057F000A706DB457F9EE891DBFE402B0303943038
:1058000004EAB801091F41200887C0386FA6A7EA3B
:105810006630EB88C5EA73DC57AE05811782A25863
:10582000DB65C6E8FE83FEB23A071049FD0729B6DC
:10583000675020F7A801BC3419DBCD983495D1E02E
:105840002325101B3A4312C128F3E5BD982138EBFC
:10585000A8FB54054FC1C0420F6320CC018C93308C
:105860005946859C58B4400CD165885DBFDACC9709
:105870009A3330C204E088EE60218070181601224D
:105880003A0413517F5B483002A0FEE0815EB2779C
:105890001D5DCB30E2B8309946D0831E01DEE26B4D
:1058A000F1CC5BBE662C8801F0407EE00318000F4F
:1058B0006056A1D7F630300148F303E4C610BB5858
:1058C00081303F2B6F8BB7965D30BED8BC62B6F38C
:1058D000B38DE35766098AEE79F278EBAFBFA2C4C5
:1058E00077E07F521255B96519F9B3DEFFDD4250FA
:1058F000E9984CF36AB3A5021804A2B324B93002A4
:105900006BC93004199122E4F54008BAE32CEA642B
:10591000752F441804EF11018051303320FF9F820E
:105920008F2094900206A46983438B817B7B080CB3
:1059300025A5C9EA4C24E53108AF2930205C46A2F0
:105940009488E5522C16D9BE25480849A240150C6A
:10595000DC30C3D4F96C465D947146E70C04C36B2C
:105960009AC820E0308D7830B6A4F3468E033746CF
:10597000CB8FFFEC785E98779D51B446DE2F19ED02
:10598000241EDE624BD338D4B302FF6FE298FFB51A
:10599000AF1CDD8803A7D989F2D3C96BED9870FAE3
:1059A000104653BCF3E69A1B1146CCCE4817F213AF
:1059B00035FFB2CC7830FF077842CA5A40173D7E97
:1059C0002E80F582042022EF980936129385FC89F7
:1059D0004FC0840818019C23C14C047B32B58098C9
:1059E0005C4BE60C8C029D01E5B32075BDAF053024
:1059F000CD44300DC2677A0B02078C849511E1C942
:105A0000031475779798FD2219F9E001733D304032
:105A10005C30E909000FF3A0B807DD2C193A0BF34D
:105A2000988283327830BD788077A898C0198FD358
:105A3000E66D12C00558DE989B3DD6FFFCF21D4076
:105A4000BF283D087ABE12ED44AF416DF7CCED960C
:105A50002E198823ED66D4D384485FE8B414F298F5
:105A6000E630D9FB99B312065A78B3EF5C21B0D96E
:105A7000D63834478C147F9732EDCC0878CA432649
:105A80003FEBD0204008238B618C2EC6F9CBF477F6
:105A9000D775F1CC34022BF8C298AE0690690B6A28
:105AA00006042FCCFC13804A04F89F8F32B3793060
:105AB000811CF5EDC61040E04A04D70C20CA231B18
:105AC000E230DCDB299C21BF28FE07EDE5AF176142
:105AD000DC272F718E91C523FBCC10556682FC60AC
