:100000000C949A550C94B9550C94B9550C94B95557
:100010000C94B9550C94C0590C94245A0C94885AD9
:100020000C949B5A0C94B9550C94F2580C94B955F5
:100030000C94B9550C94B9550C94B9550C94B95508
:100040000C94B9550C94B9550C94B9550C94B955F8
:100050000C94B9550C94B9550C94B9550C94B955E8
:100060000C94B9550C94B9550C94B9550C94B955D8
:100070000C94B9550C94B9550C94B9550C94B955C8
:100080000C94B9550C94B9550C94B9557F7F7F7F6A
:100090007F7F7F7F7F7F7F7F7F7F7F7F7F7F7F7F70
:1000A0007F7F7F7F7F7F070007047F7F7F7F7F7F4A
:1000B000077F7F7F7F7F057F047F7F7F7F7F7F7FBD
:1000C0000F7F0E7F067F0D7F0C7F7F7F7F7F1F7FDF
:1000D000177F167F157F1C7F147F7F7F7F7F007FB8
:1000E000277F1E7F257F1D7F247F7F7F7F7F187F57
:1000F000207F217F267F227F237F7F7F7F7F7F7FDF
:10010000107F197F1A7F1B7F137F7F7F7F7F0818E7
:10011000117F127F0A7F037F0B7F7F7F7F7F081015
:10012000081F097F080F027F08197F7F7F7F7F7F6D
:1001300008027F7F081308117F7F7F7F070C087FED
:10014000017F080B7F7F08077F7F7F7F7F7F080706
:100150007F7F7F7F7F7F7F7F07037F7F7F7F047F1E
:100160007F7F1C7F1B7F7F7F7F7F7F7F037F0810C8
:100170000C7F247F237F137F7A7F7F7F7F7F08110F
:10018000147F081908200B7F7F7F7F7F7F7F7F7F11
:100190007F7F7F7F7F7F7F7F7F7F7F7F7F7F7F7F6F
:1001A0007F7F7F7F7F7F7F7F7F7F7F7F7F7F7F7F5F
:1001B0007F7F7F7F7F7F7F7F7F7F7F7F7F7F7F7F4F
:1001C0007F7F7F7F7F7F7F7F7F7F7F7F7F7F7F7F3F
:1001D0007F7F7F7F7F7F7F7F7F7F7F7F7F7F7F7F2F
:1001E0007F7F7F7F7F7F7F7F7F7F7F7F7F7F7F7F1F
:1001F0007F7F7F7F7F7F7F7F7F7F7F7F7F7F7F7F0F
:100200007F7F7F7F7F7F7F7F7F7F7F7F7F7F7F7FFE
:100210007F7F7F7F7F7F7F7F7F7F7F7F7F7F7F7FEE
:1002200008277F7F7F7F7F7F7F7F7F7F7F7F7F7FAD
:100230007F7F7F7F7F7F7F7F7F7F7F7F7F7F7F7FCE
:10024000017F7F7F7F7F7F7F7F7F7F7F7F7F7F7F3C
:100250007F7F7F7F7F7F7F7F7F7F7F7F7F7F08158F
:100260007F7F072408057F7F7F7F7F7F080D070B37
:1002700007237F7F0713071B7A7F7F7F7F7F7F7F27
:10028000071C7F7F7F7F07147F7F7F7FFF1F627F39
:10029000C23C006088FFFFA0089001324006C8C63B
:1002A0000019C10305F84414812241538AF320FE4A
:1002B0000366A00C943900CD1FFFED81325006FD7E
:1002C000CC541930036501E09E33C688009879D379
:1002D00064800CB9FEF8FF0014C002581F0B6001C7
:1002E000E12C8004810A0F027034F340F3C805A0AA
:1002F000E6603393B312E05030DBC02128B45CE0F9
:1003000050D39834D3B01316B99884FCC121FF9808
:10031000B1FF74E5200B041001668002100402C1D5
:100320006608BD01E0106534E4E8FECA284DDD5BD7
:100330004029D181FB02BD40D00462609D34180287
:10034000E08A0A83E0B553CA0AD31098CDFE02C2F0
:10035000041990429DD770B601052641F721CA3C89
:10036000ECFF406BEE8202900AAC64F6888F24E5C5
:100370008E1084FBBC7CC8F89A55684620B2D21D0A
:100380002C84510088289A686C5128480373E01027
:100390000178084FE08CA801344CEF4802F1AF61BE
:1003A0002480A7306D60FD77E2E8063111C9D16283
:1003B000E7FFA6390CC630CC74E9F0FDC0ED82022F
:1003C00098F58318190FE0F3EE0806225FF360F644
:1003D000812A9C12049DB00EE04133F53020068244
:1003E000817803271BF610F998A0C02157D47DA56A
:1003F0007C8E510512468B88DE884048841158B2A5
:1004000097C832EA6E4BAC0D9354A3110940F50026
:10041000E76D70F9E38220A1C6EBA3916090A33051
:100420009DE7C8080937A497B180256602A7E07543
:10043000607A809005821CF7CB8502990D6044C6D6
:10044000CD78F9303C0803DEC7F41003732307F0BE
:100450004C460379D8A3E0911974CAE6C10610D3BB
:100460002092E00CF87CD306400218D3D364AAB8DB
:10047000FC4453767893D0D682C0B8B6F358F7E1EF
:10048000FF0BD380DFD31884026010A10C05F08726
:10049000FD859AB0AB02F2F973698C80915326BD49
:1004A000C10C12EC48814945BB309412D3144FB3B0
:1004B0004C8809804C3C2258A687C602107CC6286E
:1004C000FCA009E22616028CEF41980D8E05DFD2C2
:1004D000980DE659F7BED95FAAA4227E426D0B099A
:1004E000CEEB34A02257EE9798F96D24500454B9FE
:1004F000FF60066DF6EF57ABB70CB6A8206AE706AB
:10050000D4E13D02A059B7A4274D88E0FB800A3C06
:1005100064DC30063A832FBE0098BC982A641940E8
:100520000FE6B384C966F53049FB03D314A4F9D3AD
:1005300004E0C6C082BDF308FFC8FD88013522145F
:100540001122EDA3D9FB6C2673691362C1020DD889
:100550002904979E98FBDE520866C121144B79113D
:10056000936850FBDBE0F880881E4BC42040BDE858
:10057000840B088077B5988818F3D2EE80C050308D
:10058000623E9802C09E1C8160042CEFD1F222B31F
:1005900079987DF07B5E71F99F60198005F000AF5E
:1005A0001E1798BEF99835F3C003D9DEE2E662065D
:1005B000B49EA590D0E0E70FBC2C88D10504C61FDF
:1005C000B3EE9810FB84BE46B812D3DBC580414F12
:1005D00035C5162E9324FF4BD30889D36620AF026E
:1005E000C38884479C7F6E09FB020572CD14C2C08C
:1005F0000D03CAB309FCACC1AEF3CE1710CB013169
:10060000C479CF1245B3DB3B649DB3380224DC369A
:1006100048AF8C1990309DE5F9A081607CD473ECD3
:1006200068C10C017F37304018FB98A289625B34A7
:10063000AF80CC609BAC0CC0C028F0B4A04610A624
:100640001AEB0973D30890B9D86FA4AF46667198B6
:100650007150BFAD980A57F8057D7E79F2E4E0A5A8
:100660007F9BE5FB77A0FF7785988BF0044D2640B4
:100670000CAFB7981E08770D824167EDE075D96D14
:1006800050767103B830EF75A5024420E598FAEC76
:10069000640DF3FAFC8401359100D0949072D48FEC
:1006A0000401DF4116CC306221DB2F05F998B6AE8C
:1006B00093224E1612B34003BEF98EF5D255F4982C
:1006C000603A841800FEFB2BD39846CA5816034B99
:1006D000DA53F8308EC3F6988809DFD69820C50122
:1006E000DFB822C004400320605FC30312099C46A8
:1006F000F69888CEEC84FE05311688FEEF759807D3
:100700003040EB98585F2F983FB8DD9860813C9C53
:1007100066AF617CCF01F1201EC00B79B9032C3785
:10072000F3B079982BD3E09D19A0FD807E46060199
:10073000067F4B21E34F34982F20B3BF7B6488762C
:1007400069ACC1F1805EB8DA848167E0900271E63D
:1007500033C668FA0E3000BBB370D350390C802911
:10076000C0D316C15C8B60E31148043637B3E5E3B0
:10077000827E31447B93502010BC6B7CC621448424
:1007800010142F8641B652BBFEA09D852612D13B88
:1007900037036A044F7198D0485893832DB0EC0505
:1007A0003502D26610E23BCAD5FB7F98EB14825F1C
:1007B00040485A0422F369140D208612DE00F9DC49
:1007C00069DBB1207EB6D1CBE853EE7CD91002BBF9
:1007D00089AF104AD3186639D3FBD8BFF880303BB5
:1007E000AB24DB98E801FBB11E5FA215C6B372BB58
:1007F0004257FDDB18F03033D3F43BB3D082FC1109
:100800006BB9B03C2E350524F7D35A50A0EB3A8192
:100810002035A684E898615E2C822930D9BB126A03
:10082000F8BF2928C7FCB649F4E8107D4298D9C81A
:1008300076FB7A0AF3FBB83084D4977D2014FE98B7
:10084000D71040C8C080F18C51D69FDA1802F578D5
:10085000287EC7606EE002E9F27D5E9828ECF56DB7
:10086000C6893930145EC56FE898B4AEF498400C70
:100870006041B3467D4B644566D584CE3079100F18
:100880000BBD98940B16C05E98036240397670FCDD
:100890004D6BCB30038E40F2B8EB4463783BA563DD
:1008A000C31D31C7307998EAEEA168EB0220B6B9D2
:1008B000039185F9490B0204BBC2C658210C575C51
:1008C000BF98A0225820A360FD44420290A0809BC4
:1008D000AE6286090253E0D3011371B37045631F02
:1008E00054097E940C4E7D98C0F9669305A510E1DD
:1008F000739F6BE89842AEE7308DA109B501D12D09
:10090000F0B6012465BE140F1A4810683FF7A840DE
:10091000348012FD04485A6003087F1D44045D645E
:100920004446AA69E6686799985EECB201C61286E9
:1009300082D72FC85AF303EB4AF0FDAFC06BB20663
:10094000C4C298827AC0E08130F9ECE75D1AF220E7
:100950000C8801B0CDF5E548FE985EA5D703619CF3
:1009600075B39BB17A04B60F87B266FBA8AD0125BB
:10097000FCFE5117648CEBAD1634FAF513640428B1
:10098000F6FFCB6610556628A7A69850A260E42F04
:1009900032D70C50A8C243EBBED606D2FD7DE4820E
:1009A0002012C00D2FA004A737304808B1808C84D6
:1009B0007630A2DE066C127F8398E31804215D1462
:1009C000FA5222F498586F2304440C5B67E5084000
:1009D000FD5DDE984E23837810D3D298B098EE5701
:1009E000300B8B7EF133B6B0609E98B916E00FEEF7
:1009F000E2803CF298FDDC18DE5E4C76FB8407A5B5
:100A0000D51806E7D69E6B3338A940302DF604F38F
:100A1000FFFD780680C2BE425AE0669BA48D12108C
:100A2000E0317FF9FC8021300A5E988D98037F20A9
:100A30005D32434649E2230CD608025BBB99667ED1
:100A40004BFA54088B6002E0F7D81040E9B72392C4
:100A500001F39F77B9F8FD7A9846BB5508BF03DBD1
:100A600098149197644366C820B2E8CD7A662088CE
:100A70000486E4F00AC1686C9E8CDD34A212BF1FAC
:100A80004971CE667B12FF2E983F7DACB1C3FFFA51
:100A9000DECEEBB1CB5B4DA84BE0CD5ED3C630E2F2
:100AA000FAAFC0AE99AE64AF245D98E4CA30313C71
:100AB000230C96F3025F91387E6D97209DC8EB78EA
:100AC0001029C879B02FFD2F869F38EAFEA0013487
:100AD000FA4010042202DA767A8784A010262D8349
:100AE00001FC4CFB8485B00801736E6F5D8F02CAF8
:100AF000E641F5550D3C7321245842D2D343E721FA
:100B0000400CD793FE0A5DC0FE22810BFFAC229CF5
:100B1000A879980815DE561080301B34B30440F4D1
:100B2000F642C10426AF029E825A0A12A4BB0A03EF
:100B30001930C640B8F4E9FC602730E81EC869EFF8
:100B400098248007F4AD20C33C79F20FE0012CEE2D
:100B5000CCFA7F1590369EA8C403103AFAD6F54811
:100B6000901CC60142B926B8CA0B5EBF512B9EE845
:100B7000A5598EEF1B936004374014BF20C83CB6C4
:100B800086EC40A0FE2290C6EC1D49F7B311310956
:100B900070306B23FC98381A46C07FF38360124C88
:100BA0008105081E09CCE7CA404520DF0524BEB6F2
:100BB00060148C98BE1044EE22C6A67FB90248F994
:100BC000A0210480AD46DD9C08CD30A030723050AD
:100BD0006E8D43F11B93B3153886EDD0F235BE0D03
:100BE0001A447F528CA89B05D320BD980324C5C608
:100BF000F7D512B0F9FD1FB13A75B52DA840FD111A
:100C0000906BEBE54455AA8AB71C30195A8B6DEBF3
:100C10009820FB977859C87E45D57F1F30E93E4024
:100C2000DD2B1935C8C0A66177E4CD014DA2D0B344
:100C30005FD30EF792F998E8C60D1C88FC842E311C
:100C400020240540FB563169897E1206812802EE78
:100C5000AF6496480D72B38053FFC55808777491FE
:100C60008091B9D6544256E7F9E5901104A7E7FE02
:100C700084880702C4771D6AD54495BDB2B7F3BC1A
:100C800098EE594308BA15D784087266C824E50659
:100C9000621064C005252AA27359136042C645F745
:100CA0003002E8FDE5C87B98C483E7782001F31C97
:100CB00080D7073297C59F98B6736BFF6040D70CFB
:100CC000900830D3B37870E0A20143F298C9BBA278
:100CD0004EB90890F8BE91FE2F30BF128F39FB9F9E
:100CE0006FB37FD7FF40F27D0853699684015DD0D2
:100CF000BCA0C6D3A017C0F9850908BB14CF984F74
:100D00007605192681443FF3A3601120908B811052
:100D10006720B3115712668450B160B33189F43043
:100D2000014042C6B943C6443BB3E0FAB5C92045C9
:100D300075D2521974A1B0C08195187FD20AE63DD0
:100D4000049DCD7D2134DF6A111DE0ADA2B4886B16
:100D50004F9A407673C8A009C3BCB1FB13335CD86B
:100D6000BB8881E62F26103BE08F3DF2ABF9ECF318
:100D7000470235B970F992C8A86F7104F1D2EB85BA
:100D80003C0681211E0D7A98026CE608ECBCC8D3A3
:100D90002B44D303A5BFA7B2DD847FD3BF55FCA0EE
:100DA00034E3841E5F7C472617D85DA4D9840146AE
:100DB000641B1A7DC4669B90FDEE93200941EAB046
:100DC00059C8E7180223F14080AC45BF933AC806E2
:100DD000C8E76A8860845D513D4720C00864ADE182
:100DE0007F8C04ED32097AB15AE2EF351092FC089B
:100DF00040C80218202E62042CB80EBE32407C83FC
:100E00000B447F77C4B1FA723007BC98B67679BFCD
:100E1000E0810CF395F2A3CD30400FDB76BC05BC2E
:100E2000DFB25C68EDB2C8B810B64997E02C65C86F
:100E300072035A8BC65B0850FBF2F5DFC598397D0B
:100E4000E764BBBF6442FCB55A1758A5B38CED12DA
:100E500096D380FF222E66EAFEDB4C4FD77F79B710
:100E6000E5B008ADE0A335BC09DF16C1DADE08DD68
:100E7000B931B74B6B355FCD32859316786BB8EFD0
:100E8000B3BA78B3C850C210035D77AE90C40BFC00
:100E90006346FF5E587BFBFFF8FB5B65774BBB9CB3
:100EA000B6F0CE32F3FC8896FF2434D35FCC0182B7
:100EB00043FF98FFB128A39338D1C71B3990FF0C8B
:100EC000977D107D7488F2ADFECE3FEE68A293C58B
:100ED0000CB9C1536665BBE458FB043451DB8F2B5E
:100EE00033F3D6B40186BEA4D3F76531C6E8FE1845
:100EF00069F0CC988BD310FF472DAE76043523EBE9
:100F0000C3242BDB967944E2ECC2DD2340663695A0
:100F100030FA6FECBC14FFB0BDA1FFC0B2FFFD20E2
:100F200001797203BDA150732A464BA58196F84FF3
:100F3000ED8710C6CFF660D83B59DEDEE5CB020860
:100F4000B71D4B7F029EC1DDBCB2CAF54BFD97DBDE
:100F5000854063FB29EA1061377661A8F825DB3606
:100F60004219F9D1704630E6F35BC370FB5F22A0F3
:100F7000A0F2C29D0140047D2119E546427FAC9854
:100F8000109F22D7B4E1068A2BA35D4C0908707D1F
:100F9000326C5AA2F422C8DA2E02FBD40E3311525C
:100FA000B341E220B27BED04CDE0A3E6F80480D7A4
:100FB00010EF3920D0F9F6FEAC900186A204A81FEC
:100FC0001E6002F724400D256B7584804BB5201000
:100FD00056B4609364B132507671C308C0815ACD63
:100FE0001B105A831343FCC9800C3040F83F602427
:100FF00054F2FF8420320CC8E11E1C073130958961
:10100000B9DF3B390A4C04D8412183B1D9024EAE35
:101010001104292ACC81155E180EAF7F187A12CAE6
:1010200045559AC61440E504D4FD26DFDA0D21901B
:101030002280FD8A29D3E2ADB15F80CBFEB564F09A
:1010400090C811F1C3FB5FE05CCA9111F15CED0443
:10105000AFE5B2CC3999248880CFE39B4FB787693D
:10106000A80882D7040D7D7FCEE934FEC0C2BE370A
:1010700036F06FED3A09CB4A40781958AA0899869C
:101080001990E466ED46BE2BCB0D782777E3889B5D
:10109000BFAF18200AA4D8F2CF375F2FF434BB7645
:1010A0008A68F83062D321E58B2084DCCDB210D77A
:1010B000F6A48B664F0D0EFFF392B6E1D57380B1A7
:1010C000FF7FDB9A109810AE9FFCF0EDDEAD09A219
:1010D00019FCCA5934208B238025A410467B49D79C
:1010E0007580886BA0E8FF67991D62CAC9D5CA10D0
:1010F00065FD2B8A6F77E0F8667DFB9AE06896B312
:1011000090CCBCF3B3DA7EC8FB16DC892ADC9614DB
:10111000E73CFFB2045715187D32760302CBFB2D56
:101120003F8CCFF5E60219F6F9A8DAB1FC075C6A44
:1011300099613AFF06C45B9AF8FC15F37B12FD90A7
:1011400020847AFCB3044CC7691B80631AA2D85868
:10115000F9AAC908D956026579D08D80D3D9B8FFCC
:10116000FE25B304FE29C7C84F8BF5ACFB8CF630C7
:1011700040C2DEEC4A50FFC3C375492098A9611BE9
:10118000B358FD46C5FFAE0F20407EC0C47F6C81C2
:1011900010D3351F5AB37879E5852B3008125E508D
:1011A00008EADA98FB7D8BBA2922C4FACEFFAC3567
:1011B0009684C0225BAC20BD2D24A8B3FC39D2029A
:1011C0006F96459A8F71C6B2C306C79B10D8FF377A
:1011D00096824037FB91C02C4FCFFEFEFF40D0805F
:1011E000DC35F1D8476C5B629C8A7E9917FE94EEE1
:1011F000D4FD885AF7811FF0952E90ECDC5D5919CB
:10120000629F6959D128E1E6F4B041DEDC02364D37
:10121000CB50F9CCEC04025908FC4BF88040C012CA
:1012200090A80231CD1E511708EB963EB520CAEAB0
:10123000F6ABD5FA90A9A07C66800A5753EF038BD2
:101240002009CF30C0FB067000C90360B1EEB23098
:101250007F160272BA05381214EB758B8118AC6BCD
:10126000280CFEFC669454080A09EDC3211DC378BE
:10127000FB8101249F04AEF85735E59C1CC8A126CC
:10128000FEDF44901A4C42085DFFB6CF73676408D6
:1012900021AD9CB815C71E1241219F268090A00841
:1012A00016FF81E2011121293128EDC0FC407FF9B0
:1012B0008223DADA018477B610FBBE3BEDD17F5989
:1012C000427FEECB802FE1DEDF81453D82C8FD20ED
:1012D00010FADE34BBA14006F342E0834BB6EB15B7
:1012E000EB04F30F816DFAC94139F8EA822BEAAFBA
:1012F000B13C837C6F670423D1A11BEDB0208B6FC1
:10130000C8D4F9667A2D80C2AE33D4D549FFF6DE53
:101310004FAD2A02BD4302058AE9258CB6F0F8FEDE
:101320005970FD4F79FB92296A5D2BC9EC4347BC8C
:10133000F00E08C0E0E706C17B090458F8143C7FB2
:10134000B3B82EC57EC9F3AB3F5BA7B8FD28565E88
:10135000C3BC62FCE4B201FA6FCF6D59E1FD5508E0
:1013600008D675C6AD12E9709FEDCB78FF19E7007E
:10137000C019A6BF7E80172271B70CE5CDFE72E0C2
:10138000FBC50B7FAECAF323123F1665BD32981121
:101390007EF65F18F9494A9DF1C4D8D91A7178B917
:1013A000452BF64257FCFAFD0DBA6180C6BCACFF76
:1013B000DBE58088E5B7ECCDC85E90660C5FECA0FD
:1013C00053B9C80C01E16FCB22022BBDD4C8FAA0DF
:1013D000756EA3F06811E941A490BDC2340351F0C9
:1013E0009B0DCC3411DD9B8035374A40CAE80D6631
:1013F000C68006CF0A1760680243E6D348EFFE8036
:101400000131B51EAD6C313E4164B1B8045EEFDD13
:10141000AB06B751B3FC8030AFFC462C8E2F8360F7
:1014200040B6BE9101F02B1CE666D36005389FDA0A
:10143000C341D50EC0D98C407D04BD3CF380C903A7
:1014400060B36C8931F082F9DB7C14236001CA43FC
:1014500009EAFE670210E0C7464611CE5CB305B349
:101460006BFC12A0419EF7F380905052B3BD114126
:1014700066306690A6049B08EE005852518F4609CC
:10148000F3382060217D8201909FD3AC44087367BC
:1014900001204DA78284207AC12DE9B860142F3035
:1014A0001B70FA243353CF5F40B00359208D0B01DA
:1014B0003DDC0730403F9078000FE0012D673CB4E1
:1014C000E0810C80F7CA2016C87843E4360C90906F
:1014D0000B1684D381EBB910B0967D30B95670925B
:1014E000073C3920180483CD9C0C66109FD4FDD393
:1014F0007F90C6B3A3A9CDD7F3807DCC305A28FF07
:101500006D845FB3834021288878B338983313B350
:101510008C5A48B302BFCC09F83204400114BB20F6
:1015200012BF32517FE8061019892F55C05CCABB23
:1015300084BC771840032F2205A20128C1BE1AE1FE
:10154000BBE45A9BB50A5ABB2490F8BC0C26520E39
:101550005A40894ECC950406BC8B6F8041F8BBE99C
:101560004AF84661FE0BA30CBE13E54F0CAAF80621
:1015700003F562101D944D5A6268F8DAB0FABDEEB8
:101580001EC003187E5401FE74EA188403EDA344C0
:101590009863D027B95207F4E03FDB61200C02804A
:1015A0005E9845EC900217CE688F90FF8FD8693314
:1015B00050437590BD117198280C7FC53C0185265C
:1015C000E068875B40900906A682F58B4DFBB685E7
:1015D00066BCF913D5B3049A5D61EA055D6926F529
:1015E00027EEDC8C888105028929B1A85721237454
:1015F000B94846A080490B22415201FDFAFFFFEF96
:10160000302006C803781016289A860704220CCCCE
:10161000F5980C88E8F78C307AE0C80219F79880C2
:101620000C90D70614F302037916204DB9A0FDFCE7
:10163000CC33C318F8606BE69887337DF989EBAA41
:1016400006A26DB2C7DB66BD40C608EF579188A9F8
:101650007E7866A09C08B310580A936FB390016E11
:10166000B31810CED3840158138BB326405CB1332A
:101670009A0A76096879FA0183604420EFE721C06D
:10168000FB05FD17CF4240C168120DF4A005809004
:10169000DE5E71FD2812010208349FEC4B8904C004
:1016A000B312FF1A4010280801A009F1348022105B
:1016B0007F0A056068082DDD2810B6E35ED1BB41C6
:1016C00093C22C7F589E90FF9A68C6416BF8813078
:1016D000A51A77BF739F80FB60084A53204323609D
:1016E0005D7115FE8B0E0309F336B03069B3703DA2
:1016F000EEED07A2E210F398F823FCBF21C998F69B
:10170000FF858C046BEC146001102211146CE9C28B
:1017100004031708242DB3965814AFF82A04318116
:10172000494B5A7220E0EB8405DE2748089150416E
:10173000C6C10C013FF3B2FC8451304EB304181003
:1017400043745ED5CAB040D4F56B0B7FCE8109D906
:101750001222FA96D702408A98BEFA40E5CA32753C
:10176000CC30164320AE8CF75E68FDE00A3C723345
:101770007080261F5820035C6A9380B91940F403D7
:10178000182007E6672EB4600CE0B83D0619200269
:1017900074E0900410F3C30358D30F28E2D8FAAFD3
:1017A00084BBB9CDD27830FFA2ACF35915821EE7C5
:1017B0006DCCC284017E0806A0D3E1913BC51457CD
:1017C00008F37C455932F139FC96EE2F301E2EAECF
:1017D000228C9095F326EA98112E2F3630CB797E05
:1017E000D3A9A0E0164400CC6F12E00CCA8230E707
:1017F000D0EF9803403D4C88012425FECFE80882B5
:10180000509D440DE145A209608126AF03B828C56B
:10181000118DD78434D95379719E23731110147F9D
:10182000E060032C0825A80234BD4224C98A44D3B1
:101830000CE6A0809481FE5E6F877F25580CB5F979
:10184000ECA318F3FC34DF4CB8B5F8206DE6CC21DE
:101850004130DFD344F7B58FEA72FAE001E4088043
:1018600007C4DD7C83A78497F37E570302200F8093
:1018700059D3CAB301C9B57B2BE09E3D20048280B9
:10188000B66AE1741977E6921CF5FAB21BBECC99E0
:10189000641320E2CE1029B04401E799400445D7F3
:1018A0000211994B9F7F810584A788C15810932509
:1018B000E0F7D9E8E34802804A93ED7390A5202B26
:1018C0001990A2B0DC64730820BEC4A0B0A642CBBD
:1018D00009035D05C64B7FA798482446A078F69972
:1018E00066853077706700F28120A51709E1FC5EFC
:1018F000C5F58804B020B94909E9E4E8013C19D7E5
:101900005A068CD519E4082C2CDDD74964B055074C
:10191000812E16E0301F608124900497F0D3A9C671
:10192000E0D3B899F91230665CB72FF82F068E1203
:10193000D5BF84019F97C879B8FE98421E66EF5EB6
:1019400002405A459CFA5299F3E5BDD22277CBACBE
:1019500005BD98245DB1CF2003CF44808967F33063
:101960008021D0302249D66F8256F8DD50E398129C
:10197000A339C64C9079F704C8F8200A9DEAFE7F87
:10198000092192E10101BF90455EE49685F2DD20D8
:101990006FE3DCBE05017A989A60F628F92DA8312C
:1019A000A4709E50384103081C219CCAE638FBB342
:1019B000CA1483103DB418F70980208869E6ECEB5F
:1019C00005115F2E3D2ECA3885A3EED0B003F20775
:1019D000173BAE4B0CF8CC22E58360EE798BC3C786
:1019E000FB8339D10742CC6765C8711DFE98A208F8
:1019F000AEE33DBE9FFC99C8BC84F3E81078FBE8D9
:101A00008906D8081B22015C747F44105F85401052
:101A100059DF325C1D9580D6B509CF304C849130AA
:101A2000F905060014028689402C020970640AF93F
:101A3000BD88300805FCCB2EDB409302402D499336
:101A40003EE5823110DFB65A868EF8D60616BF32D2
:101A500020770DF7D8322B6948F59740A075A30180
:101A6000EB38FBC59871DCC75A93F70FE8813CEA65
:101A70005F4424789B430C2C3B5B15E0414F2F982F
:101A80001E1BD36001248EC6F4980A3A0BCC9B0827
:101A900049F8A45E9845D8C76A9A66AE2960F6AB45
:101AA0001090D4205B2B789807F1300DF1D382FC95
:101AB000DD0E188BC68B16F84519F80B6649ED2814
:101AC00094B362B3BF4969E3F3602B0165E3FE9908
:101AD000CA2FA0DA99F59810C9904C7C0100E88CC7
:101AE00058BC9816808972F438FEF8FF479840EB8E
:101AF00003084131C8B064400F5850A9EFA00A3420
:101B00000D049DAD1A80A027B582D32814C22DA83C
:101B100098A4C750D90A41BDC942019921DA90FF62
:101B2000FDA379D2B644C86BE586F127DB1921D92C
:101B3000C8DF0242D2AC778D21DA8F10FC2F5D3BDB
:101B400098D5D261F7F969BC7444A1F33EBD8038E1
:101B5000CDE32FB6ED02F49880AE860410EEA277A6
:101B600086E323FFB258A2FAD756ED827166402170
:101B70009660C8228B045E9041883B0534885F964E
:101B8000D4ECA76C17AA75646093E19897BF5816B8
:101B90008208800220A442CF89D6E7E2692E311163
:101BA000181E104CB3EE90D1D41282DD0AE3412C02
:101BB00004EC9010FE46CA32CE20A1DF0509089C35
:101BC0008C8210AE66AC12A502C68176AF28ECD727
:101BD000C888256A1E16716A79B837D0401E7A986F
:101BE0000F8CB0EDD0E4E1D3A54ED302DE98BB81DB
:101BF000DC982006C0A23983F69868FE57C39798F0
:101C00009AD2E97D6F56C2204BF360BD8B10B508A8
:101C10005A1912AD198478303A06F0B4FCEF3698B0
:101C2000E130D2A31119BEB9982613641D8C10801F
:101C30007330C00447193BB35120813774E288D315
:101C4000BB86B56482C710F1300C058D61094CB6B6
:101C5000F73001A0F9F030459ED509290424A437B6
:101C6000ECC1FAFE0A2A1025D5FA11AABB4AD55EA4
:101C7000A1356EA2ED980A447FD880A0BB019C30AC
:101C80001040483F090181A4FB84142190FCC8DB6B
:101C900019F34EB2C8BE39EF3394FCA2DFA5F72A80
:101CA0007949E20C645BDCE45BEF4CC0FBF5982007
:101CB0007BC583600A0FB2C8FFAD001505FAE66860
:101CC000DEA0B5107666E241089FCC779778C2DF38
:101CD000D706C46B49818B3043FCE688FB2606405F
:101CE000E83AB34013FC1F889A156011577F0191A1
:101CF000B8AB9DB549969B9D64BB83C37852B01326
:101D00000881882CE2720132FF78FE8491B00805C8
:101D1000C8C00408E6ED4C61E5B02EC06498AD6122
:101D20007B8888893021351911770A5466E644602A
:101D3000415795113077FC30C404903EC6D8F8E086
:101D400001B930F0AE40736A49000F393C3190F26E
:101D50007F1EC80218200B46E677D7CC174A16C755
:101D600077C803797E0F2457F59D98EF5E0B6001CD
:101D70002C07E8FDDF804195C8F584E2D293928577
:101D8000C20CBA0FD78C23EEA2FDEDEBFEFC78DB84
:101D9000EB45250566DC305E4B7F9F98B2E3190B5F
:101DA000FC9893B322CF2CB382CBB3F238302C39CA
:101DB000BF32F864D3BA318B19C58BA66EF051418E
:101DC0005A77A8E582A990E62901F0A8011689169C
:101DD000858E8708409801A3942CE0B30BD598908A
:101DE000E96B03747FB09826521DEF982401A091EF
:101DF0003A2A64FF16DDC6F9C3B201F4C1DF5662A8
:101E000012ABF809CB278530B37E8B013D08710CEE
:101E100090C6C098F87F919897175391C5ECC5F379
:101E2000E1B848196C438FCAE5301CFE98D7C00151
:101E3000CA82ACF398FB373CEF1088FDE2302FE507
:101E4000FCF642018011306778989939CB41FE6EDB
:101E500066B710EB64F9301A0512E026300614025A
:101E600033BD98245AC234EF5319FC300A05C08898
:101E7000980943DBD78C8041B35D0AFE03206104DF
:101E80008C0011BEC1D4B3F201503B3047D6664836
:101E90008C42EE8475F645F9C89905C6B96659C8ED
:101EA000AE056730C803E90FE4EB412C88CB989E60
:101EB00023782003E2062C10FCA3FBD554AB681555
:101EC000E898A11316E0792EE0C8C875B096C89BB3
:101ED000F6351978B749FA9818FCA5C8F310FE989A
:101EE000BB8026C85890D7B6AF58ACB30C40BFD310
:101EF0002FC8E310B2C8207318CE2144D344BDF1DB
:101F0000B3046CB35E98BF02D99820600CA38246DC
:101F100053B36DF1DB0410B0AB86AF2CF64B02056A
:101F2000EEDF1208E1987F81413020B8FF018DACCF
:101F3000FF04CC967BA234D3DFF8FAE7EAFD327DCA
:101F40005F9CF36798ACDBD398F9018243FF98FF5D
:101F5000B128A39338D1C71B3990FF0B0F83FDCC59
:101F60008289EC33ECFF38FE3B2227663CFA66E6BA
:101F7000F8FC04031A0444C70C17AECC9520A5FD49
:101F80004608FFCC5F7F667DF1194D3C3CB350178E
:101F9000B50892B07428060504961C02419B11A94D
:101FA000E8AE5BC8995046F113ADFF407DE5FBB14B
:101FB00080E5C5028F1AB5ABBE242CC8CDA36BC675
:101FC000142C60B3707B9A10668E00EF30FDC556FE
:101FD00091082BDB6B4063E03C4677A3B0F9AC582B
:101FE000402CFBE23032DD5429A0FE0EAD9D83046F
:101FF0000820E4A4E54697349DD601109EB0DC1D70
:10200000C5F2E7E228F8FDC9C925B19602CB3C81AB
:102010008C93516601AD022CBBB44E5E6A21D87F11
:10202000B99310E0F8A5B90498D021BC7A0A8305C9
:1020300085F4CF207C0248382247E280A062286DD8
:1020400086190580D2021A0C4201E7198A34404DE4
:102050007341216E3E0466C8F960A00166FF1084DA
:102060006842200A1802BD0497C8077920F610823A
:10207000013321EFFA294404864CD22881C1BC44A3
:10208000FF212050A0E4AB106D0FE0181F14088D45
:102090002478A3FD933FD0E6103B01200816E3CA45
:1020A000CBD1E5F976E70874AB409FFC1F98FC5252
:1020B000FBF2ED51E0106B1BAF7B77824062036651
:1020C000E8844BDF08DD868040107DCCEBC110DB5F
:1020D0002E49F94375FEBCC575FE08641CF279797A
:1020E000D011AEF3B2CE10FE811470B1F95EB7C953
:1020F000381ACE2B1DF28A387401BECCCDF37FB8CE
:10210000F1C23F2540BE11197D2E95E0FAC0D133B2
:102110002465FE9A80C77429CE5A7E01F1CA91F5D2
:10212000DFF88F02ECBEB121455B048972A840E361
:10213000A83357155418B7C699B5DF592CA9BF6CE9
:10214000BF68FA4D310871FD853BE36A19B2FA1692
:10215000CBC06FD858B9AF79E089F3BED8FF6DF323
:10216000B8E0116C3212108CD74C51CFDB7EBC53CF
:10217000DDE1D0B1FAC5CE109BFB8A012FECADDFBB
:10218000EC0CD0FBC3C50B14FF2214B70223C719F4
:102190002DE20A625EB7671875BBA430FC625EFC74
:1021A000789236EB0CC028A9F5ECA0897F7F4048D7
:1021B000B0F99D2C10634765B69788FC37E45D91B4
:1021C00062661329DDE8B8FE8CF2F380C4F51210C4
:1021D00062BDA55BE3B5F931C993AC0A3FF7FB6477
:1021E0001726050619BF19ABE77B9D8BB6E92FFDB6
:1021F0002228FC8BFCAAB0A6A46BF610D8F8CD322E
:1022000025BF8F026C02633E82AF48B6D4EE1480C5
:10221000FCCD2E4C382C98CEEDA1809A786605A97D
:102220006825D9F8FABFE17E5856BF99F2E3E69ADD
:10223000022D6B9BBE58FF2DD408796297F0BB1816
:102240009865D8BD2182959058B38AFF06C63B7F1A
:1022500080633FBBCB50FEE1DBDE0802CB162DA82E
:10226000D6B804A804083640DD546FFDDE4008E00F
:10227000DEA301E42002C11720D7096C4CF89D1B96
:102280001DFC4095CF41E292DC88C209F5B4801A6A
:10229000D46DCCE8EE127710A85F0286232BDAF912
:1022A00011FDE4EC28F0EC1404184442BD9B28799D
:1022B0009481D9A40ACB0CDCFE20B3EF16D0B07009
:1022C0005F0A204830030D7F143480820201CF134F
:1022D00010EF050D9000A6D5865121B6567066E820
:1022E000F8E0217F0A448410980401C1210CFE0209
:1022F00090B20F404A1E660C03DE881D23FFDFB537
:102300001825822E1873852682303F2A73B1402B00
:1023100015FF3B508BD4C1AC106DFF51450B0181B3
:10232000C2020EE800FE208CE51E88161264C90861
:102330009706BACFB3023A18921C40AED7F7C482C0
:10234000A6F810F78442D242F608992998FD13A105
:1023500008F8017F9ED6E070B2A3E0AE4F00BFD870
:10236000B28F993DFAF04031AE8412AE41E6CA21F7
:1023700040F79DD8FA10629CD4058BEAEF01CE3766
:10238000D06FEACCFF23F98C09397B04676A3A10D5
:10239000C9FEF260FC0505EBA74855EF30B9C81B34
:1023A00002F95A2CF340505D1B72A959A7F88644D4
:1023B0006023B5A33188755E8294D9DB70FA9E2DB7
:1023C000816E80B020A7ADB4F37BF9637B5BB11065
:1023D00051BC89BC81E88D2EC9C052FB630BB6800D
:1023E000342DCA3FC5D6BD0172D2FEC44CBB7F5648
:1023F000230852D610DDEF38B3FCB6ECF058CCCF42
:102400005A04109C7C72632D3D30FAB7D948FFE422
:10241000D90180B9E92CFE4FDB3D088266F4C0FF8C
:10242000CD364558A4808E8BC32FFA48CF236DF745
:10243000D64FD9BE98637EEE6EB368F4058B7F4DA0
:10244000C8F95C69BB808698E2607E4C04308010DD
:10245000C07EF34844202814769384B072D1A056ED
:10246000DE5D78ADBB68826BFB3486D34650A843F3
:10247000608F01A0FB04140870FE307ECCFB971720
:10248000E8130886570F6E8406770A026040B00D85
:10249000B0FE1CED9F217204037820C00C421499F9
:1024A000B9F01EF322E59BD03839BDE0A401D3C1B9
:1024B000C2D38437C00BF61A4201B925C6C9DC3035
:1024C000C5C0FC3AB30516D00C3E8B080148D7FEB8
:1024D000A00201826046F536184072194180B3604F
:1024E000281892B30F9DF12024C033199360D404AF
:1024F000CF05B0A4FF80853D2A20C222DC400F48D2
:1025000080FE21300126C0241463F502F60C828976
:1025100025DF1904104244A64019020A88B28399A3
:10252000FA8960620244071228F83E463C8007F0B0
:102530007826D0031A604CE2F39039F1E981C05853
:10254000CD200FE60C9DFE23C0810C68D3B0D32FA5
:102550005A200939F12C8070152219700A61562C05
:10256000F048FA80926CC1BE8BBFF904BB88F7ECCF
:10257000C068589293C9F3C5B7CD089A03170ACC1F
:10258000962049049047D3FB000848B9FECD463059
:10259000C098E783464C8079B33BA70B641096B391
:1025A000047760C7497C2216C20459C0E010AF44CA
:1025B0009BCC8980B3B76259439D514F88FB160964
:1025C0006BC542EB4253E708B48604E5F34044B0E0
:1025D000C6B8FE98B5245AF832F59F7A98213F2064
:1025E00030348108D21780449C43F005A00142D9C1
:1025F000BCF83D99B340BD09016DEB980C55F80648
:1026000099E7989AA96903DF55FDD8FC80413020ED
:102610001723E5B919CC683FC0CF31F21604036027
:10262000B8BC981B37BB4784015311BC981F0131BC
:102630000816C04AD0C63B92DA3E70FCFD8C827D03
:102640007D129ECC28939126F30AF7010B410418C2
:10265000C4871A3617B25784A9EC09ABC09988F31E
:1026600083EF848C073004639FF9FA802016C24CF4
:102670008510616F488011303D20C244147DC82C04
:10268000815143D2985005D51980E20A04897F40D0
:102690002642489820915FABCE0844C729FBD3C49B
:1026A0009895D75078B998813C88F35E98CB0338D9
:1026B000EE11F1980679ED26D35A68E0053CFE8BC1
:1026C00073190F6027F349FD044520E7F2F77404FE
:1026D000845FC25E8B4466CC625E98B5404EED036B
:1026E000CA0A82BD9806005A181953C6080E172147
:1026F000FD0F0530BD12B3238664FF5F9816ED9879
:102700006284CBB3053FEDCC5EED0301440464C6A7
:102710002279CCBC183702AF4F1E4BF6FDA080BC0F
:102720009865C002C0D93DA1885A9077AC98414BBA
:102730006BD7CB6B20E16F1A11E7301035815F5BEF
:10274000D380441905A8FB101406A0F86EB3DD74FD
:10275000D4C6F55E186DEB980843595DE73D28FC3B
:10276000FA3010C801F006380361120C6E9A61C08D
:1027700020F598617358410C6202B8D35138D322C6
:10278000B30BBB68F6FDD7C78674A0F9EE84113091
:10279000DED318511AEB07F930C05E98BB036DC445
:1027A000C555EFAAF80569C002E0189761D3707E9D
:1027B0002E092612F3E8B93030E74148FBEC8220BD
:1027C000AF864261215FC8F88801B00826803BD4FB
:1027D000980C3B623F3270233D0809FC303F91402A
:1027E00010C220984514C430C2EE38FE60F298D969
:1027F0005690FB7A400FE041BC8B2BBC98EDD95C26
:102800003DD9D67780B2A3F0D3B8306FF33DDCF674
:1028100040BFB89F301028F880416DE598D7ABF2E3
:102820007D40FF0E98C8F3AB7C97733B8B0619FC79
:102830009865F310DB69EF11C63A7330D0F9C280A6
:10284000099F10B3205804238B648CB982B380CDC8
:102850008808E062667811CF1A19D331F6B71050A4
:1028600034434F218480853BB426C050B33F513060
:102870000298F8A2A0935CEE402E0D734811103E12
:10288000B950449128EED91830D911ADA412B9E24B
:102890006A37096821A32944BD985ACE4803E10D3F
:1028A000A096E63C4F16305A78AD8008BD9D106268
:1028B00047197CEC0B61F4B559E05C0FBBB0EBCC75
:1028C000450D230962B1F3BF08A8AED8858195B044
:1028D000D306E7B38A53B0EA37E53008799832C9AE
:1028E0008310B360F5316E28FDFB8967D301801139
:1028F0007E57C8A29861A3643F8930962047A5F00F
:102900007DA6D626161145B3CA1308B3F0B81953DD
:10291000FBE5A601690898BD2E119F8C4530021673
:10292000C0C92014D4A730C6056C11DEE8A9081070
:102930000E4E7EE50261B930303FD310C02208212F
:102940003A59442009B979D3FEE0CA07F2FF201EA4
:10295000D08378000FE05C302BF399C70258E13147
:10296000E60D19AD196840799801162EE0EAB1CA52
:102970009B40D3404AC664F67EA0FFBACBD3E5CFD6
:10298000A0FCB77E51C8F397CB30026D3D8CA88078
:102990004B6642B2C8FE2D032038C66B9830D1FB7F
:1029A000764548B3BCF3B365CF930CFC306690B367
:1029B000C0A2B016560041A0D0325146D3B379011F
:1029C00068EFF8A051FA1DF1E8EDEB250488C798EF
:1029D0008A1A40CA21097A334C8519BFABD30868DB
:1029E0008182A122C0AF1C98F303681F2DA011049F
:1029F000007BF927D6B820FC50B508E5A920AA6DC0
:102A000012D5A8096EA1BC61E0DFAB4D6BB37ACAE9
:102A1000FE80ED7E01725D90BEB92AE13070A22089
:102A2000B37BD303C0010C3F8FCBE130E0EEC40297
:102A3000605F053CEE981003705619BAC20850FC4E
:102A4000E4778585E01859801E4CFE573010F9BF99
:102A5000136021698250CBF31FCB44FCCCC040985B
:102A6000C381601780213A561614FE6A8368987CE9
:102A700049201C22FB0483C1464C9921234A22FC95
:102A80008CB0F993C2401811650F8C020E312B8C5B
:102A900021962F9185FFFACB80A00261FDC8842288
:102AA000F5C215C6FE7F2488040F0AB0FE2B9D9048
:102AB0003DF1F91EC00370F70BE8013D64C8EFF368
:102AC0000279CEF50805D4B3D7EBC42F9BE530408F
:102AD0007978733D0CA020D32E493070C6E69B1C3C
:102AE00048FBBF9906769F89EBE5015F4BE583EED6
:102AF000CCF3FEB6B157A340EFD941F398FF7F0462
:102B00007673BB39FEFB30BB01C1989EB30A4C8281
:102B1000F2B3F5B90BCDA64930BF2CD1029EFF64AC
:102B2000C044180881104273930A1649C611C65F43
:102B3000CCE1093201DAFF7AE84285954967C8801D
:102B400010776F1751F6FB3004CE7566A00134CFB5
:102B50003004804808C0682181A1310F20D4EB02E5
:102B60001A45953021C1EA757CFAF6726F9F98C6B6
:102B7000C7DDC0671C66FB72D861DFD7D218F1FED3
:102B8000CCBEF0FB946E4623C018845ED25FF6057F
:102B900009F396467751EEF688FECC40BFF602AFB9
:102BA000602F30C85F011981AF99452D81B9D7A831
:102BB000F99FC5EBA541BD98284769EF950A627E4C
:102BC0006C8E8943EB7F2ED7F6A46004EF2C98E13E
:102BD0009B889053939F80093AA2B3F972E008163C
:102BE000C0BC81ED9BA009BF7F28343722800976C5
:102BF0006002D434DFA559B364C9AE3902304F83C3
:102C0000EA264248273A391280FD0484200A19FB3B
:102C100065D5FE9890C853EB0F32D5A0F3B83004B9
:102C20007AA5C9E6209A6681643D4250D3EE3430DD
:102C3000F498B0AFD31798F37B9838FA6BC030DFB5
:102C4000C63DBEE5A2086D23664C50660DD76630C2
:102C5000F1F77898777BE50806016D82FD175FD55F
:102C6000D2A1FBED129BC05804BC98DBDE4B0213D3
:102C70006004C4B6E35DCDCC1D44181991EDEB8C16
:102C80009041DD5E802850A6FEB6293041D8FCDB9D
:102C9000D5E843EDD2052217F37E914A400128443E
:102CA000B5A2326AE42D85BDE505597C89500ABB81
:102CB000519F3021303490460B8480D2500236A090
:102CC0007B4311A8FF4F5198801991C89710ED4C84
:102CD00074ED6E1588415BAE407A9830F3C37FDFA8
:102CE0005978E798E4C8D28110D3302E01E05232EF
:102CF000272035C0752A9BD2B1EDB903403C86C868
:102D000002602141D70110133077021859C84ECB09
:102D1000B0FC2457B35A5B3C342C80093035D34E79
:102D2000370B24F39E1D84409BF9CCA677BF92807D
:102D3000BD3B21F4E3A120D111E41262D70679FD55
:102D4000FC8431ACAE26F45104030194481086D4BF
:102D5000849932DE2CAADB2DC8FAF7EFE352164035
:102D60009764F23009171210C80B98809162860F91
:102D7000DE320198AEFB2F5D5798203E3078400B35
:102D8000E081B2F57E4616C4025920B3F50D677690
:102D900017C0E4D3B2DD7B50C830E00536DC30FA32
:102DA0008402781003E60320E0BCE5084FD51583C4
:102DB0006D62EE51C0200876F360102DC530E7A596
:102DC00067C8200CAF8480EFE2C6D2EF4DED30B87B
:102DD000FE1FCDC5309F5E120C8205CC300AF30871
:102DE000CA0C1346E3303B8F7CC9B5E0E388102161
:102DF0008B02FD8C8005A20084AAB3205CD6B307A9
:102E000088345EE85D8F5C300DD9C83F34028A504B
:102E1000080AA3207B10E63041146070D06E584041
:102E2000E030CBFF7826D41880449E43C645A2519B
:102E300076C648FFFACE2D9FB9304066F13292AA8D
:102E40007106758465F593E280668975D4B8BBFF19
:102E50007276069B9016701DB0265FEC980361AEEB
:102E6000F33330B32ED06898DD1CC09CC88081E459
:102E7000D807C0C60C8378032D0138F3A8FD198943
:102E800080F05E0E7747324564C0238A4E26A995AE
:102E90003008CD77B3281110275B82D56081178069
:102EA0000959DAFDC188004013606E114566E7429A
:102EB00019099F20C20418112338A10C90465916F5
:102EC0009F67050A41422CDB8849F6D710D40F973B
:102ED000A3217EF880FE4730309E11B648180912B3
:102EE000D462816F3102A0F8D7E080ABA5F0D5980D
:102EF00083C730F223312AE73038000F5E7EB520D9
:102F0000CDC890AAAB480D0D7FE94006BB44883080
:102F1000E060F3B44B1E19F3C83CE61080FE293183
:102F200057DBD71F1FB7C65D9E980221E1F30C6BDC
:102F3000FB865851B3EC700E3B18F2C850F7D3041F
:102F4000C6A101665739F3C9FE063BF646C2D6B3A1
:102F500002AEB3081005BC98FCB4E837B3DCDB0460
:102F600077F659981C89C6ED4CCE0432D381227075
:102F7000C61262392C8405C6C0E8FD6346FF5F189F
:102F8000CAFBFFF8FBA2205D22444833238CF3E503
:102F9000AC228DB0D3B8F918243BFF98FF241A3324
:102FA000938CD17139D888FBC2B28333D2C9CFB4E4
:102FB0004168F7B1FA20E20893C50BB3CFD4EBF127
:102FC00031E0014466F9D1C8FDF6888B44FFCDF3AA
:102FD000CCD1CEBB05AC82C317FFFDC888F8C2AF09
:102FE000B3CCCC88A0A81BF8FF258A206E1B19E45F
:102FF000B8D5662DB650FC8BF3E643ABD03A201221
:10300000CFE858B391FFDCC264FDBE9E1146E122B9
:10301000CADB10FB18F7B1DB9FFBCE02290B906CCB
:10302000EF7F2D42FBCEA95B4F2436F202016A9B53
:1030300008DCB1DDA7057AEA505BD436A150FA3B33
:10304000EBA70273C42DA2056FD59AB69EFE90B170
:10305000FCA3B618FDD540A9F4F9326C8AD2A8FCBD
:10306000ED20DFB73544FC19DEE704EBD94010FE54
:10307000333BED08804F35AA3DFC15101E0412614C
:10308000F848FBA6E00281F1ECEDBF01E538F46DF4
:1030900059A798C0AFDE14B00E808FDB3C51CB79BE
:1030A000D2F8FD400081B0142266FC80C040014C83
:1030B0000F0616021234FB58CEF60102800C7A6617
:1030C000AB4098C723809E42870A0420041167BE44
:1030D0002C601A300224BD94B8ADF86EAF05D4FF51
:1030E000A8032008D388165DB241E3201002AD8604
:1030F000716C4C22D1B37C24FF39FFD44260E0468E
:10310000148290C32286FFC1684100F1A01115CE40
:1031100003576188FBCBE9FF9A4B46417CD873107B
:103120008FC58078DB9B78F98499F88240EE219DE9
:10313000E00401266FFA80FC90CFFC11F31EFB48DF
:10314000005629D6679F6C24C58FBCC0AE3BF202E7
:103150002389ABD07980FCC4FA31C73CE1F2B6597F
:103160006E089C49CBF8FD9A041DDF4F10EB8E884A
:1031700033CC4B2359A6208BFB02545101ACADA399
:103180007BF0F290E6F681208EE3FBB34E339E0394
:10319000BC23EDB696CFDBD34F116A19DBF58984DA
:1031A0008B6C0823AC08F62C20FFC2AEB76E37C775
:1031B0000AF9CA2E5FA317D53F958780D69C2C634A
:1031C0006E68B3405EE52470FD0A030B3CE6FE36F4
:1031D000F02DA732FE5A9B80FE389EC42331BB01DE
:1031E0006347ABAC626041E8B8B8FCAEC4972D0150
:1031F0009FB3CA051036DE0822C959E180AC915050
:10320000FBD9F020808D1A76D701CE5EEB10C16716
:103210009B8DA0B0845149668B1834E2FF50C44B9B
:1032200019AC1783C10F1DFF08B8FD8AACE64067D3
:10323000AF7A31E01F6D4358FEFC7B58E7B2C640C1
:10324000C65645024B8804FC6246BF1875EAED7706
:1032500088FE94E6B50136FB30F2B8FFF3B33C00CC
:10326000FD0893C2E6B418FFC94BC0100A6CBDF04C
:10327000694078A0B1F17FD9F640DEE52FBBE34687
:10328000F5AE0447AF85F36CA162BEFBBC60914B09
:1032900085CF299D6C5A625BE85D4F0DA17BE6B03E
:1032A0007FD143A8B9F68C7BC5A0F803248062DFE8
:1032B0005544CF5CB3107E75C4F6E2FD6C3318FC48
:1032C0007BF64B01616596687659E139ECB1F84EB1
:1032D000DE6404876286E5DFFF623FF1EBFC0A40B3
:1032E000E2D85F20CA950214FC753C6FE6E162BA31
:1032F00010806ED301C208021A108861D51BFEF639
:10330000D1A4D09DFAFA1120E0DA2509D7E4B2CF92
:10331000B840DC136384C8E2A7DD7C086496709A29
:1033200031B90708E8FB7FC00530D632C0F9F84A4A
:103330002103DA1A20959106E4E3F0AF30B91AC5FB
:10334000407AC70CBF9E40C428A09F019602888186
:10335000109960C0A8FCE6C02080EA503D016CEBEB
:10336000117CD8FE8038C3F8849D12B9C26023D185
:1033700030FC0EC4C0295C0E8240187BF345845497
:10338000986804C0AF6419034087C2220D9E411C97
:103390004600257ACB0149504C9A980D907CA02884
:1033A0003F40E80980B7FFE1B41179F874FB711070
:1033B0001B26471A990B2E828BEE524A41A83BFFDF
:1033C000A440684747EA86D0CC58FCF508D2E822EA
:1033D000D041BEAC92E088F7BA698FF7F31CCFD327
:1033E0003C19D0CBD48682B7FDEB8CFF937888FD57
:1033F000C35DD8A99086ECB3CC8E16CA0ADE016FE5
:10340000EBC72116DA913C6670CC6CC388FDCE21E7
:1034100036EC047996A9C992352DFB8D9238E3CF0D
:10342000689CC8FCDCC7F7011067F66F028DF3CF0C
:10343000E825777DC0A966855AA96EBDB324516180
:10344000F8DFF7656CE8B2A482D238101B0AFE6D73
:103450006DCCFDBEEBD8B7FDBFE4820AB3347DCF9F
:1034600059C420DCB4D988FF9CF067F1DC892D04B5
:10347000030C9EA0DD6D3562606518ECAF2D8630C3
:103480004E4A08E1C61B1798FE55B840B293809685
:10349000F2206EDB8D021A66AD4B88D27F01FE658D
:1034A000E36819858BFF048CC6573BAAD8FE16CD5E
:1034B0004F088D10B143768AB0A036026BE7D8FB77
:1034C000F9EE020620991AEC6839AEA041E5869F14
:1034D00022EC4308040CD881218696806FF2465F67
:1034E000F609FBF341BEE47AFB29108117C6EF030E
:1034F00066B606FC6104A3A6DDCC935FC59C86B2CC
:1035000043013B5EAF5752A682F4F0B7493C060731
:10351000B7BB800260B3C34181300714FFACC083E6
:1035200060400FE041620303930871B328D310B3E6
:10353000FFC2F5184A350C1979B3F9F2D33488660D
:1035400058443FE02001800930808A12F648236009
:10355000168122C45D69203001131975600237B3EA
:1035600051FEC1901C12DD6248EBC0E0B51511BBE5
:1035700006C4EE73292C93FF100A20C20218090812
:10358000C024425BD8622D652126A6A7B942F44427
:1035900030425B1E5CD36702B06BA9FF54D6801922
:1035A000D61EC0B7B20F2422B0F090F323786C037C
:1035B0006040B465503CD37CE2DEE07AF32E1467C1
:1035C000C68258C668803BF3C0F88860666F5603B1
:1035D000D17F709806D6181383F80CB1822F97CC40
:1035E00077F8EEA6D3B88130D3C04B2F9F467C30FE
:1035F00020B8FF4A600812B3DD76895CD746A4C1C3
:10360000B30BF7E18C8009A8BFC4FFE5F83200FFD7
:10361000DA05317B98136472FA34FFE07F090AFF00
:10362000840C81053202E0FEFBA00016800610E348
:103630009EFD9814959166A2BD93F5D308C9B384F5
:10364000FF77E97412FFB1A6046350880640629ABE
:1036500082A084F29864C64809C609A2C6EB02C8D3
:10366000F868DC66FE3584F622C08065F302B0B7E8
:10367000731F84C0FF0C72662268FF061C24848EB0
:10368000E1CCDA4C27A52C2060F826C513011AF3EB
:10369000A5FC984D06D3F030AC03121BA3B380BF3A
:1036A000B9A41202FFA7844E0641805FAC5F9FE978
:1036B0008201098640AF1CA2BF7779D3F8FCA80429
:1036C000D434ED88F2FF6008018011314126A4C195
:1036D000E50877AEB3044B1944FF99F32230FF7726
:1036E000E7B946941805990BF88CD3A204B3EE778A
:1036F00023028B4FF945F2FDE5D7904075F1190192
:10370000EC984C84CFEB0A3D485808EE1161823C9E
:1037100005B319FF7F489223DA8021485E41E057C4
:10372000937B9544B076E9EE98D9028B4C443EEFFA
:10373000D8F86080BDA5F1EE001EC8F198DFAE2C70
:10374000AFB165C50278D91E361923943D66203580
:10375000FFE0FAE30553E0C4260F64CD013CD0F04E
:103760003DC60218400F78F5D619FEDF12F21F068B
:10377000D4C34A55F3340CEBC285B3FD99B559FB5C
:10378000FB104EDE1C30C672D80CEEE20A39F993FB
:103790004441C1A328B3FD9820D02140E0DBD16192
:1037A000E664C0D7F5CC32F27FCAF55448707EC3C8
:1037B0003C08A735E21418215F6541C6BA2088F994
:1037C000F4988993AFC0D7685EC51B240A9F86DE34
:1037D0004A4411683EA601880422E3B3BECCD7F95F
:1037E00032200837DD4210EC0A2922F4A745304088
:1037F000C69C82F22C240A226D2FC8FDF680D3EDE0
:103800003C793180B2603ABDBECCD8665BF41C1006
:10381000F75EB871D3BEBA3E50FDC0251A031CDC5A
:1038200030259AE07437C0591087780FAD62357132
:10383000D3AC6666E041B930C2944061CE69C53010
:10384000DA37885DC603EF5E70FEA408942095B950
:103850005C30F00A408081A1A1B9890A856C21669B
:10386000FDCC120DC0B00446AC08E9582821130560
:1038700077E4FB91F362E487B3BFFF04319920F052
:10388000C022EB08C0984888EDC8A409D80CE59C74
:103890009009EFAFDBCCE6F811489C4A44F495E779
:1038A00089E73E6E8B8847D6F9422C825130D6B5D7
:1038B000FBF59806DC3016206911887216D7D00205
:1038C000FB22E0010D6FDACC10BF66EA013D8005F6
:1038D000F045D3E008BDE0400C10DE987727230FB9
:1038E000D33C08CA38FAD3ED91C1FE987FC7B1B86E
:1038F0000624B61CBA84DF2D78C466709A8D5018E1
:10390000E2030EF3FFBD7F7C0C4E191048F861C135
:10391000A05716FAB9040360E58601FBD603080A2E
:10392000BB61CFC5E5BA4493C530FC5F0224C6F243
:1039300058EE0B0442FCBF20FE2528180983700AAC
:103940007ED391300198FC42F0AE82CD8A1A906904
:10395000733045044D64820ADD0ADE0DA0662BB388
:10396000963004BC30AD24EEAD14115772090D45EC
:10397000B190124F85691C411C8434D09CF980AFF2
:10398000EA34F2EDD501B643C064653E723020D70B
:103990008830D381B1333736085A282BFC3F8EB09C
:1039A000FA40803CE10805615A0065C86E2901B9FA
:1039B000BC880B78102E46D3FCC3C35A02FA980970
:1039C00057CDE58280EDA71D03F4C087AE83C9778C
:1039D00064E6F2FEFAA005B4801090FCAFF5E98E23
:1039E00005308942CF1041B0014C82B405321978BC
:1039F0003050C4FDD00B02D39B8BB304F65F4DE671
:103A00006648CDA992FE7BAB11244055DDCA3080BB
:103A10004F5F26B340102304962DD885B3EB982230
:103A20005E69301120E041BF08D4984C6C1B26C25F
:103A30005FDFC92264BEE45BF8E7FDE0013003B15B
:103A40002F37CCC8E8F0509007342616F31ABDC5BE
:103A50008168195E98B50AE530713BE003F040BC1F
:103A600098B93080598E599BBBC4A784762D20C944
:103A7000D0FE5313B604E2303F1C2BBB9770106589
:103A8000DEB7DFCCE7981019320B4281D32E3F030B
:103A9000E9BFF3013792047F3851FF12849BDD8127
:103AA000205E2F3091FBB3725008F38D0F16184033
:103AB00057373088807F7F9810830B423DB328B002
:103AC00020ECB34350F0228109213238FE02BAC102
:103AD000026B4908099D3044348266BB0A0F0160BD
:103AE000085F587E49C88AFF6DAF62A28914A04959
:103AF0009C5A359F09E8B08514C202D079AA0420E7
:103B00006A9A3EFE340108FDFD8063F237E230CB55
:103B1000BBD7F682AF203032F4B930017184A94DA1
:103B2000EBF3C094F360F75EE51BFB8086412E0744
:103B3000215D5394C806933139DA0833197A9440D9
:103B40002EE03CDBC2D56688D2011819401D807575
:103B50004435A61108D72AF130F9C8F388FA840150
:103B6000BD2630D35890ED9F694D091601028A1089
:103B700069B112883002038C67BE67301505B30245
:103B8000189A50D301C99B2E5FCCAE906E302001A5
:103B900071663AFF042631F4C112CB5BB796085F19
:103BA00080309E40BF2101228C84912D557FCC46D0
:103BB000B401E6CA8509BE6969E0189742F02C8015
:103BC00005908B60F615FD752801C0F9C577EAD21E
:103BD00020F598687E2F41B3C83202168E83E45DCB
:103BE0002C3B054FEDCC82021F66E5410C9001ACE9
:103BF000F2BBC8933DE8F388FF0730801ED0001A5F
:103C0000109F0FDF2C2068FA7E97021A9CF2301169
:103C1000EF235AF8F408DFB63210DC307E5DB5EAE7
:103C2000B8013973D8C00D7030BFE03D8EA9F9805E
:103C30006F9010C069E34B7F108DB04033695044E2
:103C40006101CDB384021097FFA2D48CE63081913C
:103C5000BB8FC0FC0418020B60119FECE00A46C841
:103C600008FA18091302011CDF0718FBE0961481FB
:103C7000265640637C19218411346C2012E7A64239
:103C8000A1F30D80BF217504C4CB30808F62E33077
:103C9000FD98921565C87DC8FD1748FC091A81A2D8
:103CA000EE0A4CF8924A0853F31996E331571E5422
:103CB000EEAE843F30EB05963081FE98B24017DCC3
:103CC000080AFC3957DEFA626420DCE0195C1DEE5C
:103CD000C041304AEA1E3EFCCCE0B8E66E4D69FFBA
:103CE00052C5BEE298C8EF4398209684C799D50183
:103CF000FC235ACF0901EE93FBEDD416FFD10058F7
:103D0000088B600140EBA411306BEEBFD10A641444
:103D10002C22DE5030195E98459EC135D7AB681411
:103D2000BA710498C9C80E49B309B32E9E5D5B48A9
:103D3000FC3893FBF23610124689926662F53D8894
:103D4000669B020AE8FD794440F322BF22B3F39850
:103D50004123FF25D47973B1180569C4304735A1D3
:103D600058FD1F0284C1596FFDCCC831D1F1C03C50
:103D700072D43CBCC5978302F15DFF0FAF845D98A0
:103D800022D43EFFEBE8010DC0985F1ECE3062806A
:103D90003CB2C8FF7E8B400FE4813C0813F2C8237D
:103DA0005D21B846897712AA6F40688C41F08EB3C6
:103DB00035AEF48D8107E51B74440686969E8B44D0
:103DC0003ED6E210C9FE124641B6E31490FA764A96
:103DD000822920EE9114181D0A754E748437796972
:103DE0007ECC40EF3B9891CA498FC7C222480E4310
:103DF000B830BE055DC7E95E13E7E10C8105F5014A
:103E000020FAE298737FF21A402168000584A1EC41
:103E10008DC80A4377E5A03AAF86022FB3A3CC66DC
:103E2000FF32237FCED8EB480A382FF198774A3CEF
:103E300089F7E3A20134EE0438FD5B3606991419C4
:103E4000C846D5B9E75FCCB5021766D77D1FCBB0A2
:103E50006033C0983BFD7F28FD406B17073076D15B
:103E600036E0DF7503704059C85A3D4899A06F1677
:103E7000C576A466C62E864E9903E00C8257C01004
:103E8000D6342D611013E63CFAA4D009208F7C585B
:103E9000101A61D51D04795871A765C86E82495AF8
:103EA000FCFCCCBFF2A91EB7348805ECFAD5A36898
:103EB000214C577388CCFBF30B94EFD7CBF958FD0B
:103EC000048880D95D4425F36669796BCF08043E88
:103ED000AB0B60822C56EE5A4D7DCC1A87FC44E425
:103EE000D310C0C56A0B15F5E998BB089598A9DEF3
:103EF00082A6FA452006A8FFE14A9DACF185C808D4
:103F00005E48AC41EBC8B0202EC8E250E3F45F80BD
:103F1000CCD466BC786BD3F2BFAE8378400F60CA56
:103F2000803CD3F698C082BD6BE24ED3E0F880F3BC
:103F300035F2E7FF14AF9FC97E9C08F371B397D5A4
:103F400006F57FEBF208BE9FBE1CEFB545CC8E0197
:103F50007910B30384A069E9D212E09408EF192F15
:103F6000FDCCC80CBF19B5BA44C0301AF3308089F3
:103F70005E6B31F258BC0904818CBBD121C899C653
:103F8000A3F67EEDB6C833C8D0CC021BEF6805A9F6
:103F9000DC0468AF12E66043686A1000EF2EB300DD
:103FA00030D79530A0ED3416107F22230A3FFBA1B5
:103FB000118090229E142F4503081C0DAEB950C8E5
:103FC000FFD9D9A00107196C0B92C7FCFDD7372C7C
:103FD000047030069C30AF884BF204DD5F5A984184
:103FE000EE2D835FBEFCA250FC9A60A807E25DD66E
:103FF000024002D3823099C003B215C7ACE4747298
:1040000024D78B30AE45CBC8FD980270C624C60BB2
:1040100003420D1719B954F88445D29506DCC95DE1
:10402000608C2E39F21EE45D83641059877119117A
:10403000FFB3FC3030C2347004C197B3A56924A724
:10404000499A048DC4F46923BDC4B3C0ACFDFAC859
:1040500002200140ED51647E8C88EF2E98095D04AA
:10406000F1222C80098A722FB301980169C93008A6
:104070004A5ADD10AF91E03F4C84C801E7DC0248AA
:10408000081C2142E6EC51B0B3FFB3C89016F0B85B
:1040900030BFB90F9768B075A465F565C870431A4D
:1040A000052F196D989002393068FB403C8005F46B
:1040B0006F52980170F0041ECCC63809E4F5B910AF
:1040C000D8F8F7A6E9E1FED27F4B0AF2F95D0C7F42
:1040D000DAC27ECC58FE9A16FF8C2433F518BB56F4
:1040E00028A8C6FEDC1803E24F92E8FF804140EDAD
:1040F000E844C0E4E021C3C4065931978B3D2EB398
:1041000041DBDABB640269CACA84F79816C208F9AF
:104110001901130481E0E28530107EC02218090BDA
:1041200000BDD790389A10F92C6CFFE2B3FACC3F5F
:1041300071EC3271D3FC5E4B2E38E58F40DCD767D3
:104140001EF3DC64F23021CC04E0CC60D3C8FB3039
:1041500090FFC4D6662062F1B8C7CF66FBCC63C6B9
:104160001C6CD3EBFE7C6EFFB7CC33FF7652CB6C6E
:10417000E681FE68E2DFECCC952C809E1B6EC6D9F2
:1041800070FB00515C510594446799721F8A6CA0C2
:104190006536C6B1FA35F6F979218E34D398FF9297
:1041A0007ED170D69A432C20B22A377F232C4038F8
:1041B0000B96F588779B4B194284F1A778B926377F
:1041C000FD5518FF91F692EB84102DB8044644A6D5
:1041D0006C5A4B04F3526397B8A805FF1ECEC3B2C6
:1041E000065F6B10080201285FF86598A5A7A3E198
:1041F0001097FBE96C6E25288D19BF67082C935921
:10420000CB0162BE7D6EE2BD10BCFC670BD2E91E25
:104210005BAE03FD8DC6B04FF778F0FEE9E9E4022E
:10422000B99704616DB3FAADC204020D891EAF3BAC
:1042300064651DC4AFFB894808E10450FA84F1EFBE
:10424000C670F922F2B869D0950316510B11B3DF8D
:104250007F64851329CF79D0C1FE60A10176C5871F
:104260004818C60C04036D90DCC030E59812328CFF
:10427000560873B8C07099A0FB34FD9B9BD00A44CC
:104280000AA0CF5C43A1401C64FF800C3048FA00B8
:104290002820429C296BFB423F5621200F40CABF79
:1042A00001DD2E840B908832630B01AFBF480734C9
:1042B000264C7D3C3C440122FE5D0360080C4245D7
:1042C0001F5B28FCB30A7E87BE12893A0C01B1023B
:1042D000AF38ED4B8446DADD3B82D4AC80E5043860
:1042E000FEC9116BE1FD87CB4080F27F5919049F15
:1042F000256FFA4A4123E54575F0401083B4E1D4B7
:1043000038FD30D4FFBC54CCF1AC37DA88FCAC8D2E
:1043100010333CAF618D1F3F5660B7FDE97EAF6A39
:1043200099B10493C3432834B3FFAFBFEC7168F96C
:104330009EAFE6358E5A4F809850545A37D378192D
:10434000B346A169E09EED6ED46EDF5F036BDDE6E0
:10435000D8F98A18D99910E6CDDCB35E9965AD43DA
:10436000027B1710649774596DDACD67FDC7B9A841
:10437000B24701D1AA50BDFE81106DB6E846645B1C
:10438000017E1B046FB2B3C88F7AC51B4560FE71F6
:104390009EBA14BC9DA6CC5B18082F7F103C7CF500
:1043A000DC85CB6C16F0FF84EB05B3D5F844031A1B
:1043B000EAAD594E802E560898FBC576BFC7F21855
:1043C0000310FD56D8E766989C42BEB210D6B820BE
:1043D0007AE6F9C67AD7CFFDEA40887D7C95AD5A5A
:1043E00058F984466E24BC67A093284B381904857D
:1043F000FF98BAB308CB22492EE35D1E335F00025B
:10440000ECA0FA63CC15EFB150FE6C1F58FD6DB7F0
:10441000806305A9B42173667A42FCCE3345D67712
:1044200002623110E3B7146C8C88FF617108614E31
:10443000DE9282AF982DE5375034E73F0CAC166B17
:10444000ECBE95011091E54CC63062C910C24F0A0E
:1044500093C47FFA10D808FC9FD868E7EC2F01AE10
:10446000ADF536180158FA6587D06FB3B6E6026528
:104470006E34048CF55F8DC49BC2C8F97CDEB340FA
:104480004C2DE27408D8FC76EF0440A0661AEC14B8
:1044900091EDD84269C1E1C07A0B08E6E058FE927E
:1044A000DD20CAD9882146E6A235D1CEE59108E4BF
:1044B000A3BC4AC711C9D2EF1DC687AFEB10045089
:1044C000FAA64028143090BD50210A4C24F390CF16
:1044D000E062D96002203DE940A808CD6102C0AB8E
:1044E0002F60108E40FCE0C30418FF1A2A850905CE
:1044F0000C25E1A0B2E2A2867CC1400D20C8FA0FD3
:1045000041108018168919BFFA420AD582317CC33E
:104510001A122804A099C4DE499F49C418E6BD3088
:104520001903A6605365064CC8AC80E7AB440CACDD
:10453000605487C202C750423EE90C8148A0BAB11C
:104540006DAD20FE532522AA3004C9C9CE996BE275
:104550006853CBF5F40111DCFDBF07EA3B0BFA8091
:1045600023E96AC3416FE52C9621FE866ABA0505E8
:10457000F571D7B692AB98416EC690FB12BB5558F9
:10458000B0FB9FAFCEFA96FB4134E5C96CF098FEC4
:10459000BF33013675C735A601285619CA6CCEF04F
:1045A000FEFD372258E310C1B88974CDEBCEC0FAB6
:1045B000ED634BF1D6CA82FE472D8A9689024A499D
:1045C00020C437B56079C3FD02CB50FDF763C97EC7
:1045D000B1C2EED10A0264BACC02C865CEF8FBE8DB
:1045E0008AEA1D04C495AD40E602E01959AEDEF832
:1045F000F940C739D2406FE6A93DA6F2FF7F5E9D24
:1046000079B39BA65F6A9810C4F309046EC9D9C038
:10461000F86D878202B0F5367A5020E3A037ED6C52
:10462000CFF86C99E0FC7F6505EFBF1B13A54B0825
:10463000A9AAF620C959D070DDFEB044A7363E8441
:104640006A8CD8C77AB18C51EFD1C00AF371138844
:10465000B1D434FF6789FA06D0131840E2012C0464
:1046600091F33FA200C0448A48858801D14D243689
:104670009FDE5B340626F7A42821018CA0BFA7D1BA
:10468000F9020A420328D773F398FD68871D6D75F8
:104690001BD5FDAF18F3A7ADFC30FCE3507CB4A5EF
:1046A000865903755A3DF31018F8E026ED06EE1E04
:1046B000158338EAE08110F906F1A7C0C0035DE177
:1046C000D841308BB3800747FA25D30CC008BDB35F
:1046D0000B8E641CB3F8B0FB1A844CB301C411C137
:1046E000EF0A44719AF9881042220AEAD68111D958
:1046F000AFDF60EE300820FC41139B33B3459F666B
:104700000412058B4025C9867A4BFD667E01B38273
:104710001F41102103818C1401320806B3644E60DE
:10472000622A043362FF3F20B512EC7241CFAB9195
:10473000F816C2045A6F437F7330EB01E8FDA60AF6
:10474000465078B0C002187A0F601643368FF305D2
:10475000E0010D670DB4E03CA7E4D603E052E09B16
:10476000C6F020BE424EEEF33D2025FC11E31912A7
:10477000F0F80CD0D6FD3476FB423FF20110C38F27
:10478000DC1464892C05AF4CEEF331C2FCF89A09B5
:10479000F526D77C051201BB08F3F90A69048511D7
:1047A00012CC6244E421B3DA99B40920C072F78BC9
:1047B00078E580080509F348020460EC4299373433
:1047C000629EFB7A95A0207CC28A40010935EDD219
:1047D00034807B981A458591114B7F34386740E0CF
:1047E000E6822212FC500C68AFD0942668EFA744F2
:1047F000378D04301A0A25FFB697D19A98F9C51952
:1048000059CB6D0C52F8166A199FC2666EBE0CE742
:10481000B9B0F860269FB8C097C0838EE0F306F465
:104820008B96F09F0C8AF3339879640833AF30FB92
:1048300010FB0360200C40FE9C88C6FF93F33CF6FF
:10484000F877E3C04045885EF7B50A409684960540
:10485000D529A96544B1B8264A7BB30440245466DF
:10486000096E020A8C46F3FF04FBFC8011104140E4
:104870009FC293092101044254A6BC98BF5861DC31
:10488000240C9967FB98B040CB20C083DFAA881125
:10489000301226705480B316810578CCB9FCE03212
:1048A0002C536B7216CBA5263B53A0EF7598D00204
:1048B00078F3A5F320623E98F805F12006C81A782F
:1048C00040ED843CDDA4D31EC4160BE0FA012D108C
:1048D00028FC22B67ED0180DFA4451FD66FFBF6257
:1048E0001C99B530F6782140685A0189E2F43D2FD1
:1048F000C6999EFEFAA0401045E006123581CFED24
:104900000506C0825FFB5DF44BB3093F668AC04079
:1049100050694A216680D3348BB3DC5E8B60019E84
:1049200019B91038FD75E03181E898409F130C08E3
:104930008122017898FC581B408108049BE2C60242
:104940003B9F300805800214039248176841F52107
:10495000023004D86D48394440F1AF0D1B6BF0FDB7
:104960007E97CBB01B4EFA9810B8F758EF9E917215
:10497000E4BF91988417F331788020F5A0F8F5AC66
:10498000FCF98004590354950F46E36B431E5E8B7C
:10499000FB100C84813C38B7FE4FFA21930403606E
:1049A0005EA532F388D0B90381B940761CEE08A821
:1049B000FA65974002FF067A8149487A581AB3B7D8
:1049C000040380112C92F46931CFC910B301036440
:1049D000E50A0824B33CB48280600260D3CA240193
:1049E000F3F8FD8411941092C2E094B7A4818B0176
:1049F00008C506C0205864410246D8A62286FE4A51
:104A00004222C848987FF7410444840580EE10068E
:104A100008D45D642E40800546F4AEFF2F4A15E2AF
:104A200026DCAE200B677230F02AE7303810018D9B
:104A3000600C6710B423D7CAF0BDA50378400FFE01
:104A4000987FA16B38F903E2012DE15EE5BB30CB25
:104A5000988F1336D1F598218A7898D7E720603758
:104A6000085780D7F8CBCF724E808A52126FB8E6C3
:104A7000B30804EEC41793EF812884F398B3E3607E
:104A8000CC080CDD32167FCECC4724C27C00080354
:104A90004002BF5CCB4BB5B08AF497F3E11218F932
:104AA0006411319943C221E21364104024D7349237
:104AB00039300240617D1CECDA9420EF4D98483B80
:104AC0002679E7DAAA2F44F298E6D9206C370DA0B0
:104AD00005DF35029B2E1051FCDC6E266997BB99D1
:104AE00014C4B0747F99A13E7B7F3E732010F8FD03
:104AF000E0143CF5C5C24018F0AC1792A546F4EDA1
:104B00005FEF11EBB8083BC3989CCA07C2D7B1C08E
:104B100083585C3D959041E08BFF61100E80811CB5
:104B2000E92068FA9B1069EE0101444C956622A9C0
:104B3000D6180A20B958308F177DDD85F5F9F2288F
:104B4000E0764834018A5360F6EE05246B6DF93B3C
:104B5000C81210B830BE09EFDDAC0499C809A05ADC
:104B6000A285911267F89875995982FD870B11E01B
:104B70004084096222C69D831080DCEA831106D13D
:104B8000A0F9F7A71330230F22022CD733C81A1627
:104B9000E01A2CC4F3C8F045E0FAEC0BC9D50C714F
:104BA000D372230EB8300FD0FF80BF41E2E60783F7
:104BB0005DFD69E798170710309C0671B2C0961A20
:104BC000F96B799875D1F99B95206FFC28B1FB2082
:104BD000E6B001C2B9300B82601581751775B1322C
:104BE000B26041E0BC5FC47B640681C159F1080337
:104BF00060101FCD30C08838B262040D5F093012DA
:104C000050FB9EA071C2C0108B9353BC2119947E9F
:104C100075C85020EA9880EB5710F7E8224008BB8F
:104C200010DE981425B001B37A51175A44C0886831
:104C3000990DE60535A3FECA2F4832268BA68EF9BC
:104C4000F3B3175BFF80E69B40DB2BC8FDAEFD8016
:104C5000410CB9191E07F63A819219F2B3060310F6
:104C600076F3E081716732C0111003EF0698FD45BD
:104C7000FC900578B8576DB639B088FE04FF5E9B8E
:104C8000E80201423BBE79E065DE1844220A65EB8A
:104C900024CB9CB378CA42D2FCAF93B8455D0504DF
:104CA000E46419F5C8FB8490BA16C07B520B0181ED
:104CB00004BED9BD981897115A7617B1CF40B38466
:104CC000EB0616C0D19513B0418060916001460596
:104CD00049C3081040580FD3B8FD60AE01DDEB1298
:104CE000E5C5AA02222F16D6020E4DBBD7608965F4
:104CF000C876B1F42BC2D3AED777A09F98ED5E03F0
:104D00006233D370F8C33146DA770B30C9B2F5C4D9
:104D1000B93010A506C308C5D390081A703000D06A
:104D20000AEBD3F8FCC5DF5D6C4943E00A6BE09801
:104D30007D85040A61257C45E688F13016E090FC0B
:104D4000BB3D05B07B3E08401A0257E9CE6BD3E06D
:104D5000F8BDEC8606147DE460112A087C57E1D288
:104D60008210E41A518C35E6987FF87FA00804F889
:104D700026507E1A45006865E0A0B2786BD688445C
:104D8000A2EE0D603034E84CFC5BFFB762E3DE5FFF
:104D90000098C4BC98F52B84A8E8B493EB847F6F8B
:104DA00098F0FCC985ED307B835126356E06F0F70F
:104DB000EC36F3E8817A19809A6307C052AE03E0BB
:104DC00082B7F6064ADD08F56B0ECE9AA8F8285D84
:104DD00026D7193A68818C04FFFB24D444AF5014C1
:104DE000B40EE7B309D36581E5048B0811AF130F47
:104DF0005251E5344206D72BA608ABB1589C33F884
:104E00009C1130101EC00098372101040288263002
:104E10002242BD925805F3BC98133B2FC8EE8B423B
:104E20008447C8CC02417491682218C884191003C1
:104E3000895C033B8661F8B402B75B1EF9D00218A7
:104E4000200FA0933C0F19164AF340F39811CFC8D6
:104E50000DA0015F3C7FB698E401DC23BB1A8730CC
:104E6000D350FE5D9E69F08C1FFBA230B5B4087F65
:104E70007602804127DD1F06407D9975BAFE9805B0
:104E80007CBFBF66679FE6E1FD5E65341EC1B39BD4
:104E900012F14C8BA63F9B50040A604242E0A9C429
:104EA000337C40C816819134138CE1100534EE2018
:104EB000C2FECC612187D3BF48FA9EA0F38624109E
:104EC000E7702C4425779D98BEA14221026B64A017
:104ED0002C50EF62984184D022D3CBBB01C14CFF50
:104EE000C818024341280401FDA405140298FA0DD4
:104EF0002E4604A79FBCFB2C04CEF3236B463C66D6
:104F00008DE0BC6F035308CBC5FD330870FEDEA5F2
:104F10004D061E901FC1E5C5C7230A8EF3E39D1001
:104F2000E53010DB49426AF8BFD63035F0C0EE3BC1
:104F300081381048C6D3634CFA770699429A1AA36F
:104F40001A8121AF833444EEC08002E0275004F67A
:104F5000B02072B3517EDA20C0101248D37567B00A
:104F6000C82184DC40224881C8113F9FC8F8849042
:104F7000B02099BB87305804845C303AB64258015F
:104F8000300C46F5711731ED04222782E22360C907
:104F9000422CD3E0D246405B20E062391209B37F55
:104FA0000F309E1EC003865950B03E0AF0F38BBCF2
:104FB000D58CE6FE2F30D78805B878C40379770FF3
:104FC000F230F2BD98829A187660CE9B90FED7811F
:104FD0003077040320FC8425FA28182FC90EB8580E
:104FE000338E9FB8F65BDEA596060ABAA2776E7E70
:104FF000FAE03055C4D2B1E00C28A2E0D3D9990A26
:105000007E6C0E30FFC03041F22124C248C8D1B3BB
:10501000309F0A6904105102408842F0A020D8F95C
:1050200031113141D35104706C0C45999FA8C8448B
:105030001A40F20828148568CFE7302004B432986B
:1050400018907A49680441D7B7812212135A6045F3
:105050003FB8F6943B30FBF48DFE88B68C6AAE23E5
:1050600030DD11E53020B1A8FB3C79C2FE5D5D7BEF
:10507000D780FECDB9BC4265D500E12B468F50CA22
:10508000C8FCE8440D3C109DF1CCFD300801C07C0B
:10509000ACF419100462BEEB02C14042EFBC0C1E1E
:1050A000B0FDB85DEE574519A6BE0AB588BEB69EDE
:1050B0003742226210E30C636564AB0879304C849C
:1050C000C075C32364A2F2CA80E72F98923780D0BC
:1050D00045790A8AF9F2D601128609C2080BEB0457
:1050E0004C82D098406688DC60ED40C485B522379C
:1050F000084C0F089C064F02180500FE2111408045
:1051000089301272AE84982042F2AF016F9888FD08
:10511000FD6972DE98AE5A3C30509EF3025810077B
:10512000BEFF5AAE9A66A0AB68FD2D8007F0402DF9
:10513000D35839300570D3259A8EE0F698F8F9BA2D
:105140007E6FA642F3984DBFF320E85161661A0ABC
:10515000ADB3500BB38B38AE64F95F7401F9A82B73
:10516000E8EFCCFA726E0EA9FB17ED44647B3B812D
:10517000F93D26E7C14818206011A304E6CC669DDE
:105180002C45CFDF0993881811C50B40D30090E060
:10519000140459BBCF204AD48449A00738FFB1007A
:1051A000A3FF34B3CFF38931E3D8BBF968F05DBC1A
:1051B00078BCA8CE33F38CC2D0E04F37F360A81888
:1051C000FE304112FFA4A39DB138F9248646667AC9
:1051D000D341E6D3BAFD230B0F7B2324FF35918007
:1051E00077B67670FCBCC1623B116246B5261B6D7A
:1051F000FC7B58FFBCCBDECF3F444C2857E81FE078
:10520000D8F2D9D3044C97E1FC46087FCCB981D3BE
:1052100090B8FFA2D58FB0652F3310313E332BD31A
:10522000E001FE4468569502BAB0694EAD30F8CB45
:10523000DA6DFB1D1DF5FC809AEE657F91C8FE7E40
:1052400059899E1A6EAB0D9E1964A6C303A710EC74
:105250008F84046C339B88664453D931290479A226
:105260008BED96BAE1018DC59AC2E8F8F9BFEE6DF3
:10527000EBF5A02BD6EB802E13BC20B056C6D9B0D0
:1052800025E9967B6F6C50105BCD9ACD00BF1C1149
:105290007E4B6BD77230EAB1F044AD41F12F8BC336
:1052A000087887EFD510043300F4155B92697DE030
:1052B0008356EF83421C84C4E0F9A2E06CD4A54479
:1052C000C0E81043F7F3815A1C4DD1018888F8E7F4
:1052D000D1E8086DE6FFE4ABBE0DFAE01BFC60FF11
:1052E000AD0186A320800A503F0D70038C406CE115
:1052F00090C035FF0230001D2003EC678E14CB8078
:10530000147CE59401500B0D442B2475A0855FA2FD
:1053100085CA5AFF23400680300C20188BF8E5FC24
:105320000A52214B946AFFD73002D1810C4405E028
:1053300026A064C448E201520891F318877E6205F2
:10534000848040097F41410D0CA203609F08F859F9
:105350009204139E48D880052007ECFB0A72804215
:105360005B5BF2EF02F3F7C546EA8CEC803924FC74
:1053700043B3FB826DEEA5D0FE803BCD038BB7E53A
:10538000D0B9B758D997C7CCDF0244C0FC057F1706
:1053900093DC92F32B84FBB224FD15F5AC8069C439
:1053A0009EB6662DD402454720ABEF30FF62BEB2F9
:1053B000633E93B2408CE9AE6FA560FB5E24108E15
:1053C0006BC254F8F51F218DF50E96F2B5025EEB17
:1053D000F8E7B1025DD89D04D24880DCCFD5C14842
:1053E000BCFBE3CE16B9A01428FF0829D3DBF37861
:1053F000FC3BEDA2D6A310132D1A08D6C4FA70EE0A
:10540000DABB40F1338EEDD5E66F5EBA9760FE02EF
:1054100009F7046618AEE1B9754193F6B2BA847F14
:10542000ADE5F800493097364520E42D656767FE05
:10543000D0FA707B66E2E78E8C9567EE7D583980F6
:10544000B7B67C58FDA698172DFF084170DB020EF9
:105450009A7088FCCA25588901844BB6102854C814
:105460006C3C98FBF3D60CCF55DE9690FAC696DDD1
:105470000436ED67ACFFD8F166166346C837ED32E7
:10548000F8FE88FA2C20C7D62A0279531717D87F3E
:10549000BF9860F9049EA7ED38FB40196A0580AB00
:1054A0006612D0DB0AC57DEA406419DB4D2EB0FAE6
:1054B0002FEA483818B3C7D41480301D889A61F594
:1054C0006491F125D1BEB0493633E651799FB22BB4
:1054D000C06DB3443F5D207961A28341D0CAD83DFD
:1054E000CF4B4E04833F8971CBA09BF8C3203890EB
:1054F0008EB12DCE3182FE3784FB7AB5A8E093F9C8
:10550000FB9A129108F2DB64CDB0D3A3A8FFD8C9EF
:105510006C8EA0FD95A301AA8702DB2CC655AC902A
:10552000478CAED0A0FDF409BFFB5338F82088C2E9
:10553000A2D32F2EE3178BE4259BFC9DA7C68A954B
:10554000E9CA6012BBFB27FCA306C04FD122C8B337
:105550006692814BE3E45C80EF8EE0F09D05D08A9B
:105560007902E48AABD682406D324173E0204E5B13
:105570006CF86007AC2601F334200A50EE4A034071
:1055800080C0A085CF42E0DC601A20FB03188001B8
:10559000103466BDFB8539C89404DF3EE0022C80E0
:1055A0000D7EFB1E4008185074C842214EF388FE41
:1055B000C00306F2A0814FBA4018459728F58D81A7
:1055C0006251FE0FAB0C06161909CDF7A08096822A
:1055D000C70710E3241802FC25004581D01F057978
:1055E000431BC40A163FE58409312106ECA0FE40A6
:1055F0008DA3ED78CDF23EB09B08100813E519207D
:10560000A7CAC7F357C941DDDFE70EAFE8FBFD9A34
:1056100044A6F7CC01807EB2115EEEF3629E067E58
:105620006FFE84FBC35D81438201A7F2BFB0FCC261
:10563000C2B5FF14B3F728206675417BD98CFA6296
:105640003B5C28143F3363793C60F3E63F533F42B1
:10565000F138B1F99D00FFC6F7E10867732B101808
:10566000B8FE92CB23976BB21EC54F01F220F323F5
:1056700012E65E68F8CB589F01EEDE0154409818A0
:105680009F360CE8FA772CF0802ED51A10BA814894
:10569000E3197FDB900CAC0C0157547740CA111909
:1056A000C58680C2F4B3C5323CB6D3C53A65CA5A82
:1056B000D008FE0C403B80D3A519809DFD450440D9
:1056C00090F5639A616BE605FF3DDAFA80AD9310C1
:1056D00014AE20EC6117A33808C5207FD99E3AD2BA
:1056E000D8C8FCFE5997FFFF62FA43D8ECFABAB368
:1056F00020C7F22CDFD664098F1268FF205049239F
:10570000D0FC334B28FDA05EBDA426E750D6072170
:10571000AC9734E7BDA00134E88A4614BB43C7D731
:105720000D2260210697189CF3D3ECF8FD80A37539
:10573000F6C7DFECA447D84B01301B06C044F40C7D
:10574000B6F3F5C560DEAB32E6C8B38BC96911C6E6
:1057500078289DF35ED3FD9E7837804130C454B3E2
:1057600010B379C02EB30843BD18B503509988B360
:10577000115FB4F6AC7FDFF4FC5A436813E911D82B
:10578000B00883B30216DCC188F5F3210C10447E07
:1057900046B21142B342FB5B65C716029B984E505E
:1057A00044B312D0FB980D63A4042C98FFF46A3024
:1057B00040069E49C0841C9C487C46C058585F8B5C
:1057C00060224084A789E3F9E04138AE0730B51E76
:1057D000D3A5C0E09901F305FCF21EC40219D06CF8
:1057E000F33CE16623992CE0D0F8EEC0037926E083
:1057F00016F12073D30378F3A09D0156C8F87D6697
:105800007DDC0B53665EDEF90146D8100C9713CA97
:105810005404C2726660EFD19F31A97FDD036268D4
:10582000D3CA78FAF41AB34B18155A6694BFA34F2B
:10583000B3A360018CEC888530FFF8CC09A808116F
:105840000E2CB38FA904F43021A6C0839D234F8C66
:1058500010DE98CAFBA0E3D4B988CD1B91E2257B6A
:10586000C58906CFD0025B1101214B5A346F36E255
:105870007EABA40134C006D8D3B3234DE314BB8858
:10588000B5AF08E9984D7783057480FB8F465B219F
:105890000236CCC080DD2F6FE6E5CB0D86BC98DCF0
:1058A000EC593407F36B50B0F9AF80BF7FDD5E0376
:1058B00058407CAFEDFD07C17C98EE33784566DA41
:1058C0001EB3939220C0EBBFF9327FA52440B330C2
:1058D0009998FDAE050468B5DF21C10180AF45167A
:1058E000D8F39E9801C6667F76AF10849DFE47224E
:1058F0007CE077228B60494C79A9F61BF90451BFF3
:1059000032E4615001A1FC9608064102581A881B36
:1059100085F3903CB47BE00216C4FCDB8782B506BD
:1059200016CAC024B243F32C23667449FA609FEB75
:10593000073140DDA548200B78A5DCF3B0F37FB636
:10594000282C107F3BB62C9005DBEB382086E0D36B
:10595000F1FFE7EC200FE63C08CB10FFF55666019F
:10596000515F01FCEC0120D7F383D8AC9F5217297B
:1059700004DF95E910D257C61166345A88C6D7712C
:10598000FC9254B34878C01220245C800531DCF3CB
:10599000A069E960112CD21267BDB3200424C0BEF7
:1059A000FADA2001A006B363B30AAEF4640478FD0A
:1059B0009EBB8626F65B0C2C25BFF39A238140ED17
:1059C000370D8A713017E0E34209E9114DD382287F
:1059D000C6ABBFC24D30E6057698FA5EDE273EB410
:1059E000C0DB652BB6B10AABF80525EC0C7788C493
:1059F000A9ED15F304FD0390FEDEA516C04A238E23
:105A0000F5988210EDF3AEAC9944E9413867A019DE
:105A10003857075F64E498834DEE40067D25A7B2B2
:105A200098D8FAE0EF7598280240F1FE308005051D
:105A300043908C93CA6820B3FB123BBFFE89B488A5
:105A400016C09C44F72204382CA58BB684F2BB48C0
:105A5000D99830FCEE1309165CD72E4FF2987A7560
:105A6000064842580CA7C538CA770E40C4F3A58231
:105A7000843FF3020406422277D67F53958658FE70
:105A8000EF60803CE130DD7F82985E98131EC89FF6
:105A900003A30FE0810CB3107509210112D3EBC0F1
:105AA0009A830BE8F9DFC626D3F0782E0322BD983F
:105AB000402E66F1A5BD5EF2AF5014989FF35E983C
:105AC0006C2567F46406C0A02804C65EF3D3BB60EF
:105AD000EB2870A2FE2F88E2F768B32140068119F7
