:100000000C943E480C945D480C945D480C945D48FB
:100010000C945D480C94644C0C94C84C0C942C4D7E
:100020000C943F4D0C945D480C94964B0C945D4899
:100030000C945D480C945D480C945D480C945D48AC
:100040000C945D480C945D480C945D480C945D489C
:100050000C945D480C945D480C945D480C945D488C
:100060000C945D480C945D480C945D480C945D487C
:100070000C945D480C945D480C945D480C945D486C
:100080000C945D480C945D480C945D487F7F7F7FA5
:100090007F7F7F7F7F7F7F7F7F7F7F7F7F7F7F7F70
:1000A0007F7F7F7F7F7F070007047F7F7F7F7F7F4A
:1000B000077F7F7F7F7F057F047F7F7F7F7F7F7FBD
:1000C0000F7F0E7F067F0D7F0C7F7F7F7F7F1F7FDF
:1000D000177F167F157F1C7F147F7F7F7F7F007FB8
:1000E000277F1E7F257F1D7F247F7F7F7F7F187F57
:1000F000207F217F267F227F237F7F7F7F7F7F7FDF
:10010000107F197F1A7F1B7F137F7F7F7F7F0818E7
:10011000117F127F0A7F037F0B7F7F7F7F7F081015
:10012000081F097F080F027F08197F7F7F7F7F7F6D
:1001300008027F7F081308117F7F7F7F070C087FED
:10014000017F080B7F7F08077F7F7F7F7F7F080706
:100150007F7F7F7F7F7F7F7F07037F7F7F7F047F1E
:100160007F7F1C7F1B7F7F7F7F7F7F7F037F0810C8
:100170000C7F247F237F137F7A7F7F7F7F7F08110F
:10018000147F081908200B7F7F7F7F7F7F7F7F7F11
:100190007F7F7F7F7F7F7F7F7F7F7F7F7F7F7F7F6F
:1001A0007F7F7F7F7F7F7F7F7F7F7F7F7F7F7F7F5F
:1001B0007F7F7F7F7F7F7F7F7F7F7F7F7F7F7F7F4F
:1001C0007F7F7F7F7F7F7F7F7F7F7F7F7F7F7F7F3F
:1001D0007F7F7F7F7F7F7F7F7F7F7F7F7F7F7F7F2F
:1001E0007F7F7F7F7F7F7F7F7F7F7F7F7F7F7F7F1F
:1001F0007F7F7F7F7F7F7F7F7F7F7F7F7F7F7F7F0F
:100200007F7F7F7F7F7F7F7F7F7F7F7F7F7F7F7FFE
:100210007F7F7F7F7F7F7F7F7F7F7F7F7F7F7F7FEE
:1002200008277F7F7F7F7F7F7F7F7F7F7F7F7F7FAD
:100230007F7F7F7F7F7F7F7F7F7F7F7F7F7F7F7FCE
:10024000017F7F7F7F7F7F7F7F7F7F7F7F7F7F7F3C
:100250007F7F7F7F7F7F7F7F7F7F7F7F7F7F08158F
:100260007F7F072408057F7F7F7F7F7F080D070B37
:1002700007237F7F0713071B7A7F7F7F7F7F7F7F27
:10028000071C7F7F7F7F07147F7F7F7FFF1F627F39
:10029000C23C006088FFFFA0089001324006C8C63B
:1002A0000019FF03050A4414812241CF068AF32076
:1002B0000366E5A00C98EC9AFFFE0C948132500680
:1002C000CA171928039065E069A9C688CF0098D39A
:1002D00064800C3EB9C0FD00142602581F0B60015B
:1002E000E12C8004810A0F027034F340F3C805A0AA
:1002F000E6603393B312E05030DBC02128B45CE0F9
:1003000050D39834D3B01316B99884FCC121FF9808
:10031000B1FF74E5100C0240667AEA4004080C0153
:10032000206D0480A2E008CA67E4D8F9FC201032EE
:10033000E540E5D5C78025FFFB1CD8368CA8CF1932
:10034000B3231516E5D0060A23C116B41420ECB465
:1003500041019E48DCF8067B8E0229F0B701F8E7E0
:1003600004E80921A318B2980D6E50F8C013D640C6
:10037000881484FB97BD20A67D1081220E240817C7
:10038000A1FFA0CE4194F2502866D213DF8550E53C
:1003900041CAA50ADF7140A81104D9CF67080280BD
:1003A000864CBF100BCCF581F904B5F740E80D334E
:1003B000F32266802560A0CBCB83D9EA3020DA37E0
:1003C0000808AC0F414FE5B435DFF82F3916DCA72C
:1003D00057E49AFBB34DA007CDE00319C97038F07C
:1003E000E5C0401CF611F0E29CB7D2C081B33040AA
:1003F000FD49D00FD336F607DE8043D3BBF84080EB
:10040000CAE374F00B6820EDCE8490F10412F1BAC7
:100410000A2C04D5B3202D71167FA4093BFDB088AA
:100420006FE7104C04A64248E3FD80082F86369AF9
:100430004762207E9034212640824A60EE60442C40
:100440009690EC77E73405C344C8F0201841080DB6
:1004500097042D85267FAA2C4F9702A8FEE0CE8117
:100460000C26B020723E0378634EDDF307F14C8317
:10047000E578CD3962F3209AB39360FDE0F0031E76
:10048000D05FFC5F7CB73CEADD450C1C97F0662E24
:1004900012C1FAAD3FC3EB9FE80D66F3F32BCD6CB1
:1004A000BF6C0281C0180A03DBED7254B20C19E074
:1004B0002078FD5729B45EC022C7F360122C02EDEC
:1004C00040E506C010D3EBB38810F44D110319C4F6
:1004D00039B34013BBAF28E07F0426B74019A0C44E
:1004E00048FAAF5068D2D0407168E32D76BD9822AB
:1004F000BD5ADFA8C70102672BB301ED5256F44580
:100500008BF9044F7098A008343624F8C2EEB8D99D
:10051000C681368604FD606A3A6AF8D986815E40F3
:1005200064F4E5E0DF41306BC8FBDC588007E0860F
:10053000037726100E17E8AF9818F59880BFDBCD2B
:10054000B6F784014F1E258EB620FCB201E3B388B6
:10055000FB6705314610202B9EE5D92817EAAE9897
:10056000181BC3C8213FBBB2802171A6CF65894447
:10057000E5B3D213FD1D22BD98580243068280D7F1
:10058000EB32A93886020575A49AFFB711E903C8B2
:100590007BB8C00268B59F88BC0181FC60AF414553
:1005A00098F05EC55EA545BBED984016FEC5365673
:1005B0003C73B4E0014630AB500BD6FAF08F5F03CA
:1005C00060010C8920FA7FF7F94080FBC504086BB5
:1005D000E698BF8BB330CF193244BF39C06CE64CBC
:1005E000D301F928513A0A40FA3F5EA311BB77AF15
:1005F000980201B33267FA9705BCE1D5F548B2011C
:100600005FB340010531200FF8A032F988C953FDCE
:100610005121817219066FF50A2DDFB1981F1598C7
:10062000E2E7822D442517E384BFFA01A044B420F9
:10063000B0B1FD1E2350D44F8F1210625C2F64F1B5
:100640003092E05EE5E1D0FCC0661C102620FDDEA5
:10065000520C93BCE0D84909B3F8623D64A007038B
:100660001703FFAC38106DFA240CF498206EF924AF
:100670004402F24E2DBADEA128E79BD0F5059895ED
:1006800080092CF1B3EE14A2C115F2015BCC048EEB
:1006900064A6503079C1FE04100AEBC68024DD3414
:1006A000601048ED66C218FAA4F64C8211B17A19AE
:1006B000887ABC26C404D2CF19B6E3B4FDDAC008E8
:1006C000209A81FC3201D8F9E04F0D90067077EF47
:1006D000697ADA7BF08B171636BB0FE021EB986056
:1006E000C5E064FB667816B6F3F7983C20D095F821
:1006F0001BFB9940C8D649F3666EAE44B3DEC5FF16
:100700004CFB1CBF83DB98300827D3981019FC5989
:10071000C29902ED82F1C12361A12C4CA75DDE7F5D
:1007200061B140310F2E4B693046C1DC0B7FAC9874
:10073000308F71981005317E90FE2004341E00D059
:1007400070AF4003B0420D9FCB30248665A1A86CEA
:100750009812E4B309A2DE382ED3115664FD801638
:10076000D222FEB68F2010F4042284F94668A07FBE
:10077000DF12C430AF6A2D626BFFC27C8070F30C55
:100780004CDFC04190C889A9ED5BF0CB8370B35EAC
:100790002F30EBF170209630397FE97F40E0E0A107
:1007A00080D3F8FB0EC8013008C5B3C36BE7011155
:1007B0000388FE0205BB93C1C02498F62308404C71
:1007C000BC3005C48868B384F97D047FEE96987FB9
:1007D00039092090300216C879197C87E6A6405363
:1007E000194947540348808F080CCA1084D4CE9B03
:1007F000480840D3E668248CAD34CE67B320049D0E
:1008000026D409A7BE47A4010204202D82C24FC4EA
:10081000B9180AE4D9FCE023AC93E6F5C003530F02
:100820000BF2E82C1EA195F32CB10C2E683007308A
:10083000D3B9FD0B5C1047D329E978D301951DE5A9
:1008400097C871F6C53FE62BBB962BB652EF0CEA64
:10085000C43DE50144E016B704CABBEB734CACE8F9
:10086000E9C899F8E012870614A558ED81FC5D6B84
:100870009AC802E230F36B378B7DC4E5E045B51CC6
:10088000EF98A8113010ED24800459B311A1D0DAEB
:10089000FC207B429A401269BEEFFEEF45281A12F7
:1008A000C6D399C47F7F266BDDF50502E295383605
:1008B00003680720A050F6340158FE85E5E9E503FA
:1008C0002647A88BCF665E31302E5E35061C28C1C8
:1008D000B5D79710036982727D08B830BB91E0B834
:1008E00040B3060E48E1BD546B9DC881389CB428C6
:1008F00079B3FE2FA55A6B42F230C09CB3028041FF
:10090000FAB388FBA8096B9AD1045DFC62142D111F
:10091000E5181FB3CB30053FCE985AF0167B002464
:10092000201DAF17307EA40A410104B0161AFCF254
:10093000464FE9095F2240809A85F326F22B019FFA
:100940002CD782881950DBE3376944FFD56841FB17
:100950000490013620F9300338672D823012F710E9
:10096000FE79C569027A98790F0FE401766EC82086
:10097000D3F9BCC5C53C98F1F643970BF3F1306F42
:100980003C18107643C8F688FA0440BFB1A5813CF4
:10099000827D8DFD577ED829A79F98F5CDE97804F3
:1009A000F36BCA3003530188BC71FC5C5D4FC00817
:1009B000100913F640228C808BB358F6E3762CB0E6
:1009C0000823AB15A45DFB8C48A101B06E24908375
:1009D00005E6E5A8FBABB473195022E4133AC12530
:1009E00002F395BD98215D173DE44134049FF37FE8
:1009F0006312AD0427B0F721A0092DC7B5FC41E073
:100A0000A421146FBCFCDD8380C2A0B8D0E701191B
:100A10007FD02C39062EFFA5019140FF3478F1A735
:100A2000C67AC8FEC00A31EF159891DE170EE801AC
:100A3000EF3F986BC5C598E69C192DD33AF886838D
:100A4000D388B2A8DB40AF5DC4F988FE530C612B9C
:100A500010913D2309461E7F46A448CC0A9E801172
:100A60003002CEFACCF2E50696E1711BDE89046C09
:100A70007800794539CD2BFE999073D788580313A8
:100A800060F510842848ABCFC086DCCF8C1790204F
:100A900042622421758418B3C840E38420301B8847
:100AA0004447B38010810349FF87E03C83A0B01B1B
:100AB0001ED0DD037AC65D9E985C30FB400FE201DC
:100AC0003C12F098B70400D347D31AE0FFA903689B
:100AD000FA012C10B8F9D15A285C3D378C61F159D4
:100AE000BEAEDC0C310F42FFEA846EFA8480D5156D
:100AF00020B70EFEF381FEBCB243C00A1802EF1706
:100B000008889168B37720C00CF691202277AB4B10
:100B100051E8C8B3BA71BEA1EFDE12D0E84C0C099F
:100B2000316F48F8A05034F514C306215A4970308B
:100B3000C1E08A7FC204D90212FE987F35301A4282
:100B4000FEAC052044657C06F8FF1FF02DA2893419
:100B50003258FFCA8EE7E03D613F6BD84F553C21CC
:100B600041C579301871747829B6D7CDA408CB590E
:100B700068B8307C16E0401C100F71000E68775783
:100B8000816E6408FDE94071509EB444B319CF886A
:100B9000034C0C82419608F3AE8C0CE2409DB3FFEF
:100BA00024083966D0041AA3EF68122D35E7ED64E6
:100BB000017150886C95C571263CB3412308AF651F
:100BC0009BF8F3145FF3CC20113084FF97846D768B
:100BD000B65ABD3F101780495C03F0010208117F2F
:100BE00060414C2420B467A014843F8630FD62B974
:100BF00030108DB1826BDC6444808FB948C3F960DA
:100C00005C0DFDF04006D08278AF3B3030401E4C8A
:100C100084F5CFE330FC789D90C00378FE9847C6FA
:100C20008F90F362010CEB2030F9EEF9FE8418107E
:100C3000439369C430876D94F5E4622517F487E027
:100C40005A579630F3BE6B29C6D34080FA4A615B8F
:100C5000F9D9E859D57F1D30A655A0B319CBB648B0
:100C60005E57309333300110C024B5C2F866F909DD
:100C7000315AF3FF2084B44912C042405D40FD2147
:100C800024801406101F57D87B284C4F9230267EA4
:100C900040FFFC681241A2010462F7278A48105CF9
:100CA000308124140A4CEE2D30BC0C408DD5F89FB9
:100CB0008CC85419BC98FE08D55F39C4BFB50CA7C1
:100CC000F71F2060FE5DAB15C79F74763089FBF37C
:100CD000B8F01602E5304189EAFC06ED3B1D359B74
:100CE000E8E258FD97B8838EE68178F8B83BB7AB59
:100CF00040299EEA485C68BF096E292D95DA960A5C
:100D00001BBCF60E88ECD34E12768B602BD754EFBB
:100D100092ECBF90BCC68409322C5BFA1F0410A26F
:100D200046FF44025800236484240F4410C3224623
:100D3000D74018F332244CAF22DB4202F139BFFE18
:100D4000CB44C8041801BE9D2C8423D3269EC48A9C
:100D5000112102B830119817FF600F2D80C507B020
:100D60005C5D5EC58B682C30F331241E38BFF39672
:100D70003004A666ABABE8BC78B29B67D358D3C04F
:100D800001A62CF32016026BE303E89830A8FA05BD
:100D9000A67FBE80185FF97B23100646669E985F8B
:100DA000BF6AB3B55014B3E0D45D445A647FCDD963
:100DB000D3C0E6489C30D7C1FA637C0A17F5ABB3C1
:100DC000086F27F398DEB380812022DBCDE45AB38D
:100DD0008041F3989FB323408008819401E9B3D305
:100DE0008020044004F808310A58F80C6CFFCA311E
:100DF000B3F5FFF8657BFEEA7FEC3201E3F33CD00C
:100E0000D4E0FFB4EFF36E25D38880F9C2B5FF01BB
:100E10009456B80107C963E328FC30A866C71B399C
:100E200090FF15167DDE2DBB450475E030AA91605C
:100E3000DBF6CCFC28B5633F6E67F16DBBE6B8FB13
:100E40001201C44D447AAFC53ECCDBED7DF4EA8F90
:100E50008476D3E8FC201C7ECC80D4F3BA30F0D367
:100E600012FDFBC4CF24596388EB0120406303B615
:100E70002369FD7EEDE4F8F9CCC33159FF08BC5F6E
:100E800080FECFF51C18BA5601C5FF80086ECDB2A2
:100E90001112E398B3C110FF9DA720B8FDB7D17020
:100EA000F1BA8702C78C0451E0D0B1F803CD7FB00E
:100EB0000AB16480F71098FF2000C4ED4002907ED4
:100EC000EB3B1A5F7020F4DADE5EEC6C8DB9102714
:100ED000017386C0FC7A1E01D44ABCD4B6D7F3C9CC
:100EE0009BF301083CB381DBAD1781DAAE45085DA9
:100EF0008150A762A6C0FFE6A1616B247304885AE3
:100F0000A98489090CEE95C031FFC4484168EC09F9
:100F10000501EED36360B01432FA9404100103F6B5
:100F20005A05A11CA0D3CB06B33043B941E2F93333
:100F3000B015F98169FB8B2252027C559045202126
:100F400043567FCFE89B06921AC08810E4820012B5
:100F50008F604DC7C0AEF42A08041984FE8C44FF8C
:100F60003CAF168CE9F3B37FF60E02080121FB2F8C
:100F7000FB6ED9B604FF0C2CD1EEB664E8008C8E63
:100F8000D986423C55D9ECFE6289DBC215FF208B25
:100F90007A8AD0CCD3AF0AFCA0CFD69A38FF584A71
:100FA00054BAB18097A60478FCBC1046C28D372F86
:100FB000E2FDF3E46DB5E6F61294FAD5BB045C5499
:100FC000613EE34208BBA1D820CE8FF339FA7F7689
:100FD000A060FF472CA4227FED81CF3E5172246593
:100FE0009634D958FB46DB21E6E225FDCD01108A77
:100FF000EFE080FD2CF2118CFFFCECC8240422F3FE
:10100000F18CDB457B38DAFD20172C11F63F99FB7C
:10101000E5C01937AB36D3D10ABF1BCDFD661E899B
:10102000DEB040D519E8B0F9A3ACC87FDB83F8FB8C
:10103000BE7AC335C102E6FB7758B1AE6CF8046DD9
:10104000B64077D9CAADDBA0FC8EE5A39E076E73D0
:10105000625F326BF665139A17E5E5897F56A0FF4C
:1010600046787970188264FFDBB0FDFC7F266268E9
:1010700080C50F11F3C2CC6A415018646DE385DB63
:10108000DAB30509AFF40C7EDF4996B8147999AF4D
:101090002D3F82B8F3B2EEB26968FB68B3D7EC1AA1
:1010A000FF31DCFFA374CE2D65D0B3FC0E32CB191B
:1010B0000C8F070787FD63FBA063E6A9FF04DBF045
:1010C000FD9627DBC864E805B76A98DAB179B17E86
:1010D0006D459BE49825B3107EFCB4EF3608802361
:1010E00016ED2E08AAFA04D0208DC035BAFB0A816D
:1010F0008FF5D0E968DEDCAD46ED62CC110420A5A9
:10110000D8B501C4B3C66AD85AA3C30CFBE38001A7
:10111000A04A30F6D192E87A7484E722136007EC93
:101120006285A04FBE5B2480044078D560010C63CB
:101130004088A630B3012114424F050920A0A6F92A
:101140005C088294DD4759CE1120E8D2803F181206
:101150000491E1A5241492067FBFF3200604801FAA
:1011600030134240C018193C66060D4187800A17AB
:10117000450C26AE4F10BE321E0802CEE48E82B160
:1011800090BE5C7D0829BC8059BC4FDBFBE5A8FC08
:10119000438F5D3F25F27541A2F2F733ECF41598C9
:1011A0008601408BF03C221CE4787944C27FF4DF56
:1011B000E8FCCB617ED908E6D39F28DBECFD1B66FB
:1011C000F0DBD89B21C1A3FE7CB202BD081064EE07
:1011D000E3FE8F09EB14BE0DC6BA85C7FA5A7074C8
:1011E00058FA17DBFD7884A38CF6192333E2153FF8
:1011F00013FA52B8FFF995A8A040D96011ED1CF37D
:1012000088208FCDFD7B028C7D2EFC95BF042D4662
:10121000FB58E0B2FF4CE027D2A6E342126E4DC865
:10122000F8335CCFD330E1BF9B7870F8132EDDBC70
:10123000A439C434FDC609B5D0F964192DED8B0667
:10124000048D9F67E4E7A16FFBE190FAFECEEDB15C
:10125000048D6A0F08C497A601FF32FE406CEC11A2
:1012600018D843E6AF32DBCB40FF79557B091A47EC
:101270001E6A47110BF5EF13EBFD29388264B7E4C2
:1012800030F8A7D0D06808103FB20DA0893006C052
:101290002010BF1AE3EDEC9014E717801130393FAE
:1012A000C010965D195EA0FE04820690100A40BF31
:1012B0000321D1300919FF7F2DE0D787302D8A18FF
:1012C000BEC6CFE7CA81301046D3FFD4D11006FC8A
:1012D00010A8EF74BA84F889F6311CEBC00360D90A
:1012E0003C010CF0B4C052B303E010CD18B3E03CA5
:1012F0001B06E18783D30CE25DCCC806C0C67683AB
:10130000BA73C2A8FFA251F91526C3AEF282010634
:1013100081395A18AC8830E719A001340346D05FF0
:10132000AFF09060082C7F84801046C244871A2258
:101330003DEF8884452D6DFE48827A4393C0B040CE
:1013400086206E23414BEE8CF83F8BC85DB921207F
:10135000027E8B0A1F08402434C611C78F08126B07
:10136000BCAA38F8A746CE302006AFC8DE31031934
:10137000B4F0F6520F68052D9DF43223D78007CCC8
:10138000A9DB7899E0F30DF381721ECFC0013F0B0A
:1013900068404B03FE6FBFB49A0C8441F9ACF87AF5
:1013A000190C8C9C5FD7AD02691C35C606C4A428F5
:1013B000715F655D6485FC057F91F8E71D19FF721B
:1013C00026C00419BD09B320D830128AB806E70434
:1013D000236002A68CD3222660DB18CE03F02804FB
:1013E000126866FBA0FA5171057EDD4C6BF6B0FF0A
:1013F000264802400B2A0381249630C768B7DD8651
:1014000004FD3F0A447C819EE032822690605F4961
:1014100051010F6F1468FE2DEBC6D573085626DDFB
:10142000DDE9E840AC46DCE6E7ADF88681C726F6A4
:10143000DF20D3DB98444045DF843BD3C8FAC04566
:10144000CD1C3419100EEA7F8F48B371100C465230
:10145000777323E4019307BBE0D52372FA75414B00
:10146000A64019948B0EB93D77FCA821EBD91ABF81
:10147000AA0D6BE482B3EE680148DB6B3FC7983777
:1014800006D0039808C50268FE888209801016C835
:10149000009405B2D309A8B321F928EFF9F5BC608F
:1014A000C527E298431AEE67044859D1E3B25D813B
:1014B0004A218246DD2181288833D042DE5135D34E
:1014C00002F592F17EB2FCE0FBFF2F98AE7FA2FB0B
:1014D000432F197A8B7A400760310C1F60980132D4
:1014E0007816C402787F07E2010CA0CD05301EC437
:1014F00037E70B6437E2FE84F61720F57B0CFFAC70
:101500002BF3C898EF3A319C4D4B1318E595CF401B
:10151000E8FAC26B483926D33B7B804996B30284F4
:10152000895A4C890898F34764428CD531058A66FC
:10153000911819E0F3218C9011D9059080F36E0871
:10154000F398BB17FDB6B0E130195C304D0640147E
:101550007F7288280345A20E34CF1FB5538424C060
:1015600008FE0A41130C02892007048146A394D384
:10157000BB3B80CC110466FC0B8114DB7D8B316C92
:10158000D8F1B3FDCDC1802A03031C01DC300C4728
:10159000F8C815DEAC98FDC0EE6FDDF020F298E2E1
:1015A0007D57EAC04144BB7056123C20B35C30BB4F
:1015B000E0C5C5D37B9830087F053040F317FD4860
:1015C00020FFAC11B79F98BB6902BFB25B3D4D686D
:1015D000022C7564887DCC7230D207580823E34210
:1015E000048C2FD7CC062B3009FA928CA477B32A1F
:1015F000FA843682D0089D1770F435E5B3E598C0BB
:10160000BA2C1447F97F21404014E01942020D0919
:10161000F120224608C228720EBD9808DF78F9CD65
:1016200030F040FE9825430CBFA6980BA33DC43C68
:10163000E57023033126162B38BBA940C31C80E775
:1016400070001EEB78405C03810C302D660D203D50
:10165000D6842FA6E6D6080357B95764580A8F1FB9
:101660007DA28F4540A94918C0D45F7F78D80FB1BB
:10167000F88005BF02D79801101962E7890428365F
:101680000B62CA800CCBF3E513F74A1890089F62EF
:10169000F884093001F417082818C6DC022C74D627
:1016A000E0FDDDE3A8511A4B37C825FBEB5410FFD2
:1016B0000A0188608125A090D90441F9C8E9341253
:1016C0001679519F232929840504E08112922CC3A5
:1016D000C828E74120098614FC5EDF7191BE5ED503
:1016E0004F01DD0A67FD82A6D663D7298AE5C21CB1
:1016F000F37F044075E498F3AF88F73EF8FA40F0C2
:10170000A5ACF2BFC865E8107DACF9C55D64059F66
:1017100093C8ED07EBC020049A10400C60F3080258
:10172000D6204FC8CE0C8240F6380848FC9BCEA18C
:101730000293B9BF0CF5759096F89AFC2C44E466B8
:10174000016FA006C0083BD21368BDA5A00324C248
:10175000FF041A100A682028803D1901F3FD79DF83
:1017600011DB6D65C8AFC92703B827454088A011B4
:101770009C6529D3834403020390226DE29086B2D4
:10178000C163A522E12148FD503001D1FBE9BD70C4
:10179000E67661C80B3983B0EB2012C0ABEED69869
:1017A0001C21C9303CE0ADF206ACB83095E080CBEE
:1017B000301E57F33C08E8B4F93772CAD5FA9FE1F6
:1017C000C80CD10220F388FA991086ECD30857454B
:1017D000B5418110EA9840E4CD21EB4E848130126E
:1017E000FE1FEC4A2418C0D961DD8C04A37E0C08CE
:1017F0002969A602D910B1E3B2BB0103C0229C5AE9
:1018000082601209906933F382A621EF036011D23E
:1018100078CB7BBA17EF98AC6F01DF8009300420DA
:10182000FF5018020188481080D92108FE987B4695
:10183000C2021F4003BD283980FFC6C0024B0440CE
:101840002811D305202298F82D53B67322F6D20121
:1018500031BAACDFC59087892BB3C0ABD730A80CA9
:10186000C401717DAF534DCE0878BFFDF74FF07ABC
:101870004B500703E0014350D3143CDD60200210BD
:1018800036300822B359C89818D670140EB47F2881
:10189000238878078441383BF9F928F64956559D45
:1018A000DCF535C5B3C584F548EDCE10A088ABB4E2
:1018B0008038C85010FD6A080DDAACCD16D8A640A5
:1018C0007E1B4960C634EBD2F8CDC53E7FED707407
:1018D000811182FB804002BD9811325D9062C4F795
:1018E0002D825988C620228588B0074204AD841015
:1018F0001881BF08883001B0FCBC6019EEDE775853
:10190000195E98157A983A57F398B88F96E44CC8B0
:101910001EC02B7895D33D95C8AF32035A100B3EAD
:10192000F33C0818F859551F7F5FB95ADC5DFE4B30
:10193000B64027CC98FC8E28D3EFECED4418CBD3DF
:101940000492EA2919D368E21960EE8C572883982B
:10195000777FF401020C0820B062A3B2D323DE64C7
:1019600082B3AD158AD67DB3010884417F95FA20F4
:10197000BB89CF28E690010DE63942507EF3412322
:10198000622001360814CF7F1C053420469004984D
:10199000A6408A0C24BFC246E614020AF92C2BFF8B
:1019A00072A8D9F980990649FF81D54793E6A52009
:1019B000CFE230D5DF42DEEC5E987126768410F3FC
:1019C000F3811877FD804097B96D917077F0C477F7
:1019D000D7CC1D24969B21CC301007C3C506F3033A
:1019E00072000E19090DD9C800CCC640F341979971
:1019F00019F7B1D020485F680FF43F161942A7BF0E
:101A000043EC9DFCCDC8805482723040619368CC19
:101A10000DC604FAB382221A50CE9B098831B3CA8C
:101A2000D2F9B03FDB65A668F9C8117998FC30A3FC
:101A300004943F9730310F23C4102142832088F152
:101A4000B00026826148FA0B20222CEFF81230FCFD
:101A5000B860710AF161B00E03FFC59CB17F173009
:101A6000ECC92CE2B479ED8801322063BF03DF9822
:101A70003CA0077020F31EC8037AB0E85D7710849D
:101A800019C9FD8404A64AE866FA8416579C21C445
:101A9000303969F79A0B7CDCBE73B29BFF6652D17A
:101AA000FDC902E21E1719BCFE2646BC98D3FB7680
:101AB000113010E4C9A898C4DA827A0364E48C5126
:101AC000FCB317C8089920C23C44FD904500225041
:101AD000F9EB9DD04F4E984C9924116BEF48DD984F
:101AE00028010D7A9810CFCF7F348114811118E12D
:101AF0005003284545F110048012D0632E60200D5C
:101B0000BB1708D9A8F825D5C25D72F014B382308E
:101B10000C627C30DA301075BEF95146D7BFB5EB98
:101B20000C848137D2FBFDCC715D69AA773F01102F
:101B30005DDB20105183EB713088741AAFB35EA562
:101B40001EB3818431EB0802C07AF6017A3BC6BA33
:101B500017FD8419B379229C5E98D60DA0A265105A
:101B60001F1340026044727942CE7FB34930014670
:101B7000C2201A3CCF62440CCC3AB0CAC2691817D2
:101B80003DC609A80176A2FDB4C2E34EFC98659C4F
:101B900084E97A0814152178005888ACF71A88105F
:101BA000201F0144442083CC0888B10273F310390C
:101BB00081424CD085112094FF10652D103C988EE9
:101BC000037D1912C0035810DE9867794B7BA580FE
:101BD0000381F00684C874E00B60F3A505F3C07AB6
:101BE000F50BECE0C868F9324B81F57F30ECB8209A
:101BF00014DD9F61D61723A9FC10C3AE02D1378034
:101C000089FDF46BE75E6CF7DEB3FFF4D0C0841996
:101C1000C34B2CFA28204026C1D0FCB1602820D824
:101C2000CFEC64410F2110C0249558769ED5025107
:101C3000302E20C840A88222B27F40D2C448FD0185
:101C4000B64EC87140A02F2482229011197D886061
:101C500004807A6022CD5DB3A099039079D74303C5
:101C600010607091581CDDAEAF85820574F37CFF67
:101C7000BC47B39D5394C8234A4204D31513CDC81F
:101C800081DF535F80BC0358E3798BFBA020CE013A
:101C9000D338FACAF69802C0BCB8EE0030FDA3846F
:101CA000A73FEB7FA44415BB94F45564DB7BC6834C
:101CB000782BF8DC5E08D0FA0B45FBB1805E9833D8
:101CC00076A0B302DC16C0BB433956046FF689DE3A
:101CD000E693059DE0220D78980A2C02448BC6E716
:101CE00035C68CA89D015D9BFC75BFAE4BC874F6D4
:101CF0005829B7BB158630F3885F7DF67EE20F8DDD
:101D00008B998852D6B91084BB05A1AF3FD5988076
:101D10009F811141FBE07F1B30FA981C6583318362
:101D2000AF25300CDDA966ABABE8013A7F0730E0A8
:101D30003046830F6E0C0D2EC625236362DED5D987
:101D4000FC805E984BE308F930035D0A3178309AE5
:101D5000B6B35002A419865C30BF18EB34E092345D
:101D60003C50C672FF39FEEDDB25C880FE0E802692
:101D7000B98613BF01D63E41A6B3DE8F73D3468129
:101D8000025A4EE01E0C845F5ADC760823E7FB8C77
:101D900002E420A880F9C650FF201946B33EFFADEB
:101DA000D8BFE34F2DDD800198F36267A2E9008977
:101DB0000CD38898B066C5FF10628EE988FE28C6ED
:101DC00056660479668DB6D390FF79941EDEFF7750
:101DD00098ADBA6440C49BEBA0FD20C2CF3079809F
:101DE00010CC77C650FD0479E599F78A98F399C32A
:101DF0009C246631C6E0FE1E66616FC1CC629F32D4
:101E0000B3FA4F32D9CCFE46D234046A9936B911AE
:101E10005FECCCFF6FF6EC042EE6B10814F6D0A20E
:101E2000B34B367330C28FC29BB2CD56DBF2D8FFB4
:101E30003BE5159784EBFF406EB6175866FB50C420
:101E40006E447EC4C32CBCEEEC4870F943C3C4D8C6
:101E500020D76C2610BDECD21810A5E5FDB81A4BA2
:101E600020521AE35982811BEE103FE534ED79F9D7
:101E7000AAAB08C9FB99F52268B8FD522BCFECF04C
:101E8000932F2C41BBF96C6FF369D94C8040D8106B
:101E9000B6AB495F04CF9C01CDE390F8EAEF246430
:101EA000960611F6CCEA0CD0120C5458FDDD0A024D
:101EB000A880099CB3F260800896E019B3E6500A46
:101EC000609328F47A06FAFD0A4043056FB3D0F90F
:101ED000195697988EE1C80118C150E0524084917C
:101EE0004CA2417B2820A1123D6521C82024678E89
:101EF000D2AAD482252E0684241530035329A9C5DD
:101F000030B3FD3F6D40610718488FDAB5F72244C2
:101F1000F97AF720EF8AA8DBB4DB20050D045162C3
:101F200002CDB78DDAB22282F332BD67F080FBC5F5
:101F300079E0904BAA6019E6331004F0B846888423
:101F4000F62680083E58F8030CD6FF486F9F3CFDEC
:101F5000D938FBEBF9201AF35E1CDBC56CD2A52047
:101F600019FCD5EC285FD9631D2E67F1D07DB0BA7E
:101F70000C02DD51FA623CD1B180E26A31AE2E65CD
:101F80009AC8FAA5B1E0847AFE42D23CC489E760DF
:101F9000C0B3FC8D6E74F9132CAEC7CF5E76D1B092
:101FA000FC08492DFADE6EF362FBD56DA0916580C9
:101FB000DB97FBB7FE0AFE3D5155BDE6DF2412D884
:101FC000B8FEC6CBB9D30B5BFFC8FF0A329CF39DAA
:101FD0002CE7BA10D41AF619D8F90333EF6D35414E
:101FE000E31E0BD666FC2FF65C3FF6357FB6B1904C
:101FF000FD3F96D6219B5C2011F0702BFBFFC9FBA7
:102000000CFA18C53D4688B1FF833D0BD7A0109848
:10201000B322ADAF188CB3395B12207FC8A8FC6621
:10202000F5D8B9008A7E7502F552408A7B79D0FBDB
:10203000621DD01680C6D67704C2D8F3CDD67BE019
:10204000F8C54CC67FB6B34021D0D66CFA53EF909A
:1020500030F6BBFB6498FF7E57D50250259D5B1080
:102060006DB14F924DD110D06EEEB5846CD350FA55
:10207000BDB706E29F6BD624406C16541D6DB51299
:10208000D790058876A1C6FFFDC5534142DF206287
:10209000BCB6789E34AF4761FD21A8D60D48FD112E
:1020A00048C8A2250288D7F58BD22F213331FE14E0
:1020B000324DC180E981FEC24AF322346E1D52F9CD
:1020C000B1FFFB53CA1014FD18F0C028B93014D367
:1020D0001F4260FB59210140053D6320327380D1CE
:1020E0002AFCA11220E128CC0C59163C521C8EC4AB
:1020F0008312858883FA410E06B6087BFB02200E08
:10210000BF77088B92489181D3A244FB2165695720
:1021100038B37AFF28424167DA0148670925FF246E
:10212000261420115400A2AF258345082B824D159B
:102130003C7AE31D85B38E8E6812D9E041DE7ABB0E
:1021400080E9E5C2A0DFFC80F017A5107697A4D740
:10215000F4CB8820593FF63820C3F7CC8830790873
:10216000C8A38DDDA6C0FF1086BCCB79851F76FB8A
:102170003201D9F244F99E627D7F6142A040DFFBCB
:10218000EE38F871C0A361276E6A043B71F7E34033
:10219000E60402C8D579E885FC30B80878DF562116
:1021A00002538510FCB308161F04C6442A15623F6B
:1021B000146E2BCBC0FEE113E8CCCF31AD30B48F21
:1021C00023DE9345B122DEE4B914AF6181FA806564
:1021D000993DC68779999BBB6E0146D31004FD16C5
:1021E000AFF16EDB6BF26D808CAFF3B5F85519CBA8
:1021F00038C306C014302571AFAB9BC8FD67ED4AEC
:102200009420018BFAE580DBE828A68F7B6C05B073
:10221000FA5427C576E1BA16E3FC7120F3BF90CFDC
:10222000D96C8968F957E8EAD23B17F54502189549
:102230008FFB9918F980619CC65D910211D4600BE7
:10224000CCE2732CCDE63E30FF5AFDFEE1A1E7BDA6
:102250000801808B4082034389A508F304892B661B
:1022600080724F0AE253D7B43482D74650175234A3
:10227000B94D1082D878FED9848A74B0B74EEEFA80
:1022800004C1C97612D0FC60778123BBE0971E623F
:102290007EC309C5579B186E690C80282F3DE0FF4F
:1022A0000CB8444BC8ED640BEA8A02DC3D0834F3F9
:1022B0009684F326195FF536B3019D6A83B014BB8B
:1022C000C4C604F62CE757F0FB80B205BDE6804398
:1022D000E501982FF3F53FB08AA966989A44767D78
:1022E0009F4212C402A7702D8811CF53FAE0416BB0
:1022F000BAD98253FB60B10132031ED0E7821820A5
:10230000F3803C623DAC26E0C116EFCF170FFB3CDB
:10231000800794B0DD1634F3E053CBC8FFE355DA01
:1023200003BF830DA518F3202CC830776697FC06F1
:10233000DBF46B84B9DBD0F8ADB38B7F4010E5C81C
:102340000218F3FE4FB1343C9D316684086A794C23
:10235000B75121EF062248FDE44CCDB990FB2FE1A7
:10236000067CDC136A2480A1AFBDFCF582405023BB
:10237000083F80213094B320C5B6E030D20A09610D
:10238000682FCE9494B95048F65B0DA09BAE0CFB21
:1023900021D7606FB6007FAE9D0C35FB0889BE0F5C
:1023A000DBD4A4106A7FAEAB0C6B6648FDEDB93F81
:1023B000A703E160200284EF1398B1F320772C7D0E
:1023C00011EEDE7E64B344F186BD04A240A280C655
:1023D00039F7B3A8A5F9E721EF3F8060020129444E
:1023E0009212D24402DD82BE10C4F77A1649DD1182
:1023F000FCD74108B998400680DB0DE9B311D4D170
:102400001BF829AB806221D34C80DE10188C029A15
:1024100060222C237FE63F9410227C77614640A007
:10242000DA45887D872BF284BBD2F1FE6FF0EFC0D6
:1024300003783A0F6201455030F41ED00318F302BE
:102440002CCD3FB5C87843FF2E98FBCE2CA001B011
:102450004DF493036041AEDBFA047FEE0122DF20EE
:102460000CC17050D615F5ACFB27203FC84E72C882
:10247000D34737D578F9BBE3B447F50A100437C022
:1024800005325C4818F30424ACF3B30993B381FC20
:1024900046A102905CD70848C3CC371922B01980F6
:1024A00050D2E1FEF1A1B83F04086A1480A17BB3C9
:1024B000821AEE49080A417AA462FB95A028A91461
:1024C000841E8188405E8BE741B0905298FB6A8DF4
:1024D0006DD167D95B9E2C987CFFDFCE5EEDB1FDA0
:1024E0007D72A7E6BC83ED03F5B3E02FB383FDE473
:1024F0002C8AAF660626C02F20063380C62EA7641E
:10250000F828FE247A6742BFCC60AF823BD27ECFF0
:1025100002410822D3AC596573107346024672CF4C
:1025200023ED2E636B7DC0FFC9DFB32433F212931A
:102530008C0251FFF3BF080112670C71D38AF1308E
:102540000B4EDEBF5F10DEC8085AFE440480301117
:1025500040F8FE4F307046D08178F7200FE2016CD2
:10256000CF0F16C481183DF304003C8AA6651EFDFA
:1025700058E7F81C8807D7F080885ED3BF60013C1D
:1025800000E87F127D5A186F7220EB51FFBF0403E1
:102590006020B10C4FB37F7F5FC06F9A6430DB96D1
:1025A00046C00259140B4C440C080469F380FB1418
:1025B000010B620496B30A2EB3DC4020BCEF221656
:1025C000C1DAF64E7750B3A0F9F78150041A2963A7
:1025D00067A15DB144D4F38008B5C734118BFC7F8B
:1025E000D6370DF7C3804267C88368DD0281DA4AB7
:1025F000E4E37D4DB656EBD1CD867CEDC608B466DE
:10260000D119C17F4B6787BF55D8A3FF6E5E2F30AE
:10261000AE3EA1D14DB35C300A028CD363C4E4E07A
:10262000A563B307A74B1AF3B3C8A8BDFC82C05D6E
:10263000EB5ED2AE0119ED1910F4C850035DCDFA6E
:1026400064C534F63275938006C8BCFB436047BD51
:102650005783FA8089FFFD4F2D61120C815ED8F9F6
:1026600086C0024804B5D7822CAC8E216418F06075
:1026700054C13F8321041A90BB2A09BBFD4E0FDBD6
:10268000CDF83095F380EDC516C0DC3036D93C303E
:10269000B49358238E0C3736B07B987920149DC69E
:1026A000C5E8FEA79CE55AB460D9D9A97F1150F3BB
:1026B000180FD1FFBFF5AC0362C4C3B9DAE9FDF866
:1026C0009831B7A360289601B390BBA36E1106A6FC
:1026D000C5CBB8CFC4F558216B150B60802286B9E5
:1026E00066FBBD128202D073B44183B420C3A888B4
:1026F0003F1CD248405091F4084280215F6239C8A3
:10270000A7C6F942836873F214A26993C8F32DAF88
:10271000A86ED9B8F9149B73EE769B9C1F19B86408
:1027200080F63029C680F99B71DBFA757F0C30EC9E
:10273000F9A49430C29AAF061052BD40D3C4D3223C
:10274000C8B15DACFAF4C804C081F66F90C82B1113
:10275000EBDFDDF8C8FC24AEF5E30593E798E4E889
:10276000AF3B14BC044E0205C4BC51E048C5B3FEE7
:10277000FBD6108143C85EA70573363AFEFC84057C
:1027800030021004FCC2091161018C259FC814415C
:10279000281831E5025CF30988ABB642BD911009F7
:1027A0000411F624F9C84EFD2484089F66FEE0411A
:1027B00038A0EE013000F698400F8B03C1C5F51E1E
:1027C000C002CA3062E33012CDC804E7E037F12C12
:1027D00090E4C8AFA3569881EBCCFA2B8BF4CC4095
:1027E00079976106E8867699C8677130BF1EF7E071
:1027F0007A1930C8D6DC8480B3C8F872B310419619
:102800005FF945C0C13073A024D3123CFE0C408454
:10281000B3D38BB37416441934D362E5429319BF12
:10282000A413E3010880AFE7CC48FFC305407E61F5
:10283000C889704125242634AAD01E40501C283E49
:102840008DA409233BD997A004B0DB2201E7C8344B
:1028500089BFC627C8A745A0A5800AFEB79DD1C4D9
:102860006E92BB316F96D4390C1B8110EAB132E500
:102870004D9F93F360C6824E9DB0FB4085C8C0DC7F
:1028800030991AE588465E3EAF4021980C45D81C29
:10289000209E5132BD7130ED190622DD6497182655
:1028A0007FB258FEB420778F014520A896320D9F45
:1028B0000C0361204C01D810808EC052882486B051
:1028C0002401E6B34126E44383C9C92866EFF1C376
:1028D000FD8009976B8F20D29762BCB2CE42BD0EAD
:1028E0009860CB60E22C04D925E2B3450422DB6872
:1028F00098241F4239570B1A9EB9CA61F6FDE04170
:102900000C99C8E9027810233CFF9001B2201ED038
:102910000379D2000F1608C4BC98B3C808282D6DDF
:1029200078D38007F12FCFC80B60414AE2FF4B13E9
:10293000204B8B3FC54E64FABB9A18CD601612042B
:102940007FC97EEDDC46E0BB9625E16693FA6A110D
:10295000F54BA0DC308751122B89CBCC59FD882256
:10296000D3329604F32D249FD4B1CB88165BB36F7A
:102970004A2146A4C8F90BF3762C5090F828F3F8B6
:10298000A084B44B90D3448AE2414DF9B0018480D5
:1029900010B9FF40500809004DA001B1142E2E308F
:1029A0007D7D0A086328026FB884C0AC80BBC8DA9A
:1029B000980DA06BB350FFAD538F8CEBBE75260CFA
:1029C0007AC510C4F830F36655E5C0AFAE9802D4AE
:1029D00033F8C328314DED089065C8C3B3F8E22B36
:1029E000A7AF84D5FC209FF67F9D64D68803DB7952
:1029F000FDCC771704844CF990FE15D5A09BC880B8
:102A0000B2C872AD84B0DE3C14F8EF2201824C08EB
:102A1000E6C4556616E26268364448B37B11E804A2
:102A2000C888214A84F4EF4A18FF0402100BC047FB
:102A30007860120402DE9180201091F20935420C78
:102A4000F6317166ABEF580459D6AD409DED22C00A
:102A500022FF1CBB44E22DE1F9604C3CDE70D790B4
:102A6000C8ABA50BDF98A00131801EEEC4021AF49A
:102A7000982D3623E598CC6216C0BBB07E291C8009
:102A800007B4EFF9C919100B646E59C81240B84A5F
:102A9000BECCBCA5EF5FCD10F7EC28FB0493C43887
:102AA000308FCCCBD5D25D30D9D7C8833AFD69AF52
:102AB00010B0BF22EB500403E76CEC304113C04070
:102AC00031B30A809280F2FBCE12B301837CBF84C3
:102AD000482341AF82FAAC22162448E130C12EFAD5
:102AE000D70DFFA009C60680FFD0008A6008010C40
:102AF000208128B4D68810FC6D43A30880ECF350E5
:102B000034E666A00157B07E1D0A096368049F5C25
:102B100034804258485E98E36802415220E2FFD375
:102B20002C2E8CB50E2339FC16DA49237D2DF87D29
:102B3000FE9DB5146120FD3BDE68FAE0B8C207B621
:102B400073FFD7F9319068B355C6682AB3AE085AF7
:102B5000101069DC65C8E7A6F6A1FB9BBA0520B298
:102B6000C8B671BBDF309410FFAB89931264EDAC33
:102B7000BF5DF6C4977AC31051D16204116AFC821A
:102B80000260EA6001393BFAE9F98044D408229FE7
:102B9000790960024CC0F0114140C2EB18D57D426A
:102BA00095C8A656FCD36FE1986804654BFBCD8FA2
:102BB000F1C8C81921047A5F18CDA0FBAA0CA67B26
:102BC000C8027A10B2D57E36F0201EC4034EB0F390
:102BD000800CBE2FD066D5AB687916DE983AE0033C
:102BE00008DB264CD6C87853C8E998FD77CBFDF0B2
:102BF00097A062F471D12EC4D626980CC8303356F3
:102C0000B35002D519416BCB7603FFDB3079547991
:102C10005EA39CC9FE0229BB71C23BE4200AB5BC7D
:102C20000537271001892EF0FD9F05B7DEC9B3696E
:102C3000BC9914048FD3132BAAB8B1B0206BABF09E
:102C4000BD7722809037B370FE18A4C1FFB9B39D41
:102C5000A65D24D3DCD8FB592865758B1296250414
:102C600051F39EFF6CE00588A6D304B3FFC6486904
:102C7000C4C2B7FFB8FD246CA062469379A28D88C8
:102C8000D3198BCCC7283583EBB172F03FB14F2CF1
:102C900060E658FA35FBCC63866CB145531BC073B4
:102CA00032964602A39BF3E0B6FFF323CD51D6D173
:102CB0000271B1845F32BBB8EC3211FFCCFF682BDC
:102CC0006DB6BEA66DE61438FFD920401CF5776CB2
:102CD0000FFC5BC5F3B78584FFA8DED0FDF8466E18
:102CE000CBC2201B3CB575412E65E99DFF8F4DFA87
:102CF00058FD9ED32100BC48F3CA1AF3E13DFF887A
:102D0000B1FF1DBCB1BAC7FE3A8CC8ED5940F97F7E
:102D1000556718F3FAFF02CA7675C8FE20BFFB1983
:102D2000BA7010EF8ACE6CFA284FF53F10A560B646
:102D30009A47C602647E97F85BBA7E8E1251DED83F
:102D4000EA439060D30884EC2120E3B58E95C858FF
:102D5000ED161888BEB379BC652EE89B02530ABEF7
:102D6000CA022B78D36505B47C98045085A60187E8
:102D70006C0567B8B30308301E314004D460CB0A39
:102D80000CB2D670C620367B810860CB2FB564406C
:102D9000D71612F3E5087EF31001B080110402FD8E
:102DA000F7588414E5569E1ACC8012C14AC2C80650
:102DB000F8604485080102C50444EC2929F463E461
:102DC00090FDC8191F185B426DFA094000AFC57627
:102DD000E15FDFD515A6635FB7AB18FB19919F07BD
:102DE000D14120D77C97B14103B47D2153B97A6496
:102DF000ED29CDC5B1FDB718A56DBB982023D2E351
:102E0000A866C322FFF3EF11EE8BB0FDD048E07847
:102E10006D3E1FC7FB150279CE92436CC8D958FE90
:102E20009DB921DB31D36B719CB1797EB9C61B1979
:102E30007DCC946AB74131F73D8E47FEB2663ADFEA
:102E4000D76E5ECB7B2FEC91C3691FCD658019C90E
:102E5000297330666C4A67F19B8C72C34058B993F2
:102E6000E608FE9402CEA062A6CB31EBF80812FD74
:102E70006BF897BB5641435B6EB1377F314B468F42
:102E800008FCC833245617033BF62FFEAD6FFDEE4A
:102E900071FBB1ED856BFF8053B473AAD539A8A936
:102EA0001528AA6AE06FD99188D862FE8EB10276A1
:102EB0005458FBC4FE96C7FC48DC83CBD5AFFBBFA0
:102EC000AD9902BEA80B758104858D9C88F89092FF
:102ED00061FBFF18FF63267F3E9ED9400C7FB4D86C
:102EE00090FD5E332CFF5B3B7BD8FE3B365440DFCE
:102EF000026183A448FB64F5FFAEA4F2504EAD53CB
:102F0000314BBDB3E24F61762230F88019ED979EC8
:102F1000F4736C18FD649BEA9B97E9DC84BC6E6CCF
:102F20006FB3FB7FDE2061C85BB56633BFD6B340AD
:102F3000183602D8FF59A3B9188F75FF89FF5FB8FB
:102F4000FFBC88BBDDB801765E7BBAB108BF6F4CB1
:102F500012401739D39A3129885019118190215D77
:102F6000A7A580B640EA23807BBA221004021AED9E
:102F7000E710E3832A846E5539EB70FFC1F005A892
:102F80001434F4D05A11E701208066C222FFC00435
:102F900010604A4103088C702B3F9738A027F982B4
:102FA000D5196AC98401ABF0BF3669A9C430990547
:102FB000B0F9F595044CF9E028F44CEC6120F4F3F9
:102FC000805A11A9E6102496E650CF696BE8D22DFD
:102FD000803ED7104882018E271F67D2480805011E
:102FE0009D80B0B8FE97ED300280B725584019A1FA
:102FF0003E853A03B2C07BB1204439624B5E084340
:103000002C18ED2040FBFF727901F2C63579ED17DF
:10301000089FA62F367E7939B330800864BBCFB8BD
:10302000FB0211F25AF3E41E31292D6D9A70FF80D4
:1030300032B732DC361F0B18595C2049D640225972
:10304000613B66FD28CDCAFA526CE90183DC6EB0A3
:10305000EF97FBF83AFF9B0B0320F83389BC9B02E8
:10306000686B61266CC108AFEC56E0FE47B62A01DA
:103070003BD615E4DB7C657EE36CE5B30C85023260
:10308000EDBADCC5B595D86DA6154F6B7680CCC969
:103090002BCB707F2D7CB649F991BCBB04A500B445
:1030A000E41DF763C6197F2C69FE65D003621F8E8D
:1030B0006576E709CEF68FE8F9C32D3B28AC14CD31
:1030C000DC482034D238FFE710CCFC8E60B1ED7FB5
:1030D000D97F8046AEFE4D78F4FBBAF8FA20402145
:1030E000ED016BDE341A040B331AEC5D02EDD348AC
:1030F000219BF30A21667308FAC4901E182C0378EA
:1031000017DCB45B84FF73A8FF77A2C80634FE9176
:103110000C02FE7B69201084038C115DB618ED1043
:103120000361DBF31CD064F688CD6681FA16AFE04C
:10313000FC4C3DB308D85840E2669859861D489625
:103140009A0CCE19F98049C8FD8240A7E186445FF8
:1031500005FB9311177BB20910041276702023DB54
:10316000F962FEE01D0F0702447006BD0FECF02867
:1031700009F3BB484162CFB41EC0021864B6F30322
:1031800002AB02FE6FB339F213D7AC7A7FBD4808A9
:103190001003B72ECAF9F5DD46E3E1B68C69F9CC28
:1031A0002819638FB398028260B1810FF905F8FE88
:1031B000A011CA5D1A7EEFF62CF1823CE50A096384
:1031C000F965DD8B3DB21A400B6ABAF382FCD2F08E
:1031D000A0A38842666C1D36AE0C9A4E2CA8DF3731
:1031E00098E55B06AFACA5084FFE1230F880418829
:1031F000DCBBE5790EE9C9E0F8DC8003AB099FCBC5
:1032000097045FFB8C100360202119836BFFECB0E7
:10321000FE880546B3BB03BD0DE2D003924472B3F2
:1032200020C5891AC08B647B2E5004B913B30538AE
:1032300027C2FF1641A0C9DEA1D2300AD488F37E8E
:1032400018D9DC8836CE82FDB19401FEC504E8B3FE
:10325000A8FE9DD02B8918F83C40052F16F298FB4C
:103260004F16F798D003786EF3DF0ED0DA8401742E
:103270005CFA04401964FDBB93E198D8B8668E945B
:10328000C93FF369CD812995F959F628FFA22FB3DB
:103290003446FD97118BFB980412DB60223BF358F8
:1032A000100B57D368FC20033480DA400273308956
:1032B0000828F30FB850FF31C57FF67F8210204FEA
:1032C0002D30619BD3F8FD752603EB6430BC98C2AA
:1032D0001EB7B1166739ECD378FEF6FA302006CB6C
:1032E000B30292B3E0FDFF00C5C63DE58064F31371
:1032F0001C107FAE984166B38401E644F1C9B6BDA7
:103300004C66D05DA0B103B6195048064014DF806A
:10331000305B233366FD04C011BF44F26A02DE94C1
:10332000B342872BB3C8C5EEC54BB4E55FC0BF0B36
:1033300030C867D330F960C6800CA303F2B6A3058A
:1033400002FE985C307FACC54059B30E36E0195789
:10335000003069CD0358FF756B751CAEADFC047E63
:10336000ECC773B7082CD39E1630F2BFCCAC909B41
:10337000C8194655E8481FEBF26339C68BB4D6A589
:1033800003572D30A3771C50EBFFA001EE9051198D
:103390006166AF3B300B43A2BF7F916319C8C06029
:1033A000686466C808E0D36915FE64F9B2B71B30DB
:1033B000661D01C68C62ECD1C880F67DCCAF2F3083
:1033C00003E330FC9802FA7534E131364CED5B6171
:1033D00020FD98907FDDCCDB9AF8CDB377960D6B0E
:1033E000EA9892F3981AD7159820038060CEC9C83E
:1033F000C1DDEAFCF78AF9D7C07411F9FC30B420BA
:1034000031E09CD9C8823F256BED59A0FBB717303E
:103410005F13EBE210F830E11EE66339C8B2787949
:1034200023836BCC3048F906DC30B201B71103635B
:10343000BF83818020659F66CA0349F298DB5F4D98
:1034400037AF1B253B089654882FFF7F0922600465
:103450006EF369AA5505F581F9CB9E2695C5099BA2
:10346000C810FD9880EB0A080BFB72A00918CEC8A3
:10347000030ACAF198D84557DB25FC7D151565E68A
:103480004BBE987FD8C2A71930F9C86FA389AFFD8A
:10349000A540CD07FFD966E6C80FC60BB38C3D9E8D
:1034A0003F30A138AD79EAC8FDA488F77FE07F52AC
:1034B0001526D6B1F9C8306629D8B0190D0B609021
:1034C000F3B651FF475AF984D1050127BFAD9830B3
:1034D0003C98E094564511E7C888204786E7C8F035
:1034E000FB5B6346BCFE98BF3CCF98CCBB604633C9
:1034F0009BC81827CD8BBC98B87DD8CD033B25C879
:10350000FF8D65C89DE498FCC239FFB72833B3B27C
:10351000C8C5DD1918051295E68B9E987319A00988
:1035200004BB293DC821048067C814093E52888A1B
:103530004892FE583004AAB34207202841667130F1
:10354000CA57443F19ADB1F22C8CA97F8930DF02F4
:1035500066F130FCB39BFEC50C5F5698185EC8B38D
:10356000B520E43001762C19A384BC2FCF9879FFC5
:10357000D8FC20292179667E148CFEED59C008798B
:10358000300562EA6740333A7C989FFF63FD8050C4
:1035900030B40AF698600CE09C28FDBC98FFEC5F04
:1035A000311251B390C0040BB28432C8FD2FAFD793
:1035B0007F112D303C7D98784723F23020D39D3009
:1035C000E0013C8C66C81ACECDC8010EAF66403013
:1035D000D7F69160FAAF09A7C7CCB1306F6C9810DD
:1035E000039E3F30AE0A0B6FFC2D03CFB3CDC8084E
:1035F00076B810FD9649492CB3CD1801C002BE80A3
:10360000EF6AB35E98EF2040340301117FE11D346F
:103610002F40984AB143BCFDC80A40134808B2F392
:103620008AFFD627A084B8CBFF80F42BB4FD30A945
:103630006DC65033CB308325F20447D7B56698FB6F
:10364000EDF208060BF653F9333847B3F1308D66C7
:10365000C81C0327EBCC8D4DB3C7FA8504B07EC3DD
:1036600049AF924998021958D7C0281830DE7DC852
:103670009A201264BA4918DFBFA728F9044820B677
:1036800022D6B640046BB309EB60CC986F3FC88874
:103690000821010C641CF186777AC2F8FF60EDF016
:1036A00007C4B7FCAE0F0430FF01980163B9C8B777
:1036B0003876F316C483B99BD778FB5A757549BA27
:1036C00048C0C22E5930611ED87966FEEF5E98AFB1
:1036D00098B4CC66B30C026912FF0098C733C811C6
:1036E000C50A606EF3BC04B39F6F10FAA005B43333
:1036F0002904ED40AE01AEB40230BDD50AB942E2B4
:10370000A0B1217D6BAF5103CD987F3D4AAC0494AD
:10371000C8D3A3C0F8FA9A41C30623A0E3F2C803B2
:103720007CB1F58D1B15268338EDECEE8168FBDD51
:10373000F5077CAC15CA420E42B820A3C0F80ABCFB
:1037400098D32FC8EF17242930D1910646CB6D0DA1
:10375000DFE6C0229204837F19AAF94A6BD8BC9293
:103760001B0A6176495850F2B3FFDAD0F884EE10A4
:103770003004F8406FE9ECC94EA74488040B96F278
:10378000454799968F0E4820210169E8750624D98E
:1037900057F1307B60C8FBDF6040CC3006C036DDBF
:1037A000AEACF0DAC803E6F504D566026C666FEBE2
:1037B0009820D070079B2BD341B568F8CB301015FB
:1037C000D4C1017B8055B350B1B39BE798FD45A7A9
:1037D000D79FF5E0E8FCEB0E0225B3A03FD7C02051
:1037E0001004937970C66625DFA718100A60B61218
:1037F0005BB398F39DC8F8635E166618B3FBFFBC15
:10380000FF9B20CF80B3F84071439CF36718D1E34E
:10381000D398FF018242FF98C12966ABB0FC496D85
:103820006689FEBD1E4079867D1C91E6FB2C666B89
:10383000E6E270F30DB0FDE6F8ABB108CFB13C4461
:10384000DEC5887DE0C49BF3D9FE056FD93240A662
:10385000C530652FE6FBF12FC97BFAFB61F7D98AEA
:103860002941D8666C3209A1628F98C3C3D9B8FDCB
:10387000685D616873737D40641BF2772498FA6118
:10388000C1209FFDA488FF7D728210B0A55519F953
:103890009BFBB408CDFB96080420CBBB90D67740A9
:1038A000246759C87FA55001C2E0ED9FCB1A205272
:1038B000E0DB3B17FA8233D635AE204BE8FE918130
:1038C000145A03133E6D6880010428D7C0A1E12873
:1038D00058308FBC020180C1505651B3A3F305018B
:1038E0005AAF5E4365F300248048CF82EE76A46130
:1038F000682220B3BD08D48165E5CCAB15A0F9B131
:1039000002713665629D687AE101CE2719FFC0FC1D
:10391000802C19BFA1B90E820C47740770D8DF99AB
:103920000AEDEEF8FA0B94B82C898CA835DD96FEDA
:1039300084068713B6DE98FB5F98874FAB75081136
:103940002DECB6E330B8B52D80622D54F0F9864ADF
:103950001940EB2320F3DD5AD079B38A7C80B08301
:10396000B9FFFE64189EE96A9E4567FFDF98F94635
:10397000F308C5FFB6E37FCB5E130D7F6B205AAF14
:10398000619F9896EFAC98082C16C6D17037D8F680
:10399000FE58BD63698510196090FF597B2CAFD527
:1039A000918086BF8036B7FC2BA690091CCA2CFFDD
:1039B00033D54ED897CBCA0250200C2FEB19D6FF27
:1039C0003019FD7F36930480703BECEB54FB67ECC1
:1039D000D8695F20671F54EB982017F512406906DD
:1039E000845E9BB6283FF78530A99E6B2C9E31FEE6
:1039F000CAC8FFF3960B7F331022B5B38DCEBE320B
:103A0000C2FDECF410205102FC72B902C30FB130B8
:103A10002F761E38FE0A526720F04EEC7BF33C08EE
:103A2000DD2070BC3787F36CB2AC689D2E4A022053
:103A30002EED80F0C366F701B5DD040D2C8382D333
:103A4000331FF7CAB4FE208135A0039001D302933F
:103A5000DF4161339BA090C0E10250601BF32973EA
:103A6000403F50D8C032110CFABF47C0ED8002541D
:103A7000D866E8FE1730A5F742FE3842010420C49C
:103A80006143A80A26A6553059CEA7B31F42EE7E41
:103A90000160A0D95C520361625FFFD78022D8CC5D
:103AA000C7C9E679A662DECDD90120269EDEA5DB58
:103AB000A8F8A5DF81C43A161008042FEFA5CCDEC4
:103AC0008089722D10F3182B6D537F4E0831F6FD4F
:103AD0009B7DB485FDFA67B4DADCFC596C0261A603
:103AE000ECA002CD16FCB2C663146EE301C95A0BFA
:103AF00001ACCF481335AF0C01862B1A503BEFCBEE
:103B00006CFAD0FC4927186346B77A8E10DF9627E7
:103B1000F8779823C7184DFEB7E7D8FFFDBE964F3C
:103B2000A5400E01188161FBCCF90CFF95082CFE15
:103B300047FB2090FE1BFBE517D5E280897B977839
:103B4000F979F186197CB1101F6D87D8FDD7E6028F
:103B5000857579F69E3A611B4020FC77D7894D2107
:103B60007303737BA0457AA5187EDF2C1201A05049
:103B7000CFEB63F71C1448461304DED7DB341D88F3
:103B8000C842685F2DA2093401DA08FE12DEA103E3
:103B9000DB560CC0CB170118EE270301D3222B35BF
:103BA0004FDC0CD3210818476629C040E0716C4FE8
:103BB000E9401EC4430C36123027DB270181B313C2
:103BC000FD8630160786B0F66073D3E2012F88B405
:103BD000FF266691230897DA810DA60C410E13A0EB
:103BE0008530C5FE855639BCD645309124A0CCA978
:103BF0009F220C808920EF11A0F96B474018F4C177
:103C000008AEB4887459212001E036D81227C4CFF9
:103C1000D8AD6372DC020930DA71B31810C130C458
:103C2000A4BD9000B8F8C0106EF0FCD619D1BB60EE
:103C3000D4262306F35851CC438892B5234053D35E
:103C4000660FE0070DA04C191EC09FB063E0012D68
:103C500008A240B30233CCDA2831E39F5A95C279E7
:103C6000C21146F81266C640879C01F8FB34F5B0D5
:103C7000969D48F90B602E41447919841808A304D5
:103C8000920CDF35C4BF32C078BA0E8C882100D7C1
:103C90001633860860D582C11132DBF0F8F521DEDB
:103CA000CFA520B546EAF06CCDBE058B97618E6B33
:103CB000662404FEFFC69A5001081225A20CECC12E
:103CC000A4FCFEBCC0B4FFB7C23768FCC306062123
:103CD000BB1E1076F330FA8DFC3BED0329EA060C8F
:103CE00047CFF9487EEC402B7E32DAC997E00137A6
:103CF0006B0EF91E7C7FC0B438E7078241D3B0FC5D
:103D00007AB310E5B308C5B3E1D95E57597E46F3DF
:103D10002CFFA61248010533C42BC808149980094A
:103D2000D3D74BF8E67F209682948261B3FB813033
:103D300011220299B6014466AF10319855FF11CB9C
:103D40009309D0F50A80338A414B328022BBFE347E
:103D50006BE9987860FBE0013C8005D51918E29882
:103D60000CC59DB4C0020179A5A7F0D416C47C1877
:103D7000400BE4F6C60088FD86E3DF8C6DD97183C5
:103D8000875EE68631C673C90CB584DADE3B19A7B7
:103D9000BBC671F9642EB36140E731B910900B07CF
:103DA000020C364130319139D7D15F19AFBC1324A1
:103DB00088820580D399198640BFBF048930B31427
:103DC000850AD0B404E6ACA044C5FE7FBE5FF671A0
:103DD0008026BC98BA7A021DAFC170FB7D35BF1238
:103DE00030FF21768BC120E63438FF7F1630DBA709
:103DF0007B77A8FA8360307F1ED7ABCEE081F307D4
:103E0000C185F0932C39415C19FF5C7842117F45E4
:103E10003735C582FE5260FE046BB3058D307C667B
:103E200026208A36C010E43914EC8A113069684CB7
:103E3000723F8460FD90212CF49E48BD78FC84BEC6
:103E40004DB4449A196010E42C920C05C0AF20AF19
:103E5000320E98C63513834C1B8889AFFB026BBFAB
:103E60004D119340D086D0DDF8E0ED18F0807E7FD4
:103E700078EF7AE22C9004B01639F339E798F030F5
:103E8000BB8CCB6B691C1662033C08D7D8FC11773E
:103E900066BFA698106640ED3BEFCC98651C037298
:103EA0001D01D78F30F2D4F69858FEB6C6979648C3
:103EB0008FB3C0092104AD0222FCD3F498114B0941
:103EC00019E57D8CDD179C24FD9810D73B81E59288
:103ED00030EA6A15B41BDAE00902CFC8118408D7AA
:103EE00040D0D77F700A0CB02C145F357421FD329E
:103EF0002830E9431AD381600CE09011966E78FB6C
:103F0000FB7652183B665662C1A0396541E68BF4D8
:103F1000B176DDF52D19F90FD0B2FBF830B9F10803
:103F2000A205B36B0C100FECB26BEF7FE53002EA29
:103F3000F171FE7241105DA9BBE305F9305377239F
:103F40003010F08222C09FBFF881024920B1226563
:103F5000B290DC30DA090223B208FF420D8005304E
:103F600004D2A3FD694F142E0696C38820B805F32A
:103F7000BA96EE583006B76EB702CA98FA61EA2BC5
:103F8000662D0108AB04362160D353AFF0AF40AECD
:103F9000013F30CE98F08BB77866F52CC5FA175FE5
:103FA000B3C7302F1606CAC81AC61DFD32A2B830D4
:103FB00051FF66FE982B66ECBF6066B830DB4FEAB7
:103FC000F2ABD58231FF7F7BB302607001814E80FE
:103FD0007F934BDA0920B10262661B6E938941A779
:103FE0008ED76144A05EA0521066A4D3DA980A026C
:103FF000CEC888242E40D0BC31BEABBFB49401895A
:10400000106B99A6E4B3A804F62A9A448BEBF0BE91
:10401000346C888F37985B7AC198C7CF2DCA011549
:10402000FB06C630EBEE784D5B15E064C8081C0B50
:10403000CB98F1AF40D7D8F99F9798567197AF9C1E
:1040400098F39F07F31E04037049D30133EFA0F8E0
:1040500004F59880A78F98EF32C0225F62D7115085
:10406000D1EAE2892EB22453FB9176848929BDDFFF
:104070009234FD69799E119B30FF0452190502EFBD
:10408000A17FFB689C08A52880E8662001EA58DF2C
:1040900097ED8304BC98BF3126488D11D501C79D8B
:1040A0002F70FC6B953020CFC5F7981C800498309A
:1040B00046481A3820CDBB0C88F9E5713DB6D7B318
:1040C0001330191CC0D70318E7D741D320FA467F15
:1040D000BFBF6997C8F998A69869AEED96027C981B
:1040E000FF084EC9D68630F8D3CB4B489AB3ED7152
:1040F000592202C06B58D7988418E7DFB3988849D3
:10410000FB467787D9D760227F77304198FAA001A4
:10411000A414C924D7E02009B8F3F8F04410280A01
:10412000C1124185F39D89E920C4BF71724916FE11
:10413000493028C52E1B428CBFFC566980A7DAF196
:10414000AADBC96AC6018DFA9880D91940A210EF7E
:104150005A78FA6D49DDBEB41AE61A0501FE3CBD77
:10416000DCC497B9067130FFCC498A07FDE61C0410
:10417000035C0F61F83CF190F808F72212E4C8BF25
:1041800008B047800EBB182110940A682CF250B377
:10419000FF6B984C022990F35A3C86010A0D5E9001
:1041A000341104F8BFEF35C801EA981246B4303034
:1041B000DD442D113D9881198CFC3245E56E94CD7E
:1041C000130F21022987E9419AFA3024E330BA62B9
:1041D000ECEBC8803C60CD5216F320EE31232E224A
:1041E000829A3B832FC8E9BB80EBC8031847AC0910
:1041F0002070CAFE047937E3F498310490BF18A503
:10420000E9D58A69FCAF4BFEFB610CC529B6C6082F
:10421000D621FB9AC965C812A3493099D48498F372
:10422000BB70D1982098D7B5989021E7982B650856
:10423000701C0296577B347D3482C977D6C94FC82B
:10424000F3890610A6045B68404B639E12E2303F80
:1042500092FD5220A004FF7F5C039E68C630489404
:104260000D38DB491DAF9A761A192FBE603142BC5A
:1042700090C8B49AA8194019B927884EB330A00144
:10428000FF5F98189C7B8807CDE406F36177448034
:104290000C627F331DFE982DDD7CD8FD0BB2825C55
:1042A00003BB38953002E798F9C5DB365FF9A60401
:1042B0003C6042FF31009E1A30D321EBB1B4D50EE1
:1042C0004122566840C849B310C0AF44AF912F98FF
:1042D000C61511891602DD1803CFA0A0083042626E
:1042E0009A197FE4324C93DCFA2677E41021202DD2
:1042F00058005B48F9BD0B075E985C304526FF5CB3
:104300000730401E2F0AE4233D1629C730B7190F86
:10431000627130F9C89558F3979BEAFC205AF079FE
:1043200098BF684418A4C635AF0164F030A130735B
:104330006C9540F3FDEAF8F912CDA348D5B31030DF
:10434000ED466B88F5AC50ED4A11328B7ECC40F5D2
:10435000B351FC7D59E95DD4EF0204A2D515061CCA
:10436000C8ECAF624C98050C06DDAF82E598BD3411
:1043700034418AF330402164799869387F74A20906
:104380005C92779F98C47D667E511B59FE98639915
:10439000C8792111CBB3FE9048FC10FA98FF3FCAB0
:1043A00028C82AEEDD3A09BDB91810DEC52C7C4FAD
:1043B000ABB1CFC6ED1F0FBF326D01180C85D3C94D
:1043C000C266BF2E080144B476AE02047C8A100196
:1043D0008840424E800431DB4DFC8EAB5CDD101911
:1043E000AF22F636880502CFA0814C084938B13299
:1043F000FF940500D2D022BD68BFFC49E6302226DA
:10440000B4905D69BE8C090120DCD1DC67FCD29CD4
:1044100040288DED2E8C2E098726119F4CC59008C3
:10442000B0FE7787DF76DD4693C8F33CCE8007F396
:104430000E5029165EB8960CCCE6BFE866070D7ADA
:10444000B1BC98FD4A12C8D3F28B4983B066816F24
:10445000F4ADE35ED844CCCB770B5D1655B350B9C1
:10446000B3AE84BCB502F0988EE50361A677EB711C
:10447000F8B7B3C08826B324B3847BB3460410B323
:10448000C811726921D4B3CACDBF20AFBB988C824A
:1044900041FFB358789DC1D322C0B8FE6366FF794F
:1044A000B38A9EF0FFEBD8F920AE64CA44F1374CD2
:1044B0006719F3C6D1C0E0589BD398FB018243FF34
:1044C00098FFB024A866C71839FAF98C3F376FDC1B
:1044D000BCD0BC19808DA0FD65106519DEE0661B9F
:1044E0001173FFE6F346B48AA0FBBE7051179AEB36
:1044F0009B24FD9D8B7D1FA9E0B1B1AB1749FF1136
:1045000087DFCC09BBD3B8FF5DA16BCB5A08C4636E
:10451000EA6725DD12F66ECF28C25FBCC9091E18F6
:10452000F8DB8CE93737FFE7F420A8FC6A407964B0
:104530009AA75C0163CBB68029F3A8A3FFCD53569D
:10454000D6A1A049DF8EA6B508DF1059CF3964D9AE
:1045500040FB2B722025648061910E1B199B0C9BE4
:10456000B02CA6106B8DFFCD6CDDF6C8FB400B5058
:10457000CAC1ED3844D3E2C202C592B920D9CCFDFC
:10458000FD02CBF20197867075FE927F5ABD6BA734
:104590009079359E662FBD6C970402CF234786B372
:1045A0007B50C0FCC0DA143829F2C0FA2DCF0D15AB
:1045B000F3140240D35A11E345056793697FA03095
:1045C000C3940A4D782808A746A1FE140A083002B1
:1045D0002240472CFAFF0071180C5EDD28A4EB2264
:1045E0007101478DD717060D67AB3CA162BEF1C7BD
:1045F0006202643898B204C0FE47D9280175CE180B
:10460000FAF720FDD4B949E71E98FC4AFF2FD71CC2
:104610000AC368FDB5633F0DF78240E87FD0E00133
:10462000F8B1134E52C5108801CAF591801E12BF11
:10463000B6F8FBA62B85DCE08566FFC2A666C596AC
:10464000830114F54DAF3622D0FF68A2BC61E8C7E4
:10465000CCC24B5B57D0FACCC53A59FF203A15660D
:1046600075038FF51FBED96D6BD920FB7170B7FD37
:10467000FBE50F7827BD9DD8B1FBA33F17E63C4073
:1046800002C95B31102C5C084FEF32DB370BF6951B
:104690000E28FDE35FCF2358A10457F6C36FF6063B
:1046A000D8FA6FB6E5042048197637F6187FF69ADF
:1046B000B8FBEB2F087FD8282051B609E788343B98
:1046C00090FB5979C09E2CBC0852C22365642860B7
:1046D000B0B3FCFFDD5218B1FF3296E3C31B3112B9
:1046E0004E6CED8CF9A3F20F7AA5CBF54B0887A79A
:1046F00013981965CA420233FD9BE698FE0F487273
:1047000030C25566808EF5259BDDAA90F9870D6E27
:104710008401AAAD04D98BFB635BBC633D6F67B0BA
:10472000D341203688FA3483B18283691276F21835
:10473000FD407FECFD017396CB024F5CBA20A15087
:10474000F5EB7F2C1AFF49D5406DD60435CBDA2026
:104750003F7CB6A0F80AB500CBB537E938891061BF
:10476000181B0A81533C01B9B8F840AE48F34D0B11
:104770006977D988AE4B01F56B8089FD8665322B50
:104780002B202C3A856A0804860FA4FBFFA0401852
:1047900026C0908104E60300C1BDA01C7453B32061
:1047A0009932AB03CE8748A9622CB380A2C0BB0E5E
:1047B000DD50CAC8F460B3C0EE88FC828109600194
:1047C000240F0C2030FE0F2C89885446AF30531034
:1047D000B88009714B5F4D98100422B523ECF603A5
:1047E000200C29AF9B402F01C0E6090454B3531994
:1047F000B43E59417009084ED4A318F9DFF6488138
:104800004FE53F08CB8DEB070401657B7A01107BF8
:10481000F208D0286675D48F97ED21FE821033CB35
:104820007BECF957D55210F7D91EF9AE5FBFE240C5
:104830000804BF45155392D92CED2CD01E6DCBC664
:10484000FD6FB8FF0297E7579B918B579809FA17AE
:1048500086CE31FD133C91BCE8FF96F7956698AE85
:10486000FECD6C660897E154DC8F1D2BB560D63AFF
:104870000429B6E3728308D964FAD0F90A9CB2F726
:104880008CD52AFDC9089609B1F8BEB133F51910C7
:10489000B9F2362C38F835CB9B1016EB173CECF000
:1048A0005E76FF1B6D979FA3AD659061C0B30B2132
:1048B0003FF632FC35FBD0011D30648F56152011B8
:1048C0003667200467A8D00466C2F3B3185ACFFC39
:1048D00073CAC0187B4D0580B6216E974C21319369
:1048E00037C6D0240A67AEEC8D6DB140FB0CB3CC5B
:1048F00096F5BA3A63B1083FDAC0E02166F05C1879
:104900007ADA0EE833B306C0B3109B0CE03013D54F
:10491000AE7088B4EC0C40C6DA60FAAE66186DB9B9
:104920000D804966E7015B9AB13036698022050542
:104930009FCBBF88CD668E5A40B984B5906FE30B8C
:1049400002CD0C0989F28604C400B352C8FC88FF6A
:104950009DCC7D401EDDDAC30F686819F9C80318C5
:10496000100F9FB13C3766B0400667B4EC0F207360
:10497000D9A8F85F7FDE048819210C6C036063CE30
:10498000DCDB5F3FAB0A850429ABB3041977FD7FFD
:104990004C800902FE350B0340C3248C2C7C53E36E
:1049A000CCB3F623601E802566FAE994C8B30223CF
:1049B000C8ED921A7F7F800D018A25B5209BFE9855
:1049C000800DCA535228FB54FE6DFE32100301DDE8
:1049D000411846B35E9B6566C006C5FC98FF5C3215
:1049E000FC93C201F0ED1CC003C4CCB3DAD37079E0
:1049F000009AC3B20456AF07526602EF779898F94F
:104A0000049166262DB32853E058FD682C9D57D994
:104A1000024401E528D8D3CBD3E79BD233FCD39310
:104A200008A61077DB5B1273D341C5B3BD144BE30B
:104A3000208CABB5EAC137FCF9FF3A19073040EAE0
:104A4000BE35465FE61EEBE20414FD7F03AA160B9B
:104A5000CA57E0038D9854FFAF5174F0DED261164F
:104A6000C751463D7665C80C1776D0FCD0B3BD8CD7
:104A70004336F82CA2E50CC534C6DFE82EC6CBF8C9
:104A8000121B4D90BD93FC69EBE5104E36305783F9
:104A900001ABE50DAC9AFD130DEDD5C4473B32AF2C
:104AA000A0810CE3A6CEC66C1938FDBE36304D454C
:104AB00010B320C0C618C91179AE93EB8784BA83AE
:104AC000D7AD177830D4E503B94B0C96089578BF6D
:104AD0009BED3CE2C770E0E0416EEA2ECEF69868AE
:104AE000FFD576987F5ADEB5669208E9988CF8B1C2
:104AF000341CFB3802141008DD028C9011B8EADD7A
:104B0000C682EB61FF6F3F8A8C3095CA4179668916
:104B10006BFB424037EA99FE84810323FB5B44C070
:104B20009608FDA6199C306BFC5F16109409F336AD
:104B3000623B60E5800534D3FC3D98E07F80AD5B4F
:104B4000910F64BB26FB6E40793C92F30189ED49DD
:104B50007F6CC080B418E38927377704AD2BFE4FF4
:104B6000435BE02C7D33FBDC5C30621BE33D69146E
:104B7000D802E8D34C7650E419F3A301974DF8E33B
:104B80009002120518600C853CB678C848218D6CDF
:104B9000FFBFCD7B1F10D0F8F06C0F10954721CDD3
:104BA000D564FDBE4B6DB3B2C83B7CD8C80CBF5BAF
:104BB000B0F9989AE7B528DDE380723D78060E607B
:104BC000DBABCE34C80F79620919384ADE70201980
:104BD00036D3804FDC689EDAA0F937B3021876BE70
:104BE0008DDC4771F3024D9897F27F04856E5ED39A
:104BF00026B630FBFA6E5A23B3FE3224528FFB8462
:104C0000D83C4E59F040028C5D47DE982644044063
:104C1000F51A1093DB16489BC8B9FC5CCD0E0E99B3
:104C2000189195C8C7302C193C4BD5980797C82CBC
:104C30006C03AEDFB107BB12FB4519207ECC604B85
:104C40003C917D16AFF327C97A30966B93C8A98142
:104C5000641EE90EDB49FA7D6536C0824CA947988F
:104C60004BE3402408B12CF8C834040680EFE6304A
:104C70000D8413254F107120AE7B7B18580896A524
:104C8000249C3DB94A84059602C622B3E08142C005
:104C90005E83C0ADB05AA6129FAF9D9BE8FCB65E86
:104CA000C8536BEAF21031F76F5C9808DA159EEA88
:104CB00072EED0DBB7171CBBB380013CFECCB6E371
:104CC0002B14FACC57D8E21BC8F103C637CCF30833
:104CD000FEBDE8CB1A7F7B9E885130F4FCEF6C98C8
:104CE00048084B7D49A008461F99ED98022093C7BC
:104CF000302511B8B3AF1E417BC20188BB12C9CAAF
:104D0000FC222C9EF366F8FC826834F59890A9DFAB
:104D1000BEEDF6FFBE0F03FDC501B50CE43078B162
:104D2000F33FFAC92C900532CB4B8BD3AC848E5C0D
:104D3000300897B3FE3502404719E93A1E8CD86710
:104D400096665AE8F898B7B5FBCC45D4D0B71A3078
:104D500073118409BB30D52950FACC0131D514B078
:104D6000207F06D1145073F62D041D93C73036AB47
:104D7000A8FE8E90021204B9302CB5A0F2C9EA0A3E
:104D8000FBE713F4988806DE9837B730E5DDBE6D93
:104D90008E54576640F3300C046BD4DEA670EEB12F
:104DA0000C33FF17F598F8B7AB4B08DD4802E0016C
:104DB000B7681770A6C49EB31C0806E0D1C50E09DB
:104DC00064BBB2D67D98F8DFFF08FA1928E23001FB
:104DD00022216CCB9668EC2666812046DA1142FDD2
:104DE000F5697FB2B30DEFDFCC93D517C51094FBF7
:104DF000C1AD903FB5CEDCCDC81018D2A7AE98415A
:104E0000397EE042DB20026DF036FFC1FBDC305D15
:104E1000BB779B98F1308BFB9807347F9E6BE06FDC
:104E2000ABF90FFB83FC7A83403D18E83D840D7895
:104E300030C5C8FF71FFBD3D9630667E6E69D746AE
:104E4000FCB110F51111B71130F4C6DF23EF98460D
:104E5000D4408072194D76E03442DAAC5F524BE4B4
:104E6000FE4CE0C882582F41A5296F99C808E0621E
:104E70007DFC5EA518CEE109E0224DB8101520A9F1
:104E80001871032DBAFD7C99ED84495B72E5C886E3
:104E90004BFFA856B3201CBED66D73E4FF7F6002A3
:104EA0000EC4FCE5BDA5E2021EE5E0077A8B88E3AF
:104EB000D0768168FBE10146BF0492308C66DF3A10
:104EC000C81121F04B6C43D50401C8AD5B47814448
:104ED000883626A047DC1BFBDA2AF9E50D7D7F7AB0
:104EE0009808B85DD7D2BD22EEC532C8BD9881A55D
:104EF0000834447C25DAA604FD68FE9F78B3DF7D84
:104F000080E9A507436C195C3062D9C87FA1983845
:104F1000EE0B04F38B55E90BDF7FEFE0F904341956
:104F20006FA10C821719A9A8C908EECF2DB3498F1C
:104F3000C064E5040B04F823D89CFF3598EDB14814
:104F4000A0F90D0902A79698ACAF4C4FFF7F340231
:104F500016D808778BB8AF8DAE97B38C2BC828EFD7
:104F600032FD7F19CBF2455ED717013030810D1825
:104F7000AFA098D25B82F230408FC9CB9BD62FF97D
:104F80005640C82D19F830C5B2C88CD3F29A395999
:104F9000EE58B2FCB2C85EEAF36BC63029E0983432
:104FA00002C41E6BC630BAFD9778F3B6E4FD084E16
:104FB00076C82C28EBCB68D6B30ADD216F9C3184F0
:104FC000107266FE50F1815F8AF3C9E63060FE031D
:104FD0007CB6C8CE5EC08205201CEFCE5F706DD659
:104FE00053FE98D71002DBDD7030B4F36F344410F9
:104FF000FBCC2B3BC80B6296FAF0BC30368B3CDF07
:10500000E32DCC8B66913D3059DC3085480F7EED29
:1050100049FDFEB4DF36F5C0BE9864F27950DDB3C9
:10502000306497D39A8B174D5FEBDB64FF2B37C847
:105030000CABCCC0CD983F05B0B60836952E114BC1
:105040003D40C0F9300D00B5F3FCB320BDD38DF861
:10505000639CAA67A8B32051D45ACFEFDF1CFD2070
:1050600034CF809FAE0296DC4C71F3B1D99AB52D46
:10507000E04DB5C0D339D38880FAC10CFFD3DB9F94
:10508000FF280A8C667139A35DFE677DE91B9D18B8
:10509000C45861D989FFC580F6EC30B547D39E95D9
:1050A0007377DE61666DFB5438F8305B5199DE7FB3
:1050B0009D46FF2A1746FFFFF76EA4965966091F03
:1050C000CCB598F34B3916408602C5C365316F6D78
:1050D00097F8FB4F10EBE910FB7312319576E6F071
:1050E000FCC4FCCACC30F899A618711989653B86B6
:1050F0004B6514CC192D59AF011EC6B2029BC6C810
:10510000FE1A30CCB5FF88721910CCFBD1FE38588E
:10511000EBB95979F0887E56409ACE28FF227EED71
:105120003DC05240B42040A4817A6508CEF3E8D651
:10513000B340E6CFBDF92FB55CFAB0B3DB90A00D5C
:105140009DDE0DDB3CC08442E30A200223C3127CB7
:10515000B33094041080BDC0A80347C6A9B3487BF0
:105160005097F9E9687A23ED0640B85B35375F88D8
:10517000EB2C213C1E8BCA7F9A881042344533F9B0
:10518000146926797F37EA0C017F7FF820625F0A75
:10519000B040A7F66A04EDE9A0FE8A2ED94131AEEF
:1051A0007E477E02282C5CDFCB2AAE5F6CAD5CFFB5
:1051B000AFD9EE105C346187B6CEB8FD2EE52CA9D0
:1051C00053AD17D6B009738E10FC6808464DDC2F1E
:1051D000650BB8430A9BFFB0F81F30DDA11188B101
:1051E000FEAED86740A00386E9F3CF27F7F60AE6BC
:1051F0007BF9C552C180D4CEF3011F6C95D0FB481A
:10520000D9F5B8098B7D8075448A672E70FC617F63
:10521000ECD4045FFBBF98FA1258DD02DF1897BB8D
:10522000E638FB61416D8FA593891986EBFF5039F4
:10523000EFC8B1FA43D71CD5AE208A365438FF35B3
:10524000FB071018589E108EB6A450FF3A8D0185AA
:105250003D44D8A8FCE798FA56FFD898FB606D63E8
:105260001C7D623FCC6187D96DF92EB240BE64C609
:105270004919D88062BFCAD868FF75FBCE4037F69F
:10528000CCFF539B0802617114BF2E2A09EC97FDD5
:1052900006088BFF087FA3CC68D66C2031E6B63FAA
:1052A000D6F91EAC6680E5EF90857EE567AC504090
:1052B000B7A350FA120201834DBD0B04657EA40111
:1052C00058EAC32502107686357ACD820522AAE4F3
:1052D000FBF59514079B76C76EBC08906EB612FB63
:1052E000B91310B3E99AFD04CBF3227D1CD4C35C3F
:1052F000F9A4FCE334D6C048A79E02F60D0844EAA0
:10530000B18B0A1A8108606733B36040E302C001C1
:10531000A0E6905130D58C0C68F8D696010298160C
:10532000318DA4E0FDE3086909A110F1C14285D6E1
:105330007F87286840A482018F310467FAFE203EEF
:10534000019078EA423C0538801511608244ED7C7A
:1053500005A6A8AFF92D8DB3F860C30E5B6E02B63B
:10536000D890FA57EF5904525920E08092A342FB9B
:10537000CC3766D31F6C827B032FFD2DE0FC10859C
:10538000BA17633A45D98CF981D5D8F22124E33E86
:1053900015E6EB88FFD7FBD401408C3CFF3071AFA2
:1053A000BBB038FC28E8DD8C0C639E012C784D6086
:1053B000D0B7FDF96B6846ACDD09635BADB4013174
:1053C000DB05B328BAB308D8BAC830EFA4FFF6A5F6
:1053D000B0FFCA6CC4022425F3A73DFF217EADFCBB
:1053E000F8BC53F468C0B1ACDF5950089B4AB20313
:1053F000BF3190B1FE6FB155FF590101FEE4D8AC49
:10540000FAC9E08A794A79BBE73971EE9BF6C78021
:105410006640B008C76CE2F5EDFFB7D8F49274C0EF
:10542000C63F8020677DB5B7F8320806C2B78A2E1E
:10543000B781DEE006D0BFA5139501F7CB19093D72
:10544000B5947BFA61036836D922124DE470FEA24E
:105450007D80C8ED65061F70F55AE63B22306CEC86
:1054600001A15995ED21F8FB77C48001B4E109ED64
:1054700088A541B3F0A7FD0D0F82413C882FB23CB7
:105480001B8BE058DA23800737D06FE478F9149A41
:1054900026BF4D228009C46660DC2301EED83002AD
:1054A000BFAC492147F79C086AAF8457EADE16F77C
:1054B0007E916CF53CB6418801141621DB8012DD2B
:1054C000B220540CE9B205FCB758681920FD196FD9
:1054D0005330195343E2B4320CF4BDFFCBC9202C36
:1054E00014E2302D430080E2C65B641E96E48AAF6E
:1054F000332CE3B2FA3DEF206DE271E6C40F66EFA4
:105500007B10035015C0E02805F3C8CD7AFA7BE183
:105510009026D1C2022036D68245BEA2AD0A9D7B1E
:10552000193411887C32A01926192321CE47C67E52
:10553000C21ACCF5E508B7962C4BA2AC5FE7CD229A
:105540008568340166F421D92A849E9865F6F30CA7
:10555000BE32FCB1C83EEC713008DDAF86B3A63C6C
:1055600098CBDEB988FEF5D680AAE6608FF5697221
:105570000318E4412C64F5662CBF9F98FB7F052B34
:10558000DD98F0FB04A1D2E0BDDBF95B1639616761
:10559000A0313EBF2ECC98475708EB1AB36584B2B2
:1055A000B216F7DF611280F6840110212DED9810FC
:1055B00050BFAD9818DBDBC9FDDB19302043709775
:1055C0001907FE2F78BC98582CC7AC984A47DB982F
:1055D00058FABCD2DBFDB10C8881B7ECFC615B48AA
:1055E0007ED6BCA5D7D698205FB79811F878D2069A
:1055F000BFE3B72CFCAF08C75C82230B314FFDCC57
:1056000018081322049FE398BAFF69EB9880FE7B89
:10561000BD980536B3029E98C08121D93442C6B4E4
:1056200067AE98046DA49808F37BFB6DA798F99377
:10563000FC3064F9989DAB220912F39876FF90FF35
:10564000D3C398BCE1BC98B85DD7CB98CB8ECC4B7C
:10565000DDB60AF6988358F5938897ED98D0F81E32
:10566000D0166A189704E3A78809570288B3B0FCDC
:105670004BDBDB981320CFB35B670537DAC2FCB690
:10568000DD40289FF031B2305E14FF10611420829B
:1056900001B04066AD1901BD980869C530F332F418
:1056A000016FC77D91199DA7CF0F193C9001647AB6
:1056B000981CCED5230899CB303CFC98C8D6FCFE6C
:1056C00004FF384E4AFD5AF231F065B8A95EC5B8FC
:1056D000306DE0500CA0BF5298E919B08FC47DC75F
:1056E000148C881134AA7D604B84A67FAEF13521DD
:1056F0002FC43BC4645649A6E32F0A02CAF6E570DC
:10570000FFEE5EC5064A5EA5EF245080D7324021E9
:105710006838FC8489C1B11F68984008A45ACFF149
:105720003095EDE3C8FC94D67FCB8559521916030A
:10573000F367281802ECE248CBAD11F59868D9C898
:105740000306317FD79A879B4B4CC046E50FE05844
:10575000368F0B3003FA24D729C80B1C6EDA96500B
:1057600019FE0B5C3D8F1004446A3D5FED880D6CA3
:105770000C404FAF64374BE5301ABEEFFB4AF1984F
:10578000BD19EDB22482FE8B2BDE48F45A20AD9673
:105790006E12DDB15E98AF80C056036FC530C6D3C0
:1057A000FF7FBFFDCDEFFC985670D68253C85903DA
:1057B000625FFF6697B30B30D3D6F15823CB30E846
:1057C000B830D7E5D9B6124AF340EFD77E62CB475F
:1057D000C93B953005EA98061666959C302CEFA6D5
:1057E000E291FB9EED1246C482E7B3204840AD88AB
:1057F000EED6C008F398FEEACEE43006E6A14026D5
:105800008E8AD79D983011022D5C04FFB0FB4C9E10
:105810008006C7C302144F200DA004CD34128B8222
:105820007AB4090C412A88FBB35F594B023C30A281
:10583000103F5AF70DF60802C85A19FE1CF826AF99
:105840002180DCD50C0246D6E6DA471B3B6D1F0DE6
:1058500044D3049DED98D0FEE342B80E958071F7D5
:10586000AF05B36BFACC64CB7B551882BF29CA2C29
:105870009340A116A9D35F9F7FAD9808F7B4FB773B
:10588000E74E26E552505DE3950C8DD20A6CFD94EF
:10589000367C50623E985FAC77CBABA95EDB645A36
:1058A000BBE43AFA04C91BDC40C12011808851B620
:1058B000ABFA62FB208211108A563A6001D8B5B863
:1058C0003057D18E98B288048C0CBF689898FF9A94
:1058D000EF6F9816C8F5984020907034F698E04124
:1058E00059F3BAFB7E6BC8F0C998D30F6DC6304729
:1058F000E8A6FD6C89C32403B902F5015EE56DF2EB
:1059000047F43B55BB4097C230668454CF77F98744
:1059100093CD0829F8CFFA46C18212DC0113CEA636
:10592000097CC088929B61BF6C4FB08DB750FDCC95
:105930000427938AFB68214DA93009DC306E97DD7E
:10594000F8FAFE172602484F956D228021389911EA
:10595000C0F344B7099C0AFCA4510B1111E530C0F7
:10596000FAAFAD0134CFF5989ABA66E0BCE5D883BA
:10597000D47ADC195B668B6EF533D68D0847D9B3C4
:105980003D8DDA58FFEE060664E912FDE2F61C10C2
:10599000DCF0D03D190F804179D59C66B92CA0165A
:1059A000CEC080BD0E087619A00552A768DC66B689
:1059B000C149D8C07B2F666785210D1B0480621EFC
:1059C000982FEDF27A2FDFDDCC02C652FD13DDA257
:1059D000FFF9F840EE8D189129DC8A8528B2D78925
:1059E00066AA04DA31029B0597AB9D98CCCA432086
:1059F000DFD30DE69857EF6338E6300732141ED731
:105A00007018B8A5010C88AC8E6C303C20F466246C
:105A10009FD39F12C003192DE07D9816B7103B97B6
:105A20008B7D28ABB6B5BC0C9308B8F3C40DB2910E
:105A3000305963BE4B6BC530EA2120E9648D716635
:105A4000BAB3199F19B0A026C2889F189160822C02
:105A500080CD0924F3C0CABE60D6EF283059CBDF11
:105A6000328E109FB34A44136901A14C939B653B4E
:105A700019F0FA30FFEE4477BC362241A0013E8493
:105A800040D47AA7481309DF3F883442621E987FCA
:105A9000343D4003F77E59C84CE4F8FE06766BC7E8
:105AA00002E8326E5D0CC673AD2144019390C8D9F3
:105AB0009E986EF3371DFD679207225E556804922B
:105AC00018AFF66B3683E2BFAE3330F37B2C26D3B0
:105AD000F3166D9312F3C806647F16FF0C4719FD89
