:100000000C94649F0C94839F0C94839F0C94839F07
:100010000C94839F0C948AA30C94EEA30C9452A48A
:100020000C9465A40C94839F0C94DCA20C94839F85
:100030000C94839F0C94839F0C94839F0C94839FB8
:100040000C94839F0C94839F0C94839F0C94839FA8
:100050000C94839F0C94839F0C94839F0C94839F98
:100060000C94839F0C94839F0C94839F0C94839F88
:100070000C94839F0C94839F0C94839F0C94839F78
:100080000C94839F0C94839F0C94839F7F7F7F7F2E
:100090007F7F7F7F7F7F7F7F7F7F7F7F7F7F7F7F70
:1000A0007F7F7F7F7F7F070007047F7F7F7F7F7F4A
:1000B000077F7F7F7F7F057F047F7F7F7F7F7F7FBD
:1000C0000F7F0E7F067F0D7F0C7F7F7F7F7F1F7FDF
:1000D000177F167F157F1C7F147F7F7F7F7F007FB8
:1000E000277F1E7F257F1D7F247F7F7F7F7F187F57
:1000F000207F217F267F227F237F7F7F7F7F7F7FDF
:10010000107F197F1A7F1B7F137F7F7F7F7F0818E7
:10011000117F127F0A7F037F0B7F7F7F7F7F081015
:10012000081F097F080F027F08197F7F7F7F7F7F6D
:1001300008027F7F081308117F7F7F7F070C087FED
:10014000017F080B7F7F08077F7F7F7F7F7F080706
:100150007F7F7F7F7F7F7F7F07037F7F7F7F047F1E
:100160007F7F1C7F1B7F7F7F7F7F7F7F037F0810C8
:100170000C7F247F237F137F7A7F7F7F7F7F08110F
:10018000147F081908200B7F7F7F7F7F7F7F7F7F11
:100190007F7F7F7F7F7F7F7F7F7F7F7F7F7F7F7F6F
:1001A0007F7F7F7F7F7F7F7F7F7F7F7F7F7F7F7F5F
:1001B0007F7F7F7F7F7F7F7F7F7F7F7F7F7F7F7F4F
:1001C0007F7F7F7F7F7F7F7F7F7F7F7F7F7F7F7F3F
:1001D0007F7F7F7F7F7F7F7F7F7F7F7F7F7F7F7F2F
:1001E0007F7F7F7F7F7F7F7F7F7F7F7F7F7F7F7F1F
:1001F0007F7F7F7F7F7F7F7F7F7F7F7F7F7F7F7F0F
:100200007F7F7F7F7F7F7F7F7F7F7F7F7F7F7F7FFE
:100210007F7F7F7F7F7F7F7F7F7F7F7F7F7F7F7FEE
:1002200008277F7F7F7F7F7F7F7F7F7F7F7F7F7FAD
:100230007F7F7F7F7F7F7F7F7F7F7F7F7F7F7F7FCE
:10024000017F7F7F7F7F7F7F7F7F7F7F7F7F7F7F3C
:100250007F7F7F7F7F7F7F7F7F7F7F7F7F7F08158F
:100260007F7F072408057F7F7F7F7F7F080D070B37
:1002700007237F7F0713071B7A7F7F7F7F7F7F7F27
:10028000071C7F7F7F7F07147F7F7F7FFF1F627F39
:10029000C23C006088FFFFA0089001324006C8C63B
:1002A000001985030AF84414012341338AF320FE20
:1002B0000365A00C942900CD7FFF0C9C8132500671
:1002C000CAFDDC19280366C027E033C688009E9863
:1002D000D344800C7FB908F90014C00287580BF88A
:1002E00060012C800460430ACD0270F34032F305B4
:1002F000A0E6180CE4B312CCE050DBC008286D1760
:10030000E0502ED3344ED316B988FD131640FF109B
:10031000C6024067A0EA404008C60120DA04802CEB
:10032000E008A4E4D8B0664866FF98FFFC2003CD3F
:1003300098927A804D01F399417E407EB304CFCFED
:100340006ED3140202E083E0D0A05390FFEA6281F2
:100350007A1070F9062546FE04B9B3E2BED6143011
:10036000C3FA90641B2130F70211341248F8F821C7
:10037000204104C097908BC9A9D97A61FDABD324E1
:1003800092BE12495FA2339508ED44071802F2406D
:10039000224914F38CCEE6689080903B40E750925F
:1003A0001489CFA001D3061088D2024985219D7DF2
:1003B0001078FEDF962579F0A81C16E45E9067FDA4
:1003C00033C64C62F640D8F39AF7E8FE1B81B4209E
:1003D00082AEBCEA9AA72018FA576CA70109F6B5B5
:1003E0004108E48F060A03F82A0993063A4010C828
:1003F0005CC508A4FFC8F980053021A0D0FB029994
:10040000100B0C44662699B2B3A2E0814C0567FC40
:1004100080B996ED1433FD506D0CD18401D3C09F8B
:100420007F6004400108050778F931CAA0A626A913
:10043000116BF261E97B62840A224DB36C817FCD3E
:10044000301166BFB48051B02006C0F908580023AF
:1004500060325E2D2166E50818BA7B0E0285FF30FA
:1004600042A8FFE0013D80FF07F1001ED003784065
:1004700016604D42F33030F38338FD0FE2813C9C2F
:100480006781603C3AE0F2207AE078100F2819A3E7
:100490009040A3027A49F3B9D3CC20FDA031E4A067
:1004A000C2407380B6881793956C04FA350C336696
:1004B00085B3D32CEDC092D339B1F320810C8148A0
:1004C000E6F85011B50A02DE6108236273E082503B
:1004D000EE462BB5FF3862202C88416200B30E86B1
:1004E000A0409FC02324448C8270195318109F434E
:1004F000190482093031B4FC6B84FE4508201221B6
:10050000087842016BE23BF3101882B12896017A19
:1005100047AD4C245AF83210F00008CF4D91FEA0A0
:10052000775E06D07F45D32736801074BFFBAD2D94
:10053000FC1BFEB820EF59E5266FA42D772FE83F6E
:1005400060AFA85AFFC0AFC180EA17F9C67C7F8DA3
:10055000980602FF9F5E98AFC8A3EC813FD7560470
:1005600029ECF0FC039770FDFE32C089E3790306A5
:100570008178F9B8FD28E04142E3D0020927ED294E
:1005800028515DD331EA903A2361216C9E3005FFFA
:10059000509830883C99024F0C2401805D93D3869B
:1005A000C03B0302FF084D9009040073FAFB805121
:1005B000302226C584557260B0BC789F6C936080F1
:1005C0008C8446B57BB38008D346C089216142D173
:1005D000B19408201FE121228C7D09B120D9FB7C38
:1005E0001CF326F4201EA77876F1900DA07D3440F0
:1005F0001ED03EF30FE0813C08CD6BB4E040F3F930
:1006000032D3C4F90218100328C6AF9079C20EC4C1
:10061000035819AFE2759860FB84EAC506F1C5C8B6
:100620004540E07BD093F9F58360400C862CF3D3F2
:10063000B3C6ED661857259AA5F9787A9821D3D9CB
:100640007E69FB60D7310AEBB998E77F1402413E1F
:1006500019A6400418015C15C0B319C9B391E0FF95
:10066000A0C0221811036201A60C7904069FB309E9
:10067000036014409381B9BCFA16845D1FC8300929
:10068000576879C57123FB8BAE0992853B8DCE1CD3
:10069000B2431402FDFC501008120D7998DC303280
:1006A000EB132AB69476B9D0FE9BC17FE87F105336
:1006B00023087714407ACE0CDFD7C883F047D76F72
:1006C000708A9847EA2414BBA3260DFE736BEB19BE
:1006D000081222B9515AC641FB98E020F01EC0030F
:1006E00018D034435BF9F0042830812BC888306679
:1006F00087B3A92602D724986B5D0ACD98BAB1DDDD
:10070000F7226DD4DC275D90FF32204694001A0951
:10071000131A013BFB6AFF0C03E24613289072DABE
:100720002C61DDA0D780BE182003020C2CB8FDDFA1
:100730006D0459F8900568F310C80498EF62A08022
:1007400086232E7E2398042360110C0E20B07AFDA0
:10075000F96040EFB1F0001EAF086BA50D68A5B1C0
:100760000CEF46000FE881D93C10AF66E2010D8026
:10077000C503F0C01ED05E789322D37DF05C30A319
:1007800083D3B96DF81D38260806C15518E7E50B67
:10079000D1B6BE12EDA31C86736665AB82FE6B7F7D
:1007A0009F98C710FB8B040309A3D3B8FA0B05323B
:1007B000D1022653766482E7B30146C40318023798
:1007C000E02219E0DD174DED12A6CFB30B24444C07
:1007D000AF881C78A622588395219F0CDD1220D863
:1007E000FF0B848009DE985EAD11AFB4980442C15E
:1007F0000CDBF3851B22EB0131086BCC3020681D2C
:1008000081A1FE9834F24894C04124F604025CFBB6
:10081000E5D3C655BE98211D2CB1053F5B9D802DAB
:10082000FB617EB3E5C603E34C6FC05AAF5F8C5CDF
:10083000A8AFC8EE8C0CE2F598B41EF3E06EBD2DA7
:100840004C57F8092DECF0CB0CD29831B0B4FCEC3D
:100850009FBBCA88FA2028CE84A0120209BE18BC09
:10086000E7BB9E16E7102480390181ED4C0448F95E
:1008700030146AF8DC8A04ED0F9908271EFA829179
:10088000EE302014672A1362C681453FF74BFA8089
:1008900049B027A0A68804F51360440CD59CCD5F11
:1008A0000408DF5F05DAA7672919497CC09918DEBB
:1008B00088D9A52C7312291A586610E68C828149B2
:1008C00091EE75308801F1E0A5257AC46F49A00743
:1008D000FC722016C080583E0FE241DFCD9892F89E
:1008E000E1E0EF901CD3EF08F79880033015678E96
:1008F000790059C89A1CA0FC18E366C1BC1808030B
:100900008453F4F3819482F39CB384F830B5793046
:10091000592E171800A182E0479730251CF3D37F8A
:100920001730A398311C761098BB06DE7850304102
:10093000264CD6E08B9B46F3893FCB4B5CFC0106F3
:10094000C83E1811216ED38CDDD602DE8BEB4360DE
:10095000203EC83112A0F8BB31411567C84922AF0B
:100960000966F01105C7120652509CB580A111B35B
:100970008455FFA8E2A5DF29C15C03A409C6804F06
:10098000C0080242AE039309B1E8B8B6F8163FB604
:100990007E9226ED02CEDB49274FA449DAC1AD365F
:1009A0006B9DFB10F97160F9C844C8198E01B2C87B
:1009B000BDF60249B880E015B1A2AAAB64F2AE2E32
:1009C0006ECA370BC94EBCF2C60883BEC9E77E4863
:1009D000FE88D60530D78F223013279C08B0C0C6BA
:1009E0001004911A0EF54401F6DFDDAFB50A5FABD6
:1009F000289FB514024003EB64820DFD5F2040D0B8
:100A00000D4019210EB4E76AFA8B9925D5BF6EF215
:100A10000C3C801882DF26C0205000F22360012C9D
:100A200046D867DD5E81A709F4C028980A88BD0B07
:100A3000825E1A8916245E9833232CB4310F40FD50
:100A4000F7E0812C9065C874B1BB9CA1A4C0312192
:100A5000F37418100FF36C216DFFAFE0413C885C1C
:100A6000035EA55E9897A0E0FBB5C4038619E0D3AA
:100A70007E70FB8441FE165DC3FE98D704201F5D87
:100A8000BB3C317DB604225E26C99B89AF83949F0F
:100A900097D32DF87D988138F3A9FC50059642C86C
:100AA0002B46A9B1C0B17EC1E301DA8231E6115A09
:100AB0009ABB805ECD09B1C0422DC02337E340CE42
:100AC00002041110438486E6FAB3C0F82008CB3D37
:100AD000B83053F733042495C268C450F39680EEBF
:100AE0007F9D98E5A5F23DE0D3379B04EBA24160E2
:100AF0005EDB73D4C4FF647030364830DBF320FD16
:100B0000D7B9DF9A0B79FFE6B09E980398FD71CDB7
:100B1000DE98438E46645A02C004E076C9C5C00C14
:100B20005FDC669BC1EA556013D4E307F572680F7A
:100B300060FC3CE7F0FF3230915E98DF0951E3FE44
:100B4000AB018B8614B898CD7BD589B040631775FF
:100B50005B3075907F5223615C93FC05329146C2F5
:100B600080FFE411610441100835E612B3FBE48113
:100B700034163D24487F7F010CC98049B302AF225F
:100B80009AF0B90CD5F98A883D270A80C084652B74
:100B90006DF03166422627181E8360C2140CCE11F8
:100BA000B032FF60EDFF49F4001EC4037A10778D68
:100BB0009890F078980B38FC98CEFE7F6680D337FB
:100BC0009BC07A982403D3F30EF3780C5CE281ED9A
:100BD00083F8FC3CC5EE0830D7C5988CA64EC8F803
:100BE0003080D51944B602F3986F2F6B17C5B01C2F
:100BF000F3D38660FF0B98FE0A51F4ED989BED3E0F
:100C00000C8EA6CFE8112321B881F3B483CBCF2D6E
:100C10008029B0E02026C25D98EA984C4FE042D38C
:100C2000021809F89300012C825E300A70FBEF6114
:100C3000C510082F0FC512832980FD24C244080463
:100C40001A6E1301387290E6D5B4226EAC8F8046CE
:100C5000286ED3D72EC8F1E8F39448FAB9D60260CB
:100C600059C8DC5D4AE204E312372DD1BE295A95FA
:100C70009BF2FE1908D545205BE3779E08C637A195
:100C80000BFA1C30B47E88AFFDDD210A6AF8ADE2B4
:100C90005FB70692C81913F930225F724BF10F9DAE
:100CA000C020FC84777EA0D0FB0241200B0CB93C15
:100CB000910342145F8F3DB6224C24DEAB6633FFB6
:100CC000A591AA46891419E210136185829929C653
:100CD000407ED11A49637B980102D650FF41FDBF87
:100CE00016FFEB62400A8031AD90048F0A1DD39845
:100CF0008205BEDB400D0C73B07E5224B697BE7FDA
:100D0000B930119A06FC182FE8CE7289C760FAEF45
:100D100066A507F1DDD0BDD20B80E0F1F34645F3C7
:100D2000EB983D34676BBC4035A832E76B7A98206E
:100D3000FC8BBB0681C43AAE2063401C08F8FC80E3
:100D400041305A06C2DEF38360B662BCD25DF3CA9C
:100D50005D20E9D1D6659BB6FA9820D385300EDEAA
:100D60005E6BCE30028030B6E3B8774C12ED40D7E0
:100D70006960E68704E02673F35010B30A77ACB8D5
:100D800022E5B341CF93025808136998C802FFC403
:100D900044180493E760204CC43012C0E0FA08897C
:100DA000EED05EC5812212D701A10AD7EFF455100B
:100DB000AF392E98B37CB22DBFB0024DE01369DC81
:100DC0003045EFAFAF4802600CBB40DB9844FDFFFD
:100DD000A1C26E3969E07ACBD52CBCDF52F580B167
:100DE000CFE130EAB462F69828FC51F57BE2CFBE41
:100DF0005707492416B4BFC8C544C79D996A64F60D
:100E00007FAB6B80EDD93930C022F0EE02702D92AD
:100E1000C6EDFEBF21A4CB42080A3C290850C6ED0E
:100E20008669E51DE698FB49B7101AABEDA0E730DF
:100E300050A360F30A208889D746FAC2040340838E
:100E4000DB3C9A7273FBFFC62226C0FB045810914C
:100E500060B78531005FC0421803FD136102408214
:100E6000897D65A9B3A90A674E2016E3C80401DF8E
:100E70000BF37FEF46FAC10459208BD5AF843DF3C5
:100E800029FC6081DC30D74006BAA5200BE2DFE008
:100E900005F20072F340EE5A3020F6FD90D5ABE833
:100EA000DF013DCD30C4837A98285AF0F22318EF41
:100EB0007B6B1D0890FB5E1D5DFF0361DA894BF3C0
:100EC000C1BCC551F093BF2D30585BB38C0145E0D8
:100ED00010C4E0F069E76B97F3B09849F8DF957BB1
:100EE000D564EAC54873A64146C0061122E05C2CD1
:100EF000996AB36D9426A05D9121A4CD93D340123D
:100F000026C6224AB30A2FB3609898FA31B5FF0477
:100F1000BF98E442FFBFF86EE3CAB5F1F79D6719C9
:100F2000F3CBAC221B60D3B8F9304876FF98FF288A
:100F300034936718D1E33990FF62EB9808F839CF02
:100F400037B1F33C1158E4FEAFEC9E08599C806524
:100F500019598E9BF8F904D051233444FEB329CF9C
:100F6000B637ED16D3FFE717B13950FA1823FDCC89
:100F70007D7FFA2664FAA820B2E9D7ECCFA5B3109A
:100F8000901AB2813866DF97712834D138F9E0655C
:100F90007BB44090669874C79933FFB8DBE0FC1AC5
:100FA000F6F12B9ED4679E171336D24076D7C22F08
:100FB00027FF00BBD9BA80638BB340736772DCC86C
:100FC0003DED57980179E589F9C58FF66B01DC9EF7
:100FD000DBFBF4D8FF7319093A0E83F737F5791064
:100FE00099ED7148FFC6A7C566CD3008801EEFFD9C
:100FF000B1011214D27B2DFE3BD4AF0D2DCA069E3B
:101000008EFC1A56F3FE6FE4088137863B8FD4C3FB
:1010100011FC21F8B3FE8189EEEA8429C5E1418FF4
:101020000804DA24201FB6FAB1FADE85B81468B5D0
:10103000069C77E00CC07B801452043F0A60060CCB
:101040002C9EEF73E7608004B63187A0D00E130C9E
:101050000310F005B02734EE1801C5212A4FB91549
:1010600088FC40FC1921071684187842F360EF8150
:101070003FA024CE4AAC10CF024BC72C4230D994AB
:1010800004C266712FC2408C73F61808F08A942A45
:101090000B3F8128241180609CBC090130DF7AFB62
:1010A000F667DE0D9580B3E0BEDE4CD808019F9751
:1010B0004E5EC1A930FA821FD4B8F3DF0A109DFB3F
:1010C00070FB77A1080298208D841709F8F7AF6AA2
:1010D000BFF1EEBACB2618F1EC947981E0A6DFF0EF
:1010E000772BD1B66418FCF367FA4F40CF16B6A041
:1010F000FF57BD24F341647B8D38F862FEA6AD1224
:10110000313F5F5A9022194EFFAEB6F95EDB8098F0
:1011100009BE6F434025553640BF058264AC64026A
:1011200047BDD550FC109BF6EF7F17D7D9EFFDA632
:10113000B48059EF20A94AF9C4B880CECE23D7AAEB
:101140001DED52089ECDD868FEE76C31105B56ED60
:101150000C22D3D8A0FB82EC41D44B8D0F00BCB144
:101160002FEC2320108321559470DF32B8907DBC82
:1011700080CC3C38D9C53417333C36F6C4E8FCCFB4
:101180003FBE8DC23EF5CFE51780B1A07D0A989E87
:1011900043B260FB2E4437E1F5C7809FC78A8D9824
:1011A000D7208B7E6D04DDFB30BFFE4F2FE2105C3D
:1011B00007C0B219E0571E8D624731F43E56E6B6BD
:1011C0009C31152BD238AF64EB98756208B991E663
:1011D0006E6A16C051E0B7920FAD02A2D09D2EDD0F
:1011E000DB36FA18BEE698F499E09C44DF28FCC789
:1011F000B8F5B1A9A9E65A2DABE60230BECC6CD544
:10120000C4FE9F2DBFB121BD161F98384AD9A8FF33
:10121000E98780AD65ACC420F31F27CD51D492027D
:10122000F3D870FF97ECD61025FDC4409842D1C882
:10123000FBA2903A61E2FF8859B3864CDB54B309B4
:101240000DE8FEFCCEED0C02B8EFE8C8C1FBC1CC46
:1012500057E1089ECADE61066C1448CF6DDB48F981
:10126000560040801A595D57058EACB401D6919452
:10127000F88CAB557B2079A68DFFAE80025A366A7A
:10128000E13B6DE0FD33D6880110F9048BF35E403D
:10129000FA687B7F5954EB7910125B73082CE202D9
:1012A000ECF4F5C0FA086A15C0EA2310BBE365BB8D
:1012B0004578D718FA91B6CB984146790282F3EE79
:1012C000B42D9474029FDF38FCD1001C98C00A082A
:1012D00030B61151E929F322F8406224B1DD65EC02
:1012E00097CBB702A15DC8D28D193811863F134044
:1012F00050100AF01B700308350D969C560490F8A8
:10130000A620010830AF37C1FA760FF7043FE82274
:10131000800A005A00DDBB44BF1430C00A401A11D5
:1013200027026428FE040550F98040101C02C41EE8
:101330005A847B71D6820946FFBC90291006E3C00F
:10134000A1FB9901286054275C77020410FC87698F
:101350006409828199EEF561B8FE95606450404A57
:10136000102F80A100FF091242511001C0F92CF486
:101370008E2F7D94F9027F5929B1023F923986E37D
:101380005DABE0F151F3B66F8F82D9DBD9B4C0F217
:10139000E50D4F817138C9E941A6AF8487AC0212CF
:1013A00010CFE345B51F216B991808FC6DE7AA8D96
:1013B000A30DFFB288043B7EBF024CF76F8C26A3BF
:1013C00049CFC86EAF1CFF335E7A038CE745C40279
:1013D0006507AB624D9558FF93E05BD95D49679B0C
:1013E0006FAE9D285838208F76F2D0FEAB8920331F
:1013F0002D7B4CC05769958812672E8E20DDE3083F
:10140000B10D9DF6F331D95902FF2C90FEDDE401B8
:10141000B6E3126A2420C50CE7B68EB8FECF3C9E18
:10142000C6C797FF0319DBF9ECB7FEFBEED718042C
:10143000F51903DE6146DB05EFEED0FA0E01F0C7C9
:101440005620BE81623BA07F59E3FC7867EDFF71B7
:101450003097B702AD6310B861F1BC4D629F5E6E0C
:10146000B62D0E9A2440F832CFF815C5F839CFF3CF
:10147000873FF9A438FEEE62FB612CA07B36732017
:101480005B9020FD1B10047EE19444D628DEE92108
:10149000AE049C9F2B41243BA41025C3D310A2660D
:1014A000817CF3308004120784D340B97290FACB68
:1014B000CF376C581130DA68046CE02082F37ECBB1
:1014C000B8FB80010C10908E061BEE7130FF9EA4BD
:1014D00091608020CFE67D01306ED6C0FB8AD23B82
:1014E0003CBCE3F39FF080403008D09AF9C98522D4
:1014F000B95334BF7F19D02818091360401E88598A
:10150000C6E3729005160880D5399004813122FA1D
:1015100008809802533BF4799D90FBA3853216FF17
:10152000C20218058360142C6C295BEA92214F9348
:10153000CFFE2911B00646C0BDDB2377A7D490C0EB
:1015400044C1090FD3C64C800923D37FFCE0013C82
:101550008807F0FE401EC00338000FD1192049F360
:10156000794636E61C7319E04149D3F1EAC8C083D5
:10157000F410607D0CA003F0E3D3C6E2C3810477CE
:1015800088985330C2A718FB6110B40CFF322018A2
:1015900008CD0362D6881909FFCCAF3184CCBEDCFC
:1015A000B8C80BB4C56FF318F6498441B917FF27C3
:1015B000462E40C073B360026AB39F04F30B600809
:1015C0002422D35941EF19304126C869ED098C080E
:1015D00077CE22C438C620433441994B19F9BDC592
:1015E000060248174903686DE41A4F9120F584DA22
:1015F00005349BB3F7092210AF0506A56BE0083947
:10160000852120C65F6E8F400AC30914CE8005DC99
:1016100068FFDFDB14036037BBD38481FE7FC9C959
:10162000C51D623A9CEF1810031D9181B8F90DD6C3
:10163000A23194D9B6F02FF7331C7A1B4DA0750454
:10164000FE98689F59D4D1401E757C52C41908F683
:10165000F8881186FE05BD4C31D04A66207BDF90AC
:101660000910113FD90A300223BB428B9F32C68436
:10167000F34578F85804130141D92048ACC4B9FEA9
:101680008E307788C2207F320140B408FB32DFB34E
:10169000808801B010677F7F0402BF085719013CA2
:1016A0002709800826F1F398040BB3444CA930EBCA
:1016B0000099FDD998800726C51E44DA7820F9984C
:1016C00013B0D307E0021DCE536760D303B214AD4D
:1016D000E060AD0B6819F301F3931ED3760FCCE0F5
:1016E00041A3F87B844ED79118F67F200CEA66015F
:1016F000F1B8F3621DFE5E2EA30665C366B8E06E08
:10170000F318F80305B97FBEF980830521DE14C400
:10171000B3DA022C79987ED013BFBF40EC28100AB0
:10172000E4B321F5C016C204DAB1027FE048B0107C
:10173000A0C00858EB802061F8EB09319BB0FEBCDB
:10174000982501789805D755B7831028740A1F414A
:10175000A0098267F3309004AFA1BF51DA788124E9
:1017600000267EF35248030C01FF689838FDDDC562
:101770007475B8CAC4F40C5B951F0CC4922C2EA3CC
:10178000F298EBB1BD98065FC92DEDC8D316F69D52
:10179000013DCB33BBF7D0015DBB45AFD1F23C037C
:1017A000E041300F18FD0C00BB84E9B4EB0169E3A4
:1017B000987224DF1809D137A0303636A0F64304DA
:1017C0008151BF9A0C75C990D2CE12C9181591D902
:1017D000D64F9B5AFF8431E4B00810769BED66111A
:1017E000DC10064148A2B93DFBF975B310B874A3EB
:1017F000DC9ADCA12C8291ADD4AEEA1CEA232C0247
:10180000818650BFFFDE98F4201E485FB0C230468C
:10181000BD8BC04C0C07E206EB191254F8E9F7BD7A
:10182000A00370F878C0D360931CD3F30E87D01A4E
:101830007F8C9848FDDA9830F1307113FF767F91F4
:101840008B2D70AA46779FE5F78D895DD3E0AF10A9
:101850003B8BAE57260BEE31FC9BE121264F6F4BA5
:10186000148C712DC4201829533281D950B0FD1722
:10187000FA09B14006C8670B1301B3900581312600
:1018800081C145F72021040AFB98E8FEF220483484
:1018900080E2661B446612D741AF17A12C8320FF5C
:1018A0001ACDE808F56B10DE0D39FC4924F7773CBA
:1018B000BB1A512049180D9F413001ECFB00B33396
:1018C0007C978BF36C69B5BB22AAF81101255F7F69
:1018D0006CE9299006187132FC70CB78FC06FB2469
:1018E000042BC0486DBD65F0C089DACF790D8CFA44
:1018F0004B08D0F81A43DC603AC9413CD3AFF3D26D
:10190000044CB9080944977FD77F16EDF81C840171
:1019100031CCDF40E58AD18110BCA709F7EA819C70
:10192000A0F348087B61F3BA0ACC53FEEB02EE3A0F
:10193000C224F098B7403F1E26C808180323408DE4
:10194000718880199E4B7EF44610010B9B88FD2CFC
:10195000FE450628186B1362B3F48522D95E98EB16
:10196000048803D5A548A299B095190797F52419BD
:101970000FE6B3465CB3E1801C66FE98A0E8F31066
:1019800074300EC8F0782021E2FA0C0058F8F9CF34
:10199000D45E986E857F1223B30CB4AFCEF0E513FE
:1019A00041260476AEE582D5FC4176BC80B75C0169
:1019B0009761F36B15F1FF32FA3226D3D75814F83A
:1019C0004B90B30C682339BAB1333BDE4B10300176
:1019D000425F00EDC42C840618FE42028804236096
:1019E0001167B3095398FF771130DA7130AE75C8BB
:1019F00010D2ACF1206C0152E612CDFC7F28DCED58
:101A0000C2F37F35102408C530BF3F49100814C900
:101A10000120BE64B2FD761FCBD912469608E07253
:101A2000FF12CBF371FA0FF3FB468E80FE8613266E
:101A300020FE0430F336FCD694B30FDD5BAF69D6DD
:101A4000B9465761C23379B972390DBE52D0E749F0
:101A500019F348E6FD88019006F6396202FE3F3030
:101A60005A180162FA0533465F66A801118006A57F
:101A7000D0AB03FE985AA2FFC028800801024100A3
:101A800073F05AF9D78009CD7FED98761701FFCC16
:101A90004A16FD18AF4E2F4BED1982027AB1C85B82
:101AA000AA0AF898AF50E778C102C780209F446621
:101AB00045300250AFFD2E98323032C860F3323BD1
:101AC00027F5F3E200B31CBBB1E0DE811C267730C2
:101AD000100F682B3C9A03200E15D33DE86B089736
:101AE000FA727706D38B30AF51F2E5F5C502FFF9F4
:101AF000DA1190AD6EC0BDE541F1200806C1007F4E
:101B00008278AD8148EFC032F58297C87F8569FD44
:101B10007E6DF5C032C8D7C998F3514C398209A3FC
:101B2000467E6FBC6AF840A1E046C0083FCE78CF41
:101B30007B20C124949869C6777CB1F8FDA005DFAD
:101B4000194091C86012B7DCB30AD63C29ACC14237
:101B5000EF2EE46E302414FB2A5D15BCFCD4F36335
:101B600043F3A48896F9E7259DC80301DDB12DA6AE
:101B7000FCEDD818C92ED33BAA8B4B4118B474DDA9
:101B800090FF80536999C812E6792EDC7613604085
:101B9000EC08E0018EB51E4B19607B5DBDE3C038DB
:101BA00090886ED7DD72B0E310C5C466502344B987
:101BB0003E68BC10199F431809236104D70C88594B
:101BC0002AA3B3FF342DC77FCC80CE0410F3A0D05E
:101BD00092A1838253D7EB32F9346330E0F52818B1
:101BE0000503D75135D14604DEB80B6401601949AD
:101BF000D90AA202493F0A12028044F7788811B03C
:101C00000170304E0513605DD3FD4D88F8B7A5987F
:101C1000407075BEAF3C30C401784003E61CB5800F
:101C20005A66409D669B9B035F1C98E0803C9E1912
:101C3000C60EC08340D35D342BEA4DFC32D5FEB6D0
:101C40009EE3305D9629416F2BCA8225B5E0FF5F88
:101C50005F77D14130C67E30835FB6FC55C9FDC089
:101C60005A32B6A6E330FB66C4F824989008621096
:101C700022FB0110A237E43286E92646C2C70B5E7A
:101C800098839030FF0A10C20208212360AE249F7F
:101C9000B1EEF8FCA00969CA3044EB675733049AE7
:101CA00048F2130C44497B46836BD66FAF11890908
:101CB00024C146598EB32090A444B076845BAD22F3
:101CC000440B30CBE8FDB83F8B305A420320360C32
:101CD00023A3B3651180B1062EA288F3AB7D1F8CC0
:101CE000F31088FC8042FA25FCB5C84BD7F00CC82D
:101CF0009199300CCD2DAE34B7CAA3FC7F0E15BA26
:101D0000730651DB907976773D0E48FD10A97F1060
:101D100072DE69D79C30D044181E1104411481D959
:101D20009912BEE5EEA65180EF640140A33EF42D6A
:101D30000290B04F66891841038F422077B87EF831
:101D4000FE04F73071CADC302F9AD27AE7CA010B51
:101D5000210E8C4B11E76DB65DFE7F0510B7C742B3
:101D60007FD2CCE0B03706441008C004605FEC9F1F
:101D7000B96DFBE001057F97A53630100F8003B5E4
:101D80001EC8CC5D07E4083C6CEE7730411C9071B6
:101D900030F9A88062B923703DD3C0037870C7F6CC
:101DA000D30820FA479D98E688AA6610D1EFF35D24
:101DB0003767F5FE2839C0EA5FE0F45FF3AC80AE28
:101DC0009BA75FE608D0F85E983750C4FB98210CBB
:101DD00068190A580C91E1E1448240B0673EB3496A
:101DE000301206C4930B93FD4C810208E24146C1B8
:101DF0007718090377B128B03F2DFB201114A15F9C
:101E00006CFE1A40010A0429089ED01411285AB801
:101E1000E2B850CFE165512BA072B60282E0F4FF28
:101E20000434A0441401FF077744EFD164FF531F2B
:101E3000FDDBB11065C3109CBBB21496B004BE6646
:101E400032BD3119DFC75EBC1078321981C5B83E8A
:101E5000B5EC502DE145B2F3269003F30DCE7EABE9
:101E60000580380807E0D3926C0F3BF2441DB05553
:101E70000C647FBCA0FE0211B86E21C05DE70A8C25
:101E8000FF7C000224982023F8D90C8011300CD755
:101E900055881134F78246D128F0309FE0C840467B
:101EA000C10285192337BC4024A8DB663910C0C5A0
:101EB000C82421946F104CF89BFF82180510619084
:101EC00014EEED02BB6C18B501CF475030015FCC6A
:101ED0007FF5EE8C08A88F06016501056664C8834E
:101EE000F3C15C30AF1D189853C81538C730FD02D8
:101EF000DEC55C23E1E2013CDE07BC2D4A755AE8F1
:101F00003EED8807F120D326C8111D6FE8F02CD3D1
:101F1000FDC8413C0840FADA727F125D660CD7CBEF
:101F200012C8987A82A9DA052DBBD8525E8CEDF3DF
:101F3000D3F3C80440F377C24079ABA37C51F830A7
:101F40006012B714C4E945D9F5016D31677B13619F
:101F50003F4681093222046BF647A9B384ED1B2664
:101F6000C1BF24DE4B2C8004927FD4C0081821030B
:101F700004160CE6B3E0FC2B1B5BFF04F1CA842DB6
:101F8000FFF8FBFEC8B510F38538F3CE58AC22DB62
:101F9000D3B8F9018243FF98FFB128A39338D1C683
:101FA000CB392C2EA5D408878366B3205F2965180A
:101FB0008644A8BD02E020673B7BF0F9048DEB0F5F
:101FC0005135EE0044F3443CB9F32420B1CC62D344
:101FD000A0FB3047FACCFB7F3087CD58C34099E651
:101FE000684ABCFD2FCCF46EE0B1B3B5FF088BFDA1
:101FF000CDB9F3BE5F91EB9802757A1090DDBC10FD
:102000007DCF2319D93FA5DFA6A8EC069DB1B681E7
:1020100033D4D6FF10C65D37D4A9C7A501DCFD9F18
:10202000F0CF5BB6CC044077D77ED98FAB9640B665
:102030005CD59638A3FDF738CD93790AFB286DE27D
:10204000E50DDCC68DB2FDE521A3406E284A6CB3D8
:10205000FFB65301818BD39C7B080140716C414CCE
:102060002E8563DDFA6046B0BF962733CE8004F537
:102070002088FA4097218989EEBDB5044D1D84EF73
:10208000408BF6FB148F7414B3C6F879280F51A651
:102090000898FD3571A5EEC8820840172060A9A4F4
:1020A0004DF515E0DF54D8FB186002DC1373B5065C
:1020B0000134C5182EE07A5BAD25147027395E43D4
:1020C0002580F00D3068F9FF380108869190FE30C8
:1020D000029560190C09B59AD1F881483102C21FE6
:1020E0001019052460B30CFAB10550FF63E742886C
:1020F0001014D982FF0506402600288070E41934A8
:10210000142A6DD9F80B50A39CDF81400806B96EE4
:10211000423EF3F34211FBCC6F8E5B46D84421F074
:102120002D7E32410CF8A6F5CC111052B7EC01BE51
:10213000C857D2CAD2F205D680B3104DB3FC775A35
:10214000942DA98443E9BDE668B3FACD85CCE05966
:10215000FF10671BA4EE96FC8C294D310868C962FC
:10216000FD0628FF44F5C710B3EAD8FE79EA9A962F
:102170009702B5A0F904B1151D08A9AB79B697D699
:10218000F6DCCAB508E0450C4B8C71F249F35B14E0
:102190006C5558FC632CCFF31BC85288DC5EFF24BF
:1021A0004DB106BFE97649F87ED1E3DADDCE14F60B
:1021B000FB800250209B7EDAA5FE978003F698DB19
:1021C000F9FE88F9EE62DCA6D82080884F739C2047
:1021D00047D2F1E1106EA5779E800DBCF9F8CF379C
:1021E0006116B88BFCCCB502D387733D45E512BFB1
:1021F000F2C968FDE8CEF3BD60B4688FC63AFE59F7
:10220000ABEC7DB8FC0B6065E04094654BA90C1C01
:102210005D0504C6215B7B08FF67FA3804DCEEF33A
:10222000F713FD2A4089ACF588EF35E5FBA412339E
:102230006B8F8DFB24290E782CB33833FF9B498894
:10224000FF3091DFEF84FD4808881F219741AEDB06
:10225000182EF16DA30CA09BE218FC30A3DC4CD827
:10226000B8DBD6492810B65A40FB36E246547FAC5C
:10227000F8805DD1B06E1967985EE9E79FC5F0FB05
:10228000CCFE1931D88F00CDC4DB57D0FD53A173DC
:10229000D82FECCE6C6DD405037F6BD6A0FAECF092
:1022A000D530208AF95C9CE3B62836F4DD533072D1
:1022B0007D09D439CADCF8C08D9E09B2203AFCFEF3
:1022C000B51FDB807585029C8862BAAF6DE793A865
:1022D0003B20F4C5368ACC6CEAD0F8FF379D6FC737
:1022E000024159F9484ADE4123A34E7FC8A404960F
:1022F000A25E804C3BEAA8FD3FF70510AFAD030A94
:102300006FCFEA49DB49C074343CD46BB29BD3B67F
:10231000FEFDEAD880D2A9CA5D0061EDACC0B12D46
:10232000540312579FD09D2E8410CAF34026CFF835
:1023300024F8F167F26DA58DD5869280B540ED4BFE
:10234000E020D6EE40DAB46E3D45CFB543D658DF37
:10235000347EEB6EF0ABFE27E2A006440311301290
:10236000051F0C8001F310D40490196A1919A843B1
:10237000B3A328BF50F7FF2221F01AF3430580E0F2
:10238000A1D32254E15021FF28A4C30405E8F90099
:10239000FF21200640C4127010F34AD0080C6E20B2
:1023A000F8041C212514F2421A77A98302FFF610C3
:1023B00040B830F866E360C8807DED944148253C24
:1023C00073100681292F898ACA30C60802FF22109D
:1023D000C2C30E8058C0B7FAF352F2108E06381CF2
:1023E000BABE5BD7F41D805F4BF001C55EF204D32B
:1023F00047172549A0217DD01DFBF00CBDE0FD80D5
:102400004003190844FD0108BC666F17B8937DA00E
:10241000E4BBC77896B50FD3126FBB4CD5C584C645
:1024200007DEAAECE8FF104B4F95FA2858C0109F22
:102430006D29014DFC56B80ADCC6DB64FE9BD99FB2
:10244000B0B4BEA0AF42B365FA5577410121F5EEB5
:1024500079C2E189CBDA6EEC40A8FF53960C04E612
:10246000FCE2B279CDED0CC09DDE0448FD40C5F71D
:10247000FF01B2048DA3CCF6C3AD7FA65AF798F83E
:10248000D0F5C225FF089A3F67B69618F978ED0691
:10249000A66824B26799EE6ED588FB20C4760C3B03
:1024A0005D5B70209BCE979ADB90AE1C6032B75B71
:1024B0000CB8FE14D069EF31C78D5B9F40FC9925A5
:1024C000E61BCB66FD142E3BAFD1080FC5B604CE7C
:1024D000CB96F2696134F8312FDE7F082A62ABFFB8
:1024E000442B56EF104BD660F962478475908A1FD3
:1024F00069DA954035DD25133E2095A6152FB52ABE
:10250000D63427961A7E40CD47373CAD89F9A011C5
:10251000B9C776410A6805817518EB1B4192B12253
:10252000FCCF740030348AE07FF38D8D22BA904D59
:10253000604048A67E87340AC0FE80023B8085D674
:102540000D0BD9D2CE8E31954FDC3010E0627A5728
:102550004AA9FE66AA8007CA1E66F87ABC404CB338
:10256000C0F003F30383780FE3808120B3C91CED2F
:10257000247E8E90D38401728C06C0ABF474640FF9
:10258000211098FC70801808E6162343199524B38F
:10259000F8AD821E20080C0A1AEB643BF4CB2085B0
:1025A0009B467D98B4C1BE77EE2D5A56F423DD7953
:1025B000E590D564C84A267A8498DE9B020C2605ED
:1025C000307CE4C08818037F60444C80D901B0CCD3
:1025D000668085F09340C14473040BF44C30D3B053
:1025E000BC16C00218BC269A7BE698FDA0B5BC3488
:1025F0004F500318100BF2E8013D20EA4CF331185C
:10260000C03628B32CBFCEE0F5011C9007FCF9C002
:102610008381F4E4E1413CA0FAF1201ED04F0C0F7D
:10262000291D10F05AFC5AE43A4E180821EDA9B6BB
:102630002566B67D721146A99C663D3A0806C1C55D
:1026400096F97F82D3447CF3A183C60739E678FAF2
:102650005C3C53A6C004C1EDA32976E01232B3223C
:10266000467919114C84195F2A2836FFE5B7A4135F
:10267000FFB302163CC058041365BC0209323F4642
:10268000C808190DEC7905900D78FE70F917F6520F
:1026900008B5A83026DDF5D0065244BC8BBC981393
:1026A000D2B314FF56F55350FF11300B8A442391D7
:1026B000D743B5702124A01204CE0452BE4824BCD6
:1026C00098270A8CFD099FBA48C216BC19ECE81479
:1026D00012DCFF0C669B84FF06300AF57B18F9AB11
:1026E00073FB70FD204645A05BDAB408FBF65EEB99
:1026F000890302DB98013CD3B310FF087266046FB4
:10270000FF44D348F2AD4BC0F3F20C82E384538311
:10271000E6B8FAF908100281264B5C90D0690ADD10
:10272000BDA68E20776F6684CE8216063BD96F8455
:10273000A0FF4FF09240C448347180AE84202C88B2
:1027400018115598FFF2014C04101312335DB118A3
:10275000F4C5C80259EE0E4C81DE4D16B990355CB9
:10276000022CFB254188B36E88F9E570FF80893320
:1027700006147C5808AF7E3BC8500A04E918880C40
:102780002BC6FD9C01FE207D76DEC581D078FE4003
:102790000F68801CA00769D20E3E405E98BD0C19E0
:1027A000026992DE5857FF8D989DF413D3140FE2FF
:1027B00000FDF30370400E107FDF0F640E1D0E68E6
:1027C000FA868A9201BEB96B0910D79820FAC51013
:1027D000EF2E98BC0AB3C9E26A1A53F8C014D3B3F7
:1027E0007C1CBCD90F4D66F3047BF601FF26E01A72
:1027F0002661EB588B649E01E049301292B3881930
:1028000069B38CC6094BD6125FD1CCA411DD9EE60C
:1028100022C202B3136BB24CDF6B4006C4048424A3
:102820009AEC55D07706B4F9F19837CA410376FA95
:10283000C2FD75127023BF19D7980A1DB3F6CCBF1D
:10284000325C10AF891498DCE1C38922AF0474981C
:10285000249A60D3FE092085844068F8DB9BA40499
:102860000315C9DE972DFF8D66F4028818CBFF3F54
:10287000D7CF98509008191A9051E61EF3FA4B34AE
:10288000E1C0F34519EB98086DB6F13B668E10F385
:1028900098F8308BC6E59FE01DC8BF633010A0F9E3
:1028A000E3042880C326D10241ECDE7D2915C9400E
:1028B00000622219B48406C9FDCC84FC30DD30816D
:1028C000E098491ED71485CA208908891573308C71
:1028D000905946F538FF8401938DE6983FD76241C1
:1028E0008C8409DDB010D737FE7F81BC98D7EDCC42
:1028F000FF3289E6300A149398E0613581F4A934F7
:102900009C58266021FDC6103002E0F9FE985C302C
:102910005E983C26E0813CCDF314F350264803E654
:102920003CDBE2CCB57766E1012CFA98C09FEE075C
:1029300060011D80C505B4EE0ED0037DC6013D08C3
:10294000F8FFFC30B501EB51FEF9BA578D7AFD98CE
:102950001064E66B88EFAFCF2C78A229D3E88A37D2
:1029600042F42D03F38135D3E8D317D216F3400296
:1029700018214F0A42B3E8BFAC9871191E7CB3B25C
:10298000067830EE7510A2C044E598CE038885B075
:102990000426F4F30805A386AF816E6B80FBD59205
:1029A00040DE9802484680EE30048651756174B668
:1029B0006BC806963012BC30F70430A4807188F9D9
:1029C000970B302402C07DB392502249DC30F4844E
:1029D0000844FD384BE280B2C8F32B3B4572E772E6
:1029E0003024D792301106D7D77D011E914601B809
:1029F000D469FB33AC2185C81E5E7CDF200F9504B3
:102A000094F51928F3E6F2B3E3307F1698CFEAB3D2
:102A10000CE023E0C4F0D714801378763010D2385D
:102A2000FE67410C0883D9538760202095EB12A6DE
:102A3000EE4036FDCDC80697C5309DA8C048EB3F97
:102A40008CBC8B99861A499FCF018C973202435DCB
:102A5000FE33A0C65418DD03A0E2D2F36336C15B97
:102A6000987517E4B36EB50AE730840531EB062696
:102A7000004B8F3A858C82D7AF16C8223E880A4019
:102A80000C8019A60611BF7F1C40CA9667C838BDC6
:102A9000E0815E8B398A1E48A27E6EC8102FBB5A19
:102AA0009920F230F0B930075E98A5C49A0B7223D2
:102AB000A0FC90BB63E60F832D0EB8F9BEB9BAC96E
:102AC000ED2E023F6A8530D7B68BDCE65FDCCC02A8
:102AD000F84519E5FFA78F7DCD1AB2F66418BF231C
:102AE0002059C83BF349FCBD98268F4298F508232E
:102AF0003024C85DB01416E04319B3902FF3EA02F6
:102B0000FDCC1293CE3000C088652B0BF07FEC0813
:102B1000093CB32418050A21D81C5F3012B8FF20E5
:102B200076A9E6109488830881A4202B2688C6DB2A
:102B3000813038B3C9E1300628B0EA5F7CC0EA31A1
:102B400034C10F878240229809F3A0D224BE5E19B7
:102B50008209FE9845D9D6FE779792EDCC0C566641
:102B6000015E409EA330C9CFD3DF2F0850FA0A81FF
:102B7000BA8E66B31EDE40F0771907C0571F036197
:102B80005E98D9413C42AC66D85D5BBE7A581089EC
:102B900041A401A1407657EBD0FA0467CA734240C2
:102BA0009850F2127A8485E141757F57CD0030DA72
:102BB000A0047CCCBF6484CA8981E04640E4AF4372
:102BC000EDD211EC69602062D9EF717ECAFC8413EA
:102BD000E00402F119081360692C6221AEC0DD1710
:102BE00008E9988846B510F8CC0D79CA01CF50B0E5
:102BF00072C084980C25D317B73133D0C4741183B5
:102C00000A14FD8C81053022B8D9C8CA900703F494
:102C1000987A3D0BE4695FFCBA7F0B30E66FB6CC67
:102C2000DE96E801B910F15EA59C03ED0FE40C1CE3
:102C3000900EF0800E6B837A9930411C48BFFC8562
:102C4000309EDEF20F0C82A301506E3B30A8374954
:102C5000F3B7566681015FD3EBA583FD3A30339716
:102C6000C089100E612BF3AE0999F9FAA0DFE2C812
:102C7000029814B36982515AD179986C29AEE094C4
:102C8000B959FF77EB86A09A308951F458C147F1C2
:102C90003067D51008D716C4678409C680900F31F5
:102CA000048EF8BDA582738941089209E168FF9AF4
:102CB00015F3214E68A2F18A028BB38830ED57E5F7
:102CC000043069E598E50DE1102610C6406BFC0262
:102CD00024C84D14C6DCACFED971FDAE89CB53457A
:102CE0006FC75CAB24148530FA17661F30F4EC8C88
:102CF0007F1A7D7D0B1AF36DF67EEAFFBC986FEDAF
:102D000034CEC8400FB86A6018C01BF3834CB8C8F3
:102D1000D64C69FF40A19F4BFFA509E0071184B382
:102D20001B60E74E7020E903608098FC71476C1CC3
:102D3000CA508806F57BB0CEC042201279DD400132
:102D4000216871197A9808EEAE2889178583104694
:102D5000F414009802F0BB4C7DEB0208143D3A6875
:102D60000181027EF6A3BA17BB9AC0E988181086C3
:102D70002CFB80913001C6B4AFBFF74CBF04C5989F
:102D8000B31E6E7B5C3003043032F5C0B5BC164216
:102D9000198E80B5C38837C113FC0CEBE6B1FCD5A6
:102DA000B2A0C55DF90F78535EB8AE907730064893
:102DB00002789894F3D7195E98BB84E943FFF2F048
:102DC000413C8807D79798407FADE0E0F6037061FB
:102DD0000EC89CC607640E3D1068B2C8D7C0C52E89
:102DE0002F8A3F0B28C8BBB8235F93F27FFDDFF724
:102DF000E080F1307A7882EF78784120080484C24C
:102E000044252BFCF47229193F7E16C1005808F6A0
:102E10001161100C9B8C40D32B608550B3DFBFAF8A
:102E200012DDCC40F43211F28541300919D1932CD6
:102E30002B1FA418F380EFE5F3051D72E598F582CA
:102E4000D112447737AC2484E5C8705DEBD7118488
:102E5000E53AB317BB9F35F432FB457EF751F130AD
:102E600017C62B0303A7845B22853BF390FECB415F
:102E7000681B53CECAC8516805EE7ECC90234066CD
:102E8000AED39F8C09BCDAA203FA9878B46266AE1E
:102E900007951E8FC6F2B2CDC88079ED7898B7A29B
:102EA00023A1E7D46641F82BD3CEB220866E10075B
:102EB00002F504880371A453E5C9C8FEDECC76652B
:102EC000C8500D1FC395C8E4F6319140E9016BFB72
:102ED000CC0ACF58039546FBC448024003BFBB0150
:102EE000D7352022A01AFE236801418208957AF97D
:102EF000C230D16B3798B944012CB8AE30055018A8
:102F0000BB03E47FC2646A7FDBCC3D2F85053122A1
:102F100037AB9810789845EE98260182EF8CC39DC8
:102F2000953110B865C8DF3CF84006C8037A7D0FBC
:102F30006880725011EF2FB85F98E4C730FDCCB6AF
:102F4000EE06E0E630F020D38F3049F370D3C69917
:102F50007904E4F3359CFFE7457544A68122657A40
:102F60009884598FFF6DA601F1C240D79530419EDC
:102F70008E802018FF579884721DA8F8E0BA6473F9
:102F80000E9802B3213DB3451820FC50B801A6FDB0
:102F90001512A3C430F97F1130B37EE5048D867D10
:102FA0003E269741F3F998CFE648FAA0087785C501
:102FB00047A270F63824354097C87B8B212437848C
:102FC0004017B30130647030AEF8D795094C717B6F
:102FD000890A9103574827C9EBA0015C41B6FCCB95
:102FE000FA8DADC12B23A77E322D79300865E4C858
:102FF000B8C2FBD059B60F6FACFB56E64453C8EAD3
:103000000F405A02CC01C0B4D0950CBB97F597B3D2
:103010002D30227C98F323B7918377D6724AA8F398
:10302000F45E0320DFEC48F8FDF7C6014116E5C861
:1030300008D095D4829EDD8140BD66A429A7D1CC5D
:10304000FF1F50C7301F669BAC0BF5FC30E78A06AC
:10305000D87C4423F460042028EFDD62FCB8DEC095
:10306000FF0218011360AF40B5B9E130F35C50CAFC
:1030700048B0C93FB3AD643830EE1FAAE082981063
:10308000135F8CEB8449B0C6C8F30442333FA651AA
:10309000B040C8FA95E0CAE1C56606267A7B03E827
:1030A000811CB930168BD0097FB4B82005197F5A1E
:1030B000647230E8652690D37878BD19E0887BF398
:1030C00003788A10EF6B9848FB8F4AE130F04B731E
:1030D000826F5D9883EF988130900469FBCC58BC77
:1030E0004996190CDC03BB03D59801EB98C1BD9838
:1030F000617FE07F10B8190A17ED1964D5D71990D0
:103100000F3019080B605B1C941139B3BB024DFCE6
:10311000B8CAB68DF5B393DFCC4F1926C004585CFE
:10312000379910C609B28EF82B1A3CFFB3EFB53AA7
:10313000D3621C6ED3D8FBFB17FE5F02DBDF38F3D4
:10314000D38813FFD776962138D380FEC243FF0879
:103150009D6698FD248E9F66F6CCDE08638D3970DF
:10316000F98E9A927DCC848C44F8F9B2ADCCD544DA
:10317000C8DB8C30B2E03373FF54E877D9CC4051D0
:1031800059664479A7B9E0EBF32031C6D0B1F8AF66
:10319000B3F9CC596CD3B696D58F407EAC8E02B2C3
:1031A0002116EFD3ABAE082796854052DA108DC2B8
:1031B0005B0078F95E33F888007ACA312313FF3F49
:1031C00025C119FC3012088FB034FA02C9B2F8E3F5
:1031D000EE73AD63F23DF40259406C51597B6FE6DA
:1031E0006EE562C694CB2E08115825089965DB73ED
:1031F000D938F8BF9AB28096C6805A0510DCA8C5A7
:103200005BFF40FB37EDB34F5FFB84382ACD376D52
:10321000FB33762EFC80EF882688E1E680F6B82620
:103220000A1052DA188A848095BD20C235F66FCD17
:10323000280043DBE6A7FB1843195F9139DF0844F8
:10324000738040F48F4134D5A3208C11EB13751992
:1032500010EB60906501010C7EFFFFFF9315B0A09D
:10326000A4960258F900036A810DEDE610C034E01F
:1032700048040A86A6C414B36066ADA1721F8B0110
:1032800018A8738164A0A140E682126AB1190630C1
:103290000C2E5CFE0621081765948D309CD67A189A
:1032A000090344F22CFF32E887A5221108011F61AF
:1032B0002467B818200482894B0977E8F8211ABEE0
:1032C0000770EE605504FD445001D0FF0A91FB22C7
:1032D00020882616740C048119626BFF01FE8E880B
:1032E0005FB3DFF37311C68220FBEBC8FEEDBE3B7C
:1032F000A1810210BC93858AD5E2D88F6CF308F4C3
:10330000B31072E25EC5E80680E2DA3652F6D321E7
:10331000F803759B40923278ECB0CBB1FF985C30EB
:10332000629C32B140B5C8849BD7A2FA9228BA17E2
:10333000CC587E0899B89ADAB540DA2EE587019321
:10334000C90AFCE75D1E1D9BE719FCCAB3C18C517D
:10335000B44801AEE03848ADD9CC70B8FB58CF378F
:103360007DEB3DFE9CCFE393C9BEE4056625EC7082
:1033700066BF1FBDF606DD2362DEE66CB6BD0196B4
:1033800050070A401628D9CCB0B8F98AC275FF8018
:103390009AF1B240FF4658DAFF081877C2AD02C66C
:1033A000D6A1104EF47A30FCF0B2808DCDD2F30964
:1033B00089C4B4AE89FC1C0A790C2D7E0BF58902F8
:1033C00036B3FDE25BDBCD5979017ABC6665D098F6
:1033D000812F28EDEAA0E7B3F030B3DB77D824479C
:1033E000EB98F5C7EFC40436A0FEC098F8DC8AFE5F
:1033F000B468E3151FF54B049CA820C525DEFB89A6
:10340000F96F8FE826B13910C8F6FA79EC8E9BCEA9
:103410008BE93939E099B5F933E7FCE6583597D8A7
:10342000D2DB3860FC6479B184E6FF2DADE1A8FF02
:10343000FFF4B220CCD4275FAA20A612FFB1D1E8B6
:10344000FCF7848B67047FB7415ED001FD2D167FAA
:10345000651883FBC0649A96FCD80B082D5B40610D
:103460002B57E8F962FEED679854FBAAD8FD66FA7F
:103470006A10CDF01C0CD5A5848CB6B3C0FF52B633
:1034800028D5F30965367C1020D9F566FEBC40CC02
:103490001E997970F840C7CD3DFB244063BC06DF20
:1034A000C4FAF26A33C417D80C19C1A4970B151EBD
:1034B000F2387E99AF7D5DEFD8F882CBDC5F3DCAF4
:1034C00052405F2B592E0D9DEAE5021BAA8810CDB4
:1034D000D4FCA2FFC8AC0ABFE9F2A8A0F8FB47EDF4
:1034E00020020A819CF6048010B5CC0172825EDD58
:1034F0006518B3A72DB1400FA84350FAC380A4F8B4
:10350000141298525001FF0003882805B6A0E72046
:103510004034901160CD5F29C028940959DFC04024
:10352000A8DE15A1A7B9D0ED68EE061420EFFDD1F5
:103530000A029F044C5018FF80FF40082C5E6179FE
:103540000103E8BEC04C850608C467E1304A401854
:10355000FB0441652006BD2802DEC030B24CEC20E1
:10356000706E019381753704C0BCA6416095943993
:10357000F8F1C107F33448F25011E8FEB37AF602CD
:1035800041203302384B96DB40A0EF1E2070C7A5C8
:10359000DB91041D66F7279CF31F01C417FBBBB02A
:1035A000D79890E410B43A01034132C0440065BF9B
:1035B00082E017CDDAB78AB3ECFA635EB624DA7725
:1035C000ED8C05F57F047E767BFE1016E923BEEFB9
:1035D000E304D3B6CF784D320CFEF899C6AC3FCB9E
:1035E0008C80C1C732B87ADDF2F8B1FD6E5F37204A
:1035F000E46CED6617DFDE426947016A8109F36119
:10360000D5A120A6AF6B2A100C676880B5F6CB8FCA
:103610001AE31ADAFFF0FAD3E93CE359984BDB02DC
:1036200039C82062B9FAD958FC42EB48CBD8BA2C39
:10363000E31C1DEE1768FB8D798DA2CD9DF2A9CFFD
:103640003F7DE53B92AF999FC617426642D7D74E62
:103650000118B645A6F17B0B70FB7ED1F3E0B7DB1A
:10366000521FD2F68CEB12801BCBCE56D930FAD437
:1036700099CD52E702A68AC53D3C0272DF03F29F54
:10368000CABFEB732FEDCCCCBE2CD5BE20797A0B04
:10369000B0B37F83EAF96A925C446A9D01B6EC5448
:1036A0002060B8CAE1EE256C77CC50F9B00682A054
:1036B00077E6410330C0488096A2BE40FDA348246F
:1036C000802269759EBAFD30C2061048920923BD5A
:1036D00081FE02A246148442404279CF4122AC11BD
:1036E00028FC6CDAD908035F9871F389FE2A30054B
:1036F00006E4E8FD2F841A2DF6823D62BDFFBF600F
:1037000041A8DA1EFEDB0C86AEF3C04DF7B0608A2E
:103710006B5506A00218D3D9780109F3102486E866
:1037200041200C99184FD76206C01406210660424A
:10373000D5AF209182CD28119558048FBE9D461893
:103740002010058F6DDDD9163EF9110260018467E6
:10375000A4A0CFF88092119BB371930123B3112CD5
:10376000B7B03FEAC04818052332AF80E6CEC9881B
:10377000739331BAD3048D188303810C3C5A012111
:1037800016D61D19854FCF0C88A022E8FDFCE0015C
:103790000D8007F45F06D00378E2000F64D13C503F
:1037A0003356037943E2D9410CC968E0CAF5A00752
:1037B000F240F4F9D392E4F3C69FD3C80358400F04
:1037C00035E63D922E0690F0C1A118DF83F2DC852C
:1037D000123B59F2CF0CE6C4BE7F92392066052118
:1037E0006C9F54C62B34F1C3602E0C6909D8FAB310
:1037F00010FF46C0025804136022E4800810E0E085
:10380000E14418E113617B4C8801A03DB484FE3093
:103810000280C00818014ADBC26BC61186724C20B8
:10382000861C4CCE88B2C3FC200D346581FEE7F1C6
:10383000040920493202408C21B9F508118924D6A7
:103840004BABBC2257F83184B4E78820D4E0211375
:103850003FBD41800525C2131088F7005163486FB2
:10386000EBB410D0C8FD46B5B0DE8704844CEBF352
:1038700042067F1B477EC3868DE1FB81821191C981
:1038800050087C49BEFFFD44E0FD329E78BC3C41BF
:103890000FA007E020DC10C0E0B74037BC57A304FE
:1038A000C0ECE4C24008E015C24C79BACBB40322A4
:1038B000FDCC483FEE78FF8801B040F3201400189B
:1038C000FB01CA8444E865E21802FEDE24B1212E21
:1038D0004E363187C0084C26981005AABE0219EE54
:1038E000FC90AFA72871093AFC4F8A0A40C484397A
:1038F000032361F55921E84126A2B6739944400C8F
:1039000081119DEF98043001C05F7F062045B2E130
:103910009089301FDB04800888C360024EEE12D00D
:10392000FDBDDF8016F0BBBE03F7182007E27AEF7B
:10393000901C16C3397A9607E67FBC9860803C904D
:10394000D3D340D33A005EA5FA3C88073020F46B0D
:10395000783D0F607B5E10FC2B80D9C5C10093922F
:103960000306665F1ADF84080320404BA9301075F8
:1039700018312004E578D391258820E0420277AE03
:103980006B62E957A9C2E1F8CB451053BBB1088B74
:10399000624CE38110A07816410058D013F4012C3A
:1039A0009967FCC9FDED0220C8229C7B1E0128906E
:1039B0008019FE24002298102919F34C842120BC80
:1039C000FA13103438609140FA5088FFBD2041044A
:1039D000C802109385876A7B228CEFD2B41FE9EA74
:1039E000D08802449940E14DC60FA2065F2AC6481E
:1039F000020F81225B3ECB10F8EA2133041DFABB93
:103A0000B1208DD94E803C0BD702811A90792CA31E
:103A1000D330FE284643FE2F3D62B10241F38007BA
:103A2000A0B3C877D7F698989717305244B7186B59
:103A300086828930870645D6E5DCBF5DB0FF840508
:103A40008002B98A82D342A0668010C584889B54C4
:103A5000D640735F3C1887B3251108A0015F49F376
:103A60001070677219EFE2E2F0FD2D789E26C024F7
:103A7000581781276609DB26A141F7E6601882B84E
:103A800043CF26B2EDC04260698A137DC081EB202E
:103A900040C4D0988397D757BB5EB0F960B96AF439
:103AA000285343BCA5061CA0BC989D0C7A10037932
:103AB00098B26312DB34E680ED5E6BCDC801430F34
:103AC00017E09D5EE99838C6AF6883ECFEAD80BB19
:103AD000656E962D7A4D5C10F3A2FE8B01897A9863
:103AE0000151ED197203829AE0084051F3C4C6DE19
:103AF0005E76F6AC78FA9B49F32818208BF02C9E62
:103B000090ED041640EF4398615C306FE2989DD9C8
:103B1000F7329F11B304080221FF60228880093028
:103B200011203E7998100B221F2402013CE6C8FEAA
:103B300020F1F7041091B9405023DED70920102C52
:103B4000CDFEF3200A1280A291DBCD98FEC4B91DF0
:103B5000A2D740110890E07801A4D505C0A4301286
:103B600021E4604EFBBB3442A8FE753D03DE98465F
:103B70007CFF392519FC9BB2E38CD7372F019BF7CB
:103B80007B70611078F85AFCF14B9BBBC0AE17E11B
:103B900030D731FDA01657BBCDF6B3089FF4CC54F7
:103BA0003A194018E80D6BC8AE90BABBBE8F897841
:103BB0005BA0AFFBCC9982EB104F42530841BD2470
:103BC000D0508F0220E9880814D606621E4C9A0451
:103BD00094407FC30142048102443076C6DB9411D5
:103BE000EA53859002C0EAF95ABC7E49C89376F53B
:103BF000813110129AB2582FCB412D84791790073A
:103C00003E52090211C084D3F9484449C0085B6C94
:103C1000FF19050B62224088853AF078FCE730886E
:103C200007F2E68006C4EA20FE213DDCF3E2033819
:103C300040D6E0D9FFA8B3640FF5A51EFC10E6E25C
:103C4000013CF3F4D3E9DFD33C8920FFDC804166FB
:103C5000BB2035C840A402C8B9A039225E7BB1415F
:103C60001F2C98D2A8C1D303732F0480F3089706A2
:103C70003FE49BFCF981302009FFE7EDB008B30277
:103C8000980C0219924521B0BFEC10FD0A60844CDB
:103C90004804799899A8AFC51F301124C0088C58E2
:103CA0007026040C5723232619F310B3EB422888FF
:103CB000DAA978FED78EC2C010AF021F2DCE09A0A0
:103CC000318095889BC365DC20F689A48524FD6F2F
:103CD0006C11930570682843F1F821C32044FF8AD2
:103CE00046140012616008F3240D2010B840A3FAB6
:103CF000DD7E2C5CBBC8D7C6201D30FB08106FDBF7
:103D0000D40A66C880DC5B6CF784929A1ACAB190B8
:103D1000D5AF080BECF69D8808C2812BF3A2257B5A
:103D2000DB695588F27B018BD4C4A5E5A0D019AB23
:103D3000E4CCF3B88AC3B5FC68F4FA242804CBC4F5
:103D400002589A801744073906AE507206090122BC
:103D50000F2491B3441C18848880EF9C5048E110D4
:103D6000FEF250040206D8EF7C98122C0228A01F05
:103D7000CAFC8411AE30240DAF40E4D52888F3D6B8
:103D800006A46E1B82CCE8501B2237E47F02FFE0C2
:103D900026802418051302EB41408850D316025A9E
:103DA000753CF74C80454F2248F960AC40C3F53074
:103DB00059D58D780748F3A075B0EDC50118D9C85D
:103DC000B31C901AE0260DE034FC869BB3D51DE5AC
:103DD000900730F3FE6B5E8BEB0028FFCBD2EE65D5
:103DE000ED9162D9C85E8BBBA18323BB38C820107C
:103DF0000D4D667BF58902216EE080CDA860C2057D
:103E0000CFFD93F615D3825A759A81B309CE1BC2A2
:103E1000045246E04C4DEEA6163AD3040B20CFC810
:103E200049B0806A20B542FFC4C80810FA0A2602C9
:103E30002458F658222C1F0931019F867158101200
:103E4000605AEE9D212F98FBDE98498503560A2182
:103E50003EA801BDB8D83E8C410B0C40B2C859BD3C
:103E6000BBE3D72101FF141408425080688B81B056
:103E7000E40526C22EC66011870C0DFD215030408E
:103E8000DCF99997E92F31C0312936FF8A80DBA20E
:103E90005637D35061931FDFE8FFEA98206F3E80CA
:103EA00078F94A715CA8353918D6DB46EDE0C48B49
:103EB000C5C7780C201032DF6041BE9FF0D00E39AC
:103EC000FBC4E0C0FD20B905A618894008B40AF17A
:103ED0001AB33444A364459EC695FE53794617CA67
:103EE000932DC162123EED482002401428A1FC012E
:103EF000A59D44E633F9DAE9E426C488EE5C601255
:103F0000DECC505A3CF30B01020C8409B5C35AB401
:103F100052B9F89110816AADC2F56FA26021D9FA49
:103F2000B0D6C00448F320080212CE053AF389FF48
:103F3000F6A58007EC8AF5FE7FB40CA00534401688
:103F4000D07F3B30410C20556E84AAB361FE0B300C
:103F500016BBC49F3DE8413C88077ED7A6BC8BE4D6
:103F6000803C2017F89874F0255AA91A6CF22303A4
:103F70002380C9B6FD3010B775B10130FCAC4008E4
:103F8000BDE0A931376C047030C0C90C4DE611FAA0
:103F9000A785988798A39F600004103008D716C1A2
:103FA000BB8B0B6184B2C803556E8CA85EAC2DA28E
:103FB000D53CF76B214C045D84D6244079C813218D
:103FC00002A19F90E6A8F82010D72481EB7F02B5CC
:103FD0004482A294DE05D4FC30D942013F7F6FE8D1
:103FE000F880192286D349C401060078063516D315
:103FF000C6A10CAF0141ED04AD882C15AE24353DB2
:10400000E36A7E972E3919F8FF322CFFBD3C4DF341
:10401000D3F34B10E2FE4BD808D4DB03B7A244FC29
:10402000D2CFE230FDF96079FC989C5DD28109071E
:104030005F3DB89034D3C278BFC598C6DA12F0FF9E
:104040008405923F264408991088F2608140A0E4DC
:1040500008BAC008E73021014CB728EBB176F70168
:104060000451C5737DEC2F172014568896A281B594
:104070004E85FEE1300114C023EE131B222CCF88A5
:1040800081DC26C20233E583CF0C20995911BA1581
:10409000DD8830CBBD2499BD4180F299B079C0CF85
:1040A0004FF344208005F3100458FD703CFE900748
:1040B000F0401EC483B8F4B3C888BB0720E8753845
:1040C000100FE698775D64E578EBFC0EFD6B6802F7
:1040D0003CEE5C2306F303E88136D3B0B9C815D9AA
:1040E000C8B810501B9CF3040242BBC9CCABF2FF12
:1040F00056D3C457CC97219198D3F9C88F4008BBA9
:1041000088537EFD60381B16E1F51418100BC16A48
:10411000B00420CFB3289800940926D36F96C8FA2C
:104120007DF589301146A1877F1361224C84890473
:10413000DD1902E898015324D328E52220FBEF7B08
:10414000989004AE828766018020BF7F105C305E4D
:1041500013FB80A201244234B370B934922E50FC78
:104160008C689AD3D005EF608412219E2038802875
:104170000872EF90FA63B8AF57588AE5B532857484
:10418000BF8C39DFAE325B8920F13D99F3AFA911C5
:10419000F20838FEE0BCBC98E57178C7B4F1237E24
:1041A000C3195DA3F6DF6E8D62473005B65C0D7AEC
:1041B000870C8DD732BB531275B8F935E090EC9867
:1041C00020586C0B02F326A84804F3145C3068C135
:1041D000D9210ABB49F708103002FBA52301971427
:1041E000E2844FDD1151E58BBF6304C8FF84AD89C4
:1041F000C8C7829A784360952CD30AF7C05DA2E6BF
:1042000003048251516D790256B301EFB30A06C817
:1042100004CE1801A21440B92902872648CE5804BA
:10422000A3014062619167D8FCBD1C80C30770ACDC
:10423000169DD5BDE4417A8BF1B2BBEF43B864AEB5
:104240003CBDC4FF90B40357F8680803D3ABD76BE9
:104250007872033DFCA5C8D3407A8B0C0EA8FEBD36
:1042600098207F8598A56286817AB8C1E3F3FDB86E
:1042700030B588E57CD8AA5E0C56EDAEEF40F16B08
:10428000345C5DB408F2983BD39EF450FD80117904
:104290004D4641825335C014F7FEFA3E987E46647F
:1042A000424C8849B6F6D421D5B304F709321240FE
:1042B0002186132FF93F89300106F8F35810136156
:1042C000D308C70520D810FAA6992CFEEC01842D3E
:1042D000FFBCFF6DF07D24AF19F7C0F359ABB421DB
:1042E0001B2DD3B0E34858FF98E1669CD1638BD374
:1042F000AB04A66689FECA58F201F2D120C68BE350
:10430000CC98A0514CF0444C2A58178124FDCC7D08
:104310007F903F69A575D68EFC9059FB19A1249C0E
:10432000A8BF024C6ECFF2DE0450FCE8C937EE4B5A
:10433000CA88BA3FE5DC7B94AA36E041767793D011
:10434000FD9A449B6B918BF48D7E83045EC0866CDA
:10435000B36AD2DE28FAA7661B7F99FAA586F6F61D
:10436000E6E7E733969AD35380B8FF6636B4800801
:1043700085B5C6D226B2B3015658025FDFF2F67F8A
:104380007990D94B623EE867222401B7F871AEE715
:1043900057F9804080043520AA81041D088DF1D989
:1043A000E55DA500960CAEA511100488FBF69BA454
:1043B000F8FC6F5CEB401E1497B1E816F2EC680451
:1043C00048B0F1D2D6A002348D5259047EEFADE050
:1043D0008F2DF9E040AD097FA1A4228842502BF136
:1043E0000A000C83AB88588D8042D4093CB1050586
:1043F00066303C78B2810A1C2F304A01204F8A1463
:10440000224056E7176A13A620308BAC48FFFA808B
:104410000C505800412438C1202D5708BF9405483E
:10442000836B0410FB08881695623BDFDFC0706861
:104430000686F8A510D80242FFAF80A230248D0472
:1044400010FE111269804052823F509500F228FC04
:104450000A010A5CB7560D9BFBD10111ED27412DD6
:10446000E1017D47826FE2FD0C64F340FCB2198DDF
:10447000D5FED984D29DB3B2FE1CBCC57142821058
:10448000C9293A400B1645F5B708688CF0F9A88C95
:10449000C627D915C4627F1B7BB1B8F8715A9E300C
:1044A00023ED31A5A710B9871B3CBB742048F93F09
:1044B0008F98EB661A59B5048688C8F9841B78FF73
:1044C0006157BF6E36B50133EC7D0702BBC08F6903
:1044D000043CD8D5D068D5CF98B3FD56CB80DCEA64
:1044E0006BDB5B014FDA6A88836F6486D56A1F5D78
:1044F000CA68B2B2C0B4AF58EAD92FA84336401E3A
:1045000076DD5B1A20E6AA30F8E3F16358BADAD414
:10451000D8BAB1D7F744409BA9F16598D76EC67356
:10452000EEE8F9B40C46F310677DD705D2637EDA66
:10453000B780F8C8AD1BCF88F9CDB5BE23D5260806
:104540006E8C6FCBE210246AF0E08CEF9EF8D67090
:10455000FE40D0E7BB2B906469E58CE6D980C53777
:1045600033014DC998F819957A610D8F75F719CAFD
:1045700087DD9CF46CD918F85FE66E344B6420FE3E
:104580008BC537E1245A7D20C547427F842279D3E9
:104590006B0760FC631DCD6362FFBAC45698FB29AC
:1045A000D63162AC80DBF18C40D8D39FA8FA631F70
:1045B000A2B1A0D54E049E52B3F9CC6CF55A048832
:1045C000AC924849B0D8B2FF8C476D750863C3D729
:1045D0009EFF659B23983EBAC002C6588BE0FA0C3A
:1045E0002D25FF8641B9A699FDE168FE99D772F5A0
:1045F0000A8EFAE840C4945F2039DC30FB32B10106
:104600005F58E280C759FDE4F2F8D9B8FE3D43B6E1
:10461000203743D313160E64C4CF9CDB490A3D14E4
:1046200020669AAB6D68B33FB0FBB58023D2932F61
:104630003A7780043519E381D6CB025FACD740814D
:1046400093B3DC4001D4EFC0F8FE32DF32C31D0863
:10465000C7C212A9C321CAF0D82B8F0A4294846A18
:10466000B311C790EDBB76104003F5FC214CED2053
:104670000876E48AC8BF106476D3B2EBBEB36DDFB0
:1046800080D70A1170A7ACCAA22EA806C699BB187B
:10469000FBF9FFA5101450E002138039326801D4F1
:1046A000084F800206149F60D70318800D71BAE688
:1046B000CF9F0CDC1860A7B9626A1A068139E0E165
:1046C000A0B460FC04440050615E24C00A48E5B315
:1046D00059B284BFFF4E191562C50E648239DA29BA
:1046E0000159839805FE450C4E84D82207E67104D3
:1046F000C02B441960CF912363C88405CF22ACA599
:10470000A02A01FF432104DC101A8A02FC0720467C
:10471000440381EF14D0F9171983812EA344CCFAF6
:1047200025BEC75AABF8E5B5BDD17F526DF0BF9934
:104730003F7BDD0880B4DD0BE81070FEF20B86D500
:10474000ED228F7F22C3FE3BE56D97783AF3198BFC
:104750001E2D30FBB2049181E5FB0201204F5D0C60
:1047600042DA17F9D31C17DBE43DFFC06FDB6D01A4
:104770003DCC01D0088C1927EAB4A029FB61371879
:104780009491B3360CE0FCBD7D5ED940DE99BAA1B0
:1047900066F5C9B9F18A714C79E5FA7A7F98D5EF57
:1047A0001B4E992FFD936A6FD138F9F290BBB2304E
:1047B0004C385DAB404480846796E0D9E3825696DE
:1047C000C24EF709800A01E5A7BE5F49FB89FB0AD3
:1047D00033CF0266E63D08DC10B277BF8B20CBC832
:1047E000FBEE7E372E59B520465C146BF888FD2D04
:1047F000C63A36BA7ED44ABF0A226E07679D55C6AE
:10480000EADF5566FF7218FF01DC7478EB56327BE5
:10481000B60132A57852CD1B95D5BCFE7FC4562A71
:1048200084266B5E186DC1015B2EE324DB94DB9460
:1048300030FA73CC284CC4FAD0F3062889BB1C107C
:104840006ED27FB39820119B44034212FA60106825
:10485000040DE5BF813FE0124113084029F6280509
:1048600024047F92E66E9004830D400873AB04A687
:1048700044616ADC086855F08510A0FA698111046A
:1048800073A3622005E05A9734F2032244627A7CD3
:10489000BF106E093D57FB401D2F9F611951F2F962
:1048A000E11CD2E9309E026EE90C5CEB06AF27F307
:1048B000848881B330FC03E4CBC4D3E084C60340D6
:1048C0005C5891066C5FE74B3787E0F87FCF261284
:1048D0005C6B9C410F0C845906E83CA3980889E165
:1048E0008C8C8006CEF2941E71D3802208B82DEEF7
:1048F00052363086048D9E39862213FF809F31F90F
:1049000014C04048E0041360464C04C1E0465FEA2E
:10491000FD0360222882499C665E7CFF312140C0F5
:1049200002581013F242044C88F3364680071900EF
:10493000131B244CFE9011A02060FCE098DD07F1D1
:104940007F1EC0833820FE0FE8013CA0070260F301
:10495000C44359CB0FE0F33BC885ED7FD3F240064B
:10496000C00318B920E090CF0731D3C883084CD3D7
:10497000810CDD76FCE20FE325183273100CF39402
:104980004602F3B883F3C43ECCF5E0C1C2D3F4D100
:10499000D381B840C6E0F33C10B0FE28504F70E021
:1049A0001023343B2C9041DD195884093D0C8811AB
:1049B000B00888BEB346C0289C026EB3227BB30AFF
:1049C00046400070B31B70FEFF1D08F042185110E6
:1049D000F52189F534E0B8B54060F01CD699C0FDEA
:1049E000AAAE080F3602F14244200997BF9806A1EB
:1049F0004051488A2BC28BCCC0986D3CFEBA5BBE3E
:104A000072DB433EA3CAFE47DFB6E50CA8F80613E7
:104A100011E844BC804FF2D222BAB53F6A4E34D07E
:104A2000FC484384F371BC6D3492F303B92A334FCD
:104A3000BB47443A9C88070A638B54C7986205F2C7
:104A4000021E1A22C6F34EA7FDFC3282FDC57B086A
:104A5000DF202CDD4BC04472710AD091CD22FF06BD
:104A6000E8E8C4A46238EF53988445414837FC8293
:104A70007B98092BEBFA8011DCD2C20498FEAF625E
:104A800022089031301AF2C5F7B861020CEC8405A7
:104A9000B0FE47351123D3788418090A3C040C80F2
:104AA00029B0A28BA1140F2362032C8423E7E5997C
:104AB000F85D7BA5F020C01ED0BB78CBA5F369F4D0
:104AC000F3C0EB037840D6C53C71662BE0A0EBEC5D
:104AD000CBB5DF98E2013D880381901237D308BD42
:104AE000C610D0F980A8E3AFEFB61F3FF3E512C4BC
:104AF00088F898069E782F151ED3CBA04014D7C7F0
:104B00008BFB21FB0B0532B941C001F30262408CE3
:104B100004B09A080C2253B361B30431620AB3A003
:104B2000E824A4697D0221EF86424104086BEF98D6
:104B3000100568FDFA2021049200E530437FAB891F
:104B4000A885118199408641E2E6480829F380CF83
:104B5000FD7F05DC30EE481203E730210584100E9E
:104B6000114882EF21E3D6B2D130FF60BFEB0304DE
:104B7000962310DE5F23F3B10DB949EDC068A8702C
:104B8000F3BD5FC50168C0CAF8FAF612335026D0EB
:104B9000E929BBB524F08BEC4345129326ED82D373
:104BA000901219B8790CA68D71165E982E32E71600
:104BB00078F904C61080CC160829207E62842C3037
:104BC0002BCE71F68B2344148C96AC2B73FF1104FF
:104BD0003DC3408410FC30128167F342B649484718
:104BE000E8E72090FFC48451E20810C1D09848DF64
:104BF0000088FF3284180390336688AAB2B3409FBE
:104C00006605302210C402586B9302E78C94091495
:104C100080A02BBF528C5F72D7027837302C8078FF
:104C200098D7DD7A83D2EB3D88058F23F298F37E07
:104C30003BBC17E4013DFDD370401ED003FE989BA2
:104C40000DBD945F7D98E2813C10707C7F369EA5FF
:104C500009DC3DA54166C491C62376779681413A29
:104C600046801804EB7485D3321B66F323B8F90A27
:104C700050BBBEC15E2EFA0B62048CC2D5A526CFF6
:104C8000A6A360024CDB90859BB3E632098BB3E9A7
:104C9000ECC0205DB15F78DB48887A9830BE7FEF4A
:104CA0009FC6FC4292400381484DBB20541F122AEC
:104CB000E02048080905B380B9CA092BF78730AC52
:104CC000204049A721D387A1105E98120889EEE7FA
:104CD00060B6FE508608264A885BC1027FDA8440AF
:104CE0006E21B52457F8129B65FDBFF9A86DEA98AF
:104CF000886EF3E8FA22F15D689042405383A7A2E0
:104D0000D8FCBF03D8F3098E4EC8EAC0205E41919B
:104D10002BA760556516C0D379437B5E30FD6BE3EE
:104D200029F32330B92C16F1E702C0B21960C90685
:104D3000018059A9DFCCA329F66CD08D0166B4AAF5
:104D4000F09808F375E62AFBF5ACC93024E7BB0BF5
:104D5000FF3F89302226019F28E70B64000CCB829D
:104D600045E66EB76CEFFEB0408633661849005ECC
:104D7000A5CD053145A2A797980F03C698FFE0D7A8
:104D8000013D3830000EC8B03AFA0FE401F575F075
:104D9000AF96985BE87ECC14CACBC8D3E001D3624F
:104DA0000082F3DB9C3060803CDD20FBD611FC3DB3
:104DB000699AE820F3B814CDC885BF011069CB30DB
:104DC000047F2698D351FEEFBFFD7FE323224144A9
:104DD000819F014626C0021805EBA61114CE7BC0A8
:104DE00040D0B3052937E04182F89890F319384054
:104DF000FF20B92481EC59C89F0AD5890810258B5A
:104E00009290D782002303018711D90406BDFEBB0F
:104E100008C4AEDE48607501EC9844044AC6F398B5
:104E200045EA042EDBFDF37AF2C85AADE6D644DF3C
:104E30009650107E4A7BFEE3306359B2B7CAF698AB
:104E4000C0F86B1320C9DEB802AC12A5C86C067D91
:104E50001AA6C8E964ECFCDDC808E1F15CA15B6F4F
:104E6000F0088007712F14E130F35C39F0FD840401
:104E700090B71618703DACF2FDC8300242C808FC6D
:104E80001546B4EB66905F3BDC79C88680D378E149
:104E9000EBF884A07AE64B483FA5DD6BA0FC84C507
:104EA00080F13F3942600196CC312046C8F0F303CF
:104EB0000B64F92C04104F6ABB6FDFBE85300640CF
:104EC00081C818DD1110F83F91C591DE98D60B61AD
:104ED00073C88930B3FDEFE0411CF7C5C80378778C
:104EE0003B5D3C88074F06982FE0402CB3107E7F37
:104EF0008BE0CB7829A8A10F5E2864F8985F3C105E
:104F000090FA5FCC5EA55EE56FEB98C25F4D8B8239
:104F1000F380AFEDD3427BB08472E041BCE55C2806
:104F2000D34B9BA2279830A8FD5D11B020F9C89AF9
:104F300013968C6BC01146AFD11DB37CB208ABB3D6
:104F40008A026FE54BD92704E045E8E878321E2253
:104F5000400409F1D3F3813148F5FA204034D52AD1
:104F600098C80A3F4489080426BB92F19B11314C32
:104F700040E12047806765C879C1A70A30B2E431B3
:104F800006B5E0E53001DDB7D694FE9F18F603477D
:104F900082986ABD77ADDF038D21565E40FCBD83EC
:104FA00020022DC6F8308BF3E50C190AD843FBCC50
:104FB0007F22988DF1C5435C5D676C96AFED6FA560
:104FC00004402291D32FE82E982230F370F450FB46
:104FD000885FC0305BF898BB3883504C149B28DA4C
:104FE000CB02EDEBB9666F29C00243E01A84A2221E
:104FF000D353C44B96222419354F0BF9AD022246E8
:105000007F3F0412FD6401488431A0A667C80BF3FA
:105010008C02DA10308BB4EC7CD2C8B1F4086B3956
:10502000636BB69BD71286B9CA139F6079883130FB
:1050300021FB91FCE0410CF3C8C077AE98E0F598F5
:10504000F4B70530D93C20BB9681613CF2A001F158
:1050500080E0B2C82AE3034F57988310C7C63F7851
:10506000FA84810DAF2D3062B830C8E3236519444E
:10507000A919A6690E80E0405A1573EBA140647B24
:105080009831FB0A11FE2C30DDC860EE98B0402646
:10509000D375D680D6D1FDB1B50C3B669D3D26C2F9
:1050A000040FE0CB8E84015EDD1C07F3304E817669
:1050B000604EFB758004229CC81260202B819730C3
:1050C000867F731A01C5200459C80E06D466DBDB3F
:1050D000902508BDD01810ADC2D7E9028E98684857
:1050E0009226002878F320918437987130FFEC479E
:1050F0009397F9D73497D896B85CC8F465A4FF9114
:10510000EDAFE5BF35CD6BF7CF812BEDC798E6E06E
:10511000F901AE48C8C8AEF2D21526B9A40EF05DAA
:105120004A6FC630A4117E5E3E2534E326EC42FD74
:1051300020B3C8142BF3DC988201210EF8FA24BCAA
:10514000C287C5400B095E9834F688F38E48EF237A
:1051500029AE3BDF4B8210900826CD4002B5897DF9
:105160006B094440D1984B664027F61110E00A5075
:10517000FAFE05210246C0227FC1236001888431E6
:10518000DDB010EF98000B6442FB4C8041302137BA
:105190007C499091B00F80C00458CF080BF44C8428
:1051A000859B8065A4B830645C8CB9FFE6D0FAE0DA
:1051B000010C8807F0F2001EC42F7AF49880ACF33B
:1051C000AEBB2E3059232CDA625ECFEB9007F0C5D0
:1051D000984879A5A7B29816C036E7F30D10709BD2
:1051E000FAF020F87D8F06F3D26CBFBB36F5086964
:1051F000B3E7E0F978A7003069CA30204EF341E602
:1052000048FE8FA3C9A83EBF608B30C68BE504D390
:10521000855D469CB3C005BAF026C0441813198CAE
:1052200088597BFC054014108053F9B32C9009B8C1
:10523000E295F8F7E1AD7142923F88008489280534
:105240005C695F378C4257F83630240468B3E2ED6E
:1052500006816312086241107A01802111EF0A5021
:105260004802C44508A720D3040938779E98330D17
:10527000FC3E9741F2EA84835FC8C6287919DE981C
:105280001E181481A2E0F3501882EABBA0900E1100
:1052900037B8F81B90F898D7700DDDA5BA1C1AF135
:1052A0003BE96CBBB5227CF8110120080494BAAE2E
:1052B000BC4443AEA6707D825801D34DE628FB1F47
:1052C000DDEDAF218172300488D6E2BC7289A8EC92
:1052D0000A66EB628809FE12028640081801024342
:1052E0007E805C27E4840041D984F460F392667A7E
:1052F000FFFAA11746C028AE407CA001088851B033
:105300000F16024498F908A360808CBDB630F19F57
:10531000C268F8E48C45303299B4461377904CA6B5
:10532000610A53A282235127E7B93211DD60FCE7FD
:1053300098F9A5FC3001723030B930017797982D7B
:1053400030077C53D757F4E86A4C706BD3C4CBE278
:105350008B10CBE25D25C8005817D335A678F8A589
:10536000AFE698F9C8AD31A3B6F35F6D9888051B19
:10537000BBD8025366B930802DE0783D9550A4FD2E
:10538000EA0350A73330D1FB33B15E984DA30361DC
:105390007898A426F340EEF309625B7CB072E508CE
:1053A000D5B384FA2130220641FC8F23101CC0C3E0
:1053B00004248E100E0B4493D351E60880F9C6D610
:1053C000FF04FD63610BFFF8FB7F9FB0A56FF63F05
:1053D00070F3166AB421C6D8D388FC0C121DFF984E
:1053E000FF248D1993C6D13839C4FAF9609066DB71
:1053F000D8FB7D9BFB41661879A9CCFDF1677163F1
:10540000EABDF93CBE51F3B12C44C48FB13F318C9D
:10541000F345177988FBC11FEBCCEE7FF3B3754BD7
:105420001216749C4B1111B66ED204372942260213
:1054300071F971C793E7849053AD4BFD7134F2B9A4
:1054400088D304BC08F30BBCABC550FF1218A7B23D
:105450003550FDBCFCDCE210A16681DB0210CEDB26
:10546000E3C4D57CA325F98FF357F143645705C1F5
:105470006D60FE95F772659AB2B008D0A2D8B103FC
:1054800065B108900D7FD1F3261FE3FB3B7016EB4F
:10549000FEC0A6314F58FB4298CFEDAB90FF96CDA2
:1054A000022FD63147D87FEBFF08FC78555C2010DF
:1054B000A275552D073CF46B114862A7CC92E8CF3A
:1054C00084E4814193BDD0F30179CD7898CAC902B3
:1054D000B6578941DD22F7A8905DF6362473BF01E7
:1054E000C2EAB9E48071810BF4C7D0D72127F0B3A9
:1054F00080049FA0C8C006240AC10B40AD0C60B553
:10550000C124698012F802E14803A0B116B3143433
:1055100064EA50BD3C0164C3F380872236F84860DA
:1055200013201B393005ECD3FA80515C41F420483C
:105530001B02C6D103404227FC02861C8CEC0140B2
:10554000F4F7B4112186E18280540360FF401A14FD
:10555000820F20060089CB30D3048DCE82013D9E80
:10556000D0FF2AFC0B779D5BE7029A3C7D63649237
:105570004633B583F7E37CD79079EF07BF103BA69E
:10558000E0FE6F2F5BBC31D7866A5342F2D333F112
:10559000FCD0959C82FA8380E8AA88F35AD9F2EF6E
:1055A00040E5BDFEC0F69CF665718A74607798F19F
:1055B00056FFD880FE8140BF8B24E21CF3303B9B1A
:1055C00002E0FBCBCDCDA20DC44BF8ED20D69E4022
:1055D0002BAA610132E676A6BA51BA64CF1633C857
:1055E000EB0E1034E9B870BC55BF6641B2807FAF96
:1055F0000847D37126727D40F2F3367014678CE44D
:1056000070F506261F469FBC5944DBC96A2F4DFA28
:1056100070FA859F9D369F10319D5018FBB9F4E6B6
:105620004F33F69579E19FBEDFD0F90ACBE5E12053
:10563000B97D1BB69BD2180FDF16AB6D7BF88D675B
:1056400056EC305FC0A96246754A5184B659C95BB1
:1056500047FA0D6DFC42DA0B7AD142F52F80922683
:105660000589F99475FF1BB3AD46C87ECCCFCB83BB
:10567000155924043FFF67F79228FF6E884AD9180E
:10568000EB8C6CDC9610F7677DE9FD04A330B9F86C
:1056900014C91510DDDC0E9CFC063DF6A4E6F93EAF
:1056A000D8D788FE9E45F05A392D76F25EF36C16F7
:1056B000FDFE21AF5BDC2D52025B3C30FF1DE5E6B9
:1056C00040B1B98D996CFF7FB702FB1E088DA3CC4A
:1056D000D5963B28F9C64CC77F5721049BE0F2556D
:1056E000D8C830669D700462CBDA980908B383D5B8
:1056F000FB10874004BD202408657569FC7DD8181F
:10570000FEEF6C90204DE910765ED0BC65779A1064
:10571000FF6FFA8340F25403E3046C8FB388FEC139
:10572000DD1C60676DB7EC8BB8FCAFE1320A3775F2
:10573000A046FB606EB3A23FD5026419D36F64022A
:1057400004E0FC62F9E72DBA9BF680013B8CC75759
:10575000F659F823A6D7E6F677E5CAA1ED96D66600
:10576000FF1030F9820AD74BA2AEB1CBD0BED6190A
:1057700007B1127EDE6B80B84549967CABAF2246FE
:10578000D7E8FC75E40888CD1D0250DF9CDB04805F
:105790007EFC1256D6442E625DB4B701DA6A42E846
:1057A00044DB0488389D94FA203904A65F0F527BAD
:1057B000CC0111D90C5C09909FD4E028061B409BBA
:1057C00019DB0C9EBA06103060C851B6A0EF6B43CF
:1057D000501816024EC6D114160179DE0115A81311
:1057E00090FBFC80641004C9C191B711F801040258
:1057F000BA300CCFE73808E0F820100203416CAE55
:10580000FAAD070C1848FAF021C9DEB69C383330DF
:1058100014C342803831834104F7239BF8E9F980AF
:10582000404E4168D02BB3EDD11BC121103B36C790
:1058300004590F6D1903D34D390848B6728FA0FB78
:10584000F2950022C73C17AEF1BF2001D1E6C9E0B6
:1058500042E762DDE7BC80A9FFAF45A39AA6869622
:1058600031FD59317D375F7D62FAFD6E6B62BEE1BD
:10587000E584FB20AE8CF2D708C439D681621F259F
:105880006A7FDBA0FF722720DC34C5C86D30CCDD19
:10589000E42295D516AB9FF911CC4F1076AB6D4431
:1058A000CDF28CD3D3493D4D80ED30FC08CB534F26
:1058B000382FF6BB5FE2AF82CC47BA0463DFB2D8C1
:1058C00098FF57B598D6BBFF5A6EE96BE3E68C5844
:1058D000D8F9809ED1ECCB8F99FFEB5B583D6610D9
:1058E0006771939FF04B59018F9979BEDB1CFE20A5
:1058F000CFC059225FDDB1018375C2B23559F35073
:105900002DE658FBABC84060625FD4B104422D362F
:1059100090325BD019FC186AFF63FF32A2240D3766
:1059200072FD55208929CD0C5E02627F9DCE10F953
:10593000CF3082E4B9490E2A04816BDB0586F4423C
:1059400060B6D8BC8ACFF92DD433EDC0E012A709D8
:105950001601203129CFD302773ADB0DA00151D3B4
:10596000FEDFB6DEB07746E257D8CFB66CA901802D
:10597000686DBD8DD049B33C7185300634BC78EB81
:10598000253BD9EB1659CC8E4BDA4101C0DBACB3C9
:10599000C684EC0131208EE6B44130AAFD11ED3B06
:1059A000C8D024FF1B2004DFB889ECA20B20ECCB6D
:1059B000A021F364F359C07BAB412CF38004200297
:1059C000F314708D59407D39B3E8FAC13AFA03C037
:1059D000E6F1135277D4848593CFE05222038809ED
:1059E000B3B1F9C8913CD126C4441F100B602040CC
:1059F0009174118087C30343EB212C08FFD2D0FBA5
:105A0000E04138339DF019C4FF0248400BE0011C0F
:105A1000A03F568006C0034826DCF33CCEF931EDAA
:105A2000E50C8007D321E07AE40F22E0E929F02099
:105A3000F31826A8E63D667DF8F0304C924618F340
:105A4000C351400CF32041D60FF3835010A30CE652
:105A50003D66013480064734D360D34D2606C1AF7E
:105A6000DC4DD3D728FAD3C6F38898E0101320E78B
:105A70000C824622069CC8A6200BF6F34C884924CB
:105A8000B39F02B3148820035E909C81B32246CE5C
:105A90008608B24014BF4BB10720FA3A9914862FFA
:105AA000A365980A04D56939B78398C424486771F7
:105AB000BC377D21C07BA503089D013B113265BA2F
:105AC000CCF34844A5F3DC7C7AE511DFEF5437FBD7
:105AD000F5988093E60AABF80665EC03FEDA7046AB
