:100000000C94EC480C940B490C940B490C940B4940
:100010000C940B490C94124D0C94764D0C94DA4DC3
:100020000C94ED4D0C940B490C94444C0C940B49DE
:100030000C940B490C940B490C940B490C940B49F0
:100040000C940B490C940B490C940B490C940B49E0
:100050000C940B490C940B490C940B490C940B49D0
:100060000C940B490C940B490C940B490C940B49C0
:100070000C940B490C940B490C940B490C940B49B0
:100080000C940B490C940B490C940B497F7F7F7F98
:100090007F7F7F7F7F7F7F7F7F7F7F7F7F7F7F7F70
:1000A0007F7F7F7F7F7F070007047F7F7F7F7F7F4A
:1000B000077F7F7F7F7F057F047F7F7F7F7F7F7FBD
:1000C0000F7F0E7F067F0D7F0C7F7F7F7F7F1F7FDF
:1000D000177F167F157F1C7F147F7F7F7F7F007FB8
:1000E000277F1E7F257F1D7F247F7F7F7F7F187F57
:1000F000207F217F267F227F237F7F7F7F7F7F7FDF
:10010000107F197F1A7F1B7F137F7F7F7F7F0818E7
:10011000117F127F0A7F037F0B7F7F7F7F7F081015
:10012000081F097F080F027F08197F7F7F7F7F7F6D
:1001300008027F7F081308117F7F7F7F070C087FED
:10014000017F080B7F7F08077F7F7F7F7F7F080706
:100150007F7F7F7F7F7F7F7F07037F7F7F7F047F1E
:100160007F7F1C7F1B7F7F7F7F7F7F7F037F0810C8
:100170000C7F247F237F137F7A7F7F7F7F7F08110F
:10018000147F081908200B7F7F7F7F7F7F7F7F7F11
:100190007F7F7F7F7F7F7F7F7F7F7F7F7F7F7F7F6F
:1001A0007F7F7F7F7F7F7F7F7F7F7F7F7F7F7F7F5F
:1001B0007F7F7F7F7F7F7F7F7F7F7F7F7F7F7F7F4F
:1001C0007F7F7F7F7F7F7F7F7F7F7F7F7F7F7F7F3F
:1001D0007F7F7F7F7F7F7F7F7F7F7F7F7F7F7F7F2F
:1001E0007F7F7F7F7F7F7F7F7F7F7F7F7F7F7F7F1F
:1001F0007F7F7F7F7F7F7F7F7F7F7F7F7F7F7F7F0F
:100200007F7F7F7F7F7F7F7F7F7F7F7F7F7F7F7FFE
:100210007F7F7F7F7F7F7F7F7F7F7F7F7F7F7F7FEE
:1002200008277F7F7F7F7F7F7F7F7F7F7F7F7F7FAD
:100230007F7F7F7F7F7F7F7F7F7F7F7F7F7F7F7FCE
:10024000017F7F7F7F7F7F7F7F7F7F7F7F7F7F7F3C
:100250007F7F7F7F7F7F7F7F7F7F7F7F7F7F08158F
:100260007F7F072408057F7F7F7F7F7F080D070B37
:1002700007237F7F0713071B7A7F7F7F7F7F7F7F27
:10028000071C7F7F7F7F07147F7F7F7FFF1F627F39
:10029000C23C006088FFFFA0089001324006C8C63B
:1002A0000019FF03050A4414812241CF068AF32076
:1002B0000366FBA00C94290034FF7FED81325006C9
:1002C000CC54F419280365E0A799C68800983CD35C
:1002D00064800CFFB9F0FB0014C002580F0B60F0F3
:1002E000012C8004C0870A029A70F34064F305A0D1
:1002F000E63019C9B312E09850DBC01028DA2EE0BE
:10030000504CD334D3B00916B9C298FC62C8FF2050
:10031000160420B3028004100902B38308017AE0B6
:1003200010CA60E4E8FE30486FFF98FF3C7D90D92A
:1003300084814EFB024020E536359ECF432316D004
:100340008E0A5223E0AC3514E2EBD3E7561060FB83
:10035000820665B790FD1BB3A0CF0A39F3309640F3
:10036000FCE219D0D5F8884DEC40020981E0DB377A
:10037000199021DD1194099C1F79FF466851863B35
:10038000DA90028218FBB8CFA9498801A7D39A4412
:10039000D39307B5014EC61070FBCF22D04B3197D7
:1003A00092FF35831CB063064192D4F01ED1EBFA64
:1003B00005191964D4086306B3AB05C0BD8D62028C
:1003C0003C4DD3F6182FEA106ECFC0FFFBFA29D1AF
:1003D0000AF6064028802CB45ED415E7AC8F3C6644
:1003E000044644C0228848530CC7E7107889FC05AE
:1003F000D901067E69E5268208E88B971CD781B46F
:10040000FC088B663FC63211C6C004CE1901A90292
:100410002C31FB0370FB9660EA50D3FBDD077020A4
:10042000061650B5E06653C81ED0C003A9CCF33CF5
:10043000D3F0CEF30816200F80C60FF96739D00825
:1004400006818462EB19414FD1AC105E27A930D3ED
:10045000C040B9180E0C7AC5F84B105325D1900343
:100460004640EC02500859B30930FC861EB228768B
:10047000B360D3C2649C0206D31910B490FDED2082
:100480000406FEDED3BE95D0840220CE3751F5EAB5
:10049000841CB7DA8428926414B50E048232F4E71F
:1004A0000113FC42D92CFAC783FD089FC686FEC9FA
:1004B0005EFB7FADAD227D98401DFD837BECE8FCAB
:1004C0002C5CF23431687166E45F434990789FA2F6
:1004D00002A657B8185C27F33CE9F8FB08DBF612D4
:1004E000AFB9040466BAFCC5D4FF8A77797F29DCEA
:1004F000B0F702C088427852E9F633FFF8066EB3CF
:100500006819B1488F93317B86889C28F91350A6CF
:100510007319061069CD186101BB4C9EB0A1F8603B
:1005200040C8F59803E966F0A2631E4B7FCE3C906D
:100530008348EF4FE32CF334201E5DAEEE400F02F4
:10054000F598FD95C2CCF1D7F67F043065379680DB
:100550002F47511959D0C2B62F7CF107F2F821FF6D
:100560008004114CAE269EB34090C61DB520228655
:100570007C4580C78BC0A0BEFFC0801802436008C6
:100580005DB13A13A8F8E3307DA3E9469BD7184242
:10059000161719C21EDD3B77BF98348016900802EB
:1005A000C54110F1048101840D4FF8C6603FBB22A4
:1005B000146FBCF842CAE6304440E0EB6F6DBAF805
:1005C000F9CDB3CCDD67873067088069CB3050FD4B
:1005D000A588E9078180561034CFC4E9D078FA4B5A
:1005E000066F9917FC306FED768981E41C765B6F9E
:1005F0004A6601C9D2F89CA0848420F0771210F8D2
:100600006C01847880D3F6B039244062FF32EF5019
:100610008020F57BA3A7B8984206C11590EFFC2275
:100620000C8111F8010620FDE02C8F2E985D6A3CAC
:10063000F6F633CA300CE2305F1903EF983C8005C0
:1006400070156E461AD3DBE2D0FBB8D4DC19FFADCF
:10065000CCB32DBE6DD95688B5816F960350F97F06
:1006600024D1C140D410B61FCB2AFDD723B4772C98
:10067000FCAE413662FBBA3FFF6788093012867ACA
:10068000B320F419047F40084820C35260038089D6
:100690003E14F0FC2009B870FF80ACFF2598494259
:1006A0008B71CABB594003F808104C2480034146A3
:1006B000391C408893FE8122802411ECFE184CDE08
:1006C0001649B32796D5676DDA0378E9B382187EA9
:1006D000909B59CBE5FEF53BD64BE079B4BADE05ED
:1006E000034F0298BD980F799ACAF282F498600875
:1006F0002113F066486F92A066F5D7D08C6E9601F4
:100700005BC2B45F8102C6B542FFFA4004101C5DB3
:1007100033FC2D92017A880E8C02E0AB76842FD7C1
:10072000A964957B028ED3F298E4F0C613AE092338
:10073000C710B122306759F82B0D106DB7066A0249
:1007400090B850C6727DBC98E28F2F3010A5A5EEF0
:1007500030FF9C19400781681C0710F90E41DBE34C
:1007600001B83257A0187DBFCB32F87F3798FA52C4
:1007700011EBA91CC6FDA1F980119020B2CF809D7C
:10078000D30220C293A6A4BFDDB744E35A7F3C98AE
:100790005764B3C8862F02620804CE844420E8FF61
:1007A0005AEAFA9803D78B30D601022C6681058469
:1007B000818891AE18BB239F308894902414E5481B
:1007C0001A40B57E2B8476B988FC469AFF1C86B009
:1007D000B71833EBC9AB964064F88CBC0CD3D1EDA1
:1007E000D0B3FF8CD1BEB6B559F39205C0DBC6407D
:1007F000FECC92BE1CF3F2B3CDC842CAB3FD593E43
:10080000112DC234A00BFB382F4B04EC63AEDCFD82
:1008100041FBA221FC7AFE26028018F995F61D7B89
:10082000CBDAFC1291D5816079C4DA38EC841804F3
:10083000DEDAB860A7F1117B42228A8050F8661F89
:100840008209200698469858500AD7975E75A6F0F8
:10085000F9C65DFE9859C85E98B2F4793002661FF9
:100860001199C872E02B1EDE98E0412C801C345C8C
:100870001EC02592C89176B990FB493FA78C98B6C7
:1008800040B1669C802D97C3086BFC82018E108B53
:10089000D7A951B6884C0349FBDAF42212C5E78C7C
:1008A0002AF298F5B8588C3C66200245445D180140
:1008B00079986431E4F31288221F1160084CFF809C
:1008C00009284158FA2010ED0180C47F22417706A3
:1008D00030891282633A0A9D82D72480201910023F
:1008E000BE27149834908A6C78A890041136FDEBDA
:1008F00080037F4B63205A37E83296DC655C7514C1
:1009000005AAE2403B7F9B60F4FBFE4C3B27D448AA
:1009100006C563091908D39531FDE7987E7F385BDA
:10092000F66FDB488132FBA866DB8B6AF7CC2120AF
:10093000C44405404688E6BB7EDD8CD591D330E5C6
:1009400011F104402642000DCCD8A005EEE50BFDC8
:100950005CE116BB470370A181E0182C3BE0660CFC
:100960008519827AAE109F668C80413002EB26C4D6
:1009700020C01E870CCE8045AF61FB4310DA800398
:10098000FA9807EF06B8C672C8FF2598E0407F0FB7
:100990000FE2F8013C9007F0121EC673820EC2E609
:1009A00020D780FCDB66FCCC05CE7D2006012D1017
:1009B000902A67176665DEC2C369FC00A9EB31089F
:1009C00006850359F9C8322549B3BB66126BFA4E46
:1009D0004CC9B789D6800858A7A9FF733024C09D99
:1009E0001026034033B305B09BC85F80E443600A20
:1009F0006A13CC4883FD092FF12DB46DFC210879D1
:100A0000304036A80C9F7F6678DDA34C5CFC989F35
:100A1000CFA401248120E4140292C6E9D48522C621
:100A20009095FAADE6F25F5DD1E23D15D0BBD521E0
:100A30006468AB79E7FF2F7AE3019588C0B7E5EDED
:100A4000492FFFF8D1FCE064FFE801C07857762415
:100A50001BA209FEFA7FF398FD6B3078829971B37F
:100A60000EB24DF1FA84059A6DA4FCAB938493F118
:100A7000112D453E85CEFA80EBBEFD9888448BC88B
:100A80009D223980887B5A21092759EB28FCAF0425
:100A90001645C6A4B3F9EB1240C0FDC62041248917
:100AA000662E8463CB20D208B703D3939D208602A1
:100AB0008659406729C6AE70DCF9E0037FAF980223
:100AC000E130F3D6F240AC3F384FFB34E080BC98C5
:100AD0001E0648ECFE9B62403C800372791EC001FA
:100AE00078C4E6E2810C8DF8DFB6CE80BD185EC515
:100AF0005EB82CD649B380BF81288BE08566F2783A
:100B00006BD66B1890584C38315E60FB80056EF4E4
:100B100040FAECDA2AF7A0A00886A0C0F84BCCD7A0
:100B200049B30559C87F9098B39F84A61248029C88
:100B3000352F61E3984F401EF80B5F52E7405D8907
:100B400070FD248628D00FC54BFFD9E80246E0D3BC
:100B500042443B4024017E909027120110870941B6
:100B6000AE246CD8C4FAFE31ED82B5CA7B65DF06CF
:100B7000C4B6B8A38B0C081DDE34430C19FF2DFA44
:100B8000B9DC0147DB6A4CC2DFEC42FEAF5D388264
:100B900000617A0312232657F36BD310EBE9B56497
:100BA00041DA75FB37AC65CC8408497C28B34B4DE2
:100BB000B4DBA3A80155D2201184B32BA208CB9893
:100BC00089264B4190DBB32DB0B6BCBC75FEDB373C
:100BD000041B38B60D1801DA41FC010916022288FF
:100BE000FC6960202C8009C3BBC020E4CE03524CBA
:100BF0008229E5E121F960CB0D995F4C9807B91C7A
:100C0000F690F4400657D0DBFFB5506FABE801E239
:100C100010F59878723041BD8B7059C8FC031A20CA
:100C20000FE001ECB988FDAE65E60C0440FC506CA9
:100C300066B580FDD358ABB38C415E7869A08FD187
:100C4000B621F88273180403120C7302E9FD4BFA03
:100C5000125E833B445FE2F64120C04277D686DBDA
:100C60002D77B12008A186DB1976E68C89AA267F2C
:100C70003008010340042C859002CB12B86616336D
:100C8000FFF696C7D9FFF8FBA269C9F740812C0F80
:100C9000E3F363D96509248DB0D350FB18243BFFDF
:100CA00098FF281A33938CD1713990B8FFDCCB5858
:100CB0003204646B44AF6665FDCCB75BA79893F9CB
:100CC000BBFB89797D7BBAC0F96692CFB180C64CF7
:100CD000C4F32420847BF860FC20042FBCCC646522
:100CE00019FCDF92D4A101EC6662BEA967F1B3ECF6
:100CF0003D4120B5B4ECBC6880B3C505279284A6FD
:100D0000FF46F76D88FF195FFA2DB1046FDE4B8047
:100D10005F62ABE2C03FACB17FA5C24C886A943041
:100D2000F6FA48FDC7962010A0EF9A9BE879BEBA64
:100D30005D02DD3844B3FC7CE8C7FCA8C4963D0ADC
:100D40008DE628FF9EDD2CF360B5F41F22EDBD106B
:100D50008040F34210642F51582D19B726F3B8285C
:100D6000573B111AB29524650D0242AEFF37EE4192
:100D70008004D52C0205B29E78192DA0885BC92B62
:100D8000B328A1EBDB14ED4B9EB45E55C00236C018
:100D900006589C0BF64045F2B3B436C05992E803AE
:100DA000B3372048F903078109B785D012086B3F94
:100DB000C43B11522414FE30802048E59E5C5082D2
:100DC00044C0C009E14D605056CAC159090479FBBD
:100DD0003004A8FE0827CC837F8CCCD5080194EE84
:100DE0008121F0D9F880DF631201C67C9851D2D0FE
:100DF0006D081FFAD56794C7EB69D164F710F899AD
:100E0000BCE68F7FDB25913FC094CEB580FB69FDAA
:100E100045FE6EEA66187F44FFB3025680B0C6B343
:100E2000599298D7B320166301515E28EB041ED166
:100E3000D8D0D8F81043B66CC6F832DC7E6F3CFBD5
:100E4000F34E71539B6A69B3088FB61060E15FB6C9
:100E5000F07EE40028C4ECC338FA271668D17AED96
:100E600080CDE2DD4BB32B90CDE7C87180C7FE8CFF
:100E7000F35337D66B883FC67D127EAD128B478CFD
:100E80003027DB6A634ACCEC4418BB2AFE612F2D65
:100E9000400880063100A48F2EF731D2AFB17FF326
:100EA0004B37DBD1C8FF0B56BF08E253B8CBDAFE95
:100EB000FE6518F8C25F58E720C163A8A1D8996001
:100EC000F919DE386131099EB3637DA1638DA908EC
:100ED000FEDDF266A5D710738A6EEF11C716663075
:100EE00016FD7FB9A2896705D8FD63DE59639F8728
:100EF0006E287E6C2EFF772C98F4E9181B023FB603
:100F000085028D5338FE19A3FEF561116593FB1B15
:100F1000C156F8C9FACB3083991980642C41908668
:100F2000F54CFAC4B8CC82E1B097B7F101250A417B
:100F300059DF68DA98FC18E956136E96B7A012D4F8
:100F4000EDACC4B97D012CDD2AF5486091EDCFE808
:100F5000F9E156DAFC6806CB88018CE155B3017BD8
:100F60001E400422D396F456F66B58FC82DEED2B1D
:100F700052683F48289AD1C677D48049B384B37E5B
:100F800097851C36E8812191A7FABA0EC1120E048A
:100F9000F0515305EB149E30EE840A024BE1EE73E0
:100FA0003E724A4ACBC3F778BA1A60032C1F0C85ED
:100FB0001502401A10B4649F26052548FC4032D51E
:100FC00022E33834088C170224812012A00418333D
:100FD000029B010C2667A93C40EC28E906D2CAED29
:100FE0000398C0CC0166CD9045DB0CEBAFA80AFDA1
:100FF000972608FC943F784A4635D669DE9D71866F
:1010000097EB8F80BD8DFC667BF980106E292BA637
:10101000ECB6BD1552F1F38FF1445FB172F482FF6B
:10102000A1E7FE62B810DB1EF8FEF3A609B4AAD051
:101030007EDC800333BBCFC4FF1ACB9773D609374E
:1010400094A0B0FC9FCC11FE373D3C027F9CF988F8
:10105000FF400443630BD00163EDCCAB733D01D87B
:10106000F908859D63B210BFFA026E9305E6192751
:10107000A6AF18ED35CD82A8F897FAA0086FE90160
:101080004058AE0898CBBDE39204627C22D838F970
:1010900051E6E7E21897C57562FEB24056990278AC
:1010A000C1B5575979101CBBB1055F77B80878FAFC
:1010B00098D4A9E119B7C2EB2DDCAACF6C8E10FF32
:1010C00027EBFF3CBACB5C8BC019B0FCA4B359B280
:1010D000CCEC208076871EBFAFE8FF2044240A02B4
:1010E000D020BE031001813520EB3818F3A52D89DF
:1010F0002206622230B9B9FE487FDE08ABB908D3B8
:1011000020D721A0B696D0FB2FEB5C0417592D8079
:10111000AAA00353EC84B3A0FBAD60A2D8715A0B14
:101120001873E9013269E2AFF4233FC53EE326FDBF
:1011300030D3D059D33AA0B503DF6C38F820EB4850
:1011400034214F5AFF518C80118B011673BE2360DE
:101150003E8084213002CF3DB3F9820B13619D2282
:10116000F30502002C3EFC43208480EFE1CA88F99D
:10117000C7303FC2C008190183EE602180EE0B1614
:10118000C0FFE8C6140C30CE201E931C26C4023CBF
:1011900003A0A2E32440A5C04FB3600128825AC235
:1011A00007F9E02662F1701F1EC80381780FCEE0B8
:1011B00081F407F188DDF30764413C677A15E09814
:1011C0001907F01406E0A320F3BCF10391D3105CDF
:1011D000F3E5D8FE80F01753D3FC060C82824188D9
:1011E000D6DC7F59100482013008679A19BBE003EE
:1011F0006220420C2139F3C673F3A0F90B81309BB6
:1012000009B328D4B32CED3439C1DC9E0B4684805D
:1012100041FFD0CC62FFA2FA335AFF80329398028A
:10122000D35121F31E79D3F5100C8491952EC9CAA0
:10123000A480AF9036981583F3F17E4ED42922FE18
:10124000907AB311FF29F841FF11A204E56EDC4842
:1012500003F4C78482F7FFF55D68110DF2BE66C620
:1012600078CAB8A6EF66682242FF0CE46603D7FF8F
:101270000691D1CA19267BB997201925F830B3AF4A
:10128000999840BB2FC0EADD39B2B3021DFB26CDD1
:101290004101FF441EE2B12FED2DB9351A5DAF605B
:1012A00095C8B549E69851957DBFE0D86584B4E806
:1012B0001960E8D688DE5ED7BD63821009AE446E41
:1012C000BD12EF247BFAF9FE4A62105994190DB34E
:1012D00042801DC69D240920FF7F08DFFF08D3EC54
:1012E000FF045FDC864696E1239E8B5DC72F867EDA
:1012F000698051B020D9FC035F36981A1839F0275D
:10130000195707E081BF3CE8CCBBF2663911CA0728
:1013100077F62F01029E8B02F4FEFCB82003E40155
:101320003CE537FC04661BC3F59437D6C140BD0AC3
:101330000C840131E6B3DB016DE7989AA68BF36666
:10134000FB13107F744DD8F8199B08B34421B326C2
:10135000DEC002D3A34CE0CD0A7FCC435F7FDE80AA
:1013600091B3CB9882F546B312C2F4B3046A826794
:10137000D390F8AB24095EA920D4700841095B79A9
:10138000987F3441022FDC2FB380CCD7E8323A5C0F
:10139000D4F4D20309BD08DBDD984811897C7DBFF8
:1013A000224B15EC6A63355302F6CCC666DC17DEB9
:1013B0001003CA6DE698AD0C88FEFE98B4C0D3EF5A
:1013C0004E5A8E817AC40C332F4FB45B66407FC96E
:1013D00002187FDBB9F998EE8628FA0CBC9857B34F
:1013E0002230238981BC04E5E7C160048C3B46B010
:1013F0004027EECC3773743FA16022836FE99822B7
:101400007E5E53CB0AFDC0B93024CE1801FA448861
:10141000D3EFDBFF47122C828D052064FDCCE51C49
:10142000F7DC7C7FD786042ECA09F832CF4742808A
:10143000A589E9F9FE9885B01ED7C4831BC77898A3
:10144000C3FF78D70BE09AC5FECC08D5666677A9AE
:101450009804D301A17843A05E9829ABBE40DC0775
:1014600064C57F9198FFEDB60804B79F98E62B9C62
:1014700030700B46679198D3C606FE98B460E6308C
:1014800049FE8469CDC0ED19EF132220E89D57C0B5
:10149000FFCC144C9184B39CF65C30B508E63082E6
:1014A00091D5B309DF6424EDE842C4E0B3794C88F8
:1014B00029F9FB58FA203134FCC4B2C86EDD043F70
:1014C000B330C8486B29D728041DD6C631BC30B606
:1014D00008E53093D9C87F2E5A48FD3412FFAFD6A5
:1014E000FCFAD8499E56CFCB3CE5CB5680D235E5A9
:1014F0003005B71B30F584BF132CFCC8F947E1ADAC
:10150000EAC0BCAD5F239F564008028015E5B3DBFF
:101510001F1233DD98041081AAB307F5FA62E0FDCB
:101520003DF0FD808891BBCE81FAB1FCF6C80A027D
:101530004CBBCEB2607930216BC75BFB5B80453D15
:10154000FD260240DAFCDC242CE9C2FBFABF115C68
:10155000021805A3BFF9DB9826C8BFF040C1220CD2
:10156000B481FA7FF59822AF2930103816773930D8
:10157000086014FAA3503FF99162DD114CAEA299B4
:10158000FBE06780205F801E77113DFDD9E8766B18
:10159000F519973001F030464F2D3064B93003B55E
:1015A0007ACDBB32DC0387580FA6E48828FBFF9670
:1015B000DC1BDE986D9BC840F830DBEFCCDA965927
:1015C00019811C306B9BC88280D334F69819F915A9
:1015D000910BB362D6B384FF75ED132008B9304088
:1015E0005FCCB510E5CA88AF303002421269491BA2
:1015F00088ADD3BA575286E9FD77FC3480FA980B50
:10160000FE1BFCE306BEF9BC9845F169D6084F1CE9
:1016100030F778F4079200B6D0BE72B92721109641
:101620007019F9C82DB2FCC5CD33FF7830FF37C72C
:101630005CE3C0F3A202115DE4B0B749FA5680DB67
:1016400076EF06BE982CBB85B00AAA6685D7CD6B0F
:10165000B4FCFF5B3EC40D7666087564703E673A65
:10166000C58C8005E59D10E9A902425C30B401FA01
:10167000CC359632C0933905F2466C42AF845D7D1D
:101680004A97C82B5359E505EDFB6D7E7DF5402249
:101690008C902DD3023ECCBA48FEEFD6881142B2D0
:1016A000189513E7C0304ED3C14878888360245919
:1016B0008011DFDC38FB1E06F2B85D99930FE2362D
:1016C00037F3F18AD0F3F2983FBBEDCC9766E09EFA
:1016D000B4D36BE898F00BD35E78E362E2800C2021
:1016E000DFFDE6A5BE98AF0C233859CD483830DB76
:1016F0004DFF4B66CFFF3496D3BCFDB8208E088FCC
:10170000C6CEC849FD8819E9BD98432BF66D5684AD
:10171000B3997E9001B0E59E620AFFD5EA6FE6308C
:101720008951D0B3FF3B21FE9F46C104109FDB844B
:10173000409029301338FED920001C3059E81EA2F1
:101740008FD4D49101A2DD4D2EB30030E254E130AC
:10175000D36B9DC8086CB700307E62BF8C26EBA0AF
:10176000FFCAF4AE0C06FC23B760E5242275B9D994
:10177000940570300B415CECC80260AF486B02C648
:10178000AEF517FBE6C0BB33AE0EB56EE63070406B
:10179000BF9F092886B3BB6444726601EFB562D56A
:1017A000F903AAB3078FC93BC6D85CE8F81688FAD4
:1017B000C9078D246C46E9836802800428DE19BDC0
:1017C000984471DE365E0A85AB4722B9C0113BA34F
:1017D00026C245F00DCC4F0AF8D3CD31A34298D3A1
:1017E0000493038421EB30102647AFF6010CF18CF3
:1017F0008109305DFACC205AFF02F6A984B8107234
:10180000F4180567E3DBB4829C91A360010F8209A1
:101810003111EE68F960FBFCFCD20BFDA580CA0714
:10182000F1DBF1C5F3F760403CA0117BBBE444FF62
:101830007F85A572D3185EA7F380F4E4D3205767A1
:101840009BA8FE5FFC6FC030169A22F130DCA3DF4C
:101850004130F77F11E1F8BF5B447998FE6BAFC26E
:10186000366FF69869FE0590BF0A30CC5EED04B382
:10187000AC03F70E901130ED0FAF003077ED7F45E0
:1018800057B35391C019E4D30247C6FD7F7B9890AC
:10189000026FC030F44690C59C607C412448068E9F
:1018A000F3EDBFCD0169FC32040837E4C81036619E
:1018B00011D9C8416538022120D02436D8FF9C6A4E
:1018C0002FE7EBB1FCC5F50860A13605B35FCC2D61
:1018D0006A0D66BC84DFCFE550048046F9D730201E
:1018E000D0FBEA0931CB20065DE7D2F8C595F3F0CD
:1018F000E598E28E6DD7C5CB58A26642D728C8E0DE
:10190000DCB49FF3421003404139B338F9980A0917
:101910006F6602E7308D84050380065F443FF368FD
:10192000028490215A1569F0CC5A9CABA373ED50F8
:1019300083BF68AF647343401060FCA44E6CF8FF33
:10194000845DAD98C859D523C03057485FB346FB76
:101950000B61B48CD7485A607ECC08D57A114DEE15
:1019600046020D1AEF14FD5AAD060CF64F93ED909A
:1019700005B003A8FBC9E001644B6FE298FBB85DBA
:10198000D3DD9862012C1FBBF6CCCB66606C81C89E
:10199000195C30BF8129C8F338F94003E0413CA805
:1019A000BFF9C598F0AFAE98815FD6409BE80C5D5B
:1019B0001615BBE6FFBD67656D3C75F1179CD67BC0
:1019C000779B40FDB5CDC044C7307A9809E3B38713
:1019D00038DA4C82BF51B54A60C430F97F2D30806F
:1019E00073C842D2130AB385ED7E111018025360FA
:1019F000420F820510E622E8F8C024930242BF0B92
:101A0000B469C8C85B92102F953060C0305AF3306B
:101A1000A0856BC230E0D79030902B5BA992C62195
:101A2000C604423A66411037EAF3C53CFF57CC1171
:101A3000D2F9FC302DCB7830E3B53727BBF968F904
:101A4000347B281959636DBB2801CFF6D5CF39C136
:101A5000CE17401F6BEB98906E3730CCAB84DA69B1
:101A600080234820E280FF17ADF537E5E2A14F74EF
:101A7000424108BD8394047FDD3ED664BC30B58806
:101A8000E230D300F81D0546668D48EE09A408F340
:101A9000100293FBC0289C046608181F0301024C27
:101AA000D200503A41BEF02F60404CE58411306CBA
:101AB00017B39B98690D64C8AEC09D17516414A2FA
:101AC0002480737B0560DD2CFF8449300AE1FDE052
:101AD000814D19F020DC5D0F0FE440CB24F048DD90
:101AE000F37ACE300C08058819BBB8F7FE5D30E8F4
:101AF000C03D165FC8EAEF8057F371B75E0178EC1E
:101B0000F63998665F3D7EDF39EA98415A66C179B9
:101B100098DCAA1604D3F7CC581310198C416BC962
:101B20007D03187FD79F772D180871FF78980C597F
:101B3000FF2B2193B324CC435BAC260CF412EF5D56
:101B40009853C9304546A20422FACCCB73F9CA8413
:101B500011ABB320246BFE75414250EE79302082E8
:101B600005B0BA8AF9C6CEFF2FB396CCA59F326CCA
:101B7000E95D9C622ED3D8F920EE2EBC3F70CC5884
:101B8000E2F33FDEE887B4F56621A9E018F188D3D7
:101B900048FC0C253CFF66C6CBDFF67F283C66B2CE
:101BA000407830C71B39F0FFB657C92DA233198BC7
:101BB0006EEDCCCFF3DB9931E010641D66F47FA0AD
:101BC000661FE0F6ECE62C4F00306DF2B973F3A817
:101BD00053DE6DEFC4FE04D36D535172863FF3ECB8
:101BE0009D50FFF3D372593499681758FCCFCC320B
:101BF000068CF3B3BD1FFECCD0FFCC48D2019ACCEB
:101C00009DD8A448AFCD27BB81B206808EF1385B4A
:101C10006BC67C4BC58C1C5DE688B1FE43E8F2D7F1
:101C2000DBADFA00C1B3BE64DC04DDD8FF64991DEE
:101C3000668579D3BF924DB00CD4EDCCFEAA18FCCA
:101C4000F39433EC1DFF5BD9012E958032DBCBD7AB
:101C5000E882E4D1D8D8667D7F9FF7449956EB950A
:101C60000233ED719B41A0FE37E9A6CE816A282C94
:101C700078E10FC84ADA02D57F08FCB9726E24BE3B
:101C8000D4D3D36821FAFD7B04104041BC11B50ABE
:101C9000E6D335E0599108E653E65BFA8741B84848
:101CA000EFE9A7F0376628784B53C250981AF70B24
:101CB000310C3AA032406B5B480B7BCD0C203C666C
:101CC00046889D20FA18802EF8607CB223140248C2
:101CD00060FCB3036880080558F97721E548C064C3
:101CE000359C0197166F4F294242F28DC4F7D102FD
:101CF000A6417B60426B80949222A089F45F141FFE
:101D0000116105F8CDFE40EE20B9D79BB69A27C2E7
:101D100040B3D00FF3BA2DC6A0CBFA88AC6FD7FA78
:101D2000205AB3FE8C818CE067ABFF8F6837FCE9EB
:101D300041A6599ADE08F9B867F9299C54B10213F3
:101D4000E73DC968B1FF7DBD5A89080DBF58ADF8A0
:101D5000FFD819FB8AEB80CE597180A6F87F9AD400
:101D6000362118FD7F5B739B45EE5F10CE17B4C61E
:101D7000F94B9DDDD170FCBE9B2F98BFD22E01D4B4
:101D80004D59D299BDB9105E90B1FF131D1BEB5197
:101D9000304B59B52DE970FBBFD965FA695EB67154
:101DA000E789752175BE88EFFC38F9158F6EBF0481
:101DB0008C23936918DFB32068FB63C6257FED6928
:101DC000808C5BFEEDC960FE54E740DAB001B36C75
:101DD0000CF615E1F8D8E7C5455E9BB91D8FB6FF37
:101DE00070F929FB3481BEF8C7966B04E6438BD6A5
:101DF00078BC4BC516830117EB02B8FDB208FC7323
:101E0000DF6C14538CCA7191B8B0F8BB2C7C67E5B9
:101E1000BC668EAC7E0853ACE74F7B7BD8FB1130A1
:101E200043D9FF88AFFFB2E301BD33CC6D646ECF01
:101E3000594E186B66040C1665105319FA80628AA5
:101E40002104317A56620120C53FEA4096F01930EC
:101E500031B120A51B109FE33A66FE635FDB62860B
:101E60006772A480DBFBDE50FA2FEDB4D684843990
:101E7000D62B7957ED76A9F897F6D73FEB1A013BA9
:101E8000D647A04BF078F97ADF04CC2583F6222CD4
:101E9000FB80BD835D027280056FE810F864B101BC
:101EA0004BB2734BDD65A4FF201CD9E3B282848E54
:101EB000D506F9CD00B6E159B310480904F1406CDC
:101EC000109702210411C8FD2088B9A012E3A15087
:101ED0005E927FEBC381308D133B03208545B306B3
:101EE000A3660C0306186FE408F4E684281258036E
:101EF0000C190DA0F2498651EFC62806EE052550B3
:101F0000F44B2693E98B9842485411E210CFD6A4A3
:101F10004160A80E64105687E282C0307BAB01603E
:101F200017C0219068E4086B41D220406070F741EF
:101F30000A7F10400C22008CC4210AEC0978FADFD9
:101F400047E6206C1536B340A0F41B91ECF71BB3A9
:101F50007C3646C2F7C4E111AAB8FEF482F523C468
:101F60005F9495C4E819FED301E4E2F37866907BB0
:101F7000DC995EEB2DEEBCFD1B9DB298F810B2848F
:101F800008C57DA64062FEC3684F09BBC62CF96731
:101F900079788FEABF80C5B8310690FD5B541BC3CA
:101FA000FCFA2686EE6E6CD2025385D2D3BBD828BB
:101FB000FA6DF683795F8E6E7F21C4550538D6B1F0
:101FC00017F515E6BF2258D848FBA6DE1CDF5E36A3
:101FD00062FFC7B2048BD8EFFCCBC34E2E30B3F9EF
:101FE00079E5107FC2F963DA6C8E01CA5826FFEEDC
:101FF000D96E659BE60428A6B4805BB3FA99F09F7E
:10200000C801B78B76AC55CA188FFF5D08FE662CE9
:10201000390448CE0B655520896ED904D97410DA7D
:1020200060FD19F5AA4640652D0880D89653B30483
:1020300077DB80B703178BE4ACBAFD57CC1A253297
:10204000FF7A5572CC90FBFB13FB2F510DFC555DB5
:10205000147EF7B6481172DC09CD6DC4A0019E61F3
:1020600068412D289FBF26084282503FCD0C29A8E9
:1020700001340BE8F865FD498FE9BCBAFF6069BF20
:10208000801306B7C0FFFD201018F8FBE0013D905B
:10209000BFC2401E0003A562E001A7CFC9DD4240D8
:1020A0000FECE0813CE199E0B631E71C10080476C2
:1020B000A9C330D3029A78C604E68790FC4D6826FF
:1020C00006714B240244F47B319CE30140236627D4
:1020D000A554BB7B016FEB55448059FE42C4F7FA0F
:1020E000214168828470E64098FFB33130ABC4C4AC
:1020F00000189A03468C65660226CDDABAFD220CDA
:10210000880531419CB3DB05B03019408C08C01FF5
:1021100046040291881660172C80093BCA38FA9948
:10212000030710032775640F24033CA0D207F26352
:1021300003454646E671662D060878DE0F07E44043
:102140005EE2A430C602E1760F647A1C1048FDF905
:10215000F9F011FE2072C33069D3C4F683BB20F6B8
:10216000BF307819DBED20FE7F08990E06C2FC49CE
:102170006610D38941080AFF9CE00A16C0DCB3054B
:10218000199484F36988229F69204CA409B20D9C9C
:10219000B3B6897C193040868088F5F913C044FFB6
:1021A0002B60020E10C30430AEA8B764F398FBFE98
:1021B00090D71611DA54FA1B09C47937C033D30209
:1021C000E068E9812D30C516F5D4040340FE9C4932
:1021D00024201610D4ED04FCC7BCA5DFF7C3061BF2
:1021E000FC1E19EFB2C055DF60CC7D3C10EE0680BE
:1021F0001E4C260F0C3C3B02BCE296A90386DD6F09
:1022000066610C4EC084B071BDECEF8247D3E7D657
:10221000010C3005FC52DE20806C451023F73B702A
:10222000CCD0178C98EE0DD9F134FB373FCFC24696
:10223000018018F702102144794C7B248480D1045A
:1022400041890204D393F9E0204685C218BB10FDF2
:102250007F8101306507C306D64046E62209A40AFD
:102260007680FDC860448C08047B98C8880E8090F6
:10227000DA2C705130B049FE193E98AF0379EFA0C7
:1022800007F480D0491C0FF02C0CF7B43C8001FA05
:10229000F4201EC403F498608CD80470E9C6500280
:1022A000D3E0FD013C0820FB0479A57DACBF8D98EF
:1022B000E3C429BD83F3022CF3FE25FD390679B86A
:1022C0007437027C8E1823F3664F6E6BC1FD61C0BC
:1022D00026C4695804194C5E98CA1124E0F3C06FF3
:1022E000B382DEB38216C48871D30B207A4481098D
:1022F000EE646282250539AB248489B9CD60FD790D
:102300003470FD381A8DBC982356714108CFF1986E
:10231000E09F08C6C0108840E7480B0CF4A4092BC6
:102320002EFF529240806882DD21A0CB30FF806674
:10233000AEB7B1F298FB5A1A10FF191C197926DCB6
:102340005376C9232C764DB9A0FFDFB9AE07AF9EF7
:102350007C98400F80413CDAD330F8ACB3DBF830E6
:102360000247460148E50249B081BB0CB1C1105794
:102370005DEFDFCB1050FDA47A7744BCF2E4DA08BD
:10238000EC63A4D065648833E006DA1B3E00600A83
:102390004C82647304BCF8CD49412081C0FD1030EB
:1023A0000178FA2BC041A51716DC8DAF90239888D1
:1023B000D7C88C75329CB3BB41C9816923120C65A7
:1023C0006B09F675563866604408231FA690FFE037
:1023D000810CCD0314E944AFBB989007F04D5764CE
:1023E0000F58C486E6061CD3740606D01AE410E81B
:1023F000093DD081700EDD4402EC8B403CF8A7FC17
:102400008041304DFD980477D17259B1F388794BF2
:102410007B214240BB18B5370CE9B808D3011166DF
:102420002C0BB9F4B8301586FE7843EDF3B0F740C5
:1024300046C424A8C94C19CF78B48430C006DF0242
:102440001A890162C0008CD79030718B08488FBE0A
:102450004144889A058658D4AF06AEEEBF59CD9850
:10246000B3C82162BC3059C8CA802487F6980221BB
:102470005DF3EC5250027E4182682F018031F624D8
:102480000454F8F91263F9D56DCB2CC440394FF5DB
:102490009840007BAF60A74B7CC8FDE02B5BC298E7
:1024A00099E083EDA30FE0BD981E68A6623E985D9B
:1024B00051EB042420D09818117D26B2F0BBC07ACD
:1024C0002A200860F698A0FABDC5094CC78004D739
:1024D000E241AB3332E1556F8108F3E511CCC88599
:1024E000603012D03E1A010961045CF3DA30BD5845
:1024F0006B41BC57B001106F0BFF80115D17B4C862
:1025000075464C8801E16BAE483F89B6DE2121ADAE
:10251000620946CBF7438EF340E2A0AF58E2328423
:102520004C7E083012F9FE604A6CDDFB7F5E2C3079
:10253000CBC8F063FC98C478C763D33C610334AF65
:102540004D9818D0E0FDA2071ED05E98BB03C2983C
:10255000F6FD8041DADC47C3F323C0209718F8F179
:102560003088E7C8312069F87F6108F3F266E3300C
:10257000FCABB796F90A099619C28A192C0DED46DB
:10258000E8C20298DA4EF3FDB040CFF44CB0FE1E24
:10259000D0481A11216056955DCFDF2098040220A3
:1025A000F80A2488893055D0B4E3794619FC30AF55
:1025B00006DA14427BD184206773808004CF8116B1
:1025C000885A5020C76A4111703DF5C60242049AEC
:1025D0002529EF654160FD71DC9996C8117130DCE9
:1025E0003DCB88812C8E65E323F9E43880FEFEFC28
:1025F000714018080362FEEA82013D2002F0051EC8
:1026000065F918DFA3B204324437BCBD0CC6A02B59
:102610003866E0FB60479AEF58F90414CA1ADEDC0A
:10262000428D630201B9230B69F6DE7FCFCC2E11F8
:1026300012C00E496093244128D7103143B18088DD
:102640009FD344A1493001DA62F871D7AFFC7F888B
:1026500001B020FAF382181008250FE6129CB39FF0
:10266000316D46042218E0020864660C82F306EF1E
:10267000DD3205B9CB10D3EC0AC0FFAFEE7F0F20DF
:10268000CCBB34BBDC29C8FD3C625C30C003F0F538
:102690000EC0013892D5D3FF13987686075E7E2D43
:1026A000A7FE7FCAC9C866766CC8084B31C810EB54
:1026B00006D2B8082D6DE0887C98E389B82304D948
:1026C000B266401927ED2224C0C10418AF0B235F66
:1026D000E63FEB279C3D42C028C08B23DD242CE243
:1026E000110A79C6040301C75BE38D05F94B198014
:1026F000D51909FE3DA00485524871421A58F320AD
:102700008FE83048D366C15A8868B5BC84F3344139
:10271000C0101D43F30B040C21873417E4FF640B36
:10272000D7A0094FFFF3985FA3EC65CE2CE6BEB8A7
:10273000FCEE385D191E8160BA9189E5701E92C861
:1027400056DD8CA1EEEBFEC001B57BE0C43DBC4A7A
:10275000BD20DA1967B00219A6E0014BE2FEBDA563
:1027600046DE0448689D2CA090106F1C01409E23FB
:10277000F30D8409592DFB49FF3042461884082186
:1027800023EB2422407DA3112641301801603F44F1
:10279000A809B108D3A1FD66EB4466ED33678193C8
:1027A000081B0482CC18018784AFEF3337FE3371E6
:1027B0003040C07E1811806044794A483022A15DC3
:1027C000179B23B08C9B5C59FFBF7F0759C8353ED0
:1027D00008E5C5E7B87330C803A518F30189F330DD
:1027E0000732F5200EC003CB3D64B3BB945E985C0A
:1027F00023FE0F64800C1038FCFD35DCFE800C825B
:10280000FE25305983FC5DB1310D924839E0FD3F22
:10281000CF6689F3A2DF26DBC6C9BCE5B930C17932
:10282000190AED38CEBB285817236084F68C820530
:102830000021C83030DF06D1028808C70320FE809F
:10284000844918220640B7E311F961214C904523D1
:10285000DAF8FDE4D5E9092009630849F311CC5DF4
:10286000A40969579F9CC82004FF9426D0025B10DE
:1028700060084CF484B445CE3092400B23F2AE1E77
:10288000F0FACD33393886CF0E1ADB20C83421193F
:1028900088CF71F30B1FAFBAB17DEAC24018C805EB
:1028A00006E5E00109D3B7B63EE2812195C8DC1FF9
:1028B0000482DD7180A58FE598B42682A202D3E957
:1028C000A4F1CCFD843088AFC07C5110040A0D24E3
:1028D0003E3441A4BC98B93024B18C2765880421CA
:1028E000FF22401408488B600A0788458E105767FE
:1028F0002E0C216359053047F8D704109A98688F39
:10290000AFA549970296F4498C44F3C1313067274B
:102910001908D346C0BF8839314C02C6950425E753
:102920000CE7BB493003D0FBD7E081AB9810CE98C1
:10293000E430640D3C9078982EC003596CF3684BDA
:102940003EC80C880374B8302E7A40B3D51C5CB9ED
:1029500047F375C37B6B20A8BBFF5702062EF1839C
:10296000F598417EACC25BFD79C5880D185306FA17
:10297000CFB561F578A0BFCE722070FB1545799870
:10298000DE58AD0BA4490609A4D32393FB890CA2FE
:1029900081B03FF97F0935C5494E41938708908D35
:1029A00011107E6EC8894EB3510768FD59571E98A5
:1029B00001FE985FF09549F7D68478B5C0DC44F8FD
:1029C0008616D8045A07872181F708848010F89862
:1029D00091D3D4B8502409B6FF666CC880A3F31015
:1029E000E21E3FE1AFB1C9C8FF6BE79893E685E807
:1029F000F8B540D849A64620BA248F61DF9E411021
:102A00000FB340C867E9BC98BDBA90A703B0E40112
:102A1000081C2BB0F2BB95D58199E7FAC53FFA4661
:102A200004828050083277EF3D980C0B091BF39B12
:102A3000BDA00F882F4498489D089562127E8CB4E3
:102A400051EEA774A691D30EC3C2AAFDCD1130F3E7
:102A5000C87F7F63605A8FFE31802026C002587580
:102A6000C26404F97201A966EF2D8130FE0146C4EB
:102A700008191123983F10486FCE2E0113870CD3ED
:102A80002004C8A8FD262DFC98BCEFB950F4D7400F
:102A90001E223020D2E8BE04D466D5ABE84C9003A9
:102AA000700A0EFEC940079783207B98D0039E1AB8
:102AB000C060811C2630F9DFD098031AFAA5C2DF66
:102AC000855D90AAB350D4B3567A5A3AE5E82FE51B
:102AD00030576604D0CC0CE8A731FFC0D1E0A35E2C
:102AE00098FB9045300A20F6E317214C88641B665A
:102AF000BF11103420A24042FC08500B62808CAE03
:102B000019127DB9136BD402700E107698FB33C680
:102B10008F22B305BF1E01F36636D070FFCBE240B3
:102B2000B288CB33F33825CD3CC2D3032CC6602FFB
:102B3000FE304876FF98FF242E66B12013661B6294
:102B4000D3D8FB319FB0CCB566C8B7FAF11EA06DE3
:102B5000D78198F3A1D0B173A9F39888DA18FC91C2
:102B600031DE97F7AAACB1204053C54F1762E68813
:102B7000FE3048FDCC98B72F7D4835D4F5C040B71E
:102B80005976E7B2AFD54068B8021042CB5811A8C9
:102B9000CF96E5587AC2E310E5E142E66BFF97DE97
:102BA00010F97E7FD88D49FA3F04482D4025AD812C
:102BB00018A337565EF8FB5B269A769FAFF67A2B02
:102BC000FD2C818090AA41E3597DE9DE70FAB3B70C
:102BD00040DD1140AFD898E161B99B1BC38D2566DC
:102BE000FE9AE9B801AFC797150C11DD80B968A747
:102BF000F42B60FBC0769E4FF940AECD8B80A85D74
:102C0000D9F311E2B93DDC2BB200F4D5047C4120AC
:102C1000C6C302F5111050FCA2E1C9FF0954105AB5
:102C2000D45FA01129DF02EF429640A625FA7F204B
:102C30003619D9D3F1B82082D1D7389CFCA00590A1
:102C40000B249C9BDA400100660DF330B6A6B2F56A
:102C5000B36D0D67FBE48308E8301410E0E6AA408A
:102C600085B5B60CE1800E88F8134003441E0810A9
:102C7000C0FA79A66004846A3894864081E601042B
:102C8000A58C6B98827F3D1D1801703067BB661064
:102C90008152BED95CC899AC05C0E78283B87EE09A
:102CA000C80114FD53900C10FDA9006D879BF7E23D
:102CB0007CDF7627FA80803CE54CE20ED3FCCB0328
:102CC000FAB278FE1A926A4157F101DDCCD1201A8E
:102CD000F4064908E0637C61B640FD5881FCE239A6
:102CE000CE5DFCFBB14423D319EEB5028082933153
:102CF0002ED99DFB3F59612AFF04E3AF29EF056AF6
:102D0000F8EDB8FC20177B24042DB2288C98516173
:102D1000086EB52D1D4080DE100E5AAF7ACF0AD452
:102D20003FDBA1B7BCD858348F6FF440FD9D097CC0
:102D30009D17EEB90357A19EFAC9D838FF4C2367F7
:102D4000F50505BF79F8BEF615C0FF623404F5E35A
:102D50000218EBB7EB7D30A57A36FC80BF026D2000
:102D6000F8996C66F9F58A108E3B65200880144E40
:102D70005380B3FE02F3DE3B8CA6636CDB654B90A5
:102D8000B3FCC8D518C22E35790C3AC96CD5E8F910
:102D9000C3E4CC692332B80F2FEBB1F37BFDBC4009
:102DA00010DDE50864986DD64713623ACFDA2DF846
:102DB000AC9C40AFB1F7951840CB85022377231424
:102DC00006ED5AAD5DF896A8B36818B0EAE1FFFECB
:102DD0006E9059AB6112FF80D435C4544448B36639
:102DE0001864527767F2C6FFC403DDB195C002C60E
:102DF000DF2DCD5418FF9FF66C7F98504EE0B088C1
:102E0000BBB6171026B3B71016B3482BEBEF8017DD
:102E100031AE46EE98FBC2D2665A9D013B97081030
:102E20000171B8F377F6C46CF9993269FBA30440D9
:102E300071AD0CF173DD8C2018029459BF016B96B3
:102E4000C543F602C664FE6404F2E131E6FF88760B
:102E5000D9CB029D81FCB0FB940763FFD0B5403114
:102E60008E4F6D6F70FD4C9AC5AD40B9EE8439F947
:102E7000B6827AF758FE4A405BC1427ECC40F36B83
:102E8000F2211808E6C4432438D53BB42F6DFDA0C9
:102E90003B770949CB20C3DAC0FD6BE640089B8431
:102EA000F110B491EF86BE68F6218EC4963504E623
:102EB0006AFC5271CF0E33F038FE1F800196022655
:102EC0001E02531E0B401C2004D3852406E610501E
:102ED0000B90686CF318E2B413E0C5FD8873A94C3D
:102EE00028F1611501A0BC80C2001186B60FA9208F
:102EF000F887FB3B3FAD6081184802FA62C01BB403
:102F00000139519C029ED7FB0C012825099CB4E491
:102F1000402024B0F3392D0130F35487290E33EFCC
:102F200010F08927877851B0830DFAA1209C577F34
:102F3000A5FA10F7B7280B41EAE33614E6FB108236
:102F40005EE60C08A286FADA891DB1C2D0FEF94A03
:102F50001122BF8104DF7B011081B2E958C69FECCA
:102F6000CC028059EDB2CD877EF368FA46EB25C4DA
:102F700098E162BAA6D88220B7764E18FCE2CE4617
:102F8000CFE1EE786266CB2BAED4A0B8FACA5BEB89
:102F90000165F5EBB922126CB6C010FF37036E3E27
:102FA00060FFF5DD8897DBB920172F69B71437D993
:102FB0005BF70ABBEF64F90837B14404DBE45AD885
:102FC000C650CECBDBE13B5BADD0F97EDB7A08852A
:102FD0008C70D50633A7F9FC9F067F17FAD9CCDD94
:102FE0003D63FAF7B7043B85D69C0221A6627F9B1E
:102FF000F3751B8D1960FAAFB6F80230FEB0458745
:103000004CAFC34472C56FFE40FA51E001EE9ECE54
:10301000B102B5154096CD5DF73BB360FC1BE304F0
:103020003DE603AF04A2623E38DCF62A4BAC26B67E
:10303000B5B10239E930FFEB62BE2FB10242A923DC
:10304000D1BB13FEC520FEBF6F101DFCDEDA0241AE
:10305000A01D826C48905D20806575D11A636B3A23
:103060008CA19801BCF8EC83D8338C8D7356170370
:103070006F75DE0C80C11E2BFE6FFA5E9BC09B2F0E
:10308000F3E3301AFD8006AA200BD7F735182E5629
:103090000F6BF5F0FEEDE9454676B66B5D02E5B0E7
:1030A000F38D2DB31085677C29B36066855B4385FE
:1030B000FC91EE300A4679E91360044CDCA0B0E0E4
:1030C0001A1811D5518C89F3803042B9264DA311BD
:1030D000A7601F1674421803A7382F88307F78F82E
:1030E000E0013CC480074EBD83781099533C0852E0
:1030F000E9401EC0EF0F626468D3787037E8E0C023
:10310000F3F29E1AF978200E8663F8FABEC6D1460D
:10311000037AF030F3464FB1C2AFCB7F0266CE0CDC
:1031200000A9F7C63120F8B1FC46B31301C4CDB3F2
:10313000F8D1E32545B348CFB3440C800999302D2D
:10314000FBF5FF8120100482405088E00041091403
:1031500047F3117D74E6F3EBFF2454F8120B142BA4
:103160006F696FFF4A08DA4C6CF118FCBDB1E75D7E
:10317000B700565A06580E98DFA67BC1B0F8FF3B41
:10318000EDCBA5A5A3F6B1F3DD7F651B24ADC03C57
:10319000BAB8D7695170086CB3EFA0FD28EA4E4762
:1031A000E309078C0846F3FDDE6EB262295013FD79
:1031B000B605E39D7566D2DF7FFF2016C202980038
:1031C0002360D72448F87F0126C25398DF6000B1FE
:1031D000F325FF281AFCF9989BC41EB2EBFAE041D4
:1031E000DFC5F0201EC4008D7A0F9B0239908BF34F
:1031F000D4C510F362FC61D7C0039B98FD6BA78117
:10320000E23B7CFF84BCE5BCF2DFD6E506DDDE6395
:103210002766F9989FCEF0C1F880D4B306236106E3
:103220002C02C916B3F3399B31043DB3C09FF8EBB0
:1032300081A040015E98E8800041E712D5AA821E75
:10324000F8F32CC557F27F4019DF96EA52A9B23441
:1032500077BFFEEC187B4C22FF58DA0386570E2509
:1032600030F8307AF0204D23AE19A78AED0935D910
:10327000E32318F9CCFDB60BF39877B338F8244B59
:10328000C5A2973111F130BF99986B56023BF6CC2D
:1032900003FC30ED10080991B3F8F58401C530C086
:1032A0003D7B036400B93008C046C2AF58F57F24A7
:1032B0008C04E68B59240BAB6637B5FEC0D6C7FA33
:1032C00073BBF9DB9801F4BC98FE3430F48B088CA6
:1032D000F3FE3323FAB1BC98DF8F30DE558012DB6A
:1032E000BA401040E33018F598309C19B7010266D7
:1032F000D96680647AE548FE6E3047C2E53D618C50
:103300001BB39866E7AB98FA9030A017B8981008EE
:103310000280BB26BB79803641904A30F3F38B386C
:1033200066D4BD59D63DB1B604F6A858FDC4B52A39
:10333000086A8A679F7AF71990AAA9767F6B48FF77
:103340002BC8CD983CED13F2BB49F35A9065AD3EC6
:1033500010D62D28FD176FC630DE3B0390F8B8203D
:103360008FB4BEEDEDDB4C24330E48299BF3046E85
:103370006F6EC7B70523A9F4609FEDDFDAFB800508
:103380003009FE06C884580093607FBD8251300228
:1033900016C13CA4204260AE52D80A08AF76FE8027
:1033A000026F2E308CFED6D8FAFF7D98F0001EC832
:1033B00003799866BB88BD980680C0D3CC8BFFB5D7
:1033C000CCF598402CC40BAE5F300ECB2CFE2FD624
:1033D0009882ADF3100278D84625E6E57866B7E422
:1033E000D58E51FE98B5865AB38CA5A65C8917F385
:1033F0009998E2662BDF765C0878B3B419C9C8489F
:10340000AF1104988E3BF6984240BE182233BCCFD1
:1034100066E3AF2B33C8D019106CE4D908FB6BD12D
:10342000042BC198B2391B50019DA60ACBEFC02BCB
:10343000D561FAE4A5233791841B6C7A9804E3F3F1
:103440002820CBF5988071D4B1A97DDF91E74B712D
:1034500030E6D999736DE79819F32B78482BB76448
:10346000C08B6789556648ABDC3011E28AFD845712
:10347000B1FE8C08180123612F4C9011772E234840
:10348000CDBB01DC3046C8612AEA6602FB327EC150
:10349000E9186DBE9604C8FDFF7BA5F12006D0FD9E
:1034A00098815C30D2F100F379FF31983CEFC8F09D
:1034B00040F5980FA1BDAE5CC8D3D998F97E986C41
:1034C000F3B508E27D367EE3DA7266E33DD6660C3C
:1034D0006FFB1630209966B31C09CA16B37F9C2374
:1034E0006DCB06406FBF77F4CC04097759BE84B327
:1034F000E45EE5770D3D480931FB8010855E8B3E2B
:10350000864890080258F3CE5BC8FDB91BC4B6B01C
:10351000C4FFC65368CBB6ACD37AFAC1C23F6C982D
:10352000E0FFBF2C9895BBF3C523962F3596C84F67
:1035300080985F9F7156FC30B5FEDC6688B2F0F370
:10354000C820BD448409669BB4F564BA961096F40D
:10355000608FF5ABF98091EB3002063CC820136018
:103560003E4C9009D72BBB8E30F198A06FF6327F7E
:103570002D3040565C18FB08DB41FE7B98C08377FA
:10358000AE9841F798401ED0C301187E5ABBADBD1E
:10359000528CB49E51300FFCAFADC2781BA770FEA9
:1035A00013F19895BF62CCE58E3384B830DFA8B1B3
:1035B00090D919196CB3D998086EB3037024F3B37A
:1035C00043217F591A093FCCBC4CF5D32D9B185091
:1035D00038F8181080AFD0B1F00A97FB3780A010F0
:1035E000B3BE901212FC96C875E72999FFFC303AD9
:1035F000FF5A10FD450DFCF1ECF880408F3CA532E0
:10360000264120B8302233F7F2C859B8FE9879EC39
:10361000AB0C58FF2BE9CBEDE5E350652B7998AE69
:1036200068BE41F68D095BC5440453BD5E3530EB81
:103630004C6E16C919BAAFD18450C2E4792C773CCC
:103640002342412848ED152081CE7132E2BFCCC023
:1036500069EBD52C55E090C79BBF19B8FB840132AC
:1036600002AF4603D203FD60802C90493035F30051
:103670001992C8F36DC830963320C6AA4A668CDF0B
:10368000A8A066D3F225FD26FF7D981EC4831800EE
:10369000F9C8163402CAC82FF35898089F19305E2B
:1036A000987E6ECD7825FBEAFB89FA9810D7CC98E6
:1036B0004FB664C0BE986A9605CBB90CD319F97B96
:1036C000316DEEA5402E849DB347E280D9C8EC0849
:1036D0002E04D3B37E5B30427D33B919A7FD32A8E7
:1036E000F92048DD26A782EC0A0C011E042F904029
:1036F00010C424820B00411C05E6987AB324E5B07F
:103700001A9BC830681B8C019B60F88037A689E340
:1037100042BC3FDCEBCF2166E53946B5671E60F35E
:10372000CDA0FE7D0CFE9825AB6DEA5004CA1EEBC1
:10373000982F76CE06ABF8034FED3218C0FC988E6A
:10374000F35F780FDE0BFE840403FD984025EE92B4
:10375000CCDC42402C0820770BEDA837893AA21028
:103760007F5C711C7F5E95F34758BE66C8FD8481FF
:10377000B00716C208879893FF6020488409B008F4
:1037800006CAC840F3E43048CBD3B0AF55B3019577
:103790009D2E104093ED9804981A877B9898FC7F93
:1037A000AB98F0D298039D02E330FDE2D00F781081
:1037B000AF076D9820057D1A0264A7B3F0E04802B8
:1037C000440DFC766DBB1EFD9880B2FCBD9808B61A
:1037D00088CBC8B4F21AE306551758AAB30CCFF633
:1037E00098C040EEBF6BC79837FE80DB113137B30E
:1037F000448039A686C088F3CB1364CF2765E3A342
:10380000A82CA52FC04493AAFCC0C9EDB36FC6CAAB
:1038100034FF65ED968FBBFFBCFF205D3F6F4C62B0
:10382000E3F339AC226345D3D0B118242CFF987050
:1038300066CE31D1C6D3ABFCC2E58106899FEABD15
:1038400004A9FC8C0BE49312E3325CD90E08805976
:10385000292866E896FE5E24440918F3A1B1BFD971
:10386000227CF37BF381F96091F5CCF77F9998DDA9
:103870002F79F5BF5B22F9E08B2DFF803923D8B17A
:10388000F853E20C9BFF18FF73C02D67026CF3B571
:103890000858490442B3D9F8FA6BF11129F30161D0
:1038A000296FBFF67690FF10ADD240564E2021B65C
:1038B000325B3128F86097D6B1FC9FA4802704AD15
:1038C000F4B06685C8017FC2A94668E41A46DBFAEF
:1038D000809F07B407DB6DF9D004D662C22A819BB2
:1038E000E14220FAD400ED407557F88B4BE0479841
:1038F0000940829905D990AB4BDD508CCE4FF03DFD
:10390000262681D1D022DE4928808BC873A614FADE
:103910000AFE582170102060FEDFB6DE814FB654DB
:10392000800837B3D1DD437194DAB6C61011BD2CCF
:10393000870C9D459DFB0AB2DA82F3FA3C26C7FC50
:103940002BC86D40C8FBCCC029F5AA04C4391C158E
:10395000DFCB793BA665BCFBF29FE2CE41C344FFBF
:10396000F87669B78FF6C420D0DEC49B2FB8FA73FF
:10397000E47E2FC448ED0851CC7F4C61FFEE5B38EC
:10398000FB31FAD3D70933F240367CFB59BD86664A
:10399000B0ED0E18FE8A98E0CEDBE7E9FD99D8CFAE
:1039A000801AC0FE36F6FDCD40A9C86C733B4009B5
:1039B0004C6BA6D8A0FCCF583202F92B8B36E7B05F
:1039C000FE77AC30805FECCE7D91B0B6FDF3C1CC1C
:1039D00014497F0163E651FDB1B1F9E5DE2089F6B6
:1039E000EA08CB0ADFD866C556C1102E13B1043FD2
:1039F000BBBD9571A0D6FE116DA78B91B58FBFF69B
:103A0000B878FE2BF60F1936FFD8FF29E6551EE5CC
:103A10007BE657E63319B665B8FD5F1E31AFA3A04C
:103A2000B3CDA2FE70C25DEC7C28F93EC9D39419D7
:103A3000BE6CC8FD27EBB41FEAF0CD7B40847EEB63
:103A4000B08089A950B1FE6FD83C805A5F5C93DA90
:103A500058FBACF640FF596E06DDAE0290CC332920
:103A6000DB7C40F81FEA67348D31BBFF6C3530FDDD
:103A7000FE58D901B758F0FE63FDFCBD89417704BB
:103A80007E784D52C48FFC31FBC34BD6108153510D
:103A9000D8F96E0AA301E04DB141DCA16AC106412B
:103AA00001DFFD9920081E79EEFC882CFD403002D4
:103AB000CCF422DF4887C52823E85F90B9D801B845
:103AC000832A2869D8F710EF11B38CDA1E7AF1F740
:103AD000022C010C327E06D4E0947228F5AF207DD2
:103AE000E5C010080281C7E0B62290228C08601061
:103AF00091E2F0993EDABC0441F458140C4290E98A
:103B0000E49421AC818180124BC62195E9B0DD1788
:103B100011881BAA1B3D7C7ABCF7A1C676EB8F11DE
:103B20005914109AAF46E8DFE56F9BFB2024C25979
:103B3000F4A3F69C8170D9379BC668C3E0EBE8FC20
:103B4000314F3014CB9B19CCFB13DD62028DF6A6EE
:103B500001C73C4BFCAF0F3DE48002682E1D861B65
:103B6000E3B1FE3FDEA110FB6173B388FAD1048498
:103B70006C79A52165215E405FCD42046312E65B4E
:103B800037C6187FF6FD38FBCB6C80084CD270D658
:103B90004A35B35D6A80D7BA1A6A9BF3AC6A046887
:103BA0002ACFD6E6C0FECFCB5275DE049221B101FA
:103BB000936C76C460FCCFE3F3D6CA8147D8D3F2C6
:103BC000B940DD82A8B2F891D608DB2EE00533F3C8
:103BD0008D358CEF5BBB9C58FF17D564029CF56359
:103BE000FA61D8B8FF49969E6E5870A25890EFC0FF
:103BF000CC865C32BB0193B0082080DE4004941375
:103C000001A01A04233CB28228E4089AD11D440181
:103C1000DF06D706129CF9F3812434DB02E8AD19E4
:103C2000103FB5306DC3BCFB808E01C5164F4021DF
:103C3000AB3D0C9BBE98FAD6F724BCB89360B3FAA0
:103C4000F26AA42C684FC83B6EB75671687E5DD48B
:103C50004BD571800B8B90A1FDCBA0BF10A415D7C5
:103C60002466FB201082180983F3C288B3429CB6F5
:103C7000293090A6CA6513083D2C33D30146EC18B1
:103C80000D25F320E67E7FF89F260A40C222189871
:103C9000026914BC820930EB87C444D0E6603080EE
:103CA0008484B3068B68BAE016C2EC348899E0A627
:103CB000218D8D068827D3F3048C01293528193CE2
:103CC000E18007F04C1EF8783F03E0413CEF8801AB
:103CD0003048F310F3161C71B42EE0907FD3C0036C
:103CE00018200FE80120C65A301CF3C68310FE438B
:103CF0006619022B53E8CF3999B604C0F3113DF38E
:103D00000C828130887DCF10D3E03E836040BF9528
:103D1000313766C4B7F3200801E6B8FFB36F064237
:103D200067B32882ED0844EFC4425876A6C0043039
:103D300077CE322630409FB35020236002AF8C985C
:103D4000CCC8C0D09812F3847D2F214108FEDC2B13
:103D5000AF10DF7F20925D68DBBEA10241A491DF3E
:103D6000F63024AEF8322034E1DCD73BCF4121F3EA
:103D70002FD132D703680E892177EA41ECE9FC1094
:103D8000CB7C36FEC06DE698FDE7B20C3DA9087805
:103D900093BDBDFD202F4134C6E64278FC88D6DCB9
:103DA0005106EAAFAD1B30BBCE0167F41DDF8A10B0
:103DB000D9AB90D047F328E9C1C6D1DF3106A0FEC8
:103DC000573044978D9FA5A69EEEC1208880CFEFE7
:103DD0001E80098143D5C04171CB0AB1F4FCBF48B4
:103DE0000F60448C90FA012005EBFA26C054208025
:103DF000360B60F4C501AFF29CDEE04140ECC60139
:103E000021EF9931C721E04DDB03600E90C602100F
:103E100037884020C023045926342089665EC57F38
:103E2000A5D2798D0CF33BF0BFFAD08BE42C0CD2E9
:103E3000B5F4353C03E020D21EC8D307E5C605EF34
:103E4000C678100FE0CD813C9AFDEA26C416D793C0
:103E5000AB19C0C6C987845867979398E018084182
:103E6000D31AF85EA613F30C88B764F9BFFCC798A1
:103E70002658046AB37939A7973E196FCEB38520C7
:103E800004E3B39B194410FC5E53F379122C489958
:103E90000AD5FBFBB080FE21BDD20D4C99822618BD
:103EA000883461F7FB09A201240210E4308947F845
:103EB00098E9D38D20CB42180C9A04A2F3C26D9AD4
:103EC00050FAB4FEBC48D5F80168C8629C304BB5C6
:103ED000018ECE2021F22CADEF4798FF5723C2125E
:103EE000F1E50F9CFC0802E12A1E2FAC9682467E6B
:103EF000D765AFB206F198D74E6008800702FBA4E1
:103F00004C9DF363E8F9DDC0DD26C0B88360922DD7
:103F1000F3B85157FFCCD2FE28D812B28EF7E6057F
:103F2000A4FA986089CF7E20203924C644E7C009CE
:103F300030A3F8840A017E9AC0441810434AB96934
:103F400007FCC4FF0418031364220C80EC05310243
:103F5000DD6B2E020883CBA7C513011022BCEE3106
:103F600012F85E90A3C0A12003C6C9FEE0B453BFFF
:103F7000D2C1D2DF0FC523C7E7A5F3E2F3B219140C
:103F8000D5F8E2BB418D0354D364D32F9A2FF39518
:103F90002FE695C8D731F5641DF0F691BC50773601
:103FA0003084017F34308801D2B8C1D3D4E08F6629
:103FB00002F3B94310DC50FAB3DE4604EDBB017FD7
:103FC000290884C01418CC0540E04C0E903009CD6F
:103FD000E7CA861130D020469315EAA548D3EFBF33
:103FE00038505E3ED7800C3B1600C8FD8F90F2988B
:103FF000FF0B40020877C02A5D7D4FEFA091840837
:1040000067FBE7B4884DF91A01E7CF704A22B0D8B0
:10401000C26DB3FBF2C8F1E2FB6DB2E3F3E34C3BDC
:104020008D7D7915085BB364E51D1EF3BDBDFB3CBA
:10403000C0AD80A5061640CBE03497CC7818A78E8B
:1040400057CAAB12F2C5A5E0FC30AF80AFCC5AB274
:1040500070364960FDA78DE5C81764DD7FEF2E231C
:104060000441209688EBD9C8B50A6BF88509C06B66
:1040700040825C30164CEF6B982201C48BC65F8087
:10408000842930DD02829AC822F74B9808435A8F60
:10409000FF8045001120C104580966E84CB9301270
:1040A000670A666DF26B7192636080F80110B1C8A7
:1040B00066732B2360AA025E892F19F5A512AF96AD
:1040C000C557F5ABB84098501810B6E4239AC8010C
:1040D000E6033220EC9BD5D3606F56988350C8E638
:1040E000B405E3304F32E572E84BF396BCB8CDEA45
:1040F000FECAB55CE040E0ED200C82FC988EF36FC8
:10410000C6B9FB34B313C03EC0B011F9A8E71362BF
:1041100001380832B3109FB301200426C8BB08C081
:10412000A57A8C800532FBA2F6D67F1B90913011C8
:10413000E8FD3815028080051AC2400B9744D5F17E
:10414000C27EA210074081A0BF01CC989F22FD88AB
:104150004AE010ACFFCA4420A83D69224011A730B4
:10416000438D2820346D90FF4D874DBAFCB884EF05
:1041700059DA620299EE9EDAB4102D4EB256DA93F5
:1041800098FDEA17FAF9E6D08178D7B2CAE2F05979
:104190009479C864E5C0FBD0D718908E982F813CE5
:1041A0005E167AA270E7D8833DF90488D9C808AEB4
:1041B000EC2F3CFAB931422610043A7EF28084108A
:1041C0000102D7F6D344FFCCFD300246C842107836
:1041D000A57249751D8422D4B137C0410C9C28AC0E
:1041E000F0FEAC338ED64FC5FE60142C77351140EF
:1041F000C8EC9812605E888105DF4561A9AB664016
:1042000080702BFFC12360808C8405328B12C0D656
:104210000218748E242C830398FE2BCA8730441E08
:10422000C477B7C5E48171307B988278E51003E0EC
:104230000989FA98F201E0A183D3F3353604EB6BD8
:10424000C044F33D3ED8FF80ECBF15D2D262C37D9F
:10425000F3302006C2E2F37A76652090AD19400271
:10426000BE6BC810E59FE4AF97A542FE6DE898319C
:104270001828FB4BAB91DDA51021023819821130B3
:104280003506C4303920BF630880B7FB2056B32100
:10429000B00626C1FCCCC804C029A3F39BF7F68462
:1042A000FD10082021E0FADC30D7261088A50AB2DC
:1042B0000DACBF6401775397F2A491B2043603D7D3
:1042C000C3FD99E046A577AE9841E04EB544F17F35
:1042D000D7C17C3DD60512641FB3E3FBC2020D7D3E
:1042E000DCFBE56FA275FDF3F3378F72CB7D209B6E
:1042F0005A77969797FC0C30EDC195165392D523BB
:10430000960C30DC105A49668A19ED4976F0268CF5
:1043100015DF625A3F7F9F8BA9CC3049DEFB08D462
:104320009C24FB2209A6E3C30AA4099D0174914EB3
:10433000881032CE011909C730108B0150B8484798
:104340008EC6E230F38BFF5E201693BA1740E0AEC4
:10435000C20730622BF0833DC7C033E711CE14FB98
:1043600088840981A03C66B60945395EA5BB10B1B9
:1043700017025CE4FA136012208447F6F97F2F30AD
:1043800010E230E73D010C90ED07F02033F5E02D11
:10439000E696BC12AD666A417898AF303BA53DA861
:1043A000013C8817BD9C8BD3FC813C2090FA04BF54
:1043B000662BC8ADFE3CB8EE5670045CBBF32D21F5
:1043C0008C66AF1798F2E4C8C0FA31769AFCE4C85C
:1043D000CAFCD9666DB384C0F6E3B71CC402587C2E
:1043E00046610480845D31409DADB085B02ED30818
:1043F000C8C80B2B9B8F6EE23026A69911A8BF323E
:10440000A4F6900680489A0648FC113514EAC86064
:10441000E48AA46D2481AFED7F620B5EDC790588B0
:1044200006EFAD1A01F498111DA080CAEB20FFBB66
:104430002404068512FC7ADB4113F2F5CD5779018D
:10444000D9789BE37F91D3A79B976396DA9126193E
:1044500009E143632D5045BD9817EE9C8BC5B30809
:104460003DE5684C260221ADB4B826E0F3E2F28EB9
:1044700095E030D46437960966BBA1C680913C9F15
:10448000C0045830AB0CAD9AF6B5C9CE2620053223
:10449000FB65C68A36048BF6EFEC7A64502021D097
:1044A000FA3242206087181386629FADB010460230
:1044B00024089FB9EE44800521B322727B9D4906F2
:1044C00010C0178AA1A52C6E48B0784D98201364AF
:1044D000578C2BC4483F7B1CA007B480778AA5BCAF
:1044E000E25DCAC8F7C5027810D80BE48F1D30CC46
:1044F00010F420BFE0C298BFCF98F65E0FE0043DF5
:10450000D035FE13DB92407AE5416E1F06F4980128
:1045100088F3B428CE23B366C1E03FCFF2F35E60E8
:10452000F3E965FA4FB3058480446AB3D61110AE3F
:10453000A222C8C8108C2584E19EB38D3024AFC45C
:10454000BBE02B9B21D5ED260887B3E6227020190E
:10455000AE193D019AE35C3025FCA802CD3F5F0215
:104560004401A0918424CD3BB32BA8952D4293D533
:10457000DC2808AEDD68809A446CBD8B351780FC62
:104580006DF458E02DA0B42A1BCC798D5915143F39
:1045900077BC04E1BCCACFE617F0F8863626206D5A
:1045A000E09046B9FA32ECDDC878929B39CFF9CB6E
:1045B000DF4CD318C01B70FC98D7D53F19F92A815E
:1045C000C7D7B8FDF99B050610E069E598CB03262F
:1045D000DC3004080CECE13012DCFA7B8809300294
:1045E000FEA15008B3D588348004204B5523939BFB
:1045F00009EDC2AEF9473D06072498F9106360043F
:1046000080BD9AB1C7C0EF17436001988CE631D6E0
:10461000026E4AC87EC89A8B933061F8848E301D32
:1046200046EA65601E83E609F0FDB2F5BCA5D789B0
:1046300030F3887F8FB856100FE45C30B4055ABB56
:1046400090ABABE828C8E090D318F70F600AD3EC22
:10465000E323C4C6D34BFCF85DD780B7AC80C8B4A5
:1046600008ECF2C8400C88E6DB56AF58AAB38CE1E0
:104670001D667F243D40D355EB98015F575E82A9AC
:104680008B21B3B000E5534298ED3953840930F3E0
:1046900077806B3F894C8028300AB50435217AB386
:1046A00084893021CEC89802B5DC4CD08411D3CD9A
:1046B000EC500C647A9885701660FC18D1FF97A6B0
:1046C000AF3EFFDDF8FBE578F752E68801CE33F325
:1046D00096AC2236D3C0B8F96090FFEC98FF2468FE
:1046E00093CE31D1C639FAF923048666D8FBEEB3EE
:1046F000DCFE8EBA9CCA336696E002FAE72C669618
:10470000E668F8E0CB2C80512F2344B113358400A8
:10471000E0F3D3C00AB25DC6B1FA20823FD7CCDB4A
:104720007F19CEFCAF5E15661BF1FDFF8B36485836
:10473000FB79ED1893C9FF9DB63657B62B88FFA6B7
:10474000F35A6510588545E60B7347F8FA36CB04E3
:104750002A817AD303DF4CB6F522219C64DB50F921
:104760007F180C04BC89ED6BA511656D4D8C17206D
:104770000D23D90893D09A6D0C1B38A0FF12EB289B
:1047800051724C622B33202DEF8065F6B1FCFDB7E2
:10479000C0F1BCFE5F1976D8AFE7E68180DB10E19F
:1047A000B7FB96443AA0003B0450FA6F8A1551D6E5
:1047B000B0B1F28BFA4A058FDB22B2876B86021208
:1047C00039D98020B61C38108FE0CA2D3D0D090163
:1047D0006A8E681F140280CA8482A6DEB62810CFB3
:1047E000F19AB3337784B2830303200A403E04B0C6
:1047F00004362C3450390AF33FE90D30D8FD80E4FB
:1048000052100EC843DA038D4084FE810260082CEA
:104810008011935A65E10A464576A616738D0CED14
:10482000FE8765201A888241EE85FD100E8671EBA9
:104830008101F020227CFB8A400817EC6EA3FDE486
:1048400070C02F59FD10EA66013F22B2C110B9D7DE
:10485000E5821EBE5E7BE49740B0F60F02FEB89480
:10486000A3C4F8CD5F66E733A58A4019FF2571A67A
:1048700029CA22F8CCB3FD3AB9D49BB21EC57AA797
:104880006DC70556D922CB3A9066E430F9C63B870E
:104890002062BF2DB7805984089D32DA28F818901D
:1048A00090CBB3114F9C3DCCBE206519CD0BD9F8F0
:1048B00018D5214089FDCB8B76148096CFFBC7C3DA
:1048C0009A8CEDC6E6D96927BFDEB3E0A508FE03E2
:1048D000A7D6D2E8E420D39BFC28F93885C96C8E92
:1048E0002080DFB3BD760BD745F0E7B235FAF3BFD2
:1048F0007EBC75F3C48D1ECCBFA59F40A8F3148366
:10490000CE840457F802F3EA39634063DB97625BB5
:10491000C3B778F3982C64C5B73D8062DB9B7BEF0F
:10492000ECFA467A9E7CB3084BCFF6EE18ABF54115
:104930002736D60421B604CD24B8FF8EEE1840CF1A
:10494000E23631F55EECE060F9D555106CE7748025
:1049500046F37A1408CC3328DB0A28FA38A158CE5B
:104960006EFFD910FFFFB162CBA2041F6CB3D0FE63
:1049700061E4802CC0EF8CC8C6F2638066B7F1A5F5
:104980007B677D568980F065FD85BBF34010DB08B1
:10499000FA6968B1816DDB8A716DE6CF2BED7F100E
:1049A00002CDE6C8FB9A8963FED7633D94DBD8F954
:1049B00099A3CB77110BFF3288B3FC0F6952AF215B
:1049C000FC818CA34F6EE425E0D08094182FF3FE79
:1049D0000A4CFACDFDE2C095E6689D97B5045BB63A
:1049E00006FDEFEBD2087F36CF6DF230FC3ADEC524
:1049F0003B3F016FF6DD12768BFC0311E59C0485CD
:104A00005DF5B7206F2C78F9323CFE0BC696B606E2
:104A10002AEABB2039FE50FA1ABC08B575132210D9
:104A2000D11D1CB90024FD6FD6B16FD77DE3B50849
:104A3000A3EDF3010147C89CEC30A3C819FD580849
:104A400047E48020BC025AF2F7D2C332BEF94C04CC
:104A50007AA780DF760310E393B08CC8FD2066DC74
:104A60000270145F90001320020C6BE5B060268585
:104A70005023A007287AC6185AFA805ABD08B302F4
:104A80008740484CBB834184C06FFE54D254197E8A
:104A9000F5D019E7705808EA0418E40282A8EA4F32
:104AA0002028220EFC80105C0247881A6551C32220
:104AB000BD1AC32011034F10D72106A026E0B4A1D0
:104AC00070151823BF110C80502148C90401E7104C
:104AD000EB43205287309810807A1F096DFD420DFC
:104AE000010C0DFD320179728178FA0A0808395AF1
:104AF00061FF3E50F96AD5DA08847DE9264E20111F
:104B000010453D6ABB6EAA0497E7542FC021F8D424
:104B1000E5F01A07E49FD3E982D9C8FDB1107F58A8
:104B2000C004B76C02804B936601B25CB5FA36F5EF
:104B3000223E6E0E60D8D8C2B2FF23194E89F7C646
:104B400001621B5209A8A00686F37F59716DCEA899
:104B5000F8984EB320797180676DEA9FF6EAE37B9F
:104B6000DC18B1FC3EB1C7B31A7363395738AFFDD7
:104B7000B2D09A4E088023F08014FB82FABBDF6B20
:104B800024ADB4D745301BAB19195D10B1204330AB
:104B900074192036C7BC9B7BEED798C8CB2E08F380
:104BA000E10146C527E7DEA8B3FAA159BF86867E94
:104BB000D1E076886A4F11CFFE9E90FBDF96ED0222
:104BC000FB53669B599BE7AC2528514998B1F89552
:104BD0002C048D250C405B2D990357F20CAC4AFB3D
:104BE00063209859C0D97A6E65AC02964C036796DB
:104BF000BEF8E3FA803062B6F8EB7424334AF3422D
:104C000057CE2158638A6734E5FB1293FAD044E506
:104C10005E68296A4802F8B280FE86DFCCE85B56FF
:104C200068302454B460FE25E0F935011A72FE950F
:104C3000036EEA09255FF358DF8E62DE93A3181630
:104C400025840372D94196C8F8FB2E73C2A011BB0C
:104C500004F0D5829EDBC180B062BF49657BB59808
:104C6000205BFB7B72C8FE914080BD16C00458C912
:104C7000C20CADD1B1108733A25042B409D8010A99
:104C80008019A3DD4927EB5B72E003B6FEFFFAA0B3
:104C9000FF20010C9007EEF4401E4CE60F0C3CC0C8
:104CA000FAF0950E95F4B0F3620B6B3C968B1EFFF9
:104CB000664CD31E449D82EB60801097664072065E
:104CC000C0F0FF51D280F3289308665196F38AFE14
:104CD0007F18CAF3B596F3209ADD9DF9AEB04090E7
:104CE000B3B951B302AC98A79BF885B010620BB36F
:104CF00004F402C9F4269864192EACEC4AF9BFE119
:104D0000F67F92BE985F85AF12BFFFD698883FCCE2
:104D1000178014031B497E677850FC84FA6BC1B777
:104D200003629B736FD7D2ACFF06FEDB8E011CA91A
:104D300013DAFC6069B4E92F03EC5F6369E69867F6
:104D400058BEB72E600640348369EE98F8FB849312
:104D5000F20648987FF0BC8005AB90CE98CBEEF47D
:104D60009BC596FF21CDF7461004D3DE602090FC52
:104D700003FE440130107111BC3EFF8C020430214F
:104D800077E91840F8983B0916D5FB58B1567BF8DF
:104D90002218CB0503AFDF3211F820013CDD80077C
:104DA000E7C5FA988172F301F0DDD3CC985C67DF38
:104DB000E6C5C6F24CC68578C96060292DBFFFC024
:104DC0009836F5E541DE8BDF2018E098EC815CB287
:104DD000DC66516D3A1FB6EE9851FF80BDE4169B1C
:104DE000014604DEB305B81086BD8B0914B14FAD82
:104DF00037F1CF514201048D4003A56086057E7FC7
:104E0000FD88B49FF375FD98920218D7C598FC8A67
:104E10002CB2108D9AF18C02F3986557A0FE986E13
:104E20009167987F56FFDD90FFE798AF2D03F198CB
:104E3000FE46F39E9876D866A6ED01064B81E3F315
:104E400036F29875FFB0FC80975BB7170901FB98A5
:104E50008A10DFC114E498FD627C305D44B69AED9F
:104E60005781920C5F01AFFCF3320646047620AF07
:104E70008B907FA77141C0EB22AFF8E1309F626D4C
:104E8000B22058B7BEE60820C424408D2F1B5648D8
:104E9000FC6F5398C0190FE2E0811C803FCBD5CB4B
:104EA00098CC8B4CB4BC78D7ED663C6B6DD518565E
:104EB00019FDFE98DD0302EC98201015E6E5DC30C4
:104EC000B120351980B691FCC67130794EAF6BE7D1
:104ED000F8C298BDB30B7EC1E3F78116C2287A9859
:104EE00002E0B3CC4CB3DFFCDAB020860A042F79A1
:104EF0003F98D535FACE11821602B402D3833057CB
:104F00000124304A8655C63031DBFE057F4098D2F9
:104F10004BC64846B374FEBF0008B2067C6E8FE8ED
:104F2000E21330A58BD6A4C0577700FB6078D55428
:104F3000BA647330401E05FC30B181FEDF1720FBE0
:104F4000F8835E755478FB80FD1F02117DCCA7327B
:104F50003030C193BA42F3661FEDFF301691E3F68D
:104F600008DE14F1AE4357CA90178D66510BBC2C66
:104F70002F30A008F210C42494E8EE583045B1BB9D
:104F8000BEAB620ACCBC8F6B9871FB3EC8A00330ED
:104F900040BC98D32EC8D71F12D0034B19E0176D11
:104FA000661E08FD9812766DC83815F128D5FEFAF0
:104FB000FCC1D1421B7E6BC80852081493EF58986D
:104FC00041F73630301099DB6BEAE5D9CFC828229B
:104FD00003EBC01018E978B349F1300286C0798933
:104FE00004030936B3112CB4B680F0980B8B03760A
:104FF0004920A7F17B98C224C19222BF41CB98E3FC
:105000005FFA02044248FB73961B0239E59899C87F
:1050100011DCEB03126934F588C5BFF97683805F34
:105020002D924088FB52C754FF04C76ED9F350F944
:105030006001F104C5C18019A7AE98085EE516A409
:1050400036B1083DE398F6C24A6C02D3159D843808
:10505000F984316722C05FD5B1F4D9AB5B4C30A97C
:1050600009764C285698FBBAA922BFEF602ED77953
:1050700063F8F9440172FD26C44058206367C88074
:1050800045C7B010FAC0189400A076F38409302AFE
:1050900019DB180333F616C46C8423B33D3558AFBF
:1050A000FA76988007F0BC30BB62D7C5F47B9818BD
:1050B000201571308B79989199C81063352979CB77
:1050C0007A80951940F8DC066B25D5B3FE9801FE71
:1050D00098DE8360F3610650C86CDA18627784F05A
:1050E000FD096B2742440DABB3813077BFC58810F3
:1050F0000B60082CB18453B32B9AB022C0E0E46B50
:10510000E17F2CEBE5C8FFD2980AEE7BB261230168
:10511000F2C81AE530427C2C777EAC21C516B31A52
:10512000E25ED3BD74108609FF6D982CFBFC9EFFD8
:10513000B3AB3C93C73A17CF6BFF70FC973008EACC
:10514000020239B024BEF5E3FE801634589E0DE904
:10515000B3283FC00BDD84FF4761E9020F66E5A07D
:10516000113038E5D008EBCE50FBAC1D3F66268EE3
:1051700085446FFB14F7983BFB40FF011021460468
:10518000825820AFA3E57F0180BA215A955143E2AE
:10519000DBDD639F3299B0DDC2A6D00213F09B70B5
:1051A00085D94F6C9830009E5F30F2E598C230E6AA
:1051B000C77BB13CDDA001EB9883B87AEFAECC821F
:1051C000FE8FF0F3E52B8530E3723030C7B649D55A
:1051D000A96176579BE1D1FE1934C1C0A210B3DAA0
:1051E000E32FC07398248802B3084BE0341DEB63AF
:1051F0008BD38B70EF53F598B87998DFB659C88A7E
:105200000AFE7530824010E29867FED89102D7AB53
:105210009820DBA3261027DB9870FF6FB6B1577B71
:105220002058DEF70B30397EBDB1C9606BA515E79C
:1052300098F13DE57AE99809AA6DE598E6E0361B14
:105240009560E0F992403047A3B284A8FB61FE2F3D
:105250003D5DED01E99804E9B5D1F298F3DC1EDA81
:1052600098C9DB7C9B44D312FDBBAAFEFA400130F7
:105270002246041798101231B32CB030B02502E04A
:1052800065C83BD78009B016F24B3B95E712D32691
:10529000C14A150B3DD387FC366F3C9E98017A9826
:1052A000E2EF6E98F040F198635C30B110AE5C3084
:1052B000E0C669E29868BE4E772CFA44F13D2009B9
:1052C00083B5E53DC4B78B98F31BEBB1F8038FF3BF
:1052D000F957F359C884FF45255E98EE5C08134FD3
:1052E000B345E015C020D748049898CBB358046E56
:1052F000B39CC1700810BF1CD89868FC3031976B04
:1053000024022DD533C8C2C0201135F310C2309A03
:10531000C4F830DF3BB2A001B803B3C810B409CD64
:10532000C8C81766E34640B24CD57F8530E5A9660C
:1053300019FB598FDF28FAE498AE7E50C8A7EBD747
:10534000014037C81118CCA76D17207A6EEF8A4D2F
:105350001B8D6C73C8887F8C98E82825C46AABCDF8
:10536000910496C011AE9EAF19806B820828F35C41
:10537000197E81244147B6ABD368CE98FF32249082
:10538000209F93F24C8051B0CF1012A69400902B26
:10539000A3C39837EB632B7AD8C082F3984EEB18EF
:1053A00012103AC80423F210092F984F193C9007A5
:1053B000F1D9000E19C8AE340630EE7B30810C10E6
:1053C000045566029266B5F0F398F2F2FF579878AA
:1053D0009D98DBB1F95F6E981008E330F83DB83066
:1053E0005A6E789856ABB35029B3C046A3672F3096
:1053F00021E130E282F9F4B348BD2EB3119F302091
:10540000C2220804B5A1E030EDBE1DCA371977F6F7
:10541000B0108664C82B604E6D30E8FF7881C57E81
:1054200048CA31B3F6FF9CF98FCFDDF940DF3C6607
:1054300018F39AA280DCE0CE1BF3F4FB11E3A80D75
:105440009DFFD8FF288D18935866DEA3FCDE629F6F
:10545000E962B9C9B3800FE0DB6C4FD92BFDF9A627
:10546000019BE65879661EFF73668ED36E68FE2038
:105470000E3F93CCC6C3443CB1CFEAA23DE0A402A8
:105480006AF3EC69FE20123FCC98B7FF3DD70704C2
:10549000465A6FD8E2F9FFE758AE27FF36903C54E2
:1054A000B1CA3078B1FFB0B5FB587D0847E61B3371
:1054B000D2F0868C195C49C7CC1BFF6FFF88FF3385
:1054C000EC912C04D855F6D2FF8AB5FDF883CDD1E6
:1054D00071025B368B04202D9636790FEF3938FD3B
:1054E000204064B79808407517A9DA888B62D465A4
:1054F0003C4092A67E976CB49790FDF2765E7374F2
:1055000040BDDAAC6610516A0128DF93254899F452
:10551000EDEA2BE958EEFC40ABC085D2A2B618717B
:10552000E80C8096536BDE0A0981508436F9056ACF
:10553000B460926802E02E5006F541A0CCFB8612C2
:1055400008231D0308802066F97441040A6DC548CC
:10555000804E64012010D37F5E0908A08015C60428
:1055600044629F8A79B61EA91DB5121E4C5250FC8A
:1055700010EEA3F2B22F65A3DD864EFF20F980CA9C
:10558000EB07FED0CA31EFDF14A15D756FDDD29D50
:10559000FE9FE285E0C73CA4C6391E48A3FFAB0EC0
:1055A0003657FF37FE6F72F8F9322F576110F1C688
:1055B00084BDB06EDD7BACE0F9627EB2B820E2DC87
:1055C0004FC26DDC30E81930C811A8246FF508808F
:1055D000AF51F48A9AB167F15E9DADF1E8FBE62523
:1055E000E6551DB6FFA8FC6A4B10C39C96C8192D42
:1055F000C40252639E986EF36E72B9E0B34066982F
:10560000D55BC639EDFFC0FF96B4789C48104C348A
:10561000EEAF64FEC3057D408B6B4208FA61D7D0C4
:10562000413E548E47A1ACFCD83733B3C959B3FFC0
:1056300001BE59207DFC6193A788FD64189D7EFF03
:10564000D889FABA7708C2F01516FB179980FD5F62
:10565000B6C059F47846B31E80A8B7D833B3BADEC3
:10566000C316A718FDF5C48097F6361B366448FEAE
:10567000A6067ED8C26A66B3808BB86C9B2659603A
:10568000014D7BF0FA88F56E86DE46DB98FE2CC372
:10569000809CD8D4106BEE3EFF02405EC1B364ED37
:1056A0004B667442C22FD1862088923ADE90FFF872
:1056B0002FED5EB504B66A1402228CD3636896435C
:1056C0008FE0CB2E662664F964FA01C763ED904142
:1056D000ABAF0218EBAB841319FE2862FAF1BC02DF
:1056E000B366DB0CF9300D0A29F411D5013CBAFC84
:1056F000A0601A223C29BA048104DF9EC0F8282148
:1057000022814ED910E4B273A004D8F606EE5E886A
:1057100004803640A0D358FCFD40EDFCEFF5AF040B
:10572000E83F016F3014B79424F9C746F9E2408589
:10573000DDBD4436E60823F2D1D1818EB30D51B2DE
:10574000C8580B23B6FFECFB61A2A95B8DE51E8B4D
:10575000F3FAF8F9424C27D9BCA0DB03801B32983E
:10576000CF51BDC830F89A79B808F6C35EEC0E3058
:10577000FF60E4C2FEEC1688FEE3E63C38C7141175
:1057800040FEB501FD008CA2B3046DF11452DF2878
:10579000FDC36D6C4F60FC3ECB86375BFC088038E8
:1057A000DABD0010618EB6F988F8DBEE6A088E204B
:1057B000C7F4F3C5B61DBA17CDDDA120923361271A
:1057C0006D6302FE500DFB89FA7680F3B31A3372D3
:1057D000F4601BFECCFD8858B97208F74180243074
:1057E00004E7845298A50D2088EAC4D3C742980CD8
:1057F0009C80E4883432CAF6660C0D60FB346CA0E1
:10580000FD935031850C2C6545193068AD6EF3B2AF
:10581000C05BE6D8F86DE27BC00326B18008E5EAFC
:1058200018B7EC7E105BB46802649E60D60806C0B0
:105830005BD3B4E568FA9968DDE850602214F48C13
:105840005816DC44628F6608218060D7840CD654D9
:10585000C28E73B30A0CB9022EFC44E0F79F84FD9C
:105860001362144CE90481B04602B958CE2C2CA620
:1058700047887CE0B4790493F0E38C81214C660284
:105880000C1801EE28120CCDDCC07F7F3C086803A9
:1058900083780F9360F390F0E4401E04430E0F688A
:1058A000805983EBB33C9E1906D003587FD3E001A7
:1058B0003C8006F001C0D3EB03E59CBAC6669F8D21
:1058C000EB836040549231A926E3CE608CE3441A06
:1058D000BED9F7180360105F302E1C4BD304D3DD04
:1058E000E620F0F9A7E9F9821920CB020C55C45C37
:1058F00096F5E0248C84E6D229E89B44138BC04CB7
:10590000EE81018057F498BA16104C04FED298FD2F
:10591000D7F2F942C831D6E2A45104258802EEBB81
:10592000A001810337C42FCD6B42BF3449432ABD48
:105930000438D340D0311A0597683C66FD7CE56693
:10594000109BD771918252B81AB5C659F806CD5A34
:1059500002C2FC846BDB17FB73899C8E800109DA21
:10596000FA218CF3A60D067166BF764378408AA2B1
:10597000C040EB037F7AEF1070FF354672D0604075
:1059800001EDB27C8857AD038CF35B775805A7A86F
:1059900050FDA6C07FCD359D847FBFCBF921EB3D67
:1059A000930943A1A011F9301210C042D67B4A914D
:1059B000B0622BB3109EE604236014E28007915876
:1059C0003FB302222080311B0839A3FFBC5FAFF236
:1059D0007398E8013D70F47FCAE5DDF3B810FD323D
:1059E0002CA32303193EFAE0800C88163040BD8BAF
:1059F0001842C6D36D9CFDC58E19C506EBE5C4FEE5
:105A0000DCD0F3C57A17BC98845EE0080248194AD6
:105A10001F2476D31079FABCFC9748FD7A788573F9
:105A2000D346C0D40176B694848124B370D3976FE3
:105A3000B37286B2F03C3310A94CE3901102E9A88E
:105A4000FDB480C40610849A22FCFDA063F3443C9C
:105A5000E2834062D7E9412C3012F6B32442FE487B
:105A6000CC10B49FA401348046AF103F989C0388AB
:105A7000841047ED967504C04A11532EF3023B394A
:105A8000CB45EC02DDD9330A5C1E29D37702656968
:105A900015E9B301E7DA18C426E008E0F2E3B7F647
:105AA000E3DCBB59F16AA81814EF16B3771030F68F
:105AB00099EBD38198E8A8F808BD8BC2AB9EB517C7
:105AC00084F31438149380E0D7282CF54BC8E67182
:105AD0008BD183052FD78C02B998582003F4E60C9C
