:100000000C944A4A0C94694A0C94694A0C94694AC3
:100010000C94694A0C94704E0C94D44E0C94384F46
:100020000C944B4F0C94694A0C94A24D0C94694A61
:100030000C94694A0C94694A0C94694A0C94694A74
:100040000C94694A0C94694A0C94694A0C94694A64
:100050000C94694A0C94694A0C94694A0C94694A54
:100060000C94694A0C94694A0C94694A0C94694A44
:100070000C94694A0C94694A0C94694A0C94694A34
:100080000C94694A0C94694A0C94694A7F7F7F7F7B
:100090007F7F7F7F7F7F7F7F7F7F7F7F7F7F7F7F70
:1000A0007F7F7F7F7F7F070007047F7F7F7F7F7F4A
:1000B000077F7F7F7F7F057F047F7F7F7F7F7F7FBD
:1000C0000F7F0E7F067F0D7F0C7F7F7F7F7F1F7FDF
:1000D000177F167F157F1C7F147F7F7F7F7F007FB8
:1000E000277F1E7F257F1D7F247F7F7F7F7F187F57
:1000F000207F217F267F227F237F7F7F7F7F7F7FDF
:10010000107F197F1A7F1B7F137F7F7F7F7F0818E7
:10011000117F127F0A7F037F0B7F7F7F7F7F081015
:10012000081F097F080F027F08197F7F7F7F7F7F6D
:1001300008027F7F081308117F7F7F7F070C087FED
:10014000017F080B7F7F08077F7F7F7F7F7F080706
:100150007F7F7F7F7F7F7F7F07037F7F7F7F047F1E
:100160007F7F1C7F1B7F7F7F7F7F7F7F037F0810C8
:100170000C7F247F237F137F7A7F7F7F7F7F08110F
:10018000147F081908200B7F7F7F7F7F7F7F7F7F11
:100190007F7F7F7F7F7F7F7F7F7F7F7F7F7F7F7F6F
:1001A0007F7F7F7F7F7F7F7F7F7F7F7F7F7F7F7F5F
:1001B0007F7F7F7F7F7F7F7F7F7F7F7F7F7F7F7F4F
:1001C0007F7F7F7F7F7F7F7F7F7F7F7F7F7F7F7F3F
:1001D0007F7F7F7F7F7F7F7F7F7F7F7F7F7F7F7F2F
:1001E0007F7F7F7F7F7F7F7F7F7F7F7F7F7F7F7F1F
:1001F0007F7F7F7F7F7F7F7F7F7F7F7F7F7F7F7F0F
:100200007F7F7F7F7F7F7F7F7F7F7F7F7F7F7F7FFE
:100210007F7F7F7F7F7F7F7F7F7F7F7F7F7F7F7FEE
:1002200008277F7F7F7F7F7F7F7F7F7F7F7F7F7FAD
:100230007F7F7F7F7F7F7F7F7F7F7F7F7F7F7F7FCE
:10024000017F7F7F7F7F7F7F7F7F7F7F7F7F7F7F3C
:100250007F7F7F7F7F7F7F7F7F7F7F7F7F7F08158F
:100260007F7F072408057F7F7F7F7F7F080D070B37
:1002700007237F7F0713071B7A7F7F7F7F7F7F7F27
:10028000071C7F7F7F7F07147F7F7F7FFF1F627F39
:10029000C23C006088FFFFC0089001324006C8C61B
:1002A0000019FF03050A4414812241CF068CF32074
:1002B0000365FBA00C94290034FF7FED81325006CA
:1002C000CC54F71928036627E033C688009E98D3DC
:1002D00064800C7FB9E8F80014C00287580BF860FE
:1002E000012C800460430ACD0270F34032F305A074
:1002F000E6180CE4B312CCE050DBC008286D17E020
:100300005026D334D3B00416E1B998FC30486CFFC2
:1003100098FF5DE5200204C4006640808110023031
:1003200066086F0159E0104DE4E8FEA0CA964DDD65
:10033000C1D1D3FC02407AD004C4C69DB012D1E032
:10034000249A04DF4008EBD1A348C1F80630989006
:10035000127D04D4B45CEB91338B02C70819BABB8D
:1003600040D8F769B980D04824DC966C4001468CAF
:10037000EC09280F24C080F9FDF8A00130A242ED5D
:10038000EC281413AD5F504437C503B67B34086BBB
:1003900068A0307BF988409893FB0D0E5A3E01FC13
:1003A0001A02D307D8FC802DB3856BEDE4BD19028A
:1003B00003F5F0309FF7CE88C42BF402D3796C920A
:1003C000C6299CB30C1603F1DCB8CA0C02D80E2E59
:1003D000D0B303175DB31EFBE90E96F007ABE70F32
:1003E000948698B337ED24B2EF6004C1D95B837B68
:1003F0005C3008672DB305562982A019590F66B0E5
:100400000870FDCD80091312E4DDB79410C0474B8E
:10041000BDA09DD68510229CB3BD09F9142D875629
:1004200026054B190180FBFDE0813CA046ED5810EC
:1004300099933C08B0375FC03B19E0013C39196023
:10044000B441EEF8C002F3197137F34EB01040FF1B
:10045000EF357914D6F0066A4347D2796D8A28FFC2
:1004600014E0C400666EB8FA6F2B44015FB311F557
:100470003FE7BF9216B320CE68B240109BE0E20C7B
:10048000FF9F32C62208FEA036C5A28EEF684085C7
:10049000F6E1D0828FCBFE7F140ACEF0980F5D89F3
:1004A00080EB3D0D8043167FDD8D81B03CB6FDF5C0
:1004B0002410E78D2EBDC0F1986A65F186AAF80672
:1004C000F3C643473BE716BEE0F929A2D60126D979
:1004D000FB7003FC98D0B388A49AF3AE25C7846957
:1004E000E8F4163603AD2005C0928FF640FA0801F5
:1004F000CECC081048BE61D15B23A20CEA334696ED
:10050000FF098DD6400B1FFADD838042BBE40AB39E
:1005100099FAFBB1BA34E858BA09327F30119F9C7E
:10052000F5216022C64D4167ADB3307F321041DC0A
:100530001C6696805DCF4A40F1FA60023CEECEDB4D
:100540001EFD784095883CFAB620F5987ADE98D959
:100550002C08DE98B501F59803AF76410470FFA42E
:100560003DC6A8F8041792E8CF18293D04B085AF1E
:100570005B2E1D31FD6F37986CF60540964B99F94F
:10058000044823270144B32168B377EDF98B16B3F0
:100590000A72B950D7F470A3E14549B68BFE753A9B
:1005A0002F28FA77598212D4B4DD2205B20DA33078
:1005B000080222576C3411E5B308AEED4423BB1793
:1005C000D16EE532C4D066EF580DC09E8BFD13107E
:1005D00035E9E32F7F3205D2C6FC0BB930217B729F
:1005E000100C6E854C1102E00B3953DB376B434521
:1005F00029DF9FEF98381068F9AD2408DE03D8D6BC
:100600000148C5F3ABCB48203DF41084089C516CE5
:1006100013B620F39821B3343E72FA840131B93015
:100620000270BE1B087FC13203F14180211059FBCB
:1006300096B489FC3240B5B3F198826EE39D4119BE
:10064000E001733030207058477998C573E9985AA3
:10065000B0F660403C206AB3E0DFD69801BE985CFB
:10066000036FE0982FFFF1B2496BF68DE566D594E4
:10067000BB872014D4FC14B7E0FBCC7242D599F8A8
:1006800017B3103070D90D842EB340110C0681A021
:10069000C5B462161302DBC598F7BF377D50FFFB68
:1006A00098C22477303010459FE898883E408B08E8
:1006B00001B33084158B7A9843DBDB9851225E4E70
:1006C000164176DCFBFF3598DB498D185B662040D0
:1006D0008CD563CD98CC54974C90F96077AE98F157
:1006E000237DF65DADE12F156B81C0804C1557C0A1
:1006F0009836D562C0A143729D3C0678FEE7F72488
:10070000D00473B31288B81064FD9F4DAA2C221038
:10071000A0018B7998376F2C10F130A8900F11340D
:10072000201385FC45FB300912010496D6449C3009
:10073000A0C0F95E241480286CEE09D1B3CD647892
:10074000984B08F9CA04B601751041D1FBE0983402
:1007500005F0E3225A34E630F08070B002183C0F06
:1007600060401C367F879866FA98F0DCE676C618FB
:10077000FDFC4A6FEB98C0BF9802223BA30F1FF409
:10078000984076A4E607DA61F97998C2C944C87935
:10079000B30A40028C57D83242AFAB9840D6984C3F
:1007A0009E986DF35CB908DDE8F9E198DAEA18255E
:1007B0002BBD98504EA8032A8056E1D9D3D9C82D15
:1007C000B3F2C8E3F58DDB90E6343628FFBE9865BA
:1007D0002E2D20F398FCF7C545198892ED6429E683
:1007E0004819081603FE6B857040B6710885BC91E8
:1007F000E8AB608C5D50B3B2C86FFB0EF9328B6D05
:10080000E2981934FE5A90E2302E0388B18EE1024C
:100810005BEFD35521C8340262DFCC9B03D82D8B0C
:10082000F6ED5858E605301BEAFFB3C812E901227D
:1008300018D90C77AF98024F0E20B3808191020631
:10084000C53A64FCDAC82074FEB686D7FD10E8F914
:1008500059C873AA1E106BEB9808FF2F03971A63F1
:1008600079C59D9BC880233BC80F022FD898810C67
:100870001DD8FD04EDC32018DF7C64E5C821588431
:1008800096772DE7989E1D6664B0E259FB2B44D005
:1008900098C1A81889DB2BC8BEDE2212400CBC7E92
:1008A000CFFECC0501D1138B7759177AFCF5903028
:1008B0000920EF9801824218773930281105DA9C17
:1008C00034D250442E40132A7BB8A101943966A03B
:1008D00068473B1313016CDBC8207AB1312E14F842
:1008E000DFC598BEF91B01A13DAF18C481198CF377
:1008F00030F0FF8240BD98A1BF20C198BCB3FF2655
:1009000098B0E041C5FC98B6065F19F2CCC1D8E6B4
:100910004409371908E6C8028691FC04F2967AB2B7
:1009200013041101EB0710FDCC02BA678CF43E8072
:1009300066DC63FF8208BBFD2005B000F512812252
:1009400098E0C7DDBBE641FF590912047B94109083
:10095000203CB3C9CDC80195C3307B86EB40A1FED6
:100960003FE2880570001E30F058EB0769C0168022
:100970005E98C518108F402C67FA9841CECDC8B04C
:1009800093CD3040FBA79DF2E4E5296FB516A7642F
:1009900065C88869AF8BF13030B999FBAB90CB98C3
:1009A000A9B1BC414AB3A8DA204CF923DC8C0D89EB
:1009B000A09C19ED401002F3C88C1597AFFC81B4D0
:1009C00020F8E6FCA00129C29B7D1143DBE934122B
:1009D000FD98114263E6C438305BEAF1307D7F2D2B
:1009E0008851B930088105582B666EDD3CEF46DF33
:1009F000B1B102EC204C1FCAF398CC66AF5774908B
:100A000022303DFC03212006C03D7040A1B3FBB95C
:100A10003B540CE211F098EDB830BE7FFF32981FC6
:100A2000E43820F0FA84D609346BC8087B56680293
:100A300097D120B0B2220C604C5904FC300209DB83
:100A400048FCD6D3AD64BDE52132D328B37FA30AD9
:100A500012C102580481A084774BAAE4FD3F62E5ED
:100A60004080A8C69DA4AF476FCD30810896663EF2
:100A7000F24188F9E0250C7330201EAEC02530FF0E
:100A80002C7130D9C832F30FE6C439300164F1302B
:100A9000FEE5DAB08093E6D370FC68F469C7309A5B
:100AA0009E9CE35FD80108B79D98D6649B966FD350
:100AB0004AC65885F881097998FC307AAA0245E837
:100AC0004980625C5F1867ADB944572D0B973C763F
:100AD000FEC020DD97EE310160CFC8A206C085249C
:100AE0001121DDDF85FDCFD022713023A9A06C0458
:100AF00012D1B4EEBF34D4FC4019D02104BDD7D3F9
:100B000040D34559A1213B8624FA9BE306C124D05A
:100B1000FFDA5983F5A39FC62F8666671C30B34B57
:100B20001910BD4B0C32C9E0B0D7B7640C69EF1790
:100B3000E0006B21E133D7B430282916930D07C3A9
:100B4000932C407BB30F80CC810C9DFFA5B3E3D1E8
:100B5000FD878C81F5C3C0278893FC0120C4052242
:100B60006ABB6CABF7884930011B66F417B5B33923
:100B700066DD5B5F32FB3109400104F9308469D7DF
:100B8000FE7F9A6120F080210490DB794AB3AA4964
:100B90008072A814DCED6FD342F94619FA080602F8
:100BA000E9FBC9C8632F43E6300308ECDDC8F099C0
:100BB000C878F3E560012D07A966AAABE88F7DDA56
:100BC0004950B502ECD1C6F1D327EE0ED33C20122A
:100BD000FEF373FCE559FF3D64AC61A3C8D356B383
:100BE0005002D519011DBE5AC81A97F030A666C624
:100BF00021FDB2C8E3C1B93084B448CA6E6BBA02F1
:100C0000609D9D092142B7DB2E9F11A342FC9347B3
:100C1000A7AFB4C4FA277C4F91B420D0FF0636FFAB
:100C20006518B3FBFFF8FB5EEF2B5DC5F7627D3FF8
:100C30009CF3671BD101E06223D3FF982C662C3113
:100C4000FF8556202CB3282A3166C539908B1C6647
:100C5000DE198BED49E7DEFE7582DBAE4BFD14FA43
:100C600096D54B0680723B33F5C8FF73DF8D564F28
:100C7000463F665DF5C8F904925146FF50B1B1E6B2
:100C8000434A5FB67DFB1275A4608CFC3216177F59
:100C9000CC98FD7997BFDEEFF315A8F3B0DAB1FF7A
:100CA000C8B7FED3EF633E0E1BFF08FF1733E6CD38
:100CB000EEF6C603124E4B02EC58F9F3F6246AD84E
:100CC0001AC58DAEB837033CAA6CB3FC55D380630C
:100CD00088E9040C477B2A18FF63E4CC71BFB14854
:100CE000DFD8BF20876D17F996264080E2DAFC3006
:100CF000362C1A32DF12E8E0839601E55EB7D6F2B1
:100D000012FF85BAF569A5E9D802D87FC29C69F1BE
:100D1000940067F59B06E8657517E0B8CBFE99EF80
:100D200030F8CDC011859024ED07BB10D9820C207E
:100D3000EC4202A38856F3CF2469E232E873480AF2
:100D4000B01386B4FB06ED6EAE4309DC2BF9F7B7A2
:100D5000A008843E29D2401108013AF52E41A31C77
:100D60000A208C21C5BDC944784386D8C9FF3210FA
:100D700050E0B8FAE4DBAF19588481FF9748DACC29
:100D800087572CBD9F57A7F0C2CC7FE0CC802FD9CE
:100D90003F423B539B08A9200AFE33060CFCCBDDE7
:100DA000CB09865B9D6EFFD930FCFDBA616F6C5C30
:100DB000808656B8FEF3F03CE0C22E59CD01CDEF4F
:100DC00050FE8A2C7D092D3DB7FF54B1FB44D680DF
:100DD0008467C456CE4036EEDD80FAF1E0D8A22911
:100DE00002C2DE6C30B8F851CA086A02615F36ACE4
:100DF00098FC1479B68FB6A918FD79E8BF18CF49C9
:100E0000A6FBE83D2811F8D8B86D262678B2023E38
:100E1000593B3BFB2738FF25F3802C71E3E03F2C47
:100E20007C6FB64DFA594D861DFD652C8154B3B3C8
:100E30000C16C002524EA8F3B30B7AFBC5CC445338
:100E400036C84019365510C922B3B68006B2C70C51
:100E50009AFFEC7358FB6B363C04168B65B3044564
:100E6000FF20DDB1B2FD966801C634FE5E615F36DB
:100E70002BD0F92BFBEF401BED614089B6F5D8FD77
:100E80003049615FD6187B1F0858FC394D4064AC6F
:100E9000AF8023FBD4759AC4A798E55BDBBD10D760
:100EA000870299F52AAB886CB30880478F64CB041E
:100EB0003C2B58EDC793C8A4FD087ED90D59674057
:100EC000BEDEC8B1809C8A2EBEDBE57124A9EEE8A7
:100ED000C5FE1341EC029811F64221BCBD1B457EB4
:100EE00011234F20B1ADE4A20201B08AF6CAFC9CE6
:100EF000F96E80A1A0073440501C380A6E5CBA30ED
:100F00009083484AC01103D8B005ABB304084C44E1
:100F1000030C31B8800226AD441CD46C88FD0F212F
:100F200010068030BF5829A2EE01E94020040C30A1
:100F300073AA0821D92044EDB9401133DA10081DF5
:100F4000C211FF7FB514FC000281A454DF70FBF4D2
:100F5000DFE06A43B101CD17C19711DEB3896B2C75
:100F6000C0FC59915F7C44E6E4788A9796FC97A987
:100F7000D8F1C7E3CC20B3148480EDEC10FB50AF64
:100F8000D92204BEF761568F14F7ACFC40615F9B19
:100F90004A1F92E64B6B870858B1F81EBCE10FC799
:100FA000337D0864AD864096A2F02DD417B1617EE2
:100FB000F44498F99C669E176C7FEC510821E3CBB2
:100FC000253E78B1FB2E3B99AC9F2FDD9448DD1771
:100FD000B004A9C60162DF337A2AFAC933F497DD77
:100FE000841819C7D9AC9E4F4DFCE8FC8A98D6E608
:100FF0006C86404F5B3201F909B64EC7F3FB20EC1B
:101000000498F9A51E2091D62F1365C71BCDB454A3
:1010100018FEC66AF3972023AFF340301CC7F62FA3
:10102000188B66D09F620A022DA00173F7420277E7
:101030002C840D4FFBC83409CF4BE5E38893A7ED13
:10104000365EA8FD57E8A30CC0DD0A0C626A823048
:1010500031046F6DCF08FEFE24B9AA0CDC88010EA6
:101060009A80F30358B30899B3AAC6606DD340BE03
:101070009FE3D3969E4884194E72E54C0584A7F4ED
:10108000890903F3628866850D00B3ED8C30BF8457
:10109000036DF6A0AB194289E1940879656D7C680F
:1010A000645629EB7E466FDB38840ADFCBD4F20925
:1010B000EDF828FA49431918030B6468F3AF0616D4
:1010C00030AF26B4EF3C88077DBC78200FE081BFAD
:1010D0008B03849BF3B0FD525516C39410FAA810ED
:1010E0003D06B1F5BA4580D5F3706477B113045A63
:1010F000678051FD6B8D08A0E1B9B14F345B7BB3C4
:1011000060242C8227F7F80C37B390F93DAA2210FF
:10111000445ACDED2D2027F312FC0A0569DBE006C9
:1011200012EFB840C008AF03FBE0200DA20127CFAB
:10113000985E05F8DE850218B810A0040174F22C40
:10114000E2DEB7FEF58C06E6D2FD15B3013D984808
:10115000B5FEF5D718EBCC84F40BB2E8D7CDF80880
:10116000AAEFDC6894C6F0D35F04BC0719D4C1FFB2
:101170007411F8FD08F2F0200210181E7FBD1159FD
:1011800010B501CB8D14D6252218E4A0280B216FB1
:1011900035986D5709FC3758047FC0912FB9C8792D
:1011A000C0B53370FECB9B871601807A8924D98025
:1011B000043E9873F899FB7FE22930DC16F2D703DE
:1011C000649754DE83F3363640775F61FF4907301A
:1011D0004006309358F80B6801EDFC98F6F6F0FFE6
:1011E000F0A17B40082BECE4676F51F32EDBDF04AA
:1011F000807EB263F4FC7B4E021811F59F5033FBE6
:1012000044A1182F376C9D0142F2B36E69D0487B20
:10121000F72208040963195FF71128FE10F130A3C3
:101220007441A49309993C40DF5A44E098368410F5
:1012300021CC301240C5EB9873BFB0017EEDF61A99
:10124000FD9850B4F95A0940AB4F41CBB4EC7C68DF
:1012500019594F9DB1BC18B5F5BAFE96B35C303F35
:10126000B344401810037F80E66223B3BDC0171E4D
:10127000085E98BD02B3F02DA4FD98B082FAF1B3D8
:10128000E27927DEE59946D9184E69F6CB23D907CE
:1012900041D3BF04D74B01F737D022DB024073A004
:1012A0007AF9BC04B3D547885ECD21F4CB19D4FFBD
:1012B000FC84B1201CC0C806EF420211F31EC6C553
:1012C0005F08DBDB9880FFD6DDF08ECA036001EF9C
:1012D000018B1EBFD0CC984B5EF92C9007F157E0E4
:1012E000FDD6400FE481EB09067F6C9838FAA366BF
:1012F00065EA188CE42DB666EB376DB7F6F698699B
:10130000F9D3C51342FED7DD0805ED988018A25722
:10131000900B3FCB9884857647739D240D2FE00377
:101320001911B5206EA6E0FDEA5FF2D2E960B9DCE2
:1013300005029BAF1067C52301E1A010622E613446
:10134000802274FB0B0488DE01208DD7221AEF7FE8
:10135000026D2F44FFFBA1806FD4B939BF03AC40AD
:101360004BD7982071AAA122B2E003E3F294BEF910
:101370005D6BF8CC791B04625F518B80B07D9F89D7
:101380000CB37A22BFE3ED627C9896A5189E98066E
:10139000FDDD66233759888B47AC55960589723138
:1013A000403A2768C5122C84B2813E45F6C75BFAE5
:1013B000EDBDB01F9010823EF01744D00F60224167
:1013C000A8B1482D71622240C89AE7C8040169E0BB
:1013D0009880BF14FA7FE9F8F3E1BEF66B9D023BFB
:1013E000C860806F5FC57AE68B23E2982357265D3D
:1013F000B19BC80145D3401E19D5D140F9F0A76B68
:1014000064835B71840165BF60DF6E629A14BBC147
:1014100060769BCE8265ED03AFB6A639FBB9315F2E
:10142000102B762D1B3C460E2062064C90100C446F
:10143000B46091D053907A028CBF807140423D11CC
:10144000036802ED19A0FD7C903E165444BED6EE12
:101450004F309070261208228CB8C8CF3FB67FA0BC
:1014600016C40803105FA8B480D2B0EB17B6A9FF6A
:101470005B1BFFE5F1E708A4F340D5B11D63FF3F17
:10148000569B18FCA0A778B31C10068E40F61607D2
:1014900080E2D322B4F331365D51FCE0C093CB300F
:1014A00006BD1E0A73E4C8FC272FBE168278C5B994
:1014B000276E46D104284A8B3E1930421014442C22
:1014C00020EED18101DA69767C400488BB82BB9230
:1014D000FECC0A204042FFEF402110E43048706803
:1014E00013E2588693B2010234FE5084F6114C0484
:1014F00084BC30B6035D04F99DF505B21F9DF71C51
:101500001DBDAB3203B8FBC4BBB13CFDA0053040F0
:101510000E04796393E798F405EFFFB8FE235F6745
:101520004EBC248456E298FCB1661C89D9B320369F
:10153000C6FFE97FA1FCE81028C8A257262B7451EA
:101540008057AFB11377B3B02084EBD010985EAF63
:10155000220D8049E5EF147998AFADE5C03B1752F5
:101560005FFB9110C4A8A0A80239B9E421D8A80152
:101570008EBDB0941040C07CDBF7B3418CB0E8AFB7
:10158000DF8545F206636DAEFF7C27DF4D84F74EA5
:10159000046286196E6DC8C08FEBF3E5743003DF0B
:1015A000BB0FD09116AFCF8358E90C8F0DCAEAE07C
:1015B000C88678960EE4B357B90EE46847199E06BC
:1015C0006F41175A2998134681679F6692F2B0536C
:1015D0007A192441DA82452BB311D7630D36E46AB8
:1015E000FA9DDEBF18C63BB408322D0ED32D60061F
:1015F0008011B1B116B2024630AEFD08046D70EA3A
:10160000F050F9BDD33E9F3002E0F8E69207328BEE
:101610009D8DFC33C80434A3D0E017E801D93C0801
:10162000EFB40C900730D74006033047E0E9EC797F
:1016300098EF163C1008FE6FD4441E6894473A9108
:10164000F7D689F417AD263B1543FCB41619A6ADA1
:10165000D3A9FCB70AD7A36BBD04514B4F9AF7111E
:1016600023E6A40480C40BB347004902995FCCEF82
:10167000828D04F87F057ACAC6026EB328FACFF5C8
:101680001614182BB1FA3F25A24E1926FC824039B8
:1016900091EC0D029047DF98140140D422AC8AF7F8
:1016A00073040DA06CB68FA6415E6C69CB9EFCF8EE
:1016B000AAD34B029739019F1AFB500CFAE4CF389A
:1016C000FFEDFE97B019FCE72B10D6EE04BA159B80
:1016D00038B302C6B3C082946607DD81C818433EA2
:1016E000D320622EB4017020FCB87AB3D7DD98788D
:1016F000400EEC9DFD048119465D6F06A368FD88D0
:10170000662BB883FED8E130AF7A19800898FACCFE
:10171000D909AD48D522D8029002BFDA9858F865A9
:10172000C40616B90EA8618404BC980A71904310CF
:1017300060A84045C44B196569D705DD471F766B26
:1017400020BF7F088404E61950FA8D233D98037664
:101750009D5FE78B7C02297843AF623328C9FFD3B2
:10176000B11716043E7A10036481D3704948741887
:1017700040C35BFF7F5FFEF7CC7E84881B6ED11871
:1017800062558AE9AF648B92B34689F30A25E688ED
:101790007FAB4B058E3040214877AE9804490D68E9
:1017A0003F490605CF19B53006D3CA1801B35CDA34
:1017B00091B35EBAC50360A1207D5282FD7D0F8684
:1017C0004612441AF4F2301226421A0CA0AF69D81D
:1017D00035B48368340AAC40BBC8B5648CF427B315
:1017E000AE4868306044739479F8BB64E4F5A3EBC9
:1017F0001323567510206665F990E719E974F9C846
:10180000AEFEAE9EB454ED720FAF745718C0D45EE6
:10181000B80D88EB150801B4F0CDC80EA69FAFE255
:1018200098F3FDDD2DFEEC79160237A06C81278739
:101830001608285AF50D76FE50052298794AEAB026
:10184000748B8898025D25D3C7EEEB114060D3FA04
:101850000883FF56D7025E3C547A5220270848106E
:10186000C2136425CAFD79ADAE5BD2B12201466ECA
:1018700042471140157866D7F08837306881FB9869
:10188000D1FD4FAA900531407803AFEA2C74ACE843
:10189000E2C87820D2649004D5BD026C66F03C901A
:1018A0000731261EF8588FD33B09C5D519FE988EEF
:1018B000F8F23B3CCCF08F132FFBA2125AFB2255BF
:1018C000B350BAB31051C389F9C82DF348D32BF6DE
:1018D000FF71FD69E9A0DE242BEB2FC8EEDF248227
:1018E00088DF89FDB56C16B3F7FF7FF80906D014C1
:1018F0001867DD222D8480FD92408D86D5DFFC6443
:101900006D2397EB0C4043F93CB3DB6C7A4BBDDFA6
:1019100050FD207C98B56536B523F3B5BC4BCFDBC5
:10192000E3C0E023E01360D398FA30FCFFDD399880
:10193000DBFB289FA0D6BEE6F32866636DD390FF3D
:1019400020DE06311FB0CC986AC9E70CD0F82079A8
:10195000EFB7DF9EA6FE30C7B5203FE0E0D9A36613
:101960002DE6D0B7FE373534DE3CA444C48FAF003B
:1019700024F22437F2FA705CFFB866608DFDCCD893
:10198000FF96D3BC01C1C6BFC6406DE68C61C8EDF1
:10199000ECE8FD93E64B1F2FFFB858B310871804EF
:1019A000B7961A6C5720594448B2FEFADADC1ACFBF
:1019B00037A52EDA31016666B0F9D40BCA5E140180
:1019C0006ED81081CF9EDB97B6063C638AB976F954
:1019D00079BDB94FDA15B3104C6BF35316FA99FD74
:1019E0003201E7B76915AAD341F26E33FC0D66D216
:1019F0007B22478CE5C3AEFB0898B2F915D612FBE3
:101A0000CD404F571E44D8E5916028B3A0B3B4E24F
:101A1000D87E8FFDDD3308DFB0BCFD22EF0F460B13
:101A2000AF0A46D10DC61473FB0454500A30B544B6
:101A30002566ABB360F99A14368BA3508ECFCBD406
:101A40003260E9A8030863485C7D5B9E77A025C3EC
:101A5000E95424E00EC3A445F80A42660802DEA059
:101A6000310027CFD316B39B905AEDC74008D0144E
:101A7000216DF43D120401F03EE8640828FDDFB159
:101A8000D802E240BFCBB8ACE1441CC63C235A1C90
:101A9000F74B2CFC6DE2E6BCD5A98176D17F40697D
:101AA00017194BFFCB41E64949D9228680E1EFF374
:101AB00068B64DFEE0FF989B611F6DC9213458CD7B
:101AC000D2ECFB642DB320679825D9169DDDF4A8D0
:101AD000FE18A6A3692008624BB814196C9CE0FD9F
:101AE00049B84068F0B182C560809FFB75F8FEC4BC
:101AF000E3BF4C95AFDDCB63446E315CD3B2338B27
:101B0000A3AC1761D941635ABBB1081EED54A0FACA
:101B1000D6A804E6763FFA791259FC88E3D323FA73
:101B2000B1087541048BE95FEBFF183FFB92B0FFF2
:101B30002DBE40666EC304CD37B0D33C155A03FEAC
:101B4000206602B12F584E01599D7B28FC94060D4A
:101B50008EF57AFF476FFBF92A3B5BD890FF30C1C7
:101B6000E33B1FF3EE17585CF9918386ADFF81FECE
:101B7000FF97677DDC8B185FE736EAD8FB3E3D6157
:101B800043DF98FF67ACD4043759165826B317794A
:101B9000E69FFDF388FA9FF6F91B8D67C9FE8AACB4
:101BA0007D8870C9CF3D6975FA618A7E20D3C131C5
:101BB000B39B2D88FC13DD07408C2C11209FB3AE06
:101BC0005B2A60FE10363D08FBC77E8ACF76165032
:101BD000FB20AB5A0460C32E583F8053EB530C7E5E
:101BE000D864FBAACE04FF318AA5B3049E60CB90D3
:101BF000FE0BFE65F2DDCB764D4A6804EA16EBEC8F
:101C00002BDBFC02D6402448AD12E98BB353AF1155
:101C1000168131E302DA808878CF22EE3D209FB72B
:101C2000E4E98F7D7CEBB341958622B686CE8B1995
:101C3000FD403F0D20A08B3402B9582CC234FBA0CC
:101C40006DC104489323C8FBADB308FE3548B38A81
:101C5000B7546F4B286C734156801F1250B408FF65
:101C60009AD8FF40A60BF9C4B00C026E90A40815D8
:101C70008022EA4AE0C082F4421C08D5B321DC1D70
:101C8000200C925C2410737318DC8081E126F567C8
:101C9000517CFAA4023021DA9FFEE58A9DF603C644
:101CA000457A66A08DAD00E0B72F04BBEDFDE37073
:101CB000FB80E1DBCAE30CECDBD27944E158559FB1
:101CC0004B18777CD14B02A4E2A0F6FFAF4A164B2B
:101CD000BB172FFF40FF030104816736E7C4FFDE17
:101CE00010B304F6FC8C6063D77B109C3D6A64776C
:101CF0005D78FC6618D9FEA5612018BF6C8901DEED
:101D00006C0380FAF3C052DCF38613316B9DEC391F
:101D1000C0FC47B7494018ADCA1D02CEE3BFCEF79D
:101D2000F3980BF6B196454061B3BA66F84778650B
:101D300079B88649FF03137F36C6F0FA5ABB40C90B
:101D400051F3022D8F69B0B9D2ECD698FDB9AAE84B
:101D5000207FDB57AC35847D72C0622EEC89F98020
:101D6000D99B08B320BE60BA0EC44B7185C7D4CBD3
:101D70006E28CC799DEC6F58F8436BFBACA56F23B4
:101D80002D320CA8CDEDD0F8FBB5EB805D65A30638
:101D9000F570DE0E31D01FDA3312717688E751D834
:101DA000FD68A6DF284AFC8DA008A5DAAE428B6745
:101DB0007AA005DF1410BB6F21D5A794ADBB481ADC
:101DC000E3E6C63436FCFBE656C28FB3C60B198D6C
:101DD0003C14D382FB7ECD5CCF18A3ED413036F6A8
:101DE000FF47ED1A7015D007B6B92EB3BD01981C88
:101DF0000E83EFE92F013DFB206C99810CF86819E7
:101E00000248BDE3684B2384DB6618021677B305EE
:101E100001127EF00952D53704F314212630B2FBAB
:101E2000BAD9D0B3C64B666E574A985AD579F9A03D
:101E30008128222C5ED87A99446FF7901B66AC807B
:101E400086BD636089F4191E62DFCBE5E0012CE5F5
:101E50002890D0B48BD35713B093A2F3010CED208C
:101E6000F0FFFE7FDB970F06185AB119E2DC8913E9
:101E70004F40B3282D665439805E1DFAAF5EF3A340
:101E800040A3FA7285B3DE8BBBB205A21098B301F2
:101E900012CE5CB31121B51817E65DF84BB21CF7F2
:101EA000A750F6408A44085EDBF6BD5524040601BF
:101EB00091ED0D2084CBF71A4EAFC95F980CC6CABE
:101EC000ABB320240DCCD5650CE6FA57AC7C02C22E
:101ED000CE406E30BFE0F632079AF06FDB8C185DB3
:101EE0006C863008D56684A9B4AF2BE22CC1983C2F
:101EF00019870C8FA0FDB7086D1960084D9CF7D1AC
:101F0000B067FECC280511E6B84F21EF983503E6FF
:101F100093B7FBE363712567C6080369FBD1223FD2
:101F20004DFE5765602B8B89C598FAAA66500F2124
:101F300039FD795DA1BCAFCDFE0316AAA23CCE56F9
:101F4000B460DB601782A88B24D3C8F198BFD8FE99
:101F5000048FA3B208B1FDDF0902E6985F3B790860
:101F6000C9FA8DC3568914CAE850CB02D65C1172E7
:101F7000BB44D5062369D50AC676DE989D045DC0AC
:101F8000F9C9EA26FC944A1C4F0E44FF73E7024548
:101F900009B3404BDF103F76E424BE98FF60084051
:101FA000A005868006DA5020F330483403F0FB7F2A
:101FB0009AC11114B0A9D5A0C7B3EFB23876913148
:101FC00008FE98CE8801DF0680DD1A3037F2FF9ECA
:101FD000B3D0BB70EFACFD7F1ECAEB0E33F69DB3E2
:101FE000C4012CE3B3BD7821E0E0412C6007C0368A
:101FF000F4983CDCFCF9D89446989EA5687521EDD0
:10200000E692107FCC81045A0366B2B32090E7D7E2
:10201000DF9841818405102619F598D154503B86EC
:1020200090FB97D8C2E469A056CA8EDDC340DEB8E3
:10203000CD2D0811129BDDFEA501AFE66C60A84D09
:102040007DD4282206407998B7363048FBBE986B7D
:10205000C7302088F0EE16C831A23F349821ED2316
:10206000E0E0E08124D9073C30ED1070FDBFB108FD
:10207000689F79D6E8EE0CA5669DFDCC8241AF7EC7
:10208000510361100C820628205B66786472E62595
:10209000F8B1F328A31216F7B31021087F36D63013
:1020A00040776D17097B511330184C3D85100106A0
:1020B00091CE303002A8FF274B7E4A50036A4FFB77
:1020C0000650080A44FB64300DB69BA73FF8A105F3
:1020D00084C016083BF14089D09D84BB2054285F02
:1020E0006698113440F9DDD3035EA969EB8B406338
:1020F000213F7C40828110B7E01BA238208D2EF258
:10210000C835F8CA66035BFBC8723001EE0030FCCC
:10211000B7E8F39867A288811CAD109B94E003D2C6
:10212000E02CD31E2018F0E30BFBE938FAFCC9457C
:10213000975E986BE170AB88A34B3B25E8A8981994
:1021400059C835E546C23DAAD3C98B6804B498F492
:102150007E49DEFC0B66B9402E039702BF80F35C1C
:10216000307FF6F9091073660221BFA4F72611E546
:10217000C8733026406FC330B0F9BFFACB985A1FEE
:10218000C003F398D7F3B07030277AAB2CDBAD6384
:10219000B9B0E4F3010CA007B81EB5C0CFC88007E2
:1021A000B464F330E8FC647D7FB6D6978716B980B7
:1021B000A94167F23981D5D4046B90C8991E985F04
:1021C000E5BD5966044FBF100B60116819EF82041A
:1021D0005063CE80095A90FA520AD4970F05221202
:1021E0009814E458CFCFC84110846FE0981676C891
:1021F00070FABFEDDC42088CCDA040EA162BF74107
:10220000CB98FBCC30203566A8DF4594EFBF4081EA
:102210006022BF0181305A04FB98093436B9FA862E
:102220008E4F2B3006B6B90486117919E487E3681E
:10223000465C307120AA4B3106B8F9D4B496677861
:10224000FD0DBF1CF0E380E208B5F54A52AA1189E2
:10225000BD85077F4E64D30C82BD98062DB13D9895
:10226000E025F0FC69AFE2A394FF5798882B230187
:102270008D303FF93418B2F48B5CFDD9309040E1D9
:102280006A31410C2751D926125FBF7A2A4571B7AE
:102290003AFD1AF2D808865FDC84BA3385C4F2EAC4
:1022A000CF86349D35D567F89050B3260473340239
:1022B000202B4A9D30420418BF8098D9B0FEDC30F4
:1022C000958039C430A74EF33C8802D466D45E684A
:1022D000ED1CD3938202BD0F5C303643304F2D305E
:1022E000C8F4AF92FD10B6F21035F6E35D3F2EAEA6
:1022F00038D3B22460AEDD1B304EC027D69881841F
:10230000B3F3699B0D85D6191099C8ED1184204D42
:102310006EF9E44903122670F82861532CD3900318
:1023200024C4DB0819FA9878FCA6C8A14210FF164D
:1023300098604F6571309A9CB3DD30B4FB9F5AB5FD
:10234000962D130884FB804654241A6F01A9ECB71C
:10235000FF3DC4EF416DB6596F1BD1F595FA4FBFE4
:10236000186829EAFCB7C85AFFF87130EBC3787EC9
:10237000CD711CCE70DF2CB338BBFE404A52012118
:10238000B3BDB3BBC0CB988D3074518FB3FD321445
:10239000DD647F859868709701F764308239CC5787
:1023A0001920133BF998444EFB2C229072CC160254
:1023B000F32B661973FDF3F6CFD1F39874B304E3EE
:1023C000F3113500CC401980D710428398D30260B6
:1023D00088A011ED292220F830BF4551BFFCEB76D3
:1023E000963008F9C85F229310F32EE05C5D66BA60
:1023F000FFE0813CF278E23060F40F642F4B98B23A
:102400008642E657C670DB32F66340D831D9793060
:10241000B588166EC3E166EE064FD403BD04804155
:10242000B2287A979BD669FB5D97B7B9AF69856685
:10243000E65810F320E3B38CB4C1A0D84EB35008D3
:102440000B7AFB288401D3FB7E3B304FCB616610B7
:10245000D05F42EBF8204F57DA4A6063114D218379
:10246000099BE8E5A011345DFC2B48032944C1C455
:10247000208415B70C30C6340DB8FFA8D4A341EFA3
:102480007F5C4F0441651BEF99AC7D9E65713036D2
:10249000E6E0FC865DDE987F6B3A4026E81902B8DC
:1024A00090DBD14202DB7A3330B2C890F90349ECB9
:1024B0009069CB3008FC98ECDEC8FDD15D4BBF09BC
:1024C000D79890A6CD80D340427AAF0533113326FA
:1024D00001AD283B45F2F088EE5D1AD93C11B3B648
:1024E000016D3B60FE79304144C8EA7A3A48B3C88E
:1024F00020CD222CD012BF9B98A400306FD3CE5891
:10250000C7414CAF844B98C2B46D7BAF010248FD0C
:102510004F36FCE330CE03CDC87A7350013C66964B
:10252000B477B53C887A98D02579C6E04F1730B695
:102530006B2088BC7DB88036E32BCB4CBAB422200C
:10254000F34E3867F3964EC01762AC0CC8C8102B18
:102550004DFD9808BFD8BDB1260204AF80987F64B6
:102560003150E79DF3D311309FAE60041240B4DCCC
:1025700077B3136825B310FE1B1835B302F0CCCA2D
:1025800094A00E50021AD3D49848F9F9500482400E
:10259000A1D39D21F280109FA81795C889BE339CB6
:1025A000372104A6CD8802A108FE7EC11035A3A85C
:1025B00066F339186F94C8F25E98A360A420BCDB60
:1025C000B05B0A197C17BB10D69808FFFFDF98FA9A
:1025D000FDCC4440A7A898C0B394B81CFB2E2ED3C2
:1025E0005C3F9430109033E0D0E010D70280A69882
:1025F00007B114D7F0CB3C3748FE226926B997685B
:102600005C3DBB215C304092107A611639B0776531
:10261000FE28DEDD0CCA4240B368AB88102ED98E8E
:10262000043B66EAFCC552E7C7657D7F0BFC8C82E4
:102630006C7D2080093011AA1518D7B5648CD51788
:10264000CA305A60B4204C0F28CBA226E55FCEFDDD
:1026500044C1A0FF02FE6907B02AE33D6E6B30B0B3
:102660004030C8193903E48146B505CB8357ABE840
:10267000812CD79007EBE9D0FEEC0F60802C36015F
:1026800034041E66BDB1ED1040F9BEB18236BFA460
:10269000496C32F6D78230B56D1758028F66CAE89A
:1026A000EA44277C0A1006C0B640FFA7310861A69D
:1026B000FFCB204619AA44A3C6BF096B0FCB989B3A
:1026C000C884017EDA170888B3ED172202B3E70B3E
:1026D0006241B348A0FB8046C108186F9BCCDCF870
:1026E0004E31F345FF20B8E6B0D785FFD8BCFDCF0B
:1026F000FE2EAF33F74DF3CDFF953524C6AE80E007
:1027000099E5D3DB00FF2CA4C64C59FF338EC6D30A
:1027100066FBF39373A034F3CF3108B1D3B3119CAC
:10272000A0B420FBE03417DF6D484F2425E0F6818C
:1027300092E3DBF8FA1B069ED53B63461E775E02EA
:10274000667F6DE0F9C5EC51AF1131448C1AB19B35
:1027500053EA8F04D8A49B3978FC3FE2F95814530C
:10276000FBCC102FF7CCF8F914E6A57FD8E09266E1
:1027700008C67FFE50B4FEFBFA0436FF88FEC33263
:10278000C92E3534A832411655C0159BB3A83B0657
:10279000B2CFE8E13B70FE12F4F5087B01BE921D5A
:1027A0000499D269BEEDB45936EDDB1E2454069867
:1027B000FCC67F8B2063465D78D0EC6FF8FB4BD670
:1027C000B80831D55BA1BC592A6E02D31EBC5D038B
:1027D000B39BB8B7FC3F0C6EE4581041D269018D31
:1027E000B3D60404BC029A09F0286EB8E8FC52ED96
:1027F000A0EC0288ABBEB7E21549EE0A4A0C2623CC
:10280000EECD28093000C6D342B4929EB9A4080187
:10281000021404F8B30B2003281008EFB1FC7F2149
:10282000FDC90440A04218A7E6B681BC69F1399BF6
:10283000678DB3B452E93C035DFC803496C606FA5A
:102840001C88103EE640083E80216DBDF0FA64E32E
:102850000653F81AEA1632418BE1EBCCAFAB2200FB
:1028600039346623701C422AD31B15E3E0F8FCD7E9
:102870008D624EA5F742100112017CB520F668FD6D
:102880002C7D66EE0301C22ED8B1FCC7199ACB602D
:10289000083CE252ED9322C816F21932B2B708583A
:1028A0006C049EACFD08DFD815FC992A92B2636BCC
:1028B000E0102DD3A872B380CFFB977F311D5CDB76
:1028C000C7402CB404A5C5E0A9668BF9F6855A006B
:1028D000B3D072C8C7F3BC406858627F56D8F8F9C5
:1028E000A3BF02202C6B5397DA08E9332FE20CFDCB
:1028F00065488EAC6610837918F5CB1088B646D83B
:10290000FC3F96E3285D2C69E5E62079E59DFB52C6
:102910008065130189E997F935191B5DE54690C774
:10292000D894F89758BD57A0A61BF39F98FF6F96B1
:10293000623ECE63EBFF50BA17C4B246CFEB6708D6
:1029400073A3A065E9FC85BAB20284CC6CF178FB74
:102950002FF9CD0B62DBC3D9F0FD5E2361EBFFD80D
:10296000FB62A685209CB104F58F589AB3B120E58F
:102970005A808CFF9C70F97FD9DABFF8B510C8DE99
:10298000CF5BDC0291ED61B9B212E0FB0CCA6CB016
:1029900030FE577B1E28013C5158AF915A652DBF20
:1029A00098E5E72C3020BE3125E6FF18FDCAD23D60
:1029B0003098C3D6070447EC32FE6B561F1420E64E
:1029C000B760FAA80C93CC768074FB0AE60AE6DBC3
:1029D000326559951994E65BBB4B650A4EEF9150F1
:1029E000FA5EEC82E8BF10201739D2401D03CE6793
:1029F000F4ADC7ED10218617FD8AD7F3F8AAF108C8
:102A0000D1D1C09D30B4FCE083F3060114E242371B
:102A1000F3407E129004243930F13E931820B01513
:102A200088D8DBD7D4CB04C6F48015B801B3043101
:102A3000610A73890005BC3030F3182611C60C7585
:102A4000B02028E2987066FF20AE62B90C03012B1B
:102A5000186180B3FE28A088149022C5377B119797
:102A600002127FC4858AC1D006C434109042B77266
:102A70004121F8DBB21740ADDFF6664210F2CB0120
:102A8000DFC43BD746DF93BFC8C598A8177391E151
:102A90006493F60D2EAEB540509301FDE0CB024895
:102AA000CC0AEE2153C388B5FA599D083FE36EEE78
:102AB000B101036EC89B8A85E0F39BCD4F0CF8C132
:102AC000C9DC5361376C2A10ADC2181064B6376088
:102AD000FF7EEC4904B5B340AA4630C21EECEC2898
:102AE000FE3ED9EE286E7AEF58FF0A50F2027006C9
:102AF000A7451BF119FBFE4B6DF7C8F94B9A55D84A
:102B000020F98EDBF37FA34448B31016E308672156
:102B1000B004B31B8DC8FA88EB8D6DEB08D6D801D5
:102B200062A704CA585130CF367670FF7A3602D584
:102B30007510659E7AB37AF608DF6084B3B930F811
:102B400063BFA1B2100C0770D7B9EAF0B3FCF74A23
:102B50000170077617E56F36FFE8FE5A8080D52FA3
:102B6000406498A4E69B5B979776A750FC61549EBF
:102B7000CF6E950D97FB330412769388FE20ADC679
:102B800048087994B8C44809188D221BA408396FE5
:102B90000933C426D88ADA60431AE666DD11E55F98
:102BA000516AFCFCC58568788C72CA10CFEB01DED7
:102BB000FC60F98041F4F006DAF218A4E5C0BC55D7
:102BC000AFC70C8081306729CAE0CD0781301881FA
:102BD000C060B41037C94E4C81FCA8F85B462DF09C
:102BE0000985B3113D9A210882119FEDB6208074AA
:102BF000AE8C8B76E46002875B2F6B10F2FFED17D3
:102C0000FDA70AF0E0F3076CA7145D230242C72476
:102C100008B1313FFD35C222082181FFFD64F37305
:102C200080493DFCF0FAE0A3CF1EC805B219F09828
:102C3000630378130BE61CB308B2CA996601F0D39C
:102C4000EFC002782DF023A7D3BFD0E072F1FD5A78
:102C5000A3B67280604FA6C5034404C43E9703BF69
:102C60009F06AEC09B51BB1033C2BC26AED0FC1336
:102C700044661AEDC2608204E489D7B903F77F8104
:102C800009FF7F88892EFF52DC0EFF80BDFAA69EC9
:102C9000C086010A602B458802B2AF05B3DAFA6834
:102CA00004477470AD664FA75521F3340978B361BA
:102CB0006E22DA1E7FFF9109350226D224EC980895
:102CC000A3EF7EAEA045B40838F8C5FD980C791086
:102CD00031B30809EE0D516606FF7C45B1464D4DF6
:102CE000033002F9A919EBD902CDF686B3F230D040
:102CF000B38EFF4DF004FFC47F6C07C2F6001E8048
:102D00000357AECB832719B370FC888629CCE59A8C
:102D100046AFA9F08C440872B3816EFF014E9B0A46
:102D2000FF20903481C5C824B242FBE40373FB4505
:102D300030ED11C2FBFCA48F845A5A20F45D1902B5
:102D4000541DE8B380F70810F05F4D801076E182E3
:102D5000418867730C8090FD3002B8FDE081A7A523
:102D60009808B0ED9D8007AADD0B6FFD2C11194F5F
:102D7000DE669902FF60ED378FB279E29219B9C031
:102D80000C60FD013C2038FF04BB666020D90C04B8
:102D90009D17BC10B3C9E18AB6F711200641188906
:102DA00097301FA9FEAD51C0B35C0DF6DB1601A232
:102DB000C230B8ABD7F5CC0EF27FB37F1A46A088ED
:102DC00018510BB301BF7F21F2A00828FEFCDBFDE8
:102DD000BA0840450DBE3C14CFF16810052037F30A
:102DE00011A5B38089AFF332A001CA0689D08AF653
:102DF00020A368216EE78F84C6A8FC0281CDD32A68
:102E0000FCE5945908666BF11BD9076677B1201071
:102E100046E071192BE628AF175C4E06E0AF0F6550
:102E2000A51001D3C0B3E607E031CACD860CE5B3E7
:102E3000F55FDAB190EB913793304186A0EDFF84D6
:102E400009FBFF21944CFB2DDEC00866FB44820584
:102E5000300A6FB5CC38C8B37866425840FB602260
:102E600035B31132B3E0B3F18693AE20D2B224F77A
:102E7000220E0218E0B347C7089119AFDBCCEABCB9
:102E800050BF1DC0E1240821B3BB7E809D50A788A0
:102E9000F8AA191E7CFD38200F04AE333950F078A3
:102EA000CD4003E62CB7DBCC2E66724963B1D31656
:102EB000DA7A40F130B71616D7A55B64FA98203A53
:102EC000F20B36C456E0045A5BFECC12E3F1727B7F
:102ED000FD64039FA3948F10DA70FBEAAF18E52618
:102EE0002CC3EB3928734014802D893AD7B93005AB
:102EF0006BC0301A279A59494281667030A2EBBFE5
:102F0000CBC846ED03A0064240FF6DE5C2100B237F
:102F1000CF982E775A3008F130DE98BF02D6980845
:102F20007E6027146CB8FAE251F3B85F36F52E2AAA
:102F30005A3023F33091014B7DC2CC4FFF4D982086
:102F400019F81A1979751FDDD48E6E7FABE5038DE4
:102F50005D05B3FFB79A98A0D6185B0366C801DB7E
:102F6000E47FEBD632FCDA439BFF2D46101BE34C8B
:102F70008252B3F59809AF2E30891CB36698421B74
:102F8000644FD970461E4BF714080AF876CC26BE5B
:102F90007F7B35020C8C90B0402F48017704B43011
:102FA000F3576F38985E90BD022E28F398CC409D61
:102FB000CF3D88D360FDE0776BDE02D3C503580FA9
:102FC00046EBA423F35A5F798C7E0A05DB943080AC
:102FD000D3BF30C598EF95C00349B9D3CB38FE763F
:102FE000FC70B85DB830F5E80211EE5FBFD27F6EBD
:102FF00010E266381924FF3374F830EF61B851F8E5
:103000005B111EB3766FA2A8E3360802FEAF7FDA2B
:10301000CC13F2CA0AD3FE8C98480B6259C95ACF16
:103020005EE4497BFBB365F0300E0A06C4F1F3B4ED
:10303000EFA0091432A9783043D334C050B337A27B
:1030400082B6701210E3B4E62891FB60D9BC30DB85
:10305000C0407D5FA7D99A3C3029A3F684B2407C5A
:10306000528DF0DDF3F8FEC0B657C82E3D0FD45E8A
:1030700007178AF3F6FB757EB5D44966C2EDE038D2
:10308000B41EC8167085E7F6459F2E4FD31078FC06
:10309000A46E67D640014D883606A7A79841B309AC
:1030A00031DA21017FCC0D0469CECA249030614809
:1030B000081DD98A68A24326C8FC7FB00E3AF804DE
:1030C000D10A9877979F38303012103A481878EC28
:1030D00042808101B70819B33C3020EE24E6882FE6
:1030E00020816024699DCDC1447D9EC3DA3A21D7F9
:1030F00090FE9AC5E5C8FC30A13C50F35C303CDD45
:10310000E0812CB4C2FDCC81AF263062E0A057E054
:10311000F6A902788D7005F0D9C8703685E6708002
:10312000FDCAE230D2BCF6634018E28C1655FBBCF7
:103130003B2D52136688A8089206BDE00562AAC816
:10314000C1EF35F7E51A8919B31C30A24C52007E45
:10315000E6F301403705208271BF723011EF2ECCAB
:10316000573081E7E6A6A95820B50A6D1940C099E5
:10317000B30830CCEFFD8081E030271928147FF4AC
:103180001822C06B172924D00922736706B3168052
:10319000E2D2E630A84905A13D939948036CA72DDA
:1031A0001420B5F8A049D56CB32CBEC2FFE350D7AC
:1031B000DE089144B37130A787322CB88CBCA8BD0F
:1031C000FEB7A3F68E90FFBC98FE3F5AAF71ED4458
:1031D000E07DAC35110C84FB950288B3FF80DEAF37
:1031E000409882089CD6E01ED00B615DB9B6B383CF
:1031F0006BC1E0B6FAA0E566F7CC34F486D0FB3BB1
:103200000C112094E003B35E98D18B017C771708F2
:10321000809C04C01082F7BE22600A9FCCFBC613BC
:10322000F3C83103B3FD0210F2A0CAC821EEF4D8EE
:10323000731F2301EF0C4C02E130B36BE198105F78
:10324000F8FC32024011188120CD547F126669B516
:10325000B29DC839F9FC5D7E7BC858100FD819346F
:10326000402EE0230D79BA885E98BB09E9E2FFF0B1
:10327000B701F59840BF0D30D302F9C83732F89A3C
:10328000067AE510DFE9AD2120242F99A3C6B327E4
:10329000A6356F31FF65B8040140A9D3B0E235EB24
:1032A000FEF955B31A31B3040C9AEADC4051B3F37A
:1032B000707924225FCCA505CB0A7F7F0809A6344C
:1032C0007610186DF3401717A62EFB0B4EFB05A7C3
:1032D00020FAB830FCC1C8437E46C8A280D31DBEC8
:1032E000B785A4C7F302B304B40EFF32A105068D5F
:1032F00080D4D624185A47723002FFDACC017230DB
:10330000B8CBE0300C8D5DDB61E7C6902C60782196
:103310000D1666829A156259C75EB3DB68FAFA9891
:1033200003B2C8FED1B1F1B021D10CC540A38019C0
:103330004D344E2F663985B31C5CF764ED0110C91E
:10334000BCEDD8E8F8F93003699DC82126EF66681E
:10335000114CA4D11030EDFFCC70DCA7B08D093238
:1033600005C62488472303077FCBDF9647B334087D
:103370009095FD92A3E97F1897080AE6C80603BF57
:10338000D6235AB4156D97AFDBCCA77B854D46C4C9
:103390004BEC805EB4B8F3DF471A1120FC479DF870
:1033A00098C2701969BB4930BCC56B390B965D106A
:1033B000BFCC6A665EB2F13C8005B05116791BE75E
:1033C00070ED49AF3630A8F947A59862B6BEA8DCC3
:1033D000039CB823F3662B2FE2C8A9EB25E8FABEBD
:1033E0009BAFFF7F08FF6EB3E8086082B38D39752D
:1033F00007283BFD02048BBF963001BC30FC4041E6
:10340000304225A1E8D3110B95DD19907F1793B6B3
:103410006CFF80DD99EB0B2802CB0AB637C2BEEFFA
:10342000373714977200306BCF30A0013291FB0612
:10343000D8001A45BC985EF3567F8A98F3C8D9B66F
:10344000F8DC305AE95FDE65E4C8BFB1AB02963004
:1034500003BC3069EB982043E0336BF6FDA850FBCA
:10346000C0A8ED07F8B2BF068F30CCC840781C0F5B
:103470003BB38DD1BD983805DF82EDD00370CDB35D
:103480001361E0C6101BFFA464F230019DB38506F2
:10349000D0ABB3A011BF106B92CB98AF8DE7308843
:1034A00049040706C1AF405EA568B37880426A81CF
:1034B000F34C3037F9B592CF7D1002047F4BF5F80D
:1034C00085BDB408F3C7CE0CB32AFBEAF93088CE29
:1034D0000582DFC4247BF08360227FAE35B4D2CE78
:1034E000C868FE5A7D97192030033F37C840719A4B
:1034F00065C8725D07E03A03ED91033930683DED30
:103500009005B0796B7878B743F0984D3D98B8B294
:10351000FE3FBD6128726C2A3F72A8D7D6B29BD3FA
:10352000F7CCD812EC190C739610042E083774627D
:103530009919BE7DB6F82FF36898110D525A25EBF4
:103540005B201037B01179B27ECC09D78230E928E0
:10355000B45D08CD9040D32479CCAEB7AF13013D14
:1035600014300A18FBE6C6771BABE93EE5B3D66418
:10357000BCCA464FE6E078FFD727FD162ADA8EE56B
:10358000D7AAF302D7D64B04DEBDB503E230E32859
:103590002CE0F5F340B2D338F36670160C64FFF3F9
:1035A000661B6DFF10FFCCA0E3937366278C307110
:1035B000D38BB6FD23AAEB209DCBFAECFBCC1034C9
:1035C0007A3CD391DDD3F9A3FDEF7F968186244227
:1035D00064F030164F1ED3736FF7BF34EA58FEF80D
:1035E0006DF697FF7D47FF9944E6A441248936E6AE
:1035F00051FB37F6F971CE8E3BD398FF403C9D8D41
:10360000E1CD2FD20408C93A2EE933F4CD9DFBFF5A
:1036100068B2F87EADCFF5DB10C7FDF5629DEBFB20
:10362000801268AF58FFD5DFE07D33BAF4CF314B5D
:1036300023DF76A750FECFF3866E336E0ED6001DC5
:10364000C759FFF0F8DC678B987F1DF31614F1BDA6
:1036500004B2FFBED7C936DCFD3502B91E840DFFAA
:1036600028FAB71ED9FDB2887C4658B39B7F20024A
:103670005A796A066FDBFD40DB8C90F97C86A4509A
:1036800042DA62F794BC82CB2CD347B50640E5A85A
:10369000A64C579216B8096EF008DDB2F9AB7A84E1
:1036A00012030B0AF9284C056480EA31FD50C29DD3
:1036B0004ACB4508883F65059015129404D04050C8
:1036C000B03788B587A7C62003B808A3BF3244BB6C
:1036D000A2FAC2026213E0F4EC1071A3EB86213F60
:1036E000C7DA42B10687C4182BE4756C38E30A7C4C
:1036F00090E38980113D23603BEEFF0212F6CC0877
:10370000028CB3451A206AED2C93DDBD68C7E8B77B
:10371000FAE505819DC6C77F9E07B93B98412055B4
:10372000F6802CDD229F6CCF48FCFDB7063FE3E11D
:10373000913659A350FC3167B6FFE8FF61F09C4217
:10374000679F19F6072BDDF430FD92778060C392F6
:10375000FF6C3EB8F83451C801FB9E46DB88FCF88C
:103760008305C61D2AC3633A4D657306C0F862FC23
:10377000967E59DD5F38642CE54051A618DCFA804E
:10378000DD63BC35B280D5F602D6C3283EB1FBC39B
:10379000357E373116F2B62ED0D890FA57F785E835
:1037A000C4BBB76C66C34DDD2970FA2093FD6C096C
:1037B000088BFD829EE6623AFAD8A8FE61E5E6C66D
:1037C000A8EBB5032DE7FD637AC2626B57406352E5
:1037D0003BBB9FF8FA1BFBDF5DB0AD954D90B1FF91
:1037E0006D31CB6F31D896A188FBCC31F0A5BD04EB
:1037F0008F36DFD8FB25C6DC38AF62BF215B84B0D3
:10380000F9896B20672CBF40574C1563AD3DC0BC98
:103810003115BC0A88B24A78FBDEC4FCECBD162028
:103820006C2BB180CEB78DCE4BA4FDC7F698C7FAEE
:103830004BDDFFD0A3FD912887D3AC8973C136B18E
:103840006FD932F9C2078CCE59690886DF31DDD4D1
:1038500098FC853D6BB208402931000D3BD0FF0834
:103860000CBCCDD89080C6FB49D8FA0A83ACA5EA37
:1038700040B1E1BF36028010A227F8F3057CCBBB34
:1038800004F465CF20E1AF5A2DADFCD48D02D16A8E
:1038900079120499AE0820FF79A2A87315976C8954
:1038A000F9BFC47ED913AE49082CFA04300F0614B0
:1038B000A215FA04535A410B1FE1F114821602C5F6
:1038C000100AFB2A0120800DD2DC06BBF1B3EFCE3B
:1038D0001840C428A07CB6D6820102C6974830F5AD
:1038E000D46694DF50E260778360FC80BF933440FD
:1038F000447048437B1A1040E36E01110677F7814C
:1039000042BBBB1802C0DDF80C0360DFFD1A803833
:103910001DED159F7CFB8BF40C8F81101E29E20B93
:10392000D7360C90FB2FE232537DF3806B92A0CA06
:10393000D7564D40823A73D9DF081E41D7EC65ACAB
:103940008EE9BE32F5094004F165F6E140D8A17672
:10395000BB4020A6199F63BC21D1F18F92BF14EF09
:103960005A76E80878F931EBAB1117E57D4088ED20
:10397000D1CB71FA1CED7D019FA675E6097AB18065
:10398000D78C30D39019E3DAF22DEF3BBAEC47D75E
:103990003510F9046E407FEBDA88CDE34176B0BB99
:1039A0003DFC19F80C982E41AE58D72C7410673B8B
:1039B000F7E0F897FA12065B9610612BCB9A027724
:1039C000C0201040CA0288D531AB160008FBC73AA8
:1039D00022CF2E79A05FC84C4FFBAF08FD0B787D3E
:1039E000F57B048A7E2FD0BAFED58E402DF6B9AF76
:1039F0000261069B0E71C0E6C4CB9BFC730C08FEF3
:103A0000427DC8300820018AEAA5B0C6F7968166D3
:103A1000797E7DD2C6132ED1B1C8BDD9964049F961
:103A200020B56E2D08167760E6C04018D7E8FA9CDE
:103A30005BE6818A0BD26424CF349772883DEF22F3
:103A40000120849FABC3A0BDEBC039E04001DDE89D
:103A50002CA0919E70A90340F608019994A5FEB38D
:103A600020C13DF20360FAF3F31A39FFCAC2685F5E
:103A7000B70C3B952F505AB3FCFFFB1E80D303704D
:103A800049813CE80806F14E2C78CBD380A63FC68E
:103A90001CB3802CF094E0D3B02FF669B9180479E8
:103AA0000C29A259FB6BFF21986003684FB31120CA
:103AB000011633FA18DD6827E0F83040677A1909F3
:103AC000D3FBE14503B5DA4076C0ED815882EE4084
:103AD000088C68E2A8FDDEF05DEFEA6B2DE353B1E0
:103AE00041FA2420656D81BF975188E9EA7A031174
:103AF000F148CD44A775F4030A42415A5A15A5FB73
:103B00000320C419904F39812C90079132F391F31F
:103B100036563D1079196E053288D31929D342F3F0
:103B20004343F3EF38000F5E66F8726FE7C265E556
:103B3000189BAF1FE5BB250665E6843BFA06C4402B
:103B4000BEC7D756DAF8AD195804ECD351B01F46AA
:103B5000C0221849F3143FEC103008E4B305C9FC47
:103B600016EBE0BB53D08809D2D30870C60B61377F
:103B70002C027AF6FFEFC07FC6A502496168CD1C12
:103B80003482FC6380024061605F4DA2890467BF9C
:103B90006611150110C0020648BD728CBB28F53FA6
:103BA00012EC2C012A510AD52FEE219846EF42B390
:103BB000C0C9DD546079E5901A6DB2BED7B31AC2A0
:103BC000B240C0ECB7DAB1D215F5B20717BE8A9889
:103BD000EAFFAF1006C0C54018005E000F8259F31F
:103BE000DC83FDE4413CA001E0DEB30929D341F9C7
:103BF000C0A420C678369F09A6FCB38A06ECAFC6DF
:103C0000BB42C27A7C46C10418458F130DF68089E9
:103C1000300A7019CAA0027FFDEB0B0AD60CFD9189
:103C2000C03BC60B6204D73B839619DE4F52374622
:103C30008429F642136A9602927F56FFC74A9D1165
:103C400075448069887998AF4E20A92182F5173193
:103C50007F323C90EF01344067E90F68F3800781C1
:103C6000B21E80C872460F60F3C43D983D77BB9882
:103C700006C8026F5098F0AF9719F33672F0FF9CA8
:103C8000BF6FF7981DC1F3BEFB047659E5EF19101D
:103C90000806024B8983F69AFFBF6EAF5FEE0AF902
:103CA000FDBFCC0937B388A1D40D7D28A0101681A3
:103CB000798B26DD48DBB0C43D9832D7014674E1EC
:103CC00010038DCE8051FB26C29E5C5360200CF306
:103CD000E2FC98BE7FBF216830C52233B010864415
:103CE000F218482008A6261030C435F3142764863D
:103CF0004048830800942CA6379F02C542082840FC
:103D00001F8405BF02A81753F3CB4E2230462F392C
:103D1000CD4F089B319FC723F998AFF6EC8481CB38
:103D2000EB4145F990DEE5FE0807C0201804837CCE
:103D3000B3038001393C07F0091CEBBB61F6C838BE
:103D400079B47D5F7A980648D693C03F8E30E5C936
:103D5000711DF3BC5EFB04F0268006C0E098F913E9
:103D6000402201719834F3D0531AF86022B40D3414
:103D7000678CB486120AD02FF92D7FBFD9933002F9
:103D8000F368AF243B8B571504FA9848F7198C0455
:103D9000840108A7BADA10621B8CF3113CB3D7D7A1
:103DA0009862702477F030F5F3122420A5F8F6FD20
:103DB0009E98AFF47AA50359100FEB6EB85D9DAFD6
:103DC0006820036D93891F19E4981E5B5309E2D3A1
:103DD000F3BD98E4AE415130F9DFC4AB9E1119C375
:103DE0009B0946CD7A6608EF875F016DE598DA3763
:103DF00010E6300C8882EE5FF8A815C0BF18010BE2
:103E000050103DB390B4A0DC0A5B664BD3103CB5B8
:103E1000E6932602EDBF792E2AF09805C673438CEF
:103E200080AC85BB2E90CA903F5024984043689C3C
:103E3000424905144F46102258E5600308697898F6
:103E40006625E398EB40D7489137428805FD7F66A9
:103E5000BB6A4AFDF7D5FCFDEA26802F46ADFC473C
:103E60001520DE0604867F4046625E98B502F19812
:103E7000D36DCB3060FEEC5029B3AC7BCAD51EC0ED
:103E8000EFEBC0013CCD0807CF1C6D8907D3629EC4
:103E900098B5C0E130D377CDCC86846EF60CEE5F5A
:103EA000C9C8DFB126C0221A03126131E3A47930F8
:103EB0008006EF33F323F1808008C4BC984B31D3E4
:103EC0004E5330A0B316C1C64098FA034A0A4C219B
:103ED0006EE4C2FF2D1CCC3D41192055F82C9045B5
:103EE000947A50603BBEF0C57C988FE5CABC6EF9F1
:103EF0004002FEED21846B0D4194E5FC03E9A0072F
:103F0000F450825ED281643D5EC59D20F302082C90
:103F1000F38053D598F2E5A5B776FD9C758466BB12
:103F2000581D0FDDA4DFD0FADBFF41BCC5818DAF8A
:103F30003CB887583BC79F98F45FF56DA0440A666C
:103F400026CCD481FE8BF85802041944938A53BAC4
:103F5000578F1BE9A40A627E98D7020636EA108BB7
:103F6000BA39E706C122A62360E9840C82B3287718
:103F700080E59FC6299840130A3F5FA021140106DF
:103F8000C7C2027EF61FA0847E78C8A008340FCC7A
:103F9000C801C2DD4DF0113508203910406089811B
:103FA000440401177FDFCCA22219E146A05E9801EC
:103FB000AE59E8DBE67807BF7F2EC836E4CBF57F45
:103FC000EBEC18F8EBD7853D077EAF100106993C66
:103FD000F3E039AEC42630A33108CED2AFF3C5B278
:103FE000C81A06E3BC6BBA695C16C67FB248A0FA71
:103FF000BA32E23D629543607C400489B08885F323
:10400000185FEFCD824146309FACAF85B0A631D36B
:1040100040237DD028A2013479C1DC23DE44016431
:10402000C970FEB3EE77B5A40941FE71801192B25A
:10403000E5494E3796116D219EB3EB0401068018B9
:10404000BD11080710047F3C30224224402909EFAB
:10405000DDB8FAE7987AC5C0B21B2C62DA468070E8
:1040600023F6E40F60802396C8BC304119565AA845
:10407000F23038FE17309569AFE5CDC05D0B8C8905
:10408000F459042F85DBE63F4D153482B83DD3CE7D
:104090008BFB45FC5EFE5F3048E498F89840146462
:1040A0001029B811318846E058FD9B3CB6B13D1946
:1040B00041E4B02026F9D7E00B9DC2FFDF16C4080B
:1040C000183DF361218CDE4BA49819B095569CCC19
:1040D0001D69204FA0093512D746D053F16C85A435
:1040E0006219C832CD04D5FE0A3D5F4497C87B985B
:1040F000216C24F033DDEECCE6988B4603C9D3392E
:10410000C42FF3F198F29630402218B50237FCE242
:10411000303D39FFC8BBFDF36A07CB1E0D7AD20CC8
:10412000EF467807764AC8F3F501399CB4EBE041D5
:1041300030953020C43D9301B641C85C30B962A2CD
:10414000FAA408F206F2461A4003F7B4653CC19798
:104150000CF33D84480410349E67D70930FC5F049B
:1041600098400BEDB74CB0B3C803EE49224C6FE258
:1041700063F8474504AE408A2950F59704554566D3
:10418000FB9F843F92C92006BC98BDE911BF048DF6
:10419000D132C8162421FE6F3031FEF398F3D57961
:1041A0001B0FE477A5B834F3C2A7096CE620FF3FE4
:1041B000988B30933D00D3644778FA9802D79A30B1
:1041C000C0F92D9DAF76AD3F3CD449C685FFC37E77
:1041D0005204804135154C7CFA45833BC69B7D617A
:1041E000FADD19D082186F7D012CF60210A2909E84
:1041F0003B5B495A1267BFB305B21046C008E818C6
:1042000001232F8BE2D49882F3D76002D692BC159B
:10421000FFA0080455FF91034023618904A25D902B
:10422000FF16D0485860134122D801A0867AC8A052
:104230001136E7308840485DD0E88DA04178B35111
:1042400042C41128DD4CA4C87DFE6D864E7340BA71
:10425000159746C26E6920C572C8ED367BCBD17109
:10426000509FB90C3A68D6FFE05717F55E1804A1C5
:10427000026E80F58BC0D9C89B5839083FC898C9D1
:10428000BD98F077043D5F394483C67EF4710EE03B
:104290006CF378FF84919D16AE11E9918868A210A5
:1042A000AF06E0AC081A6B1321ACFEFF2E985757EF
:1042B000B2D252F8127AD548020510B33B5DDB64E6
:1042C0000DBFCCF820B38110B840A119B4838C087D
:1042D0001093B4F67F61AF30D84C1087E87E8474B9
:1042E00057C11D3DC130DD92C85F62260110CD125D
:1042F00066FE67600C2634405C3D87180F5EA57A29
:1043000039D07D56100F62809FE798F23D322AE344
:104310003DB83002CBC84F2E982630EE80F8E30629
:10432000C946F20C7FDF8CA8B02148E3C4B5AE10BB
:104330007643C86E4D779D98EB2184BD2DFEFF809E
:1043400009201106D18218DC0542B3E6093412BCFB
:10435000480A12AE4F3EC4737C30CA0116FAE050D0
:104360002BB39188F626CFC182698B6012EB4C800B
:10437000459C81F8A0112C0A060984E0E20B642414
:104380007DA081B09000DC50FE1301220D200805B5
:10439000CFCEC821B4FF3B9830C82D751135E3EB63
:1043A000AB60F70128812C67C838FA4646BC307FDD
:1043B0001A6AEA6F03DF2CF1EE9B15CBC26E373021
:1043C0003FE0671CFB58FF30ED0D37073066F57096
:1043D000EFCD8238A632DE4BBC79A6CFF098EC9CAC
:1043E000FEC8C201300806C1FF6E98400EFE9798C5
:1043F000F8E1DD194C26036885F748AF34E03588CD
:104400009824F340DA82319B18F601086FC005CC7E
:10441000C813D7BD283D930216C0247230612D0DFC
:10442000DF08CDF2FD47B066C8080D09FEAA00CE30
:10443000B480F34010610D24BBEEC332319B0E8477
:10444000102730C804A6228E1848F3D34FCEC8D800
:10445000FCB85DB3C8205E549D1963E4817A8BF08B
:10446000B950024A1668CDC804A966A8ABD9502C29
:1044700099C820D33BD49810C65A4B97FBA76D76AA
:104480001E9887322620F3BA90F126E5B5885AB3F4
:10449000508DB3DB117567DE9868EF493220F376F3
:1044A000AEC284E430FE4B21D7B340FC55AF13F9C4
:1044B000CCC1041801D21640081630FE956C11EBE1
:1044C00010A040D04B58292395084502C323F393ED
:1044D000F760044C80667BFBCFFB032FCC55A3B366
:1044E0001F68FFB8FB2CFCCAF3403C3C6582F3F329
:1044F000F43ACE38D1D3DCE0CE17F3201B66F57A40
:10450000E6B11C3BFF38FF243893C38666FAF9CF27
:1045100058CF04EFD1DCE0BE9EE5B1792CFCBEB1F2
:10452000FD63CC1D580E088B9B10F9679A5165C32B
:1045300018F391B1E7E09A469ED339B440EFDCE13D
:10454000FF206091FDCC98FF1B9D2C09014C34C7C6
:10455000CE163F683BDBC0FF276DBA3CDBC305FFCF
:1045600004B2A2FA8CC0AFD83F30EA6A01527D3D56
:1045700002F36E6FB6CD59C3D006665A5D01C225EF
:104580005B40FF6E6C2C4B77F98DF4F66DDCD8B682
:10459000EAB6D558E6A2BA02F0E04D7A844527691A
:1045A000FD9170FBA1B9B1258F2DFF228D6CCF0A33
:1045B000F5E541EDF3F0FEAEDA2316DFDE8FF715F9
:1045C0008A91B4D96517AA8B80F3A9FE80D3746D44
:1045D000C819BC11A240E5E6400121D4081C108E88
:1045E000E11805DA6461267F9E98B02CDFC2605C1A
:1045F0005E08F0B4FAF8E01E8242010B1F052C8021
:10460000C70CA09F30A6D00A084AF64021050173C6
:10461000B36003029806A181B2DBF5B401C7A7B06D
:1046200058030C1FBAE331527780654A6BEA883F22
:1046300056862CC18100819792FBA7DC0229753D2B
:104640001906C05089EF4138223D33AF14A502B49A
:10465000C0EE085240FFC439E0425F5C458CF15C1B
:1046600059E3B3E60836B3202BDED9D0FB40BFE6D2
:10467000020D27EC41F8048247F82F3C44FDBA4074
:1046800089F9E69FF661FEACDB34F92DE308457845
:10469000891A5479768F99FFB9ABB768D849AD3884
:1046A0008B23093831518E7C9DDDDCB0F9B9EEFCED
:1046B0003A7AFA20F3341BE92CB3622B65A03FACA5
:1046C0006432D5AC28AEADAFFD9619104985B65809
:1046D0006DFE88FCC8CF0135087AF2FEC4BA6CBC06
:1046E000FFC5965B01325FCB98FDE119CB2F1FD53B
:1046F000B202A3F0400469DB170234B6DCD3C5BCB8
:10470000E2FD5BC18019A95F58D868FE8F2CE701D4
:1047100024F3A23D5588B1FF1EB1CC736B165A9895
:104720000436E81CFE2CDA62FE947E5ECCCD6AF97B
:10473000B72040D1FB6EEF6B9B84011F251AD34439
:10474000898BE7190B16FF0C32E4D958FFFF49613A
:1047500067D6829BAFF77038FF615F4BB9C81A5DAF
:10476000D118D6B1137D84B97299D518B7948D55E7
:10477000E8FB851DD263FED8B1984FDE7FC0636130
:104780002F5BB1F7C5F0FF4662EBE0040ABFCB0434
:1047900067ADEA90FC4BCF6C46100269AF044581CF
:1047A00097D3803E6AB2D8E0FA9FE859021CC285CE
:1047B000FF40ABD358F967AC880471B70462E05589
:1047C0003698FB7EDB2E9910DAD063ED9F68FFBE32
:1047D000EB5C04787EA0024FD35C6D31804FDB36FA
:1047E0000179049BFD2C60FE7EB804807CEF1040B4
:1047F00016E1AD3DB58DC6EADF05599C1595EB3345
:10480000FDDAA6014023FC77F3C304D02002CFC514
:10481000F6820D89F5E711D4CDB1B0928AD294FF1A
:104820006A9004253C0C58F0BF600424F909200369
:1048300063F80240E048417DA8300589FB0A124038
:10484000A606B30A827CF50C08C1303D501079E30E
:10485000FA1117FE80314B066791EF2C401E0A6655
:10486000EB41E3C43C20FFF242E00C3C43213162C7
:104870002CB328C2E8D51004B2E496069A89B6A9EA
:10488000F9E0393D7E06B8FA1194DDB760DD80B5F8
:10489000F2C90A1258FB97EE7F02FB536E96CCB317
:1048A000ABE942BF3BF849B608A51DC0F009A0D945
:1048B000479C7B232110178440118AF62004DCA634
:1048C000CB6F9930F923CF9372E1374B58D2085709
:1048D000CE6474FF20C445DB848CF21A0CC48D04B2
:1048E000BC4BCFE8E776C016E951BAADFACAF52B52
:1048F00002BABC04CCEB9B09372F18DBFB4898C2EB
:10490000F9FF909FB2C0CDB8B570F8B3FE3AC3F3CB
:10491000371A4BA124C62D48206CF34D2DD8F98AA7
:10492000719F8F2F1A4059D3109FA4D8E8FE92D7B9
:10493000028C8E4C6359EA666C76ACAFFBCF3FE5D8
:10494000AC37696D6046FC2DCB15785D39154F0C81
:10495000B0808FED3ED7DA01ED6892A5CE84F8776E
:104960002080E5B284ABD6080146213267B1081E2B
:10497000B9B8A8243B9F48F92FE6E5EB20C9DB9C9A
:104980003F8F31FB8C73753D8B50A5FDCE91FEC8DA
:104990005CA86AD8BF84FCA301A011567FCB7FEA34
:1049A000CB1A77BC241E9431B94058A0A105C11977
:1049B0006ABD61D1FF33A3800186E094FFFAA8D9D4
:1049C000F2200CB10631DFFDC0FB70413CCA50D370
:1049D000E0C2FC18DC0360F3940CF3EB3AF36120C3
:1049E00040F330C2D8FDE5453422A766D323D7F67D
:1049F0003726BF53EC4C8809417C11A102E0B30B70
:104A0000036248C029AF2DB3A738A6893041D7B07B
:104A1000FAFA22062001CD3D88B3CFC20481584363
:104A200077C75B6226B3FEC2BB8272F20A7AD8B342
:104A300046E6FAE8F8E0013C1D5D1BC003AB360713
:104A4000F0171EC84EF30FE081CF68B4E040E07D60
:104A5000F91ED0037A37F3013D0809C612395966A9
:104A6000D33C4FFC69F330F0404606C9CEC1EA7A28
:104A7000F388C4BC4F51C2FD66A2203A5BF2306598
:104A8000B7A7BF3DF0FA80413040E846C208B3D036
:104A900041BE82F2B358C78981B320194638E0B5C8
:104AA00022809009B35DFDF50B643C3C8430227894
:104AB0009E66A99112C2CAE684502893EC08EF3092
:104AC000621AC7A224FCCC5D0AEEF02804F58B41E3
:104AD000AF818BF00CA01094374CFD8B739A1CDDCA
:104AE000640CB79BC9F536979A12022691BEC0FC9A
:104AF00086A8F3F0CAFDCCF0CECC601002BFFF0850
:104B000066AD66843FCD1E2DFD7C9803DD0C6110E3
:104B10000E0CB452FCE6463422460496060150962A
:104B2000FBD30D9011303FF3CC91FD469A046611F2
:104B300025F5A906EFB3050260019881BE31DEDBE1
:104B4000FF8449362046E3C17448A00D981038F11F
:104B5000210480ECFCCC7A10BB20C5B38A44E1B3BD
:104B6000B832B261DB426B81203D164129FAFE98D2
:104B7000BB34CD98976690203978510FE69CB423CA
:104B8000EDBBD39816FD5840F31EE0F31EC001782C
:104B900016680E2C6B19FBC64E91C1CA4BCEA046AF
:104BA000FE8BCCEBFF7E4B5B0669C9E617316FCC01
:104BB000470C82F4F308E9FDB35F78B744F298FB41
:104BC000579FB360110C8051B3B09B198005FB4413
:104BD000984AD584F28B27C65C100B645F11E309F9
:104BE00030024AFAAA239DA26D2C3FF0FA2818033E
:104BF00016D88E8FBBDAA00802BD981A7F2D3D20F3
:104C00003FBB0A9141206701E61520D888FF65CB9C
:104C100040182FE56C7BB22DFBE58306C616DA84BF
:104C2000D706A0D27F8E0C457E66F5FEE743174E71
:104C30000B30DF4ED71A209298D68295F4D0B74920
:104C40006923922EA586F60528C12CC4DC82DBD709
:104C50007F88F898E1FF53601BF62198B30840DE87
:104C60001360428CBB64211BFD80A451B7C0249308
:104C7000BF01E69FF3A08B82E97FB530B3027323B7
:104C8000045F89772643087D82D55042C08010E2B8
:104C9000041120AEFA33F8FFE0014450F27F1730E0
:104CA000176A2650921608EF1D98F13C109FA41623
:104CB000E09304A4D3797F9D8BD9841EF39C58D3B1
:104CC0006041ED36A0FF020634EB64D7F3A4F9E5AA
:104CD000C671FDB1B212565E066FE67F088E6102A4
:104CE0007B4F300898FA9BC010C425B3263A3898F9
:104CF0000441B38C79B399948C73D32602B31361B6
:104D00009B80D3859A794890FF72122C04FE09305B
:104D10000148F8A084058097FD1D2012DC30FB6857
:104D2000802D10883FBE17B0083642D39E3D280123
:104D30000CA05FA79EBB48112931E6FB200410B4EC
:104D4000FC1BF1AFAB66664502C8E40B10B3517AA9
:104D5000986832FF33B82F8D1ED6EAA09C309B0C8A
:104D60007C3C3BD5E508D77E7B4B100383610F6FFE
:104D700094BB8BBB03F9CCE8FCEDBB31CD9CB2C836
:104D8000BDB8447F0430A54C69059DDB6409C6634A
:104D9000870B63C001CD10B61639A6211362F473D8
:104DA0007C4BFD4A3D102DEA35E566D020A8E00198
:104DB000EFE3E8805133BF320937D34113665582A0
:104DC0002069F4CEC75D2FF00C814820B801FC604B
:104DD000363C9EE2B683CAC8E130D4FC78200FE4AA
:104DE000010C366FE5C461D3FFC5ACC08BC8E8B415
:104DF00001CEBBC002EF7A98011C08A83519FDB698
:104E000003B69FCBC930204E771916BF87ED884176
:104E10001040A8F7400C88794B0AC2C6FE9F80401C
:104E2000702009FDBD213002461BD3EAFC86FE0737
:104E30003022CB4884B365BA0AABE485112F3379AD
:104E4000191341042C917E4FBBBB83600433B3051F
:104E5000B9F8ADFCFB438446C01823AB178E304F26
:104E600029228B88300667FBD5350AA180A45F050F
:104E7000CFF3318416C4FF440240090A214C84FB5D
:104E800010040680F92FCCB8FD367235F81B5E0988
:104E9000302FC0D5B7159219FA89FDD9CBEDA5F100
:104EA0007583BED1B1DD17D1AD193C969A0AA8E53C
:104EB00081F530B67E99D5767BC8080631FB371070
:104EC000D703E0FEEC18F8A4110589C3CB13646581
:104ED0002E257868D5DE980D9B9C1B0180773A675C
:104EE0000902605CDC9166AF14CFBF42F322482018
:104EF000FD05B0FF2410326A8F088CDE9D1162F12F
:104F0000BC0C8C82452B41552104A8F81C5110770C
:104F10007D8C1655E9E645C910C840188B9C412187
:104F2000428D8448ACF9FBE28807304013CDC80CB1
:104F3000B7EDD44050E4E0792C8007F4F712C0813B
:104F400078E4C8DDF3F1E99839D338B51C109DFC3D
:104F500080817AFFC4EDB2C1F3C860DD200CE69811
:104F60007FF26F1108264B49114CAFC82441F20360
:104F7000C9640C91D4BF703DC844C008DE4B65E5E0
:104F8000C81269E609D5BB046AF897117EBBB32342
:104F90006441B3C820D714C8FE399360420C881707
:104FA000302170FEFE800935A24601D73AC8803113
:104FB000F6C192285FFBEC980832067677C809069E
:104FC00067039240DF102AD2DB8779FD0A6160A275
:104FD0009F8C6714126CF866F999999B862065E698
:104FE00001A966A9F869C27DFE9CCAEB88F9E0DBDD
:104FF000C506345CDAC8E070B406BE98D93880DFE4
:10500000CC3B7F2006B66BB83086F3C607E6D503E7
:1050100011160E609C99B0FF088113466E70BF1088
:1050200080303FD198A0B60692F9826CB38C21B43F
:10503000FC689C12D0BB2A8248A698B322DA81FF72
:10504000A24830042BFB20103D7412C28476170254
:10505000D1B320BDA03701F68C20848023DDA111BF
:10506000C0CB1A82F3C880D640264574C20A622992
:10507000F62D99C0F860F63C9007F0B9C82BF39470
:105080005DB2F7772D30E27830D849FCAFA80098B0
:10509000772BC0017B98413C72F3169CF3200324CC
:1050A000382C7C08FF84230E0664681573F3A4690A
:1050B000979178E55B0237F77F81970DAF98205D78
:1050C000A0109DBB04012BD342FABF79FBEC7C11ED
:1050D00066F97BAC0586C8F4B384E5B329B01399AF
:1050E000C0C27D05200426FE98A6442029304169CF
:1050F0005FCCD013628605DB17FEB830DD3510704B
:10510000C737EB8F084000D9E611A4B309ADA262FE
:105110006F4A404F02AFA010307AE742162844573A
:10512000C6363018FB27C238B0D821CC59F00469F4
:10513000E080A365FB9820F80DBF519616AAC01E0B
:10514000CEE4300276DEE59138F41CE2B91AF1398A
:105150007E4AC5C9CFC86001300F10FFF7A81105FE
:1051600080E91595BAA320649E0DB034066EB8AFE1
:10517000860136052D66F523FCEFBB048866EA132D
:10518000619FA0B5158A89F80491317C1A2E698C2B
:1051900074F8160142A7FC6012812408B566D9365E
:1051A0006E00B4B0010260BD4087165E4BFD200862
:1051B00004028C446FB428FF7F1A30E6C80FFCCD80
:1051C000C8304610AF1930DFB438ED3DA0B304BD90
:1051D000C4D3827890410CEBA007029D3003581095
:1051E000FC30E1F0FD844831C38D0F667DC306C0FD
:1051F000801810AF8B986E39FF30420C19B422FE24
:10520000BF64CB98376440F330C1F844EDDC65B738
:10521000B30858FB4B8109D93201DDB1F7113221B6
:10522000202EC00B62B341B0BDB313CA600286E743
:1052300030D0FFA0EE090480FBFA27FD7E8418031E
:10524000FE1B0D9F9EC8A00405EFCA5E1AD47CDF2A
:10525000A10430C0260F440250015E6BCE0411023F
:1052600078FF8CBB7CFF8C4DBD590D181E7ABC0499
:10527000F8FCF2C82068FB53B7163264F5CE370944
:105280001E046BFC8801B13C05A931C8C61C19037A
:1052900079FD5E980206BABBE3A3BC987A69FC88E4
:1052A0000559FA10BE98BF015DFC2904129BDEEE81
:1052B0008809308BE0D44E0BD05E982721D6501051
:1052C000AF43AF5846982295F810EB14C0273D7BAA
:1052D00026C044E540D6E5D9C85E5A6A11F41031BB
:1052E0004116879D042D804C201D0263C810880F35
:1052F00062428C20AAFF21C0FDE0813C90EB01F1CD
:1053000080CD984B663BF50608B930E8C1010DB574
:1053100005CBB554AB68AC06AFC8E10F0319FA0F63
:1053200062410CDAF6E623027899F3011C32BFFDE4
:105330008DCDB87DD3CDE5FF9F306DAB1D5854B3F7
:105340008CADB73FFC9B5D400CBF920295C440E71B
:105350008BE4C80C88FF0F89304046B3C255B304B4
:10536000C530ED98B208A8B306ACB38449BD26B3E6
:105370000BAF6160A511B05324D3010B45B3FE48B8
:1053800002D8FAC73CECD4B358BDE9E0EDFFFCFF0E
:1053900066B580EE3F8F8C75E0F32CDED91724C6FE
:1053A000E05BF358FB018243FF98FFB128A3663806
:1053B000D1C71B39A3FC0B56822033FDCCC9FCBFDF
:1053C000D19EA0E6E23EB56DD6D16E66AB04E7FA9B
:1053D00023CD5190B1011966442BF73FAFB1085B63
:1053E000B18013F3C661FEB02047FACCFB7FC252F6
:1053F0003736D2310BF5FF4088FD328BF9E5E6AF49
:105400007E6C7D0469B030A3FF5E142E87B1DE226E
:10541000E733A6B25ED9F690AFFCD989208B760827
:1054200013FB0875E2808BB63450F91A7913E698AD
:10543000722DD8D5B341669A81FEDC10CE2EBB33D7
:105440007D7CDC8DD99BA2B0FB8FC5381D41CD473B
:105450003D10637F672DBE5EA6214002207B980829
:1054600098F8FE6C2520128BAB88DB428C4E20B85E
:105470002280C4BE822A6FE002105BE5407A4301BD
:10548000D15A48A1F8F5F9D01280EA03FD68598392
:10549000F90204140850DD31F3286C09E56620D9BF
:1054A00038A504B306E9600DE0B9115613FF201BBF
:1054B0004080641018FDAC00FC8FC48A4901296645
:1054C000A23DFC4088F20F480341453B3BF09DC0A4
:1054D0002E30FFA0140226C40DA0F4812880845E23
:1054E0009D709D22186F3C1056EDD8FB12BE91E3C3
:1054F000B363AF73F73C6696D4117F2BBF1079214D
:10550000011135BFFBB61C4177517E0DFFEC679E44
:10551000FFED9002E05FC7E9788B1717EA8D06F779
:10552000F1FAFC0610C53A655D90F692A148997EA5
:10553000DD669E63D9DA20FA71E49B972E8D89F699
:10554000188BF5B1BF2F5240E34546BCD0FACE339D
:1055500092CF293BE9EC227CFF96B301126D5FBA32
:105560004108CEEBD776FF78FCB823F143566BB1F8
:10557000951E7080828CE7D5AF10BAAC08CE3D92F4
:10558000CAE861E6B61540047EECE3046C1FC5F87A
:105590002B593BBD32D8F0F8706967B67F98FD593A
:1055A000ED8AFEA442D4EEEF3B66ECC657DBFE78F4
:1055B000FE1D3C8ED21AFB392B8D5BF62DCC6CA6D2
:1055C000D9FA77ECE7F3327247599F11BEE5B4F888
:1055D000FB6A14CE0A2008C5754740A0046D4D7AB9
:1055E00068DFB97EA0FDB961E9FFBB3E4038612F9D
:1055F000AC9802C3F7CCC0F67974F9CF30989CA56B
:10560000CF6CFF90FD4FAC228CB1BC75C510887F6C
:1056100009A0FE69F6901AE5C29B9BC8FF040F5EC5
:1056200003C0693AA6404831667236333496E58045
:10563000679A8EEA1480F05B00D9F9DDEA6306A967
:105640002FC738E6B44076AA98FAEB944039C910CF
:10565000679C7133633D38D75CFB9831A7A5761002
:10566000E68D79C99ECA3B98E8FE8C0BB2D6D33939
:105670006505208BF50489AB5470F2CC127BCA3CD3
:10568000EA706BB840566403C63A59E08BB7178886
:10569000FD16515BBDA8E904B8D3325A88F6C4732D
:1056A0002E801D91F033C26ACBA010319F2098F953
:1056B00080406BCDCA8210B84E01DE7746AF21FC28
:1056C000E720025263F6D72840B236E4AA81B9C077
:1056D000F380EEB4FB60CD5330D9B2A20AF6249B1E
:1056E000660232F4160344240C379F29F7FAE8487F
:1056F000E0DBACA5410641E090B30C09B0D3FA94CD
:10570000EB126AC1022C991965FED0F91150CE0135
:1057100002D7AC42C424823A070C015FBF69E6702D
:105720002019CE2290E48510189F2062A00840F82E
:1057300018212A81917F1028A3600AFE8903208006
:1057400006D0F98673E001F12BF8A3413885605744
:10575000E6B325B295E5F31CC9521C0248D9802D49
:105760003F1D30BBFBC3EBB623FBC0DBE90280135C
:10577000E3E6C7E0D61004288039FFC47A449302D8
:10578000CE5B0409789E1AFD14CF0CBE65F9E8E6DD
:10579000FB22B3BC806AF3B8FA253C10DCBC48EEAF
:1057A000B914ECACB1FA9E3180351714E48C7869E9
:1057B000EB4111257B3896F99280F3588ABE40D090
:1057C0007E0B550E20C664A0C7195E51BF04E6D8F3
:1057D0005CFDF3A0751B21E2C4C5DC13F3F8258240
:1057E0001162FCAF3BF9F8FD0A0C1EF2C134A2FBBA
:1057F0004A648AFAA3FDEA1359D404E4A82C649BF2
:105800005ABB2D041120B39C10D8C0FCE6ACFE029C
:10581000578BD663F1BD9B2064FBFD28F8633A23C8
:105820006F9627625D02C5B96C30B3FC4CD0AF23D4
:10583000B8DA1433C8CFE5F794A038FE6279FA23BA
:105840007D360050C6FF6F806A40BF085559FBE6A1
:10585000817FD2E1ED10DB763101724801CE4B55EC
:10586000402096F60CBBE309843B61BD1081227891
:105870005E47FD7DEB9C08607A47F970FE81A005CC
:105880006E1A9E2DA914A1102E445A7BD268010DC8
:105890001167A0A0402C26026A1ECF0188AE4210DC
:1058A00048B91AF345A608BD60FBCA6F7F0C02E237
:1058B000AB1DA3E7200C8E1B52EA8218DFFFC23813
:1058C000FBE041303655C0A9B360B91E04563A8D8D
:1058D000B5B30F897C90EDD3900758F40E681E3055
:1058E0001006C25FB3EABF60679918F952300237F9
:1058F000B348A4E02CE8B90A652121B331211994F9
:10590000ED300140556221E3A788C0DC4418F00364
:1059100081089C02B3FE80D70740DEB8DE3AF5313D
:1059200010E7232240201B6042627E34C808814574
:105930008D7E9F4659CD1020F319E8B3444962FA91
:1059400085E03D36F9F08FE00FE4012C8BA03102A9
:105950001E6509781688E4DFEDD33C804667E0E4F5
:1059600098F307B01B060494F320E9D9B8FF4A7FE7
:105970000C38D68822313B3CAE329B6DC30254D3E7
:1059800082ADF4350BEB8B9903A0FCC0AF32DA7F0C
:1059900020093BE0F7F84581021109366029DF5202
:1059A000093085066AF5AF4DE1920824BB2D4D7D87
:1059B0005548BFF8F01010993C5E85141A4CA82287
:1059C0000DD9F330FBF5ED5014C1B972457E6681F7
:1059D00050B108F2636CBDECFAEEAD672F6608E5D6
:1059E000BA9ACA350059F8065D597ABE80FF5F98A9
:1059F00020EA98702566CAC093D561AF4A1C80031F
:105A00006077B63E3C086EE9EA64C806DDE480E9EA
:105A1000A84026C80108A228AC6FB010F69898F8E4
:105A200046F44BB3286F3F2023A7C051EC42242CEF
:105A30004F9016303B16100281B3F54C8001DEA466
:105A400088289AFF937C13EA532FB3ED0C84E7D692
:105A5000FE09221C18C21B089681FC27BFD1021028
:105A6000D24473F6812035D130ED984218DB087F9F
:105A7000EB32417BE33C106F5E9803AF3BA31EC843
:105A8000BC98BED5CEF1E003EE2DA0072683E00B37
:105A90006203FD981E49F310307219FC8C46DFEB4F
:105AA000980140F2A721FD8C4CDDBCCC96DBD4B82C
:105AB0000C666BF2739CF566796915CBE0226E98E3
:105AC00064FF2419085889EE60010233E69FB31180
:105AD000B20816D17BC0118C30DF343A068248F907
