:100000000C94F9540C9418550C9418550C941855DC
:100010000C9418550C941F590C9483590C94E7595F
:100020000C94FA590C9418550C9451580C9418557A
:100030000C9418550C9418550C9418550C9418558C
:100040000C9418550C9418550C9418550C9418557C
:100050000C9418550C9418550C9418550C9418556C
:100060000C9418550C9418550C9418550C9418555C
:100070000C9418550C9418550C9418550C9418554C
:100080000C9418550C9418550C9418557F7F7F7F4D
:100090007F7F7F7F7F7F7F7F7F7F7F7F7F7F7F7F70
:1000A0007F7F7F7F7F7F070007047F7F7F7F7F7F4A
:1000B000077F7F7F7F7F057F047F7F7F7F7F7F7FBD
:1000C0000F7F0E7F067F0D7F0C7F7F7F7F7F1F7FDF
:1000D000177F167F157F1C7F147F7F7F7F7F007FB8
:1000E000277F1E7F257F1D7F247F7F7F7F7F187F57
:1000F000207F217F267F227F237F7F7F7F7F7F7FDF
:10010000107F197F1A7F1B7F137F7F7F7F7F0818E7
:10011000117F127F0A7F037F0B7F7F7F7F7F081015
:10012000081F097F080F027F08197F7F7F7F7F7F6D
:1001300008027F7F081308117F7F7F7F070C087FED
:10014000017F080B7F7F08077F7F7F7F7F7F080706
:100150007F7F7F7F7F7F7F7F07037F7F7F7F047F1E
:100160007F7F1C7F1B7F7F7F7F7F7F7F037F0810C8
:100170000C7F247F237F137F7A7F7F7F7F7F08110F
:10018000147F081908200B7F7F7F7F7F7F7F7F7F11
:100190007F7F7F7F7F7F7F7F7F7F7F7F7F7F7F7F6F
:1001A0007F7F7F7F7F7F7F7F7F7F7F7F7F7F7F7F5F
:1001B0007F7F7F7F7F7F7F7F7F7F7F7F7F7F7F7F4F
:1001C0007F7F7F7F7F7F7F7F7F7F7F7F7F7F7F7F3F
:1001D0007F7F7F7F7F7F7F7F7F7F7F7F7F7F7F7F2F
:1001E0007F7F7F7F7F7F7F7F7F7F7F7F7F7F7F7F1F
:1001F0007F7F7F7F7F7F7F7F7F7F7F7F7F7F7F7F0F
:100200007F7F7F7F7F7F7F7F7F7F7F7F7F7F7F7FFE
:100210007F7F7F7F7F7F7F7F7F7F7F7F7F7F7F7FEE
:1002200008277F7F7F7F7F7F7F7F7F7F7F7F7F7FAD
:100230007F7F7F7F7F7F7F7F7F7F7F7F7F7F7F7FCE
:10024000017F7F7F7F7F7F7F7F7F7F7F7F7F7F7F3C
:100250007F7F7F7F7F7F7F7F7F7F7F7F7F7F08158F
:100260007F7F072408057F7F7F7F7F7F080D070B37
:1002700007237F7F0713071B7A7F7F7F7F7F7F7F27
:10028000071C7F7F7F7F07147F7F7F7FFF1F627F39
:10029000C23C006088FFFFA0089001324006C8C63B
:1002A0000019FF03050A4414812241CF068CF32074
:1002B0000365FBA00C94290034FF7FED0133500649
:1002C000CA54CC1928E0C0D3F3A9C688009E98D39D
:1002D00064800C7FB940FA0014C00287580BF860A4
:1002E000012C800460430ACD0270F34032F305A074
:1002F000E6180CE4B312CCE050DBC008286D17E020
:100300005026D334D3B00416E1B998FC30486CFFC2
:1003100098FF5DE510030240199EEA814008030141
:10032000201B048068E0B20899E4D8F9FC8020F32F
:10033000E554C780A1FFFBD87A3625CF21B323E34C
:100340008DD20A2F2348E014C326A34013919E1098
:10035000F7FE0609B38FB3B7485ECF03689D30D36D
:100360008801926E79FF0DD3C60210CE5F4C01C09A
:100370006B18CEEB11549CFE61F8A005B42F06C19A
:1003800024E75A0013D725081E05666A10D44217C1
:10039000681201ECA08104E568203F4B46D004823E
:1003A000481333DD8D1C01FB861614005AD930A08A
:1003B000012FC1E0FA92417D622F18040336790CB7
:1003C00042C9608FDF3368DAB006C2355A3CD3C603
:1003D000FFA4C83B2079F9CDF0300806F02018457D
:1003E0000332474023BEFEBEBC9DB30C84419EB683
:1003F00033D33CC0C04CC0031A9AE0413817F3C64F
:10040000FCE69BE6A3E880667D06D20418447FD60E
:1004100028242BB3F58184FE8160104C58108AB3D8
:10042000340740C144BB58F3A98C0C343DB30804D5
:10043000587DF3A33908FB0310B00E12EFC7BC6060
:10044000F3022C9091BE16040E1908231F04208479
:10045000C210306720B30571021242E008FE096144
:100460000C8081497DD326C40098C98C4C323FB999
:10047000F0F9E0812CFF8007F4201EC80078E4101A
:1004800003E0539FF3161EC00378FB200F60413C2E
:100490003964E0EB410C90C7122302780E0FE4D3CD
:1004A00003D0DE0EE8C0F362813DA0C7FD80245179
:1004B0007F2808FB0361D753107CACD73920CB478A
:1004C0000C10001995D340F9D961754BF3087E984B
:1004D0004CF33118F8FF1F11880844023CBC010B93
:1004E00060D0D484D3F8B344184003DF044C02092D
:1004F0003167A0B381730A148293219B02D348927F
:10050000D3412F0D10ECB31130FFB3F9A0013486A5
:100510001204DD001AE198C892D80810E4857C0B1B
:10052000683F01A0053446617BB006D029B26D4218
:10053000DD4D10E298D3BD5E690D052102A4EF17D1
:10054000E54E9B2679A93BF21083608D798D19FDCC
:100550007F0677A598C1FB1A13FA980470C610039A
:1005600011A234E6E8FBB3775F69E598E2ED96F512
:10057000A303799892B3B7083B98C4987C64839995
:100580000CD338EEA6C16D037850D08FFE07FD88DE
:1005900001B010A494B340F0A5012992EC890B613D
:1005A0001C2C04D9E608E91A34FDDFC408D1562909
:1005B00022F3244E3A51036823D92AEBFE92C61047
:1005C0001141E16360FA128C8101F798C22818E7A3
:1005D000080B01A7840946AA7BFF0222BBC2DE0EDC
:1005E0006421049083D350C0EEFF79214C80053004
:1005F00001199AFA302DFB1CBADBEF57C541AE98B2
:10060000F0F19856F60F60013D21D5FCE998701B7A
:100610005E782843D365C610C60FD3C6E8813CF286
:100620000840FE84F039625D917FD7D99098A9A2E5
:10063000E3F3F9E74D620D660802717E19E03E981A
:100640009B03280CBF854185F8910C07FF3213618D
:1006500078B307B1B32261B20C4216CF27199E14AA
:1006600020047AB3085679EBACC892200316F7B38E
:10067000C0FDA0F309068046E21AFA410B04424D80
:10068000E60A08809FCD4211091401ECA04134E232
:10069000B519E0D3D164CD400BDD21739C8646AE05
:1006A0001465520368EA3B520990F8C2731773F954
:1006B00038B976C7F7189389FF78E5B66AF56B06FF
:1006C000ED19421071300DCFB38170300778855429
:1006D00019AE41AFA83BB1B6640C22B3342331C08C
:1006E0003CB4040319DADB627130DE6B4516FFC0DF
:1006F00058FD84095B96307798F3230AF0825B4AB1
:100700007A68A37DD42C8811329FA5B1DE7E108833
:10071000086F9013D4EA340C4601AF0CD69204D77C
:10072000FBE03BFD7710022073302111D76202BB42
:100730007D8110C684597DEC658485FDF0E18011D2
:10074000B0302202BE400813620186F3E0C0BF52FF
:1007500009FFA320242C02083001E2D8F9E0733C01
:100760008007AA1E5C5DEE100BE4E53000CAF318AA
:10077000F28BEBDE3B9F308134A005304C230178B7
:10078000DD26E4EB6B10C7C6D36080C13C0886FE53
:10079000EF22C5FCDB95B40DD34DDC5BC4302012D9
:1007A000E330CFD2D28F3CC6D3BE9F57F2E4FFFBDB
:1007B000202C021499EC1382E0E58884110DEFB32C
:1007C0000201082C8B42B267FA9A4569FC14E38156
:1007D000A090B3609DF644C232D352602F4FBFB396
:1007E000F0F9A0FF45948012D4005A44FF2302423E
:1007F0004DA2050488C446148E40758C1145C6165A
:100800007E57C7B49826D03FAD039EE8FA348006E1
:10081000B83056F37E7EA049000910EF0798045FB8
:10082000B97F5A870A1906DAE0F21EE37D125FFFEC
:10083000C497C81A14648E04A67FBC9838FC804103
:10084000AFC6AC39AF7B2298B9F23E2F812F145836
:100850003E3087177D2D03C050F5621AF7848378E8
:10086000764EC8D4C0FE98C104448B8B34D9980C02
:100870000444C11216AD4293DBB2FC11B1011CF865
:100880002C0924C8880BCEE0383B390E9808B5C235
:1008900001CE804903CBFA120B67088C042F11623A
:1008A0002199840F01B31240ED877644C1082001DD
:1008B00088B1664042C078B680C060DFC25298DA24
:1008C000217F3988B008C9FA60E2010D90F6302026
:1008D000169ED24B1605B3C8832943902C679DB44E
:1008E000C987B0FA431626E4A201F3CFC8C0031AA1
:1008F0002BC6C651A2F93085EF0D2B0E81799809D0
:10090000DC63F35C3069A6A827F77F9A69F1F7FDED
:100910001701DA154C4CC9FF05C84A24D808504EB7
:10092000C9F510878211DD810492C80876872212EA
:1009300022199720DD7415DCFD81B39DC48B09421B
:100940006CE31991F3F868FEA00980FE1214001AF6
:1009500079C0024225DC21461C641A114F6C020149
:10096000A0D85104891964C84D9A4872300D7FB1DE
:1009700005801681185A5C238314A1C20934DD5006
:10098000FDA76C9C21907B4D0280AE18519340399D
:10099000898D1B7340D99B6B9BC840B843BAA86133
:1009A000D331E128FB23BDBA9212F298DAC4E8A849
:1009B000EB27BBB3200CD8844189B57203C1EF3F4C
:1009C0005829C819A045CEA0A2B48481BC8DF99144
:1009D0002368028B67DB984828DCCF421845E0B3D8
:1009E000018C580589B37F51C0808158835F8C5931
:1009F00081E4081041231B8B4E810A5A81FA90C76B
:100A0000B010D70822BB5D621420B2F5BF7B18F18D
:100A1000200304840610B1EC1FE37F1242FC100592
:100A2000136244AFE0C08C225FE95E98D340082E89
:100A3000C8F937AA3CFF1CC8025DEB7E4DF5F316E2
:100A400065E87B8B810C625F7FD705B0AE780106CD
:100A5000D3E6F34006BC98E7F30C10F0CAF8049311
:100A6000F17B4D5C304006DCD0CA2010E342EF82BF
:100A7000B1312218EDB7187467B819D3BA87FF954A
:100A80004BC6EC54B1FE0988B3D224C80192B2F52A
:100A900098691214780444CBCB98F6CC3025D9B1A0
:100AA00014C8D618A1E8284CD37E8782484020423B
:100AB0004CC7AC8585A7FAFFA00905802610241A2B
:100AC000F960230442206B7FBCDC8A400308C73EE8
:100AD00010D83601C7243042E425E08B1DE998691F
:100AE000749EA0F109D4FDDB2CC893D07F448B30D9
:100AF000624A18C23725CDC804DED8B460E730900A
:100B0000F980BB41DED2201804832B7FC7FE087713
:100B10002830422CC4B830E2B34A830CBD5DC6E134
:100B2000CB30604E0530F829C3ED1220AA5013B81F
:100B3000BFBD29C8B10128F8F3C45D660824C032DE
:100B4000451202B3F542D02E6613E030C6EAD34E0A
:100B500066B411121C2285546205FF5FAEC62CE9F3
:100B6000F8282244888941B17E7A3060024C88118D
:100B700079F5B89810A038212C1F04304011FEBB25
:100B8000603BD574004E6230E0412CAFC8278B43E8
:100B90000BE001633C30D17820D37A9832EE2C30D0
:100BA000C09B64873DB05D645ED2BF8225C846FFAE
:100BB0007278CBBB1B8306B17E5A3060E5BBBF1792
:100BC000307017F9FA242992F511281009D6E6CCCD
:100BD000B39020D7DF020150098BF230645CAD196D
:100BE000892422E1040212A6C609306B32F8C344FC
:100BF000612611579ADF7FC55D90C8BC1A51130A50
:100C0000ECB1A011FE2730998046D830C1404ED3B8
:100C10008D28EE57230180989C6AE7A0412E095841
:100C2000FBD34E9CD21506A0D4F3B6499639812247
:100C30001DF7102006C075B11AD317EF2D30025AD8
:100C40000CF0FAC992C08F2018BB80955D62A2900B
:100C5000F3FF38C50CCFF398B49CB83092B419E0C8
:100C6000FF5C8BE0F372B34179F058FC24533FE012
:100C7000D20880440337AB28A95911592203820CAA
:100C80001B21306220663E20C0424008BD7C4C4E95
:100C9000740904D483545261B305BF67FDFF840116
:100CA000B11012C00408C71160022483537E16C419
:100CB00008182061BFF0848A85CE1BB50698B8302D
:100CC0000C10D6D384D797B38B024262205E4F0BB1
:100CD00088B013F8FD5A0FFA8007342016F0C5D9F2
:100CE0000BE453F59005F080E38BB00F77195DA509
:100CF000B3E385E0B02E4365D30F688FFBF692C057
:100D000036D89CB90838FEA2F006CAC8EB518BE36E
:100D100034C8C034B88179C40B1BC885D3EFBC99E3
:100D2000D3DFE5B50AD9C8D1C8FAB379E27764034D
:100D30006224550CE7EB21C1F0040A3CE24C82909E
:100D4000B3AADEB320124488E499643F28841131A9
:100D5000267B1C40260A648BA9633C73F9A009E436
:100D600012C4C424BF20C098E10486571030302339
:100D7000687101A0A134B344B3EDEBDE16D4C99879
:100D8000D30132320592BF06018C13697CA079141D
:100D9000326641A18126BF2FF5EAE26FFB1082F394
:100DA000C5112E195BB4C07130B2D30399AC8881E0
:100DB000E6CAC8FCE0CDC8E27EFE03FE2C5DC0C8DA
:100DC000C27FCABFA6FB0A3DB33C34D3C4F747D3A6
:100DD000FB9801E002066EC678E130290AFE06485B
:100DE000046560D0DD6D56FDFE2E8D1D5920128CE0
:100DF0001A2A9BBCFEC48840065C3008BBC3803006
:100E00004981DFC65B3C7F0E30F7EBF96B15B227EB
:100E1000D50502601F0184D390314804423CE4218F
:100E200020807009D3F26D9685E2AA8AEF64980952
:100E30006188395066AE262F30663E248CF2B2159A
:100E4000297130D9C8D7201EAEC510F5A590A6616E
:100E5000BB59D30F1610046ABC6AABD16880E07925
:100E60009871030A7089F25EC8BB4B9530E2E09836
:100E70006BFBCFDFEA51F3E5FDC52047FA6C3F0776
:100E8000F1DBAAB350D5B30871FD64C8DFFB61E79D
:100E900077F1EADC03A10CB96686FAB82A5D2FB5B2
:100EA000A69AC888D5FA14DC97F10B42022C91D38C
:100EB000A9B3B91117F6263098FA6094E4093C2ECC
:100EC0001E10B32F2785F3D8FF098C99FF86B33EF8
:100ED000FFDCF8FB297FDDA8B646C0F35A99F3C6BC
:100EE000D159D39CF362E266B1C317FF98FD286223
:100EF000669319A5669066868BFF405FB2ACD66696
:100F0000FBFC946611E29318F389BA1A73E91F9AED
:100F10004C3DFF48FE04005E6C5179BE8A9ED1FFB5
:100F20002CD39FB2ACC9C6B1D088F9C123FDCC98EF
:100F3000FF40B21A40D01AC7D6FF08E6A67FAC9889
:100F4000FD434F8030A8CFD6E5FACD701080B1B305
:100F50008EAFCD14483A20266CBF9545BCB649C625
:100F600047E714FD7BE0D998F8123B04D612018DB7
:100F7000A9D8F8E6E92BFB4481195BB3202DCA20E0
:100F8000D9BE90FEFC63A6CE3EFFB61068D988FF9E
:100F900026B8A9B84DDDC6406E0C67FDC0F9CD4B33
:100FA0007602BECC18C2BFC3D3BB6262A6CA0CFD18
:100FB000CAED2604EB4D802BECE7FF0F0104B811BE
:100FC000D2FF08275EEF9FF422100284F7C3F0FCE3
:100FD0007EF8A81402886B3738A12C953185C5306E
:100FE0009C09F88004B0021419841AB881404C2678
:100FF000F3EE24617E487A0B40032C65B928F8F69D
:10100000DEA7D30138461014FE809406882A008299
:10101000FDF862890921204CE61960106242CA700D
:10102000488426FF0DCC0103A00E5DFC9F185DC017
:101030000B6482858808D128FF91AFCAF5B32CE5EF
:10104000A36E1117FA7FD3E5CD147EFD236F87DFE2
:10105000824EF368FC80D7CC8CE27BF5BC819EB4D9
:1010600049B708862BE9BD6F1001822FA504EB67F5
:10107000CF3EF54B018D69FD8B723501C4B76DE82C
:1010800096F9CF1BEDE29FDB64FF2F945228376166
:1010900022B402CFF2C66F0BFC1033C0FA1C58D733
:1010A000A9A87C31D2D9A0E221CFFEF364FABEB464
:1010B000F3A97249FA9EF52A80CB8242124BB20103
:1010C0009BF9F5026C8C6FFD5958F9BFEDBC40FFE0
:1010D000F74163BA102830B4DDA5086EF4D948FF93
:1010E000BDC6BC20DEC5B4FCDD8980671F52FD3261
:1010F000FD089DE6FB1171B98A6F73F0FD67EE5034
:1011000002DC54C552AF06868C2D47FB23C0F88CF9
:10111000BA5BF6E10132EA09A033379A79364CD945
:10112000FC6F9811FF9956FD4F6FA0C37658F85980
:101130005399D6782BB1049B99A5BFC1EFF8F980DC
:10114000316B13640C350E5896FB71BEC4651146A5
:10115000A8FC686266652EF3DE78F8211D84C683DC
:1011600037FD58B8FC8A28E0888BC2E7AC04D0FF72
:10117000616ACE20CAFBAC37FB5A18F9183097BD0C
:101180001189B1FA1FDF4C10F1F7D8C6598A9EC1F8
:101190006E50D960FA3FBD6137D1D898BFD64E5B4B
:1011A000C3FA5C30B2C8CF222B9758DD08AFACE54C
:1011B0008093EA33DBF518FE8CC6502EB20BC6FEC8
:1011C0007FF30E293190AEFB1417F1C66AE5B8140F
:1011D000CFB26B96EDA02FB6006776835080AD71CD
:1011E00020F9B26810FCB739F9ABB02CE461B44017
:1011F000868097D32065B9B2AC01718050F85FB694
:1012000030992E7BC082806EB58E10CFCB7CC9EE1C
:10121000CE42DE40020CA5042280B760B1FB4B81B8
:10122000CD97644828DC8095FCD13341958B7717A6
:10123000422041AA2F400765247A2010537125517E
:10124000FA3BEF05B0BF94503CFF2181610F1120A4
:10125000A12230F15020031DB330099C667FF91F95
:10126000948150FAE61B6002FB0C6EF316EF8509C1
:10127000400422F3F22530FE74350CF98289C1B0A6
:101280007E921F8C30F682081959B0CA1921FCD8F9
:10129000C03958CFE240101438F373EE08022A1810
:1012A000FE288122200A88FF923410E4BE3F404687
:1012B00079B31E43FB627E9C7961092A99D364FA53
:1012C00089108BE6CE67E8174CEDCB98088F14DABF
:1012D000962FB835C2CE86824089BC74045BF31267
:1012E00002E4ABF9DAEF11FA9D2059DB46C825C5B7
:1012F0001C96016F2DF4104474F5F7E6FCFD208B6D
:101300007CF55CD967804B5D803C66F3C815D3479C
:10131000F6E3D5170A4BBA1008B982016E9A9710F6
:10132000D6371908208DEAF1F9B14085FAB48E104C
:10133000DCA2D5CFD8B7FDE93EEC6ABA158B752A89
:10134000BA8908FFB3D2F94CE0B1F8CE3139FCA329
:101350006E1A2154FB4BFB8424B06E618034E90289
:1013600087C5F4F8EEB32EFFE210C7FF40BC24F7A8
:10137000D0D9BC9D971206749553A72262BF80B343
:1013800010F51A024558962EE659EA4D0823E7E271
:101390001FFD2D089DED7F58FEB869BFF0CC277D5D
:1013A000FF02E28040085A41A86A82FA23BE6D0A11
:1013B0006084ACFD35F34B459020B0AF362FD6603E
:1013C000FE286E5D6C3BEE30F980F285DB467319CA
:1013D00052AA23FCE60AD9FFD0FCB9B9357E4ACF20
:1013E00040135081A45084307C6304014009E2EE34
:1013F00085225914DDCB96A0319FDFCF110A94A02E
:101400008804A481901A55BD0E8C3077F7A8FA5F36
:10141000CE7B450482796EA924E4F3A867FD889207
:10142000F85F087ED169F2DBD95F32CBFA6015B77D
:10143000040E07831827EDAC3C20441EE1AD028664
:10144000BECF5A1980E7DFC003B860D3707106C001
:10145000B018903960400FA69D1CCFF92013ED63A2
:1014600082049F23F92808110169A2CC3A4D46E372
:10147000209FED970501E3B371612BB3719920E5CE
:1014800002F37D2633A681A411FD0B110030F2C0BA
:10149000218867A360048004AD01AF69DE7921066D
:1014A000D91202F932BD02B389049282B5463540A1
:1014B0006E0F03198073190998F3F9E0412CF8F0C5
:1014C0003C50C40378C62360C30C90CCF040A30208
:1014D000E0AB0B62D92CC218E0F7F91A400293195D
:1014E000BCE02D27D32916C04F560EE0012D07F87A
:1014F000FE41A0CAC3F6EA83605AFC7DF9FF9F70E3
:1015000039B1551F3C065EFE8BC110B820535AA955
:101510000066C9C8F9B30843B34E0B5FAC3EB132A5
:101520000A46C4FE1AEEF30131A46FD73251AEE180
:1015300001DAEBCF381023025FCCFA89200928FDAD
:10154000F6984280E64603020701B0485AE2157B4E
:1015500098236827DFD534096AC4B5245DF832EED4
:10156000BE50020B4D6CE10520B5A04A14FB39AA10
:10157000F634ED4160F8FF0C0165EF2562102D9AFD
:10158000FAB05A87ADF8063E14F6FB0402DFAF52FC
:1015900040CA31DD18FF928D167BF7040312FCC59B
:1015A0002BFD9803AE61EE2F813032DBB7C2844948
:1015B000CD069CD218C0B70F8BE9E59FD27DCCEF4A
:1015C000B320D8FF2803B09029966C2323E5770435
:1015D00011B184F3EB136020BB65300910DFE70A1B
:1015E0000602FA0410210901563B28AD20C1B59D21
:1015F000093886E1FD5F05102046C8820875B6628D
:1016000001E398682695C0AABDE8022C79989FCD81
:101610002C08A13A044210805C660A1581224877A2
:1016200068D111E66EC279F7988007F0FD401EC4BC
:101630000278107A983C6BF3F2C798F3200F83641A
:101640003C6720B460781C8807321D12400276681F
:1016500060140CC076F249D318FB5E5E0F90FC85D7
:101660008410DD0806E0881FE0985CF3091DF3E6AE
:10167000987F1B2E6A6C8089B366308020F61A62D0
:101680004067D441E5D8FF77D38FC09804DF026468
:10169000E0985EB3E80A4411F359D9EFB432211649
:1016A00004C044088C09988645B01A46C848900280
:1016B000866E57B9F03B30150906B95D1317422104
:1016C000F7A0050011F2301343F8B1A00E7701A086
:1016D00009057B374240DF100AC452884DC689682D
:1016E00073231104EE2270FADB62CE20374EF40C25
:1016F00002A3F29217CD330893A619C166D697AF0D
:101700007B0DA00724BCA50119C98881D9504DE5DE
:1017100083108917B3D7E65744E784C0C0400A1541
:10172000DE985C7D0524D303B3F2B8F8FD2C44FFAA
:10173000F0A911030C2588ED1364F34003468425BA
:10174000AA13012EB32F7D1A98D62051DF26F37DE0
:101750006FDE988121CAE3FB8411AEF117421809AC
:10176000E46242CCB631B2C034A52DDFFACFC97ADB
:10177000A9820830092F474698609B0AC031B2A25F
:10178000B8DC0F220C823FF70A18FDE001C52C904F
:10179000F6F2001EC09C30983C63F0A5A3A7005051
:1017A0006777B164415E78BB02DE98792008E07506
:1017B000D38807D250D3EE4E30811D70FABC986E9C
:1017C000F0C15953625C305E986259CDD940301EE9
:1017D000980D1E0CF22E66DC49107C31F895EDDE7A
:1017E000B3D3ED1072C049B7C6C24FDF9260208CF0
:1017F000B1101CFC7B1130051602A6D4938404E5BD
:10180000B386DF594AEF0CF0AD3A80FFF40D426920
:1018100010481B2100D782854E45EB9818BF7F48A2
:10182000D724012C3041AF2608FFA8803FA006D165
:1018300038C24210ABC3A52FDF9412E5D6C5529D26
:10184000C87CFEA79D98E7E57A1181D7CBEE48DBEF
:10185000FFCF5F658891D0DA10A4B00B062B7A8099
:1018600020F9E730A007C2020667E41AAC840197AA
:1018700009E6F25D604DCF3938B7DC878001E99425
:101880000CC0D7C24081985FCCA641E1C4209283AE
:1018900060FBB2C81EF8FA01AF017C157B05D56C60
:1018A00009F47CD647B336F134026EF996861106F8
:1018B0002B81C05811703086D68B2F84507162D81E
:1018C00061A624E153F857114C98B358EE82610495
:1018D000FC32424CC024259A9B12D0F48CEE951712
:1018E00080FD464820A70930F357285B621E20423E
:1018F000E70A09B1FFD7E041BFA57240064400786E
:10190000DE1007F3A1F090F3456396C86FFF7F6880
:10191000010CA007B06BCA30E01BF3D320C1D3AFDA
:101920000351D0DDFB80E298565F4AC130E830F3C6
:1019300013BEB312E330CCBCBE952CE0C2DA71D03A
:1019400066B830FE4BE50355FF49395E98FCB01090
:1019500006C1041914767FAEC5062F4CF0B78C1063
:1019600004EC09D6B3011174D34482252B11DAFE9D
:101970009130FABF69E51364B405EE200A48CFC878
:10198000014050E6201A49DF82B9500659C87E57F7
:101990007C0630D9040ABDB19A24CB900B94487FC1
:1019A000B998419480D14ED3216804B2C874FCB870
:1019B000F97B4653C2D18FE3E24174597F9B8D1B63
:1019C000EEF50B7193AE5CD12176E096613DC5508A
:1019D0009CFD23389003D21C350618F587D217DDFD
:1019E000D78523F6B86DBC89F9F28B3473F398FE72
:1019F000ECE6D38360D75391FFE2345DE9282FFEF4
:101A0000B769215DBE739923097AB3220B5F36064D
:101A10004A6A08B56F1E9820F4989162F18B7E494E
:101A2000588C843A031AF8F832DD460402726B606F
:101A30008729EA11467BB20208AE408417CEFE31F8
:101A400008023A3574F6988890772EC282669B20F9
:101A5000E7901230FC59C8FD9007B0201E487898D6
:101A6000D757812F5031C9F5165CBA2C21C1B3ED7F
:101A70005E98B702F4982CAFF32C6BBC9BE61E3833
:101A8000F9FE4A30C093E3AAFCD381F339C9402858
:101A90003891CFFC7F31AFA8AEC7BB81F3CC116EBC
:101AA000C47E40C87FB3B2A9FDEDA0598889281132
:101AB0007F76714130997B94520CDF67E913DE6BBE
:101AC0005D935FF37FDD73978EE96226880999281D
:101AD000B3C836DC018083DD1002E998329F77704D
:101AE00092A3683D0D203004C62157179B3E3D91BF
:101AF00012504802FC99C8B5145E302E1A57F08077
:101B00008C3020356F58FCF2985A2010AFCB20153E
:101B10002B93F694A6BB5E970BC53A6FF2B8C696A8
:101B2000F318BCA9F3301090FDC638429BDDD7D71F
:101B3000983DE5C8FF829684E07066D71908429107
:101B4000BF18C298BF5ACF2018E630100FEF678B2E
:101B500088FEC5B4902869CA33BD9811DE80905CB8
:101B6000AE931BCDE33065BB40BE657B04E17C805A
:101B70006778980928F4C146C2CE1840B3020C7F9A
:101B8000D6B10892FE80058110269DC0ED21020B82
:101B900005DA540E09E37D0C04CB82E5346657E088
:101BA0008398217312A0660187E42201483A723AB1
:101BB00087B3D4B8F97FB898F2401ECB8B6AD99816
:101BC0000C905044110CA30F16391960AF41569870
:101BD000328682AF190008FF1D9816837864C8EE1C
:101BE000F310E8EBFEBDF21869EA9840F2E5F2C5A1
:101BF000CEBB200C5B32FE8744036EDFA930F3F1CD
:101C000066625FCC323D2093ED1ACFF70C68D62088
:101C100079B3FF3FD2C90E21309401F31916600544
:101C20004C7782400568BBB584035E495E98ED80C1
:101C3000141833C8453BC616C1F5CF0135B391AF73
:101C4000B3FCA01194317D507F1A412001428DF0E8
:101C5000B009328035D018EC8B04113CA088B39ABF
:101C60007930A4CF4194EBD0821AAE43A5127B9475
:101C7000F9EA7792985F051470CA6681F85CF418E7
:101C8000D0117CE4DB46C491BE3199ABFC0ABEC4E2
:101C9000BA84DBCD984D9B797D9092FA190685DD4B
:101CA000B37F8C0CC0CB813C23FB641240D41B0B54
:101CB0006FC07EAEB1EC44F0209F5198E0EBDE485F
:101CC000386C1C1098FF04F0A2D72230592DEB710C
:101CD0004CA2883D3E8E6A105BE519CFFF8930101B
:101CE000269BD47D205F75982116D4E47BD25F9229
:101CF00083A468E6FA8408C206957A04DA512C2D8A
:101D00007438820967DF2CD132116ABCB5207EF8A5
:101D10008308824020041B4D0B6248AE90A411D66C
:101D200013AE871EDDB1D0FD60D39A301640E63089
:101D30000F62EF5D98B198F519980F68363C71679E
:101D4000733D80078BF00E7F223060AF5D9830ECE2
:101D500098181093E6F3BFFB5FA244F0555E985EBF
:101D6000D22DE37FAC20775944FC7D5C30593F4B4A
:101D70006601BECCFD9974B6034643E6BE58E0FA50
:101D800040210A57B3DDDDD524EEB80815A1942B08
:101D900042F336E23270B3FDDA3008168802FC30C6
:101DA00069E098302498EB03EEC0F0989FFAA00504
:101DB00004025EB1E7824010BE45A0874491E44032
:101DC000D082833B68BFF834B3205EB4208434A251
:101DD0009E361A40126A0D09D9319F22EC9B50A100
:101DE00028DD440DCF889CFC8001BF212E1BDBF732
:101DF000F8540DC2EB194027C0A1B6CD7305FF758D
:101E00002E261B967C805CA5BBC70CCAE968F79898
:101E100031A0079A24E004CAD510AC3EEDC4783056
:101E20004BFA2C10FBCCFA842BB8CA57415057C63A
:101E3000F5D370100EC730EE49200410C0B850AF73
:101E4000128FDB11BF05A73191624070B3B3CC3B59
:101E5000FE083AED05A62EB30F5D045F78AC10C303
:101E60002C58026C1F0D802938B3ABFF5A4490F1F7
:101E70001EBA59C80F8482C10431EE224048CAF507
:101E8000DA18353A36B2E128929E3117041040BC78
:101E900098350AC0370132B503C50B81197E69F93F
:101EA00060013C882FF2000EAE5052300BF3A02D93
:101EB000B1F9F5C140035EC5B505EB8A52ABF385B8
:101EC000FDA5C4FF0279200A60800CA049231ED31F
:101ED0009E5819E0010D1DB0DE980B06C1453FE488
:101EE0009895BF3068F7F3F56F80AF6DAF5856B374
:101EF0000CBE8535666192C8F8BC2112174961FF96
:101F00007F51FF0A29EE053D98AF04E18C88025607
:101F1000329740C510956134CDEA0904A921A8B3D0
:101F2000C61E32AE169D90E060847DCE767AC00AE1
:101F3000021442198F010596B8B336FF6AB346D032
:101F400010B7FFF8FBFA9B10BA21E31638F3CE580E
:101F5000AC22DBD3B8F9018243FF98FFB128A393E9
:101F600038D1C71B3990FF0F5672804E6B5C18CD6D
:101F7000E5F24B59A07F915D79679E66C22FE0D351
:101F8000DFB40DDDD3244EFCE8FC04D451F3B15092
:101F9000440F3144F1B1D36E847BD360FD11823F95
:101FA000D7CCD97FC9CE20E76697BE9A6979E09BE6
:101FB000F4D634B30414C5F8226791FFEC9E6B622B
:101FC000660E529A100EA8FCD8F3F3AC70A60D0C56
:101FD000EAEE2330CD39EB106434A4A8F9F147E1DF
:101FE000190860B25AF1809EB3287FC8C51B55C03E
:101FF000FBBE742B27E5F8AA8C1E2F9362C3D96C05
:1020000028B3FA8CC9FD3770FD8D04CBBF2424277B
:10201000CAF26A1BE5B3F8526FFB19C8DBCD9638DC
:10202000889E27B11032A50BEA814B8A4192F512A6
:10203000D13E4020D1C7C8C7FD4077C20440C56D1E
:10204000101065825FF5E99169D9E73416D4978A53
:10205000D1B1F60ADAA3E231DBE3B426767DFF6084
:102060009E82FBB80A601B4C95A0159CA702880AAB
:10207000096C4A8319E50A40FB733C91DA8A11CF57
:10208000C964F2B002A2E0950458FF135041010563
:102090000C081EFE2F970284FD04C0484D0042CF5D
:1020A000796170260EC74110E755C2006A83B9D91D
:1020B000C65FDF7635FF22A134B31281751110F8A7
:1020C0004588C80B805F07A165BB11E6C09006B3C9
:1020D000FDD3ED76FDE61037BA817DAC2E48443154
:1020E000E851FF2647A600E02754D822407BF3A4FE
:1020F000FF40069FDB2482BF4C2077D6F1E302012C
:102100009ADB283362FCDBE2A137DBF93AD8779A15
:102110005A7FF191F846724F81EC6AFB68D22CE647
:1021200070FF5E84326DED5998FBC6F823D6E25AF3
:10213000ED40D4C4CD59EE02C6495EC99610CF66B3
:10214000ACB040959F08A1DB9FA4450A7F00BF5C0F
:102150007D64369C06402665B54016B72B7740B4A3
:102160002DECBEC69BDAD8F91401258172FB05CA95
:10217000333CCC6FFEECE370F97F56CE02595BDE48
:10218000ED627F684DE730F9B24C80CB33BED62F7D
:1021900004CB321440098CECBF092CC8F1760A7AC2
:1021A000BB20C63F1D11660BBAA85EED1730FC3F81
:1021B000EF807E9B459A0269388BF6FF09D54F2048
:1021C0006A3BB41868E960F9EDD42F450A6771914C
:1021D0009E4965190CEDDC08FABADE48C93701FBE7
:1021E000B81D3FFFEDBED6D55046D996FB65B190E0
:1021F0005DB78A3F5BAC229FEF5A78FA311B83C9E7
:102200003CE7C657F1A97D328DF530BA0602C7D832
:1022100097A8FB0C114CFFFF6C982003AFB164E34F
:10222000523FDB7F60FD4D3066D474CCE57730A241
:102230001940F3750F0B1B760DFFC0BAD96B4680A2
:1022400012CD66108EFF7E08FC6619F1BBC26FE6E8
:102250006FE2F2F3DCB0CF6F32E8FCE0ADCB4EC002
:1022600040E5286AB305A16D8AFF86021046B320B7
:102270003EDBB1FFADEC40D62C023FFB8E2013FEBF
:10228000A058FDC80677C3DF8180F8B1F903361B7B
:1022900033CDF4588DCF9B2E30FAF23BE0EE6D1724
:1022A000E684FEA8013A07E3040189289A40F52252
:1022B00043FA21682A1E80D5A850BBFB348E02C584
:1022C0006AC89201E3D63206E056B0D9BDF92E783D
:1022D000AED0D481B324C079DEC0C413FE71FF5BDD
:1022E0009B90A67DF20CB0F23A78410995014C58CA
:1022F00002981F036041492DDF0930F645DBA072CB
:1023000090A5016E07824A9E50E004CC802F050EF6
:102310001027A139490B38C3280E0BD19823BF22AF
:102320001181103008C3A9D03FB325205406C2C67E
:102330001124E68210585103355CEB3840CE38CF7B
:102340009620020530F90A39EA17FF729C2CFD101D
:10235000891F61853816A0E964FCD021013BF86F24
:1023600088B01B5C970A0D99113C0AB340BF6708FF
:10237000DF4240E94810E09B1294506DE43E18F8AB
:10238000BC240EBC1009E11949717768F0B2333AE8
:1023900097CED65604816DF80297A60490D0D90B3B
:1023A000FACCE34B9B8602208CC5C3EA3DA40246CF
:1023B000A7F958D914FB1D3E63FABCB108DDD93921
:1023C00090F97B6FCB2301BE85C5B59204627DB1C8
:1023D000BFFCC49EBF36126DE07D59E723AD278157
:1023E000D72A08B02D58FE18922440D5DB80457EB0
:1023F000E413C165F1288AB49650FDD76C48B680C5
:10240000F8FD4C5822FFB60E3CADF7CA6CF3D8F875
:10241000EEB785584620B0AF162C8FDCB0F891622D
:102420002AE21116E9A05F98E5FFF61E20F92A9A24
:10243000B1603CD216C0FC06DDF20366FBDC58FF3F
:1024400001AF8564719AFE7DB5284BA402EC16E4B9
:10245000134007AC7682946201ECFA18FC6B6C9E18
:102460007FF63E805F76F4A0FF7AC310C7B38E403C
:10247000679E55C881A0D089FC01DD3480FEF943F8
:10248000030C150DDE41C022D0D78250D7F16C026B
:102490000443DEB504211018051AE88F3014354EB8
:1024A00044D39DA70D3E1260F8CD8001EB06AFEF3F
:1024B000B10C4ACFC20358F320A75D58B4D1E079DC
:1024C0001CB9F3ABC608FBBFC0E591B06FA4100FF9
:1024D0004AD308FC4D185A836C846001F50D603DA9
:1024E000E001C02018A1831CC6D3D0C402B3F96C8C
:1024F0002C1050FF196BF8F322A2530CB301409E2D
:10250000C4E0050B08D7ACEFF56682C4C0C14BE44C
:10251000289DB380180167464C81C00511D7D8FDAE
:10252000DDB09F2F980420647AD2219DD4880413B3
:102530003BA2402180396680E7059108E08488420B
:10254000F5C00D046C98C0F348A702F304082832C4
:10255000CFF946059032E51EC00D4D46E13CDFBC8B
:10256000F516C0031AAD91010C9C6893E033E0F0BE
:102570002ED3FF660F604049E0F0D306029CF3E0E3
:1025800081242AA8EA17FB7F27E6B9ADC2B624BA90
:10259000FE6C9741FE9CBAB6201089D318B504385A
:1025A000D346259009B36E0B5BE36EB3CD0864E0B0
:1025B0000224F3105CE20A23641DC60830CCD9243F
:1025C00025BBFFF4C413FFA780F726C4028210F6D0
:1025D000B35180BECC4BBCD1FE7F730D88F97E34E5
:1025E0007FABFD43EF8CF69806D0058AE26E7BF652
:1025F0007224056EFF23FA427CFF1150148020FCE8
:10260000C4824010282224C6A642644A4004020D17
:1026100081227B98C4FC6E3DB4831B4659C033991C
:10262000460421FFB90D661236FF06DA62DF014269
:10263000F6256739C7C0F940EDA420DC1EE28661AB
:1026400010BD0C0277DABF7998A0C7DCFF09669A43
:1026500002FF643DE0C1029532FAF455BFC540184F
:102660008A027FDB82412C1098FBA428E0A0CAEBF1
:102670001AD33503FEBF98105BD01767C6CC14A4DD
:10268000FA3A11A0FFE025E50449CE2821E009B27D
:102690005376B608019E0AEF8005100E4BF81551CF
:1026A000E3C0C6118061BCA801E90640B605FF354C
:1026B00098FCCC0477F9290D5E73816D7E0DDB5596
:1026C00041799DC00DE040EB0260539E486A91EF56
:1026D000FCE001D72406C8025E987FCD69DD167D37
:1026E00022DE986BF8CC20EF4B6610FFFD98022B92
:1026F000D3CF08F58B08A7A29878C90BF341E570F2
:10270000FB84CDAFD9E53BB1AE10AF7A3298D7E7B5
:1027100002F898B29D791711B910F8902E661DEF46
:102720006651FBAF0ECA02936089CF3E1680C14A44
:1027300001B3FBEC53CA5FD7CC13D77F824B88140D
:10274000B797A273A61138940186D308F3C60884FC
:1027500045A7A0BFFCD8985044584309EDFD989276
:10276000BB44BD1B211034E7B37DCCAFC932D7D3F6
:10277000F31052081AC30C77B40534813C9E5A7882
:102780000A1180959012D6FEDA427719B73B5CDBCE
:1027900020041765DBCC1766E5321061FB956FED01
:1027A000291808BA05FB525D19F18516537998AFBF
:1027B0000A30DBF3FE6E2F30B6CC2166D3449A622A
:1027C000F488FEAC0E408BD3EB75D39878C6825C50
:1027D00030E790FD24ED0420426854F432B0E570F7
:1027E000C048C074153A9032B87FCC1269C0307AB4
:1027F000205042F5E860DB5619DDD15E989162CB3E
:10280000F30912CBFAD2844566A079ED0421641253
:1028100040BD7010C22B98DD39020442713093FB29
:10282000CC02FF8C31C001228282504DB085440918
:10283000814684CC98804F40AE5A6F3048F9F59865
:1028400090AF01305C30269F3EC4BD98035C306D74
:10285000FBCC085766E4013C8B8831017E5C19781B
:10286000D362802CD907F4C6904419F50FE2C0302A
:1028700077FC801135669591100CFB61EDFA4241B1
:1028800072A18D6A5B66810143EDF58F82D70111DC
:102890004A37F8EBFEBE457766F8F9FA984097B3E9
:1028A000A0FA98302BF46294468A1B7F073064703C
:1028B0003098C0C4A4D314270B5E93310CB03206F9
:1028C000C014BF4581E00C82852FBB32D19812FF26
:1028D000441A4003600CBF0D58A25002E99804FB53
:1028E000412411340998B30405E035E7300850A4B9
:1028F0001640FF67982C22D590044CD38052F919CA
:102900006A01842455ED121CFE7369186BD7672E7B
:102910003040F889F80480F730B1E32021ED1179D7
:1029200030017F36194018F92947F8026629BEF8A8
:1029300068DDFF60EB78A18BE8EEB90AB3BE128EBA
:10294000F3F198E6799671D191C93020C56B9580E5
:10295000E598D312D3D05FECBB0F20C8E9F820ED87
:10296000447B980814706654FEBF1955C384E78BE6
:10297000FCCC6216D7893000825FF99C01D0288197
:102980000716C69384956202F041824910385BFEB7
:1029900080533027A042B5A7EE22EBB2E42F10F807
:1029A000CE08244221203FE4CCFF06BC30E384095A
:1029B0003152C0B008BD988C8502B026ABC698BF16
:1029C0003211820AB930D9BBFED9980390D5BBC069
:1029D0006593B02BAF90A5A4E436F3013C9FCC5F88
:1029E000C06BCE30E2011CFFCA02C043CDC8800DCF
:1029F000E0D30E74B10A09E1235594F8E38B7FAD5F
:102A0000986174AFF60C5020BC985AC9FECC05E210
:102A10006666198201AF06FF2F9857DC88D3B5662A
:102A200008909B02920ABD98A1771730DA40E57BA7
:102A3000DEA8C8164462059A6F8705B07F5DB1F6BF
:102A4000CCBCCAA785D3260414AE8014EDE8792344
:102A5000C83FD36B0422059F22A9F8A00134F3805C
:102A6000161244B011D7610C4F44D726104249F3D7
:102A70000CE1191F5AC374FF086FC330E9203CC230
:102A80001A5188FAEE21028034F97F877FF452A42C
:102A900090D65DFE7136C7FFF4EBEC4E0684CC9405
:102AA000C8F6FF6A66BF12ADA908399F595907FFDA
:102AB0002F0DFDD522A133E0017883E00C07F6A4A9
:102AC000C01558CB043C43D8379730C0B586100F9B
:102AD000E698FD2AB90B87E8D7FA04A44B26E8EE5E
:102AE0002B026CFE359410B5FC19327222A3BA97F2
:102AF0008F90FBCC97D512A7723027C22892881EE0
:102B0000A91BB28EBCBDFF696B450219EAE6F80449
:102B100008ED46E0661371C184168123FD980BDF32
:102B20005108EB6C014FDBCC8673CA9180F7201201
:102B3000018430A44224CDC6011F66BDBE0A806B4D
:102B40007BC8FAFB2040048007FC98B6831E010C6A
:102B5000FF1598F8E898681D0C0805A7F7CC9202B5
:102B60008B668497E0F07230791F0F6880943C8FF9
:102B7000D377EE0D09D612D0FDBE7FB696FFA5F92C
:102B80001981AEB0A28350B60C88D9B666E4C844A9
:102B90001139F21004F35BB8775CC46605CB48FAD0
:102BA000BD98A669C33047829D0539444220C70BB2
:102BB000E9014CD34145BEC131A915BF115C307745
:102BC000759024C0FCB002600E2C8211F086CD7886
:102BD00088B581F92D967C988B9E35C814FCAC483D
:102BE0009A6CA308A3E1FEFB17052EFF085CEE65B7
:102BF0002F5004CD7B9840084FD3200436017F909E
:102C000098C6276B8C9CFF6AA805FC3076D10F30E4
:102C1000792BFE989430EBE39B21FF818B668F30FC
:102C20003BD78B5D4E6FE27835DBFBDFFC46E0196E
:102C30007507F73291B011FC3037F65AEEDC08E236
:102C400096E3D2CD667C980520FD5747862FEAB0E3
:102C50006EC6200BFC85D8F566443022E398CC1074
:102C60004589D9B1929FC61098DE2320CB11C71990
:102C700065C8DBB65D175E1E3C70D04218F0D368A5
:102C8000210CF508B1F7CEFB980145AF82D6452B54
:102C90009A62FB98200124007555E598ED010B50D0
:102CA000DE98DDB080F57F9BC84A8E48E43085D73A
:102CB000E0C0C6CA93A1E98B485CD369E498F74C9D
:102CC0003B89FFB6CCF2986F236480F7981EC4034B
:102CD000BB49DD983C1002DFCCA220592566FFE0FD
:102CE000FE98599B76E81C6216FF1598C6CA30817B
:102CF00034ADFB7FFD98612FEAF38B9B0C0350B53D
:102D0000A23179E3C6B7BE94AF88F24106C480C34E
:102D10002E6040EFB3AB3D98F17FAB98A2EB874BB1
:102D2000BF6B1FBAB146447FDC0B24124C9009B034
:102D300028D890BECC575FD732EB7F8AD39846BA5B
:102D4000185CC1024CFFDEAE4019954222AFE0C0D4
:102D5000FDA0109A34C390F4988BAC749C50EA2474
:102D600010448C7FA59884FC2BB3059630029F32CB
:102D700077D6EC96DF61C809EB8D012CC8BF6F9840
:102D800068FEF53E44AF4AD1F3E29DEB386E5C300D
:102D900090F65FCCB5603D6609C12B39C8A5BECEA3
:102DA0006EFF30FD0A19B96A08B5036BDD0641EF05
:102DB000ECE2301788C1813911A26684EDCC1C2465
:102DC000D38097E638F6B8A0C9F798C8FD04EF910C
:102DD0003085ED9E02FAB1FAB41016C00437E0F364
:102DE00098FECCBEA0FFB87B8607D002199E422D6C
:102DF000812830FD3687F49811CBD4D8B3B44587F9
:102E0000A03960048F8021378C267330085277A850
:102E10009880BFFFB6CC56370897FDB121180156F0
:102E200074B10208E06FEA9890FCCCFB0901D5D799
:102E300007B1B898037A10BFC2013CA007BB912D1F
:102E4000E83830F3BEBC98D56660B480E530C4DCA9
:102E5000302CF3AF2698ADF8FC5A78F23001B2C8A6
:102E6000BFEC2077CDD4B652C1F3DFF09B59BF98A9
:102E700093C0CD8962BC400C8F6614FF66CACA2815
:102E8000F8E60619FD01028C27E0F61244484903D2
:102E9000D9102CF37FEB8024882FB0FE023087B846
:102EA00035029802139D9D888530FC3295114FE7BD
:102EB000986F6CFE20DC09243E3070A35D95C8FF3E
:102EC000C8D0441A41F10308048C969CAFB3019119
:102ED000C0307A503402E330FC98BF5FB4057A9872
:102EE0001AD3C962DE78AEFC0EDB5BBDF13013464F
:102EF00082040336630CB9C8E3042021A3E4F8304C
:102F0000B64A5FC096C8C0D310D38E61F6D6C8FB50
:102F1000689E284DEEA11AFD268A0904C407FA9876
:102F20000E6FDE382EB35AD111F230685FC0C9106F
:102F3000802677525779B0D3D73E0B6BC270FD0213
:102F4000485D56ED05040B0F95063492242B4DA5D4
:102F5000D83CCB0C228819FF5ACB7230086EE88916
:102F6000DC9640E3C01480E911B2C808A79166104E
:102F700045822008EEDAFDFD84160D66D36228280E
:102F800044A7B92A2119FC302EF6E230CAC8CBEB8F
:102F9000F93088D711103954828008A29842E08411
:102FA00041AFD73288EF5014F79878FAE0063C0E1C
:102FB0000701D735C8E8EC9805B196A3F3BC30A259
:102FC0000519CEC89002D38730E02D90778C1BE096
:102FD00079F5E0E4012CE398D3102FC6F198DEAF29
:102FE000FE9091E31FC730F453948F028769CD3070
:102FF0008804A7EFCC59E17CFFF78C0110209DD30A
:10300000F76E12A06608976640F33099FA7F9C9895
:1030100019BB228B30B5B124B249DE16110C772CC6
:103020003001717D7DCC707DBFB4B017B0354604E2
:103030009FF10B611080E5848520716CF6F9AE601C
:10304000020480350798F8118D9CFFB3117564AFA9
:103050001830D9D479E57D4CC716E67B01CE3CF318
:10306000DCBECCDB76962136D3C098FD6121FF848F
:103070004E6688FF24C74F66FBCC6E31CAC639F84E
:10308000FA23F20FDF8C4FF391FECCC2464430FF9F
:10309000D8F6FEBFA1A87193CC32B2383003CD531D
:1030A000C5E066BAF320E576FEB851264924B94456
:1030B0009FF7C71BBE91E0F7B9F337B158FF1BC2AA
:1030C0008106667DF9982163FFCCB238FF32056432
:1030D0001631CBC8E137EDBED62C01A69A6A46C898
:1030E0005919E6FFBFF7635F6B44DCE9677EFA18A6
:1030F000FFB77F317035BD029618466859CED92F7B
:103100006C34AFFCB187937B75B601E6E25AD3020B
:10311000CFF34B631911FB951233228D25D79640BF
:103120002C93FFC59680E6CD69D4B9269E1009B1CF
:103130004CEDB250FCFFB50DFCE16DF6C830097ADC
:103140009910D9E6206C144039304010B660FCC5A7
:10315000E3EACC4038AACE91E40118985EB6DDFBD4
:1031600012B2E2DD4D025ED34CA130FB80E1B82209
:103170001E861200C141051B0108C80250D2A5E5F8
:103180007B984501B31094B428C2C030148543180D
:103190004380D885C6028308496AC4E3030CF55608
:1031A00010632E20EB04865FAA13504803289E82EA
:1031B0009F0C4014505BC98F6481B322DD67C50248
:1031C0005AE9F786B5FF84A3236021E00A48C1913C
:1031D000ABFF30B009004C845490D9FD885ED4B365
:1031E00082FED9CF5A190897F8DBD97D697D92E024
:1031F000EEABFF3D2E080421DFFB5BB96475DDE615
:10320000E1591A97F7186E038151BC781FABF43C53
:10321000CDC0D4F967F937B88FB1D85D3FE985C71C
:10322000D0E7C8AF86200B98FB611ED84E9FACCE6E
:1032300020E5DB2072CA44CA3039D5FF107786A852
:10324000B0FACDC4086885791CE75BFB7F90F979FB
:10325000709E2F0240E3DE3132026E43BC40F4BC6C
:103260006BF3F474C9F8765AB420DBACF0322E510B
:10327000377D3747FD9AC0CB8904278C4D5B60E3CF
:103280005912ABB3FF2FEF0A31AFD565048A8E9D7B
:103290007D50FDCDE3A61859F110CB64023FD6C195
:1032A000FD793FBA6802C24F32EB5685FE49409E17
:1032B000E12CAA47B6639051F296E4D950FABE5079
:1032C0007E978B5892A75BB8AC7C0849941C6266C9
:1032D000192C1AB70114BDA66967366411FC37F6BC
:1032E000EFFEDE67ACA61045D8E8B2FFD6EC241599
:1032F000795C9FFDF4B0F9A1408D7E5102C26FEC64
:103300002D88FD4FEC6532E168FFD9C8FAC8E304A7
:103310000C74BBC5FA41B87DC47EFDED8EC8C9FDF5
:103320003090AAE528CC59C40583AED2B0B1FB35A4
:103330004002B9AA9FCB3B8473BE3FDBBCE0F88C54
:10334000DA53EF9DD8168CA3211D570148AC980C79
:1033500049D204672EEC885AF74001E5B1803FE579
:103360005244FB2A94C3051158239C3767FC3A3614
:1033700025EDE558F88A7AE640C933BE56DE01CB22
:1033800084413997D8CDFF02A908B74D1FE640B058
:10339000E132FE8C8FC20E35F052D380A604B47198
:1033A0002A3FE34FEEFFA460F9202EED06CCBCF3DC
:1033B0000247E6207AC180887ED62BDB9A802040A7
:1033C000AC3610502BD9BD20270727F434B3030C9B
:1033D0009E36F81402481F125001C60480E420A251
:1033E00042F3F39B231003BA0CB825B35B5120B30F
:1033F000187305A815F6A05E79F0C02A020C77694B
:1034000010396BC06001E3B9622CF80230D5358207
:10341000C240089942F906B19180C0C59150B45A92
:10342000AD78C03D0D03AC60E6D6D805F118161096
:10343000E09E1C2160200167EEA09EC8403D639481
:1034400021209BDAFE043C98C8F3487F806DD42984
:10345000850FA5939BD680CBE32D335BF490FA7553
:10346000CD017DEDE62ABD5F15BF9A079719DEDC19
:1034700057180788C4A40F25A62B21C0F8D9BA6213
:10348000B210FDA808623AF8B304C5EBF5BFEB1221
:1034900068CCE55B8C9DDDB4D523616B7D591B0445
:1034A000BBD3D990FCA4EFDD65F61B30D5EF1863D4
:1034B00019686E32ECF8FA045376E808A0B1D8FF28
:1034C0006D1B10DDDB79FD0A9B9B3C04CC99617977
:1034D000046FB2E3F9CDD60FF8FEE3241136CFDB4B
:1034E000E33C4ECCE5A801AA2A02EFD865E88EDEBF
:1034F000E30863BC44B1402D5B5718794B8C9E7B2D
:103500007D6A57B1015FBDBEE838B3F8F84A58F993
:103510006CFFD9B8FDA5EFD69EA63D9F766A2CBF5D
:1035200001A8DDE1C5C992DE68B0FDA985207F8BC9
:103530004EC82CB1F39DD6B20828B35D4363BE5D7F
:10354000625F20F728F980096A7A840F50A060CE64
:10355000022D9D0611D3D3790CB1A8EC013422D6EB
:10356000BCA008FD8667E7BD8DB045E8B48006A81D
:103570000A08F361D6946C98FFACF1830C0401192E
:103580003F10D88130D2650CBB9410B406063DFEC6
:10359000FACF60FEE081D9EFA899040C78E086802C
:1035A000D3BF71C003601002E8804130DCCFF2AFBE
:1035B00065DD1884C7E2B3C6E7900362107AA6F807
:1035C0003BFAC053274101828D0C417ECC109653AB
:1035D000F80C018005308CF36ED9379840B3F32195
:1035E0002C028193069110EF5C2B738958F94FBB25
:1035F0000906C002841897F188A866C0B0706842B6
:103600008CBB11B02011691F26041B039301D33218
:1036100022016B6610089803B524011DB8A0FC0FA9
:103620005093F0401E81C419FC200FE8010D10A03A
:10363000F3B0670C0FE2D9012DC9B760D51A077F27
:10364000F91EC00378400F81683CE0A001324606B5
:10365000236D600B64792C2060FD7377D7DC1750E5
:10366000D7F9E82801F3F2C8239C43112F66AF3F36
:10367000BFD937E811AE3908C9BBB94812FA5C4561
:103680003012BB199E036444480445EE7BB383604B
:103690005EE3B385C6B4DB0186B3D310B45679D3E9
:1036A000082011D30CCF8003CB488145398670FDAB
:1036B00056BF34D398106602D1202463E2F3B5BF1D
:1036C000113059BF67740C67FC5EA526BC20A7D7D4
:1036D00084CEC80F81225163661A1911D72A95F634
:1036E000E25F2CE20CA51D019FCB73608BA4B51784
:1036F000F9E7DFF9987C8CD09B60F3A4ACF30394DA
:10370000DB8EB4678B66A9CB52CB78D46B08C35FD2
:10371000DF9983F90FD23DE690F8082FF010C91910
:10372000CD71466D712D465339DB1162DC18FC43B7
:1037300060048C820147F53ADF59BB29F96F6AFFB3
:10374000774566FC7F0213E2572C8803118FC00473
:10375000E018031066222C8681C417B6B09F5BB8B0
:1037600000047B3021BECD0139871408FD90300163
:10377000F0F92078D250425EC587180FD1E001439E
:1037800011F3A37898B3F3F6AE4AD3E0193BD37A9A
:10379000E0E960803C19408C1E99D30B60E6F2088A
:1037A00078F9846FFF2F98DFF920DD6406C411F3E8
:1037B000FFC6F37F4BFEC32BEF87F35EC55759322D
:1037C000F3B9FBCD362006D0B389C0F32673F38B53
:1037D00010A521F3A09CB56F996B8BD3F44C020814
:1037E00031B3C028182219C5884DF3C8FA7E448128
:1037F000BDA55ADD4009DE06201406FEBF09CB98A0
:10380000CCAAEE403090EE804618E0EAB804208D55
:103810001A614A44DC1605FBED341038FAFE61EFFC
:10382000332B765EE3D83F96CB05DE9446DF41111D
:10383000E5BDEA33702519E0302BB380CF98FDD970
:1038400030FE982BF3CC19EF4A9840A0FD0520716B
:10385000301E61E921D3BFD08B623F1C0858FB04A6
:10386000482BF1892C9F685F74D10402DCFE9836E6
:10387000A820781A073D2526C10458A949AF919878
:10388000CA206824E7E0FCBE80082293D68857212E
:103890009C98DFF5C0241801B8980CD81131CCEEF3
:1038A000ADFE57FC444F607361212C5F3F0DE73F35
:1038B00073308031FB100418FD20F8301616C00458
:1038C000793F0F60010D05713071237B98E401B6DB
:1038D0003C5A6E0AA0F8612E7D30F4401EC8037079
:1038E00010BFF4DB981648B83065D32C5ADA150CA3
:1038F000BC734D51A943AF002377998BFAAFA10454
:1039000020642B83887DD3FF2E98B5B3E730204801
:10391000FF5EB27766B114DF61250C2DA8113C3E25
:1039200059B24BB3046D2F6CFDCC24C20818019022
:10393000B3EF025010E130D3E402C0FE19A7AA632E
:103940001A50A0319D212E40F698841A2720041287
:1039500025F27D9DFD32A40117D5D1375F7DCEDBE9
:103960009382D057D3EB0545A655DAF9D5D9186817
:103970007EB40136F359C320BC30A386E020E55B5A
:10398000AD7DEC129287A8FD68FC0620C0FD5EFCB0
:1039900041D9E818C8038158E6968FFDC6C0801843
:1039A000E8040311E02D311AF1786B32C3B934FB0E
:1039B00033F831C112733561825A500222EF3FC58C
:1039C0009B3080457F59981039C85B095CDA11C774
:1039D00071F070AE0CE93D4821195AA5FB66217EB5
:1039E0007F0857796F5C80FE7F244879C262418CE2
:1039F000ECB330B7E3825DB0F146040201B1106070
:103A0000202C0E00297C801A039C328221B02D7854
:103A1000FA7130FE98ADC8FB490364410CBD98169D
:103A2000BFC43BC8813C3966E8AF412F982E782F40
:103A300030146BC6E677018D3E56E0013C10BC9811
:103A40005B15F8980217FFA3AC33FF0531668D674D
:103A5000E98174379779BD9BE010D366077F854174
:103A6000FE4AFA0246A390E71261115D090277BA95
:103A70009894201338D3E02B53BB55F88A0F08D302
:103A8000021801A123E0CCD13009D3FA10D220844E
:103A9000D3D89819149135D0D75665C8FC3E5C230D
:103AA00028E38871E13422199E4BAFA05CFD06EC3F
:103AB0009513D4CBF785BFFF4259C827D4B2140859
:103AC000DA48FC28538082D7CCC59E5B23307A4AE3
:103AD00048DBEFC416EFDB5FC3B47669C802A430DD
:103AE000A2FF3EE0CA4D33C8402FEFF598907DF914
:103AF000E0F3DAF5B9AA5EC057EC936B8703103494
:103B00001982B94719FB730E023FD30828FB0484BE
:103B10002892A73B8D07B2C81B5CEDC8308A56B30C
:103B200044ADB3221029B311640881094C59D34D17
:103B3000A8244012B2F5447BB9B2F884B79640AEDF
:103B4000049F24C78C8805804F93824804103F74DB
:103B50002C8005B12066F7A910503DFC42C1842B92
:103B6000EF608829A68666C42032CFC84410010EB3
:103B7000F8B930A016B0161EC4FCE1C8410CBBCB8E
:103B800098B58E409BC82C53197EC90E60869DB98E
:103B9000F0BD7959C8AC818CA88DD333C82CEE20E8
:103BA00010FC2390966CB5C8E52380FEE56C6F464B
:103BB0000CE3ABA0C228FCD3C9D5DB03F9C810AF16
:103BC000148C7F4B19648EB3E23D4A74C0E8529660
:103BD00080F3883D08986677AEF344F558931F76D6
:103BE000A454D3C902A3CBD8C45020DD68FBCC3089
:103BF00082D0513C50A06002EF1101943B56DE8E02
:103C00008D01301459EE87B31DD3FA7B41636C8D5F
:103C100030C23471D46A7520FD6DA23CFEFAEB8D82
:103C2000D5B6F8DF963C907E9F60E73EACDB0C8D0E
:103C3000DCF661903866E0F97A8130ECDE4050F0D5
:103C40000178DE776D9DC80C4491CB86407EA5A996
:103C5000B9F01DB1BA49C2F2A52E79E9746040F0FD
:103C60003807D0FA72954431535C7B017B40821057
:103C70006B92C858965711C6BBFE0D5B2ACFD40471
:103C800095A36014F40C20113182E4228250B3AC6D
:103C9000C6EBC805638430B37D4042FB49EE8C0817
:103CA00010F7980418030085D984908152599F32E7
:103CB0004A49016B949810F5D588B5B5F405979EDF
:103CC00023F34C88090F2151FC7677C804B066D5E0
:103CD00019B95D40778098B51EE25D33F31FFF6030
:103CE000803C9001D7F24016307A9B68412C1E55DB
:103CF00019C483584FF3D32D00A0BBFEE487805432
:103D00006644B67D729318DB9688A0DD6C6FCB2F6E
:103D1000307D408204DE4010935B96446FD6CAC962
:103D2000FAFA06334C26EC6412B38F4157B3932B47
:103D3000448236AE08665FC79CD5D828FFE0836012
:103D400021480405A07A99016EB30AF61E4270BBA1
:103D5000B1349792BE6CC560B02DA26D34FD984D04
:103D60004B69846FB632E430900E820610B86D9ABB
:103D70009A2030DAE878D41A40086A3A8580F65EEC
:103D8000D0FC8D1A8C88CFF6DE0C8881DF875CAA88
:103D90006E5F46B5774A9B79F6FA8120202BB6B143
:103DA000318CB00378B2C0FD9888AC41B359066637
:103DB000C20997262016D34BC86DDC19108170FC00
:103DC000D3E2013008F878048613848B27B8512198
:103DD0008C467D0A52E2F3539BBF80113BCB00E936
:103DE00061EDC44D5813697145C0F3E91475684518
:103DF000D3FE85E8FE8440DFFA02C008580408823A
:103E00001BFC9841F30202BFD011B330B930081F38
:103E100032224F9998102001D60C2CA8AF22664868
:103E2000532030242681B928ECEFC88803F4A51864
:103E30003A0BF5E210BFBB98E8013D3866B2D56E8B
:103E40007DF2CAC8CDA864F9C87767B171D3E4011F
:103E5000F22C2060F9F06F8002F6A562408549528D
:103E6000BFA59882E69CB32E6B6DED801878F7F3B2
:103E7000E0F3BB04299C7AFC59E201E2B3A71D8858
:103E800074B117A1B3A310F36C85F1B3C74BEDC8A0
:103E90009BE06812B2C8D3D89808681E4881912068
:103EA0000E70FEBF370147DBE6C8015DEFE1A63EBD
:103EB000801020041206A1010339B4A05CED5BF66A
:103EC00035C403F73797B5F3454523B321D7A0058C
:103ED000AD5EFB7402D735C841C6D4FDC5B781FDC0
:103EE000871298142CFDB6990362BD9801F3212026
:103EF000E0FE191C7F8A989BF598E0DAFC5C20763E
:103F000045E85C43672B6685853D41FC30DE400219
:103F1000E0B9C0B371020E71B31808FEF9041025A0
:103F200041E3539D8E2C2209728B109AF653086D33
:103F3000824104FED5DBDCE5043180B7F3E50305FF
:103F4000C140F310131929074924F50220FA84E32C
:103F50002AA00283180B49B004DB778F98F3106214
:103F600004BB0CCD987AB95BEFEF352146C9C48408
:103F7000F1E70E2C7CD2322246C2F3A408A3608261
:103F800088810504AFD0D67F2CED764032C8B45F6F
:103F9000FF4898C40C6B37C83DE97FDAF46AAB9EE2
:103FA00068ED8007F0061ED05FD3E298F3EF6B98C0
:103FB0000370533281B9F8B8FA438F06CBC8CFCF1C
:103FC0003FF320C841306A17DB5802B4662006E090
:103FD0005C4A4AF440FBA28EC1CBBBB923B05F7FE1
:103FE0000C66ACB3024C6921447AF3238BB3C598B9
:103FF000F29BC5CAC788A5B312C37103E3F3A751E7
:104000005E5E3E1B300298FD031A37FFDBEBCCB33C
:10401000ACD8BB408AD374FC977B9CE414B39C4F10
:10402000F332B5B3B32447E011A5B5B9D3B8F31C47
:1040300058FA06090DFF98FF8D9966C6D12CD369F1
:10404000ED36A3FC94D464F90EE444FC62A0B111F3
:10405000BE1BF37A2F11F6E461F80B33A597D585D3
:10406000462763D358FB7051079B511A7375CFA134
:10407000869FB648FF226ED379F3ED0A41F9821F7D
:10408000EFCC2168D3A8FE26DC4BD88753E19420DF
:1040900002662CB4044060F34121CDD8B1F9AF5988
:1040A000548086C3E68C2AFFD148FAC79BA67DBC04
:1040B0006F11A9EA967E65E674408CDDA6C338FBD5
:1040C000F5B302B88EB3DB3DD480649B3983C06501
:1040D0002DA204DDF448FD8096416791F3A39AAFC9
:1040E0006FF675479A6CFFF970F8784B56C64459CD
:1040F00048B13A984EB61859EE20DD12D930FA5E22
:1041000010BD02BC42111122D5888BFFD82957203F
:1041100070CA24D32BA7D0D60536B8FE4222096B2D
:10412000EF442878EFDDC5206716B39BFA7958E095
:10413000622D013C8EBCB987C6B328A10314201F91
:10414000D0828F0A0CF30328000DED3272AE11E01D
:10415000B876286BB36028C0A4269270C0AB316DCE
:10416000C241A8E0A50207C606FF600920434985B1
:104170001C05F0E8FB80080FAB4005A44F8F50965C
:10418000156BFF3020040A004C02C2034012258B3D
:10419000E49DDD74B0823F6618024086600C113FDA
:1041A0006701709B3134841F001CFE4C2035F05F8A
:1041B00008FDDF68C80682D7BC42D4B9CEEBB02573
:1041C000090A6BF26A5F84DBA3176B2690FD65EF2B
:1041D0006B8240BC20A35D8DA60829C27EFC1A6DAF
:1041E000870810BE7A898979805AAFB0A087769601
:1041F00002726480CEFB1F7E377D338FCCBEDF59C9
:1042000051104BE44072B95C1F06F8AF03D961FE50
:10421000EB771025C7081D9DC6CDC6E727D5179695
:104220002E67ACB608E541019FD593F6197118EDDC
:10423000E030FB1F1CA643592119EBE66F7F2D735D
:104240002001E2376EB0B8FC312BBDB124F5E70890
:10425000BAF7FFCB238FE83C3EC5CC63FD76DBE0AD
:10426000F80C287DB14045E922BAF688D988186E45
:10427000EDDEF0FE936246B22996CAEB112010D60D
:104280004378FFC4BE18F3D70A48FF39EEEC5690C6
:10429000FED3BA0E11FF08F4B0FDAE6FD6FD79FF64
:1042A0008BFA9404CA36685A23F875B1BF99CFFFC8
:1042B000C16157F661C8FA79C18FF5088AA6450829
:1042C0001DFDC6169604727808C73A6506D0FFC968
:1042D00058D301E9731AD86DBB881EDEECD8B0F84C
:1042E00055F6E73BFD5C88FAB1838E19D5D9A862F3
:1042F0007E2FCBF8FE7F2736430477452A63020BD7
:10430000D36CF714BE5AFED8751784466976990A9D
:1043100067E4FB1198FF6F93365D212CF74FD7446C
:1043200030FDBF8FF05DECA0FD40A009ECC271F341
:104330003C2DC408659915ED05E8FC9FD69D117DBF
:10434000488A3759C4FB06C16386CD3FE5D2B73EE4
:104350003B65C0FA8AFE395058AD04521034CE780D
:10436000486B011DDC4702ACCED06E10D74285EE03
:10437000621F68F96D401003DBAE35C6D02304E33D
:10438000B1AB5FF436200241B9723084E3AF64E030
:10439000888BCDDCF4F9603005A730EE48F01A3098
:1043A00078062DAC689DB55409161AE3A51072B3B2
:1043B000A00114E090CF4CA02C7C6A90C0A05A0FB2
:1043C0009850108AF802680509201DFC00413F54EE
:1043D000444901424072820874BC30255D941858EB
:1043E000BCC10321B20E8B25F1FC20F1045AB98423
:1043F0009008F4F935408094B0EC8B1E12FC0C52FE
:104400008B052C08FB80210198FD7CA216790A7C83
:10441000E53608E1B3D9BF2546B3AB58026D0A387B
:10442000F5F381C4C3BDDC38FDF078338E6FEE1B2D
:10443000EEDA445F6CBA828047CB3DE5EF60C7F9A6
:10444000907DD632EF8F9AE630B8F89692A0DF07CB
:10445000B0068F764A28AB57105D371AE6FFBCF8D6
:104460008DA5FE16ECB1A9CF3C9500D5E3082C7ABA
:10447000B2E5E33075A8408AFA0441D7B6E72010C8
:104480006A60FDC7BA41C73B1F01B290B792FF688F
:104490004B0175FD8F19C4FFBA0D9BDD96A8FAFF7D
:1044A000122DB4CF3A39A7FA016418EC4BDD45D888
:1044B000FA8CED78FC16679FC4A2AE77C47996E0BB
:1044C000B1FB7FB7B2EBB7755F108A6E8C02D58DEA
:1044D000C0B2488D66FB240A79CA9C1AB1084DDB2C
:1044E0003902B7D950FE2348013B8CB7DFA5CB2555
:1044F000108AEDD27D529EACA44019F906162EFF0B
:10450000402E9A58A8888FF67118FBE1DAEE50E237
:104510009FEB21CEF30460C67F3B4065234E08A18C
:10452000E7C6E080F8A09EFB261420B83D7C1181F0
:10453000A130344D06D038D50361145020988EB088
:104540005534803AD00882D0373305FDB4FAC046DE
:1045500050081A27B37A491410E9C8F88093060D59
:1045600091A3296FC0727E60C63D4DC2C78010E81E
:1045700002014071B764816BF78133B928FFFA08F3
:1045800034B3C1F19C03B90780C3B39073B382788D
:1045900072E030C47E835E3C9328D3497EE00641BE
:1045A000401804F1B3EED02008B3C3F3169C404A80
:1045B000200901B80888307C46C122E1E40B609EE6
:1045C000E0213002C47E374532E94108A069044049
:1045D000A7FA8008984CEB81D341E65DF8FE0F31D5
:1045E000BE9019B30361440280744004168A7EF6BB
:1045F0001A80497E5F94E7016A7E61861DCC900730
:10460000224124BF806E60F7A358F860033C90F30A
:1046100005F480064378307062FD0C8007307B33F0
:10462000017A30D3E0F63C107BB30CA0C005325FBA
:104630005C9018D34FC68805B05AF934F340D3F4D0
:104640000D10E8FF065F424D068060FF0E37D60171
:104650002F336131F302B33F70D2CD60FB96C62099
:10466000BED4017CCC75D7FEB4B3C204E43FB348DA
:104670000209A010EB46C028F0D1601243B0C4B9C3
:10468000D11476B0978860059510C6FCF44298BBAB
:10469000A1F00511BF2130F92008849E887E024ACE
:1046A0004885EF9E391E06104284AF0B6D79A0310C
:1046B000D6BE24ACF83210E03F0614738A4083B0B3
:1046C0000177A78B120F0A097F7CEB891402F4E9AA
:1046D000664110B920682F7F9C8B34B38139880CD8
:1046E0006AF8A206EC23E0838FDB6F2C40182619B2
:1046F000B11058BC4B91EAC2320EC0DEE3B38BC995
:10470000C0061E19038041CFE4CFE4093CB3D6C0F4
:10471000406F5F19F298113726D3C60C8477AB6BC4
:10472000FBD3DC02BB40DE1205CE40131D9DF7A378
:10473000607EF105C43D4E41BB304687B2038E8793
:10474000066611FD4594E9FB51F3D35BFCF10A20A9
:10475000F340820805C04277FE5F09060104584C09
:10476000D35D2C36C6665F3838080201D441B35E8B
:10477000987F4BF078DF4688051001F1C4F8E027F8
:10478000AAF90016EBC00378BA51813CF798201EB5
:10479000C84DF30F62880CB4500DD75030B4980355
:1047A0001AB0327088234CC69F18FFD3E0413C10EA
:1047B000D0FE807F1DAFFBF960FA714DD6F2180371
:1047C000D6B10C2E517D4074CD760362B9E3FE8BD9
:1047D0007EABE731BF64A10846C204D15000B317D5
:1047E000FF6964829613EC61040C4BD04D093902C9
:1047F00044012640D3975C6419E94850084F4CFDAA
:104800008104324220FCFB843C954A40A045D9D427
:104810001068DF4211C7056EB034CE7EB4A00134FB
:104820008006103A34F7E42382F8F30802408180CE
:1048300057017B0810D8F940336B8D5D7CFDD4F8AF
:10484000F3591DDD40202C84809412FF6721C6E0BF
:10485000DD0ECB5D0FBFCC07E2C0400492E7AB8C0E
:10486000F3FE26CC7E0661EF5AF11834930642F629
:104870005A5FB90CA4E8DCF9041987D012E90508DD
:104880000A6E49D780909D1BB53CF6E5E6B3FC75F2
:10489000D20620C7902B6F986525461542F352F13A
:1048A0002C5D300BC0FDD08451CDD773081730C7B5
:1048B000D844AAE0028306228C659B82C49995792C
:1048C000CE3E081001EE3DC7ED1091113BE1018293
:1048D000EF26815240FEB84A6BF7F0CB989A30032E
:1048E00020F48B04AFA32F985BC560F46DB59E5385
:1048F000F8F0E007B09720838A1970F26BEFA1827D
:1049000058103FD3800C2040FA7A33C01225A3C33D
:10491000822FDE05F198864BB60111D61610068758
:104920000CE06140716616F3A2AB8300FFDAB29827
:1049300097B3B5982061D49E7B9702E209B37CF8C7
:1049400067F61709B38446BF8048DCADB9300673FB
:10495000E52340FF024C84052201F0F85E985E4298
:10496000FC241A41A10804433EB4316811679889B8
:1049700068084049AC424BC09879280221A08BF9C5
:104980000180313490C66994C868F7841050FFFDE7
:10499000667D1568947699C87140DBC3B1842F2E6B
:1049A000A136303CF52CF5C101A7F02278FF092390
:1049B000E092C2C1B3BB6084C10131C005C0D21E48
:1049C000D0B30E5B90E6C90AD5F885AF412E982189
:1049D000D083C9AFE02F66674B1884D3100C76B72D
:1049E000D0D8FFFF1D8040CC18012D41F5EE1130CD
:1049F00092C19DA641E04496C80477B3988111F511
:104A000006494451FD5F9F8189215DC8D65840F316
:104A1000B24C21EF421FFC80FD093008204088760F
:104A2000722184C2935A05FB87F6E30F4830216652
:104A3000FE7F0472B408468493C1607F818B052099
:104A40001F0224E3000940CA44DE751358FAE0C08F
:104A50003D66F450C46D46107C982D067230202AB5
:104A6000CBAE3BF7CE687A9834B830EF196BC62CD2
:104A7000C65E6B8BC0380DDE98E81098FCF0D38FC3
:104A800030FAAC130D66A90827A9390240B330BC2F
:104A90004BFD2D981BFCB6624F3CFA4957D3D252BE
:104AA000E5C1D3D498C4E78F5010DF2090FAE048D6
:104AB000F79870082C2CD2FE147DB2BD9CC09A08C9
:104AC00023CA4920C6D84B7342C613CC64204F1169
:104AD0000E0860FB054417B7FF504103081101A001
:104AE00012043AF198D2F20328224190DFD698229C
:104AF000AFF8B10814815F7FEE0A21A0C8A8D014D6
:104B000090A6E1D3206299A80921CBF8FEEB4E17BD
:104B100030539A181FCBBD898241B9F1BED75C9B37
:104B2000FEE5B41C660C7EDF49FAFEB0DD4908DC08
:104B3000A69B0EC021BD7818AF204698065FF936B7
:104B40005D01FE962D5015F862CCBF07C2DDE4C4AE
:104B5000E72B66D00760F41EEB837033C841F1F891
:104B6000EBF90481D55112CB860B81C66E2581F0FD
:104B7000981F88400A80B09608AB69FF733182069F
:104B80002E2652F52472A03AFFEC82080A87684C60
:104B9000CF8009B950FD841EB075B3C20897C874A0
:104BA000EA5227EE093003482E8455B1B6F8BA1DF3
:104BB00078F9D175508E0A96E3114768A422C6058C
:104BC000B7FD66C851BD68F85C308B88F0AC20AF8B
:104BD000C87D9822012C8804FEC5E8192003E6DB75
:104BE0008D7BFEC4BA84B29BBD9818AF40E5A90D79
:104BF00080C603F3AC1AAEC8659AF8FAD8DC7D7F9C
:104C00009F23CB7D08F830FFC8D781E68CDEBBB090
:104C100042D6BBD6A502BF77B8C4ECBF7F84F5806F
:104C2000302010F97F31C28AC1604013F50A0C812F
:104C300097F7F030FB0C442080083FC5982731627D
:104C4000C02851D37684803D10FBA9F21362018CF9
:104C5000D3BFD2FC69EF36280A4903F508240CA01B
:104C6000FDCE4411173CFD0601A085B0BA6E01DBF4
:104C70009D3004A112688F12930C4DF0F114802620
:104C800042CC1A057A08259E9B02D4FAD79530109B
:104C9000E6F2F9C87F1330BE30086DCB45027D21A6
:104CA0001506302819921BF2C8DBCB877AF6C0FEB6
:104CB000E2D1D0EC710E4AAACEC88130BD98405CDA
:104CC000309010D3628096E478187A07EAF1FB52AC
:104CD000F592207720E0905C386F3D86F8FF283A07
:104CE00095068040D01E3321C4090A824C3C79418C
:104CF000FBF60A0C2809756E40BE8DA5E00468C25B
:104D00005466A54C660112797B488BE1FF9223FF24
:104D1000801130810940FD8408050B2114AE50C874
:104D2000B1CCD3115A08B3A18B672EDFD9B4CFBF52
:104D300060FFB809C6C00449BF10F3D70904D9EB16
:104D4000FDE0419530F294C8467F2E3005CEF583C4
:104D500078B95D402D36566614A86668300D17D2B6
:104D6000027078E263E523F0C9F358535C233B6497
:104D7000F8846E7630030110F9C869D01736309088
:104D80007765178066FD2447E09C971959E845062A
:104D9000E97F19194DB340C466C803B402EC91C849
:104DA00036A2581AD344CCC8B0B5A65ABC04EC41BC
:104DB000AFCE2E6B603013645088E90E24C210927F
:104DC000F344479CB91238F9EB0104805BE90A43CC
:104DD0009C89A084B43906E128D22FB850DBADFFFE
:104DE000FE01BCB27E43D0081A4003BEA7BE3F1FDF
:104DF00080C004F11842102C90E5ED9A98F8B83074
:104E0000D3EBA0C2D25F84D725F9AB9DA0155CE09F
:104E1000DDC480950EA20FF3E50C18BBE4B8FD5C71
:104E2000302B9A8E30F0480BAB57C87854ECAFC893
:104E3000B69F2FB0B6E62C93BB9BE9D983025A8F5D
:104E40005D17BF1CEB28C651B3FBB8304E22E512EC
:104E500045FCD71B84CABFDB2E1933EDFC4F9FC026
:104E600044300524C0491E0354248F0C420C041AFC
:104E7000E5EA604257389738FB847AB108E26AF76E
:104E80009861412CA18083D5F042182123C12C6A5E
:104E90004320C87D2030062201FE9834420801BB21
:104EA00046F70110FDA471E0DC30B480E230F4A5D7
:104EB000E853B0055C30772C230F4734C860E0CA54
:104EC00007B0165AD3407A983101F3AF822C989BE1
:104ED000C8FCFFF930C12BFDC8F2E3D0CCBE9F8FD8
:104EE000FACBC810E27BD371CFA95FFF06A7007D84
:104EF00052730350F95C3035DFC0C630ACB31210CA
:104F0000DC1E19B35E9867B7B38041A6C0401E612E
:104F1000068802D9B30AD760147DB1302268FE1D1D
:104F2000F3ED088A40FE98BB013A724818F79822C0
:104F300001A0D90504A5B4F356E0405F0AEE21A014
:104F400060F6783486912E1A2723A20508FB2014D8
:104F500004C0F9FE2BBC98FF5B978468C71A2058E1
:104F6000FA41891A05DF45E196D5BE787765A40137
:104F700039FD4696FCF3D9C8428EE0B8A972E01E0E
:104F800090F9070C42806E19B51240F8C98009B239
:104F9000A8973C70792B7A8BF4B84089C6AC1CE595
:104FA00008D8F8B866C811B986035E9844B30C45B2
:104FB00035CF3E2C200930B30A7BB1289E11E42066
:104FC000C122B97F6832DE88B323B77B454CC64423
:104FD0002451BE015AFB80497CCD20C02208EB0A37
:104FE000614026B5AA262C42E25D0B21940C55099E
:104FF000A9B3AB010850F730210401E4C8BB454018
:105000002F0CB2C8802339D7885E986BC13057B552
:1050100098E481EBC532BDB858AE406D303C107895
:10502000CADB3573689BB503B2D5EF7BC264803CA5
:10503000A09716C817F3A09808DCFA061EC2E2244F
:10504000F3E55F3BC568D997BE42D7F6305885B3C4
:10505000A5E897B5E6C862F24F3BDAAD577F72B16B
:10506000BCFFB3EF0498E7B32830129F064319043E
:105070000340C00A4C252C3BA921ABB304099C304A
:10508000E2C044E1C40B60DD8CAAFC40E8A4D81364
:10509000641F208891000AC418FC6346FF5E582EE6
:1050A000FBFFF8FBBF202B7BEEB5E3CA34F3CF58F0
:1050B000AC22CAD304B830C68595DE8563FFB3241D
:1050C00063469379A28DB1D3FAF9185683AF1031A4
:1050D0005A76E3C0FAEE33F416281034B2B701FD65
:1050E00071019EE9DF28FFF697E751ED8192446751
:1050F0009EB42401C0E09B1B17B6F389FB37F6F979
:1051000025E6D430D39038665AAE4703E0A4AF58B2
:105110000D41EFD92DE64D8D5388FC99F6A26FAC69
:105120005C045BC5D47288ADFF98CCB3F196CF5CBC
:105130002562DF2D6E862D88F54228D9A0FB4BC055
:1051400010D78E02187FA1B8B2E80CF5F880BAEB40
:1051500021F7A148FA80641971EBC910132E143598
:1051600034F5DE0498C6D8D8F8A1379EACA580F6F1
:1051700008B864B228BF6808788F81DEF86A47D61D
:105180000804D101EF20E6045E10EBB1445F5A4100
:1051900012EE7E40B6CB0D41ABAB044039B0ACFB58
:1051A000F101FA8F34B708C420AFB75811409F9669
:1051B000E9998A1C2002808EDADD4901CF6318F953
:1051C0006005B965F7068588EA9860A128BC900259
:1051D0001325E473629B64DC283BFC1A03A0850959
:1051E00033C3C4D85033C1427E300B26C0CEB80280
:1051F000F6411960CD0CE250FFCF6181A49A11EB0A
:10520000A851547F548198260534FA10751502036D
:1052100065118820DF9FDD3412540352F806866042
:10522000A008F3038C82174849FC04814045880894
:105230004810BD58FA02B7DBAEFD69FF93791988B3
:1052400074B0B5CD0C21D40C9BDC4840FC3070B35D
:1052500070F821211BF041CF06FD82107F77028874
:105260007FC03D625F7EB408FC5220B7B8EA863D3D
:10527000D98A14B7FAFB11CE983FBECC4C6F6C8321
:1052800057BBABE8FE2BCEA3D33BCFABE36B37DBF7
:105290008B20082065D484CD65B3D8FDC9B9909E14
:1052A00070B340C56CDD989E46EF66DE96CD470B29
:1052B00099FACB82102DEE4077ECAA0280A0F6116D
:1052C00053AD78FC623FE963DA656692227D30D3A4
:1052D000F6CCF93F9B7D401732E1D34B02D7F0B1BA
:1052E000FDDCD14F08E393FBFF801AD79068F802EA
:1052F000621B1C62BEF77F5F45F419526FF0866B2C
:1053000040E8B78F9BC688FE7DB3CF0D2D34B22207
:1053100033FB164544FC0A78E0A2A6E4D1B0C64BA4
:10532000FE907FB47FF3DD437518CD670292D4669B
:105330007D0936FF50FD5798D74BF6952DDDE718C0
:10534000FC97D6273FD7BDE457B324C06B3DB3FDD0
:10535000669888BE985343EDDA90FB9BB60414AC74
:10536000FF40EFEDB3E8FA0CF610DBFF98FD65396E
:1053700004AFDEE0F863260F62E004FF359EFEF91D
:1053800070F9CCFB950ED766B81B666912850BAE1B
:10539000202BED9FD665A44166BA1540C7B8D9B693
:1053A0004958808FF69610F8117E5540F3D5734C0E
:1053B000CDBAD62F10ED53C8FB8B7A9B10C74C117A
:1053C000F4CB380DB0FE8446D87FECF6104FDB6985
:1053D00048FE65C6048A18BEC2AC01C4167FFA1521
:1053E000FAF180DC4BC8CD7B05BBB4C0FD15AE59CE
:1053F0002E1F3611FC39599B46D8791F35BA1080BB
:10540000A81C41A4F72461B244794F50BDFA671437
:1054100091108BC40E02E6D30124E67D2010035FB9
:1054200002C2CFFB287E5DC911F63AD9448B08949D
:1054300085FF804FDE9582044B060A015C31AEA0E9
:10544000E734C00B61FD0A4A03488019E3CCDA4017
:1054500068444CBD2801FFFB60540494801120C3B4
:10546000AA099805662278D04A4586DB66ED253084
:10547000FB1E984A190402399EF39411290BC5A00A
:10548000FF182A89480A092133D9100C7F4D5B780F
:10549000C8B872BF39480D8B874001A695BFC48B31
:1054A0002D483445120122ED21F8FCFC2BD7EB9F4F
:1054B000F2F5201F3B45EB109BE685FF8247E08A13
:1054C000FC652346E6D6E2F8DBE35DDF7906E0C162
:1054D000DCAE1224233FC6D0E910D4A092F802CD4E
:1054E0006C7D4496E3C8FDFFB08AA34DF79937025F
:1054F000018664EDE6EBBBC4F6E38E0B58FB099E18
:10550000EDDA108CC07F5BDEA8FDC81C2AD3A3F99E
:10551000A5E58096286AD20D89ADBC80FCD35224C3
:1055200091FC03133F732F7B379823ACF673C94369
:10553000E5395240A3FCF012D5430875FE9A19B61E
:105540000237B4D50D80B991EBF7F85E33CACC8A37
:1055500024D59A9098F2B1F83DDBEF0418FBEF2CBC
:10556000B550BE6CFC40FA61D61064191C4B580251
:1055700017DE6EE8FED8F20327560C207A0880CE9C
:10558000F5F940AAF480C96C65D0FCC29DF374C0E3
:10559000E7B1AD326595E380F457407BAB90F9619C
:1055A00016992B0710F15B98236E6230D4FB1859C3
:1055B000ABFB101223BAE9CB8BBCFE0692460A0461
:1055C0002E8D4D9021F711A04C01284CB11335B50B
:1055D000A0FE0134800650201A62F66CF48CA149BA
:1055E000F373EA6068FE214DA201140988FFDA32E4
:1055F00006EDABBA3510C774F7DFE563B3E7B20E5B
:10560000776438FB79F7300806F7CF18C0ED100241
:1056100080DE0130DDA6C0B10F02C40915E008210B
:10562000E36918C4C00F5F5ADE9007A340B3E74197
:10563000C640FB77F0622614AB987F7102018005AB
:1056400021B6C0FDCD2C191AEFB3453001468F04A9
:10565000985F7FF00A2182459E199F40C6144C81B5
:10566000090322F8FEFF8091200226C22F40081372
:10567000326C4C95495CD359FC050B60214002D932
:105680004C42CFB24880200630D518230B7B828055
:1056900084045FFC880B61040C105891BF50FEE03D
:1056A000011CFFA007F0401EC003790F0FE42EF38A
:1056B0001C46F383782903F8B33C86B4D33C652BAE
:1056C000B099EEE0E0810C5716CF9FC658200B270B
:1056D000E636E8F833F010AAC25F8C2EC3D1C0F3CF
:1056E000494618D67FEFAC3033BEF8F652B0E02012
:1056F00052B6F80652F0F3405653FA3C2010FCF82C
:10570000AC25A3E2C053600CB0374BB308B311F41F
:105710009941DEE008E0D78C82E0D926B8B36972FF
:1057200022E602AF7819E54B42F5CA0A41DCD234D1
:10573000D45B26E5EF1821957BAB418067793E7DF0
:105740006E7B98021A814028FF848CA14114920636
:10575000D0CC0458F3685C4D10F686067CFAFEA5A2
:105760006FA05CEC80FF5A100CB7F80680ED7A95BC
:10577000C7FB11EE390EF8B1FE60EDD0AB3283AE4F
:1057800046E24C8130E007346B1E84C48BE1B36188
:10579000946644F6C70640E7180483F40F82BB41C1
:1057A000DD6E401E04DFEC3F613C08C0F80469E890
:1057B000B2983A8B60CF681130902F96F5C50404EB
:1057C00086621D095FF93096587F0B60418D800518
:1057D0003A9146C17CD45360808C2808B41DEBFA02
:1057E000847F7F20C0A0182D332253099882B5C230
:1057F000A64D03E706903041677B4B0930CD12067A
:10580000FA18C58FE298910642820508FDFE8511BF
:1058100022FF69FCE0813C9005F1F90016D0037885
:10582000469EE2538001F07C43C8037A20B1DD2F0D
:1058300057983D9798FB4D035910BD98A0AF07A707
:1058400002F3200BE49D817688FF78E594E35365AD
:105850000A405DA0F99BC4F3DE0403C4B1301EB559
:1058600064EA165D7382FA5F4400D3BD98885D4A8E
:10587000DCC9FCE0C524C0F958040B6002B3F32175
:10588000304016F3985EB8A312191343B3065E981E
:10589000E7936011D305011E401C28D7F38B904F6E
:1058A000E6C14DF95EF5E32202105748E64C4CF391
:1058B000148B9078770B018E33C4D0B331338406C8
:1058C000701A0B1308E20141A04034EF26D042FDCC
:1058D000140D7030606CF8EDBFA1E134B37D980217
:1058E00066E5A9DFEC44FD4601B8E1EBC3F0FA81BF
:1058F00077450238061003AFE05D1A0621FAAC23A3
:10590000F3FF3FDA98C401F49822FED380036220AB
:105910000C8807309007DCC140405FBFFE011020BB
:10592000A0FC8011BB64044C7C2309F26D8205321B
:10593000D3E56480BE59746DF726487A98107EB31B
:10594000602040024C0F853081DB10C067DB5120A6
:105950000750FD20A111EED7F9CB086042CB9F90F4
:10596000FD20C0221801FE4B2CE5FD79B910312134
:1059700006D34849417F44080480401C2D82007DA5
:105980009F0962584ABBFD9E5D05F0400E71267A64
:1059900000573A6A8007F2E030B579D57FD6DE6AE3
:1059A000666202E430F05902E0F538100F60E18BD6
:1059B0006EB0E230ECA4E4DDC620937BA80285C47F
:1059C000081D32D60C04735DF8ED8B836097E69862
:1059D000C5ABD4D1C3772E8A222F9F51D8418B1DBE
:1059E000B3D383F6F93D6930100478986913C05B2E
:1059F000C6EB3102168523F38AA8B341C0F3E0BF9A
:105A0000CA05D732229E8BB3832810E92002406654
:105A100016FE881252200A43097F072CA4010412A3
:105A2000105F0C5EB87E40BB66FAE5A17F66860615
:105A300050281A48F3210A00203334162650A7D2E2
:105A4000F37A2C9031D2147F819865F9BB11E2AFC3
:105A50008A66CD01D38D3EF2BFCB57D8780D30E4A6
:105A600002E8B81A750FC7300D040903D9BB2C2CF6
:105A7000EF9B7FF83CF2C86EE8612E8C5D0320BA84
:105A80001C19E2DDF67E28FEBEE601C3E884180993
:105A900006B5222082A1E51880D9BB9609E66A6680
:105AA0000504840F16020450072360A0848BD1A242
:105AB0006911B3234C8C2044E49773F8CDD7C422EA
:105AC00089D7F1735F9608C3D3C4A2180CF06B0D8D
:105AD000D60612FF762BD461962F05AA8C320C9233
