:100000000C941FB80C943EB80C943EB80C943EB8B7
:100010000C943EB80C945BBC0C94BFBC0C9423BDF8
:100020000C9436BD0C943EB80C94AFBB0C943EB807
:100030000C943EB80C943EB80C943EB80C943EB868
:100040000C943EB80C943EB80C943EB80C943EB858
:100050000C943EB80C943EB80C943EB80C943EB848
:100060000C943EB80C943EB80C943EB80C943EB838
:100070000C943EB80C943EB80C943EB80C943EB828
:100080000C943EB80C943EB80C943EB87F7F7F7FB2
:100090007F7F7F7F7F7F7F7F7F7F7F7F7F7F7F7F70
:1000A0007F7F7F7F7F7F070007047F7F7F7F7F7F4A
:1000B000077F7F7F7F7F057F047F7F7F7F7F7F7FBD
:1000C0000F7F0E7F067F0D7F0C7F7F7F7F7F1F7FDF
:1000D000177F167F157F1C7F147F7F7F7F7F007FB8
:1000E000277F1E7F257F1D7F247F7F7F7F7F187F57
:1000F000207F217F267F227F237F7F7F7F7F7F7FDF
:10010000107F197F1A7F1B7F137F7F7F7F7F0818E7
:10011000117F127F0A7F037F0B7F7F7F7F7F081015
:10012000081F097F080F027F08197F7F7F7F7F7F6D
:1001300008027F7F081308117F7F7F7F070C087FED
:10014000017F080B7F7F08077F7F7F7F7F7F080706
:100150007F7F7F7F7F7F7F7F07037F7F7F7F047F1E
:100160007F7F1C7F1B7F7F7F7F7F7F7F037F0810C8
:100170000C7F247F237F137F7A7F7F7F7F7F08110F
:10018000147F081908200B7F7F7F7F7F7F7F7F7F11
:100190007F7F7F7F7F7F7F7F7F7F7F7F7F7F7F7F6F
:1001A0007F7F7F7F7F7F7F7F7F7F7F7F7F7F7F7F5F
:1001B0007F7F7F7F7F7F7F7F7F7F7F7F7F7F7F7F4F
:1001C0007F7F7F7F7F7F7F7F7F7F7F7F7F7F7F7F3F
:1001D0007F7F7F7F7F7F7F7F7F7F7F7F7F7F7F7F2F
:1001E0007F7F7F7F7F7F7F7F7F7F7F7F7F7F7F7F1F
:1001F0007F7F7F7F7F7F7F7F7F7F7F7F7F7F7F7F0F
:100200007F7F7F7F7F7F7F7F7F7F7F7F7F7F7F7FFE
:100210007F7F7F7F7F7F7F7F7F7F7F7F7F7F7F7FEE
:1002200008277F7F7F7F7F7F7F7F7F7F7F7F7F7FAD
:100230007F7F7F7F7F7F7F7F7F7F7F7F7F7F7F7FCE
:10024000017F7F7F7F7F7F7F7F7F7F7F7F7F7F7F3C
:100250007F7F7F7F7F7F7F7F7F7F7F7F7F7F08158F
:100260007F7F072408057F7F7F7F7F7F080D070B37
:1002700007237F7F0713071B7A7F7F7F7F7F7F7F27
:10028000071C7F7F7F7F07147F7F7F7FFF1F627F39
:10029000E03C00E5B0437FFFA0089001324006E358
:1002A000C800194203074414E0012341CF8AF32018
:1002B0000365FBC00C94290034FF7FED0133500629
:1002C000CC54F71928036627E033C688009E98D3DC
:1002D00044800C7FB988FC0014C00287580BF8607A
:1002E000012C800460430ACD0270F34032F305A074
:1002F000E6180CE4B312CCE050DBC008286D17E020
:10030000502ED3344ED316B988FD130486FF98FFC0
:10031000C5D0E51031024099E8EA401008310120CB
:10032000B604808BE00829E4D898F9FC2006E54063
:100330005BE524C782D804D8CE2008402404CF4CE3
:10034000B328D3820818B402ABE2040130E8058078
:10035000A04AFFFB1C9EB7FD060E8010189BF308F9
:1003600048248289CC7E042C82A3EC744E0A046E4D
:100370009809C3244F22F3EDFFA4848082C151FC6D
:10038000444FF3A21A95279A5B4610287AC549591B
:10039000F9E4673B41DB53E068128081E6E0D0225C
:1003A000915B4809685706C0D7F4CC8063706191AF
:1003B00052945C8263CAFF2037B5514E60D03E9B99
:1003C000F8FFE0013C62C1F0DC18E8F20FE48120A4
:1003D0003D77E91E0818A7B2B824CA4C0980ACC002
:1003E000E9F310037D20C580F83C328516027819A8
:1003F0005D536008310E300469C1630B3F8944903E
:1004000091B040678DB6E046C849439C214004A5A1
:10041000F363422719601980218730A885FD110BED
:100420001220E2C042402FF2AF4C9005E970B68432
:1004300018E008118E4DCA129AB5C080093BFEC162
:10044000449A2604801EB6DAC008987A7E6241205B
:100450007FF30A48FD60400C80FE07320006C003AF
:100460005918B0603C2CA007B0C9F3C8490CECE0A7
:10047000413CE768E0013D32D3F0F874D33920DD28
:10048000C43C08F070401EC82838C64EE6E2FB8027
:100490001430D3C3C2D70361030C88E7013120A90C
:1004A0008018A508D60CC0E659C96530E0B8C1D39C
:1004B000BE285073E0DE2E18C69382D35CF8FC8011
:1004C00005311016C0AE08E961808CC002932496F5
:1004D00046833FF08C848530424CC8A0A1BBFFB45A
:1004E0005C2AFF0708B0443CF3F39320148CFAB065
:1004F0009D10B308183369228CB9B203F8FE2B9D06
:10050000D09811E952F822AF891857E114910117D8
:10051000A37129238493B321FF23779004FFA3D8E9
:10052000EDFBD348E61240A29D8205907B981268AD
:10053000AF141D00FF74FBA840BFC2ABB0CD987ACA
:100540006851C9F3FEAEC7A1A0B90C662236FF06FA
:100550008BD318420DF3F2C5F77AA3F9C8F82BFC38
:10056000CB98DCD6C00319D7AEE0B19801C03D1ED0
:10057000080218BF71A0202185B8086609FFB704DA
:100580004E854023C0010BFC985187F3FD7CFFF89A
:10059000880506C116C204D21811CE84620F301528
:1005A000E9D9F81366972CA8FB98A08137FF01259D
:1005B000810AFF7A980526C08889826BA008DDB879
:1005C00046C8A6533221EF992E33FE9AB9B147504F
:1005D000FD10136401248273FA26C4FF4818031027
:1005E00062810884BC050651CCFF08F893E8765771
:1005F000C8CAF0E0EC272CD3FDB0AD805839F461C7
:10060000044C5E66FF41FDE0010CA007F1E2001E14
:10061000C0FD78200F60807A98F0BF4F02AF7877E6
:1006200098813C2001BB8E80FFC7E70245A4ED8581
:10063000F0207EC53867E068F390079F71C6C80355
:10064000382016609FDE88FC8401305EA5157AA5EF
:1006500062FF3BA5EE05FB127F4198206FD425FF7A
:1006600044EDE0345D605F47F3796B7B8B100C7772
:10067000FDCCF9FF8045DE0ED708989798B9A58183
:100680003005E0F54018098BDFF48801B0087219D5
:1006900080D3F5CC2AF47FB39A22B3146F26600A74
:1006A00069A616C286A33A1B4C826BDD68FFEE4139
:1006B000E6301251B8300BB8305C997EBB699B3084
:1006C000842080B3AFB5CCF9320D76DF50C503C0BE
:1006D0003D173F3D102402400348CF142C9C2410AA
:1006E00008B3F87BD0012FDE5929601C46AF80B6D5
:1006F000CC3766F59840AF1C0DE5775C84F74CB3BA
:10070000013C07EDF1CA0AE0DAC1F9A28F5FCC44DF
:100710001DC36AFB6A6644DD432DB3D59301DAA499
:10072000C42FC6FF8F0820D0FA842104E8411602A6
:1007300049B9304C3E0EB04044C24C3E8864F1CCC6
:10074000849130193FCCB922A710E431054625FF2A
:10075000B39360210C8105329E84894218419EE842
:100760008CA010066BDBFEAB04853DB3DA40E8409D
:1007700088315DBC4C824618D7443611DFCC6C5EA4
:10078000EE218040D71808106059715FC6FC16C072
:10079000221804230F414C8811AE20FCB160010DDA
:1007A000A007FADA1EC40358F098173CF1507F0FE7
:1007B000400FEDE2012CBFCC046A66BC68E0BDB519
:1007C00083AF58527801F3B44DC6F338DC03F70C0D
:1007D00010A8F8F9A5DFACAD8399D92E30687F0B4E
:1007E0005007CDF34D6E9BF80181FC7897E001A88E
:1007F000E010C65D66EA5E84FC23E0CEB349ED46B8
:10080000087FED090360028C90089A0CD3283BD333
:100810009D30053002DF505C30B503E7308810B002
:1008200039D3C182F3F02360202C51D3DE6B4FF318
:10083000222C8045F61042A0F9DC3069F741F230F5
:1008400028EFAFF22398E68BB3963009BC30C02175
:1008500081310D024625FAE0A7B998900298A8E2E6
:1008600009122D2F6D9894FFF8ABC5CBFF96301071
:10087000BC30B312CBE3AE77F2ABCA7DEB507E3225
:10088000303D49806EA169A5AFCB300227C5986E77
:1008900019520CD3201EAFC5D7CC04BF98C0FA8024
:1008A0000502857F343053603CEB29B0C0BFDD9832
:1008B000020B6441F024841101DC195C30B505E6BB
:1008C00030201045C2F714001851FB031131BBA2B0
:1008D000A70AAE6021828CBBC6E3AEF9CE51218F50
:1008E0008810B2D5038B8D8BA0DE3D406042840E14
:1008F0000430F2CCF59911AF293003DD44AFC4F2D6
:10090000AD136124D5982516C030587F0B60144C68
:100910000208FD220009FDE08166C8F1EE4B6A780D
:10092000E44F0BC51E97C0F3F9C5FFB664F2306003
:10093000E4A4F0D0E0D0E05FE8413C88CB0772C689
:10094000FC8BB94D10EE28F980E530C2DA0272D680
:100950004157731D23E08BDBE6C821D361042419C2
:1009600009945B702659A879E0FC30BF102B9B5589
:10097000C209E84BB25426E0E52123643326E0089F
:10098000E0047FD32300018C8411DC32051964F26A
:1009900030889355A2D3985E78FC020C84213011E4
:1009A000AFD3CA7B9386CF7B1021A8AFFAAED970A4
:1009B000304882505A79C53DF18802400893E59845
:1009C000DB640B6E2E30EB550412D2F460E08F75B1
:1009D000E223CDC80A7E2A097642E8F921E798F297
:1009E0009802C82EF0DA640CAD6606FCEDEE3275A6
:1009F00084F32CF0FAB0FBE0AE3D336E48FFB4BD9B
:100A0000783C652FE8284B6709D3C1E034DBF092CE
:100A1000ACC0D3B2BBB36E3091FBCCF4C11646016F
:100A20007A984C3529F9D5FF990213624484809154
:100A3000ED0401023FCC0D4BBE22FCA57B2610C469
:100A400088D57348AE75044602941953F09EA0F3FE
:100A500002E2FB4213E80620C04DBECDBFFD813946
:100A6000FD0220CF450AB6239D1764F3300550835D
:100A7000B044A20490F5DB843FCE0A10C1441805AF
:100A8000FCA2600C200410EBDBF0FB8B87C198FF0D
:100A900006D00379200FE8EB013C90F20F1E468B45
:100AA000F336AE08BFCC01AF2E30E2DB1CB91081AB
:100AB000C87840D36FE303FC6B2ADCF6087AFB3F6F
:100AC000539A5D1083F58882FC23ED401804BD988D
:100AD000026FF79CAB6688D47804D342E87494C65E
:100AE00010D35E6B5E8B76BF0881FC80053140EBD6
:100AF00026C200BCDE60124CFEF332092601025809
:100B000057F31723A9B805BBA05C30A593C00A739F
:100B100030820522CD56C0A240217C022C8011B229
:100B200083860433B30BA44C5F34EB0860F9F5EC17
:100B300090FD0E1211363729109EC50A498679F3A9
:100B400004384E2EB35D3081E5C3CB30306F01A544
:100B500048EF014922CAC878F3200921019348F3DC
:100B60009CA2FED95E268045B2043878F0F34F2E61
:100B7000215C3080665C3059486AFF9660BA51FF4C
:100B8000ED1998F87424CFF7F091C003112D837CF0
:100B900045F6AB0848F19FB35D64D10A01F07A983D
:100BA000C4D5B3085BFFD10A62F7A3F06220F00C52
:100BB000E44038F0F8FA3A28000549CB49D4DE5A27
:100BC000725E98E0C002032F6EB52C2022F319E567
:100BD0003011C5A8DE17A11131E725180123AE6237
:100BE0001B4F73A2B32111341C02D38334EBFFFAE1
:100BF0008051300216C0048D080B90640891CC2EF1
:100C00000C18758F489085C489B35E995A53437107
:100C1000FF10AC889CD55418032C608419909DE972
:100C20000946C0E893F860014C8241036BB9FBDFD1
:100C3000EFA00734401E2BEA8B3D775690F023BF80
:100C4000402FE8CAC8E33082B425FFE5DC10B4F4D5
:100C5000C8D51AE0416EF3F240F59810C5D39B7BDE
:100C6000804CAEF55F3061F3B963C245F3F78E781F
:100C700098A274B36D591004BA0B5CD3E0AF083F6F
:100C80005BCF78F39841F3DBC239F9C61130EB162C
:100C9000C21029C8ED082BB3F27524E01A4DB381B8
:100CA000D380C519DA645157AF0ACE7F2DB0100E2C
:100CB000C040381E0B640A44D3DC4B045820811911
:100CC0000CFC8211020120FBBFDF8B30D59804D7CA
:100CD000CF3B95140403B9302932A884E38FB3EBDA
:100CE000644FDB3231FB9808011178D856A0F36EBF
:100CF00081E69BD0FDCBF2D1352AF4C062BFC9A8F2
:100D00001B19184B2D87056653C1911D960EDA0AE3
:100D10006FC34C97887E51C8EB7C58E4230F44C5C1
:100D2000B4F3EB84BC8B8D293B6C506A66A5C8B3C9
:100D300007A7BE4B2002E00108D7C96BEA4203387F
:100D400020FBF0FE840506B93048B8407772C73002
:100D5000848C3F9802131A41BA84BCAB8D1975FC80
:100D60000270F4FAEDC216C41019A2B401A13A5BE4
:100D7000460425E8F084DE9807F904FE103041208F
:100D8000C10288BFAC21E74C90319A06C4AF48EF4E
:100D9000E86142EBF16FB7CC6933810805405EA58D
:100DA000A204F8FF72C142185CEAAF24827F6F642C
:100DB000FECFC8F0401EBBC4876A462C902BF3D4EC
:100DC00098020C9BE063205FB4CC35B7CFA8F0202D
:100DD000067785A5B5E4E130C6957AD3BE022098A2
:100DE000FAFCC5D5C46DE5D295BB9DC8040372302D
:100DF000885CF3636FF69BFE98BB40CD6B7D9804D7
:100E000072F301EE073010D668FDDD49A702F998AC
:100E10002BC0B0DA3E0898CC0101EFD38930D288DC
:100E2000E0300D7830BD98409D20E018107003AF81
:100E3000D34611465C309B084A2CB85104F9C1874F
:100E4000859910D352F8C84C08F7B0056540936AED
:100E50007C69EE3430CAC8E53001AF1D3094C8EE6D
:100E60007F96A55D24EB9842DAF32924FE721CFAE2
:100E70000223BEE07CDAC810F050B6D5E29FE03025
:100E80000D79300946F8F9C46FE698F9BCB8FDCE83
:100E90002AE5308071106A8C208BF365190C713053
:100EA000AE57C800307166AE6DC80792BE44EDB54E
:100EB000A5407680BFB80B7324FF833A88C716021B
:100EC000CA195120F2FEF198A89114462B6485307E
:100ED000ABFFCC64F23088B3C816AE142F3DD0E718
:100EE0004CE03C4642419CB8BB8DF8D51BFB1390AF
:100EF0009240E7C10210A361417797980523EB1850
:100F00000313FCB18131B04B02F2073511FFCB72F4
:100F1000FFB047740240673F611D8281C7301033C4
:100F2000F358B862FF218C0245302019FAD76001CE
:100F3000BE9830401ED003B830BC98B92320F71EAD
:100F4000C08018E5C8DB7B117330900269CF30E8B0
:100F5000413C905E6B5C1059C87FBD8BF12004C48E
:100F6000DBF659C807F0F9D780414BE9C37F5A989F
:100F7000107123727D84B97D0469FBCC58BC4E9BF3
:100F8000198C016E173064E59BA9D37998733031C1
:100F9000FEA4808386D7ED98251010B3E9E084E0A5
:100FA000B443DDE31201B35FCBB509E4CA849433E3
:100FB000C7C076B4414CA0D3FC16C424180493F5E2
:100FC0004A448188F846F88C6CFFE2B3E964C5694D
:100FD000F63238D3ADF8B7E3E110CA671AF375BD3E
:100FE000FAFC7A6621CA02E0CE03D3FE0184C6FF72
:100FF0007866B3BE9BDEFF281E5966803C30638D49
:101000003930FF8CAD74010C1A9E2230B135EFDB04
:1010100076C9A4F1106CE4B6505B1902FD8E9E3BBC
:101020005FCC651BDE1BB5F535BBF3E0FAB40408F5
:1010300051CFFBAACC79F3533C91E0D30D1B176041
:10104000FA1BFBF938B4C481D3376DD3B8FF97537B
:1010500020257811E6BB85011168F8B5053337D432
:10106000FF24FC65B64068F97F8B5AE353A00BDB85
:10107000FFE8FB73BA27EBA0759410E757FD5EAA53
:10108000EC28DBE8725CF3E6CC21C78ED8FC806EDE
:101090003B8E40D8CFCEFBD633657BF01985FF0C55
:1010A0004B9DB84566E0A7DB371EB3C22C6457C81A
:1010B00089F7DDA20865248E28B326C74BEC2C17D0
:1010C0009B9B2C0840FF96C2EA30FF2B66640BA165
:1010D0003290B475135FB52859C902E5D2F4F6DB36
:1010E000848080FD87016AA58608D990A096F8DFE4
:1010F000A8C0816DF98C085A0B4BF5211263812031
:1011000004EF80105FBB02E23EA633CE34F698FABD
:10111000C03F0510B4FF30400848501A2A043E0969
:101120000C05A0306FE510C8A716717B668018FF0C
:10113000B81425C002900011E420032AD50485F1DB
:1011400004480120F9418128C3F3B0FE4046982E9F
:10115000812070C391E0F84300230110AB5946543D
:1011600050DEFB108C1403903FFFDE61205880C0DE
:10117000FF40852A2242190C02C604A8F1068410F9
:10118000C83F4A201101A128F5600089FFEA0980C3
:101190003F8DE93C52106FF756F1EA9E1B2D4D40F2
:1011A000DD2FB4ACE4BF08B4C26F14C8F91102DB80
:1011B0001FFB0E88FCFD88CFE3BA87CF3FB2F4A7B0
:1011C00082969402C0D121219707694917AD3676DE
:1011D00089FCE7D8FD8CB79C4FD5623F33635EDD59
:1011E0003BAE58FC35E520670BCA8463E71FEE5021
:1011F000C8FCF3CF5F9724CEF9509BD57196C6C437
:1012000046DB64ACAD03C261D5AF10641446EB613C
:10121000202C68CE0ED3C932190D43F95D7CECF851
:101220000204BD8A81CB58E014A92FFD84676B614D
:1012300080E8DAFD0218278ECB59D51633FF16D475
:10124000C0A8D480F6F85A2E40C78DB2F85DD754A6
:101250009C04DB6FCD4CA8FD96485EA415CBF60A26
:10126000C5D5DB9A7AB7803F71CC75EE670588F8F3
:10127000ED4C1479699D97E59BCE2CE6028E36B332
:1012800059FA14EA3E5031190F3281F6A78CF9242D
:10129000E52F1075B1AFDB7E344C40049566FDBC84
:1012A0009FC726F46C36A6A2EBFBA0F462CED33324
:1012B0001A37EC372A4194026AB1D8E0FD53AB35B6
:1012C000201D6CE0B8FD7878031AEB0E335B4954AF
:1012D000FE3C4058D6E1788C7B8368FD76D90DAB17
:1012E000EA1016F8DA0CC56402C6D24B81E0FF633F
:1012F000BFE86F967F2871662CF2FD60B8F38F3DD2
:10130000A4806EBFB30276D42610FDC5FC7DDDB38C
:101310000867256420C8AA2208920610F3D5DD7854
:10132000B1FE1F3220F8A0CF31518DDB90981FB352
:10133000A7999996ABB90111FDE2028A7BB598FF96
:101340007A3220CE59600246C57FEEBB1006A5CF8B
:10135000FE9461FDCC2E9D325E56C1802419631D22
:1013600013EDD8FF2017C110AFBF115E8820B80859
:10137000B11EBDB74C376C7587C0F848FCAE010490
:10138000AF62145447F8647130656599C78B8B263A
:101390008AB6BF1B44E5842B2251E0EA812068A471
:1013A000FFE10812E5B5A8097F2B7208669FF301DB
:1013B0008FF7FB05437E3B2DA4CC6ABCFFF2F5FB07
:1013C000408504B001FC12200697001A3C690D3CD0
:1013D000A8A69BD9B3D4921B84A113255E0473A045
:1013E00028A03C392180546A51CADECFA7150322B8
:1013F00047EA300C2C80781510FA1F24140CC29484
:10140000C60488CF050A6D1401E8FF0C1E1A1110DE
:101410009161058500C1DC0230723648C099F8D769
:101420000360E9B230FE14FF40113B451802019001
:10143000172382230C69868B23829D03ADD8F80A7B
:10144000DAA50E88D7E891F8DB484576F3B36DACA2
:1014500090B5535B0740EDE7C2CEA96EE742F59821
:10146000FDDFE66FAA8A40249C2A04BCB7AF8FF741
:1014700034EA1619B3F9093BE40810CEF510BB079E
:101480001A77A058FA2FEB2F7631DEAE3355FCEAEF
:101490008CC98F5F1138A317BEFFB640EB781F31A0
:1014A000FF4E5973030DF5C8FDAA06012540E57FDF
:1014B000E492FC63CBB808136D47E0FCBCC43D0369
:1014C0007DFA99988302F61061BC9CB4BC0214F5B5
:1014D000F1413BF460FD2820DDD7B689106F2C6FF9
:1014E000026B367D40CA7301FDC5FE8A6EAE80C7B1
:1014F000FEBA59A8C304CBFA28ACFEC439532268FB
:1015000090626222F7CD37D1E330639C7FD9D1104E
:10151000ABDA083C7E58CFA7365E9CF9C6EB248A2E
:101520002C672BCE68F0FDFF8A44C93FB3CBC68D34
:1015300067567380C6D35174FBFD67B6B1D0FB14F8
:101540002E840431CF9250EB64310201641A5E980C
:1015500052B6476B689F6E4F4F9858F92010E2348F
:10156000A184154BE08457575F9248CF4281B30264
:10157000CFF2A9F4B234C0B9D09E82F76C4481276F
:101580000985C068113E884930010506A8F9044163
:10159000DBF3067DEAC6B541648AF60CC26EE6103E
:1015A000596B883E4AB90CE73885FD018011FE7100
:1015B0008D0362406E605AE73076F90FB2B9C47D90
:1015C00034085C9F5A150D71476432BFD3373540DC
:1015D000648FC235FFFF05800842C4021821DD2058
:1015E00040F8CFB0574667CA2309388D8005ECF420
:1015F000B34565A387B85042921831F49A16BA9849
:1016000001A88CFD84053202D0F9DBE58006732049
:101610001013BC8CD782493826C008187E88601108
:101620004C6C95B040663E12167F99180203042256
:101630008CCE8049AE40C157C6431E862C4F87B31F
:10164000FBE081FF3C8003F0401EC0833F530FE06E
:10165000013C88FE07F1201EC803786509E2F39C6F
:10166000183EE00C8007346970C0E00FB9E2F3F077
:10167000171E10221981E89081D36BFEE6DC66C448
:101680001418AFC398B986300F69F38360F381B340
:10169000308F6600E06BE010E8A2D3BF45C040D3B6
:1016A00053F3840181312898FBCD2013462619F786
:1016B000058B601037B3224627E023E08C88B111F8
:1016C00016B3B10873B344988640E70A0C81C6226A
:1016D0001699C2D305B3FF442C8011B010E8FCE783
:1016E000200084C29202C09B5077EE6E88F3A64F12
:1016F000018A2115BFAD98225CF8310904C4E2507B
:10170000AF9269C8410DD306FA2012808210F75EAD
:10171000212850F6242040FABE2B625BFFB7415AC5
:10172000ED0CA8F80690B40D969641ABEC8027948A
:10173000AAE8B3833004DB8480E6F080ED0657E14D
:1017400062F6B309BD40844CA001C08AE34826DAA2
:10175000A8D374F34010C9784A0F50FF8885F3204E
:101760000210802804F92361848C28A6B6C21B1AB3
:101770007C0510D70211808803C0424EE240012C44
:10178000909E0A0DC64830F88224FE04104089FF5E
:101790004C06792633BA09E2200481FE8211010841
:1017A000C6C017580013E761014CCD3002677E7F39
:1017B00011643D267370F003043F0C80052022461F
:1017C0005F2644A6A25E6BD799FDBEA5A007F400D4
:1017D0001EFF22C5F3F1C5F39AC4F320F6B83D10FD
:1017E000CFF4983DC0E0F2B80ED32FE4811CA58061
:1017F000C60E766B1004620F3C0858F9AE84F59E55
:10180000064020E798FAD230FF3CC5F358DB97AD8D
:10181000981005E076A79F6BB3BEC10877FCCC702B
:10182000FC8029FFED42C20850102364CE0A8CE0F0
:10183000B008DDB380B18505B391CE93445804E779
:10184000E08801109822F382291D041E1062A6412F
:1018500057FCBCF5902001027F43036881070420F8
:101860005D965CEBBB08F8FAA149761121B892812C
:10187000A77592601170CCAEBD77F79088027F1A81
:101880004D200A24571D6EB121F5EC10B6D62B5809
:1018900028CEDD45CA84C26D978240F76118799BD6
:1018A000DC4ACCA8FD5030D3B931ED81209210AC88
:1018B00043C9F298E35A3F567D3C9FD9351920E73A
:1018C0008EAEA218CBE2FBCF88C0FD0C94A0BAE08C
:1018D000862194BC28FC6479989E5C4C693412FC87
:1018E0003144581022412C8C90A6DDA14898E2B6D4
:1018F0001F7FCAE2FD84493AF626C0D5E7603F9AC9
:101900008111300916C4FE089820A360044C63AA14
:1019100031339E1A8930014691860981FA08408840
:101920009180533484B3608273882298BFF9DEA516
:10193000F1401ED0EF6EC5E041F098ABCB8B922307
:10194000E8E6D9BB246AF8FEF2010C88073220D3FE
:10195000D26B60F357EE8D6B68783209401C6BBC1C
:1019600098BB40C145D7F2120ADFCF98E35014E28A
:1019700030DA96063BD0E0DB8E30F67EF1FB97FA4C
:101980001138C0052241FB88802FDB4B113138B361
:10199000BD2B09890604FF58200B60024C8821CE1C
:1019A000B040B3149857660303F510310190EDE58C
:1019B00034A179E977906821894D3076E42D10B90A
:1019C00094F28524B3227930015CA05C9CE612116C
:1019D00020952920B3A426D2D70893373011497F08
:1019E0007EB4FF7FDD1ED255BAC63C9EDBA80FDB5E
:1019F0002BB28BFF19A5FA30FD6F978E66C8FB5787
:101A00005D5F0995D5CA0CC4D2026D791E901BBFCB
:101A10003C2063BB2364D167EF4E18841EECD48056
:101A200001408BEF88239D97EEF834DC4602C5F326
:101A30002101124CEBB102266B4980D8D724015703
:101A4000219E4B7A64A9110229413FE0814C84090F
:101A5000325DC332CD0166E4E0B12FABF980452B96
:101A6000F85C029908204F010C8111FF000A10C494
:101A70004818012303140CB710C9C8826DFE7F31CA
:101A80002041B5BC59AD047A352C025030CEBB484C
:101A9000885041829DF3C669FA7A9890EE403DC025
:101AA000FB78100F6040F93006EBC803798623A35A
:101AB00008CD3B6637D5053AD3037A103FE0913025
:101AC0001E97809840B93690F9F9D5BF02D6D23129
:101AD000DC7D7E9908C966882D37E0C1AEE040E81C
:101AE0003AEF26D3E00C82B3C85195FEEDD76431AE
:101AF000ED2144FF8C88053002862EF3E050B50CB2
:101B0000C643CBBB1456F88901B61C77E098203F3A
:101B1000E08449180206809510FBE9984C43F030A8
:101B20000928FA03EBB42042D300418C0477A9D3EF
:101B30008679406BDB2A803FB7170167C822823263
:101B4000F6687564F305FCE4B64A08F301DDCD30B0
:101B5000C8FCFEB92E42D2E935B4FD4008FCC7648A
:101B60002D210A5BF8058086D2E6108ED83695D0F6
:101B7000190F7F9690FEC001108007BFE0A49E6100
:101B8000D1F339D3AF1178AC9FDA64413F6320C8F9
:101B900089025BFEAFA0DAA918E439F3F670F828E1
:101BA000EA88F020118450708B40C9EA15F621268E
:101BB000C0489C30C780056CBBB612C92E651D6538
:101BC000C80A66E102E0E6385808FFADACE7E98AEA
:101BD000FCED021017C0444575EF988211B0083330
:101BE000A3289323E560048CED75E799D5B0FF1227
:101BF0002226C440E6981063EE2C46F3A5408618D2
:101C0000DFF1894C90F33002A0FA233CCB8004CA68
:101C10004E2F3DB40FCDC8837B8BE281DA3C089B0D
:101C2000BB76F5E103DBE016C0B3A8E42BE02DBBE7
:101C30003D980FAE68EE8418F9C9D5665FB9828306
:101C4000FF2E98347DCBBB15F5981091CA1041CB6F
:101C5000BB5E2730E63008519EFDCDA1200282ED0B
:101C6000750B600AE82130DD16C802E7D378985674
:101C7000DCE96AB3599BAC019DC8190340C9D3B0D4
:101C8000865E8B5EF8CC8220F3B2CEE2FF95854073
:101C900073D4029AFC684B3304BE0F5DA3DD2C8025
:101CA000A1795EB7DA87AB11112BC89530929230CB
:101CB000D3270585100212BCA8BB4C295E98971249
:101CC000B3FD2772B604F280F3EC7F968EF0E62126
:101CD000C4AAA179961B7317539D8BD243EABFEC1C
:101CE000FDE8C00131234AEDB3D40E64A3236CF2A6
:101CF000F2040F35B6F4AB6E0A5FC17F44BB3C8281
:101D00003015E599C882EB0057FCAF62C9BC0D6283
:101D1000FFF96308A0D022EC58236BA99E5F469A76
:101D200010B649408480DB400436B34204DC30BB4B
:101D3000B48430B5A6C4331181B5FC04A101639A03
:101D400030FAB035AAFBE39803C0A02828122493E8
:101D50007A5C1110C0EFFD0B6044AF4C599802FF44
:101D6000328D3026E3C00840690B0292090F0A2623
:101D70000728989010A49D9E9B1128FFFF2F983F45
:101D8000A52FF5CDC8F166E883B3F5E2E1013D0882
:101D9000B45ABB48BFAAE0010D8805F4DC400ED35D
:101DA00016E4FF358BF49862081C11F8DC092766ED
:101DB0002610032BF08D6A35150462B9C8B7882246
:101DC000E0F334C622F30AFF9531104198FFEDB1DC
:101DD0004BD398909640BC44C0EE0303037672F553
:101DE00011314CCCD2AFF31E6DFCE3220C880911EB
:101DF00032B303FD4B4CAF907D8BE8FDA001847B9B
:101E0000FC889ABB50E51CB5753779D4E0226B404D
:101E10002D427D4B026DCF3024890490F58892606D
:101E200003CF3DA0050480C446D0D11A089B66C8E4
:101E3000340EE0FC40C17F00626DB6EDBEAE5CC703
:101E400011BF4B1FF55F6F904030E130F747D2F87C
:101E500082DBB00877972038C9FC80715D9FE0ED88
:101E600004836040990EE038B3197D72DC30360C83
:101E70003DDE53B742E4C320C052814782E96D2B57
:101E8000EF41AF37F298DFA1D0FF04F8482082225B
:101E9000114BDF5E40012182098704469414D90C5E
:101EA000485205562177BCE5501040446C20582E0E
:101EB000880011D3257965746464459F100860FC1F
:101EC00004202EB8E030350BCE5D0848B02F20C17D
:101ED00004F118010B60662CDEB0CFDF968530214F
:101EE000C24640227B9174C22BC0C3285758B19878
:101EF000028C21847541E8FEAA0FA0E330BDA54005
:101F0000DF03E0EAC520CDC87A7330010D676D4864
:101F1000F9D5B6F2F36B23D7982070300D28F9A7C6
:101F2000AB9840D2980192EE3723E250DB293C6611
:101F30004CE096C1F6D308036186F3DC3059513882
:101F4000D3A0F9129146FF579808BFC580513005BC
:101F500046C859C87FAB4B892CC8C7FFC089B05948
:101F6000C85E78E122400A57102B23A437C809E73E
:101F7000C89020EB0598FDCBDF91F302D640C85FF7
:101F80002C768140BF40CBE3ECA3FCFFC88534092D
:101F900010D00813BF1180307A24C01014DB26BD86
:101FA00098B0FB5104061CFA9EDD0201401039FB7B
:101FB0007138DAA76996C849BCBAAA82E50642B761
:101FC0006EEF81F1997F1DFE912BA489307688BB3D
:101FD000054B02F7CC0EF46E1D40041936866EDEFA
:101FE000DD25CDFD1FE39074EB81D58BC2F2BFE9F7
:101FF0008BA1FE9268F9808557E630305010FD6065
:10200000408102E67C9A6CFB8C8421301210F5989A
:102010008264C818447A6081F47890F71A80029834
:1020200027372C6F2112927B66E71605C0B6C2399E
:10203000403FED09300A16025E9893135CD91014E4
:10204000B6A9356EEEA905B1BDC84033E063CB4CEF
:102050009A025A41DD6D5870CA5F888405010321D8
:10206000FA5E98DF8005C93079167F2230B0B4CF90
:10207000C8E0813CDA00072DBB907928E8061CD324
:102080002FA8F198C66DEB984080F36BD0FE4B0201
:102090006E96595561BE985C232D4316BBD8AA5E37
:1020A0008CCBA855E020FE785F5769E298B967F9B4
:1020B000B9B311202E5F1BE02621F830B2E8F7B348
:1020C0008C800996320E86BBC911840FBB2021C8B3
:1020D0009AE002CEC8310845F325F3B33E791130BA
:1020E00010F0FA031B5BFF04F1D1842DFFF8FB799C
:1020F0006579A31D51F62170F3166AB421C6D8D3B1
:1021000088FC0C121DFF98FF288D1993C6D1383911
:10211000D890FF6E78B308C8EEB3D4808CA0E37972
:10212000175EB802B56AC62D66B9EAF81D6521E4E6
:1021300051EE66984491B1E6E0DF6E79C691A075E4
:102140002B68EC3211FFCC982D19B47EC2631B6C46
:10215000A3B5692CDC77B8D8FB1805B7D8E5B299D8
:1021600048F01BECE6A360FF59B544C847191AE7CD
:102170009165F3693AE689AA8D400CDE43FC6AAAB0
:102180006FF44C131B0870206680D734000AD06DA2
:10219000F776F28841F0F32D45B375E7F89DA8F482
:1021A0004AC76E546872DB28FDA8F001DAC7CDFF7C
:1021B0008FDC32909418048AB878B3130B7D558065
:1021C0002F7833C0BFAB8897F91E8D34E581B79166
:1021D0007B5A1E3953621E981D7CF57797CE8AF084
:1021E000FB3FDBF7DA017E9918B87DB214D348249F
:1021F000DC94A684D7A350D981DA317E5A6908F8D5
:10220000503B20CF80D62EB8FC63F10C73A0104059
:102210005C06C80350EB190585840C0BD89831482F
:102220008516207788A36BF814244E2DC580E07D99
:1022300093A03880543A1130834178B0A0FB800BD2
:102240009F0E628A2890F80317501A0C6E6B232198
:102250000129215D80ECA22004EF9C80B8089648FB
:102260003881414159949D6CBF84C2AA56237A7922
:102270000A29FF1253E4BD881AF8D7AF8D317B2E9F
:10228000C9E520EADC3A2608103CD7D6FEBCF704A4
:10229000BBABCCCDFD28DE1024ED02DB9614FBFE9B
:1022A00005701F8467C47CE3FF3575E920ABB2116C
:1022B0007BD2F8BCFAD0D97A2846995718EC59CD78
:1022C0001EF0FC92C14471536DD2B1ECCF3217D6DF
:1022D000EF087BE1B0F96AB8794499D61F2DC2B0F6
:1022E0004DDFAB9FA8620ADBFB1528F923F6E94115
:1022F000ABD90828B4FF2093E7CF32754DB2FF84E5
:10230000206CEDEC0838FAB3C8CDE6CC95EEB1FE02
:10231000C1E994D998FE5E6D79B4AED8C3AFDB7FC6
:10232000ED4C05D568F319BF6CE6FE6F6CB27F6BA0
:102330007CAC76868E50FDCB23E0E4F80CB66EFEC6
:1023400031AB7E5B7904175B5B2EB29DA0FAF2D7AE
:102350006DC796C40251671BF3E82A54CE1DA1F93C
:102360009A456DAA14FD31D37D31BCCFCD8008CF05
:10237000509642C0E0F9633995638BE4202C3C9879
:102380004F98FB2C2D59FF04693C01F56815BB18CB
:10239000367BFEAB19020A0CB1EDDE170A0C4C9E1F
:1023A000B0FC2616AD6640CCB1FF4BC280660D96E0
:1023B000FF017B0388FA2FB0F3CDF811BC09FCDADA
:1023C000FD107C15711897DE873568F966F7DC68B3
:1023D000F9799B8CF81CB1A6351448A96E9614B7F0
:1023E000F831DF9FD8C360DE5BB8B69EF8FBCB81C7
:1023F00088CC9F7777A280E92D11D24369A2DCEDCA
:102400006AACA680EEE0FECDFDB7109FB5E8A60051
:10241000A6F7520721D9F580642D6178961901CA73
:10242000D0C037F533B976D9DDEA08652D8E049B27
:10243000C108FC55EE0518E497C379667D79FCB5B3
:10244000657D2EBFD3A9BFE8FC6147ADA708C4A333
:102450000865E6C021FAAEFBE32C457801E465D9B6
:1024600019B9089DEBB5012558112CFBEF6EBA6028
:10247000F944CA024B8981FEF097E3416521B924F2
:10248000661840DC1EBC2388D3F75AEAFD29EA957A
:10249000094EC680F1E0FAB6110C013D2010E0486B
:1024A00051C536FB10828B78044122E27AB302CB0D
:1024B000D96DD740AB5E536C5EE0C9FA607F14A063
:1024C000011280069072A0A61F0C20149D3216D017
:1024D00060EBBA0DF9A302BDC0CF0C00D2EE40DB19
:1024E00001EE9EADCE40050C4FF8CB068050480D56
:1024F0000A10240E6C88FF0C631F5281E0969F1017
:1025000087404808C1F021200C243E161006E260E6
:102510007D868201310CE46D4C7A5660461930EDAF
:102520003A28285373FD8482E650E1608A0592E7D9
:10253000701C20838118A3FEDB7C94B0498B7AF356
:1025400080BB182223BBB2FF7E20AD1007C1022D35
:102550002637FE426E0D37D70134B938FAC90086E6
:10256000FC53C13B024414905EEB0F5A41081077B4
:10257000DBBFFDEFE7C20BF9E86EB325F4AD07B89A
:10258000FF10633EA819A9B48CEAEC223B514C150C
:1025900003E4FD6136C0A5B30AF9FD054BFC112724
:1025A0009B5468FB20775F14EB5001977004F93956
:1025B000B79B4AEDEBA95D8AF352D0F8793AA7C4EC
:1025C0008862063772C901BC59D5E710B3203B3188
:1025D00084F72040FF081A8A187CCE5E734D79FC80
:1025E000B9A11BAA9207A78076DD28FF264FB2204B
:1025F000B83C231133590F6BE9754CC918FBC7E977
:102600001919852BD340285EC7F74E1A6EEFDEB03E
:10261000FC9B7AC114C9D33B1F58FF028FF60E48AA
:10262000FDC0F5ED028F90E2E5FB71132E65BCEB6A
:102630001E03CC15C612D8FCFD3BF2EBB1AC7D22DB
:10264000596C20A669E88D283B30FB3F2C5AF3C417
:10265000C279B2FED7FE360ED357C50AF019EADDAD
:10266000FEB1049FD9C920BF33B3407FBDE1FEFF57
:10267000A001048006D056F2445B5C16FC34804412
:1026800010241AF38D4C420DF324621FCDE204890D
:10269000067908014403CF970DC6ED4473EB010C96
:1026A000FF40A011060098FE806E7B9460B0F3405E
:1026B000E36E18517A0CFBA13B986FB506FD3F0CF9
:1026C00096339584C6B249FC94E0C24E8803E3C0B9
:1026D000F748185ED30D9C2778BEADEE8FA4165B2D
:1026E000803CD384413CD1F2C0F6769C0F653430F7
:1026F000FE6CE32A22F7F8180903E6600A0CD230D0
:10270000B6632E5848D7A11AB3FECA3612064EDF5A
:10271000DE2309144CDF6D84A1B2E220A4E784E437
:10272000B3D8FAE521BC100242185E0B60017C931D
:10273000453012241C280094D3140B2C7AE71A116C
:102740001021387302149023B7114C1CC066FC088A
:102750000B62048C012F312130FFE360800C67078E
:10276000F0C9C003F939200DE001F300CEDD0EF30E
:10277000382005641909A3FFE01D8B80B41712C02F
:102780000A186426E8D3996F1E1ED3C5784081A02D
:102790003433A7F8E330E12006C41AA003FBD9C103
:1027A000F32D9344F3C688B1010FA2800857731428
:1027B000E95220E0317E8342CA036289FA7A1B190A
:1027C000E0B190E058EB8326D90C820622021C84EB
:1027D00005F4BF2CD99110ECB3080AADD3126226D0
:1027E00069BB26087319112383602C77B288A0FD7A
:1027F0009EBC98BCD25656692B285320FF90241AB1
:10280000024368012C5FAB159BC98324ED818801CD
:10281000814844017998DE6B2B19E27E14822AF7F5
:10282000144104FB2F46063653F501C1EDF3100C9D
:1028300091D67EFFC3B30639D7306FE783B5C5881D
:10284000FFE5F2F582EA2403F778840130CA8807AD
:1028500070E80688B0CFE245253B54F07B9803181A
:1028600047C47FBFC44070C3090FF35E98EFFA08F6
:102870000419B34303D5210645B087100292983757
:102880004AC4FFCC09F120211002E208AFDAEC0CB7
:10289000902C3FAF090B7F129EAB19053006BDC5CA
:1028A00018BB114768D3B010FC26422888040BC916
:1028B000564CFD99673EFF30901040C150975549E6
:1028C0002C3938CE40C29C582023EBE82C90BC28F1
:1028D000D1FEE0293D9DE6F1201E631A180F5DF33D
:1028E00070EAC579F7B8811C2067FA981CBCC2FF52
:1028F0001F9816E04104A0BF07D0983985773BEABE
:1029000028FC848453A9EBE38360CBE4B183060302
:10291000FF18040362100C8481D83008878E981D3C
:10292000C120BD98625E6BDA4130FC45D6C60CCD45
:10293000A566FA7F9511265F73900926EE0CFF5F5E
:102940002641083AE02340FEBF0590CFF44B45F105
:10295000FC16C008CFAD60018C8A8897B3C49DB3C4
:10296000F3BFB3D0B2FE7C98158DA7829833F308DD
:102970007D2959E8621A6E20E02E4C3004CA82B8D4
:1029800032E090C6211FEF982441A0FD6FEAC103F9
:10299000E3C47CA3FBDA63B62B57470571B8B711C4
:1029A000B00C99EC9870FABBF5AF04ED9B107898D9
:1029B000AFF13C988E58A69E4A27E0E230EBBB8DE3
:1029C0002602C6ED03423D98A8EDFC840586B3922D
:1029D0002C99E00A101C5AE1930C49B2B0B340F9AB
:1029E00030801740018F08427F61EA905709AB455C
:1029F00080F9BD2220F3F51021B0F9EB0B12BA518A
:102A000009895E06C189B087C644E7580810B48CAE
:102A1000022DB37CE5DF5F648811300120DCC1400A
:102A20000AFB444C800532DE7910636022937920E2
:102A3000BCFFEF60403CF798D0007A2B7097309045
:102A4000FA9881663907D93CC4393005CCA0079083
:102A500012CDBD192668A7EE7F06E68D0328BD9826
:102A600038E0FF8041F40806C1EA9483A9E34AF301
:102A700081F48B02AFF3B7CCEDFE0AAAF885FE2FE6
:102A8000306E980361E33051EAF3C8100CD2872509
:102A9000F8809E11C626C010085A0B60F598507B2E
:102AA000C5400233B381F3849B10B30A37AF17F4E8
:102AB0001EC1A3F1D3B28BEFAD924B7E23D3FD9811
:102AC000C8AEFC3F6A24C85FF34989A801F3205EC1
:102AD000C55FA1D71141D9C8DAFC5EA522E3E34462
:102AE000102EBB17C5987DDE5E70E774D3D14CFC09
:102AF00033FCCA791DFF122DB5B252594BBF7F442A
:102B00005EE1667ACA18F2D215C129B6499C097FDE
:102B100068EB04A625021D8E9A6EE031E60E66C9AA
:102B200080077B16F3F5D786C42FB37AF79810F099
:102B3000F92DED478BB3242CDF8091943A46184F42
:102B400020281012B322BFCC11C73280AE10CC1394
:102B500083F44C93C0DA7C82AF982D98E1202890C2
:102B600069A3FAC0023FE12298040B6091811946E3
:102B70003F89C40218030B071280ED8205B08D70E7
:102B8000B73E019F447305C018140D72EA20857387
:102B900000DE5EEF406004E63061FDBCA5ED5D4CFB
:102BA0000EC93D0916FB3C9007F040F83096091D10
:102BB000DFD46DEA43F0FC5F043290BD9810AE0F95
:102BC0001E300C12001E971640F23008671941A102
:102BD00006C171237998FFC20807E8AF96449C2587
:102BE00092C866EDAF2D949FD8D39702B6F998DFBF
:102BF0005BF321FB80093B0676A5028053738B8132
:102C0000409746FBF35D2480C605106BF6AFDC737E
:102C100029860DC04FC82360128C779DF8DC0D20EB
:102C200008C9D38C19EBDAB8FFF23092EE647F2535
:102C3000A0391E40D402EE19308D22B05CC065EA86
:102C40001D2386AA6808528EAC015EBBC62EF6D143
:102C5000AFB983A448B5F82DD445154047D57A2B94
:102C600040DBF2D9105ECCFA323673F2880ADBCC44
:102C7000E7301098FF46E0BE855FF945F3D612F9BC
:102C80006B6EFFB78248123103C570F9C8BB04DF11
:102C900098C22006C403AF122F98FB9FF0FF842137
:102CA000DCB34808889E49FC91008A369014FE1EC9
:102CB000308F291021CDEF17810930D785829C995B
:102CC00096812C2937B0407C9FBBC8B198903F02B9
:102CD000FB84113006205878582083606FF69826C0
:102CE000C20D983059224CFD84B08002AEED9E0199
:102CF0005766207F32085809D9A8CE80887946C106
:102D0000BC98BA0AFE703068FA606B3CB5E820EDFA
:102D1000A57810A79398F3C481AC78E5C8011C7C12
:102D20009DC530E3989D1ED7D083EBF9E8EE45CCE6
:102D3000C8C80D7940FC30DDC0F9D59EE798E9029E
:102D4000FD13764DC856626F1C81202C58EF3BE571
:102D5000A5FED3F9C896081C9AC55EB87FB398192A
:102D6000FFB332F81116C0049CDC086401AF965D15
:102D7000A706F0F95D9CF511106B0543BB6111E0EE
:102D8000779798161051C8882B79C2F82C0B640BD2
:102D90004775B3A8FA771230AA427D564808292809
:102DA000A72F5D1AC9C848B314B8C889D35A44A01C
:102DB000826C8D393050AD84AFF6BBAB9616CCDE4D
:102DC000E505E6539CBD2D39B3C8A06A21B340B2D6
:102DD00074F3596FB66AE63078FD8FEDD9E3B32E00
:102DE000A2E230FB194F3250B4FC037CCD90301678
:102DF00020662C032BFC3E13F830B8EAFCEDC8909B
:102E0000FA53B388ED205AFC834402C5A65094803F
:102E10001AF5FB842930050431B38077A498102477
:102E200065B8494C199080C6174808BF119E3010EC
:102E30000122DB676691ED46C22BAAF25F02197E82
:102E4000001240C08498BEF32994E0083086B35540
:102E50001904F4328606138BEC26C8BD827F6608FF
:102E60000B62014C844D6671FBDC30EB07F0205C9B
:102E7000AC384005FAF33C8007F10156188120E098
:102E80009641F3691965C870305F0EC08318EE4033
:102E90000F62F1987B5E5E7F0E303BD8FC579EDF61
:102EA0001FDB2C62FEAC52A9930422CAC8F17E0B30
:102EB000661166461366F78360BB20EB5225E8D3A4
:102EC000AE8EC2FF19FBBDD20AAD16834723CE706A
:102ED000210328B097A6147B98044CED8285B0BAE4
:102EE000B95B5EFDCCDC30399713602F1A20B93006
:102EF000423FB3095360114C70866BFB7D62020345
:102F0000082E9C0CF340180370434526BD944002E4
:102F100099A3FBD33677B79802607A98A03245C65A
:102F200092AF5257D684A0FEB46DD0FEFE02560971
:102F3000DA499FCDB649571A7DACB311DDBF3C23AA
:102F4000BBBF8B305B2908FF6C807BD32F7BE5E612
:102F5000061154F204D066EEE301B8308E94F59871
:102F60000C0A26F576D6C003429E98FAB8FD84096D
:102F70003121B3C9A5172C8440B37252240C96C1D9
:102F8000804976B7BD91880530847A9880BC985E78
:102F9000B366920470C8052277092105E218FA8405
:102FA0004D81C001CAC542414F89F81246C004583C
:102FB0005213E051D4E89BA715273905E001219170
:102FC00013B4DDEA8B26FA32D3A2BC98759C98FB29
:102FD000F4295DAF401A98EA09F18B39AEF26B30F3
:102FE0000319E4C9E6B3DF15FF6095D59AC806F169
:102FF0009826CE6240F30372EE6B305920D0981CB5
:103000006BE0ADB17CB7770620047FF90681778B42
:10301000C5D68CE9572BC8F20C60C25173F7A79A3A
:103020009867C8C8FBC08045910A9DF218095311E2
:10303000DCCB51B046BC9895F3449BA0213DB33204
:1030400077A49850C69926F391190242BD5003F413
:1030500064028C8819D928FD59C8EE212848C9C8AE
:10306000D0428DF385FBCE9DCA8434CFF0481A4000
:10307000B603F198B1C5124059C8AEA0ED8E38FF25
:10308000F2C84B53D5FC168D39B97C2066FC32BC96
:103090009A548D26F830BC985EB8DE6DA0FC575A65
:1030A00004E5B56D9CAF99981AB36FED3EC8817277
:1030B00030F02ADAC3F398F930F4A380E4B2C89B65
:1030C000AEF0FD55B398D9EA4BAFB18EACF398D6BC
:1030D000C3056AB32807A090822BE1F2AC09B3F7CD
:1030E0002C100258A30464DA3D7AF8E46A02FCBFAB
:1030F00022181023010F048009B002C68BF3D59863
:1031000001AB5410656218AFFAC38C1112FA324B3E
:103110006723DBFD98405AA2FD011062048C81CA2E
:103120000FF8E23DF398F96A2017E0808D0C07450F
:10313000F3EB9820BD98086A65B59041AB68E91C2F
:10314000800436D009AFB0980734FC0EC400783242
:10315000C6E4E2F899197F0679E818040374571653
:1031600003307E5FBBE298C6D1BB58B50214667AC5
:103170006671F67130799868159AD31661EAA46180
:10318000ECD9F94D2934160B37BDB2F5E1895173ED
:10319000B3048491106F5A9BB3672684494D06C0CF
:1031A000242BEF62B7D4917E92083C015860174CF3
:1031B0003019F8FB18A1FF9FE6EC10ACFFF88D80EA
:1031C000E3BCD0CE16F3DF672C7D246DD3502C6684
:1031D000121BFF98FF1B33938CD17139D888FBC128
:1031E00020665AB31FA0C67B7A7304C63E6EF0D326
:1031F0001680504C0D70FCB75BCF65E39444678B31
:10320000B5ED73E05DB67F3FD37BEBF920047FAF74
:10321000CCC17F806ED6620777A88E10808F6D2C10
:10322000F4B752330F0BF8852A66923E627B5761E2
:1032300037D382ACC0FA6FC29D87CF3C8B54F374F6
:10324000143FE0A599DAB276E8D466BA20C556658F
:10325000107249045D31965658970B029BAAC8FE1E
:1032600073DC2C2BB81DCA3CC3EDDCDF596FBF6B80
:103270006A3AB2987BB140BC08D1D3B32C22FDA0EE
:10328000677E6740CA591D01FE76A5041940108B60
:10329000CF1C80107904F70CBFAEE220313CA3C8EC
:1032A000DBD48E84CF7E9EB4BBDC0122E581203846
:1032B000A1FD0FC18E40E0C0ED76F2BCC72BFFF13F
:1032C00011623E4AD22002BB888E111BBDF311C68B
:1032D0004FAF829AB8D8FB1CC0E81CC0F9F906D9D8
:1032E0006002F5CC0D10DED4F8E80112E0409D2814
:1032F000A5089C66E08309B07F880102D880520B44
:103300000B2A40990AF3147E83C831074139F880AB
:10331000183820FE7F49A0004A83C30612F82122F4
:103320001644015F5008840A984E5EC02340767DA3
:10333000A00D71B33F43D70248CB4375E04A0DD887
:10334000618830FF314124909685100B2A8DFE61F3
:103350000450B8FD0241BFCC01713F7DCC1A54919D
:1033600073EEC03018975A61F549FF9F9B42A14404
:10337000FE1D9BB998F8FB5B802D0BFE6351A68167
:10338000AFEC9F1047B7EF02F61320E086203CDB3E
:10339000FFA6CCCFA8FECFE3CA71FFE046C576D129
:1033A00047CC9ED7795A06E6B1F83E9624BAC66C49
:1033B00025E6DE4150AFADBB8056F5FA48E9B2A034
:1033C0007BFB016E7365ACC504D3B1729157E660A7
:1033D000A89809C7350289F185E7C7989B9A2610F6
:1033E000DCDAF08776FD4F6FF18030C48F32D7047E
:1033F000D8CDE25D574DA0914BBFA9C495B62A79AF
:1034000031B9ED1BD9F51FBF40474DE670FEE67997
:10341000DB0172D484CCFB4018FD7F82ABCF02422B
:103420006BDD08F0FEBA3040F5C02095FB2C221071
:1034300051B721DD9FF7FAF19F72D4FD8CA1F32CD7
:10344000CD97C85398DC348C9EB5B5019452DA18E8
:10345000FAA51910DB9DF61136EF6EB3409FDC998B
:103460000D2CDBFC67F64F0278BCB2CB727ECEFB34
:10347000097EB7B15BE7086EFA08F38E1C335E5B1A
:10348000AF55F91AF3B23982816266E2ED7EA0FD92
:1034900092CE615AFF80C43F4870B2F84CA33537D2
:1034A000A8FE0B30FBC4BFF91063C60B7985EECDC7
:1034B00058F920C93306CC907D6E086EDA5F52B79A
:1034C000E0FB327F590011ABB3022BCC60EF323DF1
:1034D0005EE40408A0F9C4CD93C5CAB58AFDB989D4
:1034E0007BC768FE621EB8AC50B131FFB43433887C
:1034F0000B5465E38B92F0058E7A5F40C6F9B8A84D
:10350000B1FB62E0FBED7D35D55B2A109BC46DE617
:103510009896D958FB9FD546CD3EFFBB308E3CEBED
:1035200092B40CE3BB7D58C1FEC9CA8BB619010425
:1035300027EEBB98FA88E539217E898097ED029CB9
:103540009B5AB1428FD1E521ABE735681C44F55950
:103550006E774349D3F0FCB4088214465AD002FD7A
:10356000C3890462BF3B49E501C017828070F796AA
:10357000CFFCAEEAE4F94060F3B04936E85E33E8E8
:103580000252A44CB52086FEB2131041093011CD71
:10359000F58708CF8CA02A14029FD4F5CA8329800E
:1035A000C601A0FF24E0005481113004E14428A0AA
:1035B000FE48FB0035200A89DDB8A0736D3006F0A7
:1035C00084410490F9058AA4BCEC284804A5210490
:1035D000306602543F03937CD183EECFE265F2253F
:1035E000100833B124D942CFF05B764960291AFC28
:1035F000D88550B88934C8968054E64679192FD4B6
:1036000002DD9A22E69BBD7E01F9DC30C5FA4B77DC
:103610002FF169088536CE10BF9F019DD77AFF2D07
:1036200010042893325AC6AB4B81F47F82F6C04017
:10363000FEBC02D2C243FFCC794B8F325623349862
:103640006252B767F1576A2A02C8D5AFFD96E5B353
:1036500044FC61CE597C084BA20233DB7E58FF2D1F
:10366000C38079FB1AE665B29FB43662669167A0A3
:10367000BB0660F84195592BA1012D2B0C623BA490
:1036800062FB1CF208C0FC20F2C2EDDB53809ED826
:103690004FA31028D67908A619DC989680DD35A6A8
:1036A00065EA46403DB85C12A320EC56C1D8F9DC6F
:1036B0007458F0A71BDBFDFB9C49B38098D1B8FC84
:1036C0001681E690EB5C08757C80DCB46C7579F94A
:1036D00094ADB3141BB3DCFD539D1DCDC3028DE629
:1036E00060205E863CB5FD0898D0BFCCDB190B7D11
:1036F0002FA8B3FAD6C180BE9C7992847A59B5427C
:1037000066F740FB6C81EFF9E818012069F21117A8
:103710005E524AB56860B4286C240841C290A54046
:10372000E148DCF9F9A801248106D3C51245D24845
:103730000887050E98FBD7333518EA607FC0867876
:103740000EBCF30AC4FCE52D8097FBA8182198F95C
:10375000E0E0013C620631E81EC059ED70298001AD
:10376000C02606F861BA57B62FCFF4D408CBE0E2F2
:10377000D39C8B0F8481DEE006AF8860FFF9D470A4
:10378000F820285F5FC0DA1A406844AF4A9DCFAB8B
:1037900003600B0CD83BEB44EBF95AC2421A7CC0D5
:1037A000010D8011A00E46C8407E2C2342010C2141
:1037B0009FE2E0FC8085B03566C0CFD11301024C9A
:1037C000FF84913020C6C010188B0160A5415CA118
:1037D0009FFC918930FF95C0845804086101D64C44
:1037E0008293CB669920F21360044CB93740D8FB22
:1037F000387D0C90B3F0B0C4F30328200F0C2CE7F5
:103800008007F039D0039E7A63E4011CCE2F19C5DE
:10381000EC90A03283BC784003E9593C88C60EE6A0
:10382000C08378C6E272630008661193057CCFBF3F
:10383000C397DB302ED61804F359E6FFCC42D317DA
:1038400082E0650362D369CFE3C6F360D0100CE673
:103850003CA8FB2945FABD06B3204EB328300866C4
:10386000F340B3A3374404815F49622EB326C144B9
:1038700060E023D324C010113CD32084005E610497
:103880008011E61B00FF96A0CDB93429797580EB35
:10389000104011E772F3240118DAEA0AADBB24558F
:1038A000F812FB0006BD78432BE0DA9800864FF350
:1038B00082EC2C0220AD046478E0FFA036BA4FA35E
:1038C00002ACC574669A6F6FBBDB064EB2E9FE1997
:1038D0005A0CEDA978E5AFFA3B98E5F606FD532FB3
:1038E000A3E0D74F33BCB7A14471E0C9C403B25EB3
:1038F000982EE9F198189A60F34865E228FAEF7A71
:10390000980290695026411A88EF65014858D32BD8
:103910002E014CC14BC9986A09851314338B05D30A
:10392000A6F3C0444840B30AB981251A87FA9077B4
:10393000BE980218100B610257A830E3AC189F7FA5
:1039400020042880D90930DDB03FED314240C02845
:10395000E198002371010C826B30D49840F3F96038
:10396000048C828574D7E0FFE03CA06BF040A7B1E7
:103970007907E2C6803C0EB2071EC403D71920B6F1
:10398000981D0021E39819F177B76B391079987871
:103990005EF3D3C8037AD3E05E98ED58FE843C987A
:1039A0006B7383FDDC040131FE98D7080365A288A0
:1039B000E68979E57D347A7842FF256BC68034F359
:1039C0006020593A3989FA52E021C01A350B76F451
:1039D00080451933F322468B8760404BE60912F18C
:1039E00098B2DD8808E498794C86045CBB5CABB186
:1039F000DD98C8FB20712FB7979823CC0419A72214
:103A0000842BF381302F339884B2DD7B124E7B10F0
:103A100021A00104BD8B5AAF503FE9DB9848FEBCA2
:103A2000CADF566688F9C5B36034E5CFCD7660BF8E
:103A30008AD0193FC1DA9828FBEE7E1006BA44B945
:103A4000AA40980FFB0D05677DF6FBE3B340F32F0B
:103A500060714EAABD0886C6C921E57511FE983869
:103A6000E2FD043680FA3F02812F3422204DE251DC
:103A70005335AD0110E698665B1B76DC099CAB8084
:103A800084290F1226D082E5880813F3FE98D7B058
:103A9000FDEEB904F0A529898C12459ED4C40250CC
:103AA00004B64341E1A330BB2F3F60894930011682
:103AB000EBC0208082CAD72CD63FCE965C20834EA6
:103AC000C6F309B10648FEBDD28077A9D20493039C
:103AD0008068B950F09E40A30369102F64001C67F2
:103AE00065D27B98A007AEF2773D037810719A02F9
:103AF000C670F33150E6ADE12F155F18C0F5B9C9B6
:103B00005D419302C2EE2F709BE20A303BB764899D
:103B100079F270F7EDF061203C98FF3B6BC5AB2666
:103B2000FF7F2F46F098AE4CED11F312F7F38802A9
:103B3000836AC305C4FD98062B58FE826001448445
:103B4000FE6B3022088230E74C88B342F095FD537B
:103B5000CD301028FEA5E529A20112713038F328D6
:103B6000048042B7FD8822AAF811729F8020FBB220
:103B7000C8B2A8BD9880D7469071080801C223F545
:103B80000598B7FC573B03D2555310D72F1D33F878
:103B9000961904A4FC397AF71025C2BFE35F10D64A
:103BA000D0A6FC3D46025FA8F9D9E09D7F2B30C02E
:103BB000296EF03067E5C8FBDF59C8680C1CD2F3EA
:103BC00081D303D7D498D866324510B96053937324
:103BD0004440A4E1125C30ED8044534C6AFE49300D
:103BE000302FDCBD1AB4849A11D314E917B87FA121
:103BF0009880572A57170A3DF6E43062FFBA025000
:103C0000304026C044938067B38C0A41CF6E19843C
:103C10008977F54218017ED98479AA0A02C0A49A4C
:103C2000113C42FF32A00898BFFFD2D23046575312
:103C3000173097820F3043D003483E46E4010C080A
:103C4000CDFE7FE801B910315C3030AC100FC61CDE
:103C50008003A070C65078C0E5E2410CE2DE987E99
:103C60009BBC66C808B442B2E823FCC5C478307770
:103C7000A0C120713D71037A5E028F2C57F3827BC5
:103C800057E9F880BAB11AF6C51361513AE07030BD
:103C9000231C9379B3B921AF1675DDD0B01C26581B
:103CA0009361E1E079C602208998835D773EF390C5
:103CB0004070FED3C598B2CD682024CB5B01FD983F
:103CC0000C7E59C8EC6401218FC18031E069A921C3
:103CD0002E865CEABB80D9984020761750FF6FF69D
:103CE000A147452C67ADBD148DB576DEDF4E973B01
:103CF0000C6FF151BCD01964C805E53EE478615AF7
:103D0000CFBBF0D2B5618331546DD41E527AFF48D7
:103D1000EE4930E04EE8BB618530E017C92DEA1965
:103D20001AD8C0FDE69505401B80265C82CDBD22D9
:103D300078034AC121CDC805AFED8702F2C89A6960
:103D40004202EF64448084764171C52298739E805C
:103D5000890B425276B3624106F798160BBB518429
:103D6000FF09301246C2485804DF1041AB620637E3
:103D7000FF7F820931012685C098DF1013C8D7B0B4
:103D80007C16C104D6198B78C8084080DBE0FA6F36
:103D90005798C8B9980FE081F3BF07C48B2F5EE036
:103DA000411CD81959863C30A232E076A103A20109
:103DB000BC03C3007829C60C807F113038BF8098BF
:103DC000BF0634BB20EC6299C836E04071D3AF37F0
:103DD00030E9FEB6E040089E853925308AE0C928E2
:103DE000180CB3D82484A657C88C78E081C1D3447A
:103DF0004FB322E28218BF2070E3297B1210F9BD75
:103E000098425D6A5C306DF708F8988AC8BC981BC8
:103E100053BB233AC890163BE09A3040A8FF5C1091
:103E2000D24477D7455756F71DC4FDFA9802D7FB01
:103E3000E8084037CC9BE3B3CCECA5F3C093AD8F3F
:103E4000F0F9FE98BB247C7360200FDFB43CB7FC14
:103E5000E6C8445943DF7FBC60878944F60F9E84DF
:103E6000C6100782B6F6B67FFDE9CDB0FA8A05A185
:103E700044E2403BCE41214F18984653D14412466C
:103E800008CF5F6604E93F09B3F8410D809104B3A0
:103E900006815AEB102308BE648930425BEE0C3079
:103EA0007E764498002360BD98118C3095BD18C370
:103EB0004CBF81EC493020D0B31A09B06E5A421879
:103EC0005DD32CFE7226C1427CE49360012C3F50EE
:103ED000B02021AFFB6B98A0043AC8C402F2C5F22F
:103EE000984BDD40F3FD9801B71C3670CFC8413CBC
:103EF00088AF07922FE0642C22F0C688017011D39E
:103F00007A98E2BFD2A095FEDEC7B7F9D279C5BFD5
:103F1000ABB883A845F3D8BA0B5FDEC485E05C304C
:103F20002D61FC98B9036068C6DDB9FCB74993B34D
:103F3000ED8C825EA59486A43923B33BCC98CFBF89
:103F40007F3F7B24C10488081DE5D3BEB648425894
:103F5000B2C8B5EF51F7304108FF7B9804D276A480
:103F6000DC0ACDE5098090F7FE98B208B930126CF2
:103F70001024D5C59194E02E69C8C89A8610564B76
:103F800003E68B01E6246F87F8F2983C66D45A73F7
:103F9000F1E49BEB06103740A737FEB7C180E2CFB4
:103FA0002EE0CE6A9819813CE4E91E0595D5C4B58A
:103FB000D996F2FDDC30B680E33051A230011A41CF
:103FC000E67B8095D304F9A984E15C16407D7AFAFA
:103FD0000408E0308466449531064112EB14061063
:103FE000035FC1C630696E2E80A079590980608157
:103FF000D3160472F4C4280C75CD114C9EAE0A1869
:10400000F8BF990229809C0B5ADC7F2430C4E1A7B9
:10401000BAA4884530B321581183111202E099895E
:1040200010607877B35E06C17A20FC1362218C8021
:1040300011DFF3F8EA9803D36CB3C80B81E03C7747
:10404000A6980EF34ACBF0980CAF6798F020E001E9
:104050000A810028173CA05F2248D3787F0FE241F5
:104060001C10D218F946204D661908DC5DBB02937E
:104070003DC44308779898BF1C30D3BF0128C8F3CC
:1040800047D869E99820E9BFFD4002604818A7EDCC
:104090004CC04430F320D7ED9E137C98CF17B3ED7E
:1040A0000BB33C5F745822C214C6D6700ABDEF9899
:1040B0001088FC0EC676044043B0F02A812024D735
:1040C000CB7FDEBC982880B3F2C8FE2F122C98D785
:1040D000C8689D98CD3012842065495740BB7E0248
:1040E00098FF31D4817F99C0EBFF0C55F8069BE611
:1040F00088F99428AEFA0AC8C82B4BBC9A3D032114
:104100001411F3035C0D4AE603F39834ACFE3F3020
:1041100066ABF6408B869A3022205FC64190D6FF70
:10412000D8F804100280AEA0B9BE9F01F7805030CD
:104130000534894053A9771930DDFE7E5CC8D35F12
:104140009FFE81093480061004EF5398149E1021BD
:10415000DDE8FFDFBE46C42298C404235C1D3D6237
:104160001106C464C8A667F351B05A979AB3F617FC
:1041700088BF7F16FDC0241803136216E062C8468C
:104180007F0259080B40412CFD8005A010E0FDFA8C
:104190002CBBF030F538FC0FE8013CA10CF3469A3B
:1041A00039F3E4F3985CDA2E90B4ABE841E0A3F481
:1041B000E0B29BDB9D30C0803816D3749B28FEDDB7
:1041C0006D95D5FB1281FCC52341F37915AFED73D5
:1041D0005856B38C9E9864F23040FE0443EF7598B5
:1041E00008B8FCF57FB1831DC73DE60E0886D3BC39
:1041F00003F1F32C6AB3B5085BB38417B32930809D
:10420000F30AC246C437F353BDD31002D0FD9FEB6F
:10421000F9041216F3B310ABFFFC6FE3F85F5640DE
:10422000FF0A5F526CF36728AC22D3C833E040F337
:10423000EDB0FBFE03C101FF88D8FE20D1939CD1D5
:10424000638DD3ABFC887DCC86EB66C9BCE5CEDB49
:10425000B1CCF36DC94079599C7BD9B0FD00515A5E
:1042600001516499F3EBBA0127EC50D10AF1B099EE
:104270004AFECC98FF13754EC0B966FEDF657A9F83
:1042800001FEBC0870C61D0760C8FF863F97B110CD
:104290006F6EE5FF40588101F7DE8E616734EF02F3
:1042A000086E64B6A420FC6A5304D7636237237B8C
:1042B00020CD950CE5EFD73980DBD33BECA0FD801A
:1042C0002D870246CC1476EC4097BB100298788379
:1042D0002BFE83CA3559AE04862D3EFFB6205ECD37
:1042E00008530AFC81B8B412999BA0D5B704118A6F
:1042F000AD67010F70183B3A1105FDC1B92308D312
:1043000024F9F8FF45BBF47FBA1710209104D3625B
:10431000840C91E402033BC88110122628FE088415
:10432000F538409A58CE28FBEE059573C0828098E8
:104330001BE66029E0DEA00416FEF4F801086045E3
:104340002159E6FA62595CFAA0B015025007830CB5
:104350000E09B86B6BC00338B41A4407FB48FBFC6A
:1043600080641424A410E37C2D229CFBC104C18929
:1043700024FE3D188C01600C0820713119C3668D34
:104380000A32B124B4B3F998F90821900E02359E8F
:1043900028FCA011161F680058E5E0F882ADAFDBDD
:1043A000837DCC7EFD04FE96698E7F9A836592B9EB
:1043B00027C1100BCBBEE8BBC388A1FEE5F670C4D5
:1043C00047F9E67DBF7DC204DD5FC26ECA678CAF70
:1043D000DA10AC3BB7CFEB8E9B7888FA5F336E3F39
:1043E000B348B1840E3376CCEEEF16341821D7647F
:1043F000185AC6D9CEA6525B79C8FB46A16A80106E
:10440000C496D30271E0FF9F6636C8E8FCE24F6DA8
:10441000CAE585088DEE8F08C4DB4B48FBCC26E34C
:1044200087CC30E3EF1FE6A880FECD379233BD5630
:10443000AD1035ABF1805566F990EA6DEBBD0143E7
:10444000F11FDBDDC1D7325DD718F804E6C6EBBC3F
:10445000101A3F326C2E4F6B8AAF57F3984DB80A43
:10446000B2CB583501D6EC8F80D4D90817296F709C
:10447000190A678B73EF08B36F201D9BFD2DD8FBC6
:104480008CFEA304C54F0EFBA3456302CB5B815694
:10449000B340FCDD054063067D299B2E0145BC2809
:1044A00091EB98FE334C906829CFF3576D3782FD1E
:1044B00032F9A9848FED048B990E2B63FF29E9044F
:1044C000637A6C63FDFD5DB12D59BDA41862FEF2E7
:1044D00063C7AD837D5BE36268FF020C316CFF98BC
:1044E000FD3659C510FC2F03D8F8633E66B14080F5
:1044F000BF0CBEDA2D807F3B78F86FD6892C5EB872
:1045000040E5CCF372FF57029680B9FDA47AF748D4
:10451000DFED32BC2BD756A508BF98B5A05CD650AE
:10452000CA627FA2DB0320367160FF7A3210C2CFED
:10453000D9BC101F11D1B8FAB39FFBF3041A5AC3A8
:1045400004809367978D2C7D04E56580849B5BB424
:10455000015AB30393D2F2ACFD2BF92F7B0609BEAF
:10456000ABE0A88EE115F38602C4CFBD3F952F7B4B
:10457000CA335C2B041A73BE38FA8E40971C811123
:10458000F4B4C01EC8B71490E0AE08B1E552615251
:104590007801CB408DB2B9A8414C2E74F80F280594
:1045A0001601D3B582F418200304C018F8E130A036
:1045B00002587F13200304308605F37C7D1961C205
:1045C00085F4A4C1ED44FC2220822940093EC18427
:1045D0004293A541B5684C6C88F81FB9528728CE24
:1045E0008017DE32257C1F0AD802807F8421086D67
:1045F000C4E360F70C157030FD8EB7B1B60820AB80
:10460000C0FFFD820160E904004F0CA00321E730E8
:104610000804BCB0429F05EB1502494436F4F95E2C
:104620004BD71DC6F7DC8223960C11722220BC3EAC
:104630004DAA0202A64B4BF76D50BE024A1EF0F97E
:104640008084066D264F2EE5427379121004A60869
:1046500066F447B6D552EF802A8225047C9D8EDB16
:10466000D57604EC38FF1028F55E40B83EB1802EB8
:10467000EC5694FE732C0F47B60D142FBD7250FEEE
:10468000A7474179CDC95B88226FBBEE8053B5083F
:10469000F783085AFC9D20148880B6682B20EDF51E
:1046A000A38019E3C7CF98A08255025AE9ABF268FC
:1046B000ACFE6F76A210207D689177AD8A2055C739
:1046C00022D5BBDD4B68FCB9DE7B5110021DE65FD5
:1046D0006EACA740ECD9C02002AE53C933EBBE7F0D
:1046E000C4CC77DF962B7C420F80C96CE290FE6BC6
:1046F0002C47F19EC4635AF2DB28FD19EEBB5D7AAC
:10470000F814D49ACE32CA9DAB212004BADDFBC284
:104710001D00B8CB2D429604FCBF26BF80D6FD40BD
:10472000AAE61802B3C822979B3CDAE4C4FE23BE73
:104730005AD8D7CBF3E446EEB8FFBE1FC5F37B04CF
:10474000629928B101563998FBBFA982C202D2AE44
:10475000922E0F57F484C762035848D30809414585
:104760000467AF9890FE4152509FCA81A101B040AA
:104770001F52089C03720941E0D3113669B0FBE275
:1047800020DB04C0F546F9EFBC18838CC96F3D32BD
:1047900080013094663BF3D8FEB784039BC1E08868
:1047A00097B960E5A870A5D75A20996FEA67606D40
:1047B000FC060174C097F9906AEDC0D0A6B395FDD0
:1047C00026CFC5248866AB8F26FA9E64D61160D9A1
:1047D0007D05919DF727EAD5C0BFF423F5602240FF
:1047E00001A212BBEE1F02BF0C8190B003F8FCC304
:1047F0008011CC1282E950281399014CF3FC8140BE
:10480000068228181E0B04147BF38530023B946D3E
:10481000416631AD4885C3041033F830F342CA8491
:1048200098C61532FDBC79FDE0290D7D81300EE181
:10483000C80318FE0FE8010C80077CDD1EC003785A
:104840003160E2591CDA622BD3F0B6F02E0E60E034
:104850000B62790C900750D3FCD08318100D20F711
:10486000C60068FF7DB9FD27C90360E3F343930CDD
:10487000189308F3EF849641F37066AFB3AFDCF2A0
:104880005F036210C30208E0FCE878400CF8BE7FCA
:1048900085C02D702732C01380B378064022183AA5
:1048A0002362FFCC1030226223B39308E998100BE7
:1048B0008602AE04ACB495DC86B5AA9EDE2160F813
:1048C0004A69C9D5BB02FF7F5F265EEFAD487EB562
:1048D0000942012004251B6F3607F634902444C298
:1048E0009C10E00B6A1F81A001343D6D52041AA791
:1048F000A79891F3F4FD64743715E5C1A238DFDFA2
:10490000CD1BD7190C9FFAF183DFE5F5E0BB2588B5
:1049100039DDFDB718F698B8F876EA3C209EAF9AD4
:1049200041B8442161E0CC77ECF60443749864ED1F
:104930005E9840E3C99FB34809C0A9A32034F3841B
:10494000EAAE701B302606B9940B37332C7B8B26CE
:1049500002C2088283410A36E2287E51F98B3D87E4
:1049600080980223019FBB11578C04F898FCF82013
:104970003004CBFB2F09B000460302593CE32081F1
:1049800040BB9690FC184FB5040C2C8F08B0B34078
:10499000BF7F4939A006C040C8110BF544F303F3AB
:1049A000884D548B6078E858801EA1FFE041BDD24D
:1049B000307F83D2DA0FE23AF306C40170F360402D
:1049C0001CD9FE98CB1C9032BD780A057B6B04A0E5
:1049D000CA0790AFF48B10A650B080FCD7C2A53B9D
:1049E000AD023C98569CAE9342FB8B11F49830AFCD
:1049F0001A5D7810E86B080FE917892DF3375EA16F
:104A0000A7F8E04006C19F10F19350014CBB82D142
:104A100098006B18FE2C418008851522880EB3265D
:104A2000604267E043B34C80CD09318042C0B3A4FB
:104A30000279F5A612B0FAFD1982447B9805108C14
:104A400008EF0A980614187C906208010DC07CA437
:104A500067F330248122DF6B1241F9202CB0193A20
:104A6000D25028F6980124701905253768FE7F5C1E
:104A700006047E83E569E0985E0C96401925C630F1
:104A80008519E7D575849BFD15E8FCDE065BAECB8A
:104A90000680C14F3B98A5CE52FE57623C3048D6A7
:104AA000819A108076F60302408AA6C8218BA6EA76
:104AB000E4B8FC24B5CDE01118441DD4E498ABAFA4
:104AC00088018B0A35E021D6646767B12866054006
:104AD0005F8C9D50E0842071437B4902194337F974
:104AE000841A9061F9FA4D11C1863CBC08132482E6
:104AF00031A445E0D75C103A3002424C59B320B99A
:104B000060FC8051B04006C02A58265C7309306BA7
:104B10008782FD7FA360217B98300AD7D0FC3D308F
:104B200090033080715D78A5FAF30CA00771F2B89C
:104B30002FF333B8FD98F02FEDE730C88308301914
:104B400064250523A7979852E8D328FE3B3057AF3A
:104B5000107A9882D78530D63BC68481306FDB7E51
:104B60000AF9E51F5BE66BBF7FAF06AF102398E63F
:104B7000B5AFFC773A3D22C41040C040BF8C8430B2
:104B800045E3F32122086C399043D34B08C0E0C1C0
:104B90008204A58BC0817A9826FF22980CF7AD0479
:104BA00070FB5E98AF40AC38DCC80AD4AE302776D4
:104BB000EE220908D98920197B6C5EFCA20104024F
:104BC00046D2AFE0DF5404AC821250D7C943FF7F16
:104BD0000DA0841401B8B5FFFD5208A680389D31A0
:104BE000C8422091962A6FD732E6F9081940B66973
:104BF000518C8517DC5E84C63DF310204079987E89
:104C000076C0B2C8E3C1C8F300F0B78037E0380D12
:104C1000DDAB208807222E843DC030F6A007C020DF
:104C2000EE192068FEFF3FA537C860E68A80B37C96
:104C3000189B08A5418CB5E41905F9F68040414858
:104C4000D3840B7BFF880902B930105F72FF2140CB
:104C500090091201AAFC8580B2EB4086C03EC823B1
:104C600061844C7F93320226822098CE0488138080
:104C70001015B28877B031205F12F559081344EC53
:104C80009D0530A2A26EDAA927AB0830FAE0FA013E
:104C90003C8007F0CBC8FCA577F3900770500686E0
:104CA0004372B532043CB890E00448E4E0E0412CA3
:104CB00068901F1240036920D70FE077C138FDF1DB
:104CC0003D2D3704F2C81AFD12837CD8B3D5CF1915
:104CD0002FE0AE7F3B8AC97808406BF4455EED0853
:104CE00081FA1AB382585A762064C8C31E18E32387
:104CF000402148803C4CDD7A628401B820FFAC5CE6
:104D0000102397227675B1F9DE7F00BD81A0F08176
:104D1000FA9039B64202FF8E10ECB8C971BC986B9C
:104D20004608B8DE30A46CFD40AF34F34692821AD8
:104D3000BD28FC228121041492F3CA444250C901C7
:104D4000F08C8811246F50E53004A640D47E5FCFEC
:104D50009BE803FCF06CD501C119F1DD3010F7F9C7
:104D60009E72D3A281E4E2437F2C212088FEE08161
:104D700008D68003DEE86E682909E9FB0B9D4639F9
:104D8000BE536E19EF2090075FA461F625BFCC8F4C
:104D9000200FAE60F2C650FB0426052416E2DEE8C2
:104DA0006479B725F80489759C9BD917067CAD807A
:104DB000C6C609E303404270010820FC02C0041982
:104DC0001C136135F8ABA0B5F8C330BC8277A04C9A
:104DD00023F8242C901174405B10C69E619E2C8990
:104DE000320102D820DBFF32B0101740181E2057C6
:104DF000D091518CFE984135935101B8FDFC6080F3
:104E00000CA0056A5FC8D78B30CF48E17AF3F6E48F
:104E1000013C0868B3EBC21C808B10950349F20279
:104E20002ED7CB98DF8B62801C10F0B6F9E030ED06
:104E3000FC985B996ACF30DBCC968D3F5ACB982B90
:104E4000C8AB7A4D833ECC88F34CB917FD08FB33D1
:104E50000414C810BD0E0843C05C1610077B4E41F9
:104E600084E288113216CE5F16BEFCA61016C2026E
:104E7000CFDFA3C58C104819AF9C98B3FB41100439
:104E800078FABA172710081A45EAFA8C84FFFC90C2
:104E90004402CF4562898122041D8879987ABA122A
:104EA00083BD4028FC0D20501484104E084A48BF92
:104EB0008E802786E6BCFD71DC723D18D8338F9258
:104EC000D01008C9582CA9FF6918AF9785DE4FC7C5
:104ED000274CCD28FA69E4C0F272F864F4B840A512
:104EE000B7D40FC6DC7FDF32B3EDDA028E20FFAF1E
:104EF000BFBFCCA257D360F348FEC28889C011421D
:104F0000B822C60BF2C8FDE0EA210AC1258108409B
:104F100067B41830A1FAA61866010C3704210948B5
:104F20003A11FB5060DD76047BFD31BA42862102E6
:104F300062080B19278289D24126F41027620428BF
:104F4000017150B16EBF0CCAC30694CAFE7325B37B
:104F5000A5CA6610D375B9F6B0EF1031FCE4303055
:104F60005A06CFD5100FE0CD410CF3707F020178C7
:104F70005C5DDB803C76FE50D5F8210122D331AE5A
:104F80004C10399860F543800470E598CC230F628B
:104F90009ED3A4FB8441BCC5FF9DAC5C0C84FC503B
:104FA000701693D6B7F3101599E2E5EC5FEDE42E99
:104FB000A9775B207564A7B75EE1F877DE26A29635
:104FC00014E7F9C881C010FF092064004CC20581B4
:104FD00067794B2EE002F64BA01083C05A09FA986D
:104FE00003E7B345301212FC6B0005DA98244275D2
:104FF000D0018021E1EF66D4DD488774AF21046CD5
:105000006EB5224B5E23D26E7FA20C0528841490CD
:10501000101DEF19448008103A7AA8F9F1A6A4A24D
:1050200041FA2E52A11DF3397F375904841A04998D
:105030006EDF2AB6835BF701E6F81172DAF940BC3D
:105040001C07A564ED111778529EE104BC9888EF07
:10505000AEDB2DC8556689D595F4D14EA210197ACC
:10506000E105C08018D7FC4003E090012179FE24BF
:10507000005D9314C2AC0B05201844BF2473A7F63F
:10508000D52C9008C61A43F844B4FF2040D0825A69
:1050900010890822D7C428D74002FDED202324011F
:1050A000D92E5DFE9084FA3416411793905DC0317D
:1050B00087102627E7A16360FD040C813130019B36
:1050C000922ED3E142805C8DCB4404EA976602F2D3
:1050D000308CB5A208D7F8FCB5A58807E7EFF1300A
:1050E000717A79B8DC50C078205C230D9FDF173CC3
:1050F0008801F0031EC424E0B8F8D31D8004F0AF8B
:10510000E7300FE241873CD059C834DD02396BC02B
:10511000301DC2308DF5F38119C3CAFF30FE5F2008
:1051200018B29BE552111A66F9E502E61938B32860
:1051300002466B9565A3CF30C081284020B3791813
:1051400080036461AE8133010FB6CE7B46C101E0BE
:10515000AE0B3FEDC098C204444FB3F988300278DB
:10516000FFF2F18590420897A2A5607A8021088419
:10517000F198651CF1EE0181A0588F1330E4020410
:1051800087801337F88D72EA146BB01AD798027AB9
:1051900098211DF8B8D7DBB310F89835C278941B66
:1051A0003C1B497A66E0AD80BB492E4FFA2151F88D
:1051B000049EFC30CAE8FDF8E1F79B47BD374B4140
:1051C0002079AD17E10BC5B37F5B9806AB19086D6D
:1051D000137C98EED76B055757D72513304A30FE0E
:1051E0001128C786CBFDE3A080100A03C6F4CF4C7C
:1051F000BA4AD86EDFDC4348B4880FD0205A04DCAA
:105200000109DDC732025F7FC721205E538B49123F
:10521000C28AFF9905B116781F048BD76044BCD2AF
:105220001112160102AA63390C9DE6B240AFAD52CD
:1052300018500E8C3F304146C00499F2200B614457
:10524000B3693B026609772E302CDE8990FBBD984E
:10525000A077979883A5D70F689CEFF3C8D0014338
:1052600012E8AF5EFBBC2DD97B5C287F9F78C01015
:10527000F50B60EC8B05F00B0E5E77300C20E879B7
:105280009811E33EAF9AA565C826C30C45305A6312
:105290002DBBD8565E0CF9C89762CF78D884E0DF72
:1052A0009D3010A1FA77AB124689C8086B9EC820C2
:1052B0000506E72A81400AC60410DA3009F9E3B688
:1052C0006B268425A8B300E05E4B2550C07D75AFEA
:1052D00023301198E1FA0C6CFFCACB7B1F76FFF8E4
:1052E000FB20FC105F326719F3CBAC221B60D3B8F4
:1052F000F9304876FF98FF2434936718D1E339FAE0
:10530000F911824366D8FB6207ECF112E67938970F
:105310007F116066BFF6A8D8FF24247AB108C44C78
:10532000C0B3D3639152C6D6DEFC20C11FEBCCEDD7
:105330007FFC6D11F019DB8E72686082989BD61429
:10534000195B1B0119F80D3E68F98A795AE6792430
:10535000BC67AC034086F518FD5DCCF6DBE5D8D61E
:10536000934AAB40C4BE6297DE906C7B568BEF20B5
:10537000769DE8FFE3E3F83FC9356D3BF36CC8F178
:105380004FEE5FF222F13659DE105DB05BCB710655
:105390009C81469FE6BF2A06B4805B480335E5083A
:1053A000F8D517F46B9C79AEE98760F32CEF7DFF9D
:1053B00001620CED78FBB5C723915E65020208FF20
:1053C000A2455E9CD137D4109EE006B408F0253586
:1053D00004A0B4C449A2B8196CB470E0B4E13F248D
:1053E000C8C0A82B3FE645BD81D3CF5850E5A0D813
:1053F00064D544CEB8CD18FC66096B4F14888092F2
:1054000071EB81216F0C7E8BC8500D20050C59B4B7
:10541000DEE2F360800CA0E2201A4307084A020390
:1054200085A01F1450FF40069800030C022499C069
:10543000997066E9C30650AA128402B7C341C363D8
:1054400044FE090A20280431030758150196E04557
:1054500073B2E08FB884022F224A80F8AA86A20491
:105460009E5843997FC140101442FE9E520084F81A
:105470000880CAFD5580A7C7F962DBA69640E3EB1A
:10548000D322FEE36B7E84F7EB04649C0BFA55B4E5
:1054900010641E0D014293F95B0403B11004B211B4
:1054A000AF98B803CFE1DDBCB941F72168E4D3CCB4
:1054B000F89B8004466E5060463FE4E7D046714F4B
:1054C0004CDE1F900D30FD97EBCB401F32BAB49FDE
:1054D000847B32364383A8FF67F881B1AEEDB3EB2E
:1054E00078E7DD73D8491942E2625D24B304B8D786
:1054F0000312E2C3F50D407961EDED38FDB892ACD1
:1055000046BD23B40269E625517D8A2C9E02CFEF69
:10551000E5E8FA33E696D340DC0A65AC5310EE3387
:105520007256F090DAAF62D9466FD64762DA40C45D
:105530009DB0F8FE481AED79E6A923BADC01D4A3A0
:105540002363277D3F44D696017FF77050FD2E8A56
:1055500001E3DD0856FF087873B2795B3298FA6F81
:10556000B2D3CCFB6BECE3FFB76C6DB2D8FC56F753
:105570000C2BE116DB0B6B2A2812BC03C836656CBA
:10558000F4D0FEC57E20902D639DFF22A436FBD073
:1055900076B2F0FDC4BC1DD7ACDBF3AE7D313D4F20
:1055A0006C8470FE5FEC947F4DFECDDBB9D988B37F
:1055B000FEFCACC7F8D1B62FC51894B0FF0C2C5D1B
:1055C000FFA09DD5012089F2F440BCE5C2DE318107
:1055D00032CF4B56049B46661420C6CC1453E00EC3
:1055E000339B81F8F914E555408C85712BFC6C1EBA
:1055F00045E778B7F8FB1F1EF509018FB646F8FF9F
:1056000042A780D4AACF5AB180F8F706EBE720343E
:105610009E93F803FB7C68B366F1E829B002F901B8
:10562000BC21CB1B316D0444D798B3A089B019F9C4
:1056300062E64B27F6E93615CBE8F97C6E80C9D8CF
:1056400060DD131265ACA902A5018288FF4AF0FE55
:10565000B90AE3226A864A238802A281F4C808D0E4
:10566000AF1BA3F410CDA1BABDDF542221F59510D4
:10567000D1E03CA10425EDC0AF167D5E1B8428BDA2
:10568000EBD3E195F6024104AB7580C8DEAA84E352
:10569000C9B89888F17E865BA86FFC67B4FECCE839
:1056A00008C923E4B85001D75E04050D789812406C
:1056B00036C7BF301B8B6C0DBB06DD2F08C070FCDE
:1056C0000E9403EC6081B090AFC1CEFBD2F568853B
:1056D000BF7A26E0800498F912202A16F0DD1560C2
:1056E000D9B125FDF33048AC08D140FC018102045A
:1056F0004E1B284847FDA6159783A7041846049B10
:10570000E18A604790FF51C48A47811402C0FF01BB
:105710005400643820E2C18730049CEF30068E4E7E
:10572000600AE8DB25C8C8BF1D07B078D07C0B0134
:10573000D6EB0223C269EC8FE0D4A78132D022EDF0
:10574000088237E1B8FC9FE9F4AC7FB541FA982FA5
:105750007DB7EFF1A7F37A5E409BB209808FDBF251
:10576000FD2FB390FB8F5F95F7FD5AE8FB19F8FA10
:105770006464E9057D9E91A67A3BCC9EDCF9063DEA
:10578000C1DA992B1D403336D08067BC2760FF40BB
:1057900080BC38DD32512F14D0B9C59E77B728F2BE
:1057A0003C0E19CBD3DDFBA2C0B6FD5AED801E7DA9
:1057B000327F9BB7F50E9E1F5B976E4879ECAE70FB
:1057C000C5E0FA59FD95678BBD9728344CF2D00699
:1057D000B5E3325DB50E80B1FE8CB1E463E7733C96
:1057E0007E3F45926C0166D1B388672F7B08589342
:1057F00082C6AC0B80BDDFD110DD5690FC8B997B4F
:10580000E2BBCAC779522096FEF7CAD9105B904016
:105810002DE70A4C8061FF05621C30BCFCA7D15704
:10582000607FD8FC9E57055A6091EFEE72E444D336
:10583000EC33CD4BC768B3098C32FD1B959FC0314B
:10584000E778B7FC37E1022BC21CDC83806965670F
:10585000C740023A4B30FA7C7822C090484065F746
:10586000707209A287D6F810018C0C1B117FA93029
:105870000410401242028541684A6608E2CADD9679
:10588000447F540DA0F6900406C09A62058AFE3E3D
:1058900010C50B1C966561BF94B2C05AE6A8FDD92D
:1058A000BDEB8430B7AC18249B74CDD9056E1C1D9C
:1058B0008E95D1A62D7A1E905A4E72BE035263C9A0
:1058C000C1061404FFCEE481CD70F8D3D32D84E259
:1058D0001369D214D89746493B5C8201043FE564C2
:1058E000B4ED980253FD5EA73066440201E5036201
:1058F00021C8721740931930B7C1CC205800603FBF
:105900000C020830F81003C040181C1364012F82E9
:10591000093021668CB3532268167E049100837A85
:10592000F44C82494D66C02F01664A4C80A47CF835
:10593000FC60803CFE4670001EC003781D0F0CF317
:10594000D5F0A4DDF3405EE0413CCE7E66E0010C84
:10595000A007747ED3C80308200F4AF3C62459F366
:1059600079CF7E22E620A0FBD28041A0C21418D7B6
:105970009360D2C24604809357039C3FE6678C66CF
:105980001606B73021D3EDF3D00403F39CEB0A5095
:10599000FC2905EDEF46C0045CC00CC09D02B39825
:1059A000103AF38C8405CBE53CB3BF5588EB9808DF
:1059B0000B817685315EF14FA60B62424C8181905E
:1059C000E420B0FB7682CD57E2446ACB100194FD0F
:1059D000C54029D5A721D98404DC71BB21C6FDE0CF
:1059E0001A8BD3E2525334D34402777C3081A0081F
:1059F000951DACF8FE6686C0FF2C9DB51BD50D81AC
:105A0000986EB50C16F86A4EED9702F4FEBB53047F
:105A100026C66DFEF49B3027167B914A0672F21C57
:105A20000E82105109BC9DCB71048516BB177FC532
:105A3000EC779198B01DB8FF9F3C20A8F88024F324
:105A400026D9378422F6AF0A0B4609A1219EA7D991
:105A5000B410DFCCB8853768DA487D2D307CEB0098
:105A6000B31480890A39650109CFFEF3FB8411B0B4
:105A70002016BF7F08FE1300212C8081B0876EF3B3
:105A8000200B87608C5B80B1011DFDCE2640101875
:105A90000377B14488EB453041E725354060C94282
:105AA00028D5FDFF59FDE0813C800772F5201EC01E
:105AB00083FA2FE8F4B804AF0CF85C7A200F647B0B
:105AC0003C083BD098410DD3F179782BAA0BC898AC
:105AD0002C5FF3EF5E22012408E1E8FA803BCB382B
