:100000000C9453460C9472460C9472460C947246AF
:100010000C9472460C944B4A0C94AF4A0C94134BBC
:100020000C94264B0C9472460C947D490C947246A9
:100030000C9472460C9472460C9472460C94724660
:100040000C9472460C9472460C9472460C94724650
:100050000C9472460C9472460C9472460C94724640
:100060000C9472460C9472460C9472460C94724630
:100070000C9472460C9472460C9472460C94724620
:100080000C9472460C9472460C9472467F7F7F7F6C
:100090007F7F7F7F7F7F7F7F7F7F7F7F7F7F7F7F70
:1000A0007F7F7F7F7F7F070007047F7F7F7F7F7F4A
:1000B000077F7F7F7F7F057F047F7F7F7F7F7F7FBD
:1000C0000F7F0E7F067F0D7F0C7F7F7F7F7F1F7FDF
:1000D000177F167F157F1C7F147F7F7F7F7F007FB8
:1000E000277F1E7F257F1D7F247F7F7F7F7F187F57
:1000F000207F217F267F227F237F7F7F7F7F7F7FDF
:10010000107F197F1A7F1B7F137F7F7F7F7F0818E7
:10011000117F127F0A7F037F0B7F7F7F7F7F081015
:10012000081F097F080F027F08197F7F7F7F7F7F6D
:1001300008027F7F081308117F7F7F7F070C087FED
:10014000017F080B7F7F08077F7F7F7F7F7F080706
:100150007F7F7F7F7F7F7F7F07037F7F7F7F047F1E
:100160007F7F1C7F1B7F7F7F7F7F7F7F037F0810C8
:100170000C7F247F237F137F7A7F7F7F7F7F08110F
:10018000147F081908200B7F7F7F7F7F7F7F7F7F11
:100190007F7F7F7F7F7F7F7F7F7F7F7F7F7F7F7F6F
:1001A0007F7F7F7F7F7F7F7F7F7F7F7F7F7F7F7F5F
:1001B0007F7F7F7F7F7F7F7F7F7F7F7F7F7F7F7F4F
:1001C0007F7F7F7F7F7F7F7F7F7F7F7F7F7F7F7F3F
:1001D0007F7F7F7F7F7F7F7F7F7F7F7F7F7F7F7F2F
:1001E0007F7F7F7F7F7F7F7F7F7F7F7F7F7F7F7F1F
:1001F0007F7F7F7F7F7F7F7F7F7F7F7F7F7F7F7F0F
:100200007F7F7F7F7F7F7F7F7F7F7F7F7F7F7F7FFE
:100210007F7F7F7F7F7F7F7F7F7F7F7F7F7F7F7FEE
:1002200008277F7F7F7F7F7F7F7F7F7F7F7F7F7FAD
:100230007F7F7F7F7F7F7F7F7F7F7F7F7F7F7F7FCE
:10024000017F7F7F7F7F7F7F7F7F7F7F7F7F7F7F3C
:100250007F7F7F7F7F7F7F7F7F7F7F7F7F7F08158F
:100260007F7F072408057F7F7F7F7F7F080D070B37
:1002700007237F7F0713071B7A7F7F7F7F7F7F7F27
:10028000071C7F7F7F7F07147F7F7F7FFF1F627F39
:10029000C23C006088FFFFA0089001324006C8C63B
:1002A000001985030AF84414812241338CF320F9A4
:1002B0000365A00C94EC668FFFED813250F906CAFD
:1002C000541930E0A4C0E033F3C6880098D364CF5B
:1002D000800CB940F900FF15E0025C800B700187CB
:1002E0002E0487682AE6A002F4F35079F3C005A82B
:1002F000E686A0CE4FB312E054800A87D02AB440DD
:100300005CE054D39E74D3B8001770B960F898B20B
:10031000FF200704800167A0EA804010C002C0836C
:1003200008017AE010CA60E4E8FE304869FF98FFEF
:100330007D10BC0490D8843A69FB02408381D820A8
:10034000149850DED312E0F7013014042FEC401E55
:10035000D3B998F906E446028550086CD0D701401D
:10036000CC97FC30DBC9848BBCCF649504F1970338
:10037000400117DCFE1C34F242E537F008337BD92C
:10038000FDB63679DB9A7E79A5188897EDCB88562D
:10039000A584CBCA6846F928FAC830C2FDFF18A365
:1003A000FF3096B8066BE7601062CBCD06BF1D83A9
:1003B0004DFCE0012CF30497D328FD2002B0C49B30
:1003C000CD60041649B326CBFBA523F7A02DB310AF
:1003D0000DD31EE650FC80013BCC5DE2191BEA4CBC
:1003E00002126DB2084040E1DA02B62F60019FB1FF
:1003F0009DF9530C202CF71ED5CE78CB8C3C117375
:1004000014800730FBC0BC03705AF3AFD3206DF9E2
:10041000D8FA7D1A1862427CC9C6CEFF325E99199D
:10042000B0FE065F7F678DB3E0408B34B326825009
:10043000DF0B02E6C6C619893E4866D70536D9B82D
:10044000EB8C6C2DF010657BC05028DA0A447A984A
:1004500004C8F3989617449D17B1C0DF5BBE0C79B2
:10046000E9A9A48A3BDAE8F8C09619F07AE701C452
:100470003AF0E32763F1FC989BC6060253A2BDEB5A
:1004800030FBF92804310211E3801AEFEE2898209E
:10049000BF0BD798301F22E7DCB5903BF9FA20401C
:1004A000FB713DB302630EB30209035E5CF7B51046
:1004B0005F080CEFDA41F860404BF69035D1C0028E
:1004C00019C5FAB1BF1C166BE9983CBE6BE7A8BD15
:1004D0007188FD8481FCF56152FF805B68193F6F74
:1004E000E80BFBA0059BB0114039D022D80111CBFD
:1004F0001910017FB09850302D06D5AB44F56EEE43
:100500004B348016DCC6DD5B08631F327EF66B6001
:10051000219C30DCD088E13AF3A009EDAAFA89EDFC
:10052000FB9E576AF87A8BC0D7ACBECF3B5EFAD23F
:10053000F980FE1F02B1CAF39E1DE2306543181018
:100540007AA3B006C1B540EA0D7FB3E8F984513013
:100550000A44B340D6196033E9E5048F6DDEBE105E
:10056000C008EEAD8253D30512FA04CB1001E92B7B
:10057000D698469FDFB22196C10AA6F8D96BA1038F
:100580003F89A64966C028EFD6804088978253FEEF
:10059000B80CEC900592AE3450E35D18EE643080F8
:1005A00089F916E045B0D7779FD3BE3C90FD08E5AA
:1005B0002882C6ED49CF8F7138FFAF7EEEF6400836
:1005C0001350F0BAC2A7FEE5093004ED9EB3D8601F
:1005D00011C742172DD186B31902D7F32511F2C0E6
:1005E000ACFA975E4999963E2A595D66795995F914
:1005F0001610372FABE917F9DE1612949421A68353
:10060000CB5CFFF93B8C614B8CBBEE37675B19C051
:100610002BF341F4CCFF7B3653B168DD0A83F398AA
:100620001159A00865F9958EF752FCCCB9ABC9FAFF
:10063000932018B34067EA3160D47BC4D64B80AFB7
:1006400056B0804001BC48E8FCFCBBA3F98031B047
:10065000D9A8622ACF1625CE06218B69FCFE986A9E
:10066000EA5C30BF44EF6D7CE5B1FFE0013CD92688
:1006700090BE9881C07968F2671B60F998FE554B6F
:10068000C630F930207EB73298FB83F067F9E599E0
:10069000BB0B902966C0B48016F8C66BD363FF2BE2
:1006A0001376C6417BB36114657CDB16A05E5EB336
:1006B0006FEA98305994400E01D0F920EF0EE4CD46
:1006C000EA170ADE59390B4E4820575F1CC13069C2
:1006D00021E0045C30B42853B1A02050FE6BC61258
:1006E0002AFF79758AFDF99F9C8E70F891535C6C96
:1006F000B0F5C011DE786E19DB0A01F1CA77BE20B1
:100700001822A3BD190821F33C96FF709810FE88AB
:1007100091539FCD30100808F6C5ADCC9EC56651EB
:10072000EAF644D1FC666A199F91FCA2F980513B1C
:1007300069C6602BCD983D4B047FC281662D250391
:10074000BF2A0B8A608B6695CC42BB2E8B95ED88B9
:10075000EADEFEF698A007CBF298197A907A9028F4
:10076000E6B1CF1866BD32A770037A775A4F7998F1
:10077000A653BBDEB0FCE60440308780C43CE5C62F
:10078000783076BA100380340D9A40A850048E94C5
:10079000FE4DB367F23023ED5BDC21B66E40045FA3
:1007A0004A5ED125B35CB028B208B3D7BE8EF8FC40
:1007B000A001BC98C4393004AF2458AA019F7AB173
:1007C00010029BDAF1F298CEFD10529D9963280831
:1007D000EDCA8CFB9FE298F3CFD3553DB10465ADD4
:1007E0008403BD98FDBFC0CC98EE0130714761F520
:1007F000D89FE465E8DF1E84E79810C6DB04A27F7B
:10080000BE6BD8F8A00506BC98CF3B842DE84CB34E
:10081000FCED0C145215D048E15EA510C31F33BC8B
:100820004983FDFBD8301016622BF77F0492BB93EF
:1008300031DD194065B06680482B0B8B8DD9E806F9
:1008400016AE4DD3020CFF7FFE11FFE0813C800706
:10085000C439301A699BF50555EB0295C33019C4AC
:100860006DED9807B11CD30C29B9E6FF018A7A987F
:10087000018C66EFB7351690489E9846C65343DB09
:10088000F9D8A00597AF9822FB75140119028C9036
:10089000D3C898C6FFD72F0213383CD0FF0245C4F7
:1008A000B930882E83F3983BB6B1209EE78C8AD767
:1008B000D298A2BF0F1A401347D3E627FFC739309B
:1008C000046239B48E80CB4B39180C65E2F99DE295
:1008D00098E0F576609C246F9295E83C0606DE98D9
:1008E000449AB39B6271609D66F9244599C630BFF6
:1008F000F941D71883B385097B514050680BA40494
:10090000C710DBB30B3F47FC844130201667F03043
:10091000D0B71186766912FFAE7B270B61A101E08B
:10092000C61DDE6EE4090104F3344DEBFA6001D616
:10093000D2947F2F3019F3987F350C6FF8EA01F2CB
:10094000EFE6307840D390303111F367C8E0415C76
:1009500030EEFD0801F3983F45BB4789F998A9D7C8
:10096000BF9E98D3B503EF2D50FD20B3407C98D5A2
:10097000F441651BB37BC588117B5880206DEB98D3
:1009800010BBB1135F9FB9A030F8E6204534C0908A
:1009900059E66484EFB2243E7FCADF428110C01F53
:1009A00042402FBEE6F780A025D0CD822844EDD36B
:1009B00084FAEADB42EB522FEC327DFF60621A4987
:1009C00039ACFCC0538B88B064B7BD0601F565FE39
:1009D000AB6FB6FEF9269C0CE5F020DED383199DA3
:1009E000084D0420DAAF7700BD3252FA19BEB9CFF4
:1009F000FECC20090312FDCC28DFF9EFD00402F968
:100A00007FF2BC04E74BF39FDE9033FF805133BD90
:100A10009858461956A0C364BFE3D53535B379A8B5
:100A20008889B04069EB081801AE48D4AF107C0843
:100A300044BBEAEE9FFF7749FD60FE010C8007B4DE
:100A4000001ECBDC49C00B784F5E9807EC2DD177A8
:100A500019E877B56B3220CD301810BE5FC8CB30A7
:100A600060948DFC5D5EE52CF04BFB9F01805DED9D
:100A7000E3D0025766017A4E208FD35C5530DD6497
:100A80007B830BF85BE3B409E8478CA52D612DDC73
:100A900009FBB8086AB3BD84B308775F71E298C3F5
:100AA000F2E2211914BCB7FB31BBFE317DF6FFF831
:100AB000FB8BCF6EE2CA5AE575209AF367FD328B45
:100AC0009CD388D1A0FC0E8222FF017616FE28114D
:100AD0001B66F9438C2BD3109679FF2A98B8409463
:100AE000C48F81169EBE86A463E698FCB520FBECFD
:100AF0007373CD934CC87029035D36C0FECC90FC57
:100B0000C80055C7FE46C921886A2979D3903DECB3
:100B100068F920117ECC97D3987CCC16263A637E58
:100B200088B10812DCCB7B0E7CF3CEF6AA18FFD579
:100B30009810669983BB9A6346ECFBA7D8C0FCFA71
:100B40008C20DBEC8644E0CCDEF670FEBEBCC83107
:100B5000A333611CFDAE01B8A5DDBCFAB65D24D39C
:100B6000618BFF98FE6346837A5F20CE6E268040BD
:100B70005ADC117FBB24FD7AC840CA0AD1DCC958AF
:100B8000479FB94B200442E60DC0B7A301A1B3B5FE
:100B90002EEE6FB260FB110DDE1CF27B74C0907301
:100BA000F5480109FBB567F74E20A018C9D454B920
:100BB000F500C07BA0BB265D28134A2BCD89A1FF81
:100BC000EDBE801099F307D652D80812B000E9BAEA
:100BD00090294B80F00B100901C678553BE4BFEB20
:100BE000A096FEAD179AFF9E86340DE74F8DF9B3A0
:100BF000F9EDEE40209E82B110DDA3331BFE915B28
:100C0000F3B6A6D8FD33E6AC7F9849D2DB4274FD3B
:100C1000A8FEB4608CFFD898FB2329B60419FB62A8
:100C2000C6447F5B39183DC7F64E8CFF34BEB141D8
:100C30008E6C2C0201BD3DFBF628B1F8AFB1016D01
:100C400031935E6D9950FE567B0435CB4F40185959
:100C50009E802BE0D8F830C7CF7A3139F6FFF8FB09
:100C6000C24CB5523179C68F50FAC21FB70C31064B
:100C7000CCAFF231E5DF584B1097DBE3EDA599E9F6
:100C8000C2486661A2FF08C45B5D30FF097B67084C
:100C900065662F0DC8CD2F089DA6151FF5B6825786
:100CA0006D64017F12886084662D078866F7C11B1A
:100CB000967AD82A19B008CD11FE6196ACFD024B88
:100CC000A79EEBB8FC5A0332AD2016C6B3331064AE
:100CD00005504DBB0206A79ADDADD3800CA567F683
:100CE0003220139B598D7CB3FC8E98D449FBBC8079
:100CF0005F23E57D1A5863808EECEF02CF37526890
:100D0000DCDCFFD8CD30739820CF6D79B8F9CC7B7F
:100D1000FFB1FB5F68CC011082FFB77723C5EED728
:100D20005EFC666C02E5ED4294B3DC0122D1098CD5
:100D3000787F0D1004FD176CEAA784FA91FD2083DB
:100D400028A603A08236130A8BE7304FF3DE4A0150
:100D500003FA116208B30C1AA12061785118E60554
:100D600060F98594D5505425F5BA662EFA875772E6
:100D700080126E8C9D805748230ADCF059F404DB06
:100D8000963D9E5280603FE2780508A0812148E3AD
:100D9000403C0882C208B0DA224058D1FD63D6FE3A
:100DA00057E112405E1087A604B390FBF1E3ED67B4
:100DB0009ECE56672DE980945D40DFDE8280F4365A
:100DC000D701BFA4D068FBDEB30BCF8758DA2492DB
:100DD00068C0DFCD8A7FF9406437C6FF027467467A
:100DE00037A91C10CA631DF9B70276D980A0F92D66
:100DF00092F19DC2F7FF38FF085FC1615E5ECBE9EB
:100E0000627E83E85AFD08D7332C48C7BB14206F95
:100E1000CB4F10D62040E6E7087AFC6DAB62FF8C22
:100E2000A52EF397332D18F3BBC8B1FC5FB3D8FBE5
:100E30000F80679B081BB8B6EEF0FA1069D9BABEEE
:100E400020C77F1EB8B1FEEDE3BD201026FA400892
:100E500018D402F1638BD3F919D8790CE3161ECD9F
:100E600078FA8277F33280228502D940430DEA92E4
:100E7000487EDD4DC495D030FB62D0BD8E2837F75B
:100E800020F41FB7C6FD7E6891FB32032FC82EDD0C
:100E90001316F8E5ED7B4F0166FA1DB8FF534B06BC
:100EA000FDC0836496B3D116D88839B8E00130E527
:100EB000B7C0FB2BD3B018FD786BFBC8F897FA4688
:100EC00076AE13DCDD89E0D048622E6BA08530DB86
:100ED000F0780A1AF293806DC5601BE2C8F86CB214
:100EE00025FF65047ED84C9EA66302E222DFC5255D
:100EF00079ED66600291E0E5E7059D1EC4B703E267
:100F00002B250CCC0388B9B460803CB1BDF04320E4
:100F100043F3C607442C1969FD7F58FCE7C32CA096
:100F200001A119F2629F7FB540DB947389439C4F06
:100F3000EFBA88FE3960C00A643629100977DB836E
:100F4000FF8F30052EB33F784D434579B3A3C5D805
:100F5000FA6E8CB282792D40B1105E3B2C37AA50CC
:100F600027D62845A0096DE398A74D72B1F8C5B4FE
:100F700015CC5B650C912AA8B90FBFAF98601BDF39
:100F8000B3F923CD4BC6C04604DB4C42DDF69AE4F0
:100F9000010C4A0C41D3CD98DB9298FE7FD9990B76
:100FA0003D9B62FCE8DF850497D7E7F880117F81DD
:100FB0008D9D1066140CCBE8212119906CF77E589A
:100FC00059A69703EDCB10527401BA9078165FFBC7
:100FD0007F12FD40F16E19B2C057C11EFD028A7921
:100FE000987513A7979847A4DF8007FBCA1847296D
:100FF00028FD046FF6CC7ED8469F1BC9724420F5AD
:101000001C0694CFD9A2FB1F016425BE583199FB61
:10101000320A56F88549F369561905028FB3770BE2
:10102000118C0873CAF9106AD1B2608BC1C698C717
:1010300002C578305A8A76E1A00B6F77BB28080D7D
:10104000FAE5FFC53DA502662CB6085C015ED8082E
:10105000BF0CACFEAF3398B609C57930401DFE58C1
:101060005E9B69E3989E782FAC6D49FE0C5B270868
:10107000033722F1D8089F28300160D77696899EE1
:10108000985C05BD11846AB6F86C460588E52804AD
:1010900099979597BE1130C4E40EB35C305E987F8B
:1010A0005C33D3DB98F9F13D94277F18308F6B17B1
:1010B000688C309F0098DBD79810B6D370F9FD93F9
:1010C000659F19A6FC2D9BE1807D16FF7C529369DC
:1010D000DBABB1765B0179C89FEE3B820530D90E60
:1010E000085D176DC430E019CB48FB9AB71204595C
:1010F0000A8B39496DC6307FDBCC794CFE984BD3D7
:1011000006C53F78FE98DE9CFB87671819A11C9ED8
:101110000C6E19DE400C8DB5F8E50C04B65EC8E027
:10112000790D88AD19E98FE8F3986E1603FDA7488D
:10113000FECC26EFD90E2327B3F56489E5C895FBCD
:101140001F416160C17F2F3023F4E542EDF5581057
:10115000CFDA584E019EB6FC030856E93640E70246
:101160007F2B3084CD987E32BCD2B83DD730C8803A
:10117000516B8C7130BEDB261F1692C89AFE8E17FB
:10118000FFDF920196C823D064599B7AB208D6DA61
:1011900080F9C868F0BDDBB3266567C8400264FA11
:1011A000F409CCFD2481B8B4A3DE1C7CBFC8603D2B
:1011B00074E8FF209EAE823630E5CA803BEF924055
:1011C000112F8D30FF70047F2E304057EE042530F4
:1011D00002640CC61D2817F70140FA6FBB98037113
:1011E0001ED677C3226246194E918CE3B9F3A7AF9E
:1011F000985026B3AA0880C9DAE82389EC24200B8A
:1012000055C8C1713019F93D6471D3B7F77FE8FC57
:1012100029E316AA4864FAF918E428884641B3B6C7
:10122000BB06A885B06FAEAFEF6409013BF58F3008
:10123000FECC72F85FEAEED2400460D88FE26AF02A
:10124000980C4B6F93E53044AEAFAF45FB7FD38C2A
:1012500080E930F01098FE6016929963C0CA394355
:10126000F30B792099EBD66023953040C730AD87DA
:101270000E79303C0368FED28481C301CADAA8EB40
:1012800094BCB0080C6FB41A20891DA1530A25D252
:101290006F9C61FC3269BBBE1077EBDD204C409F38
:1012A000DA414089A7263300DA2D01E5C8BA1904CE
:1012B000935D30C9FF24D7EA25C23029D7AEB1EDFE
:1012C000914836AE2108259BC8345CD7C8686B0AA4
:1012D00008CC98AFE15F28F9311DDB49187DD3B206
:1012E000D340C64F105E650CDADDFD60C28A662B06
:1012F00063C8F67C473B666A5E02DB3AC83810F387
:101300005DCD73B8502B7EDF1770CA304437D25C86
:101310008310C56FA6E6C69FDC306DE7319F29F4C8
:10132000C5D3B4606BEC0AFAE5B9F6DC6A65799866
:101330007148BFDB8B9B19F2C982F3F66E53CA98D2
:10134000B302207F73FEF8C02E804D5B1EC499E56A
:101350009896C857D9CC1E9836C930672B301EB71F
:10136000B110F3DAB0FF28C329FDB1392CD9C80870
:10137000DABC67FD71E2A9EEFDA396B34E376AF5BC
:101380009844DF844B494810FA32E8711642E40F62
:1013900091647130FB9683F94969B683D9D5D380BE
:1013A00022E061117F9998FDB17FAE98506BD028F3
:1013B000018D30979348E4C8D112FA669ACF76DF50
:1013C0003CC630779BE51B612D53819B5C6010FD13
:1013D00098C0DEFDE0BC4650FE4B5E8B71AE897658
:1013E00065C0EF3298F8EDD3EBDCAECA6E52FE84E6
:1013F0003BB3B6B18A6FAE980833E75A67A185F55B
:10140000BA80E53CCB9341FBB80276DE3CD4C038D1
:10141000FF44F0E28758226CB3BF02CB984CDC4308
:1014200020C82F1B981F48CB40ED723C98973D1465
:10143000FB6B70FC05A3501EC8B3817C98FE333053
:1014400077046477AF98F0F1EFF8DAE081789824C8
:1014500076BD03C5FDBC0839C472C8C4FFCB407259
:10146000FC80D78530B3E6A9F9C8BFB854AF46EDC4
:101470006DC07D20A0B4F098AC95BC0CABF8861183
:101480005E98DAC002EE4911DF37C814FFEC78F835
:1014900029CCED140E1A0D23ED7684C07323584029
:1014A0009811D40D2C5B9E3008024003250C750A60
:1014B000B7AD986857D3FCF9E89DC730F15D8CEC67
:1014C0004EDDD341F6A2FE9837D3042EE8FB5DF142
:1014D00007B6914FEC3304A3252BD744E2F130A19A
:1014E0008679E5B7AF98601BD32FF892EA06A2BEC3
:1014F00010D7F58640E2C59B2B2CB35BBE66C88433
:1015000094D182B35ADA459DF79FF23014F6664BB8
:10151000FA1D8430600842760560BDD47F9F98969E
:10152000C87E487B8CEFE0B18341094BDF30D46942
:1015300058B3DC1224B3BFC97B490130F2D5F5237F
:10154000A0B66FC803FBFF46EA9003D7EE96F59866
:10155000B02BE0033BC860017E03300F7AE1FB8CC7
:101560007F50FF8B464D321BF4D0022BDB434018DB
:101570008D19FE52D8D306EBFDFCC2B5C00604D3CC
:1015800081306F11A01B31C22C27F68608ACB384C2
:10159000510A4277EB18022322111136F698118C6A
:1015A000FFD87FFDC6993DDC7D63EEFFF8FB205739
:1015B000CFD68BDDE3A6D371F39DFB32281B60D31E
:1015C00080FE30486CFF98FF6C93CE31D1C63990C5
:1015D000FF0589183A7E6BBF08C55CB3CA80143218
:1015E000F5419331626633FF4F4623D3FFD766F848
:1015F000AFCF0233B5BAC1C48CB5AE376635C66E4F
:10160000EB48F83366FFF941631FCCB1828F83CC7E
:10161000FC67EDB4B71BCA9856C71975A9DEB86642
:10162000618AFF01C53D35B87966A7C7C864188DC2
:10163000DAB510C5BFAEA867AC6608716B40652C03
:101640009401D509FA86061BEB22043BB664FD7FA4
:10165000D8038129944CB110A53FFF943D65AC940B
:1016600001511B206BE62B566EA00A2E035B37FE42
:1016700017C89BD98D65F3018A2F83805EAE20AB9E
:1016800047CE850E3BEA2010DBBBA0FEC7DDF78806
:10169000120A08D0E0EE57B452B67B420920B3F0EC
:1016A0006028A01E3230807C666150930572D7148A
:1016B00003B307605B6B7BB3E8FD6E3E64BDCCA2F9
:1016C00028C7058A7B4D29649A21FB50DE03100848
:1016D0002D372843848156A75069D1B19A5DD89699
:1016E0008143F12E59DE6FD8B0FCAFACB20253BBD0
:1016F000184010653B20FFAC796E1E64D0B0E1CF7E
:10170000ABB1F7A82019B6BEC1B4C831B3EF589336
:101710000199E99AB46568FCB04AF4FFB649C68FEE
:101720008E35E4369AE522409FCBD3086FEC78984B
:10173000F97F9698402DCBB5203931786099A61560
:101740007F1E1B32662CEA408551089AED65B6660D
:10175000F80815E930B9AB909209C70EB67E28FAA1
:1017600009E6193FA6C667ECFB8057DD72F0FF085B
:101770008CF140E6CEA0B419F9B267B6CB11FC1AD1
:101780009E2DA666FF5ED8FE612ACC08C4BE7ACE26
:10179000FDCCFEEB07410D96600857F6AF88F919AE
:1017A00099BCEB6B04CCB3133CE5D99B02611F9849
:1017B000DCE2B3FEC5D6B7042F962B2DDDE518FD70
:1017C000FE85D8024052B337B203ACC080E67B102E
:1017D000FADB36B680528902C4D42310E26E9C969E
:1017E00040B3A4C6E72FF9ED64FBA1B38646FF7BA7
:1017F0001098FA76588CF7A84C022AC2158BB88F2D
:101800007A9880D87AC74FD8D515FEBFED71060CEF
:10181000EA734C686FDBB9F0FA2746CA8220D124FC
:101820000419C6262BEBA904115E5A10A1CB64F84B
:10183000B85F88CAD4E8F5CF01E0819E4A67A95411
:1018400020E30820C0B76F5B2040698359FFED2576
:10185000063094AF50E2408CC1F98041045851CD1C
:101860009B43FD093DB328268CE9E091D80840DB75
:1018700020057B724871CD4209F605F9C89C01B973
:1018800048550D3605E39BF22A1B34559D61D10A5C
:101890001599CB4C0C936E29FD84E9C09002B3B02E
:1018A000EE808321F0617F0C14A28AB87B8D98FBB7
:1018B000627E1346197AE804D8A40B5FDA21847E8D
:1018C00091085AAFFFA360FE6FDBA10121D6022071
:1018D000DD10C399FF032EE9EDFD42AFE8A222F827
:1018E000595C5B2F80FFC7B9D8017AD530CDFDC2D6
:1018F0008088FBD86CF96DF517F66F3BE6993FCA07
:101900006FC0361959B3040B932018EBF11A5836EF
:10191000FF9F476EB5815A41048438715A8F6FD644
:10192000D0F860B99B2E041A59D005FC8167EB15DD
:10193000104077596F5F580D900D614366C8FE6384
:101940003CAA66FD838FEBAAB0FD66FD0795E646CF
:10195000722D20C75B8F18FA51C3FDD908019FC9AA
:10196000B3205618085FD9A7BFC8B911FB30BDFC1A
:101970003D046EE546CD37BA3B50339A4D4FD79371
:10198000501819B65BF898BCA1E59FFDDF90FECA20
:10199000ED26EB506E511290FCC5F1C64721FD3586
:1019A000A00172D4D0075A60137FCFF8DC46D0086C
:1019B00031D3131CF2859460B1F8EF33A51776018B
:1019C000747D0918916BFC9F06C1B7AD6FF3A8FD3C
:1019D00011EDEE65C079EC398007CCFB1EFD62A3EA
:1019E00057F33DB381A40CD640DAB30391EFC92B72
:1019F000F3608834643BFF7F24B614FAF1DAC5D56E
:101A00005A1A23A701B1174E8005044C73021867B8
:101A1000AB7390E07B7E281804026110930CB00039
:101A2000F97F0C19E0580D836012C4ED269CF91162
:101A30002061090C65B330F96A90F8300A40024819
:101A400005E1E387E142A5407D61C9990912DE60A5
:101A5000FA90FDF0201EC40378CE183C8807F143AD
:101A6000DCA30FF33918E0F8013C8007F01A16C028
:101A7000229A2645C6B4F91ED0027840E6FB412CD6
:101A80000860FBFC38D806BC875FB6B560A4BFF31E
:101A900067A91941EDC0B720E171C6BB448364BB9F
:101AA000E665E6F8FFECCC46C495B316DCE3D80B4C
:101AB00060A1B33CCD26C102846D03042BF329E160
:101AC00092FE1098042360129EE6B008D8FB8D9910
:101AD00034E8EF4F98A40690060169E09858A729CA
:101AE000CD84D20AA560E78D7A8B8088DED3FF7B18
:101AF00098B410C4FE34863B13F5A00CB79AF67662
:101B0000B81886AFEC84DCD4F4F720E800FDE0F6EA
:101B10002A5C61C09B2DB3BC98E1848E6776BB04C0
:101B200057BD926BF181859FD3A7979891F89F7FBE
:101B3000EC88FBBCA853D72BC5311C80425E98A50E
:101B4000505A028975E67A98186BE220DC4B4C906B
:101B500009FCDE16C122581058606868303BABFEA5
:101B60009AC826C879D90B60012CB69030EB5DEA93
:101B700098641BE1930A3DB330F12220C208F401BE
:101B80000A747166788B1908F327B3F31006D1092C
:101B9000FA5D79C53F0F8378400F6281647A9803BC
:101BA0006CFD3C4066EF0B9816A7D01903E441701A
:101BB000C60F1EC081780DDE980F58FBDE0480C36F
:101BC00046E3BEF2B602EBB837CDE5CFED32967301
:101BD0005D1004B9116620CB9BFBF429B34537D3C4
:101BE000147A4D8B76F34C0128B3D706C2A7BA12EC
:101BF000E34884BF0995CA18FBDF24BC7E37E0F8B0
:101C000020B510E03FABEB11EDCD1BF1230AD689D7
:101C10000623CE3002D12052E0662D5FC6FF454A32
:101C200044032876FE08842038FE8058BB8E6CF46E
:101C3000036F8F3057E00CD9DF24D3F3DE20F90493
:101C400004DB6CC0F93379980B0CF215E03016C246
:101C5000ABB380F83011DA9503B9D80A301EB0FB67
:101C60000488DFAFEB39ABCC1A4AA002D39A11E259
:101C700030F6B8C04487B35D8C04A448F3C22998F9
:101C8000F3BB6186E4031047B373E0089877BD386F
:101C90002C808930A6B74609621148F39FC4308F63
:101CA000A2088222A7E119BEA609F35D17FC112044
:101CB00001B8F96015EDD2F140FC30F00FE8013CBD
:101CC000DE43AF02D802049F33308805D306A4D088
:101CD000660B8890D39B230359BD981C5AAF4623AB
:101CE000FB365D917973E2207FC539300610EED363
:101CF000100335E0EB0AFE9F4EC6FCF8FD8CC74092
:101D0000B31DA2180C88199833ED4679845869954B
:101D1000041EE552BFF6041805039462F7C6FD11D0
:101D2000F8FA2004057AA718B3C86AFD0C40A00988
:101D30003481FF7F9D6089450288FA985107841697
:101D4000D0E9085A60660D773FDD02510803481359
:101D5000BB68F08034F654FFC7D8EF2C8881AE30D2
:101D6000972059981AB7B798C220F1301A399DEACE
:101D7000A4623935CEFFF06BDFE298B31502B019DB
:101D800004A6B10411B0E05C307EDC1CB3703B07EC
:101D90001AF3F33090FD3748B0F998DF894148EDE8
:101DA000207BF40A1208C47D9885AF04F99F8298BD
:101DB000080BF4EE8C8411F6AB8810647C01F635C8
:101DC000CC6363FC184839014669FF5808A3201109
:101DD0008C8048A39072F8238C62473EC844B008B8
:101DE000864D4F731311A71973032490C204611514
:101DF000064C8B10F83FCA3C9007F120FE1EC00332
:101E000058000F62B6E02AD7AFC4030A7F2C3020F7
:101E10004F2BC8CE6BF698E241BBEEB0030EC0D696
:101E2000025873C8813C6FF977DA9578E5CA230CBC
:101E3000FD00F3E3F314E230FB9F7D3C45FAB87DEF
:101E40000AFD8D40F9FBC9E3FEC03368B326EEB34B
:101E50000577742604FCACD8E8108F70B109313EC8
:101E60001488844804B7BE20AE80533016C60113D0
:101E7000DD44029EC810C0FC943604EEAE800F0E06
:101E80008D4BA186F93013F229122D2086CEF298BF
:101E9000FC5C8408D21A1A45FDCC4DD9C8C026D89E
:101EA000F21B500B698062C1346DC0F985D9781A74
:101EB0001979C9E5B1C65029C72CE5EB34660C8801
:101EC000146BE46B6E9F807848FEE0014B0430C6D3
:101ED00062E0445EFDE0E7080338A68041159CB847
:101EE000459DE0E5B71804F23081EEEB77201897B6
:101EF0007D407230203FF8A4017EDFCEE7FBF89BE7
:101F0000AE11603282482FB315CE6BE71024C202A7
:101F1000A25066F398B923C4FB029820036087D6C9
:101F20006F5AF8C20450D74246D322A01024ED8243
:101F300001B000464E41CB0245CFF698800978EDBE
:101F4000440148FB08615F789806C81088D513D310
:101F500036E6B00250B2C8BCC5BC98B930009D0B83
:101F60000C3D88DE9834A318F3623C3059A8BB03BB
:101F7000853D9A7998B677C8037972303C6BFCFA44
:101F80008D4AF87D1588B7007DBB40D6AB3121D591
:101F900064EA98C2E39E6F2F98A5573920A735FDB4
:101FA00089FAB676EAB38817D3217B9823023DD409
:101FB000900530893AB346C020E3304F2F987E8B8E
:101FC000085920024184E7E62218FF77D2ACB41A00
:101FD000BC4C8B99D69806B9C8F180A10134988E73
:101FE00049C8E097CE61A2698DB0BC98BD8B8AF7D5
:101FF00040100820789819E46601BF97D259D85943
:10200000C84B931011E4300647E5A0FC307F918B5C
:1020100011A663C8F8AF53DF880B18C86F97C817AD
:1020200019DF72C62379FF7998796B6DB6E7B3FA39
:102030008B08046207E7C878F832BC31EB817EB2C6
:1020400072C814090969F3C5801167106696D3D464
:10205000111813615E98A585F1C27BAB0840BF8162
:10206000DA9843FB56E10647C8FA050B60042CD109
:1020700082D37266A10E448C6CEC90F4B484FC8024
:1020800042C0889820DFE641EA9844F1217EDF4093
:1020900014DF17F1FD60407FBA9816C083CDC8E207
:1020A00065E81FDDEF980FE0812C677998DE6BD72C
:1020B00005F4B6A501189E98BB03C098C3397F32BA
:1020C0003048FFA9FE0230CCD51580AFD99FE5FF7F
:1020D000E798F9B8D9270037F98B680A77E7C8532A
:1020E000FF59F52E18FB6C61B3B849D312FE3DF3CE
:1020F00085200A9CB4CB28301692B313B7FF5798AB
:1021000046CD7FFA616C49FDF022C8FCA084FE3701
:1021100022BDC22802246BE786F7CC0267C84DA413
:102120005F7F621C3059C80E5AEF6EE32DB0E73066
:1021300014041AE94081687F203ACA78FE00B5FE8F
:102140001630B260C5B1B146FF0604B87DDBD39846
:1021500006B01825D72CE9BE181922CABF8930ACA1
:10216000036ABD5B88B878D3C578308D87C9B30C56
:102170001044B3FD4FACFD0411057ED2A14642BF11
:10218000EC0424CFDC58445368E382D82904973DFB
:1021900030A6C024981734B0980102702688AB98F6
:1021A000D78B0ABFE6F0FB84083042C316C0AF9855
:1021B000E65F418C8C30BE5312FE08044433B843B2
:1021C000CFEFB132092281C441DA0810F230C2B631
:1021D000B0BED85779C638F6E0FB6041DC30AC18A9
:1021E000DAC840FA9803EF58B881AE50C823B5BE9C
:1021F000E430700F1EC882787F0E3034FE88DF8B8B
:1022000030EDF9F2D58BF36C324F9B7D06408DE0BB
:10221000B3C8401C15E65E8CE690FD2B8977B311A0
:102220000C809B51F314FA177B0F8C081113DFE31A
:10223000168802ED810803B3C8C8FD0890028360C8
:1022400084EFE638F820103E7EC0D0044A3440E5E2
:10225000E14502F47570FE984565D65877203049FF
:10226000678422E10A519B11F40DB3C81281D41A7C
:10227000E84003282DBD6188C8F980BB04B2211B4A
:10228000FAA502CAFB8A3C66869C8910FEDC91880E
:10229000F37E840871E516B0D7E38898196816575D
:1022A000E55BAE7998FD546208B30D1806340BCD8A
:1022B0004BB2C8FFBFDF8B3072E3FD63E7E682807D
:1022C000502BB0ADAE72C8EF32987A19DD11889CF0
:1022D00011D31610D6C00197DC97987F64C21440C2
:1022E000041360BD80E2C295F871EA98404F45A39F
:1022F000A32088897FABA5185DCF442C9071FDA9E0
:102300000DBAA64470ED12C8D71A3DFB981248C109
:102310008408E6132082F2519375FBBD3DF38007DC
:10232000B1205003C578105EB86997C8798B715D8C
:1023300071A1A166AAABE88FE0CDD582BE4DC8568B
:10234000D0F9C85D84CA38F9AFF3E5BAF2D3CDD27B
:10235000FC98FE0A70D5B350B5023419E230F3A5EB
:102360006CD0C8C4F9BCC2C616E1FF538AB3800260
:1023700028E7B30D8236B32004DE8B46F3A6B3EC18
:102380001109310C26C8E0E00883B4F1982FFD084C
:102390001102036121EC7978FC1634FF6598B3FBD8
:1023A000FFF8FB4B1F806D591A01C6F371D18E25C2
:1023B000D398198240FFD8B324243166D8FB18562D
:1023C00083BB01CC9F59E350B3FAC5ED938D9EB109
:1023D000B5620766F625FD338BEF81CDB208E2E9E1
:1023E0005FFB9BE81015589508939B20A8B9F8BE91
:1023F000404BBE412D932031F3812C102CFFCC0299
:10240000D0F96ADA6FA681E48BDF6287179FC5E790
:102410007B1B3C97C42CD8FA38F5F688B7D66CDE0F
:10242000DB70B3A87BFE0265FA0640C4FF31805B17
:10243000C0112D77218333356CCC60FE77CCF8F159
:10244000EDB66AFD7AF282BFE8046C17B0B0C0192D
:10245000BE05C55B8F88FE3BAC3C47EC0626F67597
:1024600018FCCB5FE104F6C830B35EBBBB08C1F219
:102470000CF0262CB7610860FF2EDFF8146BCDCC72
:102480007CDBEDA296F4D17AF7625EE32FB65917A2
:1024900008071DA62340D4C8BECCFF0D821006023B
:1024A000E66660A0B688354430E2052819EFB340EF
:1024B00080089003B001CA06CB6BCB99C1AF35C978
:1024C00020D0E81070F853F59E03FA0259B4C08486
:1024D0000A34A506DC46D77B194130E02810C07EBF
:1024E0001A042105010C773D91522DEB467EE976C9
:1024F0007BFC0ACB06012BECC44C1F95B320D5986E
:10250000D1BCDAF90499FD51C0F9B2F644D7DB84A5
:10251000848073A63C6694C210142F94598F41BFD7
:1025200025ED08DCFD0C6AEFD83F81DEED0820CCFC
:10253000D2B23EEBB11831CDDEB3E6DAF388FD302E
:10254000CCD8FFDDB70A6A186E664746ED0B900FD0
:10255000611EEC2F02BD31159ED8CD40BAE4445F18
:1025600097F72DBBB2400501DD840838FC86262292
:102570007A9A80D74CAF5866E38514F39530413B87
:10258000CF177B652078FC020CBF8A2064EE2540C3
:10259000DFDB42A0FA0B4CB651E94801DAA8CBB018
:1025A000F8E037F0F88418CFEF3120CBF915E50BC0
:1025B00090B6D8496BF37890306425F0E8668AE9E4
:1025C000308C7E3960C59A1058F8FA62E3F95FD111
:1025D0004122F9FC167FD8A4B79149D0E69077F64E
:1025E0000A91F815A82720B6CCEB4472A958F6DC5E
:1025F00052B367995FCDF198FF8FF5899EFF2D004B
:10260000B2C9CDF627B8FCC830A7FDFF10ADFF3129
:102610006833690C5BB378FF17F526086A8B10CF17
:10262000D2FC5DD540E748E965E5F3F70083D9348E
:10263000FEF9E52BDC542A82F25DEDA248A86EE09B
:102640004010FDE40889F980183487E97960CAA848
:102650007698FC4FE6487A3A803BC0B3B559CFFF35
:102660005CFD2CF52159B390838E3D122F3823D574
:10267000195ED03022E8B0B2CFED3CDBF660FF2F20
:1026800056FD02ABE340CC8C5B6CC85B5B3BF8F95E
:10269000C2C735FD948028BC02D182B8868C084917
:1026A000168028D38FFFBF36AF2D3D7680A8DDFE84
:1026B00080FB3A84FF09107888700EF0088096FB42
:1026C000827E9AAFE63280D3B61D8267E76E08B786
:1026D000FC20E0830486E93440DC4AB941A1B09C87
:1026E00001AC06180F0A200328D98001EC1628A196
:1026F000F29A22C00AC774FC012CAB288D9FF757B1
:10270000850408CC50F898A2C2EE81E3485140E31A
:1027100001842EE988868055063EF3E8815420CF57
:102720007F1D28110C0A04101814FBCFBA44024074
:10273000FCED09EA1498AA8704DB58FEC0F037E2E2
:102740006332FB3EE3C4B836EF93ACC3B3208404DA
:10275000D4E0DFDA9590F93513DDBE21FDF98E80E6
:1027600085669A08FCCA6C47E8CC52FF8852CCFBBD
:102770002E9D3B28FC10861C392C38B3B77ED9FD22
:10278000549BE32D6AB615C63D3F0462FC022C66DD
:102790004B66C01408C7B467FFB39656134852B3CC
:1027A000105B7198ADC965FDD4779B2A06566AA067
:1027B000EBE0FC0AE236BFABB6F657414B9502049C
:1027C00079F38F9B138DDB19FB89EDA9FC2B63FA41
:1027D000BA67F60DF8C57EECC2AE5A1908B6D2D863
:1027E000FF20C8B403588020A9218CAB99FA8CCE65
:1027F000C5218090C76618B0FEF78820FEAD7C0228
:102800008BC9EC7E4434C6940C40827822ECF9E407
:10281000FB30DDA50295FAF902D36F66F458F9C7CB
:10282000BE8CCFFB3370D62CECD39EF0660480DCDC
:102830000610966412EA920199EF84B4E867ED5DA0
:1028400071F912C07141E77110C00248D2681D8150
:10285000A00471CAFDFEB1064FEC0101304FE33018
:10286000B73C1119D5EA414998FAFCF6300806C080
:10287000678B72F0C52DB39E1ABF41A9E6837878A5
:10288000F35D07F02760834E0C824B354880B31808
:10289000C3282C477BF629B038195BA07CD581264C
:1028A000015BA00E12F2602DE96EB9A0FB1977E072
:1028B00018FAB72318CDF203EEF68F0520CFED13EB
:1028C00030FFA4DD5808EA7B8444E246AF421D1A7B
:1028D000F32490295E10B33C3390F4FAC0B2033F66
:1028E0007F1E29F3FAE0D9813CDE4ADEE00163A6CF
:1028F0001E90200388E31950FB755D0B6036E9C814
:10290000FFFF91B2034866F3FDB10F5DDB7918F666
:10291000A606CADEA948FB93450269206220B325BA
:10292000902E9FF4B977BD08B31405C85C16974480
:102930003CC622800405D7F838F07F341124D0ED4E
:10294000D95601BCCAF6A0480411FBC96FEECD8868
:102950002202D1F681B821F8FF1998F30DD34A7CF1
:10296000FF2366ED8C1967B63C0CDECC62DC53BDF0
:102970000CD3F9642CB302DEACCAB32FB83CB683D7
:10298000D7927A78F9EF008BFF3C98D393BAFAE2AA
:10299000B05913AF2233E5C6910422C47930446B99
:1029A000E798E9FB6D14A99535E962FEE5C7F410D7
:1029B000E8B21297CC232B9320AC78FF5A970A26C3
:1029C000EC60F981FFBFF9DD980280822E5E50F045
:1029D00098065380CBF29850F301D04B0C38B5FFDA
:1029E000356B5F1903E67BBE989403D35ED7FF0473
:1029F0008AB2F047280165ED45BE596EFDFD686657
:102A0000656D3E29F382D3C94A66A016C86A5FCBBA
:102A1000E09696FA057E657404B37998E8C020E5DF
:102A20005CAFCED469844057D3EDB8FC3C358263AB
:102A3000D901FA632CE6FD726E04C2068733FD9855
:102A4000284D7B22C8AF2E30245EDAFEDD63DA101B
:102A5000B5145DF80AE69428DBBF416D96B73C01DA
:102A600066E811B1D92D73A91C0806511E323778BA
:102A7000ABFF4098F269CA30C257C1D8D17F349BAE
:102A8000B349FFA371EFC6E666E91809EB1635F9FD
:102A900098F2E083E6EB221082131ED740200575E2
:102AA000F128F9F3ACDFC05F745B0966E7BF8930DA
:102AB0007FD96B796F5EAD7847BFC0DB0B10025ECC
:102AC0002F301A43EFF8F2C53F12ACAEAF3F9896E5
:102AD000433C774E64822C90DF97302475BBBF292E
:102AE00030818DFDB408EB6434FFC575FC04423FB2
:102AF0004BD7EC00FE6DE9A8FEFB17A0652CE68322
:102B0000C5B302B8CFDFDA44F5CCD518A4BCF16D5B
:102B1000CA30096D52F92032F9CCFB7FF311A0AC19
:102B200050B3C83D98A430C08820D0600A21DA682C
:102B3000E6BBD19AEA0B6826AACD28F8FE3C05C26E
:102B4000CF312C4C96C839BDBEB7085EF301FC5E90
:102B50004B223334049BCD7219038041B3CD5C66A4
:102B6000C4D381C20E7F8A75C6368FF952D37B6675
:102B70008404622B6413F7533067291924D3203B54
:102B8000730205D77584E8EFCBFCA008D9BD1AFD08
:102B9000D76BEB980B28B3B91C8C868859FADF7F6A
:102BA00032D302EB1BD23A2C6685E7FFFE982966EA
:102BB00023B8F7FCE0013D79989DC330FC0FEC6031
:102BC000013CECA47AD3885E3040164670DF100FCB
:102BD000E09851767898377330E8FB629AAF488472
:102BE0000C81C7106BDBAF90751130AEA5F760E0BC
:102BF000A18993CC03D1F92D053188AEB323F70A0F
:102C00000520026BFBD38C51AB77BB32A5649BC70D
:102C1000B32E19A03FC675F4059BFAFBF2C8FEB2AD
:102C2000175BB40210B4FD6C6886FD9F98CE10C08F
:102C3000041A725C41ED23C4C6F9300D2BD3AE03E8
:102C4000D3153B2FD925B13141BFADD06457F81210
:102C50007B81C420BC180DBA0DC9CAA7F6E558FA85
:102C60008BB35615205FAF9806E4E6C08F2B08653E
:102C7000979792B2EFF25AE069FCDACA79190A63BF
:102C8000D3D662FC0405B002ED2CF0FDEBC120852B
:102C9000ED067696D5B38AA305D745C01199C762CC
:102CA00072306AB6E35704595C7E98EB180323EB45
:102CB0008BD6B09076E33F30E90120B00847661A22
:102CC00034F1DD760A02EF5D42FE96C877AB981EBE
:102CD0002BC8D998810C656617191D1DE498193BFE
:102CE000C403E4BD981147C6E6C881EFD77F08DE6C
:102CF0001753B2034E665CF30CBD67AFFF313FE084
:102D0000D6D684DAA2B583DE7F81FE895AA3026615
:102D10002FB34018B3B422AD4F1925C2761166C83F
:102D200002B8309B19208097B3C8F737224077FD4F
:102D3000BC30FDA084339DD044DC2164655EFAEF95
:102D40005C5DB3349564A0C3307304DD821094C815
:102D5000D0782AC0F468E78DA150F854FA6BD6EB0E
:102D600024FF5E6B626BE8206DBB3DAF163DD7392B
:102D7000808EFA2A769B06C1207F1F00C25DCECCD2
:102D80005719C00B3032FA646ECE64FD7FC0C5D3D4
:102D900097C831D3D8FD23059BB3C0F2C8C4167CB5
:102DA000226FE53220D5EA9F095A6D206EAE245F6E
:102DB00096D4439FC042F8AD90ECFD8004DCEEC891
:102DC0002301E863CCED2E7D78030910C0440FF594
:102DD00098817D8CEA7923CD7B8433A57AFEEA3C09
:102DE000E28007F4B10CAEC81B5D4302551901BF68
:102DF0000C3026F4069E9893E026C6124BD383B27D
:102E0000C897DEB8F4178ED3CBEB177E335D8F6691
:102E10005BD3C2E5A8196620D3333BFCCF310686CD
:102E2000E17E586697B32C5D82EEAEB12E30DC6445
:102E3000801959C87919F9C8D720103D30F8FAA07F
:102E4000047594047D8293CDF498203D3442B7C03C
:102E50007F6DEE9804101603F830509549867BD3A9
:102E60005D910DA03176B1F8D7CCD248FFDBCCE52F
:102E7000DCDBF802AB3C018C798F01987899FFD8A4
:102E800030F7B82053CEF0986C9CB67BF49881EB69
:102E9000630731A8641989FDA7C269FE450EE040A9
:102EA000B5AFFCF70485308AFE978BCFF117E6B3F8
:102EB0000898ED0480F7069757EE4C21CAB7221CFC
:102EC000B9DA49FCCCB0C2B390E90646C05A616792
:102ED000FF7F08906CB3B6224EE9085C20C05CB856
:102EE000660B80054B66C1CBD358A204021A70FB57
:102EF000CAE2F398B8C7CBF598023639812CA6F10F
:102F0000FEDDF1E8010D8060F15F1EEA98E2F298C3
:102F1000FA7AF2982F191A98B3F9CB61FE1F596407
:102F2000E666E6BC56D7DC5B37F998B9D31C66EF8A
:102F300081F805DE3008B3B382DDB38920099866D5
:102F40005938F5221216C0E7EE291984B344B4C2E9
:102F50001AD34F91FDAEF9CDB910017EB9131B27DD
:102F6000D4FA087BE22044B4B3BE7FB712405D764A
:102F700072DF4590F3841A713079987CBF4BFFC59E
:102F800088B59B972EF8D24627E582F27DC1F3F8EB
:102F9000FACBDFC798FB90FD739B062264FB980673
:102FA00002726118EEAF2A32E5FC99573C700403B7
:102FB000302E1CF49B0FA5E079C0FE98D1400EFB8B
:102FC0000819D8CD3783936FF6E0F9C8D93002BF1E
:102FD000CCEE885104D3CDBABB2E2DB046B36BD006
:102FE000473A0D2051FC29F8F7E230101278983654
:102FF00056FB6B236044FD98026AB3B601E031FED4
:103000004210C0183D05FAAF3BEB2110BF7F0B2FDC
:1030100070F698F0FA2AE63005F2C8C9C8DDB9049E
:10302000F37969EB980746BB9003DBD5983CC73032
:10303000F898F3BDE2410CF31069C730F8982DFB06
:1030400008DC5D7F99987C30BC606F5A992DF1D077
:103050004F5E1BD37318CFF3E37D2BD598F8F53271
:1030600097F52D530ABFE004479CBBB321200A5FAC
:10307000B6866F118409E430181419E14880816D17
:1030800011A679300C77B198A8FE18DAFF04DFACEE
:10309000FD216EFFBCFFF1787237D2407957B0F353
:1030A00016A6F3776C642848D38DF33D316AB1FDE1
:1030B000519AB06182FFB8C51B66402043F33F8C34
:1030C0001D596621A624D3FAFDD0DECC37743044D6
:1030D0009C6BFCE03EBAFEB737293193E3C67D5BBB
:1030E00052049EC6F3B1B8AFD8328089ED924A5BE4
:1030F000F646BD998E7B2303FE62DFF963FFCCBFEA
:10310000818D70BECCE6D338F9D3967E02FC8F64F5
:103110008BF7E63CB3C6FF1588B0FBABED04CC964D
:1031200055B3FF62C6E62BFB3408FEDFD8F3CD585B
:10313000A4F85867B3203D298065FF1FD0FF613197
:10314000BF9E1EB304FFC2C8B4F8FB7F14FDF2108B
:103150008D0AA1E3D3A42DFF60B1F80FD8E022D2ED
:103160005910CC5A518003F7BC04E45AB3ACA108FF
:10317000BF0655C6796B016DD78D16319E07F430A9
:10318000F3213798FC2520A0AE922DB826DBC57D13
:10319000B5289DA8E284016F87505144818CD613D5
:1031A00040796F482103F39805BDFB760923D1BB15
:1031B000280455C4C6B22F803C48ADC8D6A908CA59
:1031C000186EEAD8EEFC08163392CAF8A7C3A1FF1E
:1031D00021B720F92519D8F980B6CB55F913F44B4E
:1031E000100B415D59D5881902B41058E4FD51D631
:1031F000CA3FADD498FA843E506C43B140D6AE502D
:10320000F9DBEC8A3059FF10FFFDB1FEFE6DE201E3
:10321000080D697AC0C677B9B0B1FEFD96627E7AB4
:103220009B40C4FEEFBC4BC2EFB1969CE8ECD8FDCE
:103230001558DE57FB2D103443DF9926D0FAF9617B
:10324000F8FFB5B5589AFF4FBBEE101FCEFC88FDB6
:10325000C28FB1DAF6FFD8FBC26F58B380A1238FBB
:10326000F9989FFB570227F76EA0999D8BB330C545
:10327000FAE58FAC1920B579408D3640C0F91D7143
:10328000809BFBA7B827ECCC3FCE7188FEC2E3BC85
:10329000F60CDC722580925ED948FCBF5761371866
:1032A000BB96EC2990FF314BFE584602B7967ADA6E
:1032B000492C9C2045728046E662C081D8F2CF5CE2
:1032C0006A10C2DBB8FCFFFB080264AD8340383EE5
:1032D000CE4A5840DADB0E55CE41C68FCA7A40FE40
:1032E0007018FADC86CF3042BFFBFF98FD144BD933
:1032F000027FD68C10873B9EA2226EFA7F19468DE4
:103300000FE0FAA944B973BA5611C47E89C71B3EAF
:1033100010FC17DB2CF229589AD7EC2F04CF77B684
:1033200018FC0899F2FCD981020862F973A420D034
:1033300022B7DE5A6201A8CC58664CC9162043E376
:10334000016EC347E0AC6C10BFEFB104105BF60236
:103350007FCE82400D1BEF1AF2FC7F039630ED808A
:10336000024057DA902BFB53FC8003043066AB55C8
:103370002040532E1109D6A2624082F8190C03286E
:1033800005E0D2C0E2887DDD4A4409056A15FB9F4D
:10339000D607044002500343056879D00680974958
:1033A00048A546AFBF50B730EE6C011407D0DA1A0B
:1033B00033A8816A01CE21A1148A200F9004C2068D
:1033C000180B9B2978FA6FA3BE50751902C6EF4AF5
:1033D000F020F367C25BB459D6423F75B608CE58A9
:1033E00068F9ECBD4D8B416CE0BC8023FF339AB68D
:1033F000EDF5E52174FD9CE5DF824034C34AD681BA
:103400005FFC04C07D18E72CDD40CD808FE3B79AC8
:103410002D9020338979BE04B1FBAE4D8920C84080
:10342000AAE420C537E308656FD7C0F8BC8025DC67
:10343000EE8CF4778C4AF3EB764838FEC4BA46FF3C
:10344000B49A3C46F2966540E2BD8BC5B7474891B9
:10345000FFD19B98C2FEE89580A1EE318A050C1041
:10346000372E58FAAC8002774CCD7CE8FF6CFD30EB
:10347000F96B8F5EF39D73061FD598A818B3B187BB
:10348000B931845AA243D3B6FA6386915A6A0803C3
:103490001C655940FF778E998BEB1740165847985B
:1034A00045962E13369088FC13FEE9028E19E5E34B
:1034B0008099BB951123D9C8E4FEAACC34403D8243
:1034C0002A4232E5FD9E4DECA00130E1AFED9E3485
:1034D000E0D0229AE616090444C67803F99A040556
:1034E000A044F5DDD0FEC65227FC410C04D9E610FD
:1034F000DE4B44A091D918089B31EE4010087AEEBB
:1035000028FB804157E0C09B277F9E06016AB3E0FD
:10351000E0013D3117B306C1207AB30CC84D796084
:10352000C1083DF0C0FF80050380AD28B549FD0608
:1035300046ABDE4C812C2C49B3260F081805C82455
:10354000027BB0105666240852B9ECFD70EB3022B5
:1035500053E0030BB56035E65240243702C4786B64
:10356000064204B6E08ED811AF725CEAFF04840113
:1035700010300A58F8E7E0813CF27020F01EC003DA
:103580007ADE83B50760C80B62590DDFCC9F6033CC
:103590009007B040D216C0AC0366962CEEF0E6ACB5
:1035A0007820677641B958FF69C1CDE618E360CD50
:1035B000F002EC57D5DC42FD0F0301AF2F93C0346E
:1035C00050FCFFF870A151D3125318406CB3B526CC
:1035D000F97F8979567EF905D1A398BC15F89C69C5
:1035E000840213D7F88C96899E144FF344088451B3
:1035F000B3685D6498B4CBD04DFF7F80DA1614FABF
:1036000009A0D1AADCF74704FC313DF77715FE3855
:10361000A66E198A4DFB0DFD94BFBF2F8DB009809A
:10362000203CBDFD5BC0677523E6A98FB3DE208516
:1036300001B90CCF77F6D5EE06415F5B58FB7820D9
:103640000C7E57615FB1EC981880B553F59830A99E
:1036500092ABB35A89E994A009F8C7F7775DFE8465
:10366000F4EBB53CF32B64B470D0F3808F1AFB4FAE
:10367000A910B322184536B3148B6612531960B3E0
:103680005B66199EF8C376B57E04910B05CD977CD9
:103690004B8FF3C8823C2C8245EFA4C2FA3B4CF618
:1036A000CD0BBCE3DA22C82D174C7F311AEE60D166
:1036B000E079F8EE777C764119FFFFB910250836DE
:1036C000B309BECE26C186B005D27FCC3C205ED2E7
:1036D000F01ED0037ADA7A98F0D3BB140F6047A2B9
:1036E000BC07D0B90FF8EA02F437E0810C721D066E
:1036F000F2E0FB0F571978400FF9E2013D08C0B323
:1037000059167FED7F03BF66C26BD664A8F01C1606
:10371000519EDDDC80346805BFD0CB4706FD649345
:10372000805924FF5D139F02B348580403B460E638
:103730006545C0DCB3DF6D1F3BA9390B81119401D6
:10374000528172FB8CDF66CAB3083E048142B35FCC
:10375000CCA114BBF4CB40A06CD019266F2477DE2B
:103760000D2088BDF8FAA908AADFDCF34E2039EE57
:1037700076A447B58AD7B75ACA06ECCA5E0DA0012F
:10378000B3B0FB5F6C66663A06CDDF521A2188BB88
:10379000ABBFF45E66B9FF06DC402026B31834E9FF
:1037A000B830BC6BD74462D565FBFF0355E502B763
:1037B000255A62B2EEB3220CFBEFFCB0DD66BDFF12
:1037C000600B383F57B604F70082415E98CBFA048D
:1037D000AB45460B7D18939621EFCBB225ACAF736A
:1037E000F8416EE5F1FF08E26D5690B0BC0A1AB9D7
:1037F000300CAD80E83A38F8A7EECDFE196761A32A
:10380000DF12C4B484EBB25EFDA736710DAB223F6C
:10381000F8137EADFF81512B1EF75280F03B349F91
:1038200076921FF522443BEB300A984BFCD0C5F052
:10383000BD1EC00278A7373005F08BBC095719B2FE
:10384000328D940ADE81FC97290FF2011404D3BC57
:1038500006E0D7F30F1E8C78030FE0C1013CD19036
:10386000F8D8FD644606BFCCB3C43FEC1671CCEA71
:103870003129FD99281BD3E98FEB11184E2F300DFC
:10388000E5F9718CEBB3A255B341ABD380026DFD6A
:10389000E66A80E40FD7DA85016EF011E3B34CBD20
:1038A000E97944D70C8132FDE0FDA995D6D0B894D2
:1038B000031701A1BC123FCB98F7FA10BDEF8AFAAB
:1038C000EA3ACEC3547780BD1E8401AE5FD5E69838
:1038D000A54DE76B25BAB866E419E29603A967ED32
:1038E0003280778651DDEBD1FC17D46638EE2DB6E9
:1038F000BDCFD2981C8366FC40AD152D9C5B6D83BB
:103900007A9834D4F8D5096EEE74FB3CF7986D764E
:1039100098C0FE42BC28C69426101915E483546949
:10392000BEB6B0F82057B345645E986A8CB644F3CF
:103930000057569653EFB91210DDE67686FEEE1468
:10394000BC98D3948A0CB86A1A5AF216857CF9E2AC
:10395000F98049A7E2B31803086A7646F39AAF05DF
:10396000A7FEED0E70FB31139FF81F761ADE89DB80
:10397000111825E020C01D2CE99804A65FEDA5498B
:10398000ACF979DFDA0259C8B579F698F440CBE79B
:10399000308612CA1A14EFFD3505820DE181DE98DA
:1039A00045D8E4A505BF3CC998F310D303E4F6E07D
:1039B000FE46139D4401B79B98F27D80BCE1806672
:1039C0004ACAB752A9062F84C9F2985B1B3079E521
:1039D000177CF551A9FB97C274DEEDED22614DDC39
:1039E000F7E31071CF79D71EEF2636B788BE98451A
:1039F000C0D69E4BB34C88A411E0FBADD07DEA50FD
:103A00002280400BAF1130BCFD845C5DBF34FD32C1
:103A1000EEC3BADAC7FDC453A8BB2044FE98A21A6D
:103A20001DEAF0FBCC5E71301005A08EF970F82B0A
:103A30006E4B6483335FB719CBC8FD953EEEC9C3A7
:103A400088FE1E5C596DB304BEECF1BBB36DC23091
:103A5000394F4CF9A0F8607AA080FE3F30AB442289
:103A6000C8BD19E25FFF4F53AEC9E789A708D54526
:103A700019BABBBBAD64CBB38D8CF83019E64CF9E9
:103A8000F92438B02FF098B60CB97BB5142F91D328
:103A9000B205A12AF9E9ABE984D547FD1186BB0639
:103AA0009114DDF3B990614C30FD345B73300884C0
:103AB000CC090119FF2931C17B930960D7082CB8C3
:103AC0003A1040C01758F9B7AF7D852AD8A3CECF9A
:103AD000BED7119AFB37091907D4B504EDBD09C942
:103AE000F211F5E90104900D48BFFEDF98B0401EC9
:103AF000C80281790F3F8E3C8007F220A11E86F319
:103B000087683DB988B3CADD233EEF864614CA1FD5
:103B100028D3496EC9166D9B07047830ECCAC80BD0
:103B2000E66BE7FE88EFACE07D1761E50EAF1B2387
:103B3000F5877A9822F134F5AF8ABF6FD69808E6F8
:103B4000E0BC307FD6CC8BFCFABB64243BED12602A
:103B5000C6B37EC2D5B30137F304ADB04A53C92A08
:103B6000B3111DCDB31510DFCC469FFC30C70A81C1
:103B70005C37A2F8AA68F92840A1D3923046F9D759
:103B80008830F39FE4C6ABCABB414EC754FFEAFE80
:103B90001330D3A2404DC50D04AFC8AB58DF14415C
:103BA000A004818520FB6F9449C266E5C8A2B37268
:103BB000064B11E7B3507FAA37B340FEEC101D024D
:103BC00095970E07EA5E6BC56AFFEE413010E33051
:103BD000BC06CB5AB303F75446C0DCCB5053FB753D
:103BE0004EAA9B406F97CCEFFDECE6D0BE989E0CA2
:103BF000ACFE8809EFED8C0402F7BC26B7023F1932
:103C0000FE87560DEB14802A7B5D3CB6F9F930C077
:103C1000494F92F0968CD0A5CDE39801913AF922C4
:103C2000F85D0702C03036436086E5BD183BD3819E
:103C300005FBB162EEA05F9072B3577BBA39EE0D0F
:103C400030821305615C106BBA2758FC3221FFF5F6
:103C5000103002E2FBE001803DEE7630C803789F31
:103C6000D9B4072CB4ACF5D79D05B4110ACABE4D22
:103C7000B38FB01FEDE998068343E0FC3CB608CF54
:103C8000C803E2813EF3D8F80440FFDBBE18FEDC37
:103C900002D5190CB580FB29B9300272A8B0D7261D
:103CA000C8131000ECCF199819409CAF9B5798B0DF
:103CB0002D8C48C8B309C927B3FD0E404A7FF9C40B
:103CC000032013D86DCA3023F48A10DB5C207A9865
:103CD00080EDE2E950FEE308343B845D2C168B193D
:103CE00042D566089BF540DEA68C77CB32800F79F3
:103CF00063BF53BBEDAFA407980AD0430356EEE46D
:103D000034113FD59903A241F1CDB8FDF731E45309
:103D1000C96678E5B466FC32481D4BC0CF5E0737F4
:103D200013FB00BF66CD987BB1306465C8FDB197C9
:103D3000FD817898D6B3805BF5E55F3646200EB9F5
:103D400078F7CE18DB0D7FA86937CD1BFFCD2CFE91
:103D500098C80403DA8DFC988FA3F69820FBD39CB7
:103D600030849844DAC0016D8DAE6D0B0D73BE5E6C
:103D7000EEB3EA22789F49F737FF3D9110092E9E56
:103D80008156644CADAF22BBC248E79005066FFA7E
:103D900084D74910F0B98840A80334FF340E6DDF92
:103DA000224050B30A3A0380217FF87FCF4BCE9157
:103DB00008194386E811BF8870E3909AE6C8019E0F
:103DC0007F3108D0FCD322C8FB1EC0837888330320
:103DD0008FACCDE864A3AA8E1ADC823AF8F3532F95
:103DE0000B3DD31C69E598FA7F0BF59810B677C8A0
:103DF0000BE42FB9FCD242C921C36DD263DBCB5790
:103E0000FF0E9F0ED454C1AF8035F73FF34FAFD3B1
:103E1000A24EA5649C407B98A0205D64F7104903E6
:103E200060FDD3A9AD75A47965A2A421F6EC01C407
:103E30006B0F888930E840A00469695C016CB3E7C6
:103E4000080189B3A8FD37AB9417E0771768049E83
:103E500019B420F3F74D2088BEF6B27DA23003E7F7
:103E6000E7DD4BFF29C3DC54385648100B2D1BB837
:103E700030FF2E156552D8F8DB7938A27310C92DA2
:103E800023DA890477FED6C4E9215091EE84E5DD7A
:103E90000AFF8DE6917FDAF53ABEE0F940263CF361
:103EA00018C459C05E4B9478B3B573CBF877E9A2C8
:103EB000BE03AB8EF7DD5BFF44231140BF34540CCF
:103EC0006C6FE798F33EF0FB4AAB1152F258731255
:103ED000D39630018B194CC93BB344DC48114CF5E7
:103EE00086DD46FFD519A5AAB8985088F959245BF4
:103EF0005A3EF31AFD8049ED0DAF415D441195FC2A
:103F0000321024BDE1F4FCEBA4FAA3E97519DBE758
:103F1000DF8849BD16025A82AE102F2F394BCE983A
:103F20004E79114C902F3204B8FBF8E0010C08BD1B
:103F300098D0B283F83070D00B621FFF90B04F481A
:103F40000BD31002B30D421AE84DD3E03005D3D79E
:103F50007820E06B3CB6E5300FFE51BFF8944AC0C4
:103F600098960356BB506BC175DA68AFCD034A2AE9
:103F700002C2E9C1ECDA9B06F8F217F564AAF30C69
:103F8000EE577D518098BB40A017C103BD24BB16DE
:103F90006AACAF2CB869662AEAA9FBDAD502849E1E
:103FA0009B06802893C061E2106730B3D8F918D916
:103FB000FF3EB39403C410019EB6E2AB40FFC71BA3
:103FC000D3F8FFB225EFBF24ED6C96F340A7F3FFC3
:103FD0007680449422EDB387EAEEB62831E036D3FA
:103FE000D0FEDDA80262AF90980A5562BB01DD6D7C
:103FF000EF28EE8E3B6668FC241A3F93FDEC57AC2D
:1040000037CFF8E4EE946EB120B6D302FD231C2620
:1040100092B3A04CFE7AC9EACFB8763CF9BEB43070
:10402000CC3FDB3B1C88FA8CE2AEA39CF331D594E9
:10403000EE2BC80976F8E20FD8D9AD2DE0720ECC80
:1040400074A840FE08C279EAA928E2E29723607DBD
:104050001014AD487FAC5879D8946FBC106A8F7B30
:104060006DF399FD1D06080241897DF99C0D639F42
:10407000CCB480F3C55F37E431CD93FF646501B301
:10408000F7FFA2FD67A0D38430C4FFF577D091E697
:104090002B2FED8F24A0A75BF38765B802F41B29B3
:1040A000D8017A2EFBC656924077DACEB5EF801251
:1040B000C66D6A0580EF5A29FA19E106E93E57B242
:1040C000024059BCFC5A9A7C8C3BFEF8225859C1DC
:1040D000C39A33794D8A3644B0FF23F6B7FC306774
:1040E0008BFF3DD57A08A617E1DC119BAA7EF8F379
:1040F000DD7121D447FDA6AB10DA40204CFFB8B9E2
:10410000B356FD5172CA1BF3064E73EFD0FD022861
:10411000F308CBA5708A0C2DD43D29409D02F515DE
:10412000289CB3AD858DFC80D65418D080B69AF308
:10413000CF144A6603FE76A905FCFE4FDA0C77B26F
:1041400016907F67AE026A09E0B35393B3B0E904F7
:10415000D71021DC434CB52D1967771CC61A4826A9
:1041600098F9D836DBA59A508FEE8410CFFD590808
:10417000EB6FE83FABFEF7D52097D3598FFED87F82
:104180005B000BB6D840E00DBB0FD0B1F9AEB0DF8D
:10419000A4E451EEADBF97E55904FC0B2CF3292F95
:1041A000FF377BD3FC15FDD480B1A88E1E6506B108
:1041B00070DD3342CCCC5484FFECCA90FC408BC7FA
:1041C0008B196CEE5196C0461930176167DF63F7A3
:1041D0007F71518666AD21B69633E6FE7698FCF681
:1041E000ED2A903C98C756CB01A6393441D701023D
:1041F00098E5662FB340D4B524A0CA58F87F30FEA6
:10420000B3CF63315A1FECEBC8FD50CEC2C59F80BF
:10421000AA9CFCC4C89BEBC3160398FFC63DBC0216
:104220006173B338FF62BEFF6193AED8FD649B0734
:10423000851F67B61040011176E8FBC8F973B261BB
:10424000EBFFD0FBB720CBBC3FEC5CFF31F1E5B21C
:10425000FC8EEEFA015AE4ACA7087FFC0CC0FB40D0
:104260007689EA86FC0E02D34DAC3F6D125B846802
:104270000079CCFAE981600C657547EBE0066D1BAF
:10428000FDF9FD0FBBB1016BE41BA4CBD8FCF253CD
:104290006575DE08B2DA04C2B19FD2DA80FE18A8D2
:1042A000DF1880FEAD9D083FF848B8FD6AC7FA29BF
:1042B000598BBE37671ECA72E854FA0A7CD0F41BC9
:1042C0007770021040198C742D47AF734025CEAD26
:1042D00008BFF7E5D0FC1EBF80BC82B651E2A5EB5B
:1042E000820113E0B3F7808D8D1008A7EF1A842F99
:1042F000D44D5821E4CCDFCC81302430FB433A123A
:1043000010012DDC66EE94B451330E19828D8F8D21
:104310003C982780A5CF707001D8600CDB6C4CC036
:1043200034A0AC5CB802281DA120B0266644E1018F
:1043300072C982A0A20278C28086C01046F5487B6E
:10434000F50121583D66605EA8A580AB0121668815
:10435000E52050B92035810890043004B7FFF020E3
:104360006DBE3ABC4BC5F42E5EE40179D4B7B9AD4D
:10437000044240E9437896FC6772948048FFDAC9AA
:10438000E3022CDC4F657F29C2E86682A9329E8E4B
:10439000040860FDC77A42DFEDD04CCE6FB918FD3E
:1043A00002D066AC3201DD8889E3BB35B780673364
:1043B000AA0240EC48B1FEB1946F6CAB1D8E76E35F
:1043C00002E60551F8D7ACD957DB24046055E71055
:1043D000843B33F6F8FE22408AE10431BB8DD8DFFE
:1043E00040FE9715ECF21831CB2E17F6C890FFC49B
:1043F0000C016B9BDD01201235AFEE5850F8DD58F3
:10440000026CD06ADCB304D6A040728B10F3EA765B
:10441000E4F0FDD7D58510E65BC6B37A3B80D5EDD9
:10442000016671039FDB94F910FD61828F793CBABC
:10443000B124F3FA7D692148FAF44465F20384DC7F
:10444000115816C7D9AFFB284D18D0F9AAF6216C20
:10445000E40273ED4AFAE7B44AC5371C38E7FBA01B
:1044600001F72650BB44969211FF54C04043D781B8
:10447000219957E21A3BD1EB03A501F309EF819A89
:104480006021090385809D81F618FDAA8A18C47CE5
:104490001D5804BAFF03DCF65EC666D3880166FACF
:1044A000E09981CB07F6B91EEA0A2DA0736403AE2A
:1044B00010B1B62D17621E9C99B36AD343C6D60FAE
:1044C000D3E001EFFDA09805FB2616888DA080059E
:1044D000ABCC9208625E1D7E9EDEE07AB311F7F4EB
:1044E00098020BF7620A01802FB3FB1A1B29806523
:1044F000A00C06D3AFFF99A160222090011D887EF9
:1045000097B0E3FA33CB29DB57440A99B3A8F96093
:10451000FC0D9007318006C628789609F3C81970FB
:104520000286CF1EB490403C08F3E09B7FE04047FA
:1045300019D002792EA36BD3D0FE546310205F7F75
:10454000B26075F781A3604A1023B3D327ADE8BBEF
:10455000D4832FFB616620FF6F49B02206895AACD5
:1045600009B3D71260D4846AD3DA302BAB25158512
:1045700000B39DEF2110201360DC4204B3DA70FE1B
:10458000FEA8589FD32201A011064752BBC60221A4
:10459000A247B340462ADDFF31EFD2919510B822F1
:1045A000ED39F5457FAD8B41779B108069FFDA27A8
:1045B000CCF5640B19CA5546C0A1A0B3394EEEEE36
:1045C0002AFE0D7BF77715EE861222062C2683C372
:1045D0005AFBD18280B91EFA0AACE0B4725BB31800
:1045E000F7871E66EFBBFF0976B3DD2EC4DA22B76C
:1045F00083FACC65D60360C6EBACFF53CC5F46981C
:10460000296A66ED0810405E7A12666FDEE7F5C231
:104610007635AE72BC844A3D13CBB32154C612BD6D
:10462000EAE98280F8D00757A1ACCF06ADB60BCF30
:10463000271E6778BDFF0257CBBC06E14FF77F0905
:104640002001F192A3F312021DED666AF9A7F40F9F
:1046500080069DFC4009E0810C2097F3B77BD003D6
:104660006469CFD79C07E81E7BA18474C001607F7A
:10467000B29816C085BC98D1B406EDC00118338538
:10468000C882F8D477F524801A3DAD6620865AEFAB
:1046900069F1AB83B7B4F29832DB7C788FF86C6643
:1046A000CBF89EECE144048F76B8600140FCB88101
:1046B00032147AF8390502E5B3DD8B2304DA726A25
:1046C00019E8436084F1D76E96531C58561209FBC3
:1046D000A01036A206FD98680F21220234E7B0FE32
:1046E0006732BF44FE972239EE2497B7062EC70BD8
:1046F000ED2805A71C3075BF81377BFF0E5AB3200C
:1047000018D7737930F380B84066DFBEC4BCEE3290
:1047100067E5475210B3DFBFE08C309F5BE5100DBB
:1047200025B340C30BCA1EBB808B30861FD3F0F766
:1047300019200484BD01B3BEEEEE36DD7DC44266B1
:104740003DBB417EA907FE38F7FBD1B31C44D3C65D
:104750007209FDFFBB97ED35393036F6120690220F
:104760009DDA9780B33E7696FEA2DD01E7736E7107
:10477000BB5ED12D93B930A068B3D11A0286A6A52D
:10478000FCFFC07690C0BD390B5C30338732BB482C
:10479000BF28C03F0C2BFF9EB6F7FF1675133FA234
:1047A000562DEF821130EE011002322A743897AC88
:1047B00044B56650FED3BE7DF12690467A19B0CD41
:1047C000012C90F0A7E6F603433DED7D9F860A138A
:1047D0001624CFB307290EF2D6413CDAC1F230607D
:1047E000D7AB916FF61BA355FE7E9424C319D74116
:1047F00020440F6BE7B5F9112D27127BDB29011837
:1048000006A66FF50A50F6F906DEC1C1B35FA2A095
:1048100009CC65C1008904EDDA302179F9046D9283
:1048200013B3C474E9B67F23D2B3FF06BE7FB3C807
:104830004006281E0D200604925FE2EA9802CBC8CB
:10484000DFDDAEBAC13B1172CB631EEB28D3DD5660
:104850001A400A7DC7023F72F30177D304813632D2
:1048600064FC86A1764BC8937EFBB1B4BB41A39890
:1048700035546676EEFC9DB501396AF30820D33FC6
:104880009530AAE698BA029F83950F828030D108AE
:104890000636FB3C5D2A73F658BADC53EBF8F3415D
:1048A0007618FED30C4671AEB380410CD736C87073
:1048B000BAFC8CF9D3E6F3E02360C1217B0520022A
:1048C0000645662275A0EFA9BABF4CAF73F80D7606
:1048D000CB06FE19C622788B8DFB739B589B08195B
:1048E00012F4FC14FC2B31BB4704EB40086027C3D7
:1048F000F6A140EE86C02243B382C4880973D3B8C0
:10490000FADC57ABEEF313461AEEC030A0029B223E
:10491000B46D1B31127C985D66FDECCAFAFE988A74
:1049200030BD9818FF400264011C8007F07F9D3263
:104930009BC80C9FCB9A1A450B14777FB107020FC7
:10494000E6413CA188C4D377CDB1C638B78B989FD8
:10495000BD8B28DCFA80E311AECC9F6410DAF3C182
:10496000FD7C05C9A2028BDBAEB63D46F569EA982F
:10497000045B6C03E4BBA20D062FDBEB8433FBCDA1
:104980009839F78B03418C0309B0EF2026C0473DCF
:1049900080499902C748DA501412AB4D860189202C
:1049A000B3463859EFEDCC453032C877DD08043DC9
:1049B000ACB0FDA02012119240EC9CC8F434A2EBE4
:1049C0003C421AD9981021D97EBDD86C265076FB6E
:1049D0000EE81A2823E0EFEF7F4A44CBC84DFDF6DE
:1049E0009A40110884FC30CBF0FF80CCE79C9B01FF
:1049F0006618FCE55F0CCC481AA6D3B385DB4C598E
:104A0000DD28BBA1E41959C4769EC5EEBB08F2555A
:104A1000F8CED7B28E83AF57C1D7ACDE7FB347FD98
:104A2000BE39AEA7546608E766113ABB9748EDB7A2
:104A3000830883F998EDB31C107A4B0AFF7634FB98
:104A40008491A99B03D19F01D634C106C87BB321B1
:104A500040BF028748B3A61AB9676645EB1106BB8B
:104A6000E2EDB9CA017EEF960942B31ADA0B446748
:104A7000B1D8F9D38451EDC2184E9201448CEE5056
:104A80003026E615E89880F731BE8FAA961497096C
:104A9000E76610DA7BCD8409ED26059B7E57C805B5
:104AA000727FA29841BC6606FD605FF4E5A5E098C0
:104AB000F00F643A2CA007F38BFD98C2DC012CDECA
:104AC000E58EDE14F3C0B37C4A07E04186EDDB2FB0
:104AD000C8F15EA6C41ED0EF384008FF12FE8881E0
:104AE000779C7B4A01DD874A3AC122F61E57D610D1
:104AF0009295EB145F96CA288A17ED4BFD8C97C5EB
:104B000030F792AB66E06D4953B30B520C5EADE5E6
:104B10002226C0C9FAF0E58201208701F78654D326
:104B2000F23E2AB389EDB3981693E48229169E9833
:104B3000F70B608104B566F8A0C430A19158EB175B
:104B400013308016105C50D30368C0101477BD6416
:104B5000A8EFD4FEA0B475F57FF4D14ADF5062F718
:104B60007FBEE98A44086C02FF6F9894F914A22270
:104B700046B5023F484B752B30EE46DF9DA26E5482
:104B8000AFEF9E264B572ADFE377C2E03F2DC8F8F0
:104B900003BC0EED16FCB3F9C833AE0CE031FE10C9
:104BA0000721001C0803FE002DE6DD7AE65EB3CE89
:104BB000EB042A998F30EA34CB3E7CA2C886E330DE
:104BC000DC6EFB0850EF9D4601CEC8048CB4352C3A
:104BD00010D2849A6608D95A3EF7EFE1EE807FAC96
:104BE000103696D91DBAA4B21333C858FB20226AD6
:104BF0001104D2ABFFBDBE15B3C8119E0BC6800217
:104C000010272220C132E004A50780820515CEB30B
:104C1000BAEEF4F7B353213A81BD4999B06908E07F
:104C20002CB78CCDC8406901A36609FD2D10B3C80F
:104C30001AFA400FE0013CF08BB51ED561CE3081F1
:104C40000C88EF634B0EE05C4088E90AB00BE0088B
:104C5000AE07DEBEC80878B4EB76C4018F305EEFD5
:104C6000FC5F7E9E1540BF018E30E5860CDEAB2ECC
:104C7000EFEBF25F5FE5B0D53AE4E5966BF752EB08
:104C8000AF01201DE9667B19AF20DF5EC0FD3F4408
:104C90004C6F691220716932C18C90BEBAA69AC35A
:104CA0002480259AFD12B9B319290EB3010B42B81D
:104CB00008FF6B4BA001DDFD10025803045D17FED9
:104CC000352216D8001A48EF77980210B067DBCE6D
:104CD000FFE9A7FA41F843E5AC1322D729AC14FC4D
:104CE00003472812247A1A7AE348048940B922BF7C
:104CF000FEC5D2BADDDE15B18610F425C6F23076D7
:104D0000FD42BE25FE41CE463712BB8FD6EBB655CF
:104D10001901A1197EEC04EEDF87789E7B054180A6
:104D2000BD9818278EBD3890C007E0EB1E8403287D
:104D30007BF3EFFBC3C6BAB6EE9F1923331B7B8010
:104D4000CA81089000C05CE0867BB11E084ED30A81
:104D5000C001BB74F845A8A5BAE6988896349F06AA
:104D6000D04412409253C1925FF3FE52AB2CEEE757
:104D70007D4B663682E6FF19AFD342C042A1508B0D
:104D800046A657F30439195F0892FB83F9EE052311
:104D90000BC7600CC702301710C2F2284804A3E901
:104DA000BA84FDFDF6E8AA17FE0BDFCC85872EE559
:104DB000118530562B59092FC45C84167D5AB1AF2A
:104DC0000AF5DF1178FAF2E34BB93DD00F7A00997A
:104DD0000FF32C9D95F046C82310BDC8010DFB496B
:104DE000EF3A143EFFD92A0A0280E0BD983077AB33
:104DF0007879F54340B7F670301D3840031907F055
:104E0000F94748E9641F53CD3010066D97ED3384A0
:104E100001AEADCC967BBC0B4B71304E2350D7D737
:104E20001C06EAB560F1669FB9FE19102D5658B3FD
:104E300010811E26C02290079360249628E0A9BB0B
:104E400017E77ECE95B38821E7B30299085D097F05
:104E50000A7DB3CFEF08028215CCB3A8F958486495
:104E6000C00A282464A9205F168A46C8C108989FF2
:104E70008BD181011030BB42BDDB3B94FACFA90539
:104E8000D10AFF97A0DD72308A0D1308A0C0EE7F13
:104E9000639A600828210C203D4C2238FFE736F148
:104EA0003DFAE246ADF9BB948093E7EF56AA97EF3F
:104EB0001785DD0B94FFF1DB78D336FC30A1184366
:104EC000A5149BB3FEFEBD620705FAAF764FC8710D
:104ED00007E120EB1C8483357B68EA9802F775BBF9
:104EE000B5EEDC0701B3CB5AFF97FC98BF4D1077A6
:104EF0001E3079BB1ED33E0F273C3BA9FC08B21BDA
:104F0000DF7F9C0530802410E204824068604460AA
:104F1000FF7D98689BDBDE10EF6647FF8801BD05CB
:104F200073515DB17F1D30AFEF0812608070196C56
:104F300048FC0B21B7CB18454BEC980881FE2F227B
:104F400001284004A00F448088DD1101C9CAEE6623
:104F5000DCEF1066C0CD1A9D08CD02160E825F6090
:104F600022D38530EE763B04370C80513BA728FBDB
:104F7000F502F15DA1CC027853E00E2C8807FF11F9
:104F800098F3574ADE14FE7F1B8605103FAB0508D9
:104F9000030F6801853D07AE023B3DCE98F45E07E6
:104FA00015EF980158100E2BD3F51EFBE7B2F50351
:104FB000DD6728A05304C1ED3904033C98B4AF5217
:104FC000F0AE50ED260DF68841D7857DC79393C886
:104FD0002C107EBBE520FCA060B30E78B381300AB4
:104FE00014293E90D160824F10BEFDBF9E62DBBC93
:104FF000A0F6B39820DF759902EC980B6457B1B313
:10500000C8F918DAFF049DBFDF83DC6473F69DAA3C
:10501000417738D3DE14FE85AE1039DB5020669020
:10502000F3DEFA25DF81DC1161F8C2AAECFF286DFE
:10503000D3A096F83238913EB3DDD7FC01E7B36BCD
:10504000295F638DD620FE8E1E93B3DCB1DFB3FBE8
:1050500046C71475201B6CD35BF8A2A5DBF072FF6A
:105060005EC089F7F798DFF7DDB5668FB9F7CCEE4C
:105070002C508FD52D75B5D4676B0484A731FB46B2
:10508000AD264CB640CF039C7FB0B91DF822ED0A87
:1050900058073E988FAF35925BA54034AFF8FA556C
:1050A0005F095E2C4450482DED8D4849D594B26B74
:1050B000C97519FB7928A1F2C6F3C6B08D0E23FB82
:1050C000A2F8086BBE2069EDF3827FDEF986671EC9
:1050D0004CCB79C311D391AAA441D98490B7FD32A6
:1050E000D83C2DCF590D10C4E66C6C61408D5AB67A
:1050F000F160F937E64E3CFF663676F8FB79EA9EBA
:10510000B209B078079DDF96D261CCB2DED85919CA
:10511000A64549129EE5B34016DE01725FFBD8C575
:10512000C2752D029E8279C4BFCB7F8D2C1DC7CB4B
:10513000A2EC3DB51908AAF7FA8F534BB344DDFE34
:10514000DF11FD718A8CFE94106FC3421793F4E552
:105150008BEA10026D9D88FE8B7BCDC410B8821D3A
:10516000E489F35E8E6209B609C6B4820036CC5279
:10517000044019FE1848DD901E88741A50FBC008C0
:10518000909916E550CB35E92AD6C77AB30566E083
:10519000348CC894F5017A69D9DE50F5182F406136
:1051A0001018B4FCFCFB016D42620FE3BE610414F5
:1051B000A1106E9DFD0FCC88A2E6049CB3D72344BA
:1051C000FDFE18401481DF9FDA2104376B86208DA5
:1051D00057CBFC9E356FFB078019F5318195EBDAD3
:1051E0008056BC98FADBEB4388BD4EEFA1D1F89B0B
:1051F000007799FBDCB57FED942043BCB63589FE82
:105200004EB8FBD440F3132CC996CA083BEB94402C
:1052100020B3E60E30F9CEF308CFE833A57C10C9F1
:1052200006C0C4FC3B06A0FE58A8A1839FD6B67951
:10523000B39E9BD890FA91829A8B63069063A6C81E
:10524000FC6346D810A8BC0443BC10F6F478FBFFFE
:10525000B1E13521028BAC0A0251A028B6FC5BB546
:10526000040D90D6208BEDE5197D46D36BA6D8FAB8
:1052700063423C98C6B6A7CFDC6EF87BA028E6B4A4
:1052800068C4FAF3C50DBAD68F029B94BBC88C30A4
:105290002DDB15176CA6B8FF404EB2C1C24DD985A3
:1052A00004BFE9CB85FAF7098C75FDD9CC20BFA8DE
:1052B000D858FACED8135CE6D8B8FD8A4801F38FE7
:1052C00017E37DF215F5D51299DB29A028B3FCB2BE
:1052D000114C3B2E16FFB33844B58458F84244B302
:1052E000B258CC66734C147FFB2C50FF33ED608CAE
:1052F00060FE30C889B3E8B1FD8E59AE01FDB2B190
:10530000012CDBB020B6EBC8F899FDD63004B40D03
:105310001802F3EB0C0120AFE35BB840655697D958
:105320009101F040F79B8F894280104011CDE6F843
:10533000FF1BD41E3BBEB628FAFF31F2414A286259
:10534000AD0420FB9822B2208D2BF4F2CA32DC96F9
:10535000160852CD803E08FAD854D9981062DC83E2
:1053600063DF093B8690F817EAD731A1DFB7425ACD
:10537000F3803BB068F82270572C94D70276C78F21
:10538000658B97E519983F08EE23E2FB743E08CC45
:10539000EA04F4FD8E8009FC47F1A86B40AF52AAE5
:1053A000DD0960EC82EC1108B57A20A1A4E1BF17F9
:1053B000DC0CB321DBDA40A0718066FE60CA3007E6
:1053C000841508CC5080F928015DD9219402020B84
:1053D0000E03A80EA528D3EC05A65E95B50FE084B4
:1053E0000A021871BD0C288C5834E4E940507C3214
:1053F000B545D180FBE6229060726413409F67D070
:1054000004FFC038811060FE40A0802301F455CD18
:10541000F23860DD5011787C8310C01908888C0E3A
:105420008A9EEE4828232D0C892C0218DB5CFDFE99
:10543000D002E336CD510F76F36234B3DDF0807FD6
:105440008A14C1090D8047EFB2C428FBF68F135AA6
:10545000E5087B1D04108C2043DF77CBF1F813F5B2
:10546000F820E2D283D89382F6BD6EFAB31094820C
:1054700010E679DD9BE74C994B46AB7EE539DC665F
:105480008AEE19C00514B9CCEB00201FE66650FC6B
:10549000DC8351D9CF9DADD01030AABD18D0F8C64D
:1054A000F363882DB38C84735660102FBBCA083BFE
:1054B0008D30CC20590B4066ACC50349D328B4F8D5
:1054C0005BD0026889B1F2FDB6A432DA7F5F817BDE
:1054D000F738F96FE6C3677B78288001CCD1F22FCB
:1054E000F1CB04B248BFFE4023B1B459AAFCBA2E96
:1054F000B2110C81852B429DFBC80213DE1628FDDC
:10550000C5F473BA3EC24D3752DD62D88C6915A915
:1055100072AEB64F0810626A20C8F8623602AB4815
:10552000A87F37E5EB5E2018C67DE140627E98B12A
:10553000FE556E60A1BD97D6FB2DDDB40120A39969
:1055400024FCDFA001AF754A440368A602D91411F8
:105550001CC009192BEC6022494BDF8989B0C004BB
:1055600050096B272841085A0941EED0D71A40A7A5
:10557000E72C953402DF08FBE3FDDA180B036040EB
:10558000741FD56ADBC46113E9ECD3BB30602E23F2
:10559000E07E3F55B3970CFD30ED10B0FF7FFC0E61
:1055A000E8C4037823E4F4F00906B09678E023FE1B
:1055B00041E0013C53B3C00403062029B46C863596
:1055C000FF0FED4D1068FCCA4C261001946651A0E7
:1055D000972246FCCCB1461719A001340246264456
:1055E000981E2221B65723FDE998E808230466781F
:1055F0001901C8FA1788FE4F585C6339AE31A6B955
:1056000094100B062140C4BB058476E2B782BBDB55
:10561000394C085CD07C01BE24F4EF02F8FEFC4B50
:10562000B0CD26C4262032392C08639819031A36C7
:105630000727F91C0C63388F1EC87E18200E60E502
:1056400081F02FF302EF073C20C8BFFEF07FC0922D
:10565000F020FFBC9F9149F3D646628AFF060B4EAD
:10566000019702A9A7C6403810836BED7AE0F8A134
:10567000B33B5B83400880B33FA65EB30459EE9E04
:1056800054EF04081542F814C088185FF9BF0C9A4B
:10569000D48048F3F84FF2B00858FF49E7D0421AD7
:1056A0004068A0853426B49459C3293F327EFF90C8
:1056B000C415CD3801B0CF10069B124411DB642213
:1056C0007A2A4ABF7B0C918D848D17F8A8D1DAA075
:1056D000013BC92006407E3752E1257A4F4567D508
:1056E000FF86AF80B4AFFBC22FAF8939DF1981735A
:1056F00019401E6BE97330C5B340BBC1117F7FC039
:1057000007775DEF8440C03C80438606784B1E419E
:1057100023D74B0F3DC6C8FB8409FD99DE420466C2
:10572000334484A6147AF64CDFB628699F6CFC7764
:10573000B7EF80053054668B5813A569CB09A2B327
:10574000117A59220C04F75E7BFD84B401E6BA217C
:1057500022DBF19204DA1BA9F2BF51F7FA8E477CE3
:10576000BBCF77D710F06FB23F97444104F5DFC944
:10577000F8F8B9705D06C001EC652C900D3020A1E1
:10578000769BCF904A84F40DD760408FEFC70EC050
:10579000029B1AEBE04DE9061604560F5F813BF5BC
:1057A000FD0856D10402D966C22F0BEB4434B36511
:1057B000D7343EA18EB79AF28EF3191004E635BBAA
:1057C000FCD3D9981040187BE53041B510DDC648B0
:1057D0001B99E9CEFB9E9B19C2055E5D2FA3F6E4E3
:1057E00080F36720B302285FCC07E8FB7FA2989084
:1057F0002E5F5D68AE70812411D3DB51092173B334
:10580000DFEF0E2319662403B090D720506460099F
:105810000F2B28931C1001409703E1FB9808FB64B1
:105820000B36E02B6C5CFD4D825CB3771A46FE882C
:1058300062D7A9A49910B503FDEC58AF42B17F0B14
:105840003DFFFB1A2069C610BEB877A9F612FA4DC3
:10585000C6771BAE84683006409094D303E01707E8
:10586000C02296DA03FB98D8FEDF8891C130D26659
:1058700014E067FE26C4081833BD9888B605E3D443
:10588000DF73416F51FF80163405141AD57998657E
:105890009C0C7CD353DDF88CCB93CA5DFB4902583A
:1058A00004134ED75140DEDE289680BDEB66089F7C
:1058B000B3E70BFF09049B80B301B5D4040A2CD0D5
:1058C000E077F309208E0541C8FCD3DF98401EC065
:1058D000837873F51C80CB03F1F3FBC1E8B781FC3F
:1058E000CC0A073FEF090FE0810CA0E903B0803636
:1058F00018D0400EE0C076F299161902195B933069
:1059000005F89B6E3603F4A910B646E9445F66E6D7
:10591000DB0994FE017547F07D8C95C7DDADBA2992
:10592000541928B3DD4021BF8C1080C024BF18ADAE
:105930009D0FE65E9E013034928AF7B986EE93772A
:10594000EE5F517C790819052202BBC07ACE60FE59
:10595000F098DC209082F9F4A160042C685ACFF50D
:10596000C8449820D94421E06EB3BB07F8EDABE002
:10597000DC8009350D16021754BB58808881DB3650
:105980000241BD98244D63D0FDEBEF42BBE460A320
:1059900020464FB25FF850E3B7BB1E77CA60BB53D7
:1059A000E310D2EE6190D946086A0C312CFFA54174
:1059B00050DC3D0383187F8AD2F3D2DC16E6E06622
:1059C000C098FD2977A9FBC5017130FCFA9B7AFDCF
:1059D000C088B38605837998D961DAA0FA7A4B0436
:1059E00077B01008E668C1B3C81A776D2928F87D2A
:1059F000D3BD5B5D77A66F1C30C2BD0655685EBA2D
:105A000068B3EB510823C76B0C2009EB9AFD807C2F
:105A100029160244AF66DF5A20F0D9DFCDEB4208E9
:105A200090667B195967FC2BCF1184100267FAA28C
:105A3000013D2CA7CDACF021FE98C144A002FB5142
:105A4000F6463737400296BC5FE8B319F3072DA23C
:105A5000D4FF647BF9448DA20D6AD328E0BB571EA6
:105A6000B798608064C8BFF8DC98E4011C3D70FD05
:105A7000A75F71B6939B9F6BA61D865A5E6E2A2206
:105A8000FB9A4E3BF72DC8BEFBD7D89811101BFFD1
:105A9000808176A0EF0584959CD9010C66DC0125F8
:105AA0004B23CD9A2801BF2DAB0BBD4BC0F5889879
:105AB000080AEE988411307725FBB038D050221AAE
:105AC00055A09788675426C0CF4258926082097FBC
:105AD000DAEE1EB39BE603A823EB04FE7F8A401395
