:100000000C9473B80C9491B80C9491B80C9491B86A
:100010000C9491B80C94B9BC0C9419BD0C9479BD96
:100020000C948CBD0C9491B80C940DBC0C9491B8AC
:100030000C9491B80C9491B80C9491B80C9491B81C
:100040000C9491B80C9491B80C9491B80C9491B80C
:100050000C9491B80C9491B80C9491B80C9491B8FC
:100060000C9491B80C9491B80C9491B80C9491B8EC
:100070000C9491B80C9491B80C9491B80C9491B8DC
:100080000C9491B80C9491B80C9491B82AC447C4BC
:1000900051C454C457C45AC45DC464C479C607C7A4
:1000A00085C607C791C607C79DC6C4C69DC6C0C63C
:1000B0007F7F7F7F7F7F7F7F7F7F7F7F7F7F7F7F50
:1000C0007F7F7F7F7F7F7F7F7F7F7F7F7F7F7F7F40
:1000D0007F7F7F7F7F7F7F7F7F7F7F7F7F7F7F7F30
:1000E0007F7F7F7F7F7F7F7F7F7F7F7F7F7F7F7F20
:1000F0007F7F7F7F7F7F7F7F7F7F7F7F7F7F7F7F10
:100100007F7F7F7F7F7F7F7F7F7F7F7F7F7F7F7FFF
:100110007F7F7F7F7F7F7F7F7F7F7F7F7F7F7F7FEF
:100120007F7F7F7F7F7F7F7F7F7F7F7F7F7F7F7FDF
:100130007F7F7F7F7F7F7F7F7F7F7F7F7F7F7F7FCF
:100140007F7F7F7F08277F7F7F7F7F7F7F7F7F7F8E
:100150007F7F7F7F7F7F7F7F7F7F7F7F7F7F7F7FAF
:100160007F7F7F7F017F7F7F7F7F7F7F7F7F7F7F1D
:100170007F7F7F7F7F7F7F7F7F7F7F7F7F7F7F7F8F
:100180007F7F08157F7F072408057F7F7F7F7F7F24
:10019000080D070B07237F7F0713071B7A7F7F7FDD
:1001A0007F7F7F7F071C7F7F7F7F07147F7F7F7F1D
:1001B0007F7F7F7F7F7F7F7F7F7F7F7F7F7F7F7F4F
:1001C0007F7F7F7F7F7F7F7F7F7F070007047F7F29
:1001D0007F7F7F7F077F7F7F7F7F057F047F7F7F9C
:1001E0007F7F7F7F0F7F0E7F067F0D7F0C7F7F7F5E
:1001F0007F7F1F7F177F167F157F1C7F147F7F7F78
:100200007F7F007F277F1E7F257F1D7F247F7F7F4D
:100210007F7F187F207F217F267F227F237F7F7F24
:100220007F7F7F7F107F197F1A7F1B7F137F7F7FE8
:100230007F7F0818117F127F0A7F037F0B7F7F7FEC
:100240007F7F0810081F097F080F027F08197F7F32
:100250007F7F7F7F08027F7F081308117F7F7F7F6A
:10026000070C087F017F080B7F7F08077F7F7F7F58
:100270007F7F08077F7F7F7F7F7F7F7F07037F7F71
:100280007F7F047F7F7F1C7F1B7F7F7F7F7F7F7FC0
:10029000037F08100C7F247F237F137F7A7F7F7F6B
:1002A0007F7F0811147F081908200B7F7F7F7F7FD5
:1002B000FF1F627FE03C00A4B0437FFFC0089001B5
:1002C000324006E3C800197F03050A44188122E77B
:1002D00041068AF32003F267A00C94ECCD1FFFEDDA
:1002E000813350069ECCE728036594E0B9C6E788C1
:1002F0000098D344809F0CB950F80014E1C0025814
:10030000FE0B60012C800418100AF30270F3404CBD
:10031000F305A086E60339B31233E050DBC00228B0
:100320001BC5E0C0CBD33493D316B98884FDC590E8
:10033000FF202C0440B3048008101302B308060108
:10034000F5E01094E4C0E8FE6090FFDE98FF7D7950
:1003500090A885A7FFFA0241204836ACCCF2CF71B5
:10036000238202DCA50A23C116A915D34028FFE782
:100370009D56B8F8063CB3100201441B0C74210AC8
:1003800004394BC9052519406C19CB0210E0C41380
:100390007D4A905AFA038FE3C990C1FB3EF9248944
:1003A0000650151ACABF814F5B11DF4802409A09F7
:1003B000960D33D1FFB8049802B95065C220BD2D07
:1003C000A62E4418F7C64081224CD348FBC09A3071
:1003D0009A0657181A25F008348E07102042FBE6BB
:1003E000C49BFF02808E47253647C0CBEE4247E7CD
:1003F00018F9402691E5F051FA03E275DE98A31052
:1004000003C5D32CB32045B401E8C04004AE68E076
:100410006093BFDB1894D0F2067384F9205FE34742
:10042000578FA24929109149F89AF239EF4C01E20D
:10043000B30294B6288BBCC04442B34FBC42C8043C
:10044000184F6022810288FF301170FA8009100A6B
:10045000CF20A0ED050B028E086109207216C22480
:10046000AA14605B2C124F1951FD26C402E89810A3
:100470000B8648C69366A658270B4281E78C01205D
:100480009AA8FB83E01D3FF9924006C00382182F13
:10049000E4010CE08807F0781E400278BB0F0410DE
:1004A000FE7F60014F66E0201EC05FEBFF0FE8019A
:1004B0003D88043040991EC678F33E0C3C08D0FDC0
:1004C000BC3A4A06164CB66013808E9F50A9F309B9
:1004D000603946B57FA50041FCECE003019CE0D308
:1004E0003008BD15C6203C0C803010673EB31106A5
:1004F00040045931EDFD148C9051300134D39804EF
:10050000B3B18C16198011E4B320CEC013F82C823D
:1005100057B3F4C28418C6178C809C05C668F8EEE1
:10052000CE0489F300FC3AE1CFB4F2481850218799
:1005300076F39004DF326DFD77A1017F3390842B39
:10054000D3F34E41B3A4D38044C6510342F3D664DF
:100550003734B3B6B6F51F200B85FB30C1F3FF7EF1
:10056000D7E206DF08EBA503955981E7C58BD8399B
:10057000D873C8FD69E006977018BAABE20109F2BA
:1005800098F6438310BCB8DCB4FF3F5BC578EA1231
:10059000E04203939F64FD20DC0632C6AF62D201C5
:1005A00080DAFBEF45C6A05FB69413B842BF04B132
:1005B0001901A508D607A1677FCC05065D690B98D0
:1005C00042E12001821FBE060242102BB9A07FA487
:1005D000CA300D9BF977330A065E989D025321407D
:1005E0007C5FCEDEC0A009027D694C8401229FF8A9
:1005F0007F210EF85F07E5620412811D32DEC3E140
:1006000090081361440CCF80E669FBE0C0410C2BDD
:10061000EFD8D283783803621E3C8007F1FF7B98C5
:10062000100FE00110E91750E1A0077124E018391C
:100630000B90AF1C01980E36A3689E98CAE8FB9BEE
:1006400035DBF0980866038F86F398BC7ECF13FFE6
:10065000C3E040EB188482FFC0884130100222A022
:100660000657C667A401E6F1FF4519EA981045B39D
:1006700061F78C840932F96B78989619396F9B98D9
:1006800032930818CD0E240C181A3002DC3E40823A
:10069000C6BF9F4481B0C09DFA9E248A7D37FEC5A7
:1006A00022421526C130355021C130B690847EE9F2
:1006B0009804061233D743FA211F22808D0414E6D2
:1006C000900082CF28BBC6048335F090F892193B86
:1006D000B72DBC7C9D5DE2E6F17818B2E88FD3E3DC
:1006E000977F81FF70AEF83B30C298B8BB8503603E
:1006F0000B3681BD984446DE791979983BBEC0021D
:1007000018B87D960C82BE4BD76281F528F924A3D8
:10071000FE55085FB6E8600A8072FF579811AB98E3
:100720008C4CE4FD9AE301A2DEA70240050122956C
:1007300084C72295C0F8B03ACBC2973BFF79B2DEAE
:100740009805382B0C80113F0246C220583FA46008
:10075000242C8405B321CB6679D02604D33F5E6276
:1007600011841008C8310A5C257406080D3FABA03F
:10077000FEE0011C9077A198C4C179D90FE21C302A
:100780000D897A98A8073CA0075C3DA544E00B7B47
:10079000A58004AEF0AF50EE4E03E0D2AFEAFEFA11
:1007A00095F1988AC96010B6607F2C3010DF5B9895
:1007B0000A17F790B2C39A664640D182F302C0EEA0
:1007C00002D1FD19CFFEFECDAD906862821896FF72
:1007D0000CB8DBC44B19B3F3BB17062E93FCEC1912
:1007E00025A9D64CDB80B165B3081C30B38082519B
:1007F000D3652EF930E71A09201D41041E05BEC538
:10080000161A40BF4A2131DD8459DE98AE099A1785
:10081000E041F66B1101B8DD6F5E14F698240D0906
:10082000C52B812FC8CD4F1890CEDEC280F3DB04DC
:10083000821B19E57279C8925676ED49063E02D3BD
:10084000D883A8FC6E4E4270B38003BBF94271D0CE
:10085000C519E5CAABFC01391981DE0131A4AEC06E
:1008600049AA03B332010A23D0F99FB93AF6E8FF47
:10087000273651085848C01009BF296F94F71960EE
:100880000A08710F9A665BC45C699C447621016218
:10089000CC9BE9A610FD9884D34C24DB33F83AA016
:1008A0003206F9AC83C303618384503BDD4682DEAC
:1008B000B114848045DC19D8F70126C01246CC1843
:1008C00058CB220C88026BB0BD14500F0B40396618
:1008D00084114CACA9DDC83CC530CE6A78100BEF52
:1008E0007FEF07504002C40178E2000D68DB3C2D29
:1008F000B32454F872D39F07CA1E5002580C0CA0A0
:1009000001DDD303C0BAED4A3D6BB85EE577C25A4C
:10091000352E03B0365DEB9840F3C810B1082E2F8A
:10092000300098FF029875358801C930C0D225C6BD
:10093000F3DE5E0F31FD4DC00506DDF29E136988C2
:100940008291BD988079B3674489306224B387C0AF
:100950000219E809640AAAB930409704B21DB3C16C
:100960001627FDEE348677B898082001FE0D0204A4
:1009700085BDB840931A60B4252DDDFAB1DB5AF37A
:1009800031083495C9C8E218477A6B80EF6E9884B5
:100990002168D398FAA0DBD6982056AB6F20C09878
:1009A0003135FFC0E7E1693CBE5EA0F833ACF99B8E
:1009B00038E11006745D08E4984D7AD3182A2F5454
:1009C0003398F3C8842F437D83C00270200373BD26
:1009D00088078E40FE5D3002AEE2A8FC280E24019E
:1009E0000F800818D6421067C821BB11A6838098D3
:1009F0002EE4C8C89D311105E6BCFE8FAF084A98A9
:100A0000A626E728290481CD8811650617B9BC9868
:100A10008105010861785AFF8017307444F900633A
:100A200060828C658E204AE666FC7224CB5441C3FA
:100A30003B913030F90240C180FD820142122C020C
:100A400077B126C0DD2048D0B5F9020430D2ACFE23
:100A5000DFC88890C8D71F3DE598D7A966BB09B8FD
:100A600050DBB6AF62AFB3E2013C90CB077083F9C5
:100A70001020B401CD9B10DC305C6D3ABAF884F2E2
:100A8000B2FD1118647E95B6F3A2EF6F3A17E342F8
:100A90007D12A921B2AB82EE5730C15737D0307CDE
:100AA000BB66EE9FE230F16BDDDAF1FE78984E58CE
:100AB00004237CC08C8091B03A163CE0B3BD980A08
:100AC0006CBB05ABF8050149E008D3FC11621020AE
:100AD000800087D3C80658BE255D17ADA288F97877
:100AE000DFA3D5264180DF2694F31B02E42305CB48
:100AF0004904E933848546D6DCC06BB140EB7D48C0
:100B0000BCD2278402030B2808FE45A0911411547F
:100B1000F8E3D5F8725FC7B0F5DBF03CB3B7D1FFAF
:100B200081C0472690CED0812606B642264C9178C9
:100B3000FD8FE6CAC8F2A5F2CF5BD9017A9844BE10
:100B400042D7F63190A9CD68EA5DAE771230348095
:100B500075F3A001E723E7C8E2415DB18DFF299558
:100B600094EF95C8D6DEB95E1B1418A408F32CEDDB
:100B70005C3011BE7FD85A6BDAA2ABBE9330095AF3
:100B800088C00106882667C611EA228027A90A8B39
:100B9000FE2FF6F498980E0B61829CAF322116BBA3
:100BA000B144A2DA02DA1B377FE38901320A165F09
:100BB0008C8180021E8C41193190889DE013794C04
:100BC0000488F4D779FA2F30A0CEC8037808B1642E
:100BD00057AFC511F198DCECE0813CEE5C7C61E044
:100BE000BB709A301840F398B8D42D0ED9C8D707E7
:100BF000603C0C38FE8041BF6035C803E54EE5B867
:100C0000E66E4785986A21B744FD323066A840FCFD
:100C1000AFC82D9857C2841DE59CC80280EEF931FB
:100C2000FB2533C0190EC05380918DB3FC9876C656
:100C30000908DB516A111E0293E008E0099561BEC4
:100C4000D91722C6BF4427C85C08105CCA59E2E124
:100C5000801250BFB025099392C050EB181A41572B
:100C6000638569A2A921B792FFED014FE0C9430254
:100C7000089C12F305043A06E730500328CC020121
:100C8000E6144DD0FFFE985F8542D9BFE3D0F8DB74
:100C9000CDF5988A91A6A786549C355CCA0DB19B68
:100CA00034FB88F9E137ED72F898AEF6A28E85EB49
:100CB00057BC98D8CBC902F8F5E0407A9818BD988F
:100CC0008159780DCB79229FB3311040F8043960F7
:100CD00008440EB902AB8CBF24C0984250C113091E
:100CE000EC2C8489FDCDE30488A275FED9C8E644C6
:100CF0008188EA1157F31D30B8AA0147AF70FE335F
:100D0000FB30F7A00A187FC060128C089030C840F2
:100D100026B3276762120DBF91A22EB35F4030CC7D
:100D20000216C098F76E42112C041AF5C804081078
:100D3000A1AF970390D7E0F83A4A8804B0E230E2D6
:100D40003DF2D2F4B8910E0EC003B930E0B341FACF
:100D500064E7D307F120FE1EC40238000F24EF49D8
:100D600098F0F356AD39EBF6402495CA80DEF802D0
:100D7000A040FF17F21EF9981A66E5BB9EFFBB80E4
:100D8000C298C1182D5D7C98EE6B300321F3B540FD
:100D90001398ADFCE1630102DE04B30788916AB3E6
:100DA000BF0BC398B3CBB44FECF59812751E67EB2D
:100DB0004216AEC14E30231E2C043AFB40B3C8800D
:100DC000DA14127A988C2192839250CC0282D6093E
:100DD0001E05019059CC85B4C9DD06BEC05248E05D
:100DE00043206A7E813005252106B38E40F5080C2C
:100DF0002041EE980284F9ED0245DBED085B8008A6
:100E0000044EB323FE7FDF35A802F4ECC65E982DB6
:100E1000199EDE2098FD40E443C0BBC5D5980EE77F
:100E200098E69BC88BE1963008E6BD47AEDD90F3AF
:100E300098BB0D03EB80010C8E87E0036EE92ADC82
:100E4000EE58FC20F48BC437FB980D2042F4A4D359
:100E500075ED8CB62F7BB32810F10140C402CBEFA7
:100E6000BF9F84BB04734918B4029C21F650801CB8
:100E70003BFE4909C44F6658109360D71180053076
:100E80008446B37603EB6004082DAEBBAD186BFF50
:100E9000750C082022F826C202580446F5280AE2FA
:100EA000F7E9CBC6FC0A60420C8049EB8F71FD2646
:100EB000C8CAF0BC98D7953088EB98064E7B3001B5
:100EC0003D00075DDB49036F490D80AF0712A5E0C8
:100ED00070003B011CBCB540F387790F90E2F3F53D
:100EE00078FBE4B26609BF96989D49C07D9FC27D9C
:100EF00099D1BBD86A5EBB8CDB0AC420D5E0089DC3
:100F0000C81006FF83B462FDCCD9784BD7F3049A9E
:100F1000C526B3911CA084B3191B0A2B2B7BAD45AE
:100F2000B4155D1FD81A8B0FE7300206C185441136
:100F30008F2040A18C19E78AFDC6CCFFAD31AFF7F9
:100F4000FFF8FB204530F752EA6201CE33F3BD983B
:100F500021636CD388FC06090EFF98FF28C68C938A
:100F6000E3D11C6C3990FF128C6661B3016142BA07
:100F700008D3F85418FA96012A440919F3E6C92847
:100F8000D347B13B8470FD20047FB1CC3219DB2EF6
:100F90005F5A9C012CB24067CF7F6D1A400116C783
:100FA000F9187E9810C8D3515D358B6F8278FA6836
:100FB000E71090EBC44F5CE385F227CD335DD7D6C5
:100FC000402CA5FB4449DBF688843DDB9A8031CC7C
:100FD000B8B2FFFA86BEADCF4BAB0448636730F8BA
:100FE000CFEE4A38FECA5B9211799EE585F65837F6
:100FF000F0882D60D7F648B4D390FDC54F942008F3
:101000000441787F34436EBCD91008A7B4F9F5E0E9
:10101000F8AE08061BD5411068AD5AFC5B3CB70121
:101020001788A19DF7F084D9A777AF1E08051A810C
:1010300042C9CA8EBCF59B81FFE19C20ADF860C11E
:10104000EBA0F4244004881BF381010308F3A1A062
:1010500042960E07DA306700B480ADE4BDD00D0BC8
:10106000206D3C64876E4002447EBE2041212804EE
:1010700067BAFD522058EBFCC03F7F7740BC94819B
:10108000A3F70206E0A425C945A9662F09CE2F19AA
:10109000401712F1223044D217FFFD54F0530C4098
:1010A00021FF30844F104CC008988B722884FE8535
:1010B0004BB8A006B3534CC3FFBFCCF26120755CA4
:1010C000CF10445CC6B642C861D4F91035E421F2B1
:1010D000DEC639E8A520C012AF4B7A071023FFE027
:1010E000D49C82C946F89D1C9781B7B7E5F4FC2CC7
:1010F000900867967F818BF288232075D8019F52D4
:101100009EB8FFC47DB78065FA7240DC6B8CFC5BD7
:10111000F7FA1036C6A8FE867B2FD68379BFBAD5DC
:1011200020598B41DC52EDFFC95ACE801870A83B84
:10113000B38B9691046B59C8F9622BC2603B8CF05B
:101140005464C85E92407406FC81A131CDED0F0855
:101150002040C63C47DC22DB6D51DB71B9FA11FD42
:101160003B808D69C8AAC420CF1ECA0A78FF08CD6B
:1011700059ED102B39081137284B77048B659D01E9
:10118000E3E4C5FD6E4C677D90B9F19C7E6FB74F6F
:1011900099CC5F63A1F89DD16142FF02DCC244B0EB
:1011A00066FF7570FA794E84E7BB886B21CC9D0C85
:1011B000E9DF725EE166CE37A0D321F64ECF16B0DE
:1011C000EB4A0680DCCA52F566F9C674CBC2C4FF8E
:1011D00008DB9CFB23898022FBE3A44CB049ADB91A
:1011E000802FD06CB2D8FD2931CBECECC298FB53E8
:1011F000CCF09565308A1BDE8BEB3865A2B0DA1532
:1012000061AFD9C9FDF6D8B8FB89958AACED08570E
:10121000AD9DDBE618FE097300406C79B1107EAE1F
:10122000453D7DF942662C29084D13106CA87EDFE0
:101230000EE17A597F9BDBC0FD79E5E1CC2D20964C
:10124000B30224B365AC6B01FED9E4D89C7DB190A8
:10125000BDB34ECFE35903441C45A3FDEC2D2384BD
:101260006AF362BEAE5D677F9E23BF2C4BB665BC42
:10127000FCE4FA0AB23DF65D0BCD2CF853DC008B92
:10128000E624DCEE7799B5FF01E5C0F920D9647B4F
:10129000B5CA2CE8BC0A4EF38A5CEF8E802052B0AF
:1012A00001E9404BD1F8B568414BCA4037FB65B8FE
:1012B000FDD6D140C413D86FFB7F823FB4C010DF8E
:1012C0007A5002E09385F304D7479A8F8E7991FD87
:1012D000404CEC01323A0567482C28EA099077CC5B
:1012E000FA8D03A4FBF2160728FCD0ECFDCEF450D7
:1012F000D30C180F02588AE6920013D02464F3200E
:101300008C32EA9F9B2982280520D3B0FD90078468
:10131000C3C170D344807208A08B1242FE8501A223
:101320002916200C978F703B38180680DE390C0385
:101330006028499073DA12C006466004ACFCA23003
:101340002D045015FFE361E014F8160D84C229C086
:101350007A434122344A5C36202279421E366E0995
:10136000AFAD91024D1D3CEBFD8EDBF4F401301F5F
:10137000FD25C0FEE9E012506678C3A3E4A14F82C8
:1013800072044076A9B310E46BF894810468BC82BF
:1013900059EFB4D1E7C628FE106DF62811F04CB114
:1013A000AE77DBC008ECB3FFC5D1708A2CD3024DF9
:1013B000F30164F78B98FC652CDD18DD8EDEC5F734
:1013C000990868062CB4BE5B54FBE5639094618A6F
:1013D000FF28E6FBA0F9CBEA46D2B0FAACEB431A01
:1013E000D57B01A079A3D3F3F649DB3DBA48F920B8
:1013F000BA0188F6B08008D5F30C71D8897417D972
:10140000DB2285ECD7A0B7D770FE9C9AA6B14045E9
:1014100017029CEBB70135F4E3037FDBCDE0E91560
:101420009EC0B101ED37A16D80049045B2B3740444
:10143000B39C4CDB736FE7D3F5116899C8FCC5D03A
:10144000730B724B58F240CE5F40CBF64863D6D652
:10145000FB0186C446AD62097EB3C57C59D76CC218
:10146000B503017547E437D54D6161FD9BF6E87919
:10147000228D2C5D01A18D07CFD0FFFB348916BBD7
:1014800004DAA2691148EFB5DD688D98588DA04C3B
:1014900045BF0477B0029A50BF680181A01104F8DB
:1014A00080401442029F03004420285AC3D158FFB1
:1014B000C6959D923020BEECAD0469696296107F9E
:1014C000DFA7B5037765C0FA607A34309CB103209A
:1014D000100BC04FC0CD06AF03EC1B62804FC9F4A8
:1014E000DD0847F66E1F0C958F40D82F1A1D0B8410
:1014F000417A52FEE0DDE71F1851D32001D80412D3
:101500000716C25DB3AE50165EA323EDEBB0900E8E
:1015100083E3092143253FFE222048081826B6A36D
:1015200024ED7A4BC8FE8089FE5CC028718C2301B3
:10153000FE8C908930103ADF1B0013400989311965
:101540008091BA0816C0F7E92060429F28FA300A55
:1015500012C0FF8418091360100A805F99E1E8FD4A
:10156000E07F3C8007F2001EC8177820990F0C1C02
:10157000F381F01E81C4399610F321E793A6D3F4CA
:10158000D3C004393C03E23F3D8005F14CF3037ABC
:10159000D3B7200CF0F835AD30F2DC1965E360F01C
:1015A0003BF32006C184F31BB1E302B35CE008D334
:1015B000EE10026160D331203DC66259395FFDA053
:1015C000A0B380E714C2ED080BCF4222E0119100D6
:1015D000C246C098180C04FD2884118925B302B3B3
:1015E0007EE02106818CECF2D026C220C6927904DE
:1015F000E6372030FC770070BB90983668110BB04E
:101600004C083B12829ABE1E76640880A664FC8C4D
:10161000D31110E6D848A242D33B269836D002EB2D
:101620006BFDCB9859E1F8FB9264EC96A3B672CBB4
:10163000EF4D2876F9FCB5CC5EF806ED25AFE07CE1
:10164000AF368653E3495CF8B840DC5C6481D71060
:1016500003CF9FD1C040088584785DD928F3EACBB9
:10166000E54C64C99E40CA068319DB476DFB86C002
:1016700003BF18DC982048F9FF6030224484081822
:1016800011A12395521289EECCCD41D822EC7C4891
:1016900004FFB4CACC5490AD49FF5F80090522060F
:1016A00008888B98A05E987333A1FFCA808502C812
:1016B00067224F88420C828937A4C667801364C0B2
:1016C000118CD94930DD623BC030129EE0110360BD
:1016D00008BBD431245A8AF55D906012E3985BD13F
:1016E000B7FBF4C503AF265798249198F330460F03
:1016F000E4360C0877B698813CA8E03A604CE8C61E
:10170000883DF280E7C6FB98F8FFAF8403C542F737
:1017100020180483FA9828BE9BBCB857868B98E69D
:10172000381BD7C06B2F5AA5207A6BC213F3930ACC
:101730007F6817FCED3416D7E098AB5841C398B9D1
:10174000D3915E3E9E01F3443042C481B3F34258CC
:10175000201B01C82C82D9F94680C6CA028B1EF113
:1017600098EECAD8FC60E13007825A48DFD48ED7A1
:1017700016D20201C660900E414BF3423C65BFCFCA
:10178000081DDE6B5CEAC94824CFB5821A13F93014
:10179000340B48FC6FF702E5ABBECA4EA431CD9DB9
:1017A0005DFA60C773F9E4B0CCEF4CD0FECC64F0C6
:1017B000DAE9C4721A2C5DDDE571DE440C60402B61
:1017C0003F8830C15A16A48B84B3A1D655F3BB19F8
:1017D000C798E9D8FDF38C09010ADF144D996044DC
:1017E0007F05158933DE2868128C08583B971F3017
:1017F000E898183A1302498921F040DC2818B1AE64
:1018000024757041E2F8A34BE7C2F0188010A339A9
:10181000118C02E40A261E18980A1E34FF88300232
:10182000CE571F89F252C204B9405D990CBB81D3D7
:101830008F0419FB20A060140ABF6590AFFE0798C3
:1018400007B530F698E041DBD39879F368023CDBCA
:10185000565424472B30A08E10F078790FE4B08BCB
:10186000A07041D35FEF983C08B8F8D984817C30F0
:10187000BC28F3497DF34F621E98B588E6030883C0
:10188000FECD0320F3C436D381609E98E771F880C3
:10189000AB0414EBC44250D9580A0C39057AB81479
:1018A000E6A6222C05458B794B786B1F420C8101F3
:1018B000E6020822F3991D0BFC303DE650FC207037
:1018C0003C43F402BB48EB57CB98A75DFB40237722
:1018D0000830E94CDE65300580D6DA7F767DC82198
:1018E000A445347F34421AE001096AFF28881105B3
:1018F0000274FF6B9BDE10248185DDFDFA2F677279
:10190000300ADDEE6071CFE346C20147667A568841
:10191000BC989246F006D735182DCC604004AE5CDA
:101920004B30604611CDC820DFD679F6FB785E4B90
:10193000AFC46B610BE4DF8BA8FC8021A0F82044CE
:10194000040211D82360334C5314F309268204A9EE
:101950008877043001B918BB113002C0161249C390
:10196000218E47C1F7FF41905F11FD20508010DBB1
:10197000FA205E06CDC067113C2340024828C0E132
:1019800001E7580880398C845AC266B4218421F555
:10199000E1C104582CD0C84C96CCA6C2FBA0DDDA1D
:1019A00042CF301291FDE0AE415B5D327A9801C9C1
:1019B000E230E3436FDAC912B7F8E90170305F1E15
:1019C000D0033973E0048870F3CA7D0856F0A87A12
:1019D000B8FF4AAD209337D7F6980240DBDB8B3156
:1019E0001012F3E5DED361200C8857E0C09FE518A4
:1019F0009002D3CE6608E9F91629300706C042FFE7
:101A000098049360818C9091BF10C66B7561B82368
:101A10000375190490B39504E0F90423E5BB4CBCAD
:101A20000D40C808AFCE953264ADEA50F976CE824B
:101A30002BBF94201281BFADA10B40D0EB0242041A
:101A400092B68DE65AC79BBB0A5EE809D318DD4003
:101A500044C730F60AD101C6BF08D00005F7D8FF49
:101A6000F0F4A58DD142AAC9048EF3CBC88C69D5F8
:101A7000B301FE287FAD9840404D323FF5C894FA3F
:101A8000E45D9B3426C0B910C4BF01933018D078F0
:101A900032D8E0C5CEFDCC44CB30C0880AB4FF2C90
:101AA0005ED7BBC0D1CCC33BFCFE8801BCE461C99E
:101AB000111F430C200416A689569048B2C810C4C2
:101AC00004B3FFF83007168248AF026498418CC611
:101AD000CF5924DC1042914A8B20675A52FCBCB08B
:101AE000101FC0203496033BE08211294A4610FFA4
:101AF0009F62148022F3DBC06D2CABAB9105983054
:101B0000C301AB7AEB610856A831A5B682EB176624
:101B1000C665ED2068FEB3C8D0EB83784033C82C8F
:101B2000F3F16DE998410C66BAFFE4413CF6A5403B
:101B30000668E038E05D2CE76BF89823D30C36009C
:101B4000FBBC307EBBFF0C8281F8305A8BF8985674
:101B5000BE4AB550F5E481DE982B7130A862CDE025
:101B60008121EEC01B6B025F617E79FE42112EF671
:101B7000E310B830B402DB913008D6E0F611346CD3
:101B8000BB90019F6B4BC2025FFC20014C81093965
:101B9000F3A680C6DE2101191312A081FA10910468
:101BA000121792D2FD8091F340E0D0258D09FA768C
:101BB000B321541903D742E0FCB9300977B5982610
:101BC00010F6B19E988135B8BBFCC4C3E2B6F4D020
:101BD000370DF822F3F3536E55F806AF9F55C0301A
:101BE0001E07964080B9C85C7DBC60DCBC988B8ABF
:101BF000F3D62040401304C021F622813509F306B4
:101C000053F8BAC886E0F783693F08C010C202C122
:101C10006FE3988DFC4EED2144C417515008BC0C65
:101C2000A0E18957A550C020DB5868BBB782F2906D
:101C30003F69AB77BCF782090185A704AF114998CA
:101C400008EFC6F80922F980113B0A10B53413CD0C
:101C500061027649705DF8CF98082362792C80DBA9
:101C6000B3223AB1BF77B04939442539464220F210
:101C7000BB304D4F3C98BF3840D758FB1F30E898D9
:101C8000C8BF78200FE201FB2CA007F140B3F5108C
:101C9000D60FE85A98AC2188AF5798F1B0C2833874
:101CA000C0BBE2D698F24FA5985066DB16B7C0E6E7
:101CB000303020FE2E7D3850F3DF8D844519ED95B0
:101CC0009A9B81FD920491EE9810D9F89FFA4126D3
:101CD000C42458DE2053B3B6B0F59804CBF3405576
:101CE0006684AAAC8253D3E04218E1101332742CFC
:101CF0008409938DC018AF203D9899F87F9798A6D6
:101D00002B1AA109BEF97DF3822612847A900872FB
:101D1000ED2044EDCD1D19CF3401728C41B2C81FA6
:101D20002124404C6990027A09F5980DDCFDC0A889
:101D3000F97F9FA5A797F8A55779AB796412F3E7C8
:101D400005CECAD0FD4984B71A306961A65CA7BE2A
:101D5000E970FE60C5029AE1C684FCF90E572EB9FF
:101D6000C12F8E1B98460C73BD555E09374D01C0BF
:101D7000E6C820F3268B86C8987AE6B3FB049E4417
:101D80002010144066E241FF01B6D500ABAFD1F49C
:101D90005849B3FA75FC851C0981DDBB4832C8047B
:101DA000DF21A3E6260824F19106118482DEE0A853
:101DB000FEF1418010F3C248841335C28CC2EA8719
:101DC000B71B08E41360124672F3DC24DF392D12CE
:101DD0004644F158081060668CFB31862BACA0920B
:101DE000664C6597C9FDF23030D3D59803EB8B90E4
:101DF0004CC3C879A10FF3BB661EFFD35E7836E0F3
:101E00003ABC3097700C789805E3F58DFA6478A5A4
:101E1000EFA50C84E350F3C82020E316F3766EC8D8
:101E20004135E0F36BFB06C4F0401088021EF3EE70
:101E30001078FCF7A524C288FD90085360022C3D61
:101E4000A60AA4C008AFAC980941B311CC200586FE
:101E500040E7C813211990293CE026C0041592C818
:101E6000AB22FD857868150A82F13AFA77202D2891
:101E7000898AC120987FAB9801D6DA0969B37A784C
:101E800011B957824CFC0221EBD39490EFD7E43088
:101E90000DC29905DD1CF9FBA1044EB734CAF52229
:101EA000F3DD339986B4CA21FE2EC73FDA8D398619
:101EB000CC19889DD4C8F9C07BB206E02EDEE5308F
:101EC0000E32C0080657FF65980C44DD9D9A7B4092
:101ED000E43D0156E0F13720066584DE98A6E0E98E
:101EE000A8F84C69EF147E020340B93021CE90115E
:101EF0006D1440D3DB98282010C92E26BBA0821079
:101F00006320837822448401FF020640421817911F
:101F100000FE1224B00120412BB930B23FCAC048A4
:101F2000180923F461048C01D81B4022CC1803F358
:101F300002F0F73130229A9BB3765C09729B16C08F
:101F4000F91F90408221A7989C463D040181396683
:101F50000CC105D3CA31FDF7F5C53279A5A796980E
:101F60005FC8E598CF30E4013C00B507DBEB5D6E60
:101F70005AE841F6982016EC8BA8E2DF011CEB5ED4
:101F800048BC98BC6B7519FF8090C85B705DA54616
:101F9000F3C4E2F351B515806BDB17D8525E3B45B5
:101FA0009B3008104E0230B40857D31230F3417002
:101FB000F391FC896053CEC288C00B62B33141A556
:101FC000B08942FE98B24C77E3086AB34B9341FD67
:101FD0001E23F961822C9005C03AD31498E130D8C1
:101FE0004E862138F9031A32FFF696C7DBFFF8FB5D
:101FF000F2F8BCA8FCB3CB80F3B356B42136D3C0FF
:1020000088FC6090FFEC98FF286893CE31D1C639E8
:1020100090FFC12C66EF332F7A33C203C950730F80
:1020200034663FEDE2CC38EBCD372433F38DBB8CF7
:1020300024BDB57F2FD36C52FA20123ECC8819589C
:1020400033BE0BD16D0A63E41D38659E0E8E7EB6DD
:1020500062A8FD1C7E9020EEB2E6FE938CB3403267
:102060008E4731E9C6630144CEFE55D0FEC4CF8C05
:10207000310DCEB79A321433F170B1FA15D510C6BE
:10208000E5361EB3088F826EFA39FD314C85CA01E0
:102090001B7A8BDEF26250C985F3C3408066F71766
:1020A000FA806FFADB102DD72069996DFE5ECF2D77
:1020B0007E624D4280350015FF3F5E544B0263CA7D
:1020C00030FBB7529711EF8194E042DD79E0CBE429
:1020D0008215FBB3D79820865028F0FDFD2D5E7247
:1020E0005018FB40936EF03478EE12200128120C49
:1020F000B7B31E48AC50D8F42C83B360809C04E086
:1021000022583A144EB10293098804A523EE01F334
:10211000222A0286E620F828F8404C603F6A842193
:102120007011FF784014C901301087219144B2FF2B
:1021300016600248A035505A6727B221668640F0E3
:10214000504D03027F441480056008113F6091E800
:1021500090A7F5A9E6442004B300EC9634EEDF3AEC
:102160006F97ED032C623FC925D3E5E4E91F6A0BA5
:1021700028BEF392FBD0B38FCDFD7F807DA2FD986A
:1021800010AED0A59402408870D276BFD92FC63841
:1021900093B88E642F9DD740915A1719F39ECD6343
:1021A000BAE672402480D61B12B023BBAE50FA555B
:1021B0002C40AA2380EE31FDA5A904C75F9BE272E3
:1021C0005320D9E9F8CBFD40EF3BC8AE945BED9BC3
:1021D0001C91D4BBB8ECACF6B30336B377BB30FA82
:1021E00065BD8C762A82D9D30165ADDD40C0A832A9
:1021F000BBFEFF6C4263FDB0B3107E74BE4DF3397D
:10220000216190B3F8F8A3DC49C738D0CFCC6788F8
:10221000D9A0FDFCF2B80198D4411312E51724B9F6
:10222000F29851679E66AE6671588C11005897ED12
:102230001480FB21EE20338C802B2FFF1423A5A4C8
:10224000ED3060FD5474220B6151BEBA8E20C86817
:102250003398F95594FD02EF7F0B9E4F0956B30852
:10226000E6B4EE1060F820CBF3E81DD3B87CDFB302
:1022700003F631674077CBC0FF9E0CD6FF1823AB27
:10228000F088B462DBAC6129EB157F59EB902DED42
:1022900078FB85A66E35FDEFD8FFE857034C7B2C05
:1022A000D647ADD716D15043ECB8FA667A7740F4EA
:1022B00046060B02276C8CC526808C7EF8C8FDA1D3
:1022C00049E1B96DFBB3023FD74410FA1105FFB1E4
:1022D000B1AFEF50D0FDE826D260DAFFAD095F4222
:1022E00002E48C08672E7F02606810186D82404CF3
:1022F0009CFCD7F7FF5A4429E7C0D180BD24EB08E6
:1023000066005DB262FDFC512F9833F1F919E8D9EE
:10231000FE801E8C6C9F69A586B66FBC362CE65776
:10232000AB4F2EC336B16CBD70FE5388F162CDF158
:10233000BB4364F960FAAF67B7C678F8EECC09C85A
:10234000F0E50CB37CF4DFFEB246DAEB020806409F
:10235000CEDEBE88FCDBC3C933BBE202670BA8F24A
:102360003814D73679089FC58314F97EAD02214D04
:102370001E45E2EFFFF36AD5596679A3A19479D897
:10238000AFED4D2838DC33CE886EE42CFB15E4BB72
:10239000F1DD1FA0202E88008FE0C92D4355B5C860
:1023A000E6ECDEA3479B2749EFC569CCFE60F7B694
:1023B0000B32B50FC20703603F54B0A08081047692
:1023C00070E943219FFEBA1806C0F5BE0CE0659681
:1023D0004889FB1381AAA8E74D8001F4121489846F
:1023E0008A4FF8884011289F186651310782C781AB
:1023F00010D30483A4032081A0AD5E3A00AEF37431
:102400009B970226C15DA3BC30B94895EDB8100A70
:10241000F0010CC3596F56628049CC08A0EE8C1CA9
:102420009170E0D440C0F58A09A0D964113E26E23B
:10243000BF81E32D7DB229F9E34078377A207457C4
:10244000050882F169FBC82123CF04FEDB98FA81DD
:1024500070638020AF21593F060CCDA722C18403B1
:10246000D46DDB2D0453F98DB3889BE48DF4D6F342
:10247000208DF8FD10BFD9B01DE6B209F29C5BBB00
:102480006D4DEBF90A17E65684FFDFC82E152E6056
:1024900002D3965DC06EDFB0E646A66FA679239D97
:1024A00009F8FF845B6469D6FC2ADE6EA4ED04683B
:1024B000FCBEC1CF38DAEB2B17D5ED0898A4597BB9
:1024C0005EBBB6FE5EEB20C5B3010CDD4396FA049D
:1024D000FF872CF4E652C0F88CFBD3677E585A0273
:1024E00086D807DAFF79961988627E80C25CB3329B
:1024F000C0954BB0B30C96FF8047ECB68186EA38A6
:10250000FCC9FBCFCCF6A36218D5C10697FB9F0888
:102510004F6C2448FFAFB503E3F775B1408FFACB9A
:1025200080B6DADDAD60B1FE75D1208BACE901D3A8
:10253000E26EEE8CC8FCD315757C04FD8C0D92DD2B
:102540006153FF40FB4DCE9212743E70DD9EC6304B
:10255000248167A44812036877ACAD34F56904FCA4
:10256000EF5F80A40CC80801C09412C61FAE14CD42
:1025700048A4E7FFFB3777EFCF835AD1307EF303D0
:10258000D0F3C40B83ED84FE67F22C35F3790C1085
:10259000C0F940CDE1800301D11EE5E48488DD402F
:1025A00018BB8C0C132436FCC4B4B0C9A9DD0305D8
:1025B000C0D12006EAA6B35558FFF890FE1004C01B
:1025C00002012109B5EE10FC283001400804F8B3DF
:1025D000506020242C57F77EC034AC60442696040B
:1025E000BCAB024CD35EFDFCB23FED0420180323CC
:1025F000A16092593F8FC044980410DC6100E0B3A1
:1026000042BD533193B045B318EB0503025EF208A7
:10261000310A1593F301A681A74C2F08C8FD3EBDD2
:102620003C8805F04F46EA79200FFC60801CA00131
:1026300034F30CC00378F302620416D3F28001F184
:1026400040E0BF5F0F73F3041226D36E78E4F31DEE
:102650001C38FAC0E33026196608934E0CA12032CC
:10266000A9C493EF5BD30C7D729FCBB8804FB9ACFC
:10267000C60579EF29F382F388E1F980917C08247B
:10268000C800586E0B02217146019044E740805803
:10269000E86001A30C0C94D5C2FF72CE5298FF8063
:1026A00090C619023A0CB3EFC08232DD02C0AFA867
:1026B00070088C80F911B22068F9F3CAA408025F8F
:1026C000768AB91A344680D0BC986BEE2941A7B9F6
:1026D000B3C034FF22F8A612FFB10178E0141882CB
:1026E0008B487A5BD3C7988C13489C01C685245CC1
:1026F000DCF9DB4B30F493BBF49736C48BF0865691
:102700002BC0826EFF0C4D6650FF861933FE983B3E
:102710005922404F5D69FFE73F0ABD9E77EAE0011D
:102720003125EA18D8A7DE25B32B80A931661037EA
:10273000FF64F59DC4B0E06BE298DF8776F6412038
:102740005C7D9728F6F97DE378E3305DD045B3E50D
:10275000D8DB4530D21942FFFD354C74F8460110E4
:1027600089F702218C24847E69F86890A78E5BFE2D
:102770003E683002060494E1A026FF108430214018
:10278000080258E1040360D78CDEECB38E40F23AC5
:10279000F887C7FB0122F516810458E578DED408D6
:1027A0003209BC987CE30B60420C83B3091EFE7AAD
:1027B0007D0D90075246C0670F6B193CFA0F401E03
:1027C000F78B10036400B8A3198FBB2266AB71505E
:1027D0008003F057AD9808FD9806E9C80339C68113
:1027E000871CF0D7FF84D73DDFFCF712FBA502C0A2
:1027F000786FB588E54AC097B7F1796B20D383B776
:10280000F398BC8BEF9CCCF349FD2E91B020E6B33E
:102810000943E6B384B01712C40238160301700CE2
:10282000C47E6DF2827FD4525F7F02447BCD02C4AE
:1028300014FD4B8CAF82539822A621231B028CFAE5
:102840008409300AE0F798248AC077AE0E11F1D2DD
:1028500088A50A7D027BB88449AEA2382EB3EFB5B5
:10286000CCFB32BA9409B57FB69881019E98980A3C
:10287000CA096768042532E2FAE6D43AD3428E35B3
:10288000D03C0E3439F2B2FBCC6366CCEDDF4B9812
:10289000088D5FF7FFC8FB4089C06E4647E61016FB
:1028A000D080848B84AD91B4A5D966E028EDB0FFCB
:1028B00076984008489E98861EFE276DB990F924A8
:1028C0004F6B12C00203070B0AB9226F8A0FC004B4
:1028D000A619F7214CEFB29F7FCC5043FC19B0945E
:1028E00090E00AF62301044C9C3019CCB60124FF79
:1028F0000D3011D8FA041001C321069E24C289406C
:102900000C39A3061134C2C53B055CF704B2C8BE3E
:10291000CCF44704E0A026C84D98D2613AF3843045
:1029200008F49814AE3C7E308449304190FF7BCA55
:102930001C8007B9300338230F640EF598207323E9
:102940007A40B807B0D7F6CC10A36623042BD3D5B2
:1029500078C4ED980B62A786985E6B0F07E020F3B2
:10296000DFF0C430C35F125B36779098F305D7FE73
:102970006980BE5B222E66095CF7C1D36FE498665E
:1029800027D32B02813A7C90FCE7300416C4CE2872
:1029900018D82102704729B07916C828C0A5436904
:1029A00001A7EB4A42803035E130DB39C040C0D36B
:1029B00006A3BD98885E982969DC23AC61D7FE0523
:1029C000E7B3FC7125890790029E823A4801897914
:1029D000F32490807DC01A40876889DF2244FA0B77
:1029E00042E0300D793020D71014163073E6206A9B
:1029F0004EA8C48834E324C202E34108EB010D630E
:102A0000F66F5CFBC9E29169D2C39FBC1EBCE5CAEC
:102A10005720402D30047830B7ED106F900E4BC624
:102A2000FF34045948774D776DF825BC08707DEE6A
:102A3000DE06B808AF8BC6E5F9417929E6B34F2920
:102A40003061CD05938093FD60F52002E001CA4D11
:102A5000F0FCCC82BFC579A9E0FBCB813140AF103F
:102A60001C45F72221E4FA9010059281B3C4B3010A
:102A70003079192DFF027930210EA03F4041448862
:102A800018DB5EA402102808E3F4B87D064BFFB7FC
:102A9000FD213F851848100341F80C88019030B59E
:102AA00042DD56058B2BDE88AE162FB35A9820F0E8
:102AB000304C0422AF94DD7F029CC850054B22FCB1
:102AC000985D73B3E3A779AFFC2F98B41CF098A876
:102AD000F368EA32F3B2C8EF5C9810196DE498AB72
:102AE00081E024E1800370CA1AE0CED52081BE3C8B
:102AF000FFEB2F3A20780F0D10F7FEFD7F71F9FDE7
:102B0000711DC5F39EBB040361EC8CC8DBF7CC02DE
:102B1000126619854AFA96E310FD984077A898C185
:102B2000668FC67CFF09FD8004326C26443F54103A
:102B300008219F419628382015AEC2D6D10B46C831
:102B4000BF89F687024F2330859DB3A6C01FA59588
:102B50007BABDC44BD7442FE70228C041002110C6D
:102B6000FFFAF294884290F2D22EEA7E6604811037
:102B700090441AEE7B5025221034FE9C962106BF0D
:102B8000325F14595A44EDE93AD38804D2F709F771
:102B900048F881893085243738F230043E400823D4
:102BA000F4623C10C09E816C1F2F8623B2FF5366D7
:102BB000F8105A26710FA1E3DA047E4D51E3F07349
:102BC000303080D00321F5371705D7409A7C013982
:102BD0006419FF19C80DE0C09DEA2860F8CCA6ABC7
:102BE00014B45F39792357F008FE2420B0920FF116
:102BF0002609610F2C900823F64080EE990290E0A0
:102C0000CDE5C9AFEDCC0478CA0A1FD36D441801D5
:102C1000135EE5AF9022C2681897BF84F350F1921B
:102C200080FF7CB60A028418FFC6230014800209C4
:102C300020F91022484098F239B38402D52DEF3F95
:102C4000CC502E7E2D6CD772215317A5A0603DE489
:102C50004205307B8B08143DE662412C0666AFA826
:102C600056983D5738F50F8378AA0240E5A770DEE5
:102C700098EE7A200F5A63057CCCB491196619241A
:102C8000E0DDF420EB9810FC98B29BBC987FC6075F
:102C9000E8411C2098A2F8F0EC2040BFA15A028124
:102CA00020DBA5BFDC6077AD9831FE75D38B304952
:102CB0006EFAC47E57D59D98A5F2F7CC17F37AC368
:102CC000212041C9C8D9D72448BE1C9360018C82F9
:102CD0000CB09AF3C699E230FF760930085E63A51E
:102CE000C2FF88DDA95C30D680455CC5A5A58BC038
:102CF000827F121608770E30B884C0EEC017FD5CD4
:102D000027718AFEA5BB24F11C90350240B369E20D
:102D1000847FAB98C285301717120C3055148B483E
:102D20004025E00FAF8A98E54FF7694D2130241711
:102D300064FA2D1EB76A6071B6FD266C22BB30F5B1
:102D40007FC0C73097E91D30E7EAFC1DB5D3F59881
:102D5000C271301EC6BFC080FABF418917B870402B
:102D6000E91784957F9BBBF68EC0BB648A7F0D926A
:102D7000FFE4699226D318AE78D7CB989230C0F68C
:102D8000F7860840FD69A73D3F386822840410306B
:102D9000AEC157D919DFBFE51CD26384BD9840414D
:102DA0009413F88001AEA0A20FD4D5650C7EB79124
:102DB00014D00B08D9868488B891D319FAB020466C
:102DC000676C09230448844F9310820298E1040B36
:102DD00060D70CC5467837B7FFEAA9F09806E01827
:102DE000E1F22DA405D3E207789838487385667917
:102DF000D6FA60B10207325DC53DCAD440DFCD705E
:102E0000801E59C8E0100F603F8B30E49DD44466AB
:102E10004AFF66F198E0FB2002C082185F4298F0FA
:102E200077B998400768B934DDFDD177D1D893DD03
:102E30000F4574C750F88B37F97E1EB3796CFFBC11
:102E400010EFFE4A3042D468D34014F38714D310F5
:102E5000F998FE20825520907B7A080121F1CBD28F
:102E6000E416480429631920EB8491B0A5FE2ADFFB
:102E7000CC40C857F07F0444CADFD0FC7753647B52
:102E80000A30CA9BDBAFBEDFB42813B2C874F82285
:102E9000143B45B795C8D8F3120BC49849B8DE68FF
:102EA00089B321126BF9322119F6910490184F174A
:102EB00030A78101C60445E0200924DFD0E298460E
:102EC000FEA3BE18F2BBF339C8FFEFBA1339CF6ABD
:102ED0006615C6AB671D30B9F621F3AD84E0F6A0E8
:102EE000F9B906E00A1EBC98B3C88042DB5AFEBF9F
:102EF00084CD81F274F1661E47939B51F03055C228
:102F000094CF4C0CC6207ED0FE04986626D465A2D1
:102F1000789847677720C4A004B3082651C6C7FF36
:102F2000CC6DD91328DFFE22464214980823737D06
:102F30008C84F0894ACF08CE8C448C6067B0F990BD
:102F4000FF8488CD8C467E73090B020188E75A0402
:102F5000C018B998602C3BE3B0085FDACC22B962A4
:102F600081112186BBC2F52B64F7A3799864C8CF81
:102F7000B161A6908130EF0168F8F598F0F9D59726
:102F80004023723031610CC87B78200F68F646FF11
:102F9000B6CC6E66E001CDC840A72B3024CB98920A
:102FA0002316B090D3E0E11CE5F8FBDE1772DAFCE3
:102FB000ED152F64C4D1FCC447A9016664E8F4ACE4
:102FC000EDD7C8C2B56B8360EA988138C666E17CEC
:102FD00029395928FDC1E08210A675429808EF985A
:102FE00024880930E14143C0758004A3ECE68411D4
:102FF000BB468BD28030B6E23069B3274057133DD1
:10300000B34C8008DE985FCAF32361014CCD12896E
:1030100010FF28E00201D5DF600A92C8F322CBC876
:10302000FC98368404F2BBE2303FF990302026341D
:10303000D390BF61203B0580284F1498A5CABB0DD3
:10304000D26BB0B38F53CDF583DE2B32B508E1D30D
:103050006D69F64DB930106BC530D5DF963F679C72
:1030600098F468F3D3E8FDCA8007AFE44C6102C965
:103070000EDF1531A6FCDC3070BB15C630DE982E95
:10308000EAD1CF93E08803196F0E64F298F30E6EC5
:10309000EE49D8FEFEA914D0BBB213F562042D8010
:1030A00098C820C05E01B39B20C602886EFFF2ABB9
:1030B00027F8660516C19044D25FB1BBA588F0EF32
:1030C0005A810C04283A92EAFCD6181216823CD790
:1030D000A39050963E42C0884CB1F61485E030DD96
:1030E0000902B43AC4B401E63088113AFE3F081828
:1030F000ED5D8F4CE19838C408586BB1E70C27841C
:10310000C6E8FFD7E081A798F1DDC8015EC5F0E809
:10311000403C882871D0BE02EE073005446EBBB536
:1031200090E730E8011CE4800372EE9026D32D284E
:1031300039301EE1C80038AF9C9CB0E8FDB5F0E125
:1031400051F04B0F815F9BFCF320B830B4E5FFDA00
:10315000CC588A10A2F29836E0CBC853F35D78D2EF
:10316000E9FB8091D9104624C90811463DFC841022
:1031700030411244113708A3F030D1F30496DFD464
:103180000D91C030049A204993F6988248FF5798D1
:10319000807357444CD300E211A8FD31B3FF88B3CC
:1031A000218F44FB321C65D3F8F931F97B2ECDDB3E
:1031B0008538F3DF40B734586621DBD3A8F80184A3
:1031C00086FF113B66B8FF241E5966023C30638CB3
:1031D00039F8FD463E6E5FCC6119457CCC06BFE6F2
:1031E0006ECF6E936CE664F130E6ED7913B3D3E8FD
:1031F000FE46F8805159462499B2679ACA19CBE61F
:1032000017ADE6B0FE8DFDF99CB4638DD398FFE653
:10321000ACE545C55EC0C999263EE6E7BA5119C07E
:10322000D05CCD795994D8ECA8FB20C3861231FF2D
:103230004F968023738DB0FB679EBB5AB60131EC6D
:103240008595029EE4D9A8FC3FA3B110E37ED7FF89
:1032500088ADED068CCB9FEC1768FCB233FAB83121
:103260004D54FF0877AFDA1032BFB549817AF6C006
:103270000618FDF227319415690388AC19405FE701
:10328000B3BDF8FA6FF2C1B1D7F464417C8A80B45F
:10329000EBC4FF7408BB016F503C589FD4FBE6D3CE
:1032A00068F8F5F441E2D8DF97DB90AF410133E9EC
:1032B000FC4A65E511EB2FD688F8D11610E16BA614
:1032C00001D108B27B786E300214F380EFD2E710A0
:1032D0008321F2A0C09E326B480A116CE024F1B346
:1032E000E3F5A80590A3BF4BD080402104CF65052E
:1032F000DBA13A50FE0460120A018C300E20E87007
:10330000B303A0729080E6B61C1F1C4945F45056CA
:10331000A2800889B5183DEC402056883F660926F2
:1033200001381087E4B40219750F30080C118706B4
:103330002BFC4760010D0981E2BDB8FEB27D890416
:103340002FAEE996F3BB81EC6B4919107FCACCE52F
:1033500021822CCF7697DBDEEFF2C9F0FEE660111A
:10336000FFB99B09C344BF79126EA2A310FB101BC7
:10337000B0C410C6BDFD08F186A1AE0A3B0BD4E374
:10338000F9EA46E9DE216A6508B7D216B8EFE6F633
:103390004F1B7C81497986EDE5B8FCAAF1043B27F7
:1033A0008CE763A56F679AF36C7A5A4017C8FD6F74
:1033B000F2228FCF3C7401231559A8207FFCA6422E
:1033C0007078FFE0B82CBE8B1A02629CBFB2014B32
:1033D000972545769E4AB2F88545E1191C99CA7928
:1033E0004BA15F8B2DFF40BB8428B7FC3C4AC9D85A
:1033F0002D8DACD67208519418FB9F9CCEC6DAA0D6
:10340000FAEEC710DCC3FEB2D4BF5010652C170211
:10341000AEBF26CC6D95ECFF752E18F14BB69FE72D
:10342000B8999EDA8696D06632FFB221F6E0137321
:103430002A156CD138FCCE3100C3D0724CFB335D01
:103440003208BF8D90A3F88E15DA1AF3380B19FFE6
:1034500098F97B6BC0191AAC3504632F7D319161EB
:103460009DE6D09CFEC2ADBDB19B5CB3047EFAFC70
:10347000B1902EBB9B834859FFE5E7CBC218296961
:103480001463BA526DA3BBFF71B1F98578208C1813
:103490005EA3E030FF6E8F6386BAFFFF6339F4D915
:1034A00018FC7F91B11843DA1D37E4FDC6FE964241
:1034B00046617FD97DE6ED30024B6640C21CDB04DD
:1034C00019A06BBE4037ACA66BBB9D40FC8DC18C78
:1034D000D1532CD3FDB24A0F8A37356CF118FA4F0D
:1034E000F6AA025E9EC064610B1348FF67F91218CA
:1034F000B6FF6C60404D0760BCFD44CAFA7BCB1739
:103500003CB3DD470168937F1936EA90A8DBE31AE4
:10351000F31E3923016EA32D8D9BD5800357E72021
:10352000FF8270D116FB57DB102096D59963DDED35
:10353000B98022114B36822C505E0BB2DEE0FCCFFC
:10354000A381BACBE32F7C3B086D4B9D3C0440200C
:1035500091B1A15C9700B5D8CAE2D59304A896FAB8
:10356000F7FCFB603345E1347763230A1A8F0D7053
:10357000E014041321127B1920800830B34696F81A
:1035800080A42514227386D843E30B28886608A8F4
:103590005481BC5FFCC3A4055DFE27DF4B81108115
:1035A0008862A70A65A0A2048D4A18C8C0034B719F
:1035B0001E384458062E5E82C051FF0C0120088040
:1035C0000EE909FF6E4A050411805048FC3581015F
:1035D0004509DCC6C390A542DF0802E2BFF8B2FF8E
:1035E00001F3CCFD7F01C24166D43ED405BECC853B
:1035F000905FE4DFCE46FC5FB73060FBB4F312208F
:10360000E11DDF8C7FDFECE518B74A84D36A19052A
:10361000A7CBCCD86FDC578286A521DC811DE0BD0D
:10362000CCD0FFB7ED0590CC995B6C497FBB01DC3A
:10363000FA6F3C4E72E36416F58F028FADAFC0781F
:103640007DCE336BD6BC2049FABE9919AAECA8FBF3
:103650007F27450369E7647D9CB7AC4B02447D58E6
:10366000E89BF2C0FF7AD30CDB4D3E7C74D8F6DDCC
:10367000B44064F65A1881C232D7480882CFED8828
:10368000F9804DD1BA0F268860F37608B79E207175
:1036900039F9D91690E5B2FDC6C022CBB2808C9E16
:1036A000FFBC89552B3DE9FF6166D1199A899E5E61
:1036B0006ED958F94B861063D65F31DA3D582B0C22
:1036C000A71365AF64FA6A060DFDD91601CBDBF0CE
:1036D0003F2CBEF2C037140310188AFCD760A13803
:1036E000E0FE8AB558F55EFF7B3CD8FF6DF1F81916
:1036F0009FF2B7403768D34838C1CFFFB470F92084
:10370000D78404DD21E9CF681B3ACF84A0E42F429F
:10371000CCBF69EA210B343BABBDEEF361D35A4415
:1037200093D7D38922DC5D92CE1908814CB97C42B3
:10373000BCD066DC858DA8FA58C4CD81FD26016E0B
:10374000ED7AF30CE6D650F8D8B778F260400C0B5F
:10375000635321B7B385220346F827DA4A04E66AA1
:1037600003125EF8D38BC006F210031A4061EECC50
:10377000E5F9CE826D06020B6DB3F71E902FE7655B
:103780006D110196887AE48885DC977642084E733D
:10379000CB3011B82B0B85FE0C309C78FEFD05B0AC
:1037A000400627EC04B3814432B5A05B828606BC98
:1037B0008C3C053B0A3819FD94E1E5FBC9218CB32B
:1037C00065D624C09286A12C7CE8B020C0FFF8709A
:1037D0000D80073264B087A70B9A68908860361610
:1037E000C04F7919E8413C67E44C93B926D31E9049
:1037F000C426FF0FE0403CA001F7F4201EC839F3B7
:1038000064803C797FE87F06BFBECC476277D6EC08
:1038100093B3C9100CEC80413057D44B18D33C897A
:10382000840130F7F8C04018F4E9C09C31C968F849
:10383000955BF406C08858C0C30A0CBB2861157894
:1038400058080941128CA5CF67B44009E246C4C3A9
:103850002890F38360248C93B03F11C10898040B27
:10386000C62C44E6900534C3FCBDA5805F7B5F7128
:103870008A685D75EBE3D0BC987BCB2182017E5AD0
:10388000B122B3F83130E0065E77E409130A3FAFA6
:103890001C05988423C6F808040D20B8A4102E0433
:1038A000195BC2791D745BA346EE84F246766F40C5
:1038B00023BC06FC91D7031CE06DE78B8EC51998DD
:1038C000FC5AECF973799817F7DE7FDF5EB85EC5B6
:1038D0006775C4FE2B9070B053E20302728E308580
:1038E000E3F6EE7410E0FE4C5D6880AE575FFC615D
:1038F0009187EB10A00B4809C16424167FA498049B
:1039000018CB492826B2CEFF9ABB8B1803668C30A1
:1039100099306B5A9F30014046C002C79808D76162
:1039200081BD93214020C0796C7453CBF3849B3FBD
:1039300093E2B0A0C19924E923870CD1D3B0ACDACB
:10394000CD8D404C0304211B58FBAF60FD2907F2CD
:10395000201EC07A980FE6F301F4070EC081D2183A
:1039600040F31CCFF698403C65E0F019DEA51760E7
:1039700080FB0CA0013040FC8B29D39E3C0DFF84C2
:103980000177A602C08AD61A2D122E4EEB64026170
:1039900056A60121DA6481F585C12D2603BE6B8E02
:1039A000F3E1EAF320A9E109FA2FF3DB06C4843F2F
:1039B00023E16404486628800CC20D0827A624F57C
:1039C0001132B34297B3113F93141809230144C92C
:1039D00020087B8AFAC048580043FF67020832E794
:1039E00009E8FE9624825FB9890388EE482421EE17
:1039F0005140D023B9FC119B09D2043F933045B507
:103A0000441A0857C177874C22FF238412E449A047
:103A1000684E89D312D0E0FC5CAE9EBFDECF98F535
:103A2000E802AED724D972CB1880CE2676FA412090
:103A30000C4717685D77FD1F30FD0BBB53FDA4429B
:103A4000B4205DE540CA23626CFC4030FD5718018C
:103A5000E0FEE05306C0400F7EA4CA2279D7B770BB
:103A6000E7BF40E628FDE10410927C224002810875
:103A70007960A20A918583B9DE6C90144705B31171
:103A800099B3080537AFD24CC990D30DF38CB0C0B1
:103A900040445030EE69EB44E6C19AFA2067332483
:103AA0008427B1C64114810009C731404C102188D8
:103AB0003A1216D89A73B349B07753E76C6004434F
:103AC00040A426331F19BF01D7028CC365D7A8FDB8
:103AD000B5B28003D6DEBE98AF3C34986BF3076076
:103AE0008C5DDCFF10E8013C900332405E98C07AA8
:103AF00020D36280D334005E5EFF18200FE4400CB8
:103B000010D0DDF980BB8E8198D062200BE87FB6A3
:103B100097F303F8C57621F9CC30E05C105E5B7951
:103B2000F3DE6B69CA30046EF3D0FBE73002401459
:103B300008F028600148A7411E4682CC44983E61A7
:103B4000588C81EC300ADEF0178509322B46E005EF
:103B5000F42262120C4FE0C24898840A020C2C60D6
:103B6000BF301298FEA00577175D8598EF48240DA9
:103B7000F198C55C305A86F604100206A6BBDE90AA
:103B80003E4406804401BC982ACBC897C6107B9857
:103B90008808108925B516B86E19403C26D6EEA2C5
:103BA00067FAF198DA6996377919B2FA81D3321443
:103BB00010D6DF4700B188F82DF55EE08340200382
:103BC000FF2D985D6684F6E94F2D30125BF80901F0
:103BD000CB8B543210CC766B9830D49882AB4FA7F5
:103BE00008A0FD80D105019CDC1786606325912E1D
:103BF000A519F0A011B85FBF1B3917110513A31247
:103C00000AC4988C24F55E983AFA40247CE33AFA88
:103C10008089308F1A28CC401066123E800921100E
:103C20003F0442080110D76024B6B80241A6BBDAAF
:103C3000A68E909FFBC48240082130714CC1203A6F
:103C4000874288989FF3808111000AF558FBE001B4
:103C5000E7D27B980378352662E58BFC1C16D03BB7
:103C60007996F30C72196A75EDA003C7307AEF0FDD
:103C700074C61C90D3B91EF307ACE0CA9BD019F9E7
:103C8000770159F5EB036120E27F06F0D60FDDD90D
:103C900030887F7E3010C306015EA59E61FD8201E3
:103CA00011D7D59801F383D32007FFC0A1043A2789
:103CB000AF197978010C8849A95C30AE5801238C82
:103CC000ED8405328D6EDD5D09300176BE180E1271
:103CD00060B64461C022E4C44819227E220D79787E
:103CE00081FD08D7858030309B482069E70D24D7B7
:103CF0009020DA18227898B3F3F930248F05215CEC
:103D00004DC38050830A0D32BD24A6B38A60DD08FE
:103D10000AE3FDACF821192DB549CAD638A035FF04
:103D20009442B0F3676A6282DBE825CEBB91102E25
:103D30000C34914DFC21BFF9EAE141FAF9D3D28765
:103D400032E0C0805CB17EC21967FAE501BEB6BC44
:103D50001B8FE3F89F14077E37F312FCB2D6BFFA2D
:103D6000A4BB22A968182B3DC80C8491765681EE1D
:103D7000D3730CE10502DA0A049ABBBD10810886F0
:103D8000A009E7F2CD486611F591D477C35BB8007E
:103D9000FCC022AAFE0409F95124C40858F2F962B1
:103DA000818C88858E9C16D24808FAF32180820582
:103DB000F3ED37D4988124D782083103620C78025E
:103DC0001021A68A8240818C605D5AB5F9CF300DF2
:103DD0009003F059C8AE013430CEBB4016B8307DE8
:103DE00043E0813C80AA6E54D79073E45DEAA5203D
:103DF000F26BFAF9F598A0DC6DEFD0037AC9C8CC64
:103E000081F9414C09C140D11983B6FFEF1220FF5F
:103E100024B8F310B3E54BFF527A06755FE0C1F7A3
:103E200051B6FE98BF626215E969F8F940D322C025
:103E3000090B60F2200C8241C099695808F30F8C7D
:103E400004ED44A0807F31406BF4C42DFE0216487F
:103E50004218090BE7F30590A0E716C448F3136076
:103E60005C1BCC05B018FAE7838490FE0402C648B8
:103E700010F524292890C25DA7B44857C223308288
:103E8000337749280302814FB082206068060D36DF
:103E9000300460DF907A42480308F8895E3006EC0F
:103EA000FFFF5DA5C0C95721BE64FD91AE9A089A77
:103EB000B3AFF88915A895E6B8BB7E2D83B6C4B814
:103EC00073E2B3D0FC4E5234202B095EF0B97EED84
:103ED000840CBC4AC8ECF63DAFE7DDD6C4DA9D449D
:103EE00024E27906BFC267DBF3D8FEC18091F322DA
:103EF00042C0020C2087644CFB100804A140B2D3DE
:103F0000B8308DABD66682CCB20884F7B652144274
:103F10002B644CF14709258819A7260784FC1391C7
:103F20006630B102C297226644C1880E314860F5FE
:103F3000C2F990002480E096B0B366BEAF808130B5
:103F40000226ED9E1CDB400C0291D8C0DE8A39139C
:103F50009091E6D729F9B6B2900799C8BB10CF98CF
:103F6000D432C835E8B868183C206D4DBB55ABF06D
:103F7000CFA707F1200EAFC822EFD3F58BF033F3B4
:103F8000031AD8E026D329FA57932E5DC4FACCE25F
:103F9000303451E65D0261D0A9CDD315DC96C12045
:103FA00008729BFF0E7875D34008E04E1EE6C26192
:103FB000FDC009105EA585480A81602C072980FF95
:103FC0004042C24818110160BB248C30CD1F6AFFEB
:103FD000C101B208FF40C0025800230122998C267B
:103FE000B08BD7C20802300728883F6C12F0FB2044
:103FF0001035F340E3989F687F3130114617AB9836
:1040000012E428E63B21552184B717303FCF161024
:104010008402410BE30820016B0484DF3B44124916
:10402000030C45D3EDA590FDE98A44FB6FCD300626
:104030000200E777D8AA866FC5923BE0816DBF2D5D
:10404000C8FA9153F0D3E8FD7F926DB408D78F3052
:10405000F5EDC0790471A8693699E34B860CE3202D
:104060000740BF337B03932072EE1803B4CF67C9B8
:1040700008CAFE0477814E2B47CE2BE63010C2577C
:10408000C62E7C13E15DE56720660A743081064D1B
:104090001A204833B0173029B2502411E448108850
:1040A000D344B3F90140068044C52EB3E730300451
:1040B00046AF02450222F0212080052C41ED1F630E
:1040C000014240C1227701E3AE8CFFB61206C84818
:1040D0009810088D608C4ED30238F8FE573DF1C021
:1040E000A77F26303CF330ECC3BB1A02645909C4E5
:1040F00066E030B0F02D1E79302C47D327F379C617
:10410000E441EF0C1028D1FC19771AD9794E68FCDC
:10411000069C230588E5C81DEDEEA5100302ED5FA2
:10412000A231928EA9F4C631C272FCC610A213C08D
:1041300004A79089242C82DD493095C8F2A2F37B34
:104140000C51301238193E3411BC2B56D3AEFA2024
:10415000CFBB1044845E989C62D39005FDD3C8FD0C
:104160002085047F94020313134A69C83012E2CDFC
:10417000928401FF2AB30655B320E1E7ABD05AA0E1
:10418000106AFFB008058041A8346013BEE1281012
:1041900084A319F86A8BFBC0A1BF4815F43BF83023
:1041A0005904DDB17657021D80C72CA8D21053D018
:1041B0009B0AF6E4C8FF619E0C5C07BBBF0394300A
:1041C0000DE60210F5D9447DC99EFF4E4EC0801801
:1041D000647060439594C6C230AC56135DB89D4E72
:1041E000FB046FE540015C1FDD1361C0306322708A
:1041F000110448079A0C942033637649924D8AC083
:104200001690406FB302DA664D23021508C363644B
:1042100070AFFF2D98790C181002237687488429F7
:10422000B333108C05BAB06CE682DEAFFE97DAE8E5
:104230007D5F644E86D59EC606C8244064F261B791
:10424000AF5F6B61FFE09B6A0732BCA5DB9D3071FD
:10425000400E7BE22003D760015AC4E583AF2728D4
:1042600068E0A0075E98772D030B3830B8035FC66F
:10427000C003F5E0FBC76AF6950857C31C307EBB48
:10428000418E306BA94130CF285AFFD88A5EECFBB3
:104290001EBC6B4DD3FC88D9A82BF3C898E79F426E
:1042A0002070FE8049853026772ED943E7302820BC
:1042B0000AEB10C0427F416424008409ED301204EF
:1042C0004D215FB304081005163F2118012361201A
:1042D000D64C80FF5600C20818092207412CE61070
:1042E00091A0B1F92B1B16FFB36EAC612050E0F624
:1042F000FFFCFDEE173AAC717069E59CF3059AB4CA
:10430000B321CFE023F327D09BF81820ADFF401B4B
:104310004CB8F91B33668CCA71D3ABB3FC8CD12B70
:10432000336D1B91E9FE8DC285A0B59BF0911844B9
:10433000956FDD3D50FAE6445750304416E04498FE
:10434000E8172702F36AF316FAC127FBCC98FF554A
:10435000D9419800B70835F706E88C52B5E50198C1
:10436000D5A6405CA8F8CBE1EAFF791C90F362CABD
:10437000FF0A32B4BEE2B842BFCCFD02220540EBD8
:10438000A54263D73F2C84E5A4108B7A91F98CAABF
:104390008FDB3F28FD321BCE84A6657E3804D5E036
:1043A0008064B7128010B7DB60FAA5E802D3948D61
:1043B000B120751B02A1289C3CBD01FD48B7FD3F03
:1043C000E96681EF40D8D50A58C60497AF8810F542
:1043D000C6011A8C848E6A4CDCE8FCC9A284E80E03
:1043E000B58BDE2E53F3C21CF6600804DC3629F3CD
:1043F000D24440C304BF7DB8BCF86DD94684727006
:1044000080D48002335BBD9840707EE2E5888036C0
:104410002D4AC4228169CF0FC0FE8028E60490A1F6
:1044200049527CB85031042C3C64950A3242660AE9
:10443000E66004A09B28CD77B360300177DD0C588F
:104440000A1A4DE3C0A8736B805681D84BE00B036A
:104450000C4708FFB8FAC0152189A880C888286FC2
:10446000DF0A21003511F35E1081013907ECC21615
:104470003C53BF63064014195002727F0E084AD2A3
:10448000828004E4412014564F1144A1630F21504F
:10449000DCFA82DE7119A922C50BA78818F7EAFF9A
:1044A00002E1C8B32BD625965234F328FCF37E9252
:1044B000AFC440D3E0D9B40AD7C50F66F311CFCF4C
:1044C00036AFFC9282815630B3FBBD2F04635E1978
:1044D00066F569656BC7CE932B1EF8FD63C2337812
:1044E000C5BAA7DD4505799E2F13FB37E423CE1C03
:1044F00075692893CBDD0465BC0898AB6A377E8D5F
:10450000ACCFF9EBD440CD958C1F2ADD514093DD23
:104510008688FED9A66C4B5C1E7AB540D495BC60EB
:10452000D0D1DF7B2D0402CFBE35C13DD3C411BB3A
:1045300080D080FDAC029E5A3710A9F384FC14632E
:10454000E561D45E9D7995EDF7B0FFAEEF160C777F
:1045500021080118EE748493D809F166677465DC4C
:10456000E521C5F512400250E6A2FAFCA00179103F
:104570002434B8FA0263BBF3B308787CCCDD224064
:1045800091EDB468FE11F97BE68871CF9FFB6E2830
:104590002CA5D78DC6C61ABFFAE3F90A3F3580B1FC
:1045A0000155DC5036FCA0F85AED05C6327EDB8C96
:1045B0008FD305292CD0B1FC416BAE6152FF22E2B2
:1045C0004CF506FE856BCA2019E95480B8B86658C8
:1045D000AC66FFB380B3A290B3FF72D5C6B83AC73A
:1045E00033A7105DB1662CE3207CB7BC2BD822CF5B
:1045F000FD2EFC85862537FD5CB8FD18EAD91EE541
:104600007FB63ABB26158CBB3A90F98075CB80906B
:104610008B7F1ECE2B4629C6C6E6C2FE9766B2F039
:1046200028FDD1CF31DEF5202098F06C25D9F0F9A6
:1046300046B6E53BA461DB624508CBDA01162E9A4B
:10464000BF176874288D5EB80FC60BCF6CD1DEB66D
:10465000CE006996B3FB25DB2108CCABE3EDCCFCA7
:10466000D51D041B7DADAC8C74AFCFEDE314CD9E96
:104670000340A158896A1740D9A2416FEEF3C8FDE3
:104680000AE5F72416F45A7F030D72834251CBF7E3
:10469000A88206E583923FFCF356276651C608566A
:1046A000E4737BE8FBCB1046C0AD352040B0C99623
:1046B000FDDF80B31A81356E5D9840ED41A4F03581
:1046C000A575B551F89F204E01AC549CFBC0042643
:1046D0000EB2155066E211CB6088A5AE71B60A1312
:1046E000BD0308A80DEDB306C0E5BBF01F33408540
:1046F000D9A0FC228002500A1A6F8109000CF0A098
:10470000C050548FF3596142FF2180082590FD006D
:1047100078DE24078AFF806240013425048A00FC89
:104720000B100287050CF6EC3B550A4FC9CE7A9563
:10473000034D18C7508027D8532808CC8417898682
:10474000FFCA342A1570E203CC18F6F357E0F8FFDD
:10475000AE472B9ECCC1BD4129206669B405DF114F
:10476000A80D02F1F1E3D3240C08B9BCF3E894FFDF
:10477000F6CD6CB95F7B7FE8D144DBC937A25BBF64
:10478000807D417844A2BFB73DC279021D31F370EC
:10479000FE195C1FB202FBAD402C3BFE35E10ED191
:1047A000DF89289DC02FEA6C8ACCF9DE3FFD2DAC55
:1047B000CDB24F9E599D28BDA9B70236DA6C9C90A8
:1047C000FA83B56F31DFCDAF8BDB12029BCCAE88A5
:1047D0000868F178FDBCCFE5CF01980CB52034EA2C
:1047E000311D879468F908BF40CC8FED58DA22BE9E
:1047F000DB0B286801CADDE7207ADBFAC84B972873
:10480000ED508EA66D80DC5FC50FAA328276B13A7C
:1048100076F238FF407AD001C2DDAED3B4CF6CAAB5
:10482000C0F8BFD8D402499D2B042004C26697DD8E
:10483000511E19BB0801046116AC1380B249373907
:104840005ECBF8B369B15D114EE6D351199FB2C783
:10485000C833245D5BCCFD9976B1F9EF331701269F
:1048600016E628199610D5FC72B201BE72B873E62E
:104870008650F9C4F4CC8CD6511D027F6C3710944D
:10488000951075E2DAB6E5113830B385C013F344FC
:10489000129809EB20EB6904D521AFA0DDB1A4F695
:1048A000BC711CEDBA4260DF918122309882F4180D
:1048B0005041970C14E6342DB8FB9BEA093036F7CB
:1048C0003379FC988CEDBF5AD1306FCA0360BD407C
:1048D000C6A8E6FCE001AA0664AA1E8DC43D0C34FD
:1048E000ED90BDE71EC003F60F08D8403087AD97A6
:1048F0000D46F86F0368FB0CBD4EB4C618109050FF
:104900003134D8FA275B37258C17113A5013F9F355
:1049100020608E81123308C3665F20FDC513092D08
:10492000FA297F5003FD64048D88093067C880052B
:104930000E063FC04818CF1122B8400290F0000A7E
:1049400016C0BF19200304224CEC908530F41931B5
:10495000BF91FEC41060122C007330ADC2F80498F1
:10496000082362266D8079E6A0FD604630F8F0CF1E
:10497000B001184020037A348007F201F3783690B2
:10498000E021FB7F60802626E00379070FE4419E4B
:104990003C56F0201EE4C60F9CD3E638FFA1F0473A
:1049A000C32809B6924D30D6BEEFBFAC10B10C2F64
:1049B000DA7F81FB3C036125A9F324D3C1D397F2AD
:1049C000F3B0D3D8F8A1515242769814A10C81408B
:1049D000182129B308811943FD60020C8201329E1F
:1049E000B3DF1130BE8809236081C0743005267999
:1049F0000308601B4C82AF457498FAA00111456D05
:104A0000A3BCB52207140A021104121AA0FA48FB2B
:104A1000713B79F72289D3C824908CC5B07E7A3057
:104A200064A620B41A40D4A821C2FC81D2CCFC6078
:104A300010D7A06F37DB46BBFD0C649B6E2EF406CF
:104A4000F5F5C21BA3F998CB57835F6E6BC8FB7B50
:104A5000BB06F0801EFCC5BFCC80A707EFC8037A59
:104A6000A140DFD366F3274401A130E9AC438CD3E6
:104A7000404B9C07BF0F824A26606D8350FF3DD498
:104A8000085EA50D66EE281422BFF856E10125BF89
:104A90001AA040300502C241E4A3236EF2CE02CF39
:104AA000C6016022168247E89CF3B384A0177B9866
:104AB0000120F5610C2C04EC6C16C82E590823510A
:104AC000E0C4887898FE661102C8109820BDDB8C7F
:104AD000FF8809B00816C220402B5CD51682EC3145
:104AE000B9FAEEE81C90F5EFD07AA5076BDD24CB80
:104AF000C5A0B14C1A81620B0539B3E05EA5D303A2
:104B000070E08378F7100FE081799839C603784018
:104B1000C65D97B2F83D98835F12591B36E304DEF9
:104B2000982C0A44668FE0E967E07AF3C28BEAD7F3
:104B30005E0434F311F9FA9C1219081917394680EA
:104B400004111907024D5E6BC0040CB108041989E9
:104B5000E119262072184083C1E6B30546BD5E9078
:104B6000FA2362110C846BE6F8F9D4B291705E9866
:104B7000BF08D49884F3E35208A051404E897230A4
:104B8000824EE0DA4062877439318277F324430B36
:104B9000C689AE206BE278FFCCF7DD43D202635AC0
:104BA0001D37E4C0703DB7A8E230FA7FFADF57F84E
:104BB000D0D7CCA174315E1EEAB40209E0C0DF0395
:104BC00042C6537E8D55EA107E4906EE3F3DC89899
:104BD000AC8EF3279DF3E0FF04FA88101220D0F783
:104BE00098A0008177899868E3C1190544E19A1576
:104BF0009BDCFE8529D744465D87C73D9E6429FC22
:104C00002161840C9011E0AD48FA73012008A318CB
:104C10001E0373B9014C40214CE388581E136101F7
:104C2000BF323062194222DEFAC0185810F74B2CFE
:104C30008005FF300106C1441804433EA80C011052
:104C4000813650FD018969C330AF40DD0764E898C3
:104C500034730EF3588040D78C30ACD3C4E89D0732
:104C6000F101703DCF190FF33D8807B8F0F3BC5E3A
:104C7000B8306FE2F8FC5DC047716A69FCEDC9802D
:104C80001879C5C6F825ABAF108589F7FC104946E1
:104C9000C2F35EB84532CD2340FA2EED0AE530204E
:104CA00069DFFE98E3424808FC100B61140CD82E13
:104CB00030873F30328216E1481801796BFE98B98F
:104CC00020A621EB604482831675D8FB20E7CEF83E
:104CD0009847FA98940AE6300249BDDF01DB208448
:104CE000AD192259F8B149E8C540D05927778598C0
:104CF000D7312197A112E1C624BD9898B7F8168A3A
:104D0000D949269B9B2D127D9DDBC706C46EE5838A
:104D1000D3CF985ACB04FD116962FE98B632F5984C
:104D200040FC301AC892C10CDBC41F19400C200192
:104D30008101D9E25E984A6E07212794F677B08BFD
:104D400088FA2848DBEF7198100141D7C972469361
:104D5000323923D896D48176D6E3C71DFE46400863
:104D600003008168EF2E98534E12641368F32444B5
:104D7000A291E2AABFF8A604C698BD5B24938CCA90
:104D8000DE46E7C002018760212D96FC985BCF07C5
:104D9000AB2BBFF7524177BE8C84C005B0F226C062
:104DA00042588EBA0A9A6011C8E6303C90D7C7982C
:104DB0004B64805E98BBF432E87AA4B8A7CE73B394
:104DC000E6010DE07277353D18109DD53DA02BD33F
:104DD0001E29BBF3413B8368FAFC6DBC988BCFBAAC
:104DE0005180102559968399EB98082BDB98C24087
:104DF000BD78207F9E987C47D3B7F3A1FDFC7FC68A
:104E00002698F25060818CB49CB30884483A1316FB
:104E1000E0F3E619EF5D053182069040D3F023629E
:104E2000DFEB9816BD4B23FF60148E88513011A81C
:104E30009BFC19344F4D986027897030D1A4D15B09
:104E4000713095EB98206F2F908C8CBDD841C91391
:104E50000C5AF3D630A1972CFFBE48104D300426D3
:104E60001B18FE64EAC9105CC3A871469A6DDB503A
:104E700002111126CBF8034CB5C823DC399FF7701B
:104E8000F880813C76EB291EE872D4FC9BC8B3C83D
:104E90005E593080BF7FDC8101BDAE40563D1A9126
:104EA000F9D0E7A378BA5122307C78FB041034EBB8
:104EB000F3C0886BA2FE0902282040BD9858442800
:104EC0001836F10521A3AFEDC848BC098ED3EF56C3
:104ED000482364790421102066E6F98401B8066746
:104EE0000A9820600C952830B4C6B3E8040B6166BC
:104EF0005B936EE290D5B3883EB322160280B7086A
:104F000060CC108CCE32F8C7C2025808F162710C26
:104F100010FD3002E8F8B72030D0417ADD0762C3D7
:104F200030231E5C308120E02C56FCAFC852980321
:104F3000D3C4B93D0F86E4ECD7C820AB98389C3079
:104F4000803C204AF93FDD8B308E5DFBFCFD9818DC
:104F5000E5080362F7B6D9485E8E335310B6207F5A
:104F60001A3D7A98C157D369F1406F308508F869C6
:104F7000E99804C05E0ED780822630A6AC19FF01E6
:104F800098286E195A296AFF333303D3980CA7D394
:104F9000B34930052EC67EB31001448405311D3857
:104FA0003D1924A10212DC30101F212220143FC918
:104FB00091448010A04A6B20F38B351720815082DA
:104FC000A3404C4E5D3030E0984EB42008BB0E49F3
:104FD000F62400CCFFFE985CA97F9193D6BF0B30DE
:104FE000B03566015C30111CB6E56EC65FECE20CB4
:104FF000880107789AF91921FAD9F2982C619EC88C
:105000006C018220EEF317400C48D3A0B308BDE535
:105010000CA210B75F2312C430AC44F387A7033748
:1050200010C0FD5E2B1724C45E989901F6418D2BAC
:1050300089945002DCA101FC13099BEC4A2980D61B
:10504000B9C16DC7133830D35F489320142C829AAE
:105050000174635C6630EBAF59F98C0C4C0450E37F
:1050600098160018DD23612164C816C6BB4F46A1FF
:10507000F7260888187B4C4C90FD05B01046C1827D
:10508000DCBD9C42D321206AA9FF7F1C90045EC531
:10509000D6C880A40260F310E5720CDF5C59C8B674
:1050A00024FED44001C8F398F3D503BB1A973D3CC6
:1050B000ABF3C4D95E03E8C607B0F928948095C362
:1050C00010C76AE6C8068B66EEACFDDF10B26F0A49
:1050D000DB807E16ECDC3D64E5C8FD1739F319FF73
:1050E000EDCE9808B32858EDC3A68CCB8910A49EAA
:1050F000E00B60110CE5B30899B5E39EE20247C4EA
:105100005726EDEC14F2C87FD372242C441011EB17
:1051100004F8FFFDB98244147A98207A8121A20113
:10512000FE7E1188D72BC8A0A4331F192505269110
:10513000167850A6CAE03021E4B4430C6801ACF301
:10514000E9C840FA6020656501A1F36594FE8BB360
:10515000013F33844BFC06F2D51B27C0985160B544
:105160006B2698F90A81BC3F5AE0E5C872E70784CC
:10517000BC07E4810C64A724EF6520AB414D2CD320
:10518000247DA97D9CE2021685F34717A6B8A618D0
:10519000F90465CEFC3034DA81A25E838E0201B957
:1051A000BC095D59BC8EFFA285140712D04826C2E7
:1051B00026042688292580FFFCCE2322D388507C14
:1051C0005258FB84019C068042589E0E3B8C0190F5
:1051D000BE327F6958201362220CEC804510ED7CB2
:1051E000AF10113009860922D3BB0BFFED403022EE
:1051F00046C015DBF6F1802090310D57F964C81BCD
:10520000036CAFC8CF1C90A34016C0DD0378EB98A9
:105210001C3F943041D37FB09819100AE0F598F103
:105220007B9883380D2FF30CE53030FE9877D7B993
:105230008498BB10F5EF04C750F9989DBB4941B362
:10524000D52077ABA510ADDEF2C850C61FC6E2FB75
:105250005B76A20253F2D8F0989F3201460214BF47
:10526000988C3048B379D31122D4C09940B3012629
:10527000B605E730200480029177E678FA7D9867DA
:10528000854260C04008D6212264BBC0F34771EF5D
:10529000DEC56712B3D382FF4BDF20E0B830537A0C
:1052A000DC4108FC0C8101A005801D90FAFF1E7FE7
:1052B00099FE39F5B71033C3C4FFD395BF3FE7BBA1
:1052C0001ED3D8BD044C815B1298FC4608B9073048
:1052D000A96BE598F7BFAEE118E5303CB2B312D543
:1052E000F809720322BCA58B9197300C08411DE58B
:1052F00026FE989AB86690DD8CD2031DEE6240417E
:10530000D8094E70570B6C0411D819A76F5688092D
:105310000142E746D020DC8B08794917AB57D48A85
:105320001CF6E5FBCA7C7FC60616D3081840118C14
:10533000900466F806C018F120E3019E7C853006D3
:10534000D5B2186BEC420C10F89F20C008585E23B1
:1053500060412C7FA6300A26C0481805398A4C8443
:1053600001ABD7B8F8BF98A001F0801EC87660C81E
:10537000602F5DC5F2E9B878B15EC52DEE737B0391
:1053800068F8BBE89F3031401ED0008C79D3943050
:10539000F1D3E5013920F3320CC0FDDED7C0C52FB3
:1053A00022C577D3EFF85DFF0BF80568BBB5D86071
:1053B0005E8C812CB9C8E0626B97C8EFB920405F62
:1053C0007F3BF309FC9CED16C108F9262264048C8E
:1053D000C3E0012126AE7750A3601236D30904BF83
:1053E0003D6AB39F84260246D088CB1840198DB3FE
:1053F0007D9813AE64FC64043011F0FA0636FF6A3F
:10540000B36569F4FD22B10226D350FDBEC2FFBFD1
:105410006CCC58E3F339AC2247F698B59BD338FCF3
:10542000018243FF98FFB124A36638D1C71839FA27
:10543000F98C121B66D8FB63F6B60CD72C5B6CCECE
:105440008873D3C4DBE568F870514851D7ED93CC2D
:1054500044F5D0018D311719FC1823FDCC7D7F90C8
:105460001EB406F0BF5510AAB88831F67416410D67
:10547000300489725858C30F59E508FFAA6F9BC0C2
:10548000FD65EF90FF7A6A99B3807C52CC3C0F4C5B
:10549000C47F7A90B7F8FB5A4C8EFCD32188B65B58
:1054A000AD101B7036AB0880A7A4FDD393F96940FB
:1054B000E6B2FFD69A20DB082CE1541B46A36EA669
:1054C00078C7B5F3F4FB140D70FD9BB267B0DC72C6
:1054D0008DAD0C6BE515011AF4EAC60AC9FFEA04A2
:1054E00060FF47F7AD4C487C9D75DC2420F72D1BF1
:1054F0008B19394B7811D5A182E7EC07AD4683DCD7
:10550000613BEA48FE6002E463270D8AE08101DA2C
:10551000C4121022F1310EDEF30515B980D6026AED
:10552000526E41E978FD405AA03FE106988A0A5040
:10553000FF8281286930143640F00450000BFE01D0
:1055400060806430CE6866800DB21E04C81F4121A1
:105550002B8D08A8A490ED34ADB886DE449DCFE035
:10556000F858608CBAFF401310AE0602AA088F816B
:1055700022FF0C148B50B1449445FD4204807120ED
:105580000B9F9E2E1052021D206EF8A00F5514483E
:105590008310C0C821A928FC201014F8EA0A2CA006
:1055A000FD48095A19AF4F20E20A210838B34603D3
:1055B00021D11A51FAE2D6D90217CCA20A0834092D
:1055C000D6F89AFD58100BE7081C43DF049482E8D4
:1055D000A601FE1B402CD9FD646F9BBB0123D63F67
:1055E00084DF12D93CF93E142CBBD27933EBFCE5B5
:1055F000F36814E658C8F8DD8E0171D795E63F319F
:10560000AB9E0230A1F2F66DECC0FE96CB40E6F9FF
:10561000801BAC20DD586905BF760540028DC1F8BE
:10562000F9AA3720F3C662F308B3DD8620799FA973
:10563000F59C5B79CFAB2878FFB140BE3691F54938
:1056400040AAB280C696D25876577B12C36B08C563
:105650009BD002421626E7FC38FBCDDB1C73E41A14
:1056600035FF5951244BD680B7960A6719C4FC7D83
:10567000B0029997A0A3FDDC75DD019FE6C07E977F
:10568000AC28FC81D3FEBC16E1B5AE81A448EE0186
:1056900083F4F87F5DE6F69DEBC61212FB027EB145
:1056A000B12CB4B6E0673BE8FA7F865CCF166CEDB0
:1056B00079AC93E6317BCC1070B3FAFC2457DE91C1
:1056C0007B538C3BFF20018014FDCCFEA10285643E
:1056D000FFCD67A94E88BBD0B1FF6EB1DDB6B64035
:1056E00001C48BD56C4960C3C63D60406E336FA466
:1056F00015F9B7CCFDCC0A9DE66737E24C60C4795A
:1057000015987A1908C7FC11CF1642CC21FA97D008
:105710002D66BD94A6146AD1B108CF966FE32DED26
:1057200028C0F8B9EC8F9B64FDCF0487620455193B
:10573000636BB3082D86106BB04F19DFE7598C7F70
:1057400076345CFCDBE40DB9C9F9A3DB058099CDA7
:10575000CB7B3034B3B5380816209BCAE0FE83F308
:10576000BF2C13A179C44492F2677DDCF901626910
:105770003D44FDDE88FDE036670A5A9208CFE3CD4E
:10578000376C49E5E010FDB1B2F856C110FB07B126
:10579000807F5C9608B1422B502BD0E0602D0CD955
:1057A000B090FABA09C72E642777E52E05B325EF26
:1057B000D59DC723E84BB5DEFC8E4247AB598256D8
:1057C000E244D99FE828F820F5B8FA8FBCF3768E2A
:1057D000BDECE322A3EBC6CC504BD40140C0764BCA
:1057E000F1D05FD34E44D024FC3AC60998DCF08651
:1057F0005980BBF3286840016E50FF940490800BE1
:10580000200300DC350C780E08E37DC64DA405B3FB
:10581000B141CF8004F7132A019FC2F8A0C10660EE
:105820000EC880B8C72838FBC0FA1F21F00A84E1EF
:105830008F1806F102E215A03F811208C2A49D81D3
:1058400090D6E148A304EF23703651CEAB01406BF4
:105850006C46E7D04A02440B251CE7845562F334BA
:105860002038A12D111DAC0D02343BA8FD47009539
:10587000938BF5FCB431F311AFA89304F3CEEDFD97
:1058800080E0A98AE4E87D88F8F5D650FEA24EFBB8
:10589000C8F940B3A0828E204AF21F3FD96997F31E
:1058A000811111F72B97E79F9BB600ED2BBFCD0819
:1058B0008F4576F848FC10A68D5FA8C26066C2BE10
:1058C0003D1FAE6CB1FD7DD1E301EB99E7661D8F05
:1058D000E1F91EBF7144B1B2A777CFF0FBE905BF74
:1058E000D7E4D8C4C701C96C4779ABE5A4E1465BEE
:1058F000B47260FCDC798B92196FF1DD9891A6EBA4
:1059000067402BB29682B7FEEF2388FE59B7504608
:10591000D23F962CE1584B2463A0985E48FF0CCEF2
:10592000B723CBC314DBDA7E32BD973201A0530E0E
:105930006CF0F87376610AE1F398B65EC6F3B903CA
:10594000F7A8BCFE0BC24CDA8B10983DB78BC9B3DD
:105950003FF7EB057EFB400511BF9FBFF64FFA975F
:105960002CF3C3447DAE364130FCDB40482D8940EA
:105970008B82ACB657F6C92025AB57045FEC8F1865
:10598000FF5742B7B1BD379A33613E6E6D6606CCA4
:105990007A7CFFCF59D8047A46CFC8FC96A68044BB
:1059A0001202BBEE680F8004E210A4A0DD14D8E15F
:1059B000489C2522015199C91A21C2105C44826871
:1059C0000A3D2185247E4610BEAFB7AD2184419AA1
:1059D000A8B8FB35AAE6B26040DC86F5F3806D8C92
:1059E0009C67B6014B16016A8B6F4FF43D08BED819
:1059F000C1FD605B5ABF30A8A26EDBA533F368D748
:105A0000B18F1F5683A04E908203111F0F44015C7B
:105A10007944B38B34AF42E3D6C0F97AAB21061494
:105A200074F5432011D8F1800810C862401FF314A8
:105A30004C8105D93011C9B3842648C548192208BC
:105A40009176CCDCBC28A5FC6444CF7B38F9804936
:105A500081A046E4C02498EEF55C2C8009D820088B
:105A6000B0187F90600C4C80112CE6E41905FF649F
:105A700026C21018082360E7240AC079040680C2F1
:105A800067AC03F30C909F91C6C8FAE001FF3C8815
:105A900007F1001ED083FF38200FE8811C8803F037
:105AA000F08006C0F43800F3B33CBDDFE0F8400CF2
:105AB000A007F007E083780F092031C6806730F334
:105AC000C8039379B0B90CEF2070FC57F0C4CEB97D
:105AD000A0100C80F34D068E1803933BF381303CED
