:100000000C945D550C947C550C947C550C947C554B
:100010000C947C550C9483590C94E7590C944B5ACE
:100020000C945E5A0C947C550C94B5580C947C55E9
:100030000C947C550C947C550C947C550C947C55FC
:100040000C947C550C947C550C947C550C947C55EC
:100050000C947C550C947C550C947C550C947C55DC
:100060000C947C550C947C550C947C550C947C55CC
:100070000C947C550C947C550C947C550C947C55BC
:100080000C947C550C947C550C947C557F7F7F7F21
:100090007F7F7F7F7F7F7F7F7F7F7F7F7F7F7F7F70
:1000A0007F7F7F7F7F7F070007047F7F7F7F7F7F4A
:1000B000077F7F7F7F7F057F047F7F7F7F7F7F7FBD
:1000C0000F7F0E7F067F0D7F0C7F7F7F7F7F1F7FDF
:1000D000177F167F157F1C7F147F7F7F7F7F007FB8
:1000E000277F1E7F257F1D7F247F7F7F7F7F187F57
:1000F000207F217F267F227F237F7F7F7F7F7F7FDF
:10010000107F197F1A7F1B7F137F7F7F7F7F0818E7
:10011000117F127F0A7F037F0B7F7F7F7F7F081015
:10012000081F097F080F027F08197F7F7F7F7F7F6D
:1001300008027F7F081308117F7F7F7F070C087FED
:10014000017F080B7F7F08077F7F7F7F7F7F080706
:100150007F7F7F7F7F7F7F7F07037F7F7F7F047F1E
:100160007F7F1C7F1B7F7F7F7F7F7F7F037F0810C8
:100170000C7F247F237F137F7A7F7F7F7F7F08110F
:10018000147F081908200B7F7F7F7F7F7F7F7F7F11
:100190007F7F7F7F7F7F7F7F7F7F7F7F7F7F7F7F6F
:1001A0007F7F7F7F7F7F7F7F7F7F7F7F7F7F7F7F5F
:1001B0007F7F7F7F7F7F7F7F7F7F7F7F7F7F7F7F4F
:1001C0007F7F7F7F7F7F7F7F7F7F7F7F7F7F7F7F3F
:1001D0007F7F7F7F7F7F7F7F7F7F7F7F7F7F7F7F2F
:1001E0007F7F7F7F7F7F7F7F7F7F7F7F7F7F7F7F1F
:1001F0007F7F7F7F7F7F7F7F7F7F7F7F7F7F7F7F0F
:100200007F7F7F7F7F7F7F7F7F7F7F7F7F7F7F7FFE
:100210007F7F7F7F7F7F7F7F7F7F7F7F7F7F7F7FEE
:1002200008277F7F7F7F7F7F7F7F7F7F7F7F7F7FAD
:100230007F7F7F7F7F7F7F7F7F7F7F7F7F7F7F7FCE
:10024000017F7F7F7F7F7F7F7F7F7F7F7F7F7F7F3C
:100250007F7F7F7F7F7F7F7F7F7F7F7F7F7F08158F
:100260007F7F072408057F7F7F7F7F7F080D070B37
:1002700007237F7F0713071B7A7F7F7F7F7F7F7F27
:10028000071C7F7F7F7F07147F7F7F7FFF1F627F39
:10029000C23C006088FFFFA0089001324006C8C63B
:1002A0000019FF03050A4414812241CF068AF32076
:1002B0000365E5C00C94EC9AFF3FED81325006CA0D
:1002C000E68C1928E0A069F3A9C688CF0098D3640A
:1002D000800C3FB9C8FD0014C0C30258FC0B60017C
:1002E0002C800430210AE60270F34099F305A0E661
:1002F0000C0672B31266E050DBC00428368BE05067
:1003000093D334D3B0021670B998FC98B2FF20058D
:10031000048800B3818010020260B308DE01E0B2FD
:100320001098E4E8FE0C121BFF98FFCF7D3690106A
:1003300084400FF340202A413699E7CF3F2342D033
:10034000020A4021731615147ACE40D156E0C1FD41
:1003500006264BF3422E0220D9D00171330DE39FC4
:1003600050B819B6DD67951004964801A70CDA0459
:1003700084808C085EB904A7A0FC82C1F9FD2030FE
:10038000048A1218CFD228044DA8CC9030EBD06F3D
:1003900018100B0C49DD11C667BA663480221D485F
:1003A000BD0104209234392E449C41AF81A09BEFC3
:1003B000F4FE80F0340E8302489020BBED8C7A4727
:1003C000F2E830D3F151D879F31C29A400A769EAE7
:1003D000F8FAE071F2C0ED2E60FE613C902CC02F67
:1003E0001ED00362209D4B818E124CFF0446840474
:1003F000347FD714E027C85118BD3CA668FC2011F3
:100400000C12145942F14C5D2004A063715402880F
:100410004DFC08048927B424FD58407A4741E4B3D1
:10042000101D40A2E458B326199A0952BBB308170D
:100430002128889E8417264008BF236073D131226B
:10044000627E8000F0DE23640211D93EF428180198
:10045000090245A94FA0E0F96001970C50020387FB
:1004600058054FF39007B1205DA3B909093C622CF0
:100470001C9001FC4C1EC003784059E0D37070C83A
:10048000D30319A6A90C2ED0FF02146CA823DD8378
:1004900020FE8430080651F5E30DE99C31897C7F0C
:1004A000AFD3C9EF0396B67913799C1FF3FCBF381D
:1004B000FA0949B7A114DFC05F330311309F02B3BB
:1004C00022580403A662E00530C489B3BD980139FF
:1004D000C08C8411D14FA510018360EB222882D4F7
:1004E00088B8660F8A16CAC124DC25E8EF31DDF32F
:1004F000801ABC98765B10B4C6BDDFC4AF3120A5AE
:10050000D8FF400928110D00FF7B920650441A4085
:100510000BDD0001DD56108403B32D093C06F149C3
:10052000EA4619DDF4B608E38651F8D76ADD94820D
:10053000D4912FF7FAEC3D80E888A1FE4695D2F0E1
:1005400040C6126BE044E58C9B7D720519B2803A7F
:10055000FFD9AB84934151D020D71804E3420C2F2C
:100560003FB4D71003F88BF3F448FD08E3123709C2
:1005700004A3CE20A3D055994136002009773A7FB5
:100580000930024AD71887FC9F24E4D002465CDA7F
:10059000F0907FF5202BA5FF6609FE61FCA060248A
:1005A0000C8005E16786C01594E498872CD2FF146F
:1005B000E63927D74008E13C8CD0303AC0AD809076
:1005C0009186FF8201100281F9950026EA9840EC9D
:1005D000E878C6E4E0F70D9007F074A1BB6C6C7589
:1005E000E6B4E081958AB0E598F9D60F90AD2C81FC
:1005F0000E06DFC002E9981C84D0FF0449DFB64034
:10060000D06411A91AE37998C6B67F2ECA402E1479
:1006100026636C0C885773408A5CBE5E8B4DB92094
:10062000297D7F7A98C2EFA174EDB3DEB008B3CE16
:100630000B61F301900B3B6F49EAD43BE06BAF5485
:10064000D9A1A3AE02722D61848CE6BFD0FF5C5DA0
:100650009E8196821A40986601A07B16C185DFB301
:100660001668EC1F12FECD6834AFD0DF5332C40DD4
:10067000B0397B9ED0D3411168FD1AEEF4FD21DE26
:100680003393793C10EBF946E62C26FFB4C03BF9D6
:10069000CF29E494082B61C5EF7217B36371408AC8
:1006A000BB4420AF0C18B850E01318F3600C96FD53
:1006B000807FD07F195AC03811B34BE07ABDACC4EB
:1006C00047D6F4371DFE047E62069B27400344DCB8
:1006D0008AC0DD041A20FDB3B0F83072E431C2667E
:1006E000D54C2833FD853B82F780405360F8CBA77B
:1006F000E7B3200A10850218CF030BAE0C8084F4F8
:10070000901046A00C097F088245B330F8309B2634
:100710004602B8EAEE112B3A6BC0CB98C65EE8826F
:10072000464CD148FE50DE98F81EC08318200ECEED
:10073000280791D3D2980F2CDB8D30FDDD65247F07
:10074000E0AED3979147717A0EF329C402B8237DA6
:100750005D3C08D8FBFDB85B2928DA53BB712094B7
:10076000066686689C6CB37E59AC3D136BC3109BC8
:100770000677DD4ED557D16A445F7F7EEB8D99F8C1
:1007800073120C1F11200206404D19436096B3B737
:10079000046DB731809AB30C84F598463098110AED
:1007A0006B01CB98B54AF8E3DFE05012027256288D
:1007B0008199DB2E30FF378111046773CAA0105E68
:1007C00098C59018F748812812798BD99BB540CFEE
:1007D00030040A40BCFB8FB21FB696C9D4CD027755
:1007E000E5C89C19DD0141E681A63370961D98FA93
:1007F0007BC58007954063FFAF100CE0814E9BA046
:10080000201857FAA498C0E6066FE87F88ED2CE020
:10081000BC7BB2BDA5207A05838776F31008F2E889
:10082000FBA029B35F66FF120440A40959C8250C38
:10083000AFF9C4D928B0DFCC397A3281269528E4C3
:10084000C530C223D8B773032FD779900201C3F8FC
:10085000E0F080204041F399046F219E0CF33006B4
:10086000C6EF0098BA174BCD923566835E984D86D9
:1008700018117DD8E6EA9DF27F0E30FA19FB572653
:10088000DF49C95D58C333F33C0C905E984AD40FDE
:10089000CBC83B5AAF6901F698F440FE0A3095C6C2
:1008A00090EE5E06C880D331C8082BFEE1B0AF974A
:1008B0006EF0EC4B0486B4A0FA8D339CFA63897A0F
:1008C00066204BD3016E3FF2F79F10EFB9D1FB5B6F
:1008D0005642524693B704C00940B31C1977AB98EF
:1008E00085CCC5D5FF017998AF0E30A645301E16D0
:1008F0000198F34060598C88F7E905C0FEE98277DA
:100900008A98E4C9C873CB148ACE7E593080DFCC74
:10091000F8A81020A21290243143A15DCFF61482D2
:100920001050F4481A4101C64EB912B8F9FE5A7D6A
:1009300080E516659918FCC73A300641103CBA911B
:1009400084DB10A4F26608B4B5649328F8734920D8
:10095000260A04B2B65726A28BA08CFE5930403C22
:10096000306EF72BE09488241D5B7C5E1B4ABCC173
:100970006B190119D298814B27F88811FB96001644
:1009800082024E8BBE04D73182B1984010DC812D9B
:10099000CBB5FB826F9F1D1204241077AE98082EF2
:1009A0003F75E9C02418F7DD0ED4A6EAFC078830AD
:1009B00022FF2044021810036240B90CAF46B4A1D4
:1009C000E5308C735D11026A666AABF98480980821
:1009D00020E15E98C06044E0083010C9C20F7FEB90
:1009E000096001C7980C38FF2B46D5A5B0EAC503AE
:1009F000CFC860802CAF883598E630413C0B63BB94
:100A00005366B8102DF2DE6BB478E43005FDC616DF
:100A1000C0027A207A982C64E1F82CE1F80642D1E1
:100A200018E3AF1F5DCB3002F87DDBA5B836B1AB64
:100A30007ABD42E5FB61727D015172E875321DA9F4
:100A4000FF4859FB8009D29010A318D1964919A7E5
:100A5000AD98137930056BD61FA0B37001213A40D1
:100A60008042F298F9F9694E478110040E23620C16
:100A70004C0F010802E0AEFA756A114052C98D139D
:100A8000935E985C230DDCED80286CB311FCDDC80F
:100A900008C23D86054372F60D1260F346507A1A7D
:100AA000484100265C42D4FCD3CDA9FD98012D66B7
:100AB00073C80C2DA8F92E5264E8AFA4B3E082BF2E
:100AC000CA3AC80681E9A4A3BD10966897FA737064
:100AD000B62A04FD7F407A983DBA648BE0FA250E71
:100AE000C037E6DBEA6D25AFC0F4A78298A148F3D2
:100AF000C9C4801877814C4CFB68FF2E09A490FD77
:100B000092A60C224E070C205141D4CB234039B67B
:100B10002FD7C552F2B219306D6DC03D982CA72069
:100B2000F386C0048398A243DA6301E040A3FA4F3E
:100B300088AD260242E6180820B30CEFEE6516A237
:100B4000F59841CD0B3111BE9BB7F65B0263D81807
:100B500083409C603904307C20821C8818DA3F0274
:100B60007230C1B7490CAD883B02955D20ED983CD1
:100B700090722302480C3CB0641BFA988AD5B46288
:100B8000020D6DE070FD983C5E983BF3C803F930B0
:100B90002CE910A0FA9208298773837F929864A0A9
:100BA000EFAE972D13960FF266F74884812D0C2037
:100BB0003D98804BF302BA7DBA37FF7898F9FD80F3
:100BC00051C93A483EE02360140CB85D4B19DCDE95
:100BD000964C800931CEFD7F8117085FBDE298A653
:100BE00078EB111081CE5779048E98B990FA7EA6D1
:100BF000358126D402ECA7C8080481A0DF16D09165
:100C0000C8E50C4DB16FBFA39010D236FC28BA0FC7
:100C100035842243144F82DD9A48029C0802200545
:100C2000E8D4B0F961B8303B7CBFC828CD80BC980F
:100C3000DF8530CABFEF80305E0D08D732F320F475
:100C40008BC64B15CB8BB565FFC54AE558E7CF1072
:100C5000066EC3F6F15C3034E50EE6765EFDA56AFD
:100C60001900F1C0100120C983A95C3D9D415B02C0
:100C700032030C1517E5F3BFD8F9A4A4F4100681CC
:100C800042195EA9A6288946C0101F481344240DA6
:100C9000717C9BB949287F42B88FE28BCCC8B019D0
:100CA00044E61B110B6AD8F190F8043000F7264097
:100CB0004258E5C8665B126B5C22CB98454ED3BFA9
:100CC0009B98FC788B1A065C303CC0020C209B4839
:100CD00019229E8F0B01418C9C1A0660F865EDFC71
:100CE00003B2B657C8372303F47A98396539E4F369
:100CF0009DA7FC34D307F4D377ABA5E09F2305323F
:100D00004016C800EBF30FE4F9C9C8FF7328817AD5
:100D1000D32FC8E53DC2FAD47F197DC2B3ED3BF8AD
:100D20005DBD4E20AF0CAF0C2E0A8A8EEE2F50E424
:100D300065C0F93311B62181D9C84FC023C0081846
:100D40002946B381622FB3053010060F421A45B30E
:100D5000EF7805201124F0C00210857F60448C8458
:100D600000B0F51078F920C86A260BD8A521627268
:100D700045C2B930D07675C86440E598F6F07AFF80
:100D8000A2D39BEA2914B93081135010EB0A510306
:100D9000AE2ECE6AE4FD03B9AA0264E7D802C17997
:100DA000F9AF9998F92D01B6D7FF9EA5F63677834E
:100DB000AEE458FBE08BE1290E7B7839FB840139E6
:100DC0004AA718E723200E60596166E6C850EF4A2B
:100DD0006B31E015B946E08B2607D21E09D3687740
:100DE000F7F0F9A0816AD84265EB88D77CECD6D6BB
:100DF00016FAD502080ADA69334CFD980427B3FACB
:100E000018455F9F5B9831C7263E829A040B61D1DB
:100E100052ABA7FBBD092602F3821805A01F044DA3
:100E2000C111167D7FDC485E9821DD355AB30197EC
:100E30005ED7ED26544073044BC93A9ABD24884AC4
:100E4000F50C817AE6C1FCE081D3025E5F30079841
:100E5000BBF20B3EC8194003E4B3C8056BE624AAF5
:100E6000AB685FC907CB3D58F83060F33210839A06
:100E700069257563DDE521D5D7189F6EFE4208060A
:100E8000C2EEBF0A2BE84DE57EA5D5B38CEB013150
:100E900008C67C5603BC6BFF085E92F380C1EF016D
:100EA000AB7185F8113DF44401022B2661DAE8515B
:100EB000B00296E696128C96E00ADB046D947B3CB9
:100EC000E826C408E0BD6B843FB711260002501627
:100ED000227FAD8C88493002F85EE56346FFA2B3FD
:100EE000CDCB58ED10A3D3E8FE769F7CF79069B385
:100EF0009CF3059AB4B52131B540D330FE18243B9C
:100F0000FF98FF281A33668CD1713990B0FFA08703
:100F1000C7FFCC88B2FAFA87C2E3A831F3C888FECB
:100F2000C90451CE3344C8C1EDED35C500E0CA1E39
:100F3000D3F3C0FC20C11FEBCCEF7F16CEEC691AB7
:100F40008971826D70B1AC9A1BB404F5C3508A7973
:100F50004B6D748D28FF48C35986ED4708F91C92E4
:100F60008FBD4461206207259B8B99431FBA5C08A3
:100F700078F3064F6DFEFB0D45C2D0971F980EAF5C
:100F800044ADB3804873D1DF76BFB835DBFEA063D4
:100F90000B1A5B0D02FDAE6D9697F254C8C9594904
:100FA00008FF3465364D4001208395FBEAC16F2E62
:100FB000202EC32530F702E0B9118C89E9B07030DA
:100FC000BC07AB0220D7DBCB40873BC280ED80FB68
:100FD000BEEA21EA64FAEE81C5592B8010CABC2111
:100FE0005A6EC002058680247CF3503084407A0813
:100FF00098FA449F96F86240881201DF2C0220C0C4
:101000000A738C0D40F150128004F605607FB8968B
:10101000350570173426830919C807A59502C60639
:10102000809E18F360036819E6F820FAA009481FAB
:10103000C3CA10D045FF20A21E84D6A800581A416A
:101040003F62848CF92220420380A3677ECA303637
:101050001A067FFA24AA444541118D0309E308B416
:1010600040FFD50466E0131882FD44A01658F80826
:101070000A76CB2C19EEF50882FDF944DD8D46EE9B
:1010800029E447D0B720FC3810B854D809F8A64254
:10109000F7B0FFFFCB0841B8BC99CAFB5214FA7FE6
:1010A000CBD1CEE55C9384F777EF6E81F01503EC3E
:1010B0000CFB4C818F2F327A0EA231BCEEEC40D06B
:1010C000F96FAD7BD6150420B4B32450D51136A0EA
:1010D000FA51C779CE9DB0D69C01631DFBB610FBBB
:1010E000F0FFC5FD6FFBE40962F6F1C077B30CFEBB
:1010F00081C455AE24E69D4FFB58B0F92218FACFB3
:10110000FB933CE7DC39F3F32FBD8090D8F98CF5E5
:101110004318B447FBAE0456CB30F9CFD3961DF33A
:10112000E445F9417DD1A956FF97BC08ABC28CB309
:101130007BD6540161EB6AFCFA80ECBFEBE389CE0D
:10114000DF2469FD5C0A02B94E75E688E5F7897708
:10115000DFE0F8B42033A6F4DDF3D0155913103ACC
:101160009EDB0160B68B80F99ADE67F148B9DE92AA
:10117000C0677409B32F1BEBE8F81031697376145C
:101180005B8E11FB1688FA633B2B627F33632DFF66
:10119000F8FF946BB108EF31A3753904CD10ADFCA5
:1011A0008FF4CC0613B60180FF2ABEB2014CD77C67
:1011B00091B822EF6C9E60FE40B9C831F67EB1E571
:1011C000463F90FCC6968D042668B1016EAF8C3206
:1011D00098CCC2736CE2F39337F6C2FA5FAD641039
:1011E000D6BE02E6773FE6ECE1E02FFA59C920A926
:1011F00019403479A4892F2F1031912FD79A68ED97
:10120000CC304CE4EDB011A7CBE749007548B1FDF7
:10121000BE303E90A8DFB6B1FC2ABCE820010484B1
:10122000CA51B302029DF60F50DDEEE3E0FA34C777
:1012300002D2E4E721BFFD31A840DB9B3DE84CA290
:10124000C6F603B1041DA7C0F1BF082F76DA916B73
:10125000E830F8BC09200210DAB082FE7C08857FF5
:10126000E497FB1C4043D07D14E6DCAF1F024144F1
:10127000E0FB08A68679824069EAB019A50C0E1237
:1012800080503805AE32D60925E83F5494603E9E22
:10129000180228A4F67112D0F4B2067F0828402B59
:1012A0004F470554060C3FC6400328350E81907603
:1012B000A41494CA5F0668A801EB2688FD5C115649
:1012C000D0112978FDFF50B308020160590AE3816B
:1012D00000F04FBD86940220BB9836F80AED5E30D0
:1012E000407EFA887FC534842982300E20AAFF040C
:1012F00006F94B9F0803FF46451588014F700FDA2A
:10130000E8FF1E03272853368EAF1446F3297812C0
:1013100016E0B35E122E76363EFCB841BCCFC64E08
:10132000EA2708FEEFBFB0E98CD40415C1E94BF3FE
:1013300016F4ED4077E99FFF7A44A9D7A501F8811B
:1013400020C6829EB480FD10C57A92B4E0C4BAB7BC
:10135000923C10EDF097C8DD52AC45C088ABB0169A
:101360002CF9DD7E80652CC6C095A60898647F9E0A
:101370008FEB099BCD96F0FE197DA6CC726F04C74A
:10138000F6785E60D8DA88F91A2DF59E8D76A80178
:10139000D0C9C6778398B3FFF267C2BE662D0540F9
:1013A0007704D8DEBC98DDA7305EEE46CDCB1D10AD
:1013B0007CD81420A76F0A401641B4ED14F4FE89BE
:1013C000287442ACC778D6CF5D1760B6962A2C79C0
:1013D0008BB7E5DD02E984591BB610E37DFC189656
:1013E0001911ABE75012FDC40198BBD902408C9C87
:1013F00040F9B2BCFCF03317FB8273D82844CBFE13
:101400000541FEC4B2E9C6B5C9806FA68F7FF61F3D
:10141000D0FBFED763DEA6B2089B950120CBF1A0DE
:101420006DB23B0A88C0FFA0D736088CF90093F351
:10143000DE0D0484AAC09ED0E9512068FDB386DD8C
:101440002584141107B137C26873C31484FF429016
:10145000025A44032821FE0C8481140280FB6DBDD6
:1014600030136703E10C77DFF9D768968ED8BABFDF
:10147000A010603FBD22060140C0C611C672CAF965
:101480006EE6304C8018ED1092EDE6EE932306F3F5
:101490007A4DCC810C89659534BD1880C02477794C
:1014A000CE2FC0F3108360A60F4E81C178F97780EC
:1014B0003001739008238309241C5B044FF6C21289
:1014C000681125A91E2086335110C040A603E28072
:1014D0005146B4EBC204195E67080C2010350A723D
:1014E000CA040A2FC8FFFA0B602484800530A44286
:1014F000465886D6BBB304B330BC5440533B8DC072
:1015000084B93341AC0CF1F30910C12688DB44E403
:1015100019901FA8FE6041803C9E1606C803797E84
:10152000B0E8013D800766861EF3707BEBE0813CEE
:101530003966E0C0012C5ADED706C4E6CF0FE00CB6
:101540004C16BD16C31648FC0E60802C10F8971977
:10155000498240D10362867E7206BEF9F21EFBB25A
:1015600038B396E0089BC7A260733FDAA896C2879B
:10157000A918C0F82B61CBCDE488E9EDE028829D65
:10158000B31362126A0931C417B3B0EF7A1140B8CD
:1015900060C0BF10405ABDD21322F38173BF68FEF2
:1015A000AA340B2601EF421A40CA322F581098E88D
:1015B000909FB799F51E24ABF8B2454EEED0880A3D
:1015C000EDE5490522E17874290A63F368080C24E3
:1015D000B9060AFBBFCF10649885A6DB617ADC866A
:1015E000E201D5C004BF6FEE04D119DF7FB35FFC09
:1015F00060B388E807F180E48FEAF698C020D3C092
:10160000E06C0108EEF71184413022B31EE0036163
:101610002FDD893CFACA18FEBF100F60FB387358E3
:10162000FC28B382F326D00280A6097E57C544B0B9
:10163000BF02DB63A00110DD5711CBB328BB6122D1
:10164000AF88481491813B10214FFF72B40899F87C
:10165000805130D32140BC10089760087B9816C198
:10166000079810EE230214FD450A9DF57F9250B3B2
:1016700080E4C961B9E03A3326823C491917102247
:10168000E9AFFE7AC580073140FD3C7979B8AF8D6E
:10169000983918E6F3736760019E0D70B04010EC46
:1016A000E58903E4F3CAD3062FB16098402C755046
:1016B000F884E6149C1A6DE798F65760F3F311ED81
:1016C0001D102FFB143FF3AB3AEDEFBC980648F921
:1016D00070FA080A38C204404D85C05CEAB340582D
:1016E0000C31869D25BA21242127D379060492D373
:1016F00080B5EF638B09226B28F9956A81AB700284
:10170000BB444DC308847720305A571097B8AC3388
:1017100004FD2CCCD1D750D31026FC873B18FB48B6
:101720009A040369FF4509DBB8FAEE36826DF80CBE
:1017300077A71869B6632DC530E7A299E01C6668E3
:10174000BEE470FE60C1CBC0E0E3F9304269EC98C2
:1017500018C8B1465E503030FBAC34D2D910613C71
:101760000E07016D86C03EDF7BFCF8FB2C9A7AD019
:10177000024B1608B34F01989873C8800267F99816
:10178000063C497B48D6840A6BE220710310B008FE
:101790005931A06050B3F0ECFAFC84A10221486DED
:1017A000F51160222CDE174226C0B95DA35D340A14
:1017B000303D029DDDFE81202F7E24F7980C8405AC
:1017C000F401100680D30A41FF9FD9F6FBE0010C1B
:1017D0005F3C5E98F7027A000BFA9811D3C2989D8D
:1017E000F33C089AB33AED1C083F16D4980FC67222
:1017F000D3168FF3E56D10DE9805A680FC9B61EB98
:1018000084FC98EF166ECF25C930887472F914FEE7
:10181000B503F498087B034F85808990FAEDCF33A8
:10182000C01058E508136056AFA59810E07EAD9043
:10183000DF8530EFBBB330112BE7EDA2793004D355
:1018400016C4E4236449E550B9D368FFF8A2063C06
:10185000C20A4083F8DD8DA111B44EE5304269081B
:101860001988F9C87E4A3CE5F16BD39C256C36900B
:10187000FEC6881A5003688298D53410D2F9E58BD9
:1018800053C83A73EDB5D0582603AE6D198049ADF3
:10189000E008282F39B6965AD3F7ACE8FCAEE00A38
:1018A0004AFD45FC615968DD3088C630B9BB1594E6
:1018B0007028FF4E88C0D4BECCBB9148011C794330
:1018C00059C82B6D9E2378FF8045EF2E316BA50202
:1018D000609DC0112082709DA58C390C921CB5149E
:1018E00051F82AB32E75083BA08130AD01FA101EC5
:1018F000403A79AC240AFBFEEEAE32AFF24F311122
:10190000E52488090B0646E6C00058CF616CE188E3
:101910004786304612B2C849A43974338631C94269
:1019200077915FA9DA0BE4D9FD6060D6F73170C812
:101930000279E80B63FF4F98C84D2003E0B741CD13
:10194000C802BF9298EDF0BD98037F3130249066B5
:10195000F0E4C04AD3EB72D310B0FC9E954601F27E
:10196000CC182C0450C169C0309A71709DABFC85B5
:1019700085EDC31A66F130DA157FDD0B9DC8C1FD18
:101980006D56FAB80F0A609E0404442010BC98F605
:10199000B3409059C6CE668201B05DC4EB0E43F8E9
:1019A0003077F426C2E59B17B3B45160F9F81D7C7B
:1019B00059C8B80969FAA008718790401AA788F732
:1019C0004120B744F0980D8F5ED247FA9EF2FDFC9D
:1019D00096A4FDE750044260A17B98A0443A5DB80C
:1019E000FE3C69D5511DF6E00F4D9310C275A3C59D
:1019F0007932406FC93010F645C3E798B70CA8FD9F
:101A0000E7E2F080AF0610A5C150109061B3B503B6
:101A100012F504C630ABB08851B981A23030F8CC91
:101A20006419932AF3F84040D3D10C0EC6FEF8A8EF
:101A3000FCA60E7613099AC590042E876930120809
:101A4000E101468BBC856AABB622F49822A616ED5E
:101A5000B0C0BC7D46F1D0624090EEC6AAFFF798B8
:101A6000100104E3180560FF220C0840304206E034
:101A7000A04888672161D290108630CDFECC90813D
:101A8000759E06C1E9981073D68C887A6E16020886
:101A90005CB321D883B1187F97983F301EC002787D
:101AA000000F73F307A17731307810570B237D3087
:101AB000FFB93DA0BB07D79880733041243BD3B01A
:101AC00040BC9850AFC6CC4AFC62310A06D8362FCB
:101AD000CB1B8EF33F01E8F92CD4658C318CDDD51E
:101AE000C0A6FCFC3047A99346D399FEDD8009C906
:101AF0003D20B3D12262B31346B350105EC5D74028
:101B0000882D300556BB02EAB3122FB3BF948B3039
:101B1000C41EB483C6042B6EE6D2ADF870FA3480CE
:101B2000BA512440E7112101A0FE113404C0D0882D
:101B30005ABEEC02DB273F3DC8A005047D946B67CD
:101B4000082A134522D000A4883982AD936936A1B2
:101B5000141A4051B3E2AF9F98D437FB350C04A55B
:101B600035E6D7E76EEDD6E6E0A2D3F05AB06C7E4C
:101B700006D9C8812198EBFAE0012B596E7F3BE62C
:101B800051A5A064E00CD6B970912E319AFF5CED9E
:101B9000BF108E30D60D8841BEECFCD7C86193488B
:101BA000C1D8FAE3A04580A4C702D3E109B38530C8
:101BB000AF81618B1044CA68C7C9BB6266B4B30900
:101BC000208477C1CC0288BF9242AF466B98042034
:101BD000897CFE0AD732FB4142C41401FD18030878
:101BE00060222070307E8640045FD39B5B057F5B64
:101BF00098407E7F885FCDCA3010E98AF27717F768
:101C0000A798939E0C82D78590DD7FFD690330787D
:101C1000A50A7957BD018F981916C8839A70F3E801
:101C2000E35D6F354BFCCCE40B1C4E0530397F0C6B
:101C300030D332BB98DE6B0EE0012C1DA0FAAFBF93
:101C400004973D6277181008C706404666BC30B559
:101C500004356669AB8140A1C07FDACCEAA2041AE0
:101C600017D3F278D83AF9F7980022408A01D37D49
:101C7000F04148207BC50450092CB3889E5B30108E
:101C800079DC64C8AEB36DF21021393046057B981B
:101C90000B01BB04DD3E0250FD179D97D2B5981194
:101CA00008E1B8353422EF989A448068F31405208F
:101CB00040D002666FE3A8117737EA20022B430574
:101CC0008730B358429C0AB02802FDC601842080A8
:101CD000FAB656509C60FBBF31CE98D19FDC46EFE0
:101CE0006F232D81BFABA4CF98CAC821C615A8DF2A
:101CF0004220D097B7FF4075767998FC5D5D7115ED
:101D0000DE980703324DD88108B7AD960A5765882B
:101D1000EAFC20ECBDC8F38098073C180EC8BB2B2A
:101D2000BDCF68F8247CBCD60644F5986010CC3052
:101D30003088AF39793A124804409D119FED4B45E8
:101D400030DD574E9D62418895F311D8185085C5F6
:101D500005D73F8EE8FF840530CE40267E5804B775
:101D60007D8C3EFB3021164091D30909B359D9B17E
:101D700008BC30E48209318FCBE015D0F64350A681
:101D800016CAC813F44FF882FAFFE0817E57C8A143
:101D9000987ACA0F50CDC8E17B980310AF4059B86C
:101DA0003CC566E378C4B028C7D399E08124C6FD5A
:101DB000B20012C0031AFC4037E6FBE5E2FC3097A4
:101DC00002F07551FE982DEF3830CE22FFD35F79A7
:101DD00014A487FB34D3415BB6035A41FC679522B8
:101DE0001859C8C0120DEF110809F798130214CB47
:101DF00040902C3F5A6848B0F967931720608104DF
:101E000084AF052298F310B31D2B892BC890309412
:101E10007F260142024013AD6811248B178E98ACC7
:101E200010682313E73008149003D004E412401024
:101E30003B4347A476FCB80A010868690DB2F23446
:101E4000063CFCEBB8B787D8A00210712579CDCA43
:101E50001D600609DDBB126EF64590A8FF042DB388
:101E6000C88072FB42BEDF9DC738FFC077EB07F02A
:101E7000AF8012A5F2616BE690C598167DAF6DAC90
:101E80009FCB309085B1B37ECC7A53D365A00799B0
:101E9000C4C6C0D37767173903FDA0FC452084066C
:101EA000D002FA92434011010E6989393D605C9F6E
:101EB000641B1A73C20890CC30C1660414F642D376
:101EC000B34EFCC8105184D31908343A5BFDD5F6E3
:101ED0000178CDC3D00BF3414C8201B4460708987A
:101EE000D6109379548849B0816AB3B5010EB37D99
:101EF000EE4648441474950E2C80914891F11410CC
:101F00002C5D17814922D739FD8FDF26314006EB42
:101F1000C003193DF5010D88713066C818ECF6C88C
:101F20003C0805A621AFAB68402C8859C89F1426F1
:101F300018200FE85C30163002F59879FC3031EC4F
:101F4000FF5B7CE5DD9440CAB720F59818FEC541DB
:101F5000D65AAD175857B30C65A8FE9828EFD3F39F
:101F6000EC7E703008E1FFA0112FEB5F22408EDC89
:101F7000E66A2002BC98F1B3196FB5E3C6DEBA6A0F
:101F8000E611B008E020ED00ABE2C03FEEC998C614
:101F900011AEA2B217BE53CFFB4262B3307785FFBA
:101FA000F0ADFB157C6597DB99124AF30133F3968C
:101FB000AC2251E09ED396A866090EFF98FF28C672
:101FC0008C93E5D1208DB6D390FF23FBCC18FE4730
:101FD000C6567D80FDA56FC7FEADC8FECCF1FE31B3
:101FE0009235B8049BF4566646F18CE8A8FA26C7E9
:101FF000519BB19A4498F3819E9BF650BF157B1775
:10200000E8FE6711063DE6B518FCCC169FCCB35030
:10201000BCB7F30BF4D98DBE4282B37EF6F3CDB4D8
:102020000CD9CEE0B1F91FB1A3F3ED738D31E050BF
:10203000B1FF5FD99710FDF167FD641B4D92B4A805
:10204000185CCE660DB1BFFF6A6366FF61162CB2E5
:10205000A49665D0FAC83FDFEC85F35E2FCD7DC036
:10206000E0312EEC2F08FA5FFBE0010415E922E8CD
:1020700046D97FDFFAEB4B8064A04056BF3EBF419C
:10208000D1EC101A1968C428B735E902C6799FE85F
:102090000280184DBFBAA0A3FBEDD6DF0481AD9A34
:1020A000FE0E20F3EC13FD848411F986E293F743CE
:1020B000D7BB806942F379F0FC402D1423A27D94B4
:1020C00004105111DF3E9C0CE622400948F6F22A2A
:1020D000022028EBCEF880F301DD34025478FB1B9C
:1020E00030193828186003C0855401FF020A4309DB
:1020F00045A02088F9FA00A8E20854F92404021344
:1021000042A28D8124218E809F97401980222E67C4
:102110009668A9C9051A58FF2DD120082802231056
:10212000FE24C0006A1104457CD0180988062D5091
:10213000F9FFD828053FF31261007B625BA237D913
:1021400005FF3404412864E01BC1D836F5563869D0
:10215000AFA7681C88FB8BE2E583FD0BE05213F20E
:1021600006D1D7BB881081F7AE9467DAEF79A965FD
:10217000B576B1FACB3687F3CF18F34C1A6DFF78EA
:10218000FF8C8E2E33FFD0CD823790FD186F928C4E
:1021900020D458CF33E8CD57FBEEB8B3FBBD0020B9
:1021A00046E62625B72032DB8BE4ACD78219D36212
:1021B00013ED71088AB632081025BB3601DBD7D87B
:1021C000FB15FDEF81B17D8F7D6C9237DCA8FCD7CC
:1021D00065726908C7F87D2225447802BF5BEA363C
:1021E000BD20FDA229E4CD331CCF1F5B8F01ED2D57
:1021F00098467BD130FE01B75C4EF06DD6F259B3F4
:102200008A7E2918C43D8668B2FDF2FDCD5CC20409
:10221000AF5E0E687C5DEA667308010266A8A0F9ED
:10222000ECCA584F08EFD98C9E69059649C0A8FBA7
:102230006FB608BA01637DCAB22456BB02A38FFCF5
:102240000547716676F8030FCDFFDB2890FF0D0C74
:10225000C0BF4BFC04B1D612383C6667F5B38CFFA7
:102260001DF8F9624D4E100693E620A9C901EA63F4
:10227000CB53603BACB15D7F1067AC6F20FFD8CB18
:10228000FC51C6353FBDCF98FABA8C02FF315B8254
:1022900034DB655D31D766E0F8FD8DA5CB53ACFC32
:1022A0009F33794D1FF815CC5934020DF2F0F99493
:1022B000C3B102713EBF62DF37B6802568F5FEB953
:1022C000EB8A6E4208C43E6FCFE51601ABA2B0F8B0
:1022D000679973EA840232C5D6430127A4FECAB7C0
:1022E000F8338EF28CC4D65B10624F01CA03F2FE43
:1022F000791124DD90B0778BE88E5E3B2BAC45BD29
:1023000082CE2D40AA1B08BF5304B842F419F46EC4
:1023100064DCBCFF6A8C82E46712B2FC83935E8249
:10232000A13BCA02405E83FC1046874FBAF54010BD
:102330002036DDF830457AC819B633349698E8016E
:102340001A20EA808CAE66AD6018E32C6ED1301096
:10235000A9CB5CD3CB0902EBD44B8172F9062120C7
:10236000024CD88B2572E98004508F42A281B3EFD2
:10237000FEA10204F390C01018E622A20C1D78976B
:10238000415B18283D420D08AFF6BB0A0480666425
:102390000366E59628085703F49F70D50173102350
:1023A000E084814AC507013CF395020EE0B666D190
:1023B0006B3A79F719B39AAF8F048047210ABF2A85
:1023C00006E1004852F1DD6B7ADB08D909A0DCFF99
:1023D00040B7DA822069AAA1E6C1F30BCB3F2FB444
:1023E000FBB47E97D3CB66304281BB8489F3E5682A
:1023F000DAFB1098A95FB6A3FF3A6FED8E64FB8DF0
:10240000EDB49F9646E42C447ED79D5B31FB5EE0A5
:10241000FA6675B1B9D8FA4C1D18BE98A6CA7528C7
:10242000EE3FB3D6E830CD6530FF19CCC6D3E6CD4C
:1024300024EC62EAE520EDB10895D44A4879F98B9D
:10244000AC11044B88A304F6C8E0FCDCDD1B378C20
:10245000A87CFFCFFE4B18FFC2B3BB7E334357AD02
:102460002017F8D9CCE64DE6FA2FABE23015FEC8BE
:10247000F8FAF3AC7EB5FA078308666DF19FC68360
:10248000FB17652CDDA1BCADC835AF33CE16860178
:1024900031F9FB01B66EC2D888FD51A635526D01E7
:1024A000F2EA3235BD2D386DB6965EECF7026B2F31
:1024B0006D6FDE0720505004F2B6EB67C4E8FEF201
:1024C000140877785842090A3D0D8089FFBFEB1840
:1024D0000908AC4147BE4FA008849004D00F0A51B0
:1024E0001328EE028124ECFDD05B029F7745A050BB
:1024F0008020D7D8FD1B3DACD40C81C938626A65F9
:102500004151FCC0E5BE976E1EC5291E01ED566205
:1025100060D225560667F461B3E0817BB01E80C9A6
:102520000310F38D8430CFF49830D7D641E61403EE
:10253000CD0C0C4155F0C4241840535D84CB0108E8
:1025400069B37B02764F35E060210C6A03E80242F2
:1025500003E5BDAF0167FB7A22119826AE502786AE
:102560000228CA9005A35AFE586ED4907CACF0FCA9
:1025700080051446E82218107A7A9F90300A13F9E1
:1025800001D304725C21CE0E6646868A040E10408A
:10259000BCF77E253101264424BF77608542041EA6
:1025A000312EE0FA37412C0827AC26C002C879202A
:1025B00063143CCD3036C02B7845A2F39C673FE0D6
:1025C0001C9007B020F816C00358101EE0013C888C
:1025D0004CF3C60887D30B40F37338FB09104466ED
:1025E00009B9038641BF30BD4E0880608C6ECE4174
:1025F000EDD75161DD15F6BFA09C6984F35892F8C0
:10260000B326F7B38B60125E737AB3984DCCE00CAF
:102610002CD321F4B4B16E06800417052260F411A6
:102620000C8451B33ACD580440B3889085F3FDFD36
:10263000A004B63166480297EDBB0D7D4F185F656B
:102640008941A00A34DBF63224A8F832181440FC81
:10265000C0040A34DF14EB640580DF8B186123604B
:1026600004D38120560CFA4B80202BCF9838F3D519
:102670008C59FF517F063365361B131AE4E514FEAF
:1026800020EEC8FA80F5B2F07BD203622DCC7BE756
:102690001EBB88D798827DB299C9D584BC8B90F037
:1026A0007FCCD9E040CEC6082C201C1E0370BD98FC
:1026B0008138F360FAB090902658509E0B60420C1F
:1026C000DB756841E49866B320BECCB3B182430B9E
:1026D000A340F560414C30E07839C20802D9870A3E
:1026E000801E1172F3EBFFCC150625C790D8FE4172
:1026F0007FEF8C40E9F1A764F129B0650C0AC603AD
:10270000C51017010C3EC03100221001CD9205D139
:10271000ABBB34211FFF605EDF5FF6EB0EC803C06A
:1027200098B5F498C80978D936360D21E398BC07D6
:102730008A30EF0D780F99E4C6800C9C20F30318C3
:10274000D3C6E8B948FAA2846D6E060810F9981B42
:1027500069E3985660711919E5E4FFC377E79102C0
:10276000FB88012F5C2FD3218BEEF3C081FD149CDD
:1027700058B304580F1361104C6BB9209839707C12
:10278000B33DF92744AE80BBE1E5312F0FE0D326FE
:10279000C128FC980822608020CCF33152F8EBACC1
:1027A000110A82B67245200974BED98B73AB09CC6D
:1027B000984B88306C62E2D47E0A430308204108BB
:1027C000130129D030EB42F72882FBE398FA65E742
:1027D0009B02806FE6C531AA14C058FB039EB54A20
:1027E000FB40F78CED86761A0FB45EFEB18E7E1834
:1027F000302620B4C0DBEB036240C298BFED5278B4
:102800002342C9CDF92460082663986A64160C2017
:10281000DB440939A3E5A93FF9CC50B0693FB35176
:1028200008134002DC8824D782C27FDC1362018C4B
:102830008205FE304258F8848528EFBB32D59C448F
:10284000E81E322BF172989799985C30B51266F8B1
:102850009110C14661E0414F60B3089081F5300AA4
:1028600020C1D337EB147FB89838FFE0659E7330F2
:1028700016C002795750176A3623801E6F1B30FC32
:1028800076F97D3D8007B1D3EFD00338E2301F09E0
:10289000D3C4035A00AF0F199822FCF07166DED240
:1028A00069F6EC86F3BC306717B357B4097D7989B4
:1028B000D62120EE093013CDD3582077FB65085080
:1028C000FA5DAEE3FB176112208465B320A71E30CA
:1028D000BB64E7B78109F1310206207E10050B6069
:1028E00004D7D39808D3433EF34C8409B06BE1F985
:1028F000FA838A22EF724208094CA1893007782CAA
:102900003F03602401EC208834EE6ECAA420F098C6
:102910001E1B40210A07051020C280A0F7D0085ACC
:1029200048734EA010F780205CFA752A9FE2163992
:10293000D7CCACC266E380BC98CA4BD7C0197CE642
:10294000AE70FD302CBA44EF2FD2F0D9E001381A26
:1029500066BB78BA57BADEDB6D52FC358FFE57B3D3
:102960006151A56E37751810770088815AA898FCB8
:10297000F0142F7284126184F98D4359C61280F7C6
:102980006E2164FEC480B22E7B2E136041BC6BBDF1
:1029900098424D666212FBF6F923FA804128BE3553
:1029A0009358C71B2938804684D71804BBB00C80C5
:1029B000487E37CA2EAB7D4526C110800805B7FF7B
:1029C00082113009404102885D35FF8120080431C1
:1029D0001141F95E98FC8004F0201EC008786E5DFD
:1029E000501093BBCC1A2BCA2CBB478B302BC89FE3
:1029F000C7027A200BE0AF414598B0BF1E8E23C8B6
:102A0000C88FF59805FE981D91E798FCBFAD63B39C
:102A10001C4F66EA47F511831A46E6E81886027EDF
:102A20008897E609FA9802D1C01432B345C0D5B3ED
:102A3000229B0CE3B038667BCC304106BF8A233B37
:102A4000934C82BC9827141011A30BF3B3C810BB8E
:102A5000FEDF9820C0080340157130FC4F3AEE1895
:102A60004110734F1BF23006D5F8A9AF01C48CD0CA
:102A7000CA1A4197D220EDEE2267C8490BF5082407
:102A800001A4BCF678F9B2E37CB8032529041DD96A
:102A9000986B967BA7E7B2F1C4809ADF763C04DEA0
:102AA0006F4D80F0F878981A05CDC81066C80FD31E
:102AB000A0BB411C5C30AC0ADAE890ADCB404BF8CF
:102AC000824AD7019758D6F957A8A3A502EB801CD4
:102AD0007DF6100C84671CD0FCAF04119888A718F1
:102AE000C360826D9347DD88AF089604B3CB194865
:102AF000566684095FB3CF5D1264422CD280050C08
:102B0000C0ECD1C8413577974AFE32AD2966B3AAE9
:102B100020A222CFE030C7D302414C86048633C7BF
:102B200088099FAFFB4026C204954986D318CB3154
:102B3000C012461C07EAFA020431DF7EFAE298C9A5
:102B4000FF3598E030DA0648CEC80B64063C80CDED
:102B50001219E0BCBD981E80C8DB2BC83EBBC40365
:102B60003820EE442310B4FFF1988E5E98B710F130
:102B700098AE926019F3BE76CDF966DA5E98773733
:102B8000DA024079781DF0E95E22D3AF84EFEC9948
:102B9000FEF398BEF98B268FEA5DB398FF9F4884B9
:102BA00089B0B508D35B625E57A012253059497DC4
:102BB0004813D3098498FB080A60818CBD98E88586
:102BC000FB10C6208A27FB961101CA040D9E69FEE0
:102BD000C0448960AD8441E914661FB3DC5446D219
:102BE000EF9540A1E962B6D746D4F5CEA328F57B90
:102BF000EC61C4FB8653D93A4065F13CFE41B50512
:102C000059B3025C3D710996F36DCBEFFEFD982040
:102C100077E0D9196E0F42F598F0DEB881780EA3EF
:102C200060763B33C881FD075E982B4E4E61CEC85F
:102C300006C1DB2BC8DA8B90FC038102156A4F0BAF
:102C40006DF62D55C398FD10120D7A4182D8BBD96F
:102C500011094FFBC1029808EE1242040D26262BE3
:102C600066CB5B2EE8F68B53F85DFAF532EC9810E4
:102C700060F7BE8411B0785D0064038490F31CD9C2
:102C8000BE987A20C4B7111187404CF988053008E6
:102C900006789498A9188F08300F79FBEBE0012D86
:102CA0009E30401EC002ECD7C8818D98EA1E6E731C
:102CB000209BF32C105FDAE414B4B5E8015B279095
:102CC000D382380E0FB830B60F9DF30358107B5ED9
:102CD0003D08DA60F8F030EDFF8360B830EE3CC5B7
:102CE000F3DF943040196FCABE81F1811C1DFC30A6
:102CF000DD0204ED98621017D22130FD97E8F23022
:102D000005B95D40BD81B3048218B930205C506FB5
:102D1000F64AACB38111D7F7469DA597D591B34D2F
:102D2000752AAFB05E98FA7A101486EE8E0A51BDFD
:102D3000F42D3B973012FC9889836005B6A1EB1700
:102D400055F8A8738380D0FF201A442329822502D6
:102D500002301E06D1164A48B5872D2721B7F0FB51
:102D600064F330400866F998BFADA0609619415EE3
:102D70009606E3C180B2154878E398E505A430765D
:102D800003CD500CA73878982F1804031277B69803
:102D900030206F5C650615FB295FE39E44D3100667
:102DA000C492AE01D3670C4176E8FE4D482002CCB8
:102DB000062301CAED2171098A9826A5E50DC9F5FA
:102DC0004C12ABF88501D631C0FF8858040A600266
:102DD0008C5DB21B16809222A2D3B7D6099F04D174
:102DE000F88411810F05C0AC02C5F560F02484059C
:102DF000025A7898AE275923A2DE9A59B5C94016CF
:102E00006DFAA409A08081C6229340C66560CF04F4
:102E1000240F310198C4FFE0BB2C3EC816C00379D3
:102E2000ED2E02BFB1D798787AC51CCEE9B1ED5E20
:102E3000A5AEF161300259F50BE8019FBBF44006E5
:102E4000D0F7007A100B6EF6E8ED0E15ECAFC82E39
:102E5000A53F6ACDE532910233E6D56640E398FCA2
:102E600008D61081CA09E0EDFEC2DF719762C6354F
:102E70007CC8F9E198AF02E43D643B4C86E0B3289E
:102E80004BA619FF9210673CB3053004063F421869
:102E9000011294602FE0F20220C014DC32E60382BB
:102EA0002195B3FEEDB28024733049119D0AD4827E
:102EB00089089D5AF74968DED9EB34CE66A0040232
:102EC00002EA3ED247DD93216BDB10D0F108824449
:102ED0001316D3E55E58FE69A0729888FFB7A8ED77
:102EE000BB0CB75AB5ADEE1072A4628FC4B23DC62A
:102EF000B892FA9B26EE1D30F461107E7F30E36DB0
:102F0000F3F50E71E69C1947FCF28503FFE2AC383D
:102F100010C241AE18972AD564C81AFBC9E2674DA2
:102F200008050B7491D0F93289E7960190D30D20F2
:102F300079C495E50DD71F78F605CC5061423C84E5
:102F4000496D8020DF455D64FD4C800906002A75CF
:102F50001725B7C0B166BA4460FD90D7224D17DC83
:102F60000365F465FFB23F10D52188BB2072F018CD
:102F700077B8D149D3CC68AE40E4B00901C6C19856
:102F800030D728FF3F778005F0400EC4DC0278433D
:102F9000BB3C6B49ED0216F308BAFCB5904BAB682D
:102FA000ABBC98BDA578771F10CDC71ED032C60B1D
:102FB000E2B9687AF866BAFE4BA7C3B201EEA3374E
:102FC00046C926D6A06BBB965855B38CD9C8BFC08E
:102FD00089FC74408A3080E8B9490C27F7A9C1FB05
:102FE00023CD19E4C0D1FA20A3601440F5B80AD962
:102FF000C8AC10F1BB4082118BE65FB5D456B384E8
:1030000090FCB38C474F49D31130028C12B97FA288
:1030100089608C33C63280FA158DADFF04F8C9C2C1
:1030200015FFF87D3269757D3FFE786719F3CBACEB
:10303000221B60D3B8F9304876FF98FF2434936799
:1030400018D1E339D8FB11824066B6B35BF640F580
:10305000CEB9FF899166FAE673FDE42DC6BB9C28C4
:10306000B7FA0451D451032044C53E1FD091D42453
:10307000DCB19897B0F88C11FECCBE7FDCD7DC7841
:10308000C64B188E1C3B1AC84A6DC93FE9F2D8D806
:1030900019C2B5FF8091AB4E0550B7EF3DE9B1FACB
:1030A00019B7D1B7F788F24209CCFA6133550FD777
:1030B000CD5908AAF4F9FD36C0E3513CF7033BECC7
:1030C0001CFFB2EA75D958DCFA80591210CFFDD92D
:1030D0000819EADD68416C5AA5A801E90BCAD32595
:1030E0007604D9F0FC9D366BE6B84146A8BB667AFB
:1030F0005C205BFFADD328FC4BBF268441BBC006E0
:1031000010E0724D963B042211BC40524EDCAE11D1
:10311000108DDB16DC82AE140460FAD7C18A849667
:103120001002C433DB09C0F319F97B769AF90866FB
:10313000DEF310DF0179A2711632D408FEDF17101A
:1031400001120B0618161BB606B6C8E5A39029B3E4
:1031500007DA3066BCB3600309A0033C0CF580506D
:1031600011609C0B0590F3BB820488CB204316B9F9
:103170001983FD21AC20F8E912182B623C1F84480A
:103180004A441073E6E7687D2C21599967336644F9
:1031900010B58A9F05E381454408134960F3202454
:1031A000A01D7A859F25FCC024580C12FCC8FA4348
:1031B000CB297FB667331DBECCDBF709822D238078
:1031C0007F4D41BB20E0B47A0858FE802F06971A45
:1031D000537923BBBC800822EBEC011045B0086991
:1031E000F526FBD141BB67201DF92644FD18B8FE2A
:1031F000E1C540785984FD497973FCA76B96215746
:10320000B6A688FD49B98FF80ABD81E8816244E716
:10321000A9AD1832FC02A3B297B81298329F6CA0E5
:1032200022AFB2B974623B2FB790801BB0F405880F
:10323000F3D08ACD2EC4327DCDED9B3C38FE1623D3
:103240001BBB123FEB6C75F3EBC49BB3B219CC9B69
:1032500054BBCFE9AB09794B99CD8F30F8194A6B44
:10326000751050F78C4869F6938210DCAAFE37C9B6
:103270006F55F8FF6DB5308095B108B766EAD9484B
:103280001D208A7ACF818CBBADDB3B040DA4CFFF20
:10329000B2CF80C54D2D8C4A7FE7A66A50FF6DF6F0
:1032A0000823BB49426E3533F565A095B9A4087A69
:1032B00067368B0CFF56ECE401935FCCBF4BC59592
:1032C000F08B36FFB8FC3244679B05A09C0C80DF76
:1032D000CFEF34F7FD86F98D7AFC08CD3164A2DB9F
:1032E00058FF18A79F4BA6FA521304DF8C59658428
:1032F000C8B3FD323FC325FF40179B92B897FDC866
:10330000FBE37E583010E9C26CBA7677DE58FFB323
:10331000FA8C9964BCC7BD8DD82C667BEC7EFFB15E
:10332000B12316D62D582FF6323BB0CD59E3A90F55
:1033300030B2FECCD97D67046DFBD71034CBF4F8E6
:10334000FB067FAE272016E4E333E59CCB7D2211FC
:10335000FEC528FDDDD3018C02C2651508B833D93E
:1033600056420DE990FAB20620CF2C3EB13FAFD9BC
:1033700031104237C89635986F4BFEECFE63CA5841
:103380001C04C7E53A8073A1D3A67A9E70FB0ADBC2
:103390007B8ED5C87C6F2C3DB6B1ED4308FC03682D
:1033A000A400B5F2C82E86F78243F3B5425BE880ED
:1033B0003460C8FBF544DBBF860182C010D61CE731
:1033C000BD815B2162BFD1789335B769038E6C10E4
:1033D00002F83C20C8CC36F87804D330186706E2EF
:1033E00011B003A0829804AC033819267705AE7893
:1033F0000A3C858D78FE850C053041338E82E020B5
:10340000F08365806473C004CB904DE02840336343
:1034100060FDE410E20C804019C703D1FE210201D7
:10342000B00C40044539DD3242A77CFC6BC5E58019
:1034300078B3C04528C16074E720C1217051C5230D
:1034400016A6EC4E8440E03928180AB98B54D09265
:10345000FFCBE1E127EA09E74B04C062FD155A7092
:103460003643809F724BB38843EAFEB67A9DE0FEF6
:103470004014A0E2FAA0017C2BEEA3FA5BFB72D70A
:10348000C6088B215EC39797F89FC9F7A49FED925A
:103490000C8144EF00AFC1D77FFED88F54FFB40436
:1034A00002FBCAE584057DF4CD64CCFFA9E019A236
:1034B0007DCB637CD1B1204EED4410FBCFE85A4068
:1034C0008279458C72CD02D1D8034B7C082C9A9B13
:1034D000CCA0FF203FCFE5C921E67A844639158983
:1034E000ED8BE6B78DA868FC9E267F6C594020E8DE
:1034F00014CDC8DCD2F677F8F9CF3C8E49CB595AB7
:103500008006CC24D511B3E1D8FE681E63C6754E83
:10351000988FC2E598BE7FC9EB510AB5B2026AA87E
:10352000B5081B24FBA45F5AE5019B56984C97EC09
:103530002A1047966701AB7802BFC8F8642CD448BC
:10354000FDDEB641A4B31085A9EF18C18B36A0FDEE
:10355000719A9C6DB1028CDC4220A61E10036DBCDA
:103560009DEBD40005FA897DECFD7F679021E3B5E2
:1035700099DA33E23306EAD89DD10AE8E7FBA030B6
:103580000C26D0892220FF63600C0DA010B6C03A33
:10359000DA421AF07F3F25A001044167B8951480F4
:1035A00002AF69F58401E080914200792010025E4B
:1035B0005D14EE11B0FFFEF10682D8D2583FE11340
:1035C0006A1B04DFCE81FB832BF999C0FEED980CBA
:1035D000B34142F0C003783B0CE040D41E18343DA8
:1035E000D88841309CB530D31C2F0753EA18C4014A
:1035F000302EC6D31E4F9C33B958FE0944A2D6269E
:1036000080E26C8371118C22718010CE3858047F57
:10361000B3212880093011673BB341148A7E674C7F
:10362000A401D320022FB4D361F5AFFA3E12304289
:10363000C0402D1876534135846E8A80BCC788B34C
:10364000C6590CFAAE5EACE822C028F749777FBABB
:10365000DC21C2B77A32303F1298FCF960813C809D
:103660000550C51ED0871A0F9960869043DD401E15
:10367000FCFC0B242B3C39B4E0FB810CA005F2468A
:103680001903608BAF79E816C4B134F364D3D1F871
:10369000FD6607A771E36D7DAF9ACD69BE6D3C886D
:1036A000F2D102E17246BF20AEB8C8B2B40358E608
:1036B00084013135FD06053273B48404B38BA460F4
:1036C0003C09DFE826B32F89882C19436BE33BB014
:1036D00024C0C0B35A2CF850E9AF23045C11396CF4
:1036E00078F8FA8A06BFF44AE64801686DA83504FE
:1036F000FB31AF217B984CA0013465BB24AAF812A2
:10370000073480023A29194357698DF4C5C2129FC4
:10371000F1501001449DED98F8FABEAF5382F39832
:1037200053FC3796930CA8F8061231E96F661833EC
:10373000ECF9F4F81EE0EF17D2FDFCCC5EE040306F
:103740006BE1C0EB33F9EC0F82E667760644BF9974
:103750000681F01E72D30C2A5CB0028CCD8310F669
:103760004833F3E0FA5381AF102C85E63861025FED
:10377000112DC028E102B3272D8081D9300AFDB177
:103780003A0610C17B862362040C90041453B00ADD
:103790000869DD5912FD3AA64210C8F24ACE0B0C58
:1037A0008809739C16EE58109DB3E18801886D80DE
:1037B000284722B480451B9445FAFF01BB3C6A2090
:1037C00010307F2138FC60C6800CCF01F0BDC802EC
:1037D0007AAF207B9804800734FC986C362043C96C
:1037E0009826905F025D84FA79200BE001F498023C
:1037F000EFF3C881F58B3C6E4984BEBD942408501C
:10380000D1400C751A92FE9F028C43D2B32F06351D
:1038100098D9E84625585C00D3CA6040E661F32990
:10382000FA4351E20920C45D5099DF0CF5776F44EB
:1038300028EA17164FA07F6B17B0C9981BA3E96041
:103840004420F340096BB908039A623082674F60E5
:10385000FCBB3480E246D12273601168E7A15C238F
:10386000776BD443DC9840A401B1A11E213046E41B
:10387000F421290401F330EF12F9824881297F2BCA
:1038800030D8684973E0BE8CAF58C903C64B82B3C9
:10389000F98D1069E66256B077B8F91CB3AF7212B1
:1038A000A506EEBC98EFCAD91CB36CF38041FE9616
:1038B00065EDBD51AE8319034310CB5E3E3DC5613E
:1038C00010037030E732F924B34016D78008BAD21B
:1038D000621201F298F9D7465E8BF02001800559FB
:1038E000DB8BDB8109A21022AE5752A0D74574644E
:1038F0004004EF76B8AF8405310B97305875C0FEA1
:1039000098784A0864154CCB731237B1FE04DABCC0
:10391000F5092420807F49102146E9C48290D041D6
:10392000E72C0230C660FFEBE0013CEB1C9B300251
:10393000794F47980139095003CCB20F7C98D95D73
:10394000E4E8812C80446782028303E45E98C00728
:10395000F0990EB038D35E98E510E0FDC32B5741C7
:103960008D30BC98FF5FC503D637675B64F513AE37
:10397000E95988C606B4C0F121A99D81D348FF79D1
:10398000927D10723022D7D0982617DAAC799888B9
:103990006BAF0501BD21B30A2F81D162B3C61018E8
:1039A000ED8360843930FA83A0341B101230C021BB
:1039B000FD610C8CA16E1B067C571A4061683C456A
:1039C000A2D9A606B979CBA904D38BF374F084638A
:1039D0005A75BB1047677780085E98D9C0FF8B8007
:1039E000817EBCB1F3CE5AFF09E56A8A67A388FBE2
:1039F00078B3E74F1E905A100F77B49806C195BB65
:103A0000033BC8013D3BF77FE01D26DC34031A0C65
:103A10000C420F30A007C17685C2699EC808FA80A3
:103A2000BBAB1069EFF10141221137E9263C92123C
:103A3000614028EC9D0408D4800AD6EC214AD5D3F5
:103A40006BE74C20FDBC46C0081AB3E7C862FA30E9
:103A5000B6B00AE043740B8041BC9852D7E5023BF4
:103A6000B2C88CFEDFC7CC807751B1B6DB9AC08478
:103A700051AD217F2F98049360012C10FF30B020AE
:103A8000D0FA60413C5E62AE80235D9DF9303141E9
:103A90004B966BC8E48C0CDF57E56289A5239176C1
:103AA000AEF90FE030BCF4401EC3C678778698DECE
:103AB00090FD8877569EDA29723001EE3B5DE0B0CA
:103AC00033FDE5887F924E9D83B93D827784986D62
:103AD00092716F6958F8DF02FA04C11018016FED96
:103AE0002C02E530101DB390C8B6B0086B19041154
:103AF000C830093C4EF85F728CC0B331C0FA281848
:103B000008036167B3913066FAA01395882BA0D3A0
:103B10007A813320D7A8113C66D0821A400A09E680
:103B2000304434CEF7FFA00434BC82A627040281BF
:103B3000F9A10114A222F3A48002213452E5113824
:103B4000FC7B1126E271C8DC9D77DB0819BDF92EDC
:103B50003BD041206153C22866558BFC4F821A919D
:103B60007AFDE25D3BB3E0CC2FD31C4119C020BFEE
:103B7000188B30F6F908ABB0887DDC4910E0447250
:103B8000F82FA9EA64493470D0E6830D30AFFAF714
:103B9000FF0546022EE109E8843F1220C10258E9E0
:103BA00004226268888830D76B8E4D8A511121C0FB
:103BB00084C2EF036B897B60C2145E50B468FFA9B6
:103BC0001AFE844AA1C2F903C3E164408C5D04AAD1
:103BD0008F18F22EFE5F8804DBED87F55A90D780B0
:103BE000109D98E16A280CD765A582C70879D4E7AB
:103BF000FB3140F778FA60816979D9C8AE786B6A91
:103C000040044E8CF198935C236219C8AE014B308E
:103C1000F075BD6B0B8022B2C87CF306C800199307
:103C2000D336D358B5F9F21AC9C8F02CA09FA08496
:103C3000F357A019213F6C37D3111FFAD744F898D6
:103C4000BF62F79F40F303E1FF0B0522970A7065FF
:103C5000C8DDDDA7481902881868B35CA16CBB6C8D
:103C6000F76FE3982F88273CAA40C0C60898D60B68
:103C700062E6F628C6E0746611060A39EA50A12603
:103C8000898C045AE5AE114F3009F38580312C88B8
:103C9000DCC07AA05E980242EE7730088022209B3A
:103CA00051C80ACDC07F8C20080111B4FB6DB676D7
:103CB0006F0B3D65FC87D419DFAC0E8F0298CB5D8E
:103CC000E60CEFC3E8FBE001207F77C4200677BE57
:103CD0000FE2EE403080CCF510E039200C2CD9C832
:103CE000049DFDBBE0579222F130DEA545E8EA8B4A
:103CF000884C270EC10CCCA7FCD030C326C0766BF5
:103D0000C8142BC8A6E8B39827126201D740A45B59
:103D1000A4E54EBB1708107F5AB1ABEA1455824197
:103D2000EBA80DBFEE7BA4FE8342ADBF23452CF96B
:103D300030162F9EF298FEF5B120F36E241157FF36
:103D400052FE9D603C412D8101C2AFDE0AF0982BEE
:103D50009E6620E1F9600AF698F240FCB4C8E530AE
:103D600034AF2B3068CCC5D4B36AC033A0BBF0D518
:103D7000D578A71F76CEB21616C4BD9803E6644068
:103D80003C5CFE5FB6E61D99C82DFD7E72FE6D306F
:103D9000813096194AFF914579E78BF13DFF758097
:103DA00044FF2198F32CF011FD8049780920C28F3F
:103DB000CCC84C17F0300A19FA72162DF3DB9DDBD4
:103DC0000C047898E9E606D0F88B2FE0E430443E06
:103DD000425804BD988CAE4066DD60FD6B149F8038
:103DE00008192110010E0DEC80F5ECE0C821696185
:103DF00005A22CB3C812FFA2E0FC90C8E0BD848DE0
:103E0000A808F9C820BC7C0C81802088EC97F0F8C9
:103E1000DCBC031DDCF759AE9DFEDB104178D5AD4F
:103E2000EFBF1CCCCC8E685BF8FDEE4D266E1EC538
:103E30008EF2CC53EF3598CBC83FA71726311045EB
:103E4000D3AAFC18DA56FFAC07C020A2048AFA0AEB
:103E5000F79860FC24052BF112A9B15F2C49AF85BE
:103E6000E45B29E15260441D9204099B9B7B068F11
:103E7000AFF398BFB8053AB326C1EED71240213B45
:103E8000A790EBF98411C201427647B6CA6201D805
:103E9000F598C6DE986319C8EB1106C0BE61090427
:103EA0000C84BBF2123BE7488090934085C63022D9
:103EB000BFFC4B02ED3C34022AF59830AFB5986454
:103EC0004196C8770B30D3FD98024B8220F2C87D13
:103ED000C6C8825810FE98DF68FAE898C04FF9D932
:103EE00027B2417C986CB031FFAFCCBFE1C098C025
:103EF0006077C38C43D3C6810610FE0D30FF4FB3ED
:103F00000A20C40476527BD408855C46A64EC8239A
:103F10003042CFD261EAB11EB3CD6104209F2002AE
:103F200006C12898F8080A40012C7551EB98FBB996
:103F300030109E022220636060A1A16F1541F698A7
:103F40000169189A8431F3983C647CD304441803C3
:103F5000382C5D812185730302088C582F291101AB
:103F6000C8A048E4B4FE54B708E1E96E6279D12DE7
:103F700077C6F619048826CFDFF66C18EFE438FF11
:103F8000E0019F1167210004C0CC83784AE08EDCF9
:103F90008EB47D194002C0413C9BE531B423EE81D3
:103FA000241C95802D95C8F448FD45F3EAD8847407
:103FB000FA58FE040676F8124023084B8B30EBC803
:103FC000E0CCEE0862D3B27DB64A577928AB8E4476
:103FD000E9F937229789D8F1F70CF3868CA6DD5BD7
:103FE000F904B830B2D580C070418C88CCEC16B8DA
:103FF000EE664C93F88106DDB968055F601F21020B
:104000002E47D4182075CF3D1216C44405DA5C0E35
:1040100002BD4BF0BFF88730531EC02E9DCDD51C7E
:104020007A9820721E0108F39BB020055CB5832EA0
:10403000AB6E1D800307D35834B0E2F3C007F059CC
:10404000C8CA5910D37B91C8FC80415F569883D76A
:1040500009CBA8E38816E5E59C88AF6DB8585AB33C
:104060008C81F22E3FD375E682BBA3064EB537CFC7
:10407000A2FA80111B1020D2C2044660B30D094B76
:10408000B3C05119B396B240A621ADB384110AB39F
:10409000E047C040A54819021DB39EC8114C044C0E
:1040A000E840FD3634FF65E9628FBAFFBCFF20FBB4
:1040B000C2FE324B817038F3CE5CAC22E0018B3013
:1040C000D3B8F8185EFFB18065E7108E1966C6D1C7
:1040D00038D3C0ABFC6090FFD989FEAB4804FC111B
:1040E0008C93316EB388FB005EC8365100B1F34447
:1040F0003DD001634D1729FC824FF4CC98FFDF4679
:104100007A66961C9193FBEAF00432E3BC97EE3199
:10411000514FFB260204D8FECDF74CDE22F03F4C77
:1041200061DFD8B0FB9FCC20DD3F56564440E7F11D
:10413000F63EF9CE5ED40858616FAF3A106D7068E4
:10414000FFCF0DFB407FC7C0207FDB33AC8708F07B
:104150005FECF6ABA0FCD788C2A0F3AD45990496FE
:10416000BD679B4691438EE6F98B01287166E9DFB6
:104170000820A0D82F8023CFAD17F8CBDC02402039
:104180002703827980B3FB58F84DED0402688C95C3
:10419000E447BA58083FB2C463866623D22E93F52B
:1041A0003D08B26301236F39E85FFC4F71A8A0049A
:1041B00094FE03806A1A608129176C2501F224009D
:1041C0003460D129FA46A97BB30506CFA030861802
:1041D00050110C42B81E9014B700039E0ABC1B0875
:1041E0000520D8F0FC1FC4020854D49CD8D80EC0B7
:1041F0001828582120FE64841858B35B1012075900
:10420000F3FF48E37928A0FE4A403911500872BBF9
:10421000354A353440EB1F468440904E9663E8FDA6
:10422000FED9F2807A2F2C4B5BEFCCFD8F40E2E67B
:10423000B36DF7080D0C9BD6B8FECBC3EBB1EBD931
:10424000E5846F07F315FD949688F37B664004447C
:10425000D7C101B799B35EC2DBA8FBF5E018DB4616
:10426000FFA382B914EEC9B0F8C6B776016302EEB7
:1042700065C4396070B3FB3D64202BA88DA74CD07A
:10428000F4C920BC7188C577C2505AFC6207E9E5C1
:1042900079BFD8F4EEAD122047A2FEC8FD4580E7F5
:1042A000519A940C3BF302779751C57C6786C7649B
:1042B0006C7872E050FE70D19908D3DC7DB1FFB309
:1042C0008A3FAC17C2393F7728BA7AF2D4E27D33FD
:1042D000A00C1C2BE47D40F76B012488FF6520FDBA
:1042E000B60C37913C185658F29E91FB818C666F44
:1042F00050BA64DC9CD9121062BEEFB110DD6C00C4
:1043000048F8FE3351D5B904C69248ADB1F31568EB
:1043100014EBF1FF1A319523763C06FD3412FA14A2
:10432000F54B30A1F693F3CDE08363BA76D8040C55
:104330008B93D8F8627E6A2CBA326CFFD8F9EF30D2
:1043400069AF5667087F5964FEC6616E57BDDAE1F2
:104350007BEDF0FF62BF9FB60117F2F72CD6028EFD
:10436000B1548EEC5DE8FC2033818C2BE5AA80B340
:10437000EF90FE6157ECE801689596B3FF2BFBD9EF
:10438000801C6C9E800544EB5A66F9EEB776784047
:1043900020579874504973C968FC66ACEAA0476C12
:1043A000F16DAC0164AC66F843CC2363C54AAA8BBB
:1043B0007EF12260FD0A6DF0FD56ED0230CBB304B4
:1043C000164301BB5B6E1F6EDFDA58FAED5484BEF4
:1043D00059B6A03C706EDBCD4C5DF0A8FD887159DC
:1043E000AEDB29AC80045BF4D880C76E829608D817
:1043F000AAC6112627CB88F9ED7CDE018140028018
:1044000077A7B810EC412087080122FC90EFD9E68D
:10441000125123196D5FE2F801A0ACFF601818B0CB
:104420003E348002432D126F953504873014E680A8
:104430000673EB4ADB654AD0E43CC34C50806022F3
:10444000EF849CE01C058C1E0995C062F450FF06A9
:1044500011102A804009FE60B0FB00C4920467D2AC
:104460008851B3623FDD8121200C868990880E43FC
:104470006DCB18B416DD0D089F106F585A8641A4F5
:1044800018ED2DF0AB540610E202F250411AE70F7E
:10449000A5372C0B309897FDE89209B720F17D21C4
:1044A0002EEE31192FDD2310F1F9ED22F2855B920A
:1044B0002E0402FEDD98FAD737A502F6514260A617
:1044C000A05021AB964ACA25FA1C4016C8974F51F6
:1044D00023F6EDAF01403678FD1084A6F571AA8E63
:1044E0009EFF4579D3A9F196E5D96CFBBF5CB1017C
:1044F000CE584D40BF53EB60C8FE6CD762BCA5B32D
:10450000204FF03C2DE7C416D09866D7E3D182D473
:10451000BA94085944C67F861E287EFBF0FA0480B0
:104520000243DC5F832A806A956186B35AB8FECF66
:10453000016EC363FF7FB6406D1102120543F1BAED
:104540008C80DB76960158482639B69860E2B72809
:104550006CB0C8FD6736020428B55FC0629FC95DB4
:10456000B1626D8F8004AA8D01CA04E4C6F5AF2044
:104570005EE55DEB71C8BF990FE6D1ABAE08CD9C8F
:10458000CEC6E3CC2F832C76848CFF61538FFD7FC6
:10459000198ACB6E047F37D3F298EBA23FE5C2C3F2
:1045A0008F75A297BC12E0FAFC6B84084002826D02
:1045B0004890A0471E0211082E401357F52CEE8498
:1045C00045C1909E06D89A60031AE5E210F9C3B976
:1045D00082670DEFA00434E5CA2088AD33030C34A4
:1045E0004BE9BA731836FB4262EB0C0441FCFBE862
:1045F000F880013C15C9AB16F49460EDEA4C2080BC
:10460000185B03F76E2062598AD30602B303617206
:10461000F33152FDA608DB58E258FF5C41A4A0BB71
:104620007DB679609FD89D26B91801BE992DF9AA4B
:104630002BB3BE2E0223408297A7302DEE5010E7F9
:10464000096B055D151002406BB41401006057E45E
:10465000D9B07108245421B6968CA0221AEB3020D0
:1046600080EBA8548B10A77993E3DBBD044F7CFB50
:10467000E0012C3116307712D00F43EA3C88053C1C
:10468000901EC002D1B20F0C9EB235E080FF8A1E90
:10469000C803785FE9DB800CF7B00362EF810C0898
:1046A000F1E546E8C280141E844786BBF3C8DC816E
:1046B000E3D6113266766BFC96F4F3FDE3C2E0F8C4
:1046C000FF09212046C00488009B22178093D3163F
:1046D000FA58DE9002B3D8A8088AB3447189501002
:1046E000F36424F40570BEBF2FD80A0204C605FA8D
:1046F00041A6E7104012F54800AF2853C880015288
:10470000488902634CE0049066DE6CB5247FF83281
:1047100044348A06D020981AF6687880285E048A85
:104720002610645650F33E8DB031739CBCF9E821DD
:10473000685AB20134D8DFCD987CE4DD0D0672FCF6
:10474000C0C93F576FF3F2AB74F728FC40465E11C7
:10475000BF16F7B744FAED80FF957561E61C6EE071
:104760005584663108B340F5C002DF25DD06C1F48B
:1047700048B3C5C0413984FC20EDA185D2D1F750A2
:10478000604220E4EEE5D9580404793619A7FCBD4F
:10479000DC3002669909B324E44F7946C08890A7BB
:1047A00008B34CB0053ECE43FF8089027ABF421465
:1047B0000109EE15889119E04A7821EEE34C841541
:1047C000109CB35B5859528A28BA670D8CDEA1E65B
:1047D000460182420BBD8E8106311FF1FFE0E201EE
:1047E0003CA09F9D12D08058E91003E01C07D732EF
:1047F000408C98D70FD9F30CBF325EA59B2CD3B059
:10480000BFC55832E068F36BD3F0FFF10319200BFA
:10481000605D6AE1D0FE805C10E35E989260F7F321
:10482000FF979B64799818F387ADE5113A9BBFB168
:104830000C78D345B6DA9B33396FD9F9960F411608
:10484000CF8222EDA26004DE8090B3CB025957CB19
:10485000B36C7DFCDA2A0A64EA5902E0F3092211FA
:10486000163C186B938EB3C0F8FBA0401409BE121F
:1048700048020838BB248DB55022C2108276F5D587
:104880004D28E6CA73B508159081323A1A5003E6EE
:10489000E72190FDF815024921685F0DA031340829
:1048A000D7D0FADB4AF2E20CFED1AC81DDC4F3AE24
:1048B000627AED6FE678EAE14226D3B970FC5733AD
:1048C0008A980EECBB10CAED6851FC4E40AF107BCD
:1048D000C20C82010813CECEC020FF0A788DC65CC0
:1048E000F362100F0F411C0888C7F804DD0184AA89
:1048F000EB4051B88CF77030B946562C0251C43396
:10490000C705DD0241D0715E66D00932B3F97C087B
:1049100002600419CF11A495FF84209310777414BA
:10492000385960425E8111300A9CAA180113D7FBE6
:1049300048DB462DB206FA9A4997D1865CA7E50C6A
:104940004C84672B8B82FECA20040C800C910C6077
:10495000F867F23020B9307A3AD4E041E75031407C
:104960001ECFC883430FE4806FCB7A0A51F8D3C5BA
:104970000D90F2F02016C463FF1778EE78986E78E9
:10498000200E87B96AF98021ACBFCB98A0EBCB840D
:10499000A95DEB1C6020F6C73176EBE309B8500641
:1049A000C0B708F424B7C6CA722FF3E78D30FEDF14
:1049B0002001E7068214460B6128E75CED4AFC19EA
:1049C000B3FF7584093067F6B2117DE326C80890FD
:1049D0007A1E825DC0FEF9C0081884B3F33F4930E7
:1049E00041208DFD50FD148A220488127B98848D0D
:1049F0005FEDEF214012E36FB830036E5A7D12BDB8
:104A0000F821883402277D425F6804BB21533802B5
:104A1000E64AF960106A0C0DCCF5140AF0FCE7DFE9
:104A2000ED76B79998990366F27D015E35E55DFEF6
:104A30009620EBDF66AF02A27110ECFEE0EB268859
:104A4000072FC8F5A544DE829BC0DD80CCDD43B7CF
:104A5000658805B34DE80370AA08C49FF30172107E
:104A60000F404FE690FF20011D0B46EDFCA5D78EB1
:104A700030D3AD854E579A56E9084430D328030900
:104A800003DF6824BAC640F89807F3020D0535C95C
:104A9000EAF9FCEF0445BBDAC798E6819189B04694
:104AA000FA04089820232DA6362B5BB2023919840C
:104AB000204032AF22E2B4244453029B14C4D78076
:104AC00008B098440C7085107760FE7B980434160B
:104AD00016EF57980B0D230C30733003015E98B618
:104AE00081F39874AB620A3CDBA0B5F9582F16F439
:104AF000EFF00E0E400243F35981E60880F956109C
:104B00003D05D9C8D70361DDECE698BAFC28D6F399
:104B1000D821DDAB1141305DF92810F36D9BBB014D
:104B2000F82374EFE1FBE10322C0C00450C8136016
:104B3000BAEF5BB302ACB342EFACCC97DF190DF820
:104B40007188325C4106C6ED87110D5C03E7059064
:104B5000F9998480016F98491030DE2D593E98E50F
:104B60004DA844E79BF532DF38A1465222FB9A60FC
:104B7000036C04BE5F7CDF50884A400A28FF7F0830
:104B8000041212FD88DE983BB2C8150C93F242F372
:104B9000F32853F0FE7EF32D94ED1873B4205CD807
:104BA00082E3974119770C98F8E2804138ACA41859
:104BB0006C60DFED48E298F32BBC8BED35F536A346
:104BC0005311C1C1067077033DBB10FCF90806E024
:104BD000CB75105CBDB5313E00F88405A4BFF80864
:104BE0009E03D941010CD7CF98E7524C8209B205F8
:104BF0003CECD51981034146E31408986E136AD939
:104C0000C3EAC044D4875043DC400287EB10B8FDB0
:104C100038F64045D322C9A104BB629F3046084202
:104C20001810D00B605A26C21ABBD801B94382357E
:104C3000D890DAB244FCE2128DF582044D0220795C
:104C40001A3BEB50F8E0FC98EF6FC53840E73007AF
:104C50003000F01EC08378F50F64960E6A666067B8
:104C6000ED90E0201ED6C80251C8C6DE98AF167C73
:104C700098200362802C3D98FFFB7332851820E357
:104C80001C7F4B9860958CF3E2FFEB504E2F3D005C
:104C900098BCAA5C2AF305A346F8FEFF80212011E8
:104CA000128104988708600A48FF174BD082B3F638
:104CB0008445B0407E667C80B5887E3010224001FD
:104CC0000C060520982F08102549659E6BE2E0FA36
:104CD0005D69386C04823F091302240184A100A39A
:104CE00051142379F470306B403BE47F4A9C6EFE94
:104CF0001A4409287F7136D9BBE05110687F4524DA
:104D0000089400C4FA5DE601BE48F526EDCC2FDE1E
:104D10003329CF10FB62DBFB022287C510E8F85C69
:104D2000774550E9A503C5C90780434681C1185A94
:104D3000CF2BDD96A1A0ABA4C06CBFC826B5E30401
:104D400056E553A3E306F230F308346110AC813129
:104D500030DCFC28A5A21026CD0E2971B137944075
:104D6000189C26396C786EB37A761981EEE9208426
:104D7000B344EBD01018BD2A028008309A73FE7538
:104D80000510C430BA5C308E8046A2AD24F0E32119
:104D90000B607E0C8831100ACEE02F35B0B46274FF
:104DA0000A212E4010F6868808BC0C8BD9DE50B93B
:104DB000F9E081FE2F302E98573062B7980332F910
:104DC00098A65AE8AD198C50B5652E3DCAD5CAC80B
:104DD000F2A5CBE57F7F980B68802C08D8F82B5381
:104DE0008E30EA74E230FAD8E25D51DD08D6748480
:104DF000B6F85B66010918E0665CDE8803FDB72B38
:104E0000E2301FF45711FAA0015C30F5C140581090
:104E1000C8302835119EC80402981BC9B3E605683E
:104E2000BCB684511910B3372E0113717E702E9ABF
:104E30002FB708E430283C05226EF8FEA07999814E
:104E40002014A1E209100A2F1C985840D2AF807597
:104E500098224D0896C86F6E64226E5CD0180F7051
:104E600080F2A191B4C071691B51E021FFA0103400
:104E70000908FD00415DEF6CCA4426397F8B9F66AF
:104E80008CF0DD50FC10C8A3C1F8759C04AAF4088E
:104E90004DB9F6FBFC305D0B45C8EA9881F9FE463A
:104EA000A10465B37746786AB36A198E8197EFE0FB
:104EB000B2EA4003D3BB842477EE921040C119C1FB
:104EC00038FEBB0891308251907A980490EAC0DF96
:104ED0009D808C221989AB6601BF9650AF223BEAB8
:104EE000FE58113004247AF6902050D855BF09247A
:104EF0000A58FAA584484578A565F561F153F30889
:104F0000C66A985F72FD2448800902049BAE621055
:104F100008B2BA6129FE4CA84C903932A4F9C042BB
:104F2000080103D3D740843B30F8FB607E7D301A04
:104F3000100B620193CA30E4F39835FF607665C8C0
:104F4000F0D377AE200FA260D361F31E489FD30B3E
:104F500060812CF52040FB80C5ABE4FF06A36244D2
:104F6000B29E5BF0F1309DA562A622DF6AAC209D67
:104F70007EE002C07C28AF9C2FC3E09AC8FC4909A0
:104F8000EE1BE6241821268274E905315C6DC230DF
:104F9000B33339B44449B340D19409FB49DC21B05F
:104FA0002F7AD3287C84324120F860809A82FC8852
:104FB000F79802244DD7A804AB9812EBBED38B4DC3
:104FC000DF81673D66A0493421FECE59D50E218B85
:104FD00043DF6B9A500B0A147646BBC3B8FFB74148
:104FE000F8A12DFB74046BE69877E83209198865FF
:104FF0002D237E2E14B51079F758FEC001035C30C6
:1050000069E8A5844EF698401856F343BBB741377C
:105010009A38C6B32B95A420EA9801FBECFF9201C5
:10502000767E4E311028FE20B6A3B830FF41A52C65
:10503000A211AB43FF495D6436130473B308098CB6
:1050400031D075B62F4F7CA9140820D79804CAE830
:105050007B677AC2FCE832116BC13088F01E3006E3
:10506000260240E79A2302485B2B041A3E8C01E695
:1050700022F28BC04298B06E7C2C2F7E576558D799
:10508000E45715B59888F9E6D2DC305F6901DE98FF
:10509000FA4016D00379F098B00DDAF2CA90D5AB89
:1050A0006869E8981E2B8E30E310FD98C401DE8BF2
:1050B00059C8A4906630FACDC2401810FA1F3F427A
:1050C0002EC8D2A2E95FE6B5906D175802BF5E11F7
:1050D0002EFBF1F2E11D7DD971A311F366A7262302
:1050E00069B3497CC012C008980D0B616EF4058B42
:1050F000B3F7FE20FB9809312DDC4E213FB39136EA
:10510000209A02B3416949FF2FC604192B1BABBA81
:105110003BC828F916D33533C5ECB3842CFFF8FF10
:1051200007F9EA7DB4FB806EF37E9962FCCAB12276
:1051300041D3F37B1718F8460E1E9BFFBB45B8FE04
:1051400024153C93F3CE58CD20DBD3FAF9661BCF60
:10515000F95C18DE9A7E20DBCC3CC5E080FF98B17C
:10516000FD23B53CFFCF37C93B592DE19B1920FDED
:10517000133C24E48CF3F5B501B9B19AA4A602D38B
:1051800061FD23043FDCCC41D3D2D8FB92308DA704
:105190004F9C15C0E5A491C779C18A9004F0564987
:1051A00006FEE20179988C7C97061596E3DBE3AC6A
:1051B000E202A38A1F17B830163A875669CBAB4074
:1051C000B91CFE6266CD7FD9D3FF7AB609FB877F13
:1051D000114BAAAFFBCA483CE0BCD3EC64611C8015
:1051E0006FFBA408828FB4368BEEBBD8FE8FC3361C
:1051F000F0373D2C93B092AFB3AF149FFD6DA1EB90
:10520000D146E48DF278194686F32BF4F98376A81B
:10521000AB828E11C55B951E083EC0FE142075B78B
:105220004CAEC510FDB090BA6F240318E161B46FA5
:10523000B52DF281CABECD720C60F932B564640F2F
:105240000E08F880F14084211F65F0141054496E57
:10525000209F9B28D8163DB7A003B48081814BCDF9
:105260000A01FE8868BA15EC4DD86A00FE03C280B8
:105270000D3514FABF739F570A54044009A02999A9
:10528000FC5C8119D76206C068622F6B51300480C4
:105290001F50B1AD02FF1DC1341A71019210AC2034
:1052A000F071055984FF45300C70F98A69F259078D
:1052B000D44C8C3D63CB65CCB1EFEEC51008FAC978
:1052C000430C09DBF0FA8DCC7510E3D647205ED590
:1052D0004BFD0412E2CDF4F24196E0614A8608FFEC
:1052E00010B2E61BF27D01C4BC4782D9B356E01070
:1052F000C75D19A5DE22B7FEE0E425DF99D6C837E1
:10530000D617FC735EF7B540EEA468FACDFD0B0826
:10531000A8310B0171BCF2465F31BB03207F6C24C6
:1053200058FAB576C09869785446E4ECAA19A9E809
:1053300089F74070FF659868FF1BC975E1BE52F29E
:10534000A112D9C680BCFD025FE4D6E3FFF3B5101D
:105350005AA40499A8E6187E6E660C5BCFF99E6B82
:10536000BA6EB146C272B902E383245DCFF7FFE0A3
:10537000FC0A46DEFABE5E7A6FA437F5B1846E335E
:1053800015FED0F5A7B8A7EC7FC0FF1601FF580B9C
:10539000B59431039F1BC2FFF973EF6DB6DF33097C
:1053A0007E66C7F5F7083293FE1BC456C9089E01F6
:1053B00062CBBC503C9A527CD0AC5B199FC9F614AE
:1053C0003BEBE621736D3C9377EF28FC98BC49BB1F
:1053D00067281D6CE030FC5F8C927F4D5FFD950669
:1053E0006AF3D1A8FA1118ED21B6FFD8FD510B9739
:1053F000F6483E02D902049DF75CCA63197CB020CE
:10540000EC66BE38DB8CE1A37F2958046519D3A56F
:105410008196C8779879FE5986FFF56EEFD8C0FC63
:10542000AF98A95017B7206DBEB8FF7CDD6E6E40F7
:1054300059E701B90D635EE967FF4B48FC2C637CBB
:105440007BDD0540BC80B4BEB9C4F95268B2FE3EF3
:10545000BECD33F68FEF31C7BF5E6DE8B3B581DDEA
:1054600074209E35B2088CAF79B3D8D0FA08BC8EC0
:10547000B3B8F61B2BE189B8C81B113710D8350B10
:105480002D21B75D088D0241593B99F9DF20C911E3
:1054900010FDE703FD2020E5D680514FCE18D39FA5
:1054A000972F1EA593B5481447D2F3B824E6BD98AC
:1054B00005FC9001B24202C80E30D00564FCA5B8CC
:1054C00001700244FFD0402804300D78D4DEC7407C
:1054D0001F79F77C0F0AC0E72E080A02E42880A88B
:1054E000BA63F5948E0A06026E98C8E0FD7C23101C
:1054F0000C6FE48B08053C693204811CA08CE99296
:1055000090986509D62482998C7C47911054E721A4
:10551000A350304F9F454A8414F220900AC0877FE1
:105520008B4260A1188161F1000B80FF911423A0D0
:1055300004B829FD2322FC8518A618B8978B9BAECA
:1055400042DB5FA208B76AF47FFBE608D8FE408121
:1055500055A3F2C435E576A0DCD8A7A58210CBEA26
:10556000D52039E0024141C6D2A202B77C38BCFF47
:10557000CB8CE7F57A1089F658C0D461BE57DCE2CF
:105580008FF36C772CF8FF14A59AE763BDF2B12076
:105590003EECA478FBFED78B09DBF97491065ACE5A
:1055A00080D44DCB6FCD10403D7F4AFA28DE0F9658
:1055B000EF44679F20DBEC0AD67B02FFD379F9B872
:1055C000995B0160F5CD1B8FD0F8097847C47A4507
:1055D000CFCEEA98FAC516B904349C6E0F66E7BFC1
:1055E00058FF7A80028DED96DD10E08198879BE56B
:1055F00075BEBAB110D5ECA04D19B8FB8E6DBAA727
:105600009792986F45FEF308FA20CA330016750288
:1056100076EC428055B58068D4D9E8FCEBE1127392
:10562000693FF67E10E6994AA50CDDA950B0FD9FB2
:1056300056732076A597242897F380B3F977ACDFCB
:10564000044B6CBC67E5D9E489BA077CFC20EF57B2
:10565000061002960AE0DE628CC2BB4660BB017691
:10566000FC067FAE9AB419C1E023239E4DCE34A22E
:10567000229DF2111009174105C3D7F98061EE068A
:10568000B37A8EEE31C54EEF6630205AE003E5DF87
:10569000B930704BD019F8E6BD7FC01878EAD7A3AF
:1056A000F0B04D0378E602F60CCFF9C09CC8200696
:1056B00082A8E0EF90873D11B9DCB777496F32B32C
:1056C000D08804E33B407FAEF72D3111B51AB68088
:1056D000517F5DF8CB04269E718B68204C44D0EF3F
:1056E000A224013464D6E8E0FD69A6310F802506C6
:1056F000A7A3C41601C01858248E6903E6086725BD
:105700001A05EB22C998CD0B94242FBA42E00B7FE7
:1057100060848C8105FEB040A8FF60003C6E303094
:105720006F1678104ED007F31E447E0C200FE00158
:105730003CCE1966ED2CE09F04E0C4027820990B62
:10574000F12CC6480CC81079CCD381EFD3C0FBF83C
:10575000B90F3C0DD065E3C0B634F3400CE6670AE0
:10576000B3C3528F04E0023D10DAFC440EF39B03F6
:10577000C60C9A6FC8FEFB5FFF8102642EB3224DF8
:10578000E002E08588B4B320213C811810E668016E
:1057900028CEA00808F36D5C6115B3D0DFFE95201C
:1057A0000650C5188A77FA6DB00534E11C58AF4829
:1057B000609841226C1412DF7E5B048480C006D2A4
:1057C000079B480B87090D078404CF8026B28250BF
:1057D00021B408D6BD24FAFF5AA101F41ADAA03187
:1057E000E8CCB2EFBE355A0D9E4A467126AAEC04AB
:1057F00050C67B3B40FD9830D7FE60ABD207581DAA
:10580000C00307DD808179267AB87A92A6413ACD25
:105810005D6644EB6BC2FFD910CD0C62C208CD0CA3
:1058200004831DB0FEDC90F824B20B315EE8904892
:1058300053CEDBEF8CCFA9820130199FE39850162D
:10584000A7C02C126202994CF1B0A6053B2C134064
:1058500021FD98ABC8FC04BCABC60DAF603F812CEA
:1058600080BF50CE181939E10278621F7FFFB01057
:1058700086C04248040B1B21402746B426C49A0820
:10588000CD89F56B80388881FD602EFF764006C09B
:105890005DDEC90F62EA9719A7AB9803C1ABB3BD30
:1058A0009841F43C8005B063A602D3E4017FF3077E
:1058B000F0400EC403FA58100FE241F534F878882E
:1058C0008806E58A60AFDA987998FDDB678A668991
:1058D0002017130F3FF3E472260D2110EC6631FC04
:1058E0002C11209D96261008DE850629D4B379F365
:1058F0000A2882E60D88BCB321A208143F12612257
:10590000409F88F30A16C4003D69034002EEB3A02D
:10591000F82067A64126185A4F2E8240A0018C1409
:10592000B4BBB930285DD7625C301F8006EBD8422B
:105930005AEE7DF7988090222BF8FF7D01442004D9
:10594000845C7DBDFE33806BCE80848120FCAF3EC5
:10595000237AA33B6958D58069EB9808FC84CFEF84
:1059600046FA8041BF08F23F049F57B94C8443C0B8
:10597000A18019F36228D0640B95EDC4D5B1E97804
:105980000EDD7069D1F3C0C6FC30C0B0FD9405C512
:1059900075DD1801F4B65D475873A344807E99E421
:1059A000DDB13CB3411680FDE4481368020DCBF134
:1059B00014BA0AE3C69344F01909B930DA18AE03F1
:1059C00073304C80400026AEC17A500320420C59FF
:1059D0009508B9BE9E819E1116C07F1A0920040148
:1059E00040809449A66FE49804103D7A80E8789F3F
:1059F000FDE0403C0820905D0EC7307B9888077F13
:105A0000A19858CB0FBE6E37305D5DE2E898B415B3
:105A100016E86B20AEF098B202D3661919D3E2EF04
:105A2000ED50F880F84AD3CF98EB91BE8DEE33302D
:105A30009719840B046D97A310F08ABFF6D4B82091
:105A4000F349B4FF962B5FD1EA04DEB3DA1101F318
:105A5000EA4020627BE35EA5FF10880490408B68DB
:105A600000D14C82B30D190B13FC304A25FBE1E247
:105A7000C0F010481A432B28E7FEC002108412D34E
:105A800025C878B79B98B0F8A3882B81AE24F8A5D9
:105A9000633B38D5C0D01E0A44106C7F37A4053450
:105AA0000A7CF9770A45DE17739AFE5208C4B3C818
:105AB0000A6CF8765B9B8B097A5E5A03606FF698E6
:105AC000FC09760E077EF418C0032240EF1851F04F
:105AD000C0ABD59879E6C57F90986DAEB9A037E098
