:100000000C94A8540C94C7540C94C7540C94C75423
:100010000C94C7540C94CE580C9432590C949659A5
:100020000C94A9590C94C7540C9400580C94C754C0
:100030000C94C7540C94C7540C94C7540C94C754D4
:100040000C94C7540C94C7540C94C7540C94C754C4
:100050000C94C7540C94C7540C94C7540C94C754B4
:100060000C94C7540C94C7540C94C7540C94C754A4
:100070000C94C7540C94C7540C94C7540C94C75494
:100080000C94C7540C94C7540C94C7547F7F7F7F43
:100090007F7F7F7F7F7F7F7F7F7F7F7F7F7F7F7F70
:1000A0007F7F7F7F7F7F070007047F7F7F7F7F7F4A
:1000B000077F7F7F7F7F057F047F7F7F7F7F7F7FBD
:1000C0000F7F0E7F067F0D7F0C7F7F7F7F7F1F7FDF
:1000D000177F167F157F1C7F147F7F7F7F7F007FB8
:1000E000277F1E7F257F1D7F247F7F7F7F7F187F57
:1000F000207F217F267F227F237F7F7F7F7F7F7FDF
:10010000107F197F1A7F1B7F137F7F7F7F7F0818E7
:10011000117F127F0A7F037F0B7F7F7F7F7F081015
:10012000081F097F080F027F08197F7F7F7F7F7F6D
:1001300008027F7F081308117F7F7F7F070C087FED
:10014000017F080B7F7F08077F7F7F7F7F7F080706
:100150007F7F7F7F7F7F7F7F07037F7F7F7F047F1E
:100160007F7F1C7F1B7F7F7F7F7F7F7F037F0810C8
:100170000C7F247F237F137F7A7F7F7F7F7F08110F
:10018000147F081908200B7F7F7F7F7F7F7F7F7F11
:100190007F7F7F7F7F7F7F7F7F7F7F7F7F7F7F7F6F
:1001A0007F7F7F7F7F7F7F7F7F7F7F7F7F7F7F7F5F
:1001B0007F7F7F7F7F7F7F7F7F7F7F7F7F7F7F7F4F
:1001C0007F7F7F7F7F7F7F7F7F7F7F7F7F7F7F7F3F
:1001D0007F7F7F7F7F7F7F7F7F7F7F7F7F7F7F7F2F
:1001E0007F7F7F7F7F7F7F7F7F7F7F7F7F7F7F7F1F
:1001F0007F7F7F7F7F7F7F7F7F7F7F7F7F7F7F7F0F
:100200007F7F7F7F7F7F7F7F7F7F7F7F7F7F7F7FFE
:100210007F7F7F7F7F7F7F7F7F7F7F7F7F7F7F7FEE
:1002200008277F7F7F7F7F7F7F7F7F7F7F7F7F7FAD
:100230007F7F7F7F7F7F7F7F7F7F7F7F7F7F7F7FCE
:10024000017F7F7F7F7F7F7F7F7F7F7F7F7F7F7F3C
:100250007F7F7F7F7F7F7F7F7F7F7F7F7F7F08158F
:100260007F7F072408057F7F7F7F7F7F080D070B37
:1002700007237F7F0713071B7A7F7F7F7F7F7F7F27
:10028000071C7F7F7F7F07147F7F7F7FFF1F627F39
:10029000C23C006088FFFFC0089001324006C8C61B
:1002A000001985030AF84414812241338AF320FEA1
:1002B0000365C00C982900CD1FFFED81325006F375
:1002C000CC541928E0A0C10C949E33C688009879BC
:1002D000D364800CB9FEF0F90014C002581F0B6003
:1002E00001E12C8004810A0F027034F340F3C80549
:1002F000A0E6603393B312E05030DBC02128B45C39
:10030000E050D39834D3B01316B99884FCC121FFC0
:1003100098B1FF74E5200B041001668002100402FE
:10032000C16608BD01E0106537E4E8FE90CADDB69D
:100330004053D181FB0240B920D00C620B9D109D2F
:10034000D3060241EDB01404EBEB40DEF310B0FD38
:100350000609B9237F5B401EB4E4008EEF4DCCFD4F
:100360000492EC6E66F70212400813AAFD01900297
:1003700042E7850910404CE541FFE8681401F1941B
:10038000D268DEA409F4D0095AE7D068844E4678D2
:1003900067F4A286121048F30308140DE03444B049
:1003A000A1D00B09718D6838BDFA9C047287600971
:1003B0005244EBF680185EF3C4019EB29701D47EDE
:1003C000B70366CF0CA73050D3F334BD7B4510FE86
:1003D000AF6094D1105B7051AFF6FBDAF02018C01B
:1003E00086B3F311CE70B5E001383206C4937FB8FE
:1003F00078200C80813016077FEC1EC00362100C41
:1004000014093CCF98FEB8A0E5B0AFF4D78051FAFC
:10041000F3C0085820B3247FD991ACB3A001A4261F
:100420007E18FFFC48042C821130089D06F61A60E5
:10043000E468E9F3F8FF8009F926AF01C0E20BFC9C
:10044000128C80053011FEB3281008130242E5A378
:100450002288FAE68242494E218408041421DCF8FD
:10046000C2D802226359497F4048FEE0410C90D334
:1004700007307003190F0FE2D1413C19C246838C3B
:1004800016FF21E6ED90A010E01258D3710C3C80CD
:100490004AD3E976F3009DF3D3A8FB7867DDF0C07B
:1004A000F0AC090687A231A9F19DF30D8AFA340850
:1004B000D7DBBC1004FF85C279C6DF9F3A6F90FE80
:1004C000FC8222D0B388ED9BA1B308985C029038DF
:1004D000034069D401B31294B55020338618E34227
:1004E000FE04488145200540995C0883B59F0CB9FE
:1004F000B41038FF5ED2AF80D2381A8C10BE9F91F4
:1005000090D01E83389B90048C4BD29811D286D306
:10051000BF2089C9FC1AE04003289FD330B0108463
:100520005D1705DE1FAF189DB9FD8801C14ECBD503
:10053000CD3D45FBFFBFEEC306F398FE77D3D27BDC
:1005400020F0BCD85139F238C670F960163CBE981C
:10055000B86025E119D91D32B90C82FB8CB3BF5D9F
:1005600043E4EF98C02018C45F75F703E081087971
:1005700098A7F95584013C2DD1FD2819FE984BED23
:1005800001CBB38858C19D7290200288FA98102739
:1005900004184133D311F3099404A6B39F05FC0A50
:1005A000408089384D2BFE5305F5465E98F91108B9
:1005B00061122C6D5E0A2E5F52494260802B15F647
:1005C00098201366F54CC23264B402EF8D298191F4
:1005D0000CB3BA4041FFF19853BB30D0E278EF0F33
:1005E000F7A5B02006940890F3D8012DBFBE98035C
:1005F0007A400FE8EF2E9896B16ABE98EF38FC84E7
:10060000F59840A79F98F7A7FD8775DC9A696DC795
:10061000468A05D34989407C6247D9F9987FDFB97A
:10062000F86DEE4B09230292A3080C77F528802B76
:100630007C2CB6B20A7F8BE5E5FD9803CC60215C8B
:1006400009A7C07B50080329B52F36DD2078EB9829
:1006500009F93022C46844DE080469A55A7F12DE15
:100660008B019FB0352D8679EA2077B8988146D1E5
:100670007A5848DDF6010DD3EDFDFF3F2BCA76BF5A
:1006800041BEC07F1830C1FFBFAE3608EAAC232C94
:1006900039468BB0F88BB9CB13F91C8360B0BC40E2
:1006A00081BE824A39EAD3D13FEB33D99807C2DF02
:1006B000BBC04BA9C498C9FAA61E100361FABFDEDD
:1006C000D6B0FEB9488A71E528C001ABF519187596
:1006D00064CDC602059EB38B344477F47853082664
:1006E0009B052646D30D600D0418871FFCC9849115
:1006F000A1690B1803F71340104CEE0AC000FE0866
:10070000234011EF8092CE4EB3219540C887F773F6
:10071000824CAF084F9842874020030E218466AF79
:100720007AFEF0DF3A0731F5C5837AA5645AECF218
:100730003039E190DD67F5FEFE985C03BF788630C6
:10074000C6326E7540E130D3833C68B5FAF1E5B648
:1007500001DC302F16E964862D7D0C0EF3FFC553A6
:10076000E0FE21312602CBC66DC721084CB3A02084
:1007700085B3183A550104F0C52E7BB390080B6081
:10078000BF54816203B4C104A6C4FA8B681AD95657
:10079000B3832614CD9802190426A63248FF3621C9
:1007A00004FCBC3E8C67EA146D4008F55A48132CD3
:1007B000A300FE21669DB6CB0302F54C28EB10404A
:1007C00020F4AB06F5BF41D8981002C0EFFC80F3CF
:1007D000C4FCDF8EB014F2DA3962DE9AB530E13053
:1007E000CF7AF706D3AD843930D899FEFA30167136
:1007F0009B17ED92EF83E0290C9483DDB0019DF708
:10080000CCFE9FC156DD57A8AF9801D41504D7C9B7
:10081000701730F4BCB8FB0644A31844E0B67E96CB
:10082000D5EEC360598824EB6748CFD4E9B126D10F
:1008300091306632F2086C9AEDE0584BFB4D09643A
:1008400016DE98920860A3569F8CF7E2048BEB2C7F
:10085000623DAC23662E2730F72320085E98EB021A
:1008600011406D493F2588F8300229FBE03B0DA07F
:10087000FC98EE5D3D62F80F901F16C0035910966C
:100880000FF679B07DF1A7AD9883B2C8B930501298
:1008900070BC9878F310A8FD0DBD98032F43F39812
:1008A0008166D183938AFD7FA7283020E0B9A40612
:1008B000BF024DFC1CE669F9C0CE1111B382185D70
:1008C00046E998118548DC907E0B60110C96770AFA
:1008D0007819DFCD849D4E40080DD326266815DE9D
:1008E000F368193DA5F8A0417CD9C7F540E10B0894
:1008F00004F7281105E74B6103484FA41B1441116D
:10090000461906A38890F3C8345E987F3803140113
:100910002098B01097FBF998D9155C7D5ED279CDFF
:100920001186FB18F29F2D30427B99085C8A7F1E4E
:1009300003D4A580F6F9D98E2EA8F4D2502D0280CA
:10094000C875A00BAB64FBBC80403FA665E0302EB1
:1009500003A1E284E203100CD791B3DAEFEB880134
:100960003C817D4B4146FDC423892A017F6464504C
:10097000EF8CE0E6852004CFE9191C5DD2A402B318
:1009800001EED381B04EED98EB01149E6D0242B2A0
:10099000FA0F21B020F1460084587F0960420C8094
:1009A000454B25A0BFED61D2042C4D11C47F7F22A1
:1009B0009E6273032001BDC810AC21AC0DEBC803CF
:1009C0004033C88837B0AFF83FD29C30C4037A3F79
:1009D0000FE2010CAF08619806C8F978200F68DDB6
:1009E00005897B98B040AC1E869BD3D5980292C8EF
:1009F000A3EF1E98D3C0FB845A93F89891EBA0EB19
:100A000030A8FE32BC2B8CF34FD49602C37E5BC859
:100A1000FD781F36EC98A9FFD39631B302190F82E7
:100A2000209D0AC00830DD872FBAD4DC01B12D1714
:100A3000190688403CB3436044FDD351200510049F
:100A4000786BDDA60A9FC811F0FCA0CF01344214D8
:100A5000044030BD68D65EC894D09A5086F65E10C9
:100A60001521221932D7888FD73BC88206B8DDBF3F
:100A70007E05FDA804B11064FB1193587D2FFC384E
:100A800046F8BE98018DE6C880F120D6B806EF8DF5
:100A9000F839ADFC5EC525B09165B2EB9B0CBC98F6
:100AA000B97D1073CF1C08622C1907E20D18C42FF2
:100AB000D303CEC8C0201BF8CA7CAE3C10A0FCD02B
:100AC0009FB0A8A5B8A70A7943FE98EE180123F0B5
:100AD0008F56A67969351C44D0E4A5695A55A304FC
:100AE000B3B51D02DC142863EB2BF880B27216DC60
:100AF0007CC08320148C1C843007F030BFD4B6CB6C
:100B00000920665ADD181F10136041C74C04CE320D
:100B1000127B8440B9BD2243A422C19FF85D3D9061
:100B20000731F7201ED003F030B453E5301ADCA7AC
:100B3000B10D3F5D9830969BB9C816F0626348AF1F
:100B40003B0E209B91191FBA83182CA0CBC881F3B0
:100B50008666F362588FC9FFFE78375C301F53A159
:100B6000A713B92079AFFFF57F2206A0A5BCC58ADF
:100B700094C8E035B950CB3001B2C833117B191499
:100B8000042818F83DFF6BF8C002E505E83DB336D0
:100B900002A0FBDC6A3CC9081A1185918DE9A149C4
:100BA00004CE08E94A4043F9212C90F46105F2197A
:100BB000220188923428477F5281062FD9CFC881DD
:100BC000A1403AC660F92F602C9DAD2E23A093F270
:100BD000C858A3AFA59880BDB65EC8E06AFBBB60ED
:100BE0008B39D9F1F840B326F7DB18569197FC5DA5
:100BF00057E598F3EC57026229B360E0ED2006E177
:100C00003830918609770721E5C8DFFF813DE0C0D4
:100C1000FC24A4B0B882B89590B2BBFE073023780C
:100C200095B3ABC96622D04298CD268C828E0CE952
:100C3000B1CF2B19BF783441A0F884FE05B110461E
:100C4000400288BB9F12A524D322FC30F820024228
:100C50002C08F6807314C008933088E118D70390ED
:100C60008E072031121FC28218AF019425A906F900
:100C7000E8FAE0011C53F5322016C4EDE20BE270F5
:100C80003DAE56573002988B8F8D981905A78598E1
:100C900059C8BFE8C698F348B3C807E660813CB1BD
:100CA000F8EFBF8CAB51E68C8A01516C662D336135
:100CB0007E72CF211929897F5F25EB98C28FF3249B
:100CC0006656FCF0CD080906F228145330B38A8921
:100CD0000229D44E080760205E8BD92205CAB28152
:100CE000C8C81322C012F441084C825CD610C05C04
:100CF000C8190721B4E40878FE9D28109DD4249AD1
:100D00007330024D29EBB5D037E0401763997EEA86
:100D10006404F0980EF19891AE0D94A4B3D34FF300
:100D2000140CA021EEB010B4F2982D411C4F4A10C3
:100D30000C35E540C6F7DEBD67FD321A9D7130C740
:100D4000D3FA8FC1D7349708EAE768FE60B3A001F1
:100D5000F4C04018D0C1BF0C8F305DBB11F6CC7A07
:100D6000B3E0EE0630FF73A5200C82F380AF07AF2F
:100D7000BFAF92E772403C5AFA2072A8C06B6D4038
:100D800082305C248C71157D062DB3A04DBCFBF127
:100D9000A83DA08940D27F7C0348D6048C6BDB0839
:100DA000F34558D301C91421FCEAFF53F98051B02F
:100DB0002026C19504E39AF424E7300640C08A0255
:100DC0009831420CA7BD06026C226DFA3130F17DDC
:100DD00039CF090BD6080410D30111D6880859C899
:100DE000D6209073C871FE462C3153F07F16C08315
:100DF00018100BD76400B5C5F22096C8BE98B5048C
:100E0000356649AB68EFD37F2D3058793032DF40FB
:100E100016A70566C8C8B4AF947FC0D02E66F598F3
:100E20003179C5C7C97150754CAAB350D5B30844C0
:100E300076F546C3BD0F45F2D7B6658E7F3809FA01
:100E400039B32008B308AF4DCBB928F3BDC514079B
:100E50000853EB60428CF48212CE6ACC6A5D9A3001
:100E6000BB08E703134010FF4881413009200014FC
:100E700073C60A4C3F79B620C8FE006366FF41B3D3
:100E80008F8EFFA8D8F9EDBF294E1AE36C38F3CF47
:100E900037CF04E0DCD31352F3EC2BFB061A0BFF25
:100EA000BE3BC0C99D66FA288626667AD322F6D351
:100EB00090FDCF37D1D37E17376AEA955BD380F8A0
:100EC00079ECF3B8FD538F9A31A8F3143515A0D9F6
:100ED000FD048624CBB140133CB124DCE051D32483
:100EE000C0C62F4076C6F8FC20085FCC786E1DD8AF
:100EF000FB19DE26CCE7F5985AF8FFBDB6CC147086
:100F0000D45319FC62DF066188FFB666F8494CC508
:100F10002C0884856AFBCD408FF76C3958FE55D874
:100F20000463DE4DB380DC884078FD0677AE350A79
:100F300058FB45FF97F8D9D4DB24B1703EAEB131F0
:100F400073F3FF6EB26A77C2C8376621AF2D0235E0
:100F5000E1DA0AD31143D013FC6811B7DB36BF279F
:100F6000CEE5200870BDF951015E8A72B0485FED90
:100F7000A23FEFC53F7920B340976D203EC82210B5
:100F800008828078E9F9FA40500457A68206730275
:100F900061E72C3B3EF2140E405092B280B4CEED8D
:100FA000FD60C99A32DEDE4450599AA0B71201D1D1
:100FB0000AFF40012880AD1554FE3D19502404CA93
:100FC0001712C9CD657F3A676402881B9FB5603FE1
:100FD000C748460AA04AFA687C711801A1B22E6F70
:100FE0008011F884E7E6C201C85091ED56A0FBFEDF
:100FF000E6FE8AF5C77DE34065A30610DF02EB5FDE
:1010000001F26A74F1FE20E0B302B7660262FF2BC0
:101010002DED809AE282409CA64110E4F18120CF20
:1010200074D1DA39FD9A6B02C165ACB2016BACF8D0
:10103000FE9D3B99B8FC8BF56BFD446122FF80F16E
:1010400051B1B1FFCD3187FEB2B29DC1D0FB10715D
:10105000261EEE2E2CA02E20A9C7ADDB9E24FF1647
:10106000314663E8638F2F6B222B06D6CA7827D5CB
:1010700064F65E3FD518D2CAA8CDD515FB892D746C
:10108000048CC8751E084470DA7961365F30FECB77
:10109000B804CC9232DB9F7613D0FCC9D37D0ABE54
:1010A0007DFD33AE7F3058B2F8BDA61063DAFAB5D5
:1010B000201BC4356071CB196D9D73C8FC90B54B76
:1010C000928130C7C7FC9259CE4DD568FBA1E8E6A6
:1010D0006C7EACAE14580BDF2CE2BE0707F901871B
:1010E000C6FF438FD8FF69EBE92042E8FBC90B56E6
:1010F000B5104FEC7E602E586614D66C7BFE955171
:1011000008848DB001028AF68AE0C2E6660880FF94
:10111000B744D35F2FFB04FF607E9602E01EB7FF4B
:1011200070FF98995DCB894013EE4830FAC2DDB765
:10113000E937F6CDA008BFB64A78FDABE00443D44A
:1011400075E510845F76667F7A10A8B3F9B803CA94
:10115000D3AF1759BB025E976E52D868FC99338E95
:10116000AD1902CD17C6AD9E043EF8FFDC730B3BF4
:101170002CC37FF667046BD761FE35F81196747A3D
:101180001801B26525099FA2FED68DE5D7C1202F93
:10119000FC0857CD0237D458FD6C36A55EE3829328
:1011A000EB80049CE1804008762FDA6E0862DC2137
:1011B000201423F48002D1A369F8F820800C901445
:1011C00024A6481D28342D87BF18E2FDFB03648048
:1011D0000D3B8F2CFF120218508C1071DB81217394
:1011E0000DA0AD409F06EB0910281C9CC5E678FFBA
:1011F000F477A004021602429E3A025D1052248245
:1012000048901A634576C9D4062729E9F27092AD51
:10121000E5CF496077C02A2CFE4805818819202730
:10122000073528B8BFF8EF8934DC3506F3EA1CFB34
:101230002B6D3F6DE6CC1402E0CA9C0888FF97CD69
:10124000F1ADE88191E140F20844FDFF84C8C53C5E
:101250007AE0CFEF37865DEF01F977FCEFBC14BE83
:10126000D0D6C26D5956803E90B5A076564084FDCA
:1012700067AD5824C8D18658D94DC668BD17B5FB8F
:1012800050B411C4B5545E1728A33681247F5AFF89
:10129000FDAF18678B3628FF6A792CB4B3CB81B3C6
:1012A000B0B351AA203698FB6FDE9C60788B14FD9A
:1012B0006167366720F82DF605347A1A08C9CD7DA6
:1012C00020AAB2090698FDC676AEC29319DBD4B83F
:1012D000FD14F5F08090F562FE9567ACB1BC534803
:1012E0006245F543308D6D9A9EFFD8F8FD9F2C40E6
:1012F000807FC9AB48816CD38E40E7F11008C0B83D
:10130000FFE1C31FAECD3C7B3F03259B30B1FC4FBB
:10131000D83709AED840DF7E8E40FAA00580BA0CDF
:1013200028C9C821C30D28B9141E983EAF04204017
:10133000A81D068930C116183F1A052329142D430C
:1013400068D3D07720D06AFF0D01803012F0FA0EFA
:1013500081CD3168EDA5039E18CB4C0C21DB6020BC
:10136000F3387C91B308730130E0049103B93488F9
:1013700081D381011EA590D00275469EAB4FCA074E
:10138000C02008E1900301E20C8822D35CAA80B35C
:1013900030FD3C6690B3095E08269953C628F3E9F0
:1013A000302126F24143FC47118831C47D980681E3
:1013B000C050C6400BF7020C80890D867548C9B332
:1013C0002486F80448FC80905D0106C16F382061D6
:1013D000C80280A3B208D97E92102360128C0E84BA
:1013E00080CFE9ABCDE411200282400FE34C10081E
:1013F0009201D6BE718A0B02F48C90A6D3D0FC6009
:1014000088079FF026C003784017E201E82C800788
:101410009061F37A7B0F62013C3CB47ED38001F093
:101420004016636319640BE0B4CFD330D3C4031800
:10143000CF400FF30C10809AFFEF302FC3945A5314
:10144000FB7FD7D9E9CF034680B1411FA477D302F0
:101450009742E07C5B069EC278F39C9CC6A8FEBCCB
:1014600057B373C0136442809921F3168FDE58047A
:10147000B3B1091ED3B234D30290C10853F444224D
:1014800084113C281ED3BFB688C201B08FF8A0C01B
:101490009130AF10D74648BF9885A008140640D1B8
:1014A000C40496784AA3A7F7337932121096157CB4
:1014B00052F1D328014D493764E750444A7960819D
:1014C000C24520819438D1FA80E1BF4BC05214F557
:1014D000080CBF9B9CE6F910D9EC1833C161C70218
:1014E0005A0CEB30FE80EF99F2CFF198952BF5E492
:1014F0009FF8F509601003F6F9776823642F95D3F8
:101500001EF2ACB345F628C9E4BE527FC782413013
:1015100010C8FFF70891008AA7D7A2CE2C80E60555
:101520003021F688EF4F2B04CB91B010629C30E74E
:10153000020503734C904AA986CF3F48086077FCA8
:101540007F2002C9FD2F510011264F53050A60422A
:101550009380ECD4161A82EFE55F248CE89FE29822
:10156000936FFC267EAF21422C100831BEA60418D2
:101570003F100102441B0811F90641F86001508830
:1015800007BD988187780B3EF32C88073193198328
:10159000F30FD9E880FE98C0E04143D323D0A203E3
:1015A000D3F15EF3BF34D5F540E88B2C3E50FD847B
:1015B000405F13DC4401622C0C82377AD820FF1282
:1015C000C59CEDCEF198336DD91720265E5E7FF96C
:1015D00052040302FC140F102058FC0209BAB1D7C0
:1015E000DF584C8045300A25B3E424F311B358B0DA
:1015F0000C55B321FB8B60248004BC5E88AD86BF94
:1016000092099920C9FD9C5FE6F4C204404895C048
:101610000D208305264893115F610201A010162159
:10162000CE11B3E752B31A611C0C36E230E74A62BE
:10163000810581A014EC0960FD9D86ADCADD5020B6
:1016400089E965DC5D68F56BCB30C05F53C804C3C6
:1016500058FA7FE429F0F3AF53AFCC57A520664486
:1016600004DD706CF302FE9665C5AA1984F3E5F8F3
:1016700030B8902961EF781004D6EAFE0CFDAE3840
:101680004488139E24FA2130800D04FDF4F6444C66
:1016900080217E6FC7A411B3D2E00B4C0AE085AE67
:1016A000F62DC0BB0FBF642120110AF8898430F8E1
:1016B0001046008298AB8B37932A819EC1C0045894
:1016C000838B22832084B5301607F3C5B2E4307AC9
:1016D000709256BC3002990C234A41EA5B759AFB22
:1016E000E081E8D2311F1EC4033A10C00FE8CF3C9E
:1016F000900C201ED0FB0318000F607E3730D52FD2
:1017000068AF57B12F3010E330F6F69AD30B62F77B
:101710009858FD8469EAA5186B81400CA8FFF3FF77
:1017200015D86BE68B21E1E5DFDC2408031268FEA7
:10173000EE0DC0401AD35282DF1631FB807AB3041B
:1017400097A3607B4BB020DE06C8B3AD04B3E3FBC8
:1017500017828005D747CFB74284AF09EECCC202CB
:1017600007D348D680116EE4FAD0C11DC804807C2E
:101770002AC1DFA0AF04D7F942F0EC610C2B28ACF2
:101780007EDCD222A8721674D81A40D35C303E5642
:101790002218021B74AC69100EF6B04014FF5659A3
:1017A00045FEA06787192D21FC98DF80BB365C952C
:1017B000FF3C7F9198067BA53090DD0120F9C97828
:1017C0007259AE6CD96DEADCE2E23DD38FFEACF229
:1017D000B3D63618840256C66274C880FCD60D266D
:1017E0009F02E06422ED71A1B67C2C41018005B11D
:1017F000BC2CB9C8A3139762A927D8A0D798407268
:101800005920B3C81BADF87C8F0646088258E220E9
:101810000124FE0410210906C101F39CA3DB8C0402
:101820005BB165BE0AABF84901765CC86F38952C90
:1018300010E0BBE89F590D4472160105112E663C5D
:10184000D6021EC8B85DBDA51C779FC5E5989BF55F
:101850003C3BF2BF31EDD3CD98383094BD30D37FCF
:10186000120356688DB37D9880733C41106DE298E9
:1018700046E3E66D356A4BF84066FA64ED09878405
:101880005E8B40643410038CAC88D7C8391ACAE523
:10189000C86B4F8C90ED05B0405EB3200C8091CFAB
:1018A000F59886D9C834BF9869AE812C7099FCE64A
:1018B00010D3CA4042F3CEC858FB0F203002E026B6
:1018C000C004E64841F60D32FC722684957CE36044
:1018D0000C40A8B3EBB83088E0C3BD9803FF2822C2
:1018E0002DA00805800222F2BBBAF68424E69438C3
:1018F000FEFEBF86AD06F2E4DDFF01677E7F108B42
:1019000021EF843FF4917D04195EC4ADFD00E9BF71
:101910008C0646D69C30D30632F3837069906CD91E
:101920009DFD9241E0BD75611804F8D90C65FD7C00
:10193000DFB979A40F0F41085AAF5FF1E98A20029D
:101940009E434DF682917CBFADAB67FC08447F118E
:10195000052DF8F604F4FF851930F672E05363EDB7
:101960008C52200C026E8F48019A093AF3EAFD026C
:10197000D864B382933A64ECAB904812FBC402BDC6
:101980008B089D4C6730029FFF32801046C1B548DE
:10199000E730043008884075F3050BF7F86B6828CA
:1019A000FB89E00D4523EFC50278100FAFE211B8B7
:1019B0000C57978BBA9864813CEB3F2FB27E20E0A6
:1019C000D79E3D59400B602BFC5E62168319B5E033
:1019D000F3EB2060FE973010FA9883FF5FA501E2D9
:1019E000D8C25FD6C67DCB6501606608D3BC980EB1
:1019F000212021286AE0A1036691AE31A0FE69C5CD
:101A000046FC6A3F878811304014A5C4B30B71307F
:101A10001BE6F56FB8F8A206B3F4984008423A28DE
:101A200030F0981D590403DD2021C657488A98F7E5
:101A3000F13FF6A2913B629180224F88A71360028A
:101A40002ED7DB103419EF0EE17DB3080B2C147187
:101A5000303DC610420240DCD73ED3140840FAF3B2
:101A6000DB10F0A50FEB693BE832AADDDD0C67EF78
:101A7000F7A0FB9E6046080621DBDD988130202020
:101A80006E0664037AB8D9BE09A596F4CCA8E4C062
:101A9000201CE045D7916808BD688E0B5FEC304D87
:101AA000F917AEC526F6C5130A1F8C041125F3ECF1
:101AB000EA904111C91B999E4B7B11C008FF42441B
:101AC0002061014C81295AFC4AEC08FF32458249C9
:101AD000FC2002AAFC800503C4C2CD085967607EC1
:101AE000FD09BFFAC05E980F0122834C08A3B1C361
:101AF0002C33038E73EFAB080242AC2CB7C84F9F58
:101B00000AEE9110F0AEFD5D4AA0EEC5C4027ABDAA
:101B1000988059C8FBF4401ED0004E5B308871CAD3
:101B2000AA6620ECC9D5F1B0E02B9033C80CF33491
:101B3000FA4006C40302F298CEC8E8F857332F9F44
:101B4000C1E38A899A93C2647130B72D844257AB3E
:101B5000451666F40910039F6E4B5C28BB0AFB1AFE
:101B6000E1FFBDB2468AC0FF7E4B8C820530400447
:101B7000E5F39371307D72B76D1744FAF6D33E5B8F
:101B8000019340221581735F2602E20858043BD37B
:101B900098514AB0AFFD1FFDE802889840CE6028FA
:101BA000F8A430FF448B9897632EF1079BBAE32487
:101BB0007DC9160880984834CB2D20A33C0F481AC5
:101BC000440E68208060C834ECD0F9EDDEB320F319
:101BD00066F23054D8DB8D95F3C8087959CB8F6005
:101BE00052EDF9CCDE5E5E951C19E7FFEC3CF9F393
:101BF0001E88031AF342E678CCCDC741D9C84ED32C
:101C000004037011F66A0CEB108320AB0ADE51B8A6
:101C1000F98405FF7D508220126042733D210588C2
:101C200026BEAAF46981B3BD3C995C29265B67EBAB
:101C300001A3086FE360B34818FC23400245222843
:101C4000B01C38FA0478311826C15C8108024E8233
:101C50002C10042005E898400343609B0CB33065CA
:101C60001810BFF132B020F5C282E87364B14C2E77
:101C70008405B3480939A70A8091F3DD70FCE5B209
:101C8000E298EA055866C881B3C8F4151D43C0231D
:101C9000F63C08769DAF94C8D3CBD003E0B2C8D74A
:101CA000309B5AE909B910CB88FB2D5D60150161A5
:101CB0002E223D7C5DF304E598C69021D664A0D326
:101CC000AF60CBC855F3207130303BC8F89AA6E01E
:101CD00005C0116BC00935C8C2CB509396B3217AA9
:101CE000B380B3C82681C858FB2083608022B3C864
:101CF00007FFA0028110A340220441B901BBFAD121
:101D000098C639881803550B21245BC1ACC6C2BBE9
:101D1000516BE69878190A8678EB5A440368324D7D
:101D2000E170BD06D820027963602488F5F614229C
:101D300074FB23CB304073F33FEF32EB2AF629FEDE
:101D40003F3048150CD3DAC590FCF3B2FDC5C0375F
:101D5000ED10E5C87CACE5E58318BF71309DE92E38
:101D600048D342C0F1BA64E2B37EF3442004C40312
:101D700072B619934FF8B3813E5E2012008246F28C
:101D80009F011B053181400D6E2B23E269E3303743
:101D9000D4E58898C006C1A15010B34519B0B9B1B7
:101DA00082404A0CF7982011C399F8EEB14B4C537E
:101DB000020398C306099312D88293588CA64C0F3D
:101DC0002130B5093620D40D48AF46D68A84DD2BA4
:101DD000C03060B0C91608C548C30A1121BB1079CC
:101DE000FDBC982BBD9803F0794007E02E3CFA2209
:101DF000CDC87AFE981A05D1BB906AABBB6830C8D3
:101E0000322E16CAA8CA8545F334C006C8EE18405B
:101E10000BE630F0FDDFD59803AA74883F2320BB82
:101E200034F098AD561758AAB34C2196231F00865C
:101E30002A11E07697FCC3BF69EC98F9FD2A09E501
:101E400030C1FE98E1048C806E30120D9613BF6293
:101E5000C598C799BB9604B8037CF991081204AEE3
:101E6000163FEA8E42D3AFB9D340C060F96346FF54
:101E70007697AF9896CBD3F8F9BF2021B597511933
:101E800043C6F370AC8077C644D3B306090EFF98FF
:101E9000FF28C68C66E3D11C6C3990FF2D3B826C09
:101EA0000759E410B3FD8C8693F31C5CA901A86567
:101EB000F3F5D0F8B204C851FFDCF3C497B1017D4B
:101EC00073E6E0C6914B17A8F811823FD7CCDB7FB1
:101ED00071EDE6507F1A401073DC2679E69EFF36DE
:101EE00066FF6ED968BE5C2C975CFFF0E576404BD0
:101EF000A378FB64AB9C8076982058B406221863C4
:101F00000BA15829668079AF9EC06E03DB082011B3
:101F1000DAF788FEAFF83B2CF0C70C2B923BDA06C1
:101F200033EE5BAD58FB2BC3C7B11FD17C4074921D
:101F3000BC623CF6B5080B02487819DBBE8025E68A
:101F400001D0E5F4C02311D89CA61DC7E678524005
:101F50008BFC82F31BF702674998FE80686B28EAC6
:101F6000F709FA9110AE445EC84BF30212F5FF1068
:101F7000FEA5BC04CBD863FE27B3C630F9281D32BA
:101F80004324C0B9933D03EC055B490D7878E1B873
:101F90000348B3F22D4E8E50B4301402CDC71198C1
:101FA00048FF75E0400418E91A0A890DE90888F825
:101FB000F0542B479FC44640140801C048E0FE126D
:101FC000C14069844E107BD48301503D19EAFF82E1
:101FD0000820805C1904910A4B48708D5AC44ACF7E
:101FE00041A01541E78048629860FE64FAC01089FC
:101FF000D2592159E872EC8202331088B2D89D2759
:10200000024120FE4F79EFA10F35EFA8F9A7028C0E
:10201000CDEE4288FDE0C0AFC946F3B1413E3BD4AE
:10202000E37F37EED40201BEBFD59908D929FD461A
:102030008AFE4567F8F4B38E4C5EBEB55A6C3548DF
:10204000FE7B6CF3CCA32CAC4FBB8ACDF1F8FEFF2A
:1020500023BB65C8B329D3CF8476D28180107E9B01
:102060005F975B8DA1F720E66542DA18D1F9D8B207
:10207000F88C477F979A802DAC104D884C5B9DDB88
:1020800096FCFDA884DB50B808AFD8A3E3F77E6CBC
:102090000CB8FDFFB00489FF80659782DE819BD973
:1020A00050FFFF47B10855A804897E1B08CA6C3150
:1020B000D8FBCF31F7532815F28E329E9BC740FED6
:1020C0002D1F4165F27E03CD37D3EA132E7933ED10
:1020D0004741D589FE2D9ECC575976406CE6667AED
:1020E0008C11CEFE5790FA8EE46B7D0C8097DD024A
:1020F000ABA660E09F2E2398A908FD30806C5EC2DD
:1021000050FC2CF34C8809A7469D2EB64B00A03BF3
:10211000FB56F8FC1631D2FF58D10187EC58FADF94
:1021200058C024DF99A1DF0666674758F862A2D03D
:1021300088C306FF08FFD8A0C456800416B6B3486B
:10214000FA141988C6EF7B9118FB4AEE80592C06C9
:102150007FA796C0E713F75804C06C31CB40F9C392
:1021600025A102628689386C6FED9518FC96F0B354
:1021700041F875CF3360D68628FD9ED790FB196D48
:102180009F8046F36A5E80D72C1C9FDA660119CFC8
:102190008DCA38FFB99A16F29D87FB9922155C7398
:1021A00010B862FBBD8114F0B0FFAF6FEA5E8B0820
:1021B000AD2CF5FF6C38E9FA73ECA27FB69C114F99
:1021C000FA7BD0FA20529601F604F58781A7AFE496
:1021D00084CD1D409FFB1D204CAC43A256CB00F785
:1021E0008DBC72739ACF7CFB5ACD886A3D408F6D4F
:1021F000CB124D3836D43B852AEBE0CF5FB4F0FDEF
:1022000069C061DED70DC7CB29B782DEE89EFEF23A
:1022100009A8A166D802C80A74F14C80E7FD828142
:102220000888601237CF8005E752064005E4B36E98
:1022300021A97F05A084C2541851E7304003CB0C7C
:102240009090A0ED69505903E32C8010E018F946F6
:1022500021F80CA04528181F53401488818F200AAC
:10226000F9AFC04D0990C4E6B828028205F3664173
:10227000B3CF6BFF4084866A043FC11B340299527E
:10228000FF27400198100642C20B04032FB9D16208
:10229000D19880BC0488465194F3C64BBE9378C253
:1022A0008C8EF2F8CB377F50DC021DBC220CD3CFD2
:1022B000CEFFEFD0F9401DC405EE276AE60280226A
:1022C000A7B4F888560877ACB401BFDC3808E3152A
:1022D000C394AA2234F982EACBC8FABA13CD338068
:1022E0000BF4C919D9DDFABF0CCDFF0F396CC79CAF
:1022F000F9E2D5356030CF9BD63A04A54CE6984933
:102300008F75B28CEAFE20CC58451083D668FC2825
:10231000BB00B82DC53BFD02657ED080DCEAC53729
:10232000D228DFFA48F28097D893D7ABF5CC5F7B01
:102330008D38D6A442ADF898F9FE11B2184540ACDC
:10234000BFEDF7200C9EC77801204071E988B418D2
:10235000E0FCB4B6802E46B6CECD6008AF58C1BF03
:102360001B73AD0140FF0C90A5F9E60804B64ABA0C
:102370001837B123817609B3BD816BFD5950FBE25B
:102380006B46C475728065FD348BF15F1A63B626A7
:10239000E8F942DC02C9CD5B08E0DDD987B7FDBDB5
:1023A000E23CD71311CE56F0FBC57CA9C7491B628E
:1023B0002467E60B70DFCE4BE3112C398C59D330F8
:1023C0003B336E03AB107882DFE521D8FEFF5D5012
:1023D000041107C6FF4009282405A41134BB20F8C6
:1023E0006F430387ADB005B3069FB0A08434894224
:1023F0003C921A6021FACE25B01004D8556B903C5F
:1024000028F50501BD9EB0FAA948DB865A2BD241BA
:1024100030F4208B8BCBE9ACEAF3FFB8606F8818FF
:10242000DB59FF3AC064BBE3F8FF604ECC0C18C028
:1024300060090FC0D23020E01865EE60D019F3FFBC
:10244000D45C8EA102D3AB28FD6998E0C2400DFF99
:1024500095B0B4FCE26B09E064FA04408101B25D1E
:10246000CE88FCF644010D11329E665B8B5A6FEBF1
:10247000580880E62C5E3048CBFA219D86412CCD51
:1024800088A8F912A1531053942B0A888F30025A4E
:10249000F0D65020EB852C8CBCF717041242C310E9
:1024A000C8C60801EB64148046BAD4C25FADBD90C3
:1024B00084812696F9302C61CBF0F806C8025A14B4
:1024C00009F39C10F3800EFE1679200FE0010CCE6C
:1024D000E26D1FE003F02016D00278360B621F0C6D
:1024E0009001D7B020F95A58100BD34920FCE311C2
:1024F000FFB95B4CCB200A414E8067ED589980971D
:102500001E4BD379A97544EA081822F3D34FB32898
:10251000B381201072E009635004AE84BC940C585F
:10252000E0C3080CD90581ECB48820C09AC8597B57
:102530008364480D73C646880A9801D3EE140C8252
:102540002FB34EE534EC5002E493017DA44865E2DC
:1025500038FE601102FA21A43383798004F508342F
:1025600001C0EA9803FE132D08EF2FB9FF9705204D
:102570000C0421B0413BF6BCF94CDCF540B3B22071
:10258000BC0585EE14B2190CD5F806DD8030C40008
:102590002608B3BE34789B6650FCBC288892FFBEE8
:1025A000ACE3EC4CC9C870BF9EB310956644F4040C
:1025B000E0AE181451E09101A6968343244DC6D095
:1025C000FCA2D824E166D4D10104E5FB9683698896
:1025D0004BBD223F5B4530C1BD6B454BE40CFA70EF
:1025E000BF35505EB38C889BA97BFC9B2806414776
:1025F000330A0810E30102C0E74858CA610CA50875
:1026000078429DD9FE11B6D746C2737103646881C2
:10261000A5850802A7759A28809D1A81F93ABCA061
:1026200007B0225546F298F4C5F00B1EBDB807EC72
:1026300068010CFDFA1A012D900765E0C003E078EF
:1026400078CEA307EC16C40E5910066201EE3BCA01
:10265000576606EAF960140A22396E93C0DF4061BA
:10266000400467F998FFDC44E01CAF035C9888F3F2
:10267000437CF3225CC076EE41FC6D5B06803D78C6
:10268000243E19B14046C8EEFE5760024C0191202D
:102690001B3DB320A410B39034B3DA88A03FB358E5
:1026A000042340022C0E0971F298FB6850AA2722DD
:1026B0000A41E2012C21FE244884A02602BD981084
:1026C0009E0AB8B031341310E53081DC30B449E1F2
:1026D00030A3C4401188427CA78401A009ED1DB835
:1026E000FFB9A5086C7A69B7EEF23030CFCA27E39C
:1026F0005D7E1630DF56A908415CFEBF60EBD94B0A
:102700002695300BB278F34BF09B378B30CDC07DE4
:10271000233069C83081AB8ECC4F9AC2F30483104A
:102720007F4E37B3FA048ED57D730510610444DD06
:102730000529FB7790773B3009B22035B302E908D1
:1027400030012698BF046B04403D43C081512211E3
:1027500076DD4979EE38FD04819511C6B7547230A3
:1027600008BB1782EBC02258BEB6448C801159C3F7
:10277000A81904F312C0C85CAC1664EFBBE5990459
:102780008290B3017BAE1032EF21D8FCE4C1B0528D
:1027900016FE2E30D7E805A2B8C8AF7BB864813CDE
:1027A0000810E5309073301EC03DE0100B68DF224A
:1027B00038D30EC47E18200F601C3CF566F980816A
:1027C000D8DB424EE13066797AFE98BB20AC23FE1E
:1027D000BF648BB9CF98E130B56D94DD7CAF84E4F4
:1027E0008580FF76A0F3E939080213FD2404110166
:1027F00021167CACD7466136309020777564088806
:10280000C203495F2CCA3009FFC7C82258016E8C29
:102810008C36093166E9FD8105B9C3280643EFC14D
:102820000624821442D1EB424860F2A2A1F3D9BB44
:10283000126AF8DAA185733060233F3F0DA091043E
:10284000849B407703FF76A8FB09354164F84F323B
:1028500098B9E7826CF55C30677AE501D79A300366
:1028600001DBEE6D4B9103EEFC6B25FBF9C8449246
:10287000ED5C305E434C8518C43811790C82F367E7
:102880007A4B813BF83094B319E0AE40515332F3A8
:1028900075CFFE6BA0F0660E51D203B371301DF2FE
:1028A0009AC841F0C545F19FCF30040930C24E9D12
:1028B00098081232FCD905A4E091189568139F9BE3
:1028C00031121BFD0A4152C159584ADCB6E430812D
:1028D000E85A4002F5694F28C3116C046C665C30FD
:1028E000E716C002422360F9048C901082E781C889
:1028F000993A2B4241417C90D6E9FD4EE29AB08054
:10290000BCA55DFF9FC8A001F040FF0ED00279106A
:10291000076441D92C00A9B370EDEB9007F435C8DA
:1029200082ED986001FC035E8B9F382964810C2046
:10293000CAD0FB134248404706662E01BA64565976
:102940005704A5B884EF9FF7CC71F7F99BAF62BB32
:10295000EFEBE0D6B8089E6B34CA41B37EA14E1AA5
:10296000AE4F4324F3A24046FAC4101802220D5C75
:1029700091ED204003F6EBD397B421F0304E88124E
:102980006057F48A9885FF52010862982122814697
:102990005AFDB930A25FB8C55A48BB68DD9834907B
:1029A00022DC30309911E530C8A96FBE7EBFA20489
:1029B00036814607441A609C09754128BBD3823092
:1029C0001CD4612173A0B436A9FEABD3105234E3FA
:1029D00080437C43C25266DBD5415EE0AD204ABCF9
:1029E0001889362AE25DCB2ED1C62097A39810A76E
:1029F0000608040383610B29E0D32177A58B62A429
:102A0000C6C66FAEE502E203F4A510A2B27E20F3C3
:102A1000C63580CDEA0C423437F0FE774DE74250A0
:102A200077CD2244E08101B05D169AC813E1309A57
:102A3000B3817A17B7C4B2D64024CBFACDD5EA31E8
:102A4000CE3048024081661989A040BFFF8130AF77
:102A5000405DA2E7140A08A00212A4C086A0D2E337
:102A60004C0581D421BA7DD4ABB3C8C0820499F19E
:102A700024402ED702411F309F08288811B0EF084C
:102A800018FEE430305C16C83764C805EDB8F22093
:102A9000D9E80F0F64CB800C922FEB3227F2E005C0
:102AA000F15E98AE80BDAEC6F077BAD5192007C8E2
:102AB000AE225EFED85C7E5C30D0100A00DB1CC407
:102AC000F030B378B6E2FE3C10A95CFDD344D7A940
:102AD000A461F401D7D4C90130A420415033960237
:102AE000A624EB4026EDEBE3A36097302819D29C97
:102AF000AAFA08211025C2059C61A281CAEC32C83D
:102B0000E7231123D32C844CBAE8F9F5B934864075
:102B1000FD4548096A37240BB93028CA0A4187ECB9
:102B20009C05D9E6049DFDFEA085348A120844FE6A
:102B300075302510889CC8010886F67FB381A009EE
:102B4000050014AFFA35DF2F4E3653E53004ED7132
:102B50008130B26E40C8CB2E8FA8E33073E5C40C31
:102B600066EBFCC8FD34C808B9B904DD0B2BC3CB38
:102B7000BEE2EC87127E59C819826AB3E581102043
:102B8000D0757173300442727F30E57770FF3BE897
:102B90002008F8666EBE11F0A5AB913004AB8999A0
:102BA0003018423420C07089302259BDB0F309205A
:102BB0000242EC980111E03C1C681A5D77E78882BC
:102BC00021B9C3FE777EBF20C0489810B269EC815E
:102BD000C8C0AD4079542060018C7BB6303767FFA8
:102BE000774110422749DA01839B60BC80B34DC214
:102BF0009704ED7E6790B3869199FA193CEAAEF49A
:102C00005D6A82E0982E2DF6C516C8B9500FF6E021
:102C1000012C086FE47F60EDBBE0D59802CE30E870
:102C20008100C8F79860813C0690BC988EA6F1F2AE
:102C3000937657C8293044F380778B6EF23FEE7F4E
:102C4000DB84F830B8108F66E230F6984004578A7B
:102C50003A97FB8085EDC5C830ED23603E440850AF
:102C6000A0407D961098040A06B3F605219204A6AA
:102C7000B3DDA9E505202126723052BA7119B37966
:102C800079799830D381B0FF68FBA0113482FD4080
:102C900008021A4100DE98D70435C6A8FC0A441180
:102CA0000208251D04149DFBCCA07E733004022D68
:102CB000C6949D80DC0840771B8425CEA04588B84B
:102CC000FF7453312040B518FD613071CCBFDBD8A3
:102CD00079B3BEAC0C858E01300CC48481BF10EF7B
:102CE000FEE2226FFCF0F9F5B22072D70333BD98F3
:102CF0003194A0BEE577D6E4AEFC90383633DC6480
:102D00008FB3E330B2C8B2A3FDA2B3F3E9F479F014
:102D1000E0F88489BA0940146B840308C2985CB057
:102D200079A258B1D5FC289FECE58110AEB62330CE
:102D300066B2C81ACDCE04133FDA2C109E11D318F8
:102D4000F80478AE4140C45D980013DE9800C7EDEA
:102D5000C00E40BD98124BAA02652122B211046E2A
:102D6000EE26C8C8DE60118C9074672110D35DEB2D
:102D70005A210A826BF9FF5579809FD516C4031A30
:102D800069C330F32039F300790CA3626373FF3B0E
:102D9000933078E060AE41F5BBF24006EF5E200B69
:102DA0006801F53C0038FBE7C4E8FC7F0360200ABB
:102DB00077CBB4E3B930612F58E3FD19E330FC7BE6
:102DC00086D30360BEBFBFE6C8BBFDA991ED9403E7
:102DD0005360FA0124501080185CE00508E0601B85
:102DE00031334BB7BBCC1045B8303C61F326488536
:102DF0002009C85E98F32260088CB93116587966AC
:102E0000508490FC0B8A604A6A09E13090A7D08810
:102E1000030814E325A205D942CEB308B480EE27F7
:102E20003094020DA8F804B6A016081F825089003D
:102E3000211BA809859590BDFFDC82BB2081E1DCC8
:102E400004FB7FB6F803409B07667465CB8180D78F
:102E5000F8308BD8AB9145085FBF3D1610C8FF40D6
:102E6000CAC5C4DB7CFC988B3EE6CCAB838B57ADEC
:102E70004A8CB38DA2F6EDE530842FB00CC9BBFDB2
:102E800041ED9DC90311E2A6F8D892246FF308F131
:102E900098C11A0282B32766444C8181091166F6F3
:102EA000FE2806A010B93018A741F48C8010EB3230
:102EB0001186C227DD43C803093D059AFF00A1DE44
:102EC0001041525E989988B74667811860F92022B0
:102ED000808111DC6A20B518640E8C09B465FEF996
:102EE000211364B81057B8EF3240144839F9DDA007
:102EF000F8CC9405B05C06C4091A195E8BF7A007DC
:102F0000314065C83BF3810C205FDA3190BAABE801
:102F1000012DE3304C9CA8E0400CFAD3F10016C41C
:102F2000F698036479D300D0FDE348A6414BF0D86E
:102F300062210AA22FEB377CDAC890F37D58026A2F
:102F40006677CDB98908657EA7E92302F304940367
:102F5000A9D34E50FA801122D31EBC52ED2E21501F
:102F600030462AFDAC61088C0290C69D86CBA5B385
:102F700099E22126329C10C0B701505F9AA5C0810A
:102F80008B3F2201812040D8FE018D99FF5B496370
:102F9000EEFFF8FB20ED3F548B68ED6C56F302C654
:102FA000F3C6D9DA5BB22480E0B39BD370FB7FB069
:102FB00003C1FF0166B6F098FEC69336666FE6431E
:102FC00036D3C4D8FB61727304C5FFBCF8A3FCE21E
:102FD000234C32B37311366636B533A81AE6A8F817
:102FE00032EB7E7D0327ECAA5962806A8466FD7D00
:102FF00036E7FA20091FCCDA98FFFE3508CA5C864E
:1030000002E1629E974BF888524032F37CF9BD1F73
:1030100048B3FEB89ADDE20163DEEE9410147B64DF
:10302000B6EDC0FDCBE6808B918D6C57B2088B87D7
:10303000906E3337B68E96828049F2744CED72A052
:10304000FE439B32CCCA67B6BB20CE020848015B68
:103050006F7D4EED6230F91982C71799D3E619E7F3
:103060004D9BFB996D2D0420F86EDB40F102F77942
:10307000BB18A38F98F3D1FFFF2F29B6F7FE01E00D
:10308000F389B94B4096DEEB018BF74F40201E04CD
:1030900029D0B950D98246BEA6B38D8FA8FFCD5492
:1030A0008110AA19445EF3E9BD02F201119EB478C1
:1030B0005CA036C09204D7B6E7F41912D3D508E65F
:1030C000E0FAD6C040611B34AF7FC2C90A84ED2844
:1030D000A4108C148453DC32B159E6FF82FF8309BB
:1030E0001601A081069830C0400886BBB0A0BF760C
:1030F00060F50B105989BC4E18FF3EF48A0A264130
:10310000200F400490F81218090015248A1A301F65
:1031100066084089220C673EB309300C06C124289A
:103120004CE360986B7424A6FF887422024030FD43
:1031300064040A11FE420653B54138030CCADBEFA2
:103140003C1847EA908188F71082F5BC94E74DEF70
:10315000B0FC1BCFF4CB101A7871B5D3CB8E38B33B
:1031600083ED914517E0A4223C945D79E5F9E7F100
:1031700036F4B4F96ECB134A6261FB4A3B8D824C44
:103180008759FFF0A3FDE3BE48C774ACCE315E366D
:10319000D6E8FBBE4ACEEBC375F420B79996BC23A4
:1031A000A322DF278DB77AB06C66F8C3BC387FCE18
:1031B0004DB280EC019DD6E3E5B3F47FBF6572DECE
:1031C000105A0C98DB976FF80147E7407F59286A3F
:1031D0008804EDFEFC9FD6963DDB6D086FB328FF9B
:1031E000BE9067EEE340C93179DCBCB271FDB54CED
:1031F0006C99FE0A63EB59AC057F96BF04877A3D54
:10320000D66068F82097B1C2DAE9848B7AE9C0C643
:10321000BDE0107EADAF0996904472E002DB6DED2B
:10322000FED48CF185960C91F9F782DFD940FAC46F
:103230004AE16CBFD8600287173199E58B13802172
:103240003CC8AFFFB5BA354CD043ABEFB031E49ECC
:10325000BFEA660CDB24FD37F4EE9574FCC6BA9326
:1032600058D84CFFB90286502C668209D0F1CCA305
:10327000A417F2E6DB47125AE9C079988E9BC098F2
:1032800093E736FE98FB25DB6950731844CF40B0B6
:10329000E28B9BB418FA1AFBCF3CCEC73D3B90B6ED
:1032A000FB309697F48402E55A5B69A120598D079B
:1032B00070FE89FEA008DBEDC3F68EFDBC620EC673
:1032C0001B9AB0F810342230C38D1B40648E3A82B2
:1032D000A8FACA372E168839E2656FCD31495FD218
:1032E000F14066FBDCF3CE58D70CA9BC054F679FB5
:1032F000EAAE2670FD80CDFA68CB831AF31611EB87
:10330000A57679F8FEC8FD1B309246596A6E826335
:10331000BE31F412400148CC4E7320FE48B77F0105
:1033200018059BCF226D316C9FDF8F80C9C508C403
:10333000BB11D73705E537BB8B48FC32FC09B81BFE
:10334000933E11E880407F08A50216659925627DAD
:10335000AB2FDDE21936AA1786F3049AFFFD6085CC
:1033600005B0A13040FE08CB005B0B432160EEA509
:103370007E24800210502ABF3A45779F9DE65BDB92
:103380005E496608E0E6C0361866600784800DF383
:1033900005D43120E9062FE8F66410FC0762040921
:1033A0001BC198852C03FC05A74581912A2F06C0D7
:1033B0000038F96B50400109E62CD7EEFFC34210EC
:1033C0000DC0414819F802406546D567E10890F301
:1033D00010864840580D5C91597B94FFAC229B406D
:1033E00089906FD13701EF8B6A15804D07E241A6B6
:1033F000DCF5140997DC87B0FEA2DFBB1758E3EBBE
:10340000700804010DA6DF2111DB8689740092B5D6
:10341000DB19F393CE90FB97D8C2D8F80DFCA9BE68
:1034200084C27DB2A7BA5CDD8D04B2FCBE59DCB3A8
:103430005786D9FB46E679088933EFF0F9EF105A41
:103440005867E97BB9AAE77CAF3A10FBDE309E23D0
:103450002BBB4598FC29DF0865AC93084BB6A82820
:1034600033CDB490F9AAF721C23D23F7967D5F25AD
:1034700005B6E1C58FE59AD617C68E7F593CFD6625
:103480006C11BC44F7DD3C016C995FCC672CC60421
:103490005F4C726893F69AB8FAF28A31EDFCDB76EB
:1034A00004075C62DC70DCB4F9E16E7D5DF56EC82A
:1034B00041E9AF0859E640CD5B0410B1D096E2DB9C
:1034C00048FFA8DE05EAC25C977E9B9BEFF5FEE312
:1034D0005B9DC85EE563A4BBC4639A016FEDAC104D
:1034E000FAA66D920256D520FF647191717D84A772
:1034F000FFB965E0FA20B6E18006D0FE1A4003600D
:10350000218937909488DA20D02EE10DF3823FF1A3
:10351000440567C2578250C3230A914D959A64733C
:1035200098F8D72890062D68BDE5186A5246749B16
:10353000B962456BD94E30E16A77B30C4BE6F77F41
:10354000FB33E006C1B304DC0379E09A3CD8C12226
:1035500096A30AF3CF7DB341308807C0DAFC9360AD
:10356000E3FD30CD1006F318FBF64EE608C8FC610B
:10357000B3B07F16C01458001368FD108C022824C5
:10358000091F5FF2BEF3C4596605B0FBBBC0DEC6BF
:1035900062100C0173B30206F31877C43FC8881198
:1035A000F38B8BCAB39FC0F2088103419D2C9E12FE
:1035B0002233F4180186022818D3CE78B350100AAB
:1035C000051584A1ACBC028C90091424A2848760E8
:1035D000F981441CB3FE60F226A007141661A0789E
:1035E000E00F624C2C56F00C1E04F2F3100F08E6AC
:1035F000CEF6F3600173E004F0D3C83FE0200BE0A7
:10360000013C8B90F234D3C8E7CF0360F32080FFF6
:103610002D78FD0D4005FE7085C41844C98F2C66B9
:10362000F218D1DF6611A0D0A389DD97F30328BE7D
:1036300001374119109BED255890ED44EB45DB9780
:10364000C08040B36D14B38CFF72F8D08EFFE08C55
:10365000C5D3674864820CE069300253C8861304FE
:10366000736E3205D7C8FEF8451016D29C4240034F
:10367000F5AC0D2048E5C5F29FF35C7C657AB38814
:1036800069FF22F8C04FFFB130140100D3F58AE082
:10369000810169D441A1FC08280C25A030F1CAA8F9
:1036A000FD80DB71EBB7B4F5C020DD7E6E0801EE66
:1036B000B788846EFF0C4D6690FF06AFAC8008CED5
:1036C000DF4E41E387CDFB4EE68007C19BE10361FE
:1036D00087B30C06F049A7034315C7B108B391D7C8
:1036E00008139CF884818530057A6E12150FCD83FE
:1036F00007C47B5E83303C21880131EB98F908A137
:10370000EB4FC0610903609B12E328BCC591998B04
:103710001FF7A5A5190CFFFB1E9C50FF8011BF329F
:1037200025A098EA3980F1AB89CF2228158009308D
:10373000E40AAAFB9A2B12BC984976C4029244DA96
:10374000F404599AF1A68C38C62C0508790FE1C704
:10375000CCDB500A0A24660061A4F1391149C8473C
:1037600029ED23015E98E1D8FA60C93DF64B9A062F
:10377000D978E814153CD5A1EAC503F78BE4813C60
:103780007A19045EFF669710FFFA9800FF19988374
:1037900002D37FBB6BC481185F4A98FDE4EB645E83
:1037A0005E070C7D950246D2D1F38FA932B3B28F5A
:1037B000BD970569E74112D8E0C1E3EC5FE64049F7
:1037C000F9193102F9D95622A3C12CD609B25F9555
:1037D000E64BEBB3845FD7CCD0CD7FE020F9091363
:1037E000106C69EF7840C01058F3040B02418E054D
:1037F000FEB20820FFA001B07BC0D8004AB93080DB
:10380000FE2084308206D0246BD90BA889AAF3B39A
:10381000BECCD7FE32A031240A04500F1A400068F3
:103820005E6B4771F8980F280C01229645F5469A71
:1038300015971ECB8C596F2298F82F21B6CC0A66AB
:10384000501AEFB246F4E6DF55AC80997B38DD2B99
:103850008ABE54781002E04EF3F742805709A098D0
:1038600002ED4108BED4D8662F8130A0D00560B3E8
:10387000AD399090F3EB0198300803194004BC0473
:10388000CEACFE8A35099E7380021369BFA24592B1
:103890003422756E46A0D6831104CAFBCCB6FC4F09
:1038A000EDE902504289182395643BE9C582C603BD
:1038B0001801CD0328CB086F49F8FB0CF4AE09269C
:1038C000C2677F8598A230A77F868060020C102097
:1038D000B0B708FBCC5D4C2A49ED059403F5687F31
:1038E0007990060284F9A013F63549EB8BFFBD9859
:1038F00007BF109330204381AD3C8B861EBBC48B29
:10390000308050B5FBCC6766F2011C2FF1F47819BA
:10391000CE82E2D39007BD98C0A48309E004D3BB54
:10392000FEB7C806FC7F910C316830F9FFBFECADE3
:1039300057966E0AA2F8E46F89053546FC5C06A32B
:10394000C32BBE8382D351FAF2FE982706FC4C04A7
:10395000097BC5844437D3837B9809327F99365CD1
:1039600030F3093040022D18322660BFB8309EC6B1
:10397000081811230F414081CC0132B3F8CDB43483
:103980009AD87FFD83083FF2A004318206208C1470
:10399000FDA6F70804022117B32D30087930A2EBF9
:1039A000113401D59802C503F4520528C54A22DF17
:1039B000F6A031B032F9FBEB0A3FD64F6DF398C851
:1039C0000CF6037F2E7F5A3002F330014128E02E9F
:1039D000CB25FFB561A66EC8A0F24BF298D9772629
:1039E0001481CC3C151FB39C560F40BC6BB3BDA1DA
:1039F000106BE998882609FE9839D32002C9950CE6
:103A0000D3B8F6884BA67DE63D0E60F8FED3CAC05B
:103A1000C102605DBD5F559116AD9DFD092122AFCC
:103A200059023C300249B83002EE5D1360040114C3
:103A3000D05C430575A47B8B09342B248B309562B5
:103A4000C2F459B60CA49A6C0278587F0364122011
:103A500080BF85D5980CEB98065E75308304B1F471
:103A600032CE3E7E428C0208B2A8211A8121012466
:103A7000A74F52F4B2C80C9098B270C06FE5300CEA
:103A8000173697980530BFE4C598DD7A9812D7931A
:103A90003069ED884543C830797A0FE0F398FE2FFE
:103AA000B6F67DD3413C20A075641FF0B2758EF34D
:103AB00031F515036FC77DFDCCFE9076D149F1FA43
:103AC000FC473FF96BFC3847D3F61369FE6E30466E
:103AD000C0711960040C09085C86C1F6B34C82D031
:103AE000B347EA2D16B9CA2977263084870BFF2FF2
:103AF00078106BFE7C1013040A041613C8FFE8A0AC
:103B0000113496B2F579FC24092159F2A140C08400
:103B10007BBD3E0D15A782985FCCB502FF322851C0
:103B2000348002BA68FCFF9BA0010480165444BB99
:103B300002D3E385D6B007F0FFDA80816C8BADCF7E
:103B4000348DF39DCDFAFC9847E32D865D66050123
:103B500020EDDC1003B2E480F3CE4F47BBF877D6FC
:103B6000E6505AE063ED8277E98CE0A4834BF342A0
:103B70005CB26BB930019B31AFC0F5FC203812410B
:103B8000387F066240188032F310AB9FC630FD8448
:103B900051B0AE882D895D4F09FF8C3408201294F6
:103BA000249639DE4C208C7FEDCC4079CA0233E27A
:103BB0000918285EE1EB600440DFA50146500218B9
:103BC0009048F3332882C609FDE2FD0408310070F5
:103BD00030FED1A160812C8291BF6901CF0819FA12
:103BE0006121805D44B50AF8CC0FE2E8E52445DCAC
:103BF000CA0B4004AD20AE70653522162E7FDE0163
:103C000042A04CEE1958FCAA3E5D07D000062AF3EC
:103C1000A5B93DA02B092DF545F35EC4B2FF6A6638
:103C200081E22C0704F077A1A57ABF399B0734D332
:103C300059BB7BF32028B8FB8EFE66300160C98437
:103C4000184B4DAF32C802F3416F96D093A0661166
:103C500066C2D30FFE3C30C68D8E19E121F8E7BC59
:103C600030ED602364742480057797C119E59B7D4E
:103C700065CAD88C50FF50DF45C9308006FA05026E
:103C8000C0221003E040F98405300916F9871813A3
:103C9000E7641482A38040F3F8FF2004561697D2FD
:103CA00096E5C870234D16D0FC306F9AC88CE13071
:103CB000E14578CA3025FA17F798184903BB68C65A
:103CC000980546EF4E9843578D219AE6DCF9375315
:103CD00016FFCCDDA42DF6F3C8885C3005C566CB95
:103CE0003011CCDA9CD1C80622FD847E691FFEFC0F
:103CF00080DD07C1C85D786B8B5D6FE351DD101E01
:103D00007669048BB3C5A1581166F817E09D98E752
:103D10007866C841B930615E98C30310777237087E
:103D20009866263191463E5C5DD0681425CB664688
:103D3000ADB4D5DFD5208CED984204175A5017CD7D
:103D4000918EB35173FBA337D3508C0C66848DE6F0
:103D50009390FCDB9DC11D527422B2C80C210F024E
:103D6000441801D713613D7309300A022DB308725C
:103D7000C7B9300995209FC330E0405E9328F539DC
:103D800022E2BFE0302479F29D59FF60356B9D122D
:103D9000C598193290403C39D3D798107050A2BEC4
:103DA00019F199D64466FF5FE36997C867F26280AC
:103DB0005E9871D373300F625E98DF90F8F7B91D8B
:103DC000D497C81132F491C13050B3B7FDD5BC09B6
:103DD0007DB3D9C847DB1FEAE2AB5FFFA67F5F690F
:103DE000FE0491E8ED26C1F4951D2CC18AD1D09036
:103DF000B34AA284FBCC96AB50BBDB5C303F19438B
:103E0000600A4090A409E00818986B903020104F89
:103E10006FF9A081349C801C005AD6E90965C884DA
:103E2000F33D641A010B697D73AF970ADFCDB4B51A
:103E3000B3B431F5989A7C17C99324F3C6AF124EE8
:103E4000BB89F34D20EFCBF8FE804F37C5F198D2F8
:103E50004539C79DFA98048BAFFBCC22024366D448
:103E600021C0B5289A26E51DC0A100FB74A2D8B3D5
:103E70002406C090BBC0F00A3856767818C899E876
:103E800046DEFFD07A6681EF159899C83D707E0EA8
:103E9000C0013872C62040799AC60F827CD310FBCD
:103EA0008481303F06C104599F40ED11012041D06B
:103EB00034099195C7E69AE8413468FBCC8E6E21AF
:103EC000FCB38EF0D0425850BF68820DA00935F87F
:103ED0001040D10218DE0B61000D4E86D3F0F8B809
:103EE0003069D8C0C19359C843759502C8448871D8
:103EF00039428CE2DA3102FCCC06DB5A7F8A98FF29
:103F0000FD8C4439A10122420E29FE092027E699A1
:103F1000A8FF2B5D9530129BC803B3C8417FF13CCD
:103F200016C46F58E2303FD8E0CCB53F66D198F068
:103F30006D16B2A87F0CF1401EC082182BD39A30A8
:103F400010C8F3985D5FAF0392F5F8FED71783971B
:103F50008BDBC2FDCCB9FF7A98C05BDCE9AFFF72A6
:103F6000BD03BF3130CDFD2551CDFAFC3D69024C7A
:103F700001C86910FF1409235002377C8180B35CAB
:103F80003001AF1730D7CAF40E1454D30CF2CD451C
:103F9000B0081605183A86410802F69828FBB83D85
:103FA000EDFFB682080B01244D225C309910F39A84
:103FB0005F9A68A628DBC48EB3E0300D3930204A02
:103FC0007DC4F498609471A9D3EB8A0610C298431B
:103FD0000AF001A011B076A8FCC719817B7273C1E9
:103FE000FF3798E51908723004D78B304B9FCDC04E
:103FF000F930205EAB6CD9AF413698CCC8080C03C1
:104000001294B38EB3BB24AF64F5C50CE7B3F95378
:1040100093C530EE31880370BD5001FA11080624B3
:10402000403B868B9DFF52D0F8044430F1A200C083
:10403000426949464C830232BB11E04971230108B1
:10404000B680518651DE985C30BF88DF988018407A
:1040500013691720A48B11025D778D58129360F6B7
:10406000C0B403F0FB8E04BBFEC277FC3960804411
:1040700010D7660AA29808E82022E01CB0BBC6A3AD
:10408000D6AFB498E53008AFA69810F844B7FE81D3
:1040900025DD8B167B47BBF904012220F8BD5E9815
:1040A00029BB9D792626D13C8E36F58B58FEB8A0CB
:1040B00008C68BDB9890024E2D3098AD19F0BB06E8
:1040C000C0B903E2FB012CA007F0BC9895F3649BF8
:1040D0009BE023973083EAE930BE61FFE06F200C5C
:1040E00065803097A7EECC58F2843B198B74C19849
:1040F0003F8F083BC6D69881BE72D6F8FD91FCED85
:1041000029F30BB3049A40D214077E03E542008CD6
:104110007CFC30157ECC08D78BCAB3F411FD143962
:10412000DA8B60D5FE82518010260814703C226024
:104130003C408829804990B36347FF97B3D1CC5264
:10414000FF32638DD3FCFF7DAD6DF0F9D82F6A028D
:10415000F3C834F314AFFFB47A6621DCD3B25ACE7D
:104160001BC6F4F910319F3380396640622BDE584C
:104170003066CF0093D3EDCCB8CAC716D3EB6A66CE
:1041800084CA3BF3CDA37ECCC235FF117517EB8AF1
:1041900002182F1BB2CC4C66E3E253C69BB9F0FF6A
:1041A00063DE70514DC544E6889881B7D350D35132
:1041B000FC65990666D571798FFFCCB8FD5E3E46E9
:1041C000A4AB7B018D86CDC7CC04442532CA4ACB33
:1041D00013249076F118FADB7278FD80BFCF16C7F2
:1041E000871328FFE866C836A40CA8E35B64F308CD
:1041F0007A2004F3FEB1507F3D703CC8A3FD853C9E
:10420000E0DC61CF32F28F8559D2212DAA38FA8FA6
:1042100019343FE96E65058A36D7D8F9E658E68E37
:104220002CABB1011F767B104002EFC310E8FE20DB
:10423000726B411A084BF2B537F72DB0B3B9D4AF52
:1042400004E05D5841635E1E5E2C789DF2EE10889E
:10425000FCECEE3916B7095DB22FF32F7E31C57530
:1042600030022CE04290020BC6D8CC409CAE18F92C
:10427000C02F150614320A8466EF1BA2A91F0D1564
:10428000C08065B7DC287A8930CFF6D90296B5426E
:1042900050E8D38011C098DC140AD506A534EF4B42
:1042A000B00910808DFCE0E0A200A1FF10440240A4
:1042B00060A498ADA3E90E414ACCA089E01C9B0202
:1042C0004F523969C1F4100E2241028D920C33B164
:1042D0003347D2858612025279D704814187E8702C
:1042E000FA8829DFD6FD82DF2628A241C47DEB2093
:1042F000F71008024179EA99E595F9E281EBCA6085
:10430000F8C45DCD41D598E068D93F022C9C4B6D37
:10431000C8FB88105F4EA104FCCB7FE9BA84EF781C
:1043200096FCB3FE6661179A55AC45044BBB939857
:10433000FE13F3AF182EFF31E13589807BB8B0FF53
:1043400064AFE1405EBA08E57AF781C5CC644D8878
:1043500010B7FCF5000C948C7F192500C999BD2677
:104360005FD27F1B048AA5F46CFA58F9EE5BFE104D
:10437000F4E2B1F8CF91BBC2997CC96DC93080F429
:104380006112FF20D4BAC579F830BCFF2CC5FB1EE2
:10439000016EBE2CF5572BACC8DCFBF4D9FFB3BDC6
:1043A000CF41594B108B8A40349BC4BDC4E0A3FC61
:1043B000C7C00CB535DA5984283FF1639ECEDB289F
:1043C0000436E3E0F95ED84F59B408BFB2889B9831
:1043D00040FE4FB749CACDE3B075E2048BFD7DE6E0
:1043E0004F6F9FB9DBB1202C94FE3F22A536F38D91
:1043F0009E5F956A865CCA7A0FFCC5FE37C7F4EFEC
:10440000CFD629D8FFCA58F00191306906B1DC8CAB
:104410002F550158B3FCF1758B2CBF2043DB8B501B
:10442000FD3FCB7CCC805CA7C7353DA0D9FD409F2C
:10443000F45F2A66FDE689691F98E1629C3063E5B6
:104440000EB76F19446737E5E0ED3260F91ADD9970
:10445000E39EDB637BDBB104271010C0F96EE063E1
:10446000EBC6027529049E847BE370FF6E7767714B
:104470007A794C99F6EA31CB591045A6489DE5E585
:10448000A792F122A905BF989D45DD4E60FA1DADAA
:10449000F6C127A6283CFF66B70038FF998AE11EBF
:1044A000A540DD8C8DA14224C5F297562D4F020305
:1044B000E3F778FC422DB241F82F8CE186A1090880
:1044C000F5EE40B147FEF9DE02220844F42F8A805F
:1044D000FC8E01F7EEF0FE207F970C697F40F00123
:1044E000648D58F721A0F8BCA1B309926E676BAA3E
:1044F000B42016F5B6CFE788E8FC60FF700430A062
:10450000B281009CD6510256B8AFEAB4E0798B9BD9
:10451000208009D08E062D3052B308E27C8B012218
:104520002082E931182C206C3EFCA68252531711D0
:1045300020449301E3B9F938D610235FC0200A0064
:1045400038CFC51074012408C61480F068042042D6
:10455000270CCB115E7924FE2A4D496018CFF8064E
:10456000412180F7446490AE08E568D88A508324DE
:1045700011017C30083AFEFBB9BAD8E322C1CCBCA9
:1045800026F176F4B220F9C8207BDF024101B7D9C9
:10459000637DC53BE250F9D6D511ABED81B63CFF4A
:1045A000E3AB08403FCF150ACED0195B8EF5EF1B69
:1045B0007D71E912F0A4829BEFF8FE37E107B37C2E
:1045C000C4C5B9CF4066E500FC30B7FBEB8E6F3752
:1045D0009D58D720E79959FD15ED8048FA8FBAF319
:1045E000D01A2F6931A6D7FFB8FF044DB306108843
:1045F0008BC4ADCD618C5FE5DDC0883BCD71FA0425
:104600003F6516C28D74560626EADC208090B1FD07
:10461000C3467505208439FBD8B0FA4BAB70805087
:10462000CE16089FAA7EEC7620AF9D9EF9E8FC99F5
:10463000BB63024CB3138CA67F4F606DA948F8850D
:10464000E785B2BB01EE31E5B5C14297E697ED646F
:10465000B8FA946B46DE79C48C05678E20125B80B5
:1046600060FB31CCFC65E8C7B0E1A368A63FF3F975
:10467000CB31A7AA7688F86FD498EE5CA0B78031CA
:104680008745A848A7D8DD9B01B0FBBBA0B137D0B8
:10469000319840CFAA0DA8052B9791E44A12810DBD
:1046A000C44DB5327B8965BE2D89A404E48042D017
:1046B000F46A10080EBDBBF8B5FFFB86D7A00CADA1
:1046C000440237BA0C630818180F57D3414BC484FF
:1046D000CF2D57D398D77F2126F0791E088318ED68
:1046E000ADC08B94B068D06243B3E0383A7DF0201F
:1046F0004CB370E0807F382004425E854D540F0833
:104700003DD0B0FC80093372D022EE0A3DF98CA472
:104710004925E5409D18059BB3A001A636AE0418B7
:10472000782468210C380834182080C5372F2A4C8B
:10473000F5E5FDCA1D16716F101260792088501BB7
:10474000EB06A88466E73C80C4FDEE814B9888FDAB
:10475000942C3FF3801044021881580BAF619FB333
:104760006840D8FD609F811907E0400681C0782726
:10477000EA390C908C075CA319D8030483B4E001D8
:10478000803C4019941AFBD3F568813C80AF9E1E93
:10479000C803788A204F54E6F8FB8077D3B9C30466
:1047A000015E824EE31006A0EFD8EC60CFCB7FE035
:1047B0007F5EEE02894AC60475A970FC80B3006969
:1047C00024F0180103643C400409B292F3FAA67B7A
:1047D000B3024C0111FFCC49340902C0E7B9681299
:1047E00042C91029F379BD28B38C59DC4A66206B85
:1047F0007006D0F3FC20C30DC7A005AF022FCDFE7D
:10480000AC28110D200434CF4A6C0895FC441A33AF
:10481000B342FA2DA001048008F2B77D41D72128C8
:10482000AF9824E9646678D59026141EB57FCD3202
:104830000C31B1BBB20D06DDA9602DEC8F18EBB3C6
:10484000DDECF8800129DCC4D9839F10E0C8011891
:10485000205E980CBDF3DC31B3207BCE84D70130D1
:10486000FA7A4018882F264D6B3C5720FE9826DF99
:10487000B90D65B3FCFAAB660A08F9204CA041A457
:10488000E54E672123609BC004B010F6E5012104CA
:10489000D0FF93400B611288B041E3300114A2377E
:1048A0006B942488F88573F900BB2419EE490AEE4D
:1048B00030ED44FE1146A4845091E140F680487EDC
:1048C000B2598020D58460461E62202C7EFB0222D5
:1048D00004C084BD98624187E0310DFC778DEF43C1
:1048E000207A9818EF6B982C80DE980EC4035A65D6
:1048F0001B64369DA96D60E05E983A9CC0034CBD78
:10490000E41980B5F3F298F47E107BFA6E94443F7C
:10491000A177970AAF9808FB9F11DC4E807646522C
:104920002E5D018DA97C9860E5306E29FDDC5D1659
:10493000C0FD98FE4360210C010922BE037CE00209
:104940000B6411ECB305B0FCE7B011A0E2D02087F6
:104950001883F110214808112FABB340815F65E245
:1049600038FE200581597B7EF82801A005B784FB1D
:10497000E3A008CE0C0DE73402CEF64B0985EE57C6
:10498000301BA44B20D3FCD4804008820298EF3621
:104990004D99048219A0FDBD5606FA9DB201F46F2F
:1049A0005910C219E0D553616565197030AEE64201
:1049B000FFFF5FC63153404A53E56AC8FC307B466F
:1049C000100C9640487FDDCCE49826AED0CA440E49
:1049D000D3E83724F3A634D3E001283EE8FE04816F
:1049E00070E12602833FC0082021A0457F3F301898
:1049F000110844020C812834019CB38149215EE5F1
:104A0000A65842014D41D3CE02847E58407DB30466
:104A10002C842970B6C9B309ED0FC42840A313D85C
:104A2000BDA5869EA0950901404DB33B90882466A4
:104A30001189AFD578BB6402200405C87898C97A7B
:104A40000B1AD3FE083002F0FAE040B83D4D431691
:104A5000832D23C439301EFFC0023A100160802C20
:104A6000627E98BFB0D998400F26BF2DC698F37AC2
:104A7000B823073D2050AEFD6B3D08069D5D100339
:104A800001FC305E9877C4770CD9F381C7B47D53AD
:104A9000FF60378920F9D717A9AB6203A399A7C68E
:104AA000E0F9808421BD98043E69236021800709D4
:104AB000B220F006400858F70A627E5FA0CEF932B5
:104AC000B8A6A29B481804036F222D02102BD9CB45
:104AD000987CF66014029D86B950F92E9D91D059AC
:104AE0002B2BFA935D1463941B8A605D63FB0501B5
:104AF0003014403F55AF31CADC18E73009412DF082
:104B0000B011358A2BD8D36B09D20DFD80058210E8
:104B1000E0FB97996888391CB3E34CBDFF379835A3
:104B2000F340F78269CE2320FD80BDDF068B021E95
:104B3000BF882BD55AE904B23BE896504422B3C053
:104B4000813869DBBE6196D3309AC25FC47FB79863
:104B5000C0FBF130AFB70920021DFB9CC803620AFD
:104B600048ED97219CB2D7053456D14EF5E44280EA
:104B70001C293C41A4C233989822698C3389E3F202
:104B80005B96707655DD9F62013DA72A2122A174B4
:104B9000617E611208962E0978660E2146429516AE
:104BA00041D89604F501CA2242FF1E60220C2BF761
:104BB000F57FFECE77900702E74378100F3A8F24F7
:104BC00080EFB116C0039578B7E098D9FE98F70C3E
:104BD0008006B07A78581E0F60034CC0C8D05E982B
:104BE000AF606F98D0F9E8918806BED92788012870
:104BF0003BF3A120B4151886E631CEF3E5F59C40D1
:104C0000091DCFB08D171FA0F8E1620E18D34BFF1E
:104C10005811325526E2E5A3BED94CED1214328963
:104C2000BAD14A3BE63399FECC4CA0E018F32340BE
:104C30000408D5A0E0200600D058862F4A84093009
:104C40003525FCF599E3F09F60A2A190C8F55520A9
:104C5000B42491CD8121E7049F99C8909D5CCAAE90
:104C60001A27EAD311B690BB2067F628412DAF84EE
:104C70005F9878C1301A1FCAD4DD456BE687711C76
:104C8000BE4AC49534CBE370D6D382B9A7AF286EA1
:104C9000983DA0DB01BB960FAE888B37207650C8BD
:104CA0009FB3CCD7198066D5E2071C8403EB604024
:104CB0000FEBD9E848C6DBDE98B8FD0405F0A28FFB
:104CC000E7308045105DD139B3050B69A34C18104E
:104CD000CCC8B10F26D0401AFF410361020C8811E5
:104CE00030FA0924C48402F198B3D790897593FFF0
:104CF00004C91D0672F018031004D38628219346B8
:104D0000CEFE10D70141A0983033F2C852C63A0106
:104D100040C8CF848039B040043A875810F4988C4A
:104D20008F8706E068FAE0BF8B30CBC5B5DB24EE99
:104D300098073240B95D1877AC983CFF2C98D2D5D3
:104D400006D3C42D787B98412C69C7307A9862BB12
:104D50007748BBF98B3048FCB6F51328DFF9779715
:104D6000C5A59881649FE0981EE0DE1003E5AE20A3
:104D700094802CD33C35804130D75BF8263001E05D
:104D800004BF8C60CD2140199026A68846234A7C1A
:104D9000B3DB2F396585C0300A9CD01641A3E1E012
:104DA0004C44740802062F454FACE80530DD66FB25
:104DB000C9304699934206888DB2A13C9825258931
:104DC00078989EEC19D0841A99E00181D3F5B4C08B
:104DD0001412BAD481CEC8B0840710C4FA2FE9FBEC
:104DE000AED61C0CDE987ED963E6B5B9D5771C7DAE
:104DF000E070260687C78BC6EDF930073A8E0E9015
:104E00002DDDBF56CB9843EF16F323ED98E041A775
:104E10000530A683E08481ED5378208C6110D30C9B
:104E200088B058FA0A01649D2653677B292C90BFED
:104E300041C198EB0113534424B30A677E7F09B93B
:104E400030C8AD2013CF26D705FA204222C204F481
:104E500098604D8C8067C853FC3ECB320212C080F4
:104E6000A14162D72088AB9816A23DDF20E6987F4B
:104E7000D232990ABE8C7880206204FD8189B07C90
:104E80003205E298FB7E8450302251F8B96AA0FACC
:104E900005F28016C8F6C50B20EF769830400E2D2F
:104EA000E598D3CB6FB03F23C40378400B59BBF7D1
:104EB0008002F0207898F5F368013CD7FE6FDD02A0
:104EC000C12BD88830D2FF4B98806B4E0230CFEE8A
:104ED0001440308E14F9EED35CC0476DF898A16091
:104EE0000AE6DC31FCFACA14C05AF13BD5F784015A
:104EF000100978C56E136101B930310D9FDE17B40A
:104F00000806EE61A3136CF888020921F704FF2557
:104F10006011D78204340380F8E51710C09524A3EC
:104F2000EA984DE23056881047F5E50881245B9FEA
:104F3000CECA05B69007D0021BFE401362812DA495
:104F40001167D314D31A41FF2168040DA08180108A
:104F5000DE78FEDB2F19E25DD2E906B6FF2EC5A38F
:104F6000DE993FCE99F3F2B61C0BBCB83BD8D70400
:104F7000822BC9E5F4F05A6222CAD1E48BB7B79804
:104F8000042265E80DDCA2309DFD32C00135B3C2BC
:104F900040E97870D37F2E3020FDA821C1F34F4D1A
:104FA000FD84099006A74BEF4F4A9849C1711098AC
:104FB0000440F0800C2C28F16733EB3009165FFCBD
:104FC000018368202CF982113040428890908270D1
:104FD000124C9359A8FCC70430F70240C2007A98DB
:104FE00004FF3B98E365721101404F58F086D146AB
:104FF000537F5F080B8F042C27736702C0BF88782C
:10500000090C84B3B085FC59C88AA019E9ACC8BFA3
:10501000C8C6984340ECAFE801981C6716B556B572
:1050200043C8A116B0D3EB68413CC498C6FE291A08
:10503000400BE0813C0E88FB8B93EBF4AD717C98C8
:105040008E86E24ACAE8310F0D1AFCE806CFC80482
:1050500002607EAB8F20CFE5F8510EC87195FBE062
:10506000B226161958DBC3986905C1A608AF42D904
:105070002B51FC7CD0A041BEE0011481C469FA42EE
:10508000404530013FB3FA060A48CF8190FDA0CEDB
:105090001002FDD420FCFDC82D24010680FC3095B3
:1050A00021DDEB8B8010F79836900659C8E4480B49
:1050B0000CD3FCE0308024048247734A2DA4800581
:1050C0006D7EF90DDB780503972501E7F520085E75
:1050D000C5625E982DFF371C0CDA88417CF8975327
:1050E00003FB8BA8F842F3E5BA7686B9E042BD9897
:1050F000027657C81030E0B1E62F4F98E0E0080381
:10510000799F10E081380004BF24AF5CF1989B8543
:10511000F8093C5F049202FB075308208081E843B2
:1051200012889819E5ED488201BECDDFFF76A8818F
:105130002042A6FCD04050000A605F88100534165B
:1051400020941D4071C80C81593922F9D7A2B0D4DE
:105150000146040F8041E005282124E409AFFDED5C
:105160009520B0F4AEDBBE0E0430110661CB18F909
:105170000302444C7337D8046B821362C9228C59E2
:10518000D3FFC8FC60413C900522EB001ED05D9926
:105190000F4081AFBD98031A000B731608046A66AE
:1051A0006AABEE68402CF2FCF298E603648170234F
:1051B00005F011D33EF362013C1030BA64EFB5AC98
:1051C000EE710801BBBDC076AB8460CB024D755655
:1051D000B350ADB388412E0FC0FA8DF59D881FA93D
:1051E000C57DE25E8A93B911B3453CFA440188FB60
:1051F000ED93602148BBE5A04CE02112B896B3DBEB
:105200004D5E9F11A011201206E1D0289064226209
:10521000A76E21B408D8B393FF32AEFF018D19FFFA
:10522000C5B3E7FBF9B8FF8A67F35E38FEBF20EF2E
:105230002416E2D571F388ADA180C8A5B5CC08D3FA
:105240005866243BFF98FF240A8C667139FAB4F93A
:105250005BCF827962874A6678D3AF37EFEEFBA1E6
:105260005F315850660F02738CF3CE5812FE914492
:105270001EFFB167F518E6EDC6D37BF341F868C2AF
:105280006AEF01877FCCDBB8FC1ADA842771DFB9BB
:10529000C39EB25B9E01B21F4020CCBF6E7C04D087
:1052A00004B3E32911FB7E3C1ADCC6C51BE7A8FD4D
:1052B00030D9F2C02349A31E2EFF38AA37C8763A48
:1052C0004060FD31D6B866D9E5E24F3CDBEB346F88
:1052D000166C04D8FE8E3F50F68F10321D6799E988
:1052E000BC13CBD8F9A813583D01A7993CE351DE74
:1052F0001270EB13D02103DCF97FAB0040843553EF
:105300005D012221BB0231FFBFD0E94F91054E6AFA
:10531000100488BCE230ABDBE2E8FBC544F712E1E5
:105320007948489D57CF3C3009C4B9CC045B28402C
:10533000918A71187DFE209350B30819CDBE68FA8A
:1053400000E9F8012EA0040C701B3C426D80646ED5
:105350001512609B8F088A96B30521FAE08018D059
:10536000760A62CC03A609FADD46C006D8D8E2DF89
:105370000CB5A115309FFBE66400440300F852B859
:10538000400912D823801DF65B10DB4996290B23B8
:10539000DA6021FCEC810E420268EF7FB6907688DD
:1053A0002A802F10E7028320C28215F1050AD0F966
:1053B0005E904B458065844118FBCFEDC882CEF6E8
:1053C0003F5CDC930A40089A9EBEB82119314E45D5
:1053D00072A8BD810591FDD525E693897813A3CCEC
:1053E000D56E35D1E5C050B728E7CCB3DBA1052396
:1053F0009C238583A618ED9E98ECA79395C260FC2C
:105400006FF658E6E833B7DA8B6D4DFD772868CC38
:1054100064B48F18FC21650BC3DA09D4FF20CA7F5E
:10542000EDCCC07B25D85E98B51159E3840B5F069F
:1054300017FD801097D5ACF6E8E3CBCDF8B3FFD6D7
:105440007108E6D32AAE2C7157F6FBD0769F15F67D
:105450007F37DB14017FB3C0BD79C8B7F832E6925D
:105460009140F3C7B92D09712199AB76508C6660D4
:105470007ECFED650196EA66B01118FE2C224FF042
:1054800057022C0A6569807A3301CDE66528F9C98F
:10549000E30A37F6D10237F42DAE6775DD69AF85C3
:1054A0008EFF104001C9FD9A209618DBA8F8115C08
:1054B0006BE68E51569C656FE41F4BB7483732063A
:1054C000BEC2C56680FA470A0D688634F3C95C928D
:1054D00006A78EF8DFCCF2736D14CFDB37D8E3CCA0
:1054E0002BC668CCFFE3EA3CCCCCF34B1CD357FA79
:1054F00009F0A32566868BFF405CB24ABD2288D89E
:10550000FC208A7B02C53842C7B922D8A3FDC51149
:10551000E04AEC25FB6F750C0836B99CFBA05AD805
:10552000DF59B9E54B96EF67E95C10E668B7FC1602
:1055300051B06193E6027975D9A29941D005E40C86
:10554000D9B3500AB0846CC270FFFEA324A6428B6C
:10555000CB5B19FC3B10767FEECBD0D36214F5A762
:10556000028E9912A4CABAD198FD229FE2488EC732
:10557000FEC796C3107350A8F9635F8B8E08CF5B8C
:105580001C0464D22901F41E20DD8260AF805CE53A
:10559000FE558F804041DB2110BCE8D8B6C5F50F21
:1055A00040476592D7B42222C87BA7FE44404C6690
:1055B000FB209A69FD11FC1782100AE5EBEC4D3FC8
:1055C0005A36E1082BEB5808CDF67CAC64D981AF94
:1055D000A6A866E4FD174319260336C09F04A01A47
:1055E0006006A83DDD25011471093D8B03080514F3
:1055F0009E66373E080CC0FBC0C3BD07A70966C046
:1056000006C827C6EEE480F0A105A0FCF9B8A20602
:10561000199F3867E1401648DCD6268A89B804EB22
:1056200063C01C304BA019FFBA20BC7F4149111048
:1056300002350C27F62D0686F8C029100380027F5C
:105640000401441828E8FAB540C9F4AF25FB1EE070
:105650003D08F2EC67362541AB1620F62585FA5E4B
:105660007F7280042B16B3B121E7825F59444BED62
:105670006BD9FB81934066C462DEE576647848AE00
:10568000923D576ADBDBD2A8FC3FE5E9E38D755E0E
:105690009B96D2E7CB37FD1CFE98F553EB04083000
:1056A000B9BE0CDDA7C0B5FA2D7BAF2636C84DB408
:1056B00010CC908DED93BA0052D3E2C15303F4E0C5
:1056C000FD2DB4979410AEB80C30B59DFF8479A62B
:1056D000AB3270F87658475D96C4DD3A7985B110E3
:1056E0002D60FD7F9204641BD52C24404BFB382099
:1056F0000418FE62F8FA8C20FDDBF704ED748919BA
:10570000B006FC49E0DD64D9F0F9FABC2C6522D37F
:105710006535600273CB88FF650BB3962B822EB183
:10572000CE592D011B02B4406C26B0F853547805B5
:10573000A6636B5C105FDBE709EC0FADEDB3E34CE8
:10574000DDF3F43C20DC63D4D9DD2DC0B3FC85E36C
:10575000E78C7D349FAB42042FFFE478F92080343E
:105760001A1262F758CF0BEA2CA001F6B48006108B
:10577000899085F30211CD7AB6A00934814BE542B8
:10578000FCB95F51E1308242117C6E2304F36FA7B4
:1057900048F87F089E8BEFE2704710B50676590CEB
:1057A000820123CB8120B292235FB5D7516583FB61
:1057B000BE9CAFC0F01EC80361330F80B32070B32E
:1057C0000A0357B3E05997CC1C41380906BC981816
:1057D000B260B30CD33C020295B2D0D468D339ABDB
:1057E000F0F8FCA1029C462B9AE41D66B9F5B34083
:1057F0008023650CA4469EB3F411340A14829301ED
:10580000B3C00883090279DECCB3A091D1FBC8B341
:105810006D37FFDAA0624E522164FD3F1F7B1630C8
:105820000139B351B99026887023AE865D9982F90B
:10583000EE03D42402F36127F89D0D90CD050243B9
:10584000C027AA03F31490E101304053C0540B6009
:1058500000B33946B3332CEFCC321EE878190FF37E
:10586000D70D80A17006E70318C6E081870C70B5DC
:10587000FBF2EB36F0E5FCC0BFACEA3043E5CC48C8
:10588000BF656C80E069D311F27CFBFBC088FD9999
:10589000916014F587582387618C01E4B3FCBB0B3E
:1058A0004CDE45B3058020BFAC985F7FFB228C089F
:1058B00001B6FC4A9F2F4440805130F002B8F8A056
:1058C000DF98B21A89900527E7F3261176D389FC71
:1058D000B00109B21924D5F8B2AF916698D008D3B7
:1058E0000374D32DA48F5F758E400409390D9B83FB
:1058F000146C2F66161819676E17021679D776E0A2
:10590000FC862F6D98C44051D301DB71EC17DF305A
:105910004FB8FA1106E4EB06A60CF38007F2B71BAA
:10592000B0B30C3B7D0D8401397C55DC8680D302FD
:1059300001E2B62FF0EB920E80C2FA75F804489699
:10594000819ED2D04420B840DA8CC21B055621EF8C
:1059500098B40824C2FF4218408360412C2415BF2C
:10596000483A191350C80BE7FA0490A416022BD931
:10597000C5F5B2116693E03A268CF7B0CFEFFD047F
:10598000922017C0802B94C01E51812E227898122D
:10599000C23C7D99100459FB0A5026722B48030A19
:1059A000B0BC865150B003D0F60FE4813C72B460B5
:1059B000EF5C98B026E57A400F19FFA9FF1E080298
:1059C00018200EE0019B2D63FC5EDB6418EF0406DB
:1059D000C44448B3A30CA93C193AF3986D5AD108B2
:1059E000FC45BF66E7926559FA5F73B4021BB3EDDD
:1059F00028BDA546BFC0697BB3916780B3CC0920A1
:105A0000D3A0C5BA40CD61149088E981181BD1603C
:105A100044196BF8FCA0FA0195904208EC1B613721
:105A20002F7005E43440AED8635D108233F9300541
:105A3000E28020D0F11A5008D3F30402F08026D07F
:105A400028E5519DF9D3EF0298FF33F8351C4071DA
:105A5000428A66E1019295C2FC8DDF7795C264EFC0
:105A600018E0FE4772F05D1D0361096119D7DAC0C5
:105A7000207ECC8459FDFFCC9E81C006C04090D3CF
:105A800079174C57610787D3885FCC73A408988136
:105A9000FC495FC54CD904120D240104B96DA968F5
:105AA0008C0D6E65B60252B3094288633020C3681C
:105AB0005E8B8B04069581D3F7CC973B33CA80303D
:105AC000672277D3B9A08C81D205321A48D40C3E14
:105AD000300ACDEFFE85040230EAC0E308CA41DA9D
