:100000000C9472470C9491470C9491470C9491472F
:100010000C9491470C94984B0C94FC4B0C94604CB2
:100020000C94734C0C9491470C94CA4A0C949147CD
:100030000C9491470C9491470C9491470C949147E0
:100040000C9491470C9491470C9491470C949147D0
:100050000C9491470C9491470C9491470C949147C0
:100060000C9491470C9491470C9491470C949147B0
:100070000C9491470C9491470C9491470C949147A0
:100080000C9491470C9491470C9491477F7F7F7F0C
:100090007F7F7F7F7F7F7F7F7F7F7F7F7F7F7F7F70
:1000A0007F7F7F7F7F7F070007047F7F7F7F7F7F4A
:1000B000077F7F7F7F7F057F047F7F7F7F7F7F7FBD
:1000C0000F7F0E7F067F0D7F0C7F7F7F7F7F1F7FDF
:1000D000177F167F157F1C7F147F7F7F7F7F007FB8
:1000E000277F1E7F257F1D7F247F7F7F7F7F187F57
:1000F000207F217F267F227F237F7F7F7F7F7F7FDF
:10010000107F197F1A7F1B7F137F7F7F7F7F0818E7
:10011000117F127F0A7F037F0B7F7F7F7F7F081015
:10012000081F097F080F027F08197F7F7F7F7F7F6D
:1001300008027F7F081308117F7F7F7F070C087FED
:10014000017F080B7F7F08077F7F7F7F7F7F080706
:100150007F7F7F7F7F7F7F7F07037F7F7F7F047F1E
:100160007F7F1C7F1B7F7F7F7F7F7F7F037F0810C8
:100170000C7F247F237F137F7A7F7F7F7F7F08110F
:10018000147F081908200B7F7F7F7F7F7F7F7F7F11
:100190007F7F7F7F7F7F7F7F7F7F7F7F7F7F7F7F6F
:1001A0007F7F7F7F7F7F7F7F7F7F7F7F7F7F7F7F5F
:1001B0007F7F7F7F7F7F7F7F7F7F7F7F7F7F7F7F4F
:1001C0007F7F7F7F7F7F7F7F7F7F7F7F7F7F7F7F3F
:1001D0007F7F7F7F7F7F7F7F7F7F7F7F7F7F7F7F2F
:1001E0007F7F7F7F7F7F7F7F7F7F7F7F7F7F7F7F1F
:1001F0007F7F7F7F7F7F7F7F7F7F7F7F7F7F7F7F0F
:100200007F7F7F7F7F7F7F7F7F7F7F7F7F7F7F7FFE
:100210007F7F7F7F7F7F7F7F7F7F7F7F7F7F7F7FEE
:1002200008277F7F7F7F7F7F7F7F7F7F7F7F7F7FAD
:100230007F7F7F7F7F7F7F7F7F7F7F7F7F7F7F7FCE
:10024000017F7F7F7F7F7F7F7F7F7F7F7F7F7F7F3C
:100250007F7F7F7F7F7F7F7F7F7F7F7F7F7F08158F
:100260007F7F072408057F7F7F7F7F7F080D070B37
:1002700007237F7F0713071B7A7F7F7F7F7F7F7F27
:10028000071C7F7F7F7F07147F7F7F7FFF1F627F39
:10029000C23C006088FFFFA0089001324006C8C63B
:1002A0000019FF03050A4414812241CF068AF32076
:1002B0000366FBA00C94290034FF7FED0133500648
:1002C000CA54F419280365E0A7A9C68800983CD34E
:1002D00064800CFFB940FF0014C002580F0B60F09F
:1002E000012C8004C0870A029A70F34064F305A0D1
:1002F000E63019C9B312E09850DBC01028DA2EE0BE
:10030000504CD334D3B00916B9C298FC6090FFD8D2
:1003100098FFBAE510060240333DEA4002080601A4
:1003200020360480D1E0086533E4D8F9FC2001E6EA
:10033000E5CCC78081A3FCD8D6361579B30E231639
:10034000D20A3923D32804E01420719F099EF0F6C5
:10035000E558FB02F726FE42F50CD5D120A280FB22
:100360001AEAFD0637E7376E01B382C002C0934830
:100370007FCE84DA80097CABD35FA07B84E0A4FAD3
:10038000A51259D0AAC04090B8226811F379C62CA2
:100390003308EFBD803BC64EF849886847B3FD304F
:1003A000A4C046901833F16040E684F7040608FDC7
:1003B0008DDB9518B2C61088F36E8CC855FF026CA1
:1003C000D8BC048D0B8DB31AEDF0FAF3C492B31EB2
:1003D0006C40E16AF3A106D4F6D860019AB30466D2
:1003E000BB1CFA21040F983B44026EFDEB78332EC0
:1003F000413004FB6C66287271D1F348A10264D6C7
:10040000B1904566061263DF110F818890218CB68A
:100410004F6604CDF8FB80E7013006C008405F88D6
:10042000A682EC300A97B7800D5D94819EB73CD3CD
:10043000320426C94F9896B0CA4C80B000D3F1B3AD
:10044000E6FF201004C8F9E0013D4D1240061C6390
:10045000D1BD3CF3044DF30F20880F19D33C800726
:100460004F63D0027840E903E241F3F2728770579C
:10047000FD40BEC058FCDC40308D22C3A2A02766E0
:1004800019401808739344416222666C53389603EE
:10049000603345822C10C006406A663D0820A8F9EA
:1004A000E3C00E189B21ED0855B304335C68803916
:1004B000086242B3697F271A080B42208C33F3B1DC
:1004C000C8C2B54013B3A65FFA5FC67F870E81929C
:1004D000226BEB60284F315E4F0A98BF1701944999
:1004E00087F32BC1B2C618D0D1D304E5010CFAEFC3
:1004F000AF6D8D03FC13CFF1982D6FF2363FC54BD6
:10050000FFDB1BF0FFD4A830D9DB82107D9AA780D7
:100510009864F998B30F84017FE4AC1C36A38DC1B5
:100520008DEEC4B4CE6DFA28AF01DEB60A6FCE10E0
:1005300024F1984D622D8128207CEA5802FA12613C
:1005400053F3885580446AE6C78110F1CBFD8001E2
:10055000D093E50F098164B7693480CE222C84479B
:10056000DA980801616C84183FB53920FAEDC0694A
:10057000872304F34981B0B1DCFAE05398F09DC0C1
:100580001618ABCE908819F3C47C9866063C3BB035
:10059000EF6F987920FE3C07F40176B403F77E08EC
:1005A00010FE8484D7B2B181E3D866FF16988A7FA3
:1005B0009B987C53EFE003611BF3A9C262E6FEB295
:1005C00039FA1344B358DA17608B29D3FC988CD3CB
:1005D00041B311CF3141D3881A01CA1360F8EA1C24
:1005E0005F2F40C3B7F321FB300428FDA087B3443D
:1005F0001A40B6A2E0301B280216F198FFDC3489BD
:10060000FA5E989D023E1101766E486EF283E030EC
:1006100024724BF8CFDDEBDE5FBC34F3D7CC9858B7
:100620001896FC109C704532D6A49E98DB58FF6F3C
:100630006F08826DC530F7CC98AC8F3D30C001108B
:100640000879787998DF82A340198FEBE230D7FCE4
:1006500098FC046A66DF0121E498F1CB502442152E
:10066000F498207A800E98BD9841BD088F847A3620
:1006700060F75110A8F8A2040BE530981F4FCA305C
:10068000083F664CAD4FD59811AE75C410183513A0
:10069000C28A8D93F242FB6371596FB438FD7B10AF
:1006A000F020961E3EDC30AE901BEA564013F698C2
:1006B000403CBCFCBF3C83D7782097A5A9983276F4
:1006C000037F3C300C20B0FCB4E36D190482783019
:1006D000FFB1CC6F5C9881B677E55202B3A9C6FF33
:1006E0007F43334B6880FEFF07FF59030960BC441A
:1006F000B3FFBF6ED69810219F7D01201086E1D0F8
:10070000025BE8236019BDDA46A5C4CB83FC30F751
:100710001041D0FFF230101F5940820222DBB43268
:100720008AFC952119969D7EAD6534380357E4E324
:10073000CD04B4E03085D8FE98D194FD5FE519E68C
:100740007AC7FFE9648A72CA8088E545F4D3040653
:100750006FF615C8FEA6EEFC306BFBCC7813F7984D
:10076000E0811076AE8F1EDEC30E88EE5C9042569E
:1007700078D7ED3558FD3C16B83DD3C098BBD4981A
:10078000900562856697E20C19636032C39DDA2694
:100790004044AB4D0520E110E3F95E312836C6A296
:1007A00047293010AE20627E98AF51FC4BC028988C
:1007B00004A1E2CE4C84F2B14010F36FEA93EF79DA
:1007C000320A01BFFB9E30702006C4C9E43012D843
:1007D000FB489A1960EF3F78D5E278E7EF66BBF403
:1007E000BD980269C0309D972E328E401868DF8513
:1007F000308A1866A7AE9841D6FC2018561F4AC802
:1008000033C9BBF35E98BF01DA7E10E13DB31958DE
:10081000ED040960B415FD2D6358D60583B3092096
:10082000AD10C41C58FE1361444D9011013E26C208
:1008300097D40BFECCB006E8FBD7DE9813010B086B
:10084000EFBB667A31280A31A25D1A2CE016EE4918
:10085000492057AAB098258AF212888351F5832D32
:10086000E638BD98081D1B53E5C8FEDA627B957615
:100870006D2E404BA8AD5A0EFFFBCBBCD8D32BC876
:10088000A6C5D960CAF5985819ABE4B5ED5D01ACC1
:10089000F0ADC8AFB63C98A25A090FE4A688FD286F
:1008A000689AFB08442302106F12980ACCC4F7948C
:1008B0002034CD807727FF2344210069801E40CB60
:1008C000EFA0F4E5312DCAFF715DD9F031C020DD14
:1008D000FB42B07F2E9831061E2DCAF162C8021865
:1008E0008ED5112C87D330C008775C5B5E9E31F3C8
:1008F000F9E041E75D200EC0DF8358C93008DD6DA7
:10090000E69871B5FEB28B90305EEFCF023816E8F4
:10091000811C878030AD40B534F77E30FC8469F7A8
:10092000889F26F676FE985ECB679D66FF8CC12079
:100930001810592DBB0C7769026915A0D8C7E6F9C4
:100940007ACD40EFEE3E614238D1FDE5451272436B
:1009500002CFE130B3CD2140695A7B010A0DE0841A
:1009600009915D16DB650BFD4BB0E220E8FD82E3EB
:1009700068BC563D44E4B3F38A0AC5BD98041F8899
:1009800006765EC8903460802E5BE37E7D9B040912
:100990008CFE91C63DA710FD158BFA9820D734C860
:1009A00060A747D3A0DB0335E37D66B30680B6833B
:1009B000ECBFC876D6102BEA98E0D2FCFDA41CCF81
:1009C000AE0E080138779A9B9D83FBB2FD5D77FCE4
:1009D00003400B7D3BFDA3EC02110157C598E17A62
:1009E000F912BC9797F6216D486D20ABE68120CDBA
:1009F000222B6650AB2E13226BED98C040AFAC9803
:100A000030411A055BE68BC49859D58F0C819D0146
:100A1000D31640DD17BF0281166D09FB751F0680D6
:100A2000C8DBD698302FE59895C8EC98F080EED3C7
:100A30000318D71F0DA007D6B4405AC87B7E10906C
:100A40002E193F1A2FF53B298C5067C89843FCBBE1
:100A5000C89730847ED944FFBF7FBCE410A1F8BFA3
:100A6000F9BF8B580443604279B37DA4FF08625EEE
:100A700098F18011B02020D0639A10C001F24D800F
:100A800008323DEEDAB1837831DFD2FEF98DD0BF86
:100A90003106081AFA9804C6793084B480F31CDF52
:100AA00090308116111847CCEFB30411A35866CBD0
:100AB00019ED30BC98FDBC9578C632C8D370D831DA
:100AC0001902E6550628FADB2DC879300869966EBA
:100AD0002BE998C03330E5E0166BC8628B30D798AD
:100AE000029A76EB75A8FFBD24DB20E2024023DEEC
:100AF00011912BBBACD85B8330927E443AFDEC6005
:100B00007B0E48345E95B5442EE5FB0488F88409D5
:100B10009FB304010208207F2673123504FF3C981E
:100B2000A7CFF87FFF2146C40418FC011060202CD9
:100B300084FA600A4042886B9D601042201BF8FCDA
:100B4000F930F02D19B830B3BB806DEB980110CFA0
:100B5000C82C8007FD304006C4037AD9C89A0DF32B
:100B60007004761BFDD510BFC0887DF0960922BEAB
:100B700098B1809F6F9881101AD3B661CAC85793F5
:100B800006D1A7A9A3E238FE68B359C815B7BA9829
:100B90004002095845119F333011308DD29F04D344
:100BA00023600A4DD78811E3F6C21DC00B61A67AF7
:100BB0007BA8F9200C2F0544DC30BB418E1BCE11E5
:100BC0000A08C633C880D71401B598080AF473F32D
:100BD00024C6C1DFC5689EC811ECFCCFE230316588
:100BE0009E3730CB0D6FB26041195BFAF130E7ED03
:100BF00025D9F0FB8CE4C8D7BCE29298D30FED5F07
:100C0000FC06CB337090FB313648FF9C30F0240259
:100C100040A3684293324B19226137CD9872AEFEE1
:100C200057432092985E12E63602201A6FDA8368E4
:100C3000E7630A7BFC097D927C8C15C830016B8EC2
:100C400080F08B2DFD98026DD6D3DC309E31B7C875
:100C5000081827416012A02CE4BA26416EDB2361FC
:100C6000464F10DFB1F9E5B295F5C030EB03D298ED
:100C70001019050EA7A89880DDD466D5ABE8D6017B
:100C80003C4FD5D3C402785FD6F8803CA007B06B48
:100C90009730706E2F2C1EA8F95C9B8E7F1F3097AB
:100CA000F575A4BF85986AB3B55069B38801A8C427
:100CB0009040D32162F30C8241F3067F2E30617B9A
:100CC000D31020B9FF4F7398445804ED142FDC5D06
:100CD000B308CBAD24BC98D466DC114FEDDD06D053
:100CE000084E3C60040C790C300146D3775FB1F0BC
:100CF000FF3040FF18D1FF9CB37FD7C49FA3F608F5
:100D00007BD368FB69E585A7D87996B9F3E2C8F388
:100D1000C44CA28F339680C6D828B166A1B1858E07
:100D2000FF88FA28CA33A08C93FE3130B6D390FFE7
:100D3000CA3073D5FF020242F6F8B8FBCAE97CA0BC
:100D40006AF362DFCC7180927309E666A9C604F289
:100D500088FACB00EBD0F3C5BECCF39E7F9632D39E
:100D6000632C60FFB02048FDCC9897FB321033EC29
:100D7000F648FF86C6E610824139634019B342A0A7
:100D800002815018B0FBD3F68C04869167F4F4F816
:100D9000FAE861A9FF9F9DF498F9E6F9177AE0084F
:100DA000C4FF6548A3FE533CE8C322B36CFF18FCA4
:100DB00050D3C79BAB01A011FF55A9FE806220B99B
:100DC000EC045BF6DA4025F9F101E815DFBECEF060
:100DD000F9E90810D0C009ED088AFBFF23489DB34C
:100DE0000E046719B39A5A7BED04026C7CCEC8FCE2
:100DF000EE0525E5551079CA24B30CD0E6F6044873
:100E0000F00A96C6A56FD650DB363621120ADC22D0
:100E1000CE0290FB2A0387B070FA804CA4408A3837
:100E200082E97A0C6FFE7352400A6CD5214332C7B7
:100E3000034C6E378925D9FC09ED94102B33D99CCE
:100E4000969706D928FC5F992CA336E6C9018895A8
:100E5000F930D2B195E202376724A8F022C2FD280A
:100E600062992F6EF378CCA3FBFAF9B30896E0B33E
:100E700030CE63EBFF8033D26788B3C6B648C696E0
:100E800097045119EDCFF0FE96D461796C9665DF29
:100E900008FEC589F6DF1418B7BFF65AE4FDFB4F0C
:100EA00063E6D0E6202BDE3B20F0FFCA584E2043FD
:100EB000C98A0C35191A92EE4A880430B6BFCDAFF4
:100EC000A018669F12B1CFC00318FB63CC62F55F18
:100ED000FB861EECB840FCC49BEA10FB0E32C9CF67
:100EE0006CA6D8FB2F376733FFF95890B1FB5DD85C
:100EF0009E20625AD988FD06977A8C60C2D6B3F8D4
:100F0000FBC6370310626B24A05CB6C2C803AC8C6E
:100F1000D6AF10986255C588B4BC8CB804953A33E6
:100F2000BF1B8448F90C7EE3C5B30898B2FDFABB39
:100F3000C3C5FF1889F27D10C7BB1A806ADD65ED55
:100F40005996B3B0209D6202628D3438FF867DFFD2
:100F5000B3048F3D68ED88FE56F349CD91BE108EE7
:100F6000FB317F3E6BFD0490CDF0966A015E6C759F
:100F7000FA2DFD9B2193FBDB80355288B2F98C89D9
:100F80002BD5A901887C32D91940EBC22019ED611B
:100F900080E2E8CBC95BAC4036D2D0F8E6EA117605
:100FA0001AA0D88D0A23BB27FE95DD5C60D9FF48C7
:100FB000FF34B91490107F5882BF113DFB10DFAB96
:100FC00074F96DFC71A0F981F510C702200C2C0199
:100FD0002206FEC541B556859C637A1EB581FD0F7C
:100FE00040E412C6CE68FCF505A678C3C002501BCB
:100FF0000A40451D2270190E1840036CF60949007D
:10100000140D294550872C44A3D3DD0440FA1D0C50
:1010100064E3A8FEF63E0410803618024664339856
:1010200030DBC0153C8F68400888B3B2C619C601D2
:10103000E0715F29224210818F01248E0461C6482D
:10104000DC82ECC00110D968FBBE2CB1202FB104AA
:10105000BEDF4004E090D3EF78FBE4804020F997B6
:10106000FC92ADE04004BB8F83EB022C4B63C99B29
:101070008B8224BEC9B5C6068A77F2A0FE8A9E5A24
:1010800023BFA22859C5BCCCDBA5860E9CD8DB4C5F
:10109000FFF1F7E66AC6F22FD61E35ED79D8FF18B4
:1010A000DF976C9448572CD9AF16811D63A630F991
:1010B00064AC8D2027D51540AA4180D87853D0BE86
:1010C00098FB019BF6633EBB7F98A29BE260FC6AA3
:1010D000B4B2019675081A6BAF28FEB1401F964D49
:1010E000EC35FB318016FDFC34BED8494C19B710E5
:1010F000F92BAA66F4495BFF738C37E5C8078B7937
:10110000508BEB3D98FC6141698FFEAC10586655E1
:101110009BC780CD1439B20307021066ADE2F9D641
:10112000444015691BFE446DA69FDBD3F381F8A0F4
:1011300005F926FDC4421841080A38E090340291AE
:10114000D050E772A0C4FB5C30CC1126E1528DE296
:101150000C8680D1561231D768447AA0F8E6EF06A3
:10116000C00518B14D2CBA2067928030D3D3CC5F24
:10117000BFEFBE100CED64F922C980C2E0A11EC011
:101180005548E9903380B3C062E81938100711D38D
:101190002D290356EE1CA30FB05099FBB602648DA7
:1011A000D01A6893AF886E2DC0087386244C0179DD
:1011B00012621E67A6806658045AC07E9DA669FD0D
:1011C00092B514DF8010D7B13A5A460402E5F160B7
:1011D000C3540216D0022845B99DD20A6796B3CEF1
:1011E000CA91980841C7BF2C87E48E18114AB38C66
:1011F0007CE640B0FAE041FCF907304006C81B1914
:101200009E633C8807F002791978100F08F367890C
:10121000B433367A1978140FA3FBC656F303089A31
:1012200019D8FE34EDFDAC82CE1941301049F309D6
:10123000E3A160E31962BFC79418FDE079C6B9F372
:1012400039D350F9801D00B626EC1E0842E0E42098
:1012500053C6398C2CE057C9431970B4243DB319D7
:1012600040E7410C04D30558E9FEA009EDC2FC8417
:101270009848080A82C7B104401CC9E293D82241A9
:101280008FB7982008F9E57A9848F19879F1120219
:1012900082404BBDFD9818B6FDF398FC3B88F3B334
:1012A00051F746794893F6D6ADF886817EF902C9A2
:1012B000DD76067E6F08D9DFF064FA9861D5DFF03D
:1012C00072FB7258E08F76264401FE987F89E5F321
:1012D00086ED189003588F88FCD0451AFA9840EC98
:1012E000C2C5B145F3F97F68BFB1040F6F98A08400
:1012F000F69818215E466023F37E08504042600A4B
:10130000FF659859FC02B78098A524EF3212D4AB40
:1013100063142196D9D47FAD9A89FD982169CCA117
:101320000448F5C6130121E398D0E1EDFFE001BDCB
:1013300098796DF21CBCBEBCEF59B83CDC472DD38C
:10134000FC98F1F0F39DF0F3D003AFBB9838FF04A5
:101350005F3C9879DFD7A583FDD79FE498B66FE609
:1013600098E6FFFE6BB2103C980D607EAC915B532B
:101370006D3B3646B01072B329DBDB982082C7F68E
:101380003C2858F70423618277370570E0FCB041B0
:10139000A5291824C068AD4D80B0FEE52EFE2FF3C0
:1013A000334BFD9804D18046887E9E10E189F3F08E
:1013B000D0021248374C20FB98C0FD7822179119B3
:1013C000660BC0F3C5C9F88976B14196B6015E9146
:1013D000A1C02C280C9D51FCE0B0A1C02D91F0F3D0
:1013E000A338621FCC2FB636C9E130571E1C6DF6EC
:1013F000703D98B8D3FB8CA5A6D079DDAFDF74E241
:10140000982F76C691347B6605301A02BCE5BB4442
:101410008269DFB1C2081210C50A4A7FBA985AF928
:1014200004FB7FD7770BB68B3002BE98BC443BCF12
:10143000D6B08208BC24ED6868828CE3435FF82252
:10144000181110626BEB527756F9FA98310119E1D5
:10145000037820C060863CD3D798787BAB0D20679B
:10146000FA983CFE763DC08358BC30A3F0F35F721F
:10147000982038FC0AF2241426B6FAB631F49810F3
:10148000B3D6C86876BE6CB88A7BD362400C5FB2B4
:10149000B93930D1EFFF8009E26A53B340E6043036
:1014A000B405EA26EE8480112338B47AED300A269A
:1014B000D4FC10DE8601B35EE83E19A360848CEE96
:1014C000743040F880744579BCE80A440F205134E8
:1014D00080DE4012B35E68623C30D184B037713038
:1014E000AF177B33DD021BCF08DC0C49CCD93CFEA7
:1014F0006233F3DB975761F9DA9E666DE638564D35
:101500005DF842A3D3C0FC19BAB30195D841C71501
:101510006C9338702818C43ECD0539CBF91E96E679
:1015200003A8A108BE0361400E4FCB09B0FBA0B9D0
:1015300001AC1478B2C6E5052F0D57F368AC240949
:10154000FE1B304934B3D5986FDE19A6C04400DEC7
:1015500002400409E6F3B3F85AC3ECB554B37F1C58
:1015600050F30B0221EC8C0448E316D7E0407617C9
:10157000236D488C17312870302A4C7B3106E9FEE8
:10158000609A01F0206B261940BFA93C8001F2202F
:1015900069C530E0AB588F2230073BC2A51BE00481
:1015A0005F7D98C80378400FDDB1C2C8FF6FD717C1
:1015B000A097307704C120FCEFF6C98130207F5A14
:1015C00064E5D51AE0EA158085F322FE98DA81FBFE
:1015D00029B324B8205E0613A040B910A65372B3F5
:1015E00005BAA4C43B1726111B198FB33250102320
:1015F000F561044C02ED98B0FD0E93E0D408BC9464
:101600002701812277A998D2700BF168044110E07C
:10161000B4311E0030FE233083D0B312068141481E
:10162000F0014D8045B40840B31D1046C086BA8F06
:1016300086E2A24B1921A4BE09C40C66C2EF220C9B
:10164000DB53C182E748FEBBC0A817916E2360E15F
:1016500007BC6DADF00C401977DE986AB4B610F295
:101660004BEC0A1CCDFD70F4E277A158FFA7A8B39C
:1016700006C08270D6AD589A1CD7422063B8F024B9
:101680006CB0E719A01032BB05C298CD13FB4C1308
:10169000F0C614929D106D2420DFD2D162F99A2EEB
:1016A0006A28E43044D7E38540F8808898D34480A2
:1016B00026F312CFF19843736B09A077DFC69FC85A
:1016C00028181103DC6122F3DD0AC8E798680227B5
:1016D000F26AE4063C90D1F37A62BE98CB3C88264D
:1016E0005F3698CAC81CC6F36080F61988FC04BD32
:1016F0009D29B623045E982FFBF398F830CFF2981B
:101700005FE006C330760C77D7AFA0B31817200E72
:10171000F3E639FDD3EFA7D9E3208F80A0E940128B
:10172000C04D533A4F8CA2EB063F3BC83009BD4B2E
:10173000204B662CC6EED318B950848628BD9898E5
:10174000BBFCC9EB79985D247FA0B8A138B302E94E
:1017500056B4D9340AFD17D33082B302417F93F0D7
:10176000C626C1FE1802432348102166F384FDF803
:101770001D41E3D95380B96085204693DE6DB38067
:10178000CE66EA9EC9C8956EEEA2C077F9DC7B767C
:1017900065E6F9E0EBEB1CF285FCD188F0CBB104F7
:1017A0009FEB9838F8308F48032E049EE47910019F
:1017B00078EEC3A421C048F9BB119B6A141AC6D3A2
:1017C0009E216E9DD07AB860248030FB073BD8986C
:1017D00080340B35C858E0C55FD90A46D385508898
:1017E000E94022285320C4C2FFA29002E26AF59881
:1017F0002232968140901A1EABB720809105228933
:1018000072300451736B2E6950FEF104407FF56015
:101810002220088830EF0250FDC9C826E506C8031B
:10182000DDA71F3098C87A9B07E415E2303C19D336
:10183000F1C6D3DF1ED0E3981610DFF0FCDB51C1F8
:10184000F62CBA17C8C9BB1D2CA947AE172F73F5C4
:1018500052036110F672BAAFD7036270174130F8C5
:1018600009F9804B9B7DC0224D2DDFE8094186F8A8
:10187000FF4898A85CCCFF3498DEE3010BEFD6CC90
:101880000569C8080C2243698810E502F0FEAB3DEB
:1018900070C0041A417B980D20E29004106EC102C2
:1018A000CCC80175EBAB043BC398F734021664C88F
:1018B000732B8030C130E5C6C664786C02094F4492
:1018C000842068B4F9F5D24079D7FB8377AE98804D
:1018D000CAC816F7B37F96E4F6BD0602E558D2A44F
:1018E000C6FF3FCDFBEF88F84FBCA789FF779880F4
:1018F00001E0E5C8C8D3382C44FFEFD27F84C10390
:1019000064FD3CF3E9D31C08D30EA068C19DFC84A0
:101910002926DFD1A602898AA320779F989FC84CE9
:1019200081093462192DDD1084F8CC41996082C29E
:101930004C8606D0AD0CEE9D400915736694E2E925
:101940003BB51163FD2A81E94016020E431621655D
:101950000644EE883B67221002F3C804E42C888515
:10196000A57040FE18110B60224C8417B000F0BB2C
:10197000FBDDD2033440DC6A8110682E46F2C5E3F9
:1019800030F3C80C67707DDD2B3DE4E2D3DC5820DA
:10199000E077926BF3799ED3810C1090FD22621D4B
:1019A000F509602DC5417C988BED2CC8401AEEBF1F
:1019B000E425C8D31EB6EC7F1C30A9E12060F86B8B
:1019C00051002BF5B59150BE07040830123DB3CD40
:1019D0008C76998FFDB17E96E957C8ADA5A00FE032
:1019E000E4300CCDD31048FCF95BACD2E0F5200913
:1019F0004D0DF505301C44823C0B600441B3E6F309
:101A00007BA0C01134B446F19886D3908179D0047C
:101A1000E79B440A8589019D88E69CFC1A3365C8CA
:101A2000DA226BC05D574DD1588871439FC57CE663
:101A300098DE367979EB91014E574338DA7F64C8E6
:101A400026FC3D7EABAF70C5E2E29E196BE798E4E1
:101A500029A2C6F3F5518476770E039BB3FEA0F35B
:101A6000C844FB980208610ABDC5125E98D780027F
:101A7000D128CFBF9B986F8D08447FB5985860C51B
:101A800010A22BDC912C40E70A5409304DB3ABFD7A
:101A9000A652C852A079E8808401F1CD1604E4036F
:101AA00078983C8491B540FBCB7F5A8F44FB980BD0
:101AB00001CB842C6DB2C817802013E761024CC69D
:101AC0003141DA19F967C8201E80C4B3C8E0BF816C
:101AD000D7980E7898577A9804D466D5ABE8D10198
:101AE0003C70B65FD597C8F85E37E79BD8FA6BF9BC
:101AF000F318C9AF62AF8C16D25ABC397139AAB388
:101B000050D5B3886DE7F279E5AF10DDF300D78EDD
:101B1000988EE9FCD7F387580960DA0120FBF218A8
:101B2000115F76E5248485FBB7DB463B1105320A5D
:101B30005F6D98220C078E9710238F012C5E6B0A25
:101B40002858B3C9FF98B363EEFFF8FB2056CF5770
:101B50007B924B2301CB23F3B538D1CC33E040C685
:101B6000ECB8FF6496FFB0DFA5E098D8FE28BA660F
:101B700020C74C66F4D390B066CCFFED33D9C8973C
:101B8000B3DC808CA023FD9110E6D322E7EDE8FFC3
:101B900004FEB78DF140443633448FD136E0EBA2DA
:101BA0003FFD5050F8208247F6CC98FFFA3DB840F0
:101BB000948FFBE0BE08C82233EACDB20F3D364316
:101BC00037ECE67A28F8CEFBA873B21437FF37510A
:101BD00014DDB96568F5B3FF36B6C20FB639E52630
:101BE0000996EC7A9D48CDF3E531260862BDA166E1
:101BF0007D67BFEC415853AD64FE37C59613014A6B
:101C00008A48D90A90B4FB344B30FBA1FF08679394
:101C1000F45138FD6DBB2304734C20361B13F9338C
:101C20007D7FCB17F33B3AAE38FB112DE051A1FE7F
:101C3000CF1403F92172E410F5F0209CB36AC89622
:101C400044B45AB840F6E4F0FA9FB380A0044002CE
:101C5000BD08B32DF10D850114D2EC1AE541099CA4
:101C6000B39E60EB06013067FBD0FD2068B2413DBA
:101C7000DD4A4DFB0410FF7F35A4C0BD674248E23A
:101C8000868C3AF050E7FC1828877906629EE19A24
:101C9000486888DB2AFFEA898E02FF7DD11411088B
:101CA00088FC9FE6F0A7AD18F8D7D981E4FF7CBD8A
:101CB000FEE74130F5442C42CFEBB004202C4177B5
:101CC000CF40FD7248B3EF71FC6718DF66FF7837CD
:101CD0004BA87EBFFEA144AFD9B701261030C46720
:101CE000ED3E367968FD192C782053563CF8199E44
:101CF000B3366E6C6EF3DE90FEEFB24096E12012CA
:101D0000AC62409FDC9C08F6A378B3378560FF8601
:101D1000DA02D8D8FAB13B8FF12EFC86405EDBFBAD
:101D20008268FA159865B42458F6025DF5C2CED6DD
:101D300040B8FD2B35380463ABC5042D0D8064BB62
:101D4000534020FB33E58BE98727FFE962B90B8716
:101D50007F7FAF0833E5F650C6F78502635F04D98D
:101D600020FAC2E3BEC2350E2088F7A4A0FB63466A
:101D7000243FF67A62AEC1CED3150EFE7FC3D5B333
:101D80008494F3EF50FF20325B8C0429ED9F809602
:101D9000CBD8F0FB8AC220C7B9D5086617CCAFFEF6
:101DA000045AB3FA79EF85DC8759EB621ECC96288A
:101DB0006632B2616E441DB3FE3CC42B0E9BAF89EC
:101DC000FE17DE220804C24F5999040BCBFA7FDBC1
:101DD000F5011B027CE805961A32B0D20110E0052D
:101DE000D1D3407BEE38FC8E80FF8E1E8C1D32D20C
:101DF0000ACB057FF669D0FC409D21B308F8C646A2
:101E000056629EA89611DBBCF00D96CEE80834F819
:101E1000AA4A50EA024DD7941120EE31D3406B42CA
:101E20006C6DF37740FB3680C3D6FC046FEED02197
:101E3000FB60BA1207124006CF1050B14101280DC5
:101E4000C88350E7994A03816804B328D3B409FBD7
:101E500022F88084C20612186821BA0C0557AD0E0C
:101E6000C8A3CDA97EC883FB613CA08240107C073B
:101E700043F3D684142897C2FF801840820A880F43
:101E800058026059C8DC87D70810D3867518229A83
:101E900058890544F514FA4A294008126BE448525F
:101EA000A9B1460211C526F66F5FEC87804BD68B31
:101EB00010BF092EBF3CC7D0DFD5AFA0FBCC05FFBC
:101EC0007F446879CD11101320C4A67D68B362BE2B
:101ED0007700B366BF07E0D8FC108EE84A1286F39D
:101EE000F318DD494090CD34AB30524E2A7CFD20B2
:101EF000FFB90F16086672AA01C47D9520C680043A
:101F00006FD6FCECD30248B92AEFF8A0F9EFCDC8A0
:101F10003EAE1B093A78C82CD9C782087BF890FAE4
:101F200067F1A08F99FF864E5283FCC63A368CCD5E
:101F3000576184314D165819A7A201576CCFBD02C5
:101F4000DD50624B991213229CC16D28C0FB41E306
:101F50003CEF5A6D71AFDF720518F2924C08CE3724
:101F6000B87B62B8FE4002652A10DD3F14B6F376F6
:101F7000DD01030422186EC3119FACD090FBB1CCDD
:101F80009CD8520841F03426061F40D0F00CF9B21C
:101F9000B314B21407B0048F8C3AA3A7678404303B
:101FA000FB677E4A608CFC29D515089227DAD8F8A1
:101FB000F9C6FDC16A1F2DA2790180B1047CCB89CD
:101FC00090DD3FDB8CB0F8C356FE180242080921B1
:101FD000F69A2002F48E22D8F7888FFDCC34821036
:101FE00004A8281F1102804441CD300868E72DEC79
:101FF000240AB460D562428539DF6EF6B784EDEF0E
:102000006217E96F12282266A1EB15553801902D51
:10201000B10C3FDA38302EF6034CD605CA06AEF6C0
:1020200071CC628020F710FB13CBA75904361B41FB
:102030006FEC4F044BED7DF839BCEE68FD46F8EDD2
:10204000F8F72CA001B01B68FD93F216B318C00579
:1020500021DC208CC1B7C6FCA790B1FB16B31401DC
:10206000D1EA8CD18009D3DB8CAD207881804530DA
:1020700021D7FD31DF0734701EC023195E0FF37BBB
:10208000D518205EDBB10C0E4D703CE030FE9A346A
:10209000D3E2364FD306C003183CF3C4011C3DE025
:1020A000F8FE3B47C3AE7A0437F3EEF90130C41EA5
:1020B00019301006C1F1F796DA80818CC6C520ADC3
:1020C0007CDA17683EB320845810414B508D73B3AF
:1020D000F35730B305C4B32DDA761497B3E77F26F0
:1020E000FC98029E137B088149281BA0F94F757745
:1020F000840250FB2C219B6646D095FA48EB98450C
:1021000011F7980480127FD668BE632009018014FD
:10211000EF6E981308C874FD425CFC9FDB9406FCCC
:102120006B232F6E87F3DC734A3FC0985A627BA003
:10213000D0FE7F9EA5B27E57C7CB7F8DBA5D125968
:10214000EF0CDE56AD0416DCE9DF116DE09817D315
:1021500052F308C08AFFEF4DCF014220C7F79A82A1
:10216000714E6448B1390FDA7FB4F764600A361CE7
:1021700081BE9897889BE74E43F87FBB98012880E3
:1021800082C1DE100DB822D390B3492C12474BB355
:10219000AF71E7514C020119FE6BAE099FC2D351DA
:1021A000A008D147B3FBFC06C4775EDE0CB9F2EDA4
:1021B0007834DEE019621E989790DB82E0960FE09B
:1021C000BE98EB831810D16B1C3750FDFAA501E3C4
:1021D0001F652BC0E7392CA93140B38D89151940F3
:1021E000E6E5BE982BA1DE9841301029FCE4C846F4
:1021F00020AA5A212203195EBB42D336F81123EEDE
:1022000098300886D766BCB3458EB3F4982234194B
:102210008E1015E8C0198FF7248244FB2009008135
:1022200001239396029149625E98B281B5DC80BB2E
:1022300024CB98F84409221025B7F0FCF2A94259A2
:1022400053DB632CCE4CFF59C73E406DF96C61598E
:10225000434CFEFF5E6E7F2D3004F48DDFAC6E4B81
:10226000F37F309B316BC830400DB8309C0C684117
:10227000207E98F804F07652892D80C5B2F830CFD0
:102280003F636D2B888CE1D7DE984260820C604EF4
:10229000B06458FEC023A302F88050081060613279
:1022A000735C244252E7C4B795016816D22C822F82
:1022B000C6E15DC6F3228C01054C804E1938A0079B
:1022C00070260EC02679E902F136AC43EBFDE05BE7
:1022D00049633C305E981DAF243079F33C401C319B
:1022E0002DF93CC5ECD16C601999EB983012D3AF45
:1022F0007E3730F198D37FFB881078F8C4B3DD7C4B
:102300000941DEED44DA7F235020AED864328FAC31
:102310009802BE5D3016EF980B64812C8190090302
:1023200098FC69FEF82202411F480881779AC97F0C
:102330002A48045EFAB1022E5A301065A82590840E
:1023400090126631686368A00342DBFCFE68C2DD60
:10235000BD21E69DCD1920408E65C197BB1C62F85A
:1023600039517F66B6F21341209088EDE7F352149D
:10237000CEC80820DB574D0390D8B01797D436301D
:1023800090FDCBC309B54E80BC9158FF31B045716B
:1023900034ABF860816FDAD042640C2090B36B6B81
:1023A0004D7EAFC042400809440065EBCB19089749
:1023B000D312FDB588F030B4D6F6904C8251388CEB
:1023C00000750C180C1844A036A199C8A0F1B01ED5
:1023D000384003E4E319FDB87846B027E2987DDF82
:1023E0008F301B2CC6D0B87AEE0330FF68667209B6
:1023F0004197E38102667266208CEF4B2EC8FBFA90
:10240000CDE0BC981D047130F9AEDA69FA8FB3DD06
:10241000216041ED24841197CB6018FB9736300A78
:102420002489E002B3BD28B3585DC7BB04C24CF990
:1024300070FE20049600AF68409809B80D9E6FF2B8
:1024400040F4B82DB17B3C81C890B610CBC8FC9845
:1024500052F7F3892D047AE5FDDFCD98F3E182711F
:10246000D58CADFF40F2C8DF64B46EAEA8B833B30C
:10247000F3EBCFB1D5AFC01E43E0018A7B9881401A
:10248000687F7FDBCC1CE9ECD630F95240AB445D71
:10249000E4C63087B1F845A3B4B213CDC840C5E750
:1024A000BD1D8084FD647A3324EFF954C2FB04908F
:1024B000FA9E26A6412002B93084A1913AA8AD180F
:1024C0004E3111DE0181C45EB202068108F7262C6E
:1024D00082456A66CE63403C82059B7AF960BD986E
:1024E000315F2F0A781D0365F567C8401E772BA75B
:1024F0000F36C81025EA98703C2DE08FD3E79A0379
:102500001810BB079A23E8FE3FEF853091174EDF86
:102510001DC75DF09DB1F32F5A98087FCC6010DB8A
:102520000C809747DD30F9BF21B3B409F098092634
:102530004077F0D8A6C0EE19CCC82831AC304B8417
:10254000307657FC4BB8B3C6F70E218104766EDAAD
:1025500090F24BEA09EF8D2048015E984DECD08057
:10256000AE58C89F8098A216E725E6CF90FE9859EE
:10257000C88B6A81AE2251FDF4B3BEAD2640FCF596
:10258000FDCB9684A7133CFF67968004E5EFC74414
:102590007797B0FB68B841952C41AF1B6BFB0314D8
:1025A000E0300B4E82FD7F401FACF59F9DC861203F
:1025B000EBD680C6B3F042E0BE7B2C04F76C887289
:1025C00066446CE4114BDB98A020CB4FFA5080108E
:1025D00004C683577A60042810D5C09BEBB346939A
:1025E0004BA3FD2C8008D93860F1244C808199FEE2
:1025F000E57A2C82FFEDC38C027F7F11F9106140D8
:102600008001D5E212A1F936F798033840DD0F605A
:10261000FA84F02EFB60F40F68B13E2230D334FF11
:1026200023D3D68BC6902360250D32FD6420533B07
:10263000942010C36FC430B60189FB9806C471F8AA
:10264000C7D3FD9BF9C85D6D9A4122492E66D6B16C
:10265000C0A7FCA3C08E04B88557F619410C5836A4
:102660008FA098B05F469DC86004E28619B3C81376
:102670008B612CCE04087DE0FEFF8F1902D78B60A2
:1026800038308D2001EFE1C2F59D4893A001897B90
:102690009810161A40D7F50B88E498D3E0440369E4
:1026A000408D810402B738CBC8FABECBD56D808D82
:1026B000FA9820D3CD98C4F4672DC8FAFE9969D54D
:1026C00071A28806F343F649C4F83074CD07B066AA
:1026D0007F5ACC05D62BC1F49F443AEF28F904D792
:1026E0009C821802C70804DF0C01EBF4488CA74752
:1026F000CDEA7778D1B402F59820DF9273429060EA
:10270000DC240C63C4B8FC7FC2328158022DED7DFD
:1027100098485C30DF6001B6687BB41012EE20C0D0
:1027200024FE7F440CBA91BDE8484FAA60224C8831
:10273000C03130DF58F8EF9830401EC0021AB85D43
:10274000FF01981E59E82895431B3DB31C599B6D0A
:1027500098C801F480D3EF06C88377F33C10301F8C
:10276000B3C33D6C612FC3FF8CC040187FD8CC9F92
:10277000A79810D3C4207166B1D3D97E28C65977E3
:10278000D368F9B9B3804458D9FB60214C82519A7F
:10279000E0021A51D314C789733005462DC0C8B35F
:1027A00019BC983F60814CA580B328DD647E7FC84A
:1027B00043086814212801DC1C37FA0967E824045F
:1027C000B1350766240216B510E7272009B090A09E
:1027D000F17E1A40936844EF9B72ACFF7F6CC5801A
:1027E00060DC96E8FF241936CAC2DEA45FF94AC746
:1027F0001834F46DEEB8F8B3C8085D9E6BED534025
:1028000006E29FF7C4BC990507AF666E03260C0568
:1028100005CAF6812FC615982DD617CACB61E46478
:102820001067F944E69E5170BEFDE5B0C010C1DDF1
:102830006472DC4903C766F460045D8497054DA0AB
:1028400066162FFED3106104400248EFEB7F085854
:10285000F99F224092B8B0D3CC7DA6300A20C08820
:10286000CFF7418C8249379B25782189B38CFD9025
:1028700041302258FCB72030D077584003FFC97050
:1028800020951E8898BB687B3C205E96804FCB6667
:102890003C8DD3B2C897190472307964D340E63ABC
:1028A00068EB176D161564DFCC6994C879B5805B49
:1028B000B350ABB330D69840FEE5BC10E0B4FC0B8F
:1028C000BD9879B4FA78B34248200A1104EE01E1C8
:1028D0003013BB1ADEFC4C0181305B8771D6BB190B
:1028E00009467E49C826B3C705027BE022605D0B1E
:1028F0001A30518D1988FD00B9F694B363EDFFF8D5
:10290000FA79D0A65D7BC6F7A0F39B19F3C6D1591F
:10291000D39CF307B8FF018243FF98FFB1242393B0
:102920000D1A66D8FBE99CEC657914E7DEFC46B12C
:10293000E6637C7EA38CC7C8B1D43A35193CCFEF8F
:10294000DD734062A6B5E6D377EF5401CBB4B8CAC5
:10295000DCBEC7CFFF34173339BFF7014BB3F88C58
:102960009337FBCC20C6E66E50FDCBD5451091A722
:102970001818EDD95CBF28F1802BF6C6D8F8C12F06
:10298000CCE547EDE9FC11C4F27ACBFB0675592082
:1029900036E830FAE2C85496D70215AC7501C67B0A
:1029A000E0F9CCFD3701199B0BE1502CD3C57F0D0D
:1029B0002868F9667ECC01C8F3DD1CFD83808B3668
:1029C000EF08F8EB0A80D6B301A6B22810BB20F6B8
:1029D0000F222A97ED0818FCFCBFE0206D7CC0B4E4
:1029E000F38C8F55B3807785A564FD831DF0B342CA
:1029F000FDF947E10856A91C09102AC66164E9C21D
:102A00001840E309900AC636A0086AB360ED7A015F
:102A1000725402435AB301B1435010BC22405C814E
:102A200058051B18F89FB6884410082B8811899CFC
:102A3000A690DA26013D4B2241112888EDC872E6A6
:102A4000089B6AA005FCE4B33F42EE14C0A0E7E097
:102A50005210FFB40A0CDDDBACF7AE16C1D7241759
:102A6000412EDE2267FE28FDDB8289BC98DF655D92
:102A7000CE18EC9AFF02CB2CF38E9AD97E49B6F889
:102A8000E3B71430C5A7D3DF08BAFE6EE52CF467B0
:102A9000CC607FAF0D5A0BFA1AB47A5708DBECE81A
:102AA000346DFF78FFFA4DC3D1FF715AFC6A196289
:102AB0009F96B1083CD8AC01A77B0E04E8FF0A72D0
:102AC0009BDC9ACE5AF080AC98FD2D2332673BEB0D
:102AD000A7ADF31BB228FE2B4F24370FD28FF38400
:102AE0001C1BB0F6808FB45DA760F27FB3C2F3FF0A
:102AF00053853BC7BCAE68F96CEE623DDFB0A0AF5A
:102B00007E8B8004A4FBCBEB891933A64F7733620D
:102B10009683F828C862FF1C635D88DB89FCFDF79B
:102B2000879E4F7EAC15FAC525018CF5F18FAC441C
:102B3000E05BCC4B32FD1BB8E2196F3B153046AB66
:102B400086C7B2FAC4B8DBC35E6DC398FF38836D25
:102B5000C784F7432061890CFCEBDAA8FF16808854
:102B60005216B6059F04638B190260DBADF4D4FEE8
:102B70004DC9107AFB9FFB420855B7048AFA7E04C0
:102B8000CFFAF43DB5FCF8B6FE59F302FE69058AAA
:102B90002C1101EFB75C6D8DD0F996E720127D7F87
:102BA0007975BE596EDDF4DAB0F8A8F70941FF9BDC
:102BB00080DE426EBCEE2FC73CCCCB6C2D38FCA027
:102BC000ED6D57D631FD26186447D666FFDAE870FA
:102BD000FB08CCC94707106C8186016CF3045504CF
:102BE0004078CEBF456D4DDCEAE0FA407A04FA2B1E
:102BF000192C1640881D7A9A228DBA350821627FD9
:102C00007F1D1AD499B3AF53FA200305A636C380AB
:102C10001A1D0A7C7AC0AEB09915E290E7FD500308
:102C2000402D0D10887C7FDCE3447198C0CE0D13DD
:102C30000CF94223CB630A20BD1940A4FEBF04F85F
:102C4000E7109028839F080401208132A740632F5A
:102C50006625A6EC88541844668689DF0166DF7015
:102C60002F800A08427EEE022145A0169D3A542884
:102C7000FFB8D9B5B916490733D667C0540DD3404C
:102C8000FF017107AFA88368B3409F2E7308E9DF87
:102C9000E631F701FEB1DE6EA3B0427D173830A6F3
:102CA0008641F7F0C9D3AF0C397A0A6BDB9F104F1E
:102CB000F67930FC0257EC6F207FDBAB040853E55C
:102CC0003FA7AAEDC0FB662FED045BF4027DE98D02
:102CD00069B02CDB01CEECFC48FBEE30E7A74C9F43
:102CE000EDF661B2FD0A575705D874FECB98E63869
:102CF0001FD93E50B1F81597208D65779E0FB70408
:102D0000FEF278F8C858C11881418E6EE402CD6C8D
:102D10005F20F9C3F0CC8E2DCBCB76D0B8FBC5FEAF
:102D200084587D5CFFD988FA2BC02063900856191F
:102D30000823FB5C244D3515E89AACA062CC5F2DCE
:102D400092FEA4C9F38BD69BF8179133C99FE57700
:102D5000E4ADF0D2E8FD6281BFBB926AEC9D349C89
:102D600094040F7F7E0D2205B306FD9D91DB044187
:102D700029F4097201D740D0511DC720FEB4E5786F
:102D8000FAB86D56E6C2F9C9BD803D08058E6AFEE7
:102D90000C8673D3C48DFAB7395880FEEDD95F30F5
:102DA0003C58A401CEC0B1F84F5B908191D7812FE0
:102DB000C901400A12B903C65898FD26B010A60BE7
:102DC000F74D72AA848088B6B676915F88FB293069
:102DD000123966096427F44CFD90A07FED84131F1F
:102DE0002A0AC8FD8021843007C10418429C5C83F4
:102DF000246906C1A823CC600CA905B3E09B660535
:102E00002275668C27A410D32218302660F48C0219
:102E100076FF10FBE0013C8007F0D0201E52EE53FD
:102E2000688026F31983781F0FE041B33C86B4D342
:102E30001CDDF4072FCE79D31EC00379D327F0D33E
:102E400068FAC9800106A017180868384BF3C093C8
:102E5000A960FC8436E608731941306679DD2ED30B
:102E60001856D30CFA9810B0F952B305ED48F7464E
:102E70009011A09120F35EB3F02C8090B019FFCC9C
:102E8000B710ED398226C008D32897B36108B3CABA
:102E9000D1F83F042481160100710CFF64EE8020FC
:102EA000D01CF4F34D20D9D311FF31812410DA98CE
:102EB000487D276D76D90CE9405022C7A05F65EFA9
:102EC000E8FC80F1985364F2F320D3C598ACBA2C97
:102ED0000CD5F80636C22023A597A72B30EAF8FBBD
:102EE0007D41200804AF5EDE612DE9BC9805399D67
:102EF000D56EAD2A88017DF9BE9E0D34A003D3693D
:102F0000CA60F0FF8810B06626F79884D026E6E005
:102F10003404C628D3C09816F321EC4AB080DBC82D
:102F2000026FFC30807B69220A69FF71DAFD80093B
:102F30008C30992B1811A7DD8280CCF8440283B322
:102F400093F26001800817CFE963C0F70126C0281B
:102F500089F65DA62908C620E8136121E79862FE7C
:102F600060103DE607F71EB63DFF6ED29001F79860
:102F7000037840AF0FB30FC7B4E08807B5F4F398F8
:102F80008ED323C6D3BC7EBF7FFBE884813055FF40
:102F9000BF7FC7D250C2407798E5A6D795A8B206A2
:102FA000E1DCD38F45F298C96BB2E631FFC019114D
:102FB000EED37D21EF0C025EC5971316A0B34C58DB
:102FC000118F6B1690D658829EDB9B04D312DBB315
:102FD0000B614E79EAD0F82044BBBF26DD7D4884E2
:102FE00041377181C0F36E4882AF0D33989A63A068
:102FF000813BEEFD450A482438A70401209E081BAA
:10300000481033FE16B4158978A940AF10BB0AC129
:10301000A5A3FCCFEEEBB13FAFFE2F548114227F6E
:1030200000507FF2DF826080F2F1F2984DAB22ED2A
:10303000101FDCDD9E04207C7F84F3967C38791A97
:103040007564268B04BC6185D0D3DC0338F703405C
:10305000EFF77458F8840D7A2710BEF4916B28931B
:10306000D622D1BC104A768F89347866DFE542AE2D
:10307000841340018BD580307D8488040A64173224
:10308000BD5ED8F984053B48C104808542137B9816
:1030900026024A1C0365CF90899A9CB3E789304287
:1030A000492418F3208A6014F311FC8110064108AA
:1030B00098616F62FFB61118FA9760C5F030C3B817
:1030C0007877B798A001F3303810F60FE0010C7F45
:1030D00000305C1DB6F0F3A5F6F62C0ED1F33819CE
:1030E000CBE6FFFFACC272D660D3BB6306C4BDE5BE
:1030F000201F0C8846E621C2308BEE6F3D8320F9FD
:1031000072D344F33272B3307A35FE8021D2EF1E8F
:10311000EDE270848C9EED0216C022FF429808B347
:1031200010F323C09704CD16B3E82941B357D3BA9F
:103130008B0C0423EA10EF4A0858FA5F95CC12165C
:10314000FB1AEEC74882E2FCFDC724A67BC821100B
:10315000B53F3FC85004800602DF1812A2A8F593BD
:10316000F312CA44FE0A09842030810412E27DF978
:1031700085E0D1400819AACE84FF2298A9F3B83C73
:1031800017FEDCBE08A86BC61FF9AE9B204FFB9450
:103190001107F740B3A402DA60F701C0F130897576
:1031A0001A12CC6F215FE3D26EC6F037558891CBEF
:1031B0004C82312E70FC206BDFA0DA98180957661C
:1031C0000D97D22F5082E4308CEC3B1022E7B308ED
:1031D0003009DD1210C650AF6422010280C0409356
:1031E000821212D5C29A6B6290108FC08872668468
:1031F000FE6B302604B9958360B35D4FB3109FB367
:1032000010320926C2C6045039D3128CC095B1D3EE
:10321000BF4E2113410CE78C8849AED8FBE5E04155
:103220001CBC7AC510DB9630079C30E0100F683369
:10323000F3C86059D5C503F069CC03E801D6D303C0
:10324000D7E08A98F3F18B309AF8B61034C3FBCCF0
:103250005E3F5D4F15FBCC3FF77F81E59B11D3E0CF
:10326000253810B67E5A0399C68081D3D7F9FBAEB4
:10327000D24143B321EB70048C92300AE0138BB33C
:1032800025BB2C88F3CA42033BD3580451B3D83032
:10329000A619B9132102F39C045C68F9E9EF0592C1
:1032A000D9529E10A6220120270680247F073007CE
:1032B0008DB0EC413402FFCFCC24D3010440BB20BD
:1032C000A013D790EB5DD09E2302484420B65EBA8F
:1032D000FEF3DC2B37F406AEBE21F39411F5981102
:1032E000A8D3B4885DF0C1FBF4624E5F1638E29853
:1032F000235D19D7077998722380EE1630F8796923
:103300001DB9A27B034B415DF286F55F807030549E
:10331000ACF220A8F924AB14A6DCF5503C9F2DE6B6
:10332000352106D073CB2080912C7AD9DE98397163
:10333000A0101D7ED1946404A67E62C8617F0180C6
:103340000935005AFBF184519010FFC1281805007F
:1033500060F3428081848C46275C4D8B609C11D049
:1033600010816677FF7F21301140C808F018030BE9
:1033700061662C26B077AA080264C835A18206FAD5
:1033800058FAE0011CE36A5CD9C8E01E987F99C531
:10339000C419ED2BBDCF986BE0E881379B303DF32E
:1033A00038200FE237D3F8F97A9806DBD098822BD1
:1033B00031805D34CBC811F2982CD397A8D3F9781B
:1033C0007AAB20BEA785F35F7B983008D3B1FDEDC3
:1033D0001046E1C100989C00028CC30630EE13C475
:1033E0000863B38288CB21393DB330A3408670B3E4
:1033F000D00657B7980B116C6CEBC638FBCB98D244
:10340000F280E1B3C801772D5B4473C881A3A29910
:1034100039B204EE254240FA8C4CF549CB041CC06D
:10342000102C524055CC30B041EDF38CFEF86A5967
:10343000665E985B6D2B43CCF8FF254AAF40E6D221
:103440009C5D5F7D47ED8DCF22F8FC305E4042E908
:103450008E3AF4D20467F99868FC467E57C89FCD2F
:10346000E351971147433809C04010652BA7B7981F
:10347000A0F86AE606894694415C309CB466D102A5
:10348000A2E396D5FC349FB349EC844E6318012324
:1034900077E24C208EA1AC440AE63409B61ED3FC78
:1034A00050A3777D0258C7E8F230461A4D4DA3CDA0
:1034B000406AAF06CFF19847EB46C008FEA6601001
:1034C0000C817AD91206C1F23CE030F0027E011183
:1034D000A1F9E056F66CD520EE57303899B8D9C826
:1034E0006B9BD5F14F0198E0DF810CEB5ED06E5FF6
:1034F0003068E2E5C3D78B5D8D7D7C98206BE3EF70
:10350000B11F3FE5D56B04B076AF8457F3209DD84B
:10351000B5F6ED5E91FADDEB79B366C82C4EFBF3A0
:1035200042C4D39A302C0433B4DBB338426F519881
:1035300082C66FE3081CDD210BC93005C6DA88FF9F
:10354000E4C848081D480201C0F32D143830B3C840
:1035500030621AAF81A410E20418407520010CBF3C
:103560008B34021098F804524023486B824D1BE6BE
:10357000F9F2C8FF59C5603C2B71E3897B98803014
:10358000B3203C8A951908F772BBF2D8F9605C97B2
:10359000C8661AF67109FC30AE0C31122E2530E0E7
:1035A00004713078B220D790F50C3840EFF71758F7
:1035B000FF246B9AC801D615200880F340D07F31D4
:1035C000308C04EC36FF1B98B3C24DA0E8D6FA113C
:1035D000B0EFDA421821EF886002FFA1A0FE84BBA1
:1035E000093BC80298F2C84DFBF326DDE5C4136021
:1035F000964C1823EF98304246C0FF1018200B61FC
:10360000088801C34480D706C1A95E88D384BB91D2
:10361000EF7FCAC8F598087A98036BFB1CC9B819E4
:103620008359C82C0957C09834F398C9F3C6D0778A
:103630001030F33A10E8FE813272C8EE322332C8FD
:10364000C47D981064727D410B51F309770070DAE4
:10365000E8F8FA98586B6B7040461439E073B32160
:103660008CB1102F464B386CB3F7248411A07B3EED
:103670001D20970AD6B3B3F0FCDE25032602D780BF
:103680001A83BC868D7DDD014010480FF4A40DA186
:1036900011B304DF650804212090BB48F22E02D547
:1036A0000C34FC2A180803610245CC302104D06692
:1036B000FA26A353D9D4C702F378F6BBD1EC00475E
:1036C000A9FDFC427EAC1D209DDAFD0235E7B0FD70
:1036D000EAFA08E0308E20E5B98B88C60988D14621
:1036E000C472C8012DA1C0981645BEF5EAE598C57B
:1036F000EAF0E92B81D9D9F824AF5C3028F7B72D4F
:10370000207617906FF882CFE88C8405DA32129B0E
:10371000BB6E412866FD81BC22FF1E98B81130891E
:1037200086D3AA4256E07EC83421A0FC8414308F90
:103730009428D680045CC8B3E90A26403863E46064
:10374000048C93B589CB2A610FC081B146DDC004DA
:10375000EC98122C1C08806F86408498AE10713053
:103760004C8201F51148EC983C8806D9C82BFBD750
:10377000C5711746BE98E4013C0804D466D5ABE891
:103780009E01D307F120D325C8C62BD3B0CD8BB96A
:1037900030B0BBF94D02F83057FB175DDBE76835F9
:1037A00056ABB35051B38971E0BE89159BF309FC48
:1037B000307E42C8A3FBCDFF8F110A2025887B985D
:1037C0000906DEC048B3F68C901132C666C311D329
:1037D0009059C8B5825DB345E3981311EF532002A9
:1037E000CDBB5865C88D19FF46B33EFFDABCFFF16B
:1037F000AFA7D95FC6F371D18E30D398FF18242CB0
:10380000FF98129B66ABFC6F3369BC14C7D678086F
:103810007AD3915A199180A093D794ED418CFD6E83
:10382000BAF310DC4C95BDFCE423516C937937BF9F
:10383000D942E4B1D36C246AF37F5A0BB6C6C9F8F7
:103840000A3F327809478BC2DF1D51FF88AB1BD47A
:103850009E33F4BB30B6D8FAC6E9797C9E6763FE26
:1038600021BBF8BBFE2410378F013155FFAD3C352D
:10387000245AB924ADC5FC4CAA85791095F6912738
:10388000F67E49A8FFC912403BDBC808FE6DB75061
:10389000FD461484E627723CB859B31EEA63FF83E1
:1038A00063AD0630FDE2A7B797ED12A4E610F477FA
:1038B000AC320850C546E05AAC6ADF6672AC60F2C2
:1038C000663CE5D8F3A9D4F480D5D8204086B1630E
:1038D0004010D645A236B322DDD86A755FD813A84A
:1038E000FC7A2504EF43871130E02868B0BB70EC08
:1038F0008A02F24621EEC43DCF059EB0328052D8F6
:10390000040BDBF30CFEC7096BAC0A587198FB1271
:10391000489726848861F4C15D0AB077AE825C6AFC
:1039200081DCEC89B20CFFFEE0602084411050D3B2
:103930006996732629ED0BC077FD79010810FC69A3
:103940001BA6DE19497F9155F6E7B3656E88A8FF7F
:1039500082FC50471F62D2C8DA7E6FA588FAF871E0
:103960000F5A01102DB022FDAC20621D1642DCE979
:1039700043CF788B36BD80B4216DE4A8F9FCCB59D8
:10398000AC9E55460236FF64A54A50AAEAA4FA3115
:10399000123EB1C2FED96609EEEEC0FA20CE37BEA5
:1039A000F34512F3955E2E14388C80D4F3DFB6FE07
:1039B000F8424A18CDEB6E0BFBEF18B1FE131E1741
:1039C0003706F50E10B6D9796C80E8FD1617AC787D
:1039D00010D38876B3C0FBD8DECFE48B0CD8A2021C
:1039E0005819DB90F82C4608EFD890019A5620C45D
:1039F0004D0B9AE830FE16F8CA4F5F18E63D3FE6D9
:103A0000E2E5E3D6FCED12E8F885DF4CB110955104
:103A1000FD8C7D4D8A361A408052E48083F4B66D69
:103A2000F258FFCCDAF58B088C7E8080F32638EDD7
:103A3000B415CFFDF61090466166A814C819C3F5F9
:103A4000FF82B7ACE5FD734CDA2AEA01FBCC17FD27
:103A50004A088F2C6F02FFDA21FC7DB884AB6040EE
:103A60005ED9DB84F96C7FEF7CFA5ACE01E4CAD6CA
:103A70009A0ADAA01DE6B6AB22197984979793EAE1
:103A80003040B92088B5F95B580A8BBEE873891BB2
:103A9000F14C9678D3749F6BEED3E0FE20C82D33A3
:103AA0002D15310DDF5BE9208B3BD2CDD3DE18081D
:103AB000D0F840CA318AF3FFFEDCDFEDFF0DF3DA08
:103AC0003DB8F933EF08304FC4F6E5C6B59910BDDF
:103AD00001CDFA66FCE3ADBC34342E30B0B1B1FF99
:103AE00078B4FD354E1AC0FDA037F031BBBD37B0FC
:103AF00037F37BE4D4F90A01880AECF3ADC8AF06CA
:103B0000F0F3CC47B7F801A5E1803EE62289FB42FD
:103B1000FC7BBFD0FC9380E5C521289DB9F2DF5B1B
:103B20009280F4FE362BF62FFF995F0179EFEE328B
:103B3000FCF96060E6304714F9020B0A4841EEA236
:103B400028C067880F0A8543C123E8313E078404F3
:103B500083901226FAB068BDDE143AD10A09DC60FF
:103B60000563C3FF4D81244ADE0A0C5F1104020382
:103B7000713C6C020A056CD3A122F5B401CA47302E
:103B800061FC1018CC816E5238413C2204400C0C70
:103B900009FBC9105668FBFCCA8FC1F8090C6BCF32
:103BA0000317E8B097619A23285A2182DBFB8B78B0
:103BB000FC8DF97C01D7F65F40BCEEEC422010444E
:103BC000B3FEA5BEE72001DC6F926BAF98EE88FCD8
:103BD0000C63ACC72EDE91ECFBE3702B4DC2FA16E2
:103BE0008CF72DCF7CD0FA0465183B46CB62FBFEE8
:103BF000DE99FB0C659ED6A10518194BBA30405CC6
:103C00007B04D2ECE0FF0C2E3632D8C22C8DB51FCF
:103C10006C9FE8FA576C2032FEC988FCCFE351094B
:103C20007828333D0C04771A7D997BA64427A52874
:103C3000E4541A64E75601C064B6DBF8FDC42BEC0B
:103C40006FD618DD3BB11123007E379BEB554F2E0D
:103C50006A109CB3D87997319AA5ADA6FFCC8D2F69
:103C600037B9F58F81AB58F8FE615BC220046DFA5D
:103C7000A788F8E8C573B9E7A6762E80119BC4B66D
:103C8000403553FFCB148121EC080406E2B3D3C6C0
:103C9000B5C3414A6A203FBF968D42AE991240F9A2
:103CA0005EC2F465FD1A8FF5A1EBD302390DF0D198
:103CB000FCE09A6DAE927CBC308EF3E012DAE32722
:103CC000FDD3182002B5045AE0C01687EF96F876A7
:103CD00053D02402E2C5D8F384B85AC414519137A2
:103CE0007B786801EE8180096DB6104013DB901877
:103CF00058BDFA7CC0832803B5136E2B24C0DD8F1A
:103D0000607B64108167A966046908379105A5681E
:103D100044F3F93DA18BF9A6FC300678FBE0017471
:103D20001236DDC0EB36F1F3AF20C00364B30CBB39
:103D3000A7E09981E007F9D31EC01903E829C7C697
:103D400040E006C4032683413C64FCFDC3746668FE
:103D50002464FEFC60C4FB5A801DA7CFCF386010DE
:103D60000CBD88C6206AE6C08130DAD8FA7BE5143B
:103D700098DB02087E44C2D1B384F6800811027F2A
:103D8000DA7F81B3ED6201403ECCB51BA043F8B9A8
:103D9000305CCA8620D356B901CCD020C05C5A40D2
:103DA0000A48F592089FD7E904794CD6401296B795
:103DB000F9BE98A640190921BD98CCB3FAF6BE51B8
:103DC000E21EFE86B740DB936DB7BEF5BF03949D40
:103DD000765F93EAF3FD33685DFFF22008FA062070
:103DE00016338B96251316E18FD1FC93951AC36673
:103DF0008F98C0FD806BF60B5726F8056C41FDB11E
:103E0000D752FFFD7F081F4AE798A36C04CE90FBB2
:103E10004BFF02F4AA26D9FD903AC19C22B393200D
:103E2000F6258011B025C58FE598F380DB2C687AE4
:103E3000C028584FEB488051308B0AFDDFE000EB83
:103E4000C50E23F54FF4EFB80378100FF6E4013DEB
:103E50002029E09811E0AFE8C9F0D39E0F07640174
:103E60003C6FE5F8F86A8C9FD780048F8BF2602056
:103E70000C30A93058A793E519621077DBFBFB984B
:103E80000C844FD349FF8050714379D2BFF201C1F6
:103E900040ED1E6102C4D6B385ADB323607D74E0EE
:103EA000B30A1DE56B240D19F7FE7B9884063BB41D
:103EB00042107DF12990400297BD39202808809C4E
:103EC000195E9C47FCE9A7BFB79882488F25F71277
:103ED00088FD68A064F29206C6B830C833D8CB4BD0
:103EE000F3C0FEFA0C5A4265E97F6DCA75CE726B5B
:103EF00008CF12B4A103C4D4B44454E150FB849D50
:103F0000E016D179F291FE02041A08F06903B3F5C4
:103F1000FC446CAA9660DDDE98CD0923882C64B33E
:103F2000C4F4F9FE08300216C12250BF3F116A36B0
:103F30009F24FD8860040C36A9B17A7F88DBE07F7E
:103F40005A12FB98204019023BE0820930FFC8FD5D
:103F5000E0403C90077EED49787F0274031ED03C20
:103F6000F3400F640B3C3BEF7FF36BF94D7A0E0F80
:103F70008DF036F6BD8E0FFCE0813C08B8FE0A419C
:103F800076B6012010466FB0C2E350BA23C43DE5B7
:103F9000816DF55FE6988319C60445B3E7B878E507
:103FA0002904FA8146088288DBAB467E3C5804A38C
:103FB000609BE008313CB3DFE412E0BDC7D3027E72
:103FC000F4490C81B3BB0879E30440999B0AEF687C
:103FD0005E2FE804C573201449FC24B1011E3F3054
:103FE00026C8B440DFCE98F5D10DDE98AC50B4C8E9
:103FF000F58C0897D431EB7ED849B659C8CAF30C72
:104000002DCED649C09D0FD0179B97C677648803E5
:10401000F4EFB377CD18B3C819B220D7040E3CB96A
:1040200028F920409D26E348922D191413E3C4A9D2
:10403000409F03E544020411671666C5096810D65F
:104040006801DAF77A9851E519207B16F2FC307E88
:10405000B1A02652220760E7C5300A26FFC00441FE
:10406000088B604024EC008890F56604A681AF4B75
:10407000F68CC6B3C6905FD3FA32B0CC2EE02F3C9C
:10408000A0073136E4109E98BF3C8130AE66500FD9
:1040900062F308CEF59841FE985C3D36190357A4AB
:1040A000980E83EBD378FCCFDFE36A51661D7E8BDD
:1040B000AFF34E315D8D3715E130CE6DEC9879F868
:1040C00028294BF112086505C0B7F013245826A023
:1040D000B34C76F5320972B351D5B301DA6002F20E
:1040E000300852F8B30D1489DFB998C530FB451A72
:1040F0005E778E34802467F50848124968EB04C760
:10410000CF3B63C2A93B8DBF45F0D376170D822507
:10411000ED28FA394740BC186CDB4B3AEB4C85F97B
:10412000CD89F23002DCA8DF8F09C9A74F80FCBF20
:104130001D05B9E0F4707F877E77F54C9082BBB4A3
:104140004437CF63EBBB64B310BF939B7130406CBB
:10415000AE6E679AF984338046ED1122007BB1344C
:10416000FF0222C1081B410320C50A44468525D70A
:10417000B1B6F769019B2C9DD0A51113AB0EB8FD0C
:10418000FF0444301216C1241840891C960F4402C3
:104190009C429213202F04823180625F3211E53FEE
:1041A000FE34880901E7F618108305FC30F50AF89B
:1041B000F9E0EAA507D50204B7A99803F3900F79AF
:1041C00010F00FE0010CD88E5CC8BE7F8B98E0CF5A
:1041D00019F098AB8630A8FFD7963018ADD13008CB
:1041E000D9C81283B3C8825D01679A6675FAFC105C
:1041F0006AA96DF3CCB9A0EEFA8008E73002180581
:104200005A227BED22C4FE8018012360022C61D368
:1042100010B115B322EF19641080887AB328050213
:1042200078E5CEFB44C670FD0F112491F520C0083F
:1042300082E594B835505781F7FC23481281B8F8CD
:104240001B13D32D4CDBC82C7B98010B69ED981206
:104250007C7030AFAD3F5AEB11CDCD7DF2832EA8EF
:1042600006CDC673C80C6BD2FCCEEEBDB1F6F9AC70
:10427000C0A2CBCB69BB5810393805FE98A503CA3C
:104280004218ECBF8E98FB0E40D7D798887130CF7C
:10429000BFC8FB2844C7B010BFD2CB98F9A6813461
:1042A0008331D85A3A032042319E0CB7C8766360F6
:1042B000080DBE98B440DC4944E7D3E3FBAE2106C9
:1042C0003098246F05E6CA08B03606C00A6392200B
:1042D000101859B16C47A217347B5D14408401FD5E
:1042E00098801A10E719843001D7C9FD0C30CAF044
:1042F000BF5826C8F33D7DF3F1201E9032F303E44E
:10430000E6CE1666E0DE9846E0FE98700CCDA23C44
:10431000A9FAFC4A960277DC3077EB3D1885303BF2
:1043200018E68F5B17F998B1A91AF0F33071FE3CCB
:10433000FA320A12E5BF0820C0258985F628B0594F
:10434000A6068480C449B39026699B7B1256B3228B
:10435000080C106419AF90614BF820AF7798C20435
:10436000820F6CF181048922CF2F728F084180FC6B
:10437000C4B3C8807240418B5CCFFAFBB9233AC802
:1043800048FD1B0972C05FDB46809ECD0F208CB1BB
:10439000156402794DBF9BDDFA988084C8B3AF7E67
:1043A000B7A7EED128089CD304880382E644836231
:1043B0001E4B47B9AF8710F32BFD98C869F9650804
:1043C000F4C3FA84F2B01040D4B9BF8C0A59E8A7FC
:1043D000B5DC041A4195A0CFD6F3786799EAD9A045
:1043E000EA4998681ADA90097130DFCC01D9C8C45B
:1043F00068FE348006F271EF7F7F1131A112E792DF
:1044000085A384F62C0410117F73FD88B06EC4DF81
:104410004258BD2B0248E31B7920773E3011B0088B
:10442000C8FDB830BF4920770B30EBFD8B71772189
:104430003038D70F98C5875FB1E96B1E26B21A795D
:1044400030807780D538D348FC05B6FEA52E43F4DE
:10445000C581C3F3067F0330A30CD6386686896D09
:10446000C2FCA3C85ABBFEC07F1E0CC603C8F90A13
:104470004813BF69984589B9B905EDD64042EBD6D6
:104480000870E380EC31FE517D84E06DC338761115
:104490002480AEF09821EB44208B306549A2723025
:1044A000342E46010542A7BF98313490400280E384
:1044B00092002371142008EC80DFBF32E23727BC62
:1044C000410A0859D96BE7987DC57A8B340E68FD8F
:1044D000EE38307FFFA30CFC5D5F1001D6C42CFFCB
:1044E00046E078ECF9B958FEC0410AED06F0407C90
:1044F0004B05300E8DEFD083DFCC644B525F04E36D
:10450000DF6D06548E04B3F0D0F92010B50206E436
:10451000C1DCB421FDCC127EBF208C849E5B3010A8
:104520002B6E44D9E5C082B5EB816008D6B80199FD
:10453000C88288B63CB5FC3298FCDFB15D16C41861
:104540001EB31DF9301110C002F2FE8860442C84A5
:1045500001B2DB4DAEC72AC80A26032858CD102168
:10456000EF4CA04732DCB37B40CE8009DC68FAB365
:10457000E2909207AA63EFAD0F1F0239F2201EC826
:10458000F50378000FE68BC664CBAB68B39BF103F1
:104590001EC03EE0100FE881DB80301FD362800C2C
:1045A00010C3F8FCA681B6C140D837B88ABE056FE3
:1045B0003D60E05D2D5BB350025167D39D20C34049
:1045C00018A66DC841383087C5F304805F1CAFFF63
:1045D000E5D9044626171CCFD800311022BFC16F81
:1045E000E336B33266350CB02E86FFF9A36014A211
:1045F0000C2641B32059DC2ED360D690FA31A3FFAC
:104600002CB3C7D9FFF8FB6E2D5EB95B016719F3B8
:10461000C6D126D32DE97968D880FEC3F1FFB16AEF
:104620003DECD8FD243E3D66F34173D3BAFD5D9366
:10463000623FEAB44033D18FB316EDBE679B83EF80
:104640001090F96EC16CD5611127B751BCD3FFCC66
:104650006874D168F8A0E651A4DEB179448DFD1FDD
:104660001BD37547E6B1AC4C19FD46A6B567D85FBC
:104670005FFBCC24BF32F9661BD3B1F6C008D9402A
:10468000F118EF9E9059D818F9B1D997C6303EABC2
:104690007B1150FD6EE52CA2C35F1F59FF01CC8B2F
:1046A00050FA06090FFFDCFB20A065122F5C0CCC32
:1046B000EB6909170202343370F9CA6131268FF6AB
:1046C00017FDD7EDC0967208CBF50812FD6D208D51
:1046D0003A882090FBE33C8B224405C168486EC8B1
:1046E000158DD6300820B39610D7DE476FF9F0202D
:1046F000D6A524E490296605F0545ADB81CA0187C7
:104700002C0D071412B680CBDD3FB46360E85B73F9
:10471000C65010AD40B599CFC7120A08A740F4049F
:104720001068A1FFDEF05A16ED84240202125184B3
:104730008B33F4C801B407672835219D3688509A19
:104740004A0109CBEBFB214037C609EC103BFE6D5B
:104750000A35D027C3A6FFD8FB8CB9DE6FD644201C
:1047600065EF0482E69DF4CC3DB620C8026D7CF86E
:10477000038F7B6DFDCCFB0CDB5B8CE167B6B10876
:104780006E4E5FA158FFBAE9CF3CD790C7F497CFE0
:104790006CFF68F94BCC1D38FBCC3FA5038A86A97A
:1047A000FF50B361B2FF20D882DD063871B393FBAE
:1047B0009706088CB95B56D7703396C82BF633FB37
:1047C000046FA75080D64DE6FD02C750F5629BF9F5
:1047D0007D0847B1207FD13748F8BA8E04D7DBEE89
:1047E00038FD2D7D4063266E3DC319FF98B1FF93C0
:1047F0001C0B9BFF88FE5592089DC642161E9B2CE3
:10480000BD20B3027ADD80CD3134FEB3F8D7AFF8E6
:104810002EC60133F6938D01ED04627D69B804D391
:10482000CDDDBF04CD76A0FE897EA801C5963240BD
:104830003DD6B11F766340CDFD32049C65B002D3F6
:104840005662F92BFB5C101B58AF029E7522A8FC28
:10485000F64D15FAA280E3DB1465A7B8FEF336DF48
:1048600003016AE104C7F9CF016693B4F8A0F84BDD
:104870009808C1E7B37DA6042C9C615901624D06DE
:1048800028F8882CD8402DEBF5767F14FAC37DD814
:10489000522087EC32FBD5E740B84BB1EBFF339E9B
:1048A00077D5D0B1F92FBBF1ACCF576FAFCBCC15CB
:1048B000DF88E0FB0AC701047FDAFE80056EAB6289
:1048C0004B6541FA4CC4DE16102038FEBA1FFC8836
:1048D000AD1BFE8619F2062082ED01089642F935DD
:1048E000FD3604080A3ECB087CD7BC0E24FA600CC7
:1048F0000C96F05701025B2852891F1130A0DC9002
:104900009659FB40032880043FEBDAC4D236285086
:104910006324AC08E9C680C0B0409C5AF344810FC0
:104920000930F0FB88801D8C32500482DCEFC4F12A
:10493000A085C09EA008DE8C4B515340FE8422818E
:10494000908809E09C05FD2001E48030803D72F1F3
:10495000988423A49AB8FD0AB8C5347FC24E37B0F4
:104960001CC3B878F9C2E01078F594E93DFC69A160
:10497000430B90175AAA11FEC880DF74E3026F2020
:10498000B9111918AEAB8B01F4E341EA614EAD5792
:10499000CCF462BE8CCB58DD419F767E03405759E4
:1049A0001CBFE4D8B8F8B7285E2038C7566A016F34
:1049B000F6CA08F917EEB002C6337BFDB3083BE92F
:1049C000086306D23FFBC57013206647A216A417E2
:1049D000335130FDCD4079C0848B35011A6DAE184E
:1049E000FA8FC231B2FD31FFB69E38FECBF425807E
:1049F000BFF9AC4473ACFF5FD6FFFC249BB008D377
:104A00007B9408FD11ED9201842BB7093F30E580BE
:104A10003868FF20EC33F3F972CA0C39D5ACA0B476
:104A2000FAFDD648EBEA8523F7F260366184082068
:104A3000B2317F901B2FF405CDF341C6B29EE565E0
:104A4000EDC3B887B1B3854F8094E5A3017B6FEFC9
:104A50006718F85ABB302CE60F85DB78FFEF627FD2
:104A600076B5841BB3432896B316FA9DBF189BCA2C
:104A70004408D6E30AFE8237E368ACB301473B85BE
:104A80001680665E0812E56D88BFAFDAA0F7E516FE
:104A9000C00272B312D9B258B40459E030FEB53036
:104AA000ED212DC15DB2400118C86D1470639A7F6D
:104AB000E1B8F9739D07F115C670FF10A306F3BFA7
:104AC000F93C6209190CD3B770F5BD2468770F1251
:104AD000C00378B4105EA2F8C3BCC419050AB119AA
:104AE000AFEC7F30E3B5DBD34220646620A24066A2
:104AF00035D3E57DFCEBE0C0CBB34DF352B304F30B
:104B0000F31911CFC71246406A032632E146BA8430
:104B100077F76022B7EF50FA9E9CBA36EA81BE2B37
:104B2000B602F3B71068B32401E0DFCD98371F0158
:104B3000B448FE5774F9CBEB3916D5BF0C91F6B3D8
:104B400078A0DA7B81B6EB70FC572CBC0BEFB74535
:104B500033D0F470FF5F982CEDF5C803ABEFE8FAA3
:104B6000B704E65A2084DFEDCC96C305717AEB6674
:104B7000287F3898F9B3202068D0DCDBFFBFDE2621
:104B8000081AB502FE324498D5AA90B1083E5BD10E
:104B900022F998CEF9148002D7FB6D01FEFC98D360
:104BA0007BD71009552306AAC72CC413B41CFDF0EB
:104BB000647998FF210E025AC62D19FD3EA8CAF449
:104BC00098C0B719332DCBFFD6D2C0479B981A6631
:104BD00037EF99F82D66061B96110456B35904D584
:104BE000C6126207B31BE0F998A7CD63AB42A7EDED
:104BF00095FB35D948799CBF9E98DD36FB3427BBA1
:104C0000E2102B8930914147FDADF0283462DCE1A0
:104C1000C7F7953067EC04B688E4B9F877AFF93296
:104C2000366EF598201AF5983DD69FB7E1983E80EC
:104C300016880270D5B3FB649A9EB767C0087C7F64
:104C400082D68C794FCC989E793020C00288D55C72
:104C5000037F5EFEB3EE16C1085A960CFB98889847
:104C600001DEB39602B322669B21BB487F2D98D705
:104C7000C120DB32668AFCFF5C98F0F2B578E43044
:104C8000F009065D35D80FD66D27DB5A302B9730EB
:104C9000F07998AFB6B5B8F89C7D65FA9820EE3CEF
:104CA00030C9C6FECCFE5D30C1E698ADEE40FDFEDB
:104CB0003B69B6E3DFCC349611ECCB0C014D112FE0
:104CC000B632F4783044795EBB6BCDD6A8FFC7EA24
:104CD000F58CB7B2984012EFB2A7C57930044B9368
:104CE00048956241C8F9251542F36EF648B424EDA3
:104CF00082FB9CD563E2FFB3F315C4665B72893A0D
:104D0000CB3B4366C9B359066DE99880F47EAC93FA
:104D100010574DFC7B17787FB2988007B3BD986021
:104D20006BF7B40B19F037D69802BBCF2C8D49B373
:104D3000D07AFA82EF3B982B23CD9875FC9BBDFA75
:104D4000AD085988379604FE32C66DD8187ED40D4A
:104D50000A9CB76F9BB5504F5F9805CBCA604FED6B
:104D600032F1F879301E4D462009A79C8BF32CB008
:104D70005399303C10B072C548D119047329027898
:104D80006BE798B2190602C3DFD698069E9879663B
:104D900089191A2B661053665F5F87E9AA62463746
:104DA00076F59806A6ECE321538B30CD98FC47FCB2
:104DB000947B8EF86BE84BFE0DB4AFDF8530DEDE02
:104DC00098158A7AD604D9504168C07BFC082168BE
:104DD000F3B3F90DD5D6DE2039E698E4FF656E739E
:104DE000DB78FBE9FCBF2D3030C56E8D8BADAE5846
:104DF0003BAE0545B3FB32404605F804E3B32FDB79
:104E00009810209791242CA9014FF7CC282FC78206
:104E10005FB322E20DCFF7E5D8FF84A351B38DCB6A
:104E2000BC9874FF4218F0B1145FDA312166C850A3
:104E3000DF255AAEBF7BFEFCE0016CEDC87840B3C5
:104E4000C81E37BB18F9AB8C723048D019E234F564
:104E50009810A2C7FE5CEF5765713079D88C7564E5
:104E6000FAAF62AD66C8FBA13597CD308818C791FF
:104E7000E58E8B69FCE6AFA5DADB64814D74AFF992
:104E8000A001DF6FEB98906F1D98DE8122896EE3A1
:104E900034E31D3FCD981BE45CF9439F3FC59885E3
:104EA000E679261967F998AB19F0F98E408D7ABD2D
:104EB000986079B9C3AC160336D80C29CB3040378B
:104EC000CD989E7570FAA8058C32CF22989149F33F
:104ED00021D6E5627C30B304BC98D51863EDFE8022
:104EE00089BD4B60C6800ABD094518AF031B4BDC6A
:104EF00050382CD1C6C067FC32BDD3F32969E49881
:104F0000187E49C8F3F65C50B91E19073BF33C08FC
:104F100010F5981088F898B4D37672F98441E06659
:104F20000A6617B486F370200436F3302BD6177157
:104F300066ABE799FF41C05B2DB30417B31438B3D8
:104F4000020C81EC49B3104619779A98B0F2F8FB3D
:104F50002844DF954A09F7BAFB9840027F1130DDFB
:104F6000897B980402451D965B67819869B6492B39
:104F7000E698F94D67876777D8F9A73A3050F86017
:104F80004B9D07308F16F19816B72058AC3CA79769
:104F900098D95FBC306BEE2FFDA809DBE0CC5B44F9
:104FA000F998AF7681B40825CE3010041ACDF39865
:104FB0005D6FE7EAF8F798C1189871EB7C32CEB8CC
:104FC000466718099DD240841165DB881D18BBE334
:104FD0000533F632209D17DFB0FFEB98F0F93D4026
:104FE000BD09F3322F39EEB1E081BCABC47930F0AA
:104FF0002C83DF3498010CE05E986DE2A57388661F
:1050000059D7DB980C8813F59820E6FD6966A38BC9
:1050100019FE77B69840C1B9C879B3A78A987CF5CC
:105020004B0A9EB426798608CFE030CD1466FB4F3C
:10503000B4121BA7DC89F8302522FD1722D0312FAE
:10504000019810AF12AF7F5A98017E0E42BD6708DB
:1050500078ACDB00FA1E9FD62CD59F16C95829CEF6
:1050600030402018FFB7C25AC681BC5840FFC0016B
:10507000ADEA3CAFF3FE193039806878D90B3C11AA
:105080004AB3106E2FB35F980FEB9822BECC5AA193
:105090006BFCF9A86FD26406D745FCD6FFF6EC800E
:1050A0000834DDA6079B3082FD378FF59810F9C8CC
:1050B00019AB198041ED300646356211970A9630DA
:1050C000B38218577C178C01903056DE976F93721D
:1050D000ED26DF0280E798BA7E05C0183566D6AFA8
:1050E000A8FEB84AD726C8E90BB830FF3BB83ABB90
:1050F0000FE0E54304AA6602D9663CBF90AE84E3A4
:10510000E6FD98F0721938D1E268EBFC0440ECAC93
:105110009E3630F89F730C7130B5885BB35091B3F5
:10512000B6AFAD98080C669EC764F80304302DC175
:105130001B19120840B39498BCF8020C8010316D12
:1051400045B3F291F97F06F36DA48AE876DBD67B4E
:105150004B70FF69E6C32CFF6518B3FBFFBCFB4730
:105160009DF1D7D9B5772C828093F33C9BE3E0186F
:105170004BD318660487FF98FF2846A008AD66A3A6
:10518000FC8B9198DE8D7DB9B6D9253EC7DBA1FA9F
:10519000767340C4B4FACF316663E0D86678FC8D8C
:1051A0008551DEE673C7F398C499AE90D36DF6438C
:1051B000AEA449FD20C11FEBCCEC7FBDB721EBF4C1
:1051C0000B4DFF358790B0F84BF3E50BD6CD807EC5
:1051D0009B52ADE6FE3AD2C10D66A9B0FEB5CF40F6
:1051E000634B19FB1358D010A798EAB71AEBB6D245
:1051F000A8F97799825EA2B1087FB3D0D4EB089A60
:10520000DBA0FA2E8F0259FB42FF0E67A57E0846EF
:10521000BA1110D0C5BC9533F796FF69F88014BA5F
:10522000100A6E69288037CEEDC70C9CB3C06005AC
:10523000812891B501529845B90168F694B3B574C7
:10524000680788FE6A9E15C1E16D01D13608E8182D
:1052500092CF4B6646FDD7DE02675B8026D2A41054
:10526000F5285AAA3BE258F81218F3291EF39B3D81
:1052700095FD657C5B364B73400462FEE26EACD9F3
:1052800010087E479699B3162CFF206BD698FD2602
:105290003461A2FF90DBAD64B93C0161CF76B18887
:1052A000FBF9032CB1D32F0BD4B3A8196CB1B38085
:1052B000BF3B02631F1D626D39B0F985DD32616F3E
:1052C000511781868BAA181159B310060622E36381
:1052D0005F7F61BE5D2ED6B07266FDC2E3BC1A5818
:1052E00019FF71E6F37FFB0FB8FD802DB8406618FB
:1052F0007958A6D8B0FB71E60F7B2DDCF97980A632
:1053000058437DDDAF48FD871FD967FFE8D8FD60B2
:10531000C5972E980FFFCA21DDDBAE7661F8FCC37E
:105320009E3338FBE2FF613E5896C1D7BEDF3AEBB1
:10533000E5063B6D97F6D4C2CED817FC2CFD7F87CF
:10534000EBB3047EDBC310F92F2CF501226519089D
:1053500010D2BFF6E178FB48E7B3E932BBC5D6B25D
:105360004029AD31F8FDBBE70220611EECFD8061F4
:10537000DE58BDFEF9216A6EB602261AD20142CF6E
:105380003FCE373B020BDF4AC3D6D98020A6BB4CA9
:10539000FC40906B14F750807ED98866FB05FD14A5
:1053A0004F0ED840012820A3310F66A7A80163083B
:1053B00077CB38103BF32002055F94C6FFCD8CFA03
:1053C0007796221004AE0CA4EBD781EFBF4811FCF6
:1053D000E788D8E105873E920C1480100299C0A09E
:1053E00004844A0C0A1FADD5088009014B19F9182D
:1053F000EDB7808E6AAE04CFDDBDC093FA3221FBDB
:10540000CC31E110679319ED0440B320BF2C203458
:105410009E0266C0A0FD61EED107AB7D53EDF7BCE7
:10542000F9EBE60111FA113092B19C80EC10FF0407
:10543000D5B980C6851A6BAF69FB6149CA8F76EF13
:1054400058D7EC7F3C58AD082572CA10D5B3FE6220
:10545000464A17EEE280D15FFF79C78AACAE244C92
:10546000C6C5F599A86C666D967A67D8C258B3D848
:1054700094FD97986BDAB402C635FCFF631FB061E8
:105480007EB6ADC8FA51F287BED93C6680090408E1
:10549000462B8312A776803134D702464DB8B469C3
:1054A0008D673002486FFBC4D044EE81FCF32406C4
:1054B00008FE80064E73C88801B906B004AFAD6F10
:1054C000578D043719FE607518AA2803B9FF80703C
:1054D000F33010E956359B370156F67040C86FAA75
:1054E00050FE25C5100171B834468088F326E9FDC9
:1054F0001106A091C63B73236CF5DA9008BE181113
:10550000302108F84776E81240C26AB5D68020E418
:10551000600A404018E308030496CE326629D37C23
:1055200011647A608867EE82EFFCE0CF010CB0F086
:10553000401EB9C019640E3C60F3307C06C003788D
:10554000205DE2418B11B4E02EFAE05FE060F2CC26
:10555000C67AB93C20B8FE7F3010979A187A730C3F
:1055600066FD31FDC44CF36660ECF3844163B626FE
:105570008373EE84012BB9C4E5FA032108D318051F
:10558000294C0103A010BD205C60CB400C391640B3
:10559000B488BF0BEED05AFB227FBA80519530F011
:1055A000E398AD166B91AA0CA60450D05BC4A34936
:1055B000EC41B00159B352699D7D4404BED723A08C
:1055C0006B945144197DDCA1EF128DF304DFAD31F2
:1055D000C5190DB7DAD3F6E104C4B3F508D780F9DD
:1055E000D9E35E9832BB066328C65B10BC3ECFEDA4
:1055F000A3049FEB98C064E380F279D8FC24E6D33F
:10560000D6984082715373E01A49F60436E1452C6E
:1056100019BF48C798D6B01028B3C6E7B584113073
:10562000E2049BFCFB90001240BC9DEF7F98019030
:10563000300610C442328813666C00095FFB3303E6
:105640000844AC0294B3FDD94F2204310179A3FA86
:1056500019BBBE1EB8D019E6F307307AF3C403397C
:10566000F3C517F7E50EC003BB02B3913C36F0DF7C
:10567000801EEF98E4013C08DA20FDA5231829A735
:105680009E9846CD040366088C7A9810D7C49889F2
:10569000CBD380D3FDD2413AF3F9FCFA3AF2985FCA
:1056A0000651E398F2460F101828969FC6BD98033E
:1056B00073F951B0A5088658FF043CD33040F87008
:1056C000B131B072260102FF7E85A01104012610BF
:1056D00022F78B49114D2C9559FF42B544DC6EA041
:1056E0000E904802D79ECC040A98FC0AEDF802BB43
:1056F0008D4020E20806823D050C611EAC1F409DD6
:105700006BE6A0FDED8CFCB5934330A3C0D74006FB
:105710000330D80864D66E8A015BB838F9987BF6F6
:105720002820C4D0FE2460F575F7CC8C9451C2AF0C
:10573000FB4D9888664C8C7030DEDE2343FB841072
:10574000064488C2C67E801104029AFD03BC985AA2
:10575000B07492CF8D81F60204413CFB60014C167F
:1057600031BB4008DAAD91B05E6688F3F02C0210D0
:10577000A177B0F9F9A57A9810E719E8013C8B9068
:10578000F05E98037820D80FE0D71130716FF6885B
:105790000780F4FF4F980FF31808D0BDFB81016F0D
:1057A000E49898CD0420F301DC300D8C6D96DE98E2
:1057B0007EEDB9C159C6804129D3E9FEB60426372A
:1057C000FB983CDC4C8101B2F014C00258F94360F4
:1057D00081E0B14964B4900B13D9B334205CEF82FB
:1057E00018007CB309902068F8EEF72484CE3C4181
:1057F0004045F79FA0E0A184D002FE4344904811A9
:1058000081286CEB12573BC84088FE2C4DB0FC0839
:10581000FF7F880DBC6205F995F5ACE698A5F4C646
:105820001336FF69F404B1323718D2D5F3B89BFAB6
:10583000F93C88F207BABBEFF32F078180F282A30D
:1058400060A919F4488207F998DD8BBC1C1952F342
:105850005BFB02EDECA60B46E4FD9830EEA014C015
:10586000DD72202C8228732B24C0987B0644081AF2
:10587000D4B324D0D71AFCB70B1120B74A600CFB65
:105880009826029C84E811645C401072E6C51DB93C
:10589000181009D9C8E305B040EFC224EEB68C0158
:1058A000836C51FF19733D400681C4797F396AA02A
:1058B00007F0908AC8B3C860023DC54B6C2F9BCAE5
:1058C000C8F25E3FD3DF9860401C20187066AEF0CF
:1058D000196AF86253491420E35FCC42F33BB4A247
:1058E000C68EFFE6DD06C1FFBB4DC76B29C9FB4E67
:1058F000B30826C12F980209AF6061981110E9160C
:1059000041B20A8C60BCCFC5DDB3890A02FE982B78
:10591000D36F49F65E8029072278FB29CFA0D0AF4C
:10592000820DF3245FF9C684A0AFD08BAC0943EF9E
:105930005F0662BE98DA61807B989006AF12B487EA
:10594000F1E783DEC0FD19B602ED4481FF59779877
:105950002B47E298A9DBDA5E02802FC92C98F5C8A4
:10596000402004B506F42FE9C00740BF1EB6EC4442
:1059700031D565A7367A983C48F6AAAD3AECBFD245
:1059800060DFFF0C94C89D796C3852240222D0410C
:1059900025680C723005C558190108CFD678211634
:1059A0000D88E5C6F8ECA01B72FF4CD6C88875D5EB
:1059B000600CD33DDD26A402DA0B99EBEE48D362EE
:1059C000C71AFFD809300326C4DF4098F532FF52CA
:1059D0001238FE687657C8BBD2C4037A95191CE604
:1059E000C581F3571850ABB40CC42FB1F59890D9BA
:1059F0009B73180F6290400C34FA90E9765DD59055
:105A00007E1147798BF97177CB055915D4FD04B513
:105A1000B3E4300226BC7DC00110C2E1FFAF918724
:105A2000CB44DE9802B39C08D726813C0109FDF3E4
:105A3000218C8251A08A8D66DF12A72B3008CDC43D
:105A400059B32930787E52C8ED82EF08367C76341F
:105A500042C6D00E9248206C1E095BEBCF65B64D56
:105A6000E45FCEB490FFC08120089104B4DF91C8F8
:105A70000A933446F1CDA645A8B64933CACD1835A8
:105A8000D3E530C2AFB3988440F358ADFBB5135F94
:105A90009A02C230A37760140871628C25B31CB9D6
:105AA000AF363001809D1777354F1090D7FEE4C890
:105AB000B82AC3970691F98B68E77631ADB01A40E2
:105AC000AF253080AE7998ECB410B50C3AFA8076F8
:105AD000B2C8615403B86039A559C84040C6EC8CBF
