:100000000C94DF560C94FE560C94FE560C94FE563F
:100010000C94FE560C94E55A0C94495B0C94AD5B21
:100020000C94C05B0C94FE560C94375A0C94FE56FC
:100030000C94FE560C94FE560C94FE560C94FE56F0
:100040000C94FE560C94FE560C94FE560C94FE56E0
:100050000C94FE560C94FE560C94FE560C94FE56D0
:100060000C94FE560C94FE560C94FE560C94FE56C0
:100070000C94FE560C94FE560C94FE560C94FE56B0
:100080000C94FE560C94FE560C94FE567F7F7F7F98
:100090007F7F7F7F7F7F7F7F7F7F7F7F7F7F7F7F70
:1000A0007F7F7F7F7F7F070007047F7F7F7F7F7F4A
:1000B000077F7F7F7F7F057F047F7F7F7F7F7F7FBD
:1000C0000F7F0E7F067F0D7F0C7F7F7F7F7F1F7FDF
:1000D000177F167F157F1C7F147F7F7F7F7F007FB8
:1000E000277F1E7F257F1D7F247F7F7F7F7F187F57
:1000F000207F217F267F227F237F7F7F7F7F7F7FDF
:10010000107F197F1A7F1B7F137F7F7F7F7F0818E7
:10011000117F127F0A7F037F0B7F7F7F7F7F081015
:10012000081F097F080F027F08197F7F7F7F7F7F6D
:1001300008027F7F081308117F7F7F7F070C087FED
:10014000017F080B7F7F08077F7F7F7F7F7F080706
:100150007F7F7F7F7F7F7F7F07037F7F7F7F047F1E
:100160007F7F1C7F1B7F7F7F7F7F7F7F037F0810C8
:100170000C7F247F237F137F7A7F7F7F7F7F08110F
:10018000147F081908200B7F7F7F7F7F7F7F7F7F11
:100190007F7F7F7F7F7F7F7F7F7F7F7F7F7F7F7F6F
:1001A0007F7F7F7F7F7F7F7F7F7F7F7F7F7F7F7F5F
:1001B0007F7F7F7F7F7F7F7F7F7F7F7F7F7F7F7F4F
:1001C0007F7F7F7F7F7F7F7F7F7F7F7F7F7F7F7F3F
:1001D0007F7F7F7F7F7F7F7F7F7F7F7F7F7F7F7F2F
:1001E0007F7F7F7F7F7F7F7F7F7F7F7F7F7F7F7F1F
:1001F0007F7F7F7F7F7F7F7F7F7F7F7F7F7F7F7F0F
:100200007F7F7F7F7F7F7F7F7F7F7F7F7F7F7F7FFE
:100210007F7F7F7F7F7F7F7F7F7F7F7F7F7F7F7FEE
:1002200008277F7F7F7F7F7F7F7F7F7F7F7F7F7FAD
:100230007F7F7F7F7F7F7F7F7F7F7F7F7F7F7F7FCE
:10024000017F7F7F7F7F7F7F7F7F7F7F7F7F7F7F3C
:100250007F7F7F7F7F7F7F7F7F7F7F7F7F7F08158F
:100260007F7F072408057F7F7F7F7F7F080D070B37
:1002700007237F7F0713071B7A7F7F7F7F7F7F7F27
:10028000071C7F7F7F7F07147F7F7F7FFF1F627F39
:10029000C23C006088FFFFC0089001324006C8C61B
:1002A0000019FF03050A4414012341CF068AF320F5
:1002B0000365FBA00C94290035FF0CFF9881325098
:1002C00006CA4C199930E0C0E0063379C688009818
:1002D000D3E764800CB928F8F80014C002587F0BEB
:1002E00060012C808604040A3C0270D3F340F305BD
:1002F000A021E680CE4CB312E050C0DBC08628D1EE
:10030000E05072D33460D3B04E16B998FC13048613
:10031000FF98FFC5D0E5202C044066048008101328
:100320000266080601F5E01094E4DAE8FE09CA4D19
:10033000DD6CD11D3CFB024020285343156790B370
:1003400023C616D0940A23E08DA01572D3403BDE5D
:10035000A31018FD0672C20401ED6DF00C54B42018
:10036000E6409FAC22B5BB40B395029025FDCC0181
:10037000B342DAD613D3E521700239F531FFF40127
:10038000C94592ED83680DE6201134B31269F2502D
:10039000AF4136AF847B680124C48226484823627B
:1003A00052818E9240C61DC9688CFC8305F0B5F958
:1003B0004DD908EF60C6F84FE8DA0485CEF9CE33A0
:1003C0001E06E4F703378D3FFFC00976F32940D3BB
:1003D000BBA8F94041DA72150DEDB430C7BC0AE68E
:1003E0008132FABEA0DC9C3B89E3E66826B1A3C05B
:1003F000F4A640584809EFFC3E9EB01006C273E8D0
:10040000020BF22CC90451F3D2CF820218602129C9
:10041000EC8085A045B411AF0242FC08A20A6545F4
:100420008B16FE8040104360010C62F230E138FA16
:10043000C288FC0206C1241805E6B3440C5F307A7A
:10044000E0012458050B28369F207B663090D7109A
:1004500046FC8D08036122C8BB84C07080CCD69353
:100460005C228CCE5C8124FC60273C880787F00EE0
:10047000E7C08318E9E0412996161E3F4379100F23
:10048000E841B13C0F7A841C80030261E00178D21C
:1004900007C6801C510E06C8037FF30FE2013C081B
:1004A00010A1FAC3F03DC3180403FE6D28FF0C57DA
:1004B000A9EE720C33E6FE7F62730625D3832EE02D
:1004C000883BC6F68D83ACD308F92B21BCDA15988E
:1004D0007DAB35190832F90842B3FF1364102C8242
:1004E000453041620AB3024A8B58F818C0C63479C5
:1004F0002682BDFC110B600A8C84F5E608B0F8E496
:10050000D667CF801A9D480C0D3ED835804002FF3B
:10051000F13A040D2044625D9D4EE2824023154273
:100520002B6C01DB984442FC009DFC2244FAAAD9C2
:1005300018C9F5AB400D7DF20C91E68BDDE22E2A59
:1005400039FC93034BE584CDE1BCC09B9BB0FEFE20
:10055000B9E0B84BB0AE442F305181C0DEE6E0DEEA
:100560002D6AF833C009E33445ACE198746040E982
:10057000BCC2D85CC561C4A0F947C50168EE1320B0
:1005800044F5D211FD0C7BC105B067FBE508B4DD75
:100590002022EA30A16026801190A9E044EB1008E7
:1005A00075F328ED8BCBFEDF79F326C10298B340BB
:1005B000FA140C80913062674218410B9524E2F6E0
:1005C000F77FC07F22D341845BB3CF224CF2B020AF
:1005D00010AF82C4F313F0218090057E1151FAE030
:1005E00081BF1CF0FA801EC40339F098D80480152E
:1005F00031E0B8E81AF3C4BC98BC6B7C900EC8011B
:100600007A3D0F68DFDFAF100498BC9857C6EEA89C
:10061000FDFE2C06C19D17036040E586F424F37FA0
:10062000A5C531669FD3FDE0C4374F10F9A5B7BD0E
:10063000988060200C00B9DD11F8EAC51645C009A4
:10064000DE2204E03796482CB32453D94B3408D328
:10065000C04858B921B389BD34A6119A20F34C7D06
:10066000D30458FB20317ACD1220DF056008020D3B
:100670008E2077E0C0107EF702BCE805849E19FF4B
:10068000513492260188024091134C1DF28CC85AB5
:10069000886E98907BF238FB8010DBB2BCB85FC8E4
:1006A000E69324197F2C30018F2E87B48464F3F8ED
:1006B000FBABA750E61690032EBDE63088078BB43F
:1006C000C5983978882623B9E304B04447FD4784A8
:1006D000F03033B3407FBAB358FE84F1FE25E90809
:1006E0004B404B0C3CEF3181063982B5A5A3392232
:1006F00069C29CB39A90A1A2E8D1582164DE01A0FE
:10070000053137468140CA1850EFD1BAB8304AFC9B
:1007100022117A1006C422F88CD3425C51AF307893
:10072000B82258041073245988B320C766CF0146F5
:1007300020D8E1040BE9144C42011688578BEE8057
:1007400084E990B7F1F9E0803C9730301EC417255A
:1007500030609CAF1E6DF3B13C0D45171CDD0332BC
:10076000C830797F0FE8813C8828B2F3B73F0FCEBD
:10077000E440B0B8FE0362C3FBCCFC98EF578B0893
:100780008298623EE579D3FE6BEF61100CE5234061
:100790001DD3E78B3EE628FB80093112C9C426EF42
:1007A000134102E130E0844275D36424C6507F0FC8
:1007B00030CD180513CEC048FB0960BD6B452B0C2E
:1007C00071B698A2232F7C8B203004F0FAA627C1A3
:1007D000028037440308D7810D4E376012023C492E
:1007E000BBF38C8043DC980534C14020886F5102F4
:1007F0000BE082C80610C4C76D048176B62AE4FBFC
:10080000FEA2B403C830EFF290DB1714F2983F3920
:100810005615019E7070F336DC2DCDC0FCC63C79B8
:1008200040AEEBFCE0AF5716D9632DE3987E32441F
:100830007B5B5E557F0A41BC3DF6ED68B5F8D9F5A6
:10084000185DE5C08C24AEA2CFEE14F00960215DE6
:10085000D1621E989788E67850D6DF64539BBE22FB
:100860008833835135421B8085F530204BF89EC874
:100870000A26C0649C05AF35F35FFA265957F70482
:100880000301147A9802CFF598B079787A2B216019
:10089000FD40CD91C0162B840195918CFEC60AD9DE
:1008A000FFEEF50107F440FB1C1A93E91CF334D664
:1008B000200E5FE8EB980811F59807DEB55C305C18
:1008C0003DF53C800312C19A61488080F3DDE89BCE
:1008D000C8085F1498FF665B7673F3621062FE9837
:1008E000BCC4E0D797304166C820933341B969AFA3
:1008F000FA53B201B30802F20320220CED83B37A5B
:100900008218A001F2B858E622879D98C030FD09F0
:10091000236011FBF09E03C650100B6BB324236EB3
:100920006B70FD953092DF4512450308AF40E254ED
:10093000068127875013045D0036A74277BA988452
:1009400034A0CE970142EE7FCBA89104C0861082DE
:100950003BF78028B3C8050FE0FDB380B48051D9C0
:10096000FAAF0030621D176EA869D684BC007E6B9A
:10097000A7708B30F09AF0B716107130F9CB42FDAA
:1009800016D38C30F2B222E0E2CD2910178CCDD0F4
:100990006440A78A98F96921F98860168B124B0E7A
:1009A0005350E1C3BF1629C89E408021C418661069
:1009B00012D0162784260B0A59C83CDC1102816C20
:1009C00018500F42848C24598EC32AF85C30AF46ED
:1009D000EB320103C698BEB0BF9F4487980BDC0181
:1009E00022A6B1121E2C30897D101F6041C92C84B3
:1009F0007A79A4806262F9694C880581E4BFF89E27
:100A00003031201E44BF880DBBE0F70FF17150FC60
:100A100030678E19E01C90FF5698834FD5C60C881E
:100A200003BB14973048FB8B20A0C2FC84BF3196D7
:100A300030049FAC5B89A5C2A9838A723080FD3CDB
:100A4000AFE0978981E4C8EDC602213D8B6194FA3D
:100A500006CDD3C42019400449C0123A40A637112C
:100A600060F23004CE2EB3FEB71648881849239C96
:100A7000B3C01090601186FCD89882B30933FAF79E
:100A8000848F40028C181F030801970DF3AB5A8026
:100A900033E801DD04B1841FCA3490FDC8C81F08C3
:100AA0002480A10923D46E5402E030AB27C8876CA0
:100AB000F864ACD5108F65930301DDFF256327FF34
:100AC000F99893909337F8FA369001F09E58C00C3D
:100AD00068E6388007BE1E491443F3462B6AC040BF
:100AE000FDAE13143DDFFE4DB304C4F9C869BCA6C6
:100AF00050FC8FA08129CBE78B33AC8CE3352746A4
:100B0000B81A20C80944033B05A03F536281C506BB
:100B100035BA18DE7121018070BA1142F9105844BB
:100B20009C9F24E98430116BBBFCB9C026C276EBD4
:100B3000040340BAFE0831FEF748580563E67C7F9F
:100B40000D308A3072AB84BADA30ABC998C68045B2
:100B500027CA302CF7E101A9FAEBE0410CDCC520F3
:100B60001E40981EF1E0CEF298E09A18781005E643
:100B70009FC330E03D9580D3EFA50338100F81E08F
:100B80000D8188926BE898E21D3C207803195F3E46
:100B900069F4EF005E987F1F23EB98313FF78C419B
:100BA000E4C8ED398340783052F82C20D3FEB5B933
:100BB000F980490422C1C028CC0203B20CAE402700
:100BC00023D3052162B980D3226730B305341DC019
:100BD00030FC1320120C0F449010824EB3018B2076
:100BE0009FA640300AF0FBE7203104BA088077ABBB
:100BF000984433C884EA020C6C49123D0005DA5B64
:100C0000677C7FDDEB90EFBD51230242FE01A0091E
:100C100004802050270201038A2823B556F82F1993
:100C200016DAA0A285EBF51002DC74621EE55DBE4B
:100C30006512F3FB044BD30C5E6503D0FC13F9F291
:100C40002BC82B8828C8F62BFE4968DC48A7CFDACA
:100C500049CB36B243020499FF4A9840FDEB57BA9C
:100C6000EC707BFA84F23120C5FF7D4B818CA801AA
:100C700002713007B5BF096CD843BA17B588F09830
:100C8000CBEBE7F8D90432D014D2F3235DF29363AF
:100C9000CAF9130530FE0126C08218090349EDE0A8
:100CA000F34585B81E215422B65AF066A0B3110C44
:100CB0006275829E836241200E118069BE819F13FE
:100CC00023690589071268C3FFE0F73D8807F4FD33
:100CD0001CD9C833B003390EE1C4011AD8079717DD
:100CE00030DF1CCA3003E33099C60590D3E7C80350
:100CF0004929E401AD0CAFE33FFF8DD67CB8DBD2D0
:100D000098618B8CE65BC598E017968C78D3440885
:100D1000086EF298D115F6AEFEDD9E21E54BE59802
:100D20009DC81110675E48189D20D3240488F330B5
:100D3000C004EEB44006CFC8226200C58C82BDB0AC
:100D40002F0110D3B34C8604F0ACFAD3C812749AB6
:100D500048C20368AF0DF85106101202F3499A0118
:100D6000D841208E876425A1E9178665FF81F56645
:100D70008E50BD480B9928CF08CFEC221CFB8F5B0F
:100D800098609A3375A32CD310478D3D72A8FF3D10
:100D9000D7FA04B582E62B60FCBDC580C807F0C950
:100DA0005503C73DF512C7CBF15488FB98810C96CB
:100DB000A0E6BE317E7BA8448004BB640B77816BC8
:100DC0005FCC29E5F7991323093006282B34F3C1AA
:100DD00042430BFD4084288085049DBA7C88FBD962
:100DE000D31A93CE241D24F616FDCD68A3B925DEB3
:100DF00098D7C3FABE2E1106C004586066603BB98E
:100E0000240A16B935ECA0B327AD806FCB2F016E45
:100E10008C1757C08F4D38644120FD800931114037
:100E2000482B3A93F57F82ED98C9FA79D27C1C550C
:100E3000CA3078E13039450CEF980378100FD7E8C5
:100E4000011ABA9A66BEABE8813C9007FD108BD3BD
:100E500035E2019B8E70BD98385E8B4CD3E8FB0762
:100E6000E6C820FFBF7F25C8F3AE57E885AB6AB35D
:100E7000DA50028D19D30865C8FE78BF08D55E42E6
:100E8000EA9883F5988232F3E1FF5375FA46C1B3CD
:100E90002919087219027FB3141820136080FB2CE3
:100EA000821130046FDBCA021F19977BE6C8046504
:100EB000C034C6DE98B50BF69838FD031B33FF4BE4
:100EC000B3CC96A3F037DB76F8FB5E3F4896BC01C7
:100ED00071F388E57BE0E05A01E06630D398FF18B3
:100EE000240DFFB3288546663839B090E466CFFDFF
:100EF000CCB8B9B3BF986545F26E73CAEBE46EF631
:100F00008958FA0448512669449A86679CE0A4648B
:100F1000FF7070FF118247D7CCEE3202DDE650CB76
:100F20008A30FE142BCD97CC2BF1B1E34BD001507E
:100F3000E0E9EE306CE7DEF8FD086151FFE1289949
:100F4000FF814D8788F889AC7C40F3D46EA5B1E56C
:100F5000018B7F2728FE6FD6D07AFF06C451CC02C2
:100F6000D887C5226DFD23D8FBC6FA4FD8214C0A7D
:100F70005F8C7F1AB91AB8ADB3FE7E11EFB6AAFB2B
:100F8000041B59B0102BB20C311878A1FFE9B97FBE
:100F9000210220B8EC96F2408B3F083CAC89CEECA5
:100FA000401E0888DB8201FC59D70CBDEE77040394
:100FB00018FA2DF09D1A104004C3EDB420795B653A
:100FC0000D9E695EC69420442272DE228FF768B8B7
:100FD0008010A49897F8FC180509D301C706006C87
:100FE0001860090246ACB09AB9CD8176DB24280995
:100FF00076B961602804E09D308B58806A6E2A1CA7
:10100000094FA26214063CDB4A112B33C6109E50D6
:101010001974300F445376B89A17E89527EC098075
:10102000736AC208C62815D91001E3669A4EE041DA
:101030002918D3D51DC02131AF443F10308324027D
:1010400016AD22F51C0E78FEA795FD8EFC1711E655
:101050001031FB2840952941A14C1EA66FC4E4C65F
:10106000C6200490181957E5B181E7FD4977DA7970
:101070000ADB8AFBF912F361CFD8F8CFC462ACD592
:10108000DE4204995F45D930F9FC842CF3BF336309
:10109000CD17FD1C07B3019644F821F1035845E430
:1010A000467166F026EE1FD0FA2FE9BC286DC90400
:1010B000D9CAEB9F183C5AD2BED6F6D368FFD547A3
:1010C000016675158A17B5DED98D04D8FB028F36F7
:1010D000E3A0FABC1D18DCF428AC44F3F179410517
:1010E000E662666FBFFC6BE424C6596973A558F9C4
:1010F000B510597740268033ABF2102C73CC5DE4E9
:101100008CDB644073281FE5C7809FCB9C0120F9CE
:10111000BD4B02652DC60242905101C78A7185E21E
:10112000AC42D56882649F7FB64916ED4ABE9721CE
:10113000511DAD902BD970F8098C80EA6E63615017
:10114000A28CA9D15058B0FDC067DFE5D88C999D1D
:1011500024E8FC85ABB42033F6B690489DD90BFD4E
:101160007F65649FD6E68137D7B1FA7508C9F64422
:1011700028FCD55D04661137A88F995BED7ECCFD08
:101180009E8FA3028C1ED3B014F62AE9FACEF0BCCF
:101190006C63AC6547D6570C52D640DF2D7B8CEA8A
:1011A000791C086DB6C07F5B16E57B182670FFB50D
:1011B000806E35F0FB30F5A3F58E22A619766D0111
:1011C0000896F528A6197FEF3540CB2217DE9D4003
:1011D000500D0AFFC979CFAF5633981597ECA40488
:1011E000755F40642E869034F16CAED0FBB1B7755C
:1011F0009648FA49B49E6562BB72BD20D790B1FD96
:101200005FBF06E8AB7FCFD3913546A064B7E2B0AD
:10121000F898CA8FDE01F8625FCDB708239B197278
:10122000A0D912E6BFFB749811E777E5B4826A761D
:101230006E2094BB219D46C67ED257C342D723263B
:10124000ED800438220250DD42ED0BF8F26C51BB08
:10125000FCB192FFAA5930D94840FB536EF65AB9F7
:1012600028B6FD8FFB1562769C2E80F96FA804A628
:10127000009A36C3D8CE0EA847B7700104C1DB5020
:101280009E13DB2C3009D5A2206E29C4B00144D8AE
:10129000AC3E2F0304850D70F860944EB6190A2CED
:1012A000449359C16630FF9107E2804801284210FB
:1012B000A19819D71F34103FDF5011018149DE205A
:1012C0005471B4C0E5A802DA4A86340F401110FF09
:1012D0002D81001844013F208E0C79B2230682E74D
:1012E000AD41F69309E8FADA007AD022D7EFE7FDAC
:1012F000F380E219E3FFA5ECB8081AF9FF81104268
:10130000471CFD71035B77DC9FE5DCE8FF4D2EA7F2
:1013100034CB2FEDE8B41008E684F8D9766E9F0739
:10132000B3F3FA047A8E812C08B952E1016DBDE362
:10133000F81094D2B204FD1D0462DE040D9BFB671D
:10134000204F6CCCDCF8EF316EFEDB0E10ACB4201D
:10135000DEEEDF48FE31E165BA088D69FD9ED836C4
:10136000B3FB5A6A41DBB1B180D3FA064067AF1BC9
:10137000012F8FDA82012C7C02AEF607A0F9087EDD
:10138000EE2D40CBA9153669EDB380DA421907C8B6
:10139000652C19FDC34B5274EDEF10E6AA2FC782DE
:1013A000FEE902332B40F05870AE5E7B8E624962DC
:1013B00004FF79AD9E977208FBC63244C5F4AFF2C4
:1013C000193FE08FDD35BA5AE4F9F118A6811965A5
:1013D0009890EF99DDFB60DC74FA946C2C19B7DF00
:1013E000C3B67534B9BC0862D4778FF56CEFE9F8F1
:1013F000574C426F367E08FEEC04064FF24258FE10
:101400007DC67668C6BE33DCCFDDCAF8FCFBA00122
:101410000480C0F8F71A402008EB9C712411107F5B
:10142000229248125C5A28F2ACCF751E844012EC0E
:1014300095A348469BD45EBD77D79446043DB3F947
:101440008001EB8F18CB266E4C066AED3157731B6B
:10145000D2F960DC597BBF73A5C0B30CCD581EC058
:1014600025E502F36D7E0BA6F614F44C60A2ED9315
:10147000118D645FDBF606C88CF0E6FB78FC52C089
:10148000C91424189C193E01802DB0C00ED2E4036B
:10149000090E4C28CF141A8BED13C008F618014022
:1014A0006099108E12D3E578BB7EEB2861B3817909
:1014B0002044C04092FC2301220C841140398680D4
:1014C00088D3F0926020404DE6109DFC1B91B0A7A0
:1014D0007FAD052362F3044C8809BD16DEC084B3DA
:1014E000BF2CF8FEF9E0933C63F23050D02138D3A2
:1014F0000FF390079E700CC40378F3F3386692EDF7
:1015000088D3BEEC68D320E077A307F124E978F311
:10151000C3183CAF082F4BC84BC119180340130C1C
:10152000A93021A99EF3100360F3F338B353EDD330
:10153000C22089188179E07ECCC0D377DA0C2BB930
:1015400090B2B1315A78ED5804A33444E0E4B108C4
:101550000646D2A6A3D382D1B3889789FF7E3C8A60
:1015600088FFB35019D33E096082D1B3C169C72146
:1015700039B312B8FEAA389014109842441468EF98
:10158000E609268A9F023A036789C0B011BC04B3FA
:1015900030AED54A8230FF31082384679402C212EC
:1015A00068AF1199C55F46F9FF9A4021680220246F
:1015B000059B04C7FF4E3BA8C87FBF21B140989E42
:1015C000456DDEAD8808093D0DC266AC3586B6A511
:1015D000B083E17B411008880295AD01E7B702D2E4
:1015E0007EE9E306F5C05933BF02F410C0FD24E7DD
:1015F000A18A39D0B38EFF4F6680FF044108479916
:101600000BF3AF95D308E18C30C4031A7B8B18F928
:101610005CCC339CC06545CE20609D80810522DC7A
:10162000D0A71156248249BD04B38137FF0126F8A3
:101630000AFF80B2142D12247813DFEBD3509034BC
:101640005728AC1A049E7B3210C9FB50BA669FC65D
:10165000D90B60082CFD0449300116C464A9FEF3BF
:1016600021248411B110F1B36E69B25BFF261130F1
:10167000692D828123F964412C8005F3D746C4C2C9
:10168000BA3CCF4C0421EBA1C1FDEBD6CBD2FB1C65
:101690000179BDA51CFE8807F02006C883DFC49829
:1016A000B396C4FFAF1160803C9077EE1CC0F76B1F
:1016B00064800CE1A00330F41E4002D329B9D3F8B2
:1016C000280A66437301BFA1A5C0176FADF3813C23
:1016D000E5C9E21D3FE0E7D0E021107AE002BC5E00
:1016E000784D60400C24E6E594FF805876EB227933
:1016F00026A36024E0814520914046E905B34C973C
:10170000902CED7FAFEBCC8AFA7FC09157C040F0B0
:10171000B52320E90C6141C012E0C01108778011A7
:101720008732385F32DDA488C76EF0DCCA6D34FCC6
:1017300053FE21832CA05E9879B37DCCAFF032208C
:101740005017D3DFB0A2485E98E244048A83243C59
:1017500057206802E5E60504EA69150B80F3F8A056
:10176000963830DB9ADF200CD73DE8DD76C166592C
:101770005A4B2FE0E25865D02220DA7BA658FA7F38
:1017800000A85F2F970306F8D2BF03894E9F81B64A
:1017900008D32460661B410C5E494042D3F35E9837
:1017A0009E84C5C40260BA274DB9CDF834E222A6A2
:1017B000C55F9F7F9C4D5C7B0C0180D911045FCC81
:1017C000B88847D3524018F088518E03F5EC21CAEF
:1017D0006142C6F75FE2FF043C191140C16A18DF9D
:1017E000330C4C90FF09302116C2025908C3236103
:1017F000FB2C904530407FB4CC199AA031C0C1C0B9
:101800001823350B0CD38489C6C04416A07C66818E
:101810000C1021D3B128191C80DD05F0BA4968F6F7
:10182000A5413C0D07CEF3037810EF3698FBCC6250
:1018300066F1B2F1B5F0E330BDC2038634DBDD986A
:101840002C08C0CA6620E26AD3AF5F3C98F3D3D6B7
:101850008B31DFCCB50A5F6685C76A2DE061DDD3C9
:1018600008880201D34AD309FC32902B46B6E35EC6
:1018700059E0B7424BB381F3CC219E6E30840560B2
:10188000A04218DD23CF3009314226E7C284104838
:10189000601227F36C4170F0FD2010A53C409804C5
:1018A00003EB53280C581F24919810223521C8D8D7
:1018B000890FC9C8B35C30B512E63001847FF910D6
:1018C00092025240889508EDE9F190B61B40505ABB
:1018D0002E29C8D494AFFEDF1820FA6C81F3CEBC59
:1018E0006ED72C088DAE550C30D78830E2973F402C
:1018F000F91CF9C811A1D371032543B8B37ECC01FB
:10190000B266568D45EB44D4DB49D918F39642FDB7
:1019100080B34BC45F4098417791B6D37DF9FEC048
:10192000AF06565BC0C5E40C85B36881F9485CAC72
:10193000AFC0447D11CC4404D8B02926E67AD884BF
:101940008FD82FB35A9805F2302150ED36F1CF08D9
:1019500043606E015DE086EC5E2109C618A0FD3291
:101960000273FB80480FC0829804A23FBE8C88811E
:1019700020100440A118600B6057442F50121BB375
:101980006E105E56309047B5354991A98F11D31628
:10199000B0BE45BC129CB10C1004E51429FE507B6E
:1019A000A5F2205EC597484365BB64C8BBF39D3074
:1019B000E4013DE566EB98095E5030EAE0AC7DEB72
:1019C0009B0258DF6B813CA005F0FB4006480218E3
:1019D0004E4D03601981AFB7A58220FBE50806B71D
:1019E00081F59830B7DECCF84719E6C8848B57EDFF
:1019F000CE17E0C4F03007E7C821FB7033D7B3241B
:101A0000CF8FB30E9001AEB0102319DFC630B97B73
:101A10005FCCB609E2CA5DED20F333E0016FE81E4A
:101A200002196008B3FD84300A38FC20FF1DAD8424
:101A3000414C285DA0F624A244909F57962C949F79
:101A40000764F33010847F248752D3ACE0F58F0510
:101A50008124C9BF50F305FE98DB90FAF8AAAFCEF7
:101A6000A2BB53E6A20804B9AF0C0DAF99973C3066
:101A70006CEE769F2DBAB306F2EEEBEDC6EBC4F832
:101A8000FCBB7BD8D280604BCBB0EB0322A317E02A
:101A90009B612DC3044D663C8502F0982D384BB5F3
:101AA0006B185D6444F3A1EBC8FD08ABAB8830193B
:101AB000309F24800900228A46BF8F132E66F3B818
:101AC0006FEDCC130139CA294FED16C408821A09EB
:101AD00046EF40F42B267F1B402141200159FBE1BA
:101AE000104AFA534552C14089982381442C0E5024
:101AF0006B1924F37F015944F00C8421302D043FED
:101B0000CC4064E96276D2901C0BF9E02C0880206E
:101B100086C9C040E069E2448C04FA8008C0FAF546
:101B2000DFA07130B7969867C871F3D00369EBC531
:101B3000105FA3CC2ADE66E5413C90ECEEA8D08392
:101B4000E23DDEF603F476D34802B99BDF48F8CBDA
:101B500030C1BCA5BD9888B541F58B83AF8B983457
:101B6000D6FF904B6606C25F8C4AA20CE5D4101FCC
:101B7000D3972EB1D3A9FE7028B0AE264FC0A3B321
:101B80004C80058510163F0C1C080B7024772E30F6
:101B9000802E6E5D3005B5DFCA308818CD26203A1C
:101BA0000293E9BEBD9A32C6C25DC601EF8B5130C9
:101BB0000AF0AFFDEB9910408BE8D59824E8E336A6
:101BC00093408812318C085708304ACE0CB329D282
:101BD0005F42772E3010EB175D3B8F8930F35AAEA2
:101BE000603F3DE05251FDE3A13CA79FBB99C8185F
:101BF000EDB822EA0D08C566CB30918B668630BF02
:101C00001188ED7303B803F1CEAD4398F3824D9183
:101C1000A8FB703DB410F0986D32C894BB90605C26
:101C200030A320D9FA1FE0F8ABD69864997CBC1C8D
:101C3000BB886183EECB6410F6B930189AFEE2904F
:101C40003F53C298B6CEC84840FCA06666E8B3BD14
:101C50009803A204C3E8172E7753C0829A17611A1B
:101C60000366BB61B93004AEA27F3072FF8021B041
:101C70002026FCC410980013415E8C8409BB17C257
:101C8000D74418A1B822748485306F42B36EFEAE7B
:101C9000F51B303CB0DF25032361248C45F3ED3E7A
:101CA0002058DC30988C9A815AF8FEF3DFF3D5C4C3
:101CB0000248FCD3C8A0F30EC8BF83DB980C908BFE
:101CC000B3D79851757539FFE1410C3BDDF0809336
:101CD000A8AFE8AF81268BC65002BDA8E426B9A9FB
:101CE000FDC8CDD520AE41F57F1A307150C6194ED2
:101CF00097A1A5E51019FF8734D384E02CF38E73E8
:101D0000300861FECD385E857F9A98E4C81E404851
:101D1000086BB3029830B840496E8147FF7D32FCB2
:101D200030A538C0047BB50121A10ED3238BC25846
:101D3000AE0443308E9C840CA0F9C5BDA43AE38464
:101D400058F69804416BC685D11102C15F29F42C65
:101D5000A011867C42B3BC5AD07F320984F6048934
:101D600000149E98BF21CB98A318FA22480C41F981
:101D70004F00A3FF60FE6CB4D8E0EF263942F4397F
:101D800020B439F0988EE330546608A3ED6633C171
:101D9000989A5A2222F3F7D2152FBC5DED1EE298D5
:101DA0001FE4F3C02810AEF2D3F081A1B8B38DE8E0
:101DB0004566456E9DE2CAF2981A7FDB58DA37789D
:101DC0005CD0FE0428748AC5AF1A4498249A281C53
:101DD000A06EAE98027B708051100AC619FF0BF2FC
:101DE0005E19C5D601CC11FE98968470BDA4E3217E
:101DF0006984A71F02B0FAC20410E70646C0EC05CA
:101E0000433CBB288809FAED16C22480F298F7B843
:101E100011312279B391BF5182013211A71492027C
:101E20004360FF014C8431301006C2AC4295C8B10A
:101E300090BBB941E0FF23F51D8007F4E5E2E0988F
:101E40001A79987975A657C8DB0FFDCCEB66E0B51B
:101E50006CF201DE988A40D7DA5E06C8E33081F37F
:101E6000F6B0FC809C3D117898B4D0F08B4D73C8CF
:101E700081DE3020BB6411FFE0BF918BA9BFAF981A
:101E800010F69848FEB97E4279B37A988C73393847
:101E900040F308DC5804B3F78111300117BF00305C
:101EA0006BC73079786973FE98DF4C88E59895C8E0
:101EB000EF4B2C0884305DB177ABF040F51441E86E
:101EC000982921F5248244E398DB0A3D23A01106DA
:101ED000E572C430F97F163077CA0440F1307010D3
:101EE000BFDB9F301840A06042D34128B954F96F3E
:101EF000A73264C89D2D260242AFDB9017F92D3022
:101F0000037830F51EC4ECE9400477ED2BDC03B414
:101F1000606FD648FCD1CECE5C30E520400CEA1193
:101F200057D313A7FB410C68B325FFEAA7AE984827
:101F3000FDA9E013F3C008646BE398DE107FCD5970
:101F400057FA7EC6C1BA915646EBF6449E1E21460C
:101F500040425389E34C88B4112F662398F6F83039
:101F6000E033B2D0C48BBB8D8A7C98B8B056CF78A2
:101F7000C8025BFE5E3100220607285804BB13FE30
:101F80007F093006144EA6730B604FD7BD3109028E
:101F900070B363850169CF3088913001C22604F0A7
:101FA000180023602548C07E05C4BF0520EB6021D2
:101FB0002843E36DB9FDB930C0023AEE4F301CF34F
:101FC000F22006E1C08378BF37F505000D1F9102AE
:101FD00069C930E8EDB988D3C8F50379100FCB3063
:101FE000A0C2F3DF7AE05E7258FBDA4D65C320A72A
:101FF0001730C2126578985B044FDDCC58F486190F
:10200000BB8CCF782503E082AF8A98DEFABF09F354
:102010004990FF62A622C002FE2D30C07690F926BC
:10202000C1081802B3420C39FDAF1AA3CC11F9CA8A
:102030008471B3FE98CB6110D36F7A982260082C1C
:10204000F7040140FEB100B3FFC5B3BBB69862E32D
:10205000D3D8FA771BBCE5A89CF379DC7ECC03D7F8
:1020600096302136D3C028FC6121FF844E66B8FF2C
:1020700028C7CB66EDCCB8CAC71B3910FE1E3F6F10
:10208000ECCC245B44981AB38B85A01137DBE3308A
:1020900072FF3473EBE22FF85450FB8DCF51E89F61
:1020A0002CB34438A9DC245AFF99E005D3FBCCFBC0
:1020B0001AFBF93C59C71BD398FF438F4DDFC2244D
:1020C000D745374D0820222690324B064D074D77D5
:1020D0008D149B1B020145DB708CFAE508C516EEDA
:1020E000012DE32366FA7FDAB81B93197EDE9F6D1C
:1020F000F6D0E6F1FBC3662BF538EB326F8130A4E6
:1021000089FF4036FE024EE96440EE109924FB2818
:102110009D4D49A8F89ED05AFF686379D489995A91
:102120006637BF2D5FFBC568F964A8D7205A8D8438
:10213000452BDD85ABFF38446684EFA902812DBABB
:10214000DEF2226A46FC67D97D9FDEBC108FE07EFE
:10215000D09011C2C05EB7FF8082555F0EB442F3CB
:102160006BC2AC3C40333FC64ABB20BCF7DC9A058F
:10217000041CB1CB0DFA8C87FC284FFA328006C8BC
:102180001A0B7AF030C00C5DF3149320B061060C8A
:10219000C419B304A0FDE5600814ABEA5EA019B54C
:1021A000C660B6C00388930919664CF0500C0A014A
:1021B000381840C4C6E285B64573DD4411DD4D5F75
:1021C00021D94110EC1F43600D928120F783C7187D
:1021D0004D4401046B7028C1034188CF0934C5C048
:1021E000FA80B84046286D7ED9DC3E96F740786785
:1021F000A3D329B44EDFEE166D5D8140574AF99F97
:10220000F0EBC222D700047067B4EEFBC43CB3F31A
:10221000C44FD0060466B8D18FE39E97F7B0F6FEA0
:1022200005DCC7FDB1132EB3CBCFA933D81B8E80ED
:10223000F8455F10BF917E21DE9263BD55B701372F
:102240001C2EC7ED64FB40C8E3238D924801C3CF29
:10225000FB8138BF59DB44F5B1A5FCF840B99005C6
:1022600082B3804C76C50B14B925FC334BF428CFD0
:10227000B8E343BECCC6399520B308B9DE01677513
:1022800065FB5E68CDD988FE6D851402AAF480CB0B
:1022900031384E026CCC2F0B51A3FF56962E6FDBBC
:1022A000AC02732F3810CFDB34C7BEFBF8FB059AA6
:1022B00090B2207FAB0162DD19B5405C8C086F6E77
:1022C00037D6C0F899F65E17B10C9F31A43FB721FD
:1022D0002E4259D2FC0DB61880A867BC8D67CE314E
:1022E000D0FD6CDAC0F9BFB7A636E2CBE5730D338B
:1022F0002F8356F801D9C07F25D8A8FBA75BD39CB4
:10230000A1A96120FFECA539FD22D3BA08BEC5FD05
:1023100031152FD90E18A6EC7F05C55939641B015C
:1023200036BD28F95FD8B157A6BB7F3612B8FD710C
:10233000A1053B6C216160B496B319090DFF98FFAC
:10234000887D3888E96D98F806023B136D5738FC94
:10235000D6318071AB9E2F018DF408EEFFD0FD3198
:10236000C773E17196B76FD554D6DF2BEDC478FBF8
:1023700019B4FD9BB804B21B7CB589FB13B46ACCBD
:10238000568E185A5801ED7AD6FDF3D8253A045ADC
:1023900030629E5A7AD948C82DB3332EFE32DC9073
:1023A0000B130019C7FA1BDDFFB0B3FF3ED4DFD417
:1023B0000890F52CCF5BADA7F8371B258148CD6081
:1023C000FACC10E0EBB68120BCD622EF0623430DF9
:1023D00011FD3988A7285A40E22365DE22A67783BB
:1023E000A0F9A6C020A590F5E921A0BBCA9712EAE2
:1023F00035E036ADE52010BA2280E1AFF0715FBB69
:10240000EF08319DFEA1A828678B52D80211BE6447
:10241000E75842400681980A26F6E00DD5B33064AD
:1024200002B31301201D2BC512616B6F0420E12D37
:10243000C64C43C008FF26FA404380060EE4FC0168
:1024400038048240104980D6CC0C02F8504FAE9030
:102450000814EE88200465781802D0EC000360CFE1
:10246000F1709C42141932F848D88630E7C42A0A21
:102470006090E3413D300C20FCDFAB25C0F211CD74
:10248000B3119DF3E44AF3792B91A28E6EF3D3D668
:10249000FD207E8F4D5990FF807FDCACB078D4B8A2
:1024A00072B03D01C6C9A56EF6979FB72D3872650B
:1024B000E1A68643F3DE416BC92828D8E21048F92B
:1024C000B1EF23BF383FA868B759EABBBE3BA7347A
:1024D000FB2C558D8ECCD175FF11620E8668FD8068
:1024E0003B758B21FF5165985DFEECEA029675A065
:1024F000FB8FE35CCA40EDB74208D2C497AC809929
:102500004CCBB6086F6C9448F8E52D101E56BFB240
:102510001083CB31FDA63EDD78F9C685DB76FDA8BC
:10252000799019D3C688E2E52CFE6D1188FD9638A6
:1025300004C62E2DC6816A1240C43785E8B6FA3229
:10254000D0781C8CD6D33A3F4C51F308913EF8D248
:10255000D508DDD1417F11CAFEBAC504CA5CC301EA
:10256000EB62EEAF1068FCF04A08FAD4BE05049C9A
:102570006F679B31A80720C9CA58EEFD9F030079F9
:10258000BD8AE971E64FBCB9A390D57FECA431FFB9
:10259000C34C1FEBFAF4BF1BC5C30A9BAC29D8F888
:1025A000EBCD86809CD19220087C22496F513081EE
:1025B00024A712B20860218C856CE501E4B484EB99
:1025C0009F060889EA96258A22239FAC1A40220C8E
:1025D000011D71DFFDFE7A3208EFAEA16D303010C3
:1025E0001768629844976DAE064E5D39653A186B70
:1025F000F3E9F328DCFB60E09320C84D6048AE812E
:10260000A5AE29E5C08D0C5D53673BB7C0010C90AA
:10261000BE14DA1EE0F3B718FEE960F9E47F8463C4
:10262000ED483CBC0824045439B4C8FC54887E01ED
:102630001022CEF8CEFB3485D8E3130A3D4801883A
:10264000E3F3B3A10B248CD20828B8FA4726F80983
:1026500006C10810FF1362042C84D149B0896FD5DC
:10266000A3609144CEB6B1107763A0916820066E46
:10267000BFAC223EE031801026EDF8B4A1402280AC
:10268000191101A9CFF8E0468007F0FC201EC00315
:1026900078100FE0003CA00EF15063F33909E6B367
:1026A0003C921960E056D3B445C083E078F3170E2E
:1026B000D3630F60E65CFC80EFCFBAC0F704032061
:1026C0003C8E840130D3E3C44603607FD972FD069B
:1026D00071E0DFCFA083E00D00F399F340C6AF08AF
:1026E00067D930F9E01005DE26C8C09F825C9030C3
:1026F00004468BC0199909F324B3D849388319B01B
:1027000008BB86F7CC230093DEB188B3F20B201010
:102710002C9F9766FB7A9840BC98BCF92F492221E0
:102720009E30A412001A4ED1F2452405A4B2B3245F
:10273000D5F83247BDF122773E2524CE1006F3901E
:1027400008EF528B4221046CDAF9BF25984610C677
:1027500003BDFA6E19B20C7D9C026DA608BD3464EF
:10276000364870F9DE985EA525AE0C17FD6D43C0A6
:1027700016BF217716326223201DB214802F900CD1
:1027800016DD2AFC0B4519EAE005F69858509CCE58
:1027900024040575E766FF48210896840E25DA1C97
:1027A0001239A4BE48FD8128340516C430F6230A28
:1027B000EE8C7F9113FB8049200116CAC00204FFF2
:1027C0005F2C84093386168518CA1013826CE13198
:1027D00022FE1DD2062601396E0B61023C890910CA
:1027E000491A8151AD621D6B4C09B1DE98F788071B
:1027F000F1807A984007E0413C5E8B00DFF383EB89
:10280000981C10F7983D88054763796B12E0D3F464
:10281000FF666B200FEB3C2FE0F9847F9A9878A538
:10282000BBA9CDC517F3107A9808CEF2E5DB75FC8D
:10283000988FD36BE006C2CE5E06C6ECAE6897B149
:10284000E47A9811E7ED8045309904B3201939F303
:102850000104C667FCCCF526B02016E6E78BB391E1
:1028600099862858F3BF62FC1122B8FD02C2322EAD
:10287000A23B30DC988824C262685FF3E69823B9F3
:10288000E284BD5D4BBB12983045220EF0981F5379
:10289000406008205A148D34F8B5FEF3D15F3F989C
:1028A000C5B88693E6982BB0011B7898B57DDDBD41
:1028B000307564DE98BB072537F4FADC26AE83104A
:1028C000D7CC98FF51E4C0C820C4141263E0D737B6
:1028D000BC1CA98740B3F0CFFE24F0A00640AE1484
:1028E0002E30CDCA84DB09DF7F738588909601D9AD
:1028F0006E7D7525203042FE988A03EE1330F3A1D9
:10290000409D82A22480137BB3FC84831109F54689
:10291000C24410F17F782C8485074A02400F03835C
:10292000D66020C6E1B322349DBE7FFEC9780CC4B8
:10293000D35F9C4C58818298F3C640F98005D30739
:10294000FDE0BB41973000F8A505E7C59AF3F030EC
:10295000B3D87BB1645E985FECB616E63088017C34
:10296000D30AC08278E7B0E881D3D0FE7717309AD7
:10297000F27AD284D7C4986515C2B6E6C47930100D
:102980008006D7C5E5DD2BD3C26B66D46B0CD33282
:1029900007FDFA7D2686C00298CFE04C801132F503
:1029A0004206C422E7C57E78450D059FEE983101A9
:1029B000A6EFDDBD93E598D90A46C69809D361779D
:1029C0004C7B0458F85E989C80E30292AEADD041F7
:1029D00020BD53F292FC40120201852008240DFA1A
:1029E00023F1FF25D710059A9866C80989D3A984D1
:1029F000F74240020C6403EDA4E4F93A40D3CF98C7
:102A0000D40202776DE5DC6F46DE6E5B24FAD503F7
:102A1000978808E5C804E36BAB45A027963060CCE7
:102A2000C74010DCD91818B330BE7FB6135EE8B3C8
:102A300037DD0BAE8420FBCCD0E43837A8FE1D82F6
:102A4000C1305FDFFA8830212283C498D6020BC7D9
:102A5000DD12A059E388FF2A1E34052201BB37107E
:102A60009409ABD3A7A2548A040ADE2280BBDD1BE3
:102A7000FDFFAC26C12890EB00A360E7E6DC222630
:102A80000B2810E2050B611ED350B008CD1519A01C
:102A9000E7987483633946CE10311B06C4150C7D4C
:102AA000720FE0F206B9FE5EA5BBA0D5A5C8E7A5EA
:102AB0007050CCD0F2F340369E8B6C6E6C5E5C1026
:102AC00034D301E0765D9BE498C6BB0A8930C60C1E
:102AD000255666BF1C30CEF901310806C1F32D968C
:102AE0007850CDEDFE85DC3D01AE40A8EB81302075
:102AF000CF6BF398F3AE69A5FBB312AF273082ED2D
:102B000008309C02E01058B8C2B341D366B3B38119
:102B100001EDA64BB3219E938410308287B38F13AF
:102B2000625FFFFA21300538FAF79822201069CE4B
:102B30003041248936C220EF0898BE58B93011665A
:102B4000FAED28989D1402E2654009E07D37732371
:102B500098408D42081CFD5A201101224099EB98A3
:102B600080847AE6AEE23282BF864065F8DD80F28C
:102B7000B8D9DCE6B4AFD1D38894FA50B97F053028
:102B80007F92C89A80B61CBEE9E3E856FF0A02CBE2
:102B9000D45F06A3E3DD98A605811414AE4AA6818E
:102BA000E49AF890332A5FC430E3E0900112EB42DC
:102BB000C2C098A2C2ED4A85AA6642DCB3B830E42E
:102BC000BB52CFFB0DCF32924081C08BE804102165
:102BD0008A9E7B42FB84417C7746C008503D0B6057
:102BE000304C0511E626175057FD4E0A7CB120CE19
:102BF000C82EE6522260D35810E00E9450306B136A
:102C000082DDED1261226B653201E2C8FAE02E5FCF
:102C100030F19FD51003E801EB3C900539BB44002F
:102C2000F3C90FE2F3AB6219C8CE07F4E040028E9D
:102C3000E0F79803F080CA0AC0D3F17EF3EB0830C6
:102C4000F9CDE5B2D5BFA841BF30852380797B059A
:102C5000F36DDB6C017E3C30D3F5E082CEF3C22015
:102C600014578E9CE5C6CE79FCE02022B50218BF31
:102C70000561E37D304226C108FBD63DB31130210A
:102C8000B166B3B35130ED1106C417B34C6F2912BE
:102C9000C0C00208EF21700A6F99B8FAE630080246
:102CA000ECF8D52449A20187F71200CD1A40D221B1
:102CB0007A9884DC66DFB3A934730838F16001F2D6
:102CC000047B19C613D200F042401049DDE08BF6B8
:102CD000B4FD5E6FC880F1A18667756C95FBC40674
:102CE00072E50073510CBA7918FF59B2FB7830FCC9
:102CF000BFC82FF4F3B8432138FF5170C1FE78B537
:102D000088CBBB62DAC97BC22B5494301843261897
:102D1000DA9065F5C8E965C13DAC11810803BF1BB8
:102D200085E9F9E758FB980501CD1226F38ACBAF68
:102D30008CBDC35B5C303EE446C1081037A3601411
:102D4000FC2C84093140C4D39198D1248C36522074
:102D5000E6224E73C8260486021E602D806835F375
:102D600058C0040CD802940117FBD6E9F97DC8902D
:102D700007F02065D5FC3D9F1C7BF0401E505FC9CD
:102D8000CA0FE2E6CB992FFD7FE4413CD9C869E444
:102D900098C6FF8805F4400AC001180E0FBF022034
:102DA000D958F85C30AF0C9B1FFAC46F2398905F22
:102DB000160536DEDE7759675E985C305A537BC65F
:102DC000089940B3AE05E5300473308C90D701B15B
:102DD000EB5F02397B6024E096496776976A6F9EC5
:102DE000863FB3DE78312246C11190FC0904822C63
:102DF0008821FEA6A0FE20910402BF7B92417B7039
:102E00004922BA308140E630604123BD9834B68211
:102E1000E37D5FD7C323A7C224F482509B092B0113
:102E2000B29B171218525E6B770223F722D8FD80EF
:102E30000B88CC5F779840301065C8B16FB26E0CCC
:102E4000DB8D75FC98DFABE88DD1BD7068B8F8EE0E
:102E50008F03E230DAECD23D35BBF79830A0086A38
:102E60006646EBE216936F3A03FB24BFB340991614
:102E7000D6119205DAAFC7FC84D380A0C258504D5A
:102E8000B524846B1F02C8F488180842BA5FEC6D41
:102E9000FBCC1476B5B0203A60930152E50A4C6D34
:102EA00076374041BD9209D30A9E7BB8FD84850FD9
:102EB0000926C021E0F5236002EF98B0100601005A
:102EC00045EC98222C3C4830B3DF1CFF824180AF98
:102ED00019FCEC10026084204A8006D9BD4383BBF4
:102EE00060C7DBC640FCDDE000CB3020F83007E0F7
:102EF000813CBB80DA8B4802F398B830CD57FFE0B5
:102F000012101E0EBC9813F930059770F3795E7895
:102F10008BECD340FBAE1630A0BC50BF08E405F3E9
:102F2000B35D88FFE0EF9526E0973608D36205C6CB
:102F30007130DDF1FD68FD8045100516C057C800F1
:102F40005D0B3104F416C22098D35E98B645CBC809
:102F500027FD82310A1213C693044CFF0220302150
:102F600026412808727980EE6630D0FCE086BF26C4
:102F7000025E98816849F9220924C21471C0824016
:102F8000BF62CC98F16787BB804DA032C82A5668D3
:102F9000906BC80BCBEEE67FB3FFFE3F6537C86191
:102FA000653B020C76AFBF60362C5ABC12ADF809F7
:102FB0007C98BCBCEE3530CCC803B45C4BE1FDCA98
:102FC0005F3F989B308120C4D3468AC15944E4674F
:102FD000C5AE80AF175D9818C668DC6EB510524953
:102FE000FCAB858BF7D59860E498D8FAA6C08880AA
:102FF00002CBE3CCD3DED764289E98F19F52FB4CE2
:10300000080531E72286C0760413BB0CD06B02EBB7
:103010000AE77F4316C139E0219350E02C84116305
:1030200002267522802093E8DE44208C3535B36675
:10303000A888050E03881AE0755A8209DC3F8102D0
:10304000E1B21360A2DD5F06FC97C8F23018181DCC
:10305000E0803C7023AF160AB8BD980CDA20052D2D
:10306000BB905FABE8413C80045E986BC730FB6B64
:1030700006C8CE037901E08176D3E8FC47809877D3
:10308000A6A531F3C45A36F030B543EDFD58AAB3C6
:103090008CBFA20479561FE09BBBC1BF9F6129FC76
:1030A000C608DDE9F8B6FD9E9848D4841F30420278
:1030B000C008DF1020EE98210042D5B30879B3FE96
:1030C00065A322F5DF932C82413008E226C02077E9
:1030D000052360E76102D880FFC6D6FF04DA1563D6
:1030E000A7E0B5FFB8FBE59BC582B78579C39CF324
:1030F000672CCC22E3E02DF3B080F9C121FF98D8F2
:10310000FF24D1669CD1638C39D8FB461DAC730477
:10311000ADED3D88FA4DEF3E5CFEA39C9353791CC8
:103120005B9720F59C1AC67D7F1CF8510519510745
:10313000BE984489C0962479B1C0F31AB1C6E8FD9F
:1031400018247ECC98EF3298B9E1082CF47CFFFD6E
:103150003C2296F242DAE62635F3B0FBCF3183B259
:10316000B92E7A849DC932085AF4A8F80A56D49028
:103170005B93A8B348FCCA594C40FB8D4AD6015A10
:10318000F930FEC9419BFBA8FE35704069D637B9BE
:103190005367F4AD8EE0F39FFE4982696B2010AB5C
:1031A000694EF86DEB78FF567F248B91824D347D0C
:1031B00033BAB6E4C4FF1F416436F550FFE435610D
:1031C0007FACDD128529908AFEC630CC5A0708BB39
:1031D00040D8FE8094F71243324B1037524AAC402D
:1031E000C5FF774045E8F744851A86028F4D4D4B61
:1031F00021FA812DEA6805196DFFB90644819FD730
:1032000014DE0504B1400F2F98ADDB5975089F6A95
:10321000C80141EEE9BB48F3FF4028A0F2A6C6C2B0
:10322000800B4921F30328C00CAB34DC5402604B03
:10323000FEA539B3600305B602320602A0EFD070D6
:10324000C434A6DBAC601B17014CB04FF5FB8069A2
:1032500050E7248281E913E1F4600A0C43898D89E7
:1032600030FFD00387701880280D620F1848302077
:1032700006C24010FE0C0A900044023B4773C30A8A
:10328000285968FF478CA304682054FF9488E40100
:103290007153D95A6DF84341964029E24B31481792
:1032A000DFEFDB3523AB9E4939C56880FB850F9A7C
:1032B00022E080C920EDF443AACE0481021046F733
:1032C00069B6B71CADE57FDBACE5FD65C332EA2529
:1032D000FDF7C5B7192062DB072C34DE35B5F5776D
:1032E000D8B9B3BADF80CB33778CEB5B8FF85A64F5
:1032F000FB7A8901CBE1911A6EC646DD2248B49073
:10330000335EF4FCCC323F56F804E6F67FAC3C0466
:10331000834A290EF894FEE6D069C1AA352002EB53
:103320005808CFC737F03185BE37106DB048FFCC95
:1033300093D3323D3720790795BB09028CC89E6C28
:10334000A9C0F8774FD23385CC1D539DBAD0F80869
:103350009AC05DDE7AF308F38131500862BC786D63
:10336000FB50F838CF50ED774B0310045AC9335E49
:10337000FA4DF2FFD5FC21AFD2FA770A8C69432CC3
:10338000985DBB04468A57B683A0FE27F6D4E61E96
:1033900025DBAF0420F5CC5A158976FE11DBEFEB67
:1033A000DA24EB5DD6D704319B2E06F27DDD6A4030
:1033B0004BCE013866C7F5084064911DC0B16AA3C1
:1033C000E9A8FC46E85AC380C732C98CC654896C48
:1033D000E8B0CED8B180A72DBF028CCFF3E233B6D0
:1033E0004EFF712A8F98FFC7F6B7B8FB79378F99D0
:1033F000ADC634ED7878FD8CF9FC8BACE608515104
:1034000010BCFAABFD51FB8068DEE663BE52B6032A
:103410005A6EC09B6CFF1EE0FF6A976F95F5B7D799
:1034200098F7A27D043B74642206D9A8598D43CF36
:10343000FA50B3F8FE4ADF56DC02726340F3B91368
:10344000EDDF20CDD8B4FA19E742CED4F3083748DF
:1034500065F32B12FDD51496F2D868F88F6C868030
:1034600028EAEE32CF1B86A0FBCCF45B965E1013ED
:103470002EA9107AEE88FC0241DA28517444F2D960
:103480007B6BF7177DCFBAA710CB5D0D14F15B9E58
:10349000EC594F6E8C4BFAFCFF7544765B1276D973
:1034A00084EC890E1023D0310ED1C140C0E46ADC17
:1034B0009442FDE44681DF01F974FC608364B298B4
:1034C0003692D87212E5B464BFAA9404FBEE0B40A6
:1034D000192C6E1691A7EF5F051180018B2250FF0A
:1034E0008C00182081294004C18501C114524AE78B
:1034F0002870E618D8FA3F34A90B80C0303F494203
:1035000062010C03FC732004068A1500FE40C21BF6
:1035100012215ED60C6BA0F207736D0988CC0241B4
:10352000F911F8730A60828091886641B6020992A7
:103530009E18789005C8FF2F4B518E040C0BC80BBA
:10354000F6E1EFB1B05E99BC0314E27A2682E5ECB5
:1035500042EBEC40D948F8FAB7A208E808E0BE7F91
:1035600001F3A2A0A650E022D8B1E0DE3F25DBF7B0
:1035700010488E4976ADE0FA10FF9F7A918058F19D
:10358000CF5E2FDD11A9F59FED705CFBA759A24618
:1035900029FB2163DB8C6EA0A341F93F967D086770
:1035A000AD4F24CDD08CBE73985AC0FC0CCF5F6554
:1035B00082D7639ED93ABC289D5DE2A653A7F01836
:1035C000DF9EBBE6B8FD0A539C13CD87088AEEEC5C
:1035D0002058548BE6F0FA67767140C7B658C61B80
:1035E000E578F917FDA2048F19B6FBCED958FBA6D2
:1035F000E83E804500CBEF805033CCA3144DB34957
:1036000039A6816578A876EBA31011FEC58003E387
:10361000A95E36EECD7B40196C6B340462A631BBDB
:10362000730C3B7BF630FF3419CF312CA310C3B29F
:103630001614ADC5C8F99FB6BF7E5B019863F3FF52
:10364000E8FFB420CECF02103C0C198CC9E40680F0
:1036500046B34409898424626AC08269921203A431
:1036600001D62084CC5ED61AF0D06C818DD3D3A83D
:10367000FE6536D70C02DCFF636B22407D571110CC
:103680001E9D307B6E98FE7AEA2069E9C8920FA4ED
:1036900060F506D1FC1ED9B9129FE814F0053ACEA8
:1036A000AC60013C6BFBF244BEF6D37E40CD98FF8C
:1036B00073E906180A887BBA61080D979F266F2860
:1036C000200903018069E6E877FD5E461410880C46
:1036D000DE3990D1F322866BBF608406289BC6B08A
:1036E000FEFDDAC4C04298E6136140EF056BBC46AC
:1036F000C435A6D1890CB3883E62301210C024298B
:10370000D91F2180F14011310128A0A04FD3B082F0
:1037100005013482FB260F07F03063C82178FE03D1
:10372000E2010D880721F3FCD08078400FE4B1B0AE
:103730000F4CE53CD332090EF839340F28E030D372
:1037400091311EC06679F3E09ED3F0F88081941920
:10375000C013C90362FC7387300642D6F34E9C66E1
:10376000413003102266D300E09AE040414DF3A2BD
:10377000F310C9D384C6E508A8FA5A27B3C11311B8
:103780000B715C7A7EA681B3E91064B305D8B020D2
:1037900093B3C882CE0809B3248C0F043021BB46F2
:1037A0005E184360110880C657D897980C439592CD
:1037B00040F90A080DF3E7848026B001408A0A51D7
:1037C00095E6A9BEBEF18C3204EC80AF3998EC428C
:1037D000779FAD9DEAB8FA95D9420C65469723FBD1
:1037E0003C0C6CAD70B3123D98028980046DDAA573
:1037F000D8F24BF97FFC5F11BD58CC20DE02F2D924
:10380000627B9CC0848166789858B01218C62B479A
:10381000E2A8F888FE2130C280C008997D966842EF
:103820000C80FDDFA110C2A8F64C8101B17FCD3222
:10383000C320BFA6988115A2E0D2A5F37E45857569
:10384000EC1AFAE13EA0067A881005137F020141C6
:10385000201140C1444D6064027E7281C47BB30A72
:1038600017C820B89019175011B1022644B107109B
:1038700001C5028C4FCBB0FDE0419A3CCAF1F6D2B3
:10388000035A18B2E0906B0C30554B01E998E239BD
:1038900067775CE081B93CE00EBB10D798207A983E
:1038A00090EF6B983820C998E1FB5EDF3B66C02043
:1038B000BCA59253416C4AF3EAF38BFC98CF59199B
:1038C000407E985E6B776BFE03F435883AD0E9F85A
:1038D000CDF953C4085804B315FBC3C684C043B321
:1038E000D34C46997EFFA309304146C8885FDC77F8
:1038F0008198FD3002064000587B98422029229F83
:10390000FB5FF9A481FC9AC9FC0A889DC0A490F5CC
:1039100004028140D14EEC2043C94DEE8241D32DAB
:10392000403C9823F4AA9DD3128122D95FA3FE7252
:10393000823332F7B20846A82BB74991D3D81EB0CC
:10394000B564EB38D0F92BEB8B6AAEBEFD5E0F741D
:10395000D1C0AFF2A51E4D207AB808CF1719ED9E41
:10396000D3AC976426F9981AFA730270FBA624E781
:1039700006C8BC9862C321C584D0A010FF836640EE
:10398000FB020CA10905102EB34030C4E711084317
:10399000AB2C803286C05F94B30B1577BE98E0FDE8
:1039A0008411B1E4C2583C13610E8C8185BF52C2B0
:1039B000F522580888FF530290301266695A724AFD
:1039C000B29001482109670241B811010F46A006D3
:1039D0005840EE5F9B734FFEE0AF0145A5F25E9845
:1039E0005EE238F33C88AFFC0278AE0CB3D1886657
:1039F000E080D33DD30FB924F39271F335D3E44182
:103A0000EA62FFE23DE57D40FE985EA579B6715D14
:103A100075231BA91BBB2F5E852FE0BB57973D4825
:103A200025F3A0D37A984021D31CD2F6FDB32163AD
:103A3000E008E70903764C885D84F322C1425828E8
:103A4000643B0C805110F59811DFF99F28E0136258
:103A5000244C8480BC11BFCC01F503410248B30F54
:103A6000CBFD1208B83072FC4250F74C04F6A66841
:103A700040100219B9C86EF7DF3020C130D7B1ACA1
:103A80004220E885F3F7F20C444177B5B678F9F7B0
:103A900027F1628D1BFFEDE31A81A8D32091D0534B
:103AA000C8779198FA40E9AF1163AB758E2FA4F0F7
:103AB000FB663F2DC8D4B8F0E37FDC5F7AB5B25C1B
:103AC000AB084895F89DC330DB48070B60BF08EF93
:103AD0009CEEF32302ECDBC8B175AFBBA70830AE98
:103AE000053F3079F38188C6AF4088CCFFAFEC1832
:103AF00098DAFA5311FA169EC1C5082060B3C8813E
:103B0000196ACF24835DEB824C8D30BAFDD9AB03AB
:103B1000A6082AC802BDA550D7440CBA982120A1F6
:103B20002E183F743A2D58FCE55DA079FC7AD279C5
:103B3000ECEEC81CA0E330FDC5E85E9866A666E121
:103B4000D38875E0201EE547C55AE7987230C82B28
:103B5000FC5E77ECF8FAE6D5C012F2A5F49882B2D2
:103B6000F3783059F3FAFC02317CE0C2401804804B
:103B700066BE3DBDD8A424E4C6A26A2CFC92FC25F6
:103B8000D254E02C983F8B60022C70C0A5B3E41394
:103B9000D97BED45302156BB14C9AB05D3F916C00E
:103BA000041801250E8C2711300959C8316443319E
:103BB0004188E709E238FE5E985A4419D9C80329BA
:103BC000282F04E66E480A5DE496C87EAFB0101355
:103BD000E0C3CA429720F7F9E90DF3A54DCDD3A86C
:103BE000FF1BDE9137C3A9269BFBD30455F8061BA8
:103BF000D3F83B37F185E2A3F452F366F9E2102DD6
:103C00007B3C41E0FD9B09F90333D63948FE996CB2
:103C1000B481590F2FF3CAC840F311BD0C6FFDAF2B
:103C20002425D2A39873300820E68021307CC09AE6
:103C3000B52261CFC891B0206BFB8650546628DE58
:103C4000D305E09D13818128F9C849430BDAE78C3D
:103C50009011F872F9AE84E26F26C45751FC3F40D0
:103C6000088085E0C010024498A60B308245F32BF3
:103C7000332625EE860642800F035044C22C02F301
:103C8000310A26A4B11049502CA7F53001A0FA97AB
:103C9000C877B11ED05EA55E9859BB4DF3C0836650
:103CA000C8605939DAAD4AED882FD343C249771736
:103CB0007A8A98F3E523407B6B3D20CB70FEDEB221
:103CC000C813B8305B887030F5F361100CAB15A0E9
:103CD000552140A95DDE6B01CDE0835011B6F3DCC8
:103CE000306BE16BF81039FC1B50B08EC0CFC810A0
:103CF0008090CE09B0E0C128E5A60423E032353635
:103D0000B32F109FACA7C4241802FA0B20122C88E2
:103D10002EF39F64F31360242CE082050072F0FC04
:103D200020DEEDC1C51A2075E54D08B57D1569E0A9
:103D3000FE985C43667C3A0DA02117EDEBC744CB9F
:103D400098E894F3F7E40C044177F61DB4FCA2D292
:103D500073C315FF01C753649B77E7C0B0FB37FC03
:103D60003CF35DC0035DDDB26891D8401BEC9DB7AC
:103D7000D63FF82BA58DDE5551B2D5CCFD68034258
:103D8000FB96918046F4060866CA2061E13BD1F8B3
:103D90009F19215F60204CA109DBB190E5D09610FE
:103DA000810253922024AB31C6416C566B01217CB9
:103DB000E9126BFE38485F0920C480405D248914F5
:103DC00082C61101844670A510202114B83ECEECA5
:103DD00062500F0626C248F980080B5444DBAE90AF
:103DE000CAB0A0B6D6BE24803E91B00659FCFCD61F
:103DF000C830C5ED871A0F7AF3F1B2BB02E330B8D1
:103E000050D8BCD5F8E247E0F998759FDE78ED9080
:103E10000791329B02F05E3BE8FA5F08A5BDA52042
:103E200077BBA50800C2B3F56259BB5C2366F9E510
:103E30000BE0FBFC785DA1C0031A79987EA4889FF3
:103E4000C641FF8005B0F42046C144B3AD605302C3
:103E50000146C0227FBD988C884930B2B40CD91974
:103E600081C73040AFC47AA50324108CF78B41067C
:103E7000424EF343600A52F3A608BC981D21320A51
:103E80009A40F4109120F0A410F218883BDBC398FC
:103E900035FD8802B68C15EDC4D3D703D34280BF5D
:103EA00010C498B3EBF3681230C8846D88BC985185
:103EB000B6FA9FB2F2B3CCD5AF042C1002CF2D9836
:103EC000DF0F81F31FDBC880F8BB6E077E6BF551F7
:103ED0008B5DE2D9B6E53044C6D4A694ABAB419035
:103EE000FB341765DB58DDFED95D742BB78896B3BC
:103EF000B5AF84914153D779FE110B6800E9A4094D
:103F0000A1468838E6A2603E2CA009B1C8356E2EC5
:103F10005E1430DA97DE4320F3C6408670638E5D10
:103F2000E796B0F8041F3012E516C0425367328C92
:103F300001F304B0084602580CD0668206B38C74B4
:103F40006266ED01E0C49EF81054444C2069AFA0B5
:103F50001298052169F2678101E8BBFC8030DD31F0
:103F60009CC858205E60013D6F0C32E1300C4BF371
:103F7000083F8E30E003AB8E3DF0980FF198D316DA
:103F800079EF4D980D56FF0BB609F85DB813BCD20A
:103F9000B8C8FE3F238C30EDBFE38D3DBC9897F34E
:103FA00008F8985C6120C42080EE10B8FDF7DF4669
:103FB000C888FB1821236012B3D50194061ED3A62E
:103FC00064D341B00339B32134E01619E3110B2255
:103FD000DD0CACCF1648F0B3822240EB8CFEA90278
:103FE00008FD206BB481FA629A50FCEF80F375A44F
:103FF00090149A03F1401208022C2447928B0496E5
:104000009BD312436E4A302039EA63F36C99E598EA
:10401000FCF27EAC0708DE5E56411E2CE6D5E98038
:1040200096D35F3CA142EE73597D772630F8EE3D82
:10403000BC8DD3C098BF7714F0FD95DF36B6095B11
:10404000BB06E6C008F39C7E6E3004B43B53686444
:10405000EA0EFD8421FAFA16C0089904F79801A027
:10406000091711200B4818C721409B087A05FCA1AD
:10407000CA515E28C57BE50910AE435730212B306D
:10408000108B30E8E0184F6819F90445C83012EE7B
:10409000595820BBCA224CCACD0EC27A69127E463C
:1040A0008C84513021D7C597E9B7A698318002801A
:1040B0007C72504480268B792179C821E2798481F1
:1040C000AAE1B8FDE0B5E43D03FC460F68011C80A1
:1040D0000A30C8BBB77AF1507526EBFF9055AB6834
:1040E000A7A6980ED349F2E0E38DFDA840FF03E0B8
:1040F000013C10D0FA007797D21FAA95ABCE2320AF
:1041000006C2171804021DE6F3DD17B5584AB38C32
:10411000D326C30A0351D79730A47D92C4C6F3C2F5
:1041200098FAB940A324F91805836014ED9F11EDA6
:1041300016C004182B13C88BF35A019A21ABB38411
:104140003FD526C820181188032AE2300679B930F5
:104150000AFC64240C8101B096036634FF6FD21E02
:10416000B3C216FFBCFFFF3FDDEB24EC6CE3F33979
:10417000AC22636CD3B8F906090BFF981C33668C2C
:10418000D171D3AB96FCF82A98BF086C52F3B114E6
:10419000FBACFBA571B6FEFB9E2DE240630B3480A9
:1041A000161DE0C618F9A84416A0511E4479D19EE8
:1041B0004C6AED79E0A82406C717EADEF9C123EBC3
:1041C000CCF67F80669E80CD2D90CCF4A50A88E643
:1041D000326E91E92DE4E95AD9F8FF5CE86EE219F4
:1041E0008DF9378A1C02B3A22088DBD5D79F12FC39
:1041F0009E74656EA36D962D4AB6408CDC4DAB68FF
:10420000B4F830E999FF016AA4641F1BFC728008AE
:1042100080782628FBD7ECD9255BB30291D2FC1E0F
:104220003D5D6DFD9D30FFB7D6D0592A62307BC60B
:104230007FCF8079AAA95ABBD6C8FD2FA25AEE0219
:1042400012BF4002E3A8153C6770ED357DF478A0FD
:10425000DEF620F720CB1EF760FD403B7203E649F7
:104260008020D8314BAAF41275B2040221E5DBE4B8
:10427000A2A732DB04F9B7B84159CC4CF1C8FED043
:1042800009A1E67984B8FF081CA90D856D00C13B22
:104290008A50C0BD87200261C43BB30481A636E1C9
:1042A000145058CE32BAE02817B00131302C33F810
:1042B0000B0A03D9A80CEFFEFA40A212D014111772
:1042C000B34430FF950A808145005052CF85481293
:1042D00006200CF68481083821FF32305482C01346
:1042E00048AAFF6770010C282011040CE1EF104868
:1042F0007FC812590849000EE198FA0AD104DCB7C8
:10430000C87A90A5F3E731F5DC9EB342D93D206B26
:10431000EDA378AA5A40F5F134EF10F9FA28E0DB62
:10432000F2D7D31B6F216BCAD667891ACEEC59130B
:104330000E828EFC2DF20809D09E9AA8F0FD3CA9B1
:10434000A48FE5375E3FBF2C5A6B882F80CDED3DA3
:10435000FBA719F46BD7801DED6D80A2DD48CA3B29
:10436000A6D2EB3866C68DFFC8A830CF33AADBEFE4
:10437000F8F937CC6EA0BC4EF33ACD0F567C015AFB
:104380001710CFD96B6667E6E620C61B1520A0D4B0
:10439000F942BC6EABE2424808EF0121EDB1FF9655
:1043A000B5A504DE02A7D815EE5863977646F0FC53
:1043B000A628E24CB3D86746F3621E4B4199198494
:1043C0001FF3F70C8008C06F60F90C7F9F54E62341
:1043D00067CB12F4141616494A4712E3AB6FED7C13
:1043E000B0F8CF81EBF75FDBED027576FD2565ED6B
:1043F0000BE1E4189EEFCA303719D5D0211B20AD50
:10440000C6204CA3FFBC5E75CDD37AD634FF27A659
:10441000C331A6AEE6385FDA0F755F6D96B1F09CDA
:1044200048B104BCA327443F5B0FE8FEB33D0279CB
:10443000C2B9528B692EB9E0E0E5ED0296B4019C59
:10444000D55F32714592B5612EABA002CC70FFEC06
:10445000E6D8FEA326FA3DDC3A5884589F0348F973
:10446000677E9008CF582A02A8E70677F6ABE0F9F6
:104470002DFD3A10018B7A4320DBEBE7EC92C3B3BE
:10448000378F7D31C583591DED49FF9A67B1109C67
:10449000B77E316556AE28FC031FFB471358498091
:1044A0008FB627B0FEDBEC09B13D6A6A12C95BD654
:1044B0004016229877DB0D4020CAB8FBDCD35C7F26
:1044C000085AF5C101E07A9B9BD97D988F7EFDFA51
:1044D000F3432C8C6DAF0C0C6F6FECC8E56380E47C
:1044E00019C26E30A008EB8D83F1313FAD33DBB9DB
:1044F00020AC3710B7A150FD886FF2A6F1B47C2B29
:1045000051D8F619BFDB7F9F1AC38BB2206D919EE5
:104510008505EAA6402DFB67FA90F9F21008BB0169
:10452000F013821A03C070E034A95BE467FA7B01E0
:10453000F32E519ABC36D641AA74827F4B3CFA4086
:104540000305A0B4FF300052478A4A21039C84EE41
:1045500085A083D342C20A23E5030205FFFB666EF2
:10456000663F6C8008050E2286C07F2E4101040C38
:10457000400DEB301514F9E25A5869FF68A8026043
:10458000C8F98003FFA08DD0243850401BCC4211C5
:104590008725FE15945104980603074548825F1845
:1045A00078BDBD7E04099F60FB58110155FFC46DA5
:1045B0004B804090A9B18F0814E250238013EBE8A0
:1045C0001C8104C11734B0A2F8A65B32207995741F
:1045D0009013FC9072F481DBED4C4EB314F227A3E0
:1045E0001DB7CB67576FDDB508B41C6608889E4DB4
:1045F000DFD50234064240F8406F9DC6107FCB37AE
:1046000088C8ABF9FCB7152297C11CEFE778FF0605
:10461000DDCCB708E33F1BED0480B6D8A187362078
:1046200084FC518519AB9E216799A28BBE1863C784
:104630004FEF19D0FC35F347E520658BB97B1EEBB6
:10464000F9314468A3FDB5436C5F366BD2CED39A83
:10465000CFAC3FCFECAF9F369DF34AD6E508FC7D4B
:10466000BFFEB5C648D0C39B17DA5817E16FB9B97A
:10467000197A5C57D8D8FFDF2CF6104B760C808B5C
:10468000B4187F00B4D7BBC4B8F819E55D01B1BF59
:104690009FBBD52013FE6BC0FCDC46C456602032A5
:1046A0005A67162E65D860B38D664008DB6CD85B00
:1046B000F6270653F3F0FA6202939ECBDB52729414
:1046C000EBFD334FECF20336EF053DFB624590D630
:1046D00094C61A10E914BB4A3CFB62ABCD0217F535
:1046E0005A8C8BFBCF38F9D7A001FE24D0085A1082
:1046F0006027410120F504818040F89603926811FB
:10470000006C47A7B2D346145BE977D1B2C67112E9
:1047100030F3230C2629E7341F78FE80BB01E12B00
:1047200059181F4B7ABD61E3131CF98CC66AF3BF9D
:1047300003D39230FBFEE0E0010C219D63E70340D0
:10474000209E813C30E9C2BC1EC00378D884E28F31
:10475000B236800CE0BBDD880B1120940363C6A544
:104760002181026BC242805BC64E193484269C7044
:104770004108048A4F1D847413871040A06868564E
:104780003071640C7329C00F18400B68D6012CBF20
:10479000242046D08218011F62027E735F38FCB865
:1047A000807FC50BC8036289DF05302016C4CF00A7
:1047B00098F302118CD88189874E9A8F0616FCEBEC
:1047C0009701228187C0092681A20B061144BF8769
:1047D00022FF48FF60403C900750E4000AC05AC6E0
:1047E000C460930DB0D4064083F00F602C3CEFBB47
:1047F00016F8EC03F2181EC877788CE056F05C1EB1
:10480000C037A1F304D7A8B69830089FB9B960396A
:10481000305FAC45B6FEAC0C840159E6CD19813051
:10482000EA961073D30C02403906A3C2D384F3D6A0
:10483000D7E64012CAE041BF158BCE60118941B066
:1048400064A6C1E03A83F7B0800931B3019FB31188
:10485000304023C2C38298F39368124C7430FF0136
:1048600016C02498A02162CC442CE631CD48FC022D
:1048700005FCBC9040738EC488341620127DCB4357
:10488000080A027FEA2409625E983FD31A61086829
:1048900084FE0DA0113500C01000905097895EFC79
:1048A00019DFB4F9E698DED24659E6C8572CD70C82
:1048B0009F099C024526EE780C88014B1925971913
:1048C00001124BFDFA0541B7A64B78E040EEC21746
:1048D000C0BF1EB5B282A67F6F657044FD11239BD9
:1048E0006A1D0844C6BF90D44802BDA26879ECFE98
:1048F00011D1A0A6AA25DF8128E49ED6334521F751
:104900009067F748A0053EC222C8048936082418DB
:104910005090C676F807180511350AE38BCE93350B
:104920001981F5CDF35F8262AF42472E02AF46FF99
:104930005F090B6084408031B1201EAFFC7F98047A
:1049400058084060214C3CD3B0004638023C082354
:1049500064AF7D9C05B2FCE04E3CA007FECC441841
:104960001EE063900777B098023AFE03E4011C084A
:10497000CEF598417B98F420980E8338D807E873D9
:104980001DD3329F20D30358400F3EE6040050F859
:1049900058069FA598408019F3C7699FE0FB9F6167
:1049A000BA6781C6B5F598823C3B39F8C004EF532D
:1049B00026C16DED120C09D3198BF820442C9011EF
:1049C000F60577CFCC864043C1F0020C05213012AA
:1049D00006338898D340FE8418202361144CE7C620
:1049E000A8FD20B488D254FD3714DED269C33095B7
:1049F0002080413B12D69EA0266BE942BF35448DF4
:104A0000A05134B882C645D20117EF5AB1F9989F28
:104A10009757ED4388EA6E30FF409808BF60AD912C
:104A2000C5E0ADDE9894F9C123B9C419103DE0E4A6
:104A30000131FC30A280B6ED2A3C9CB533BD0DE0BF
:104A4000243244D06378750201208E7376C88318AF
:104A5000B46400FAA6E0FE8448E1301EE4800290CF
:104A60009135E9760935E84440605D65CD20F09ADE
:104A7000B35C5DFF0A42D00248000B20CF84248E35
:104A8000128216EDC44298472FAF20FC2B53D71744
:104A9000C0FD7F7A9885FFCF7F58F3420440EC84B5
:104AA0001130FF2F98E7B94608D32180E360842CAA
:104AB0006B05B0639DAE0E4773588449C698A6FE39
:104AC000338007ED0BE97842E93B678312B0D003EE
:104AD000C53840462C21CF300DA003F0BF207829E7
:104AE00007E0B81DA07EF0401ED082F3AF1B5E171A
:104AF000FCFCF2F37EBD984101BF9798ACAB31FE50
:104B00007B30413010064F3FB8CB98C24EAE5A238F
:104B1000626F2FD0FD3E76310A26C0D9E0093BA650
:104B200046C1F9030892041939CE27B3ED12D022F9
:104B30005D91F8628246C4841B011692A623C65377
:104B40000C6CE8F8ED2004063C98D78D6AB9304229
:104B500059C80240CF6BB23492EB1726D5E04DB561
:104B6000758120725D1AE398C6043BC6A0FF35D25A
:104B7000016DE6612B9AC830E350BB84205E9842F9
:104B80000CF38F39E50F80723CFAF2DD7EED0803FD
:104B900041200CE0BC98DF8630F308CFF298459BAB
:104BA000015A6DAE82241CF68057728D83BD5E441F
:104BB00000E4C6F8FBF325C73071201215C185BA91
:104BC000FDB830338BD4ACF4FF7DE48516D4025AA3
:104BD0003C3F100488804E841644183408D4A74CF7
:104BE000FC12EAFC020547EC69AA9C44FC5F320A0D
:104BF00026EFF1200B41BB10D698027FF37F3210D5
:104C00006D843EF71340122C90D3427FC802582087
:104C10001061CC212CE530CC35FE463D0B07FF7FE3
:104C20005869E6989C3073A3803CB310FD981C270C
:104C3000E0CA1EC4021A1810E412F3702E0EC0EC63
:104C4000D7BB64762D60FF4F8998C5F36BEF9883CF
:104C5000401008B1826E3F30D4782039B53156F318
:104C6000625DC8FF43F88091B0DA08467998760D06
:104C700049F7D398080BFB60044080293DB3A0FF9F
:104C80000118C246D1101A85032100FF8490041038
:104C900042466124844CBC98FCF0C8B8FA205BF012
:104CA0003025F88D05223B853068DF9C46FC7FADC2
:104CB00098C0329BED2F03FC910610021B41A2FC11
:104CC000C2F69808FDCE35D1E5300189F1301B19C7
:104CD000E59BA7EBECC4CDAB326373FAA8FEFC0DE9
:104CE0005C30A540197A7B858130CAA007E0E9379E
:104CF000E9625C308F4020AE88AC2E95D53BE58BC9
:104D0000EBE081B667BA170D8066B1FD57611130CF
:104D1000D908A0E76F209ACDAFEDFA848867C81054
:104D200001F816C04898205B6002BA0A2422F8CD28
:104D3000880411026EF8E30245FAA305FA4FDF7FFB
:104D400022D5179FC858101362F6204C90917F808F
:104D500098CC08B1FCC18D650BD00111F39C5FA606
:104D600042581E206104FF7098C8FFE0A03C37CE77
:104D7000C86081B41FEF2598460F72BA10CFEFB10B
:104D80001CA007FD30801EC00178CFF33DA003F2C8
:104D9000020E7DF318400F627F9598FB2EBECBC8A4
:104DA000379A301083FB8212CDC88179C575D1B690
:104DB0006E9B1070F30882601FFF23B0FF8021ED0F
:104DC0003001463910147E5FC89ABB13FC31845DF4
:104DD00032089FF2CC98BF8219F7889160216FC387
:104DE0000203ADC0519D093CDE98D790FEDB2AE757
:104DF000C885017735305002FED54C010DBE54CE2A
:104E0000FACCE03DD8C0D01F825003020C5A64FE99
:104E100005C006C8409A60050113C2C644F89680D2
:104E20007C766EC840070C0C46167E8A6273E03DA5
:104E3000520839F3F15EB684F698A0FAEE2327E023
:104E4000F2C8EE5730908A98CB23B7F338B403B941
:104E50003D071934C802108B72BCF0E52A787DDC5E
:104E60006FC938FAF988203404A65B20FE1DAB8890
:104E7000047CDBF3D10299426611A50CD4059C6633
:104E80001F10A11A489AB8010A7A7C10220542E53F
:104E90003311A74E19E573FF0AF83F36C49E98EB0D
:104EA000088011F47F84AFC513615E14D93006CC3D
:104EB000B309B0CEE0C2690513BC4B1780200A9835
:104EC00016A858BF0B60210C825E3EAE314D303CBF
:104ED0002610F9C85F695D44DD0190DBB138B93057
:104EE0002C67161A7FD59001704006C00E791D0FF1
:104EF000DCD4C003F4C00EC88D190F7671C8E8FD6C
:104F00002D41F8305F9AE598EB4104F2C8BC7EC4AD
:104F10003E7FBC98596C39C809B64EBBE269FFE3C5
:104F2000CD4E231DB39B19164180F3421459AE6731
:104F3000176633809116D8890B1169396990280C4E
:104F4000E313C108FB0209641086A625FFC8F79881
:104F50000881090B880438B3922021ADBF982CC872
:104F6000FF5698064B47C1BDC50172C6064F8C3B24
:104F7000100A41980DC2142CFCA3C819D6FA612757
:104F800097C80033A1C4E88364ADD30173C8C8BD1A
:104F9000FBDDC4710672F948153079B876170396AF
:104FA00057E47E50C8C8ACCAA4D5C670BBD062BB9B
:104FB00072844006DA22FADC643330FCED4DA02620
:104FC0007B7F1110C10124A120E193C0845A8D4040
:104FD0001221CF5904EE6648B0A07AC52418515664
:104FE0002A2C7A21050280D42B904B0A824E78D04D
:104FF000F9848110211FF27FDAFFEB7F2044D987EB
:1050000013617CE1880531B393B305BA26CEC24261
:10501000761304072082453CEF268004E2DC2262FE
:105020002DD1F610196D63BF00302BF3C6983E1ECC
:10503000B830EF6CB83C20FF2C98A59BE0D0D9D5B8
:1050400048C69015B292BB6379D3E2411CE295FC4D
:10505000DEE6C5A27E66E3F7FC98BDC582B1817C21
:10506000EBC8100389F7C620C506C2EB18080295E5
:105070003084BCAC30FF89BE09BD161920A20AB32A
:105080003BC03E24A360808C592CEFB3C0403090CD
:10509000F0066022187D0368044D7F92024280C0B2
:1050A00070C611622E4CDE5F50FDB977803AF9442C
:1050B0008AFA41D58D0572F51266CB43F404B2C865
:1050C0002310CA7BEE05D480B522094538AB70C0E9
:1050D0004DEEF68221CEC860FADBCBB2CBF9370EAB
:1050E000401E81F0B1106F239819F2C88C199246B6
:1050F0002C6EBC7BCE8669E0214CE071319BD0D315
:105100001EF950E05EAB67F898AF8E60981C8494EF
:10511000166E5E8B49C5C018446154E450FB20A054
:1051200055C8304107F70A4C7F380FC01440725001
:10513000A39656B4BF326F9F2688843082FF2641E3
:10514000444240A36001CD0D22C68838B658080BF2
:10515000C6AB229E1942FD808960A720B96660C255
:10516000814CAC05E7C8C018E01364C78280E30532
:10517000022236366EE0301C2220C0892D109C029F
:105180008E8891CAE916BCF423602419EF300AC056
:10519000F298F4C50EBB58D9C58004F3AFF2BBE951
:1051A000707664253CDCA966AAABE8B39B01D77492
:1051B000409178E07FF9A007FEF0801EC8037A4096
:1051C00002F16B6FBFFC8B7DEFCCD6BC80815AF9AE
:1051D000727061FE0A50D5B3506AB35B835EA5BBA3
:1051E00040C698E088D38F3014F35F8ED2A1F9CDFA
:1051F00002B83DE01904E0121997E0983CE08C9069
:10520000093266DEE3B502621928B0FF2640081AAB
:10521000414360160D8EC6433C58D62362F38C1171
:105220008111FC018D99FFA5B3F6C4471901EDD397
:1052300008F993B2E3D5CE31F382A233FFD8D3A0DD
:10524000F90C121DFF98FF248546663839C4FAF917
:10525000609066DED8FBF946A0FE652CF39F3358BC
:10526000C06636317316E0A0FAD831FEB5025BF3A2
:105270001099F3FD64634C1711FF4608FFCC5F7F64
:105280004751695998C72E0B33668F6735045E17EF
:1052900004450284E1C6D268D3D9D0FDC7B89EA622
:1052A000B42CCD4FF6CA0183C3712069F7BC2FD946
:1052B0002865EE58FEC9B07CDCEA03F3AE83B15A30
:1052C000CFDB4A108B885E29E8B0A2FD67DB4F3840
:1052D0006523183FB58D16FBF1206CA4A501F7F8E6
:1052E000B759D9C68230B4B601FBC33BBB6008FFD7
:1052F0002CBEF0AD46D640C5069E4F20D7D46A449A
:10530000B8BB09EF45D3D457AC18FD804255F19591
:10531000DB819B2E02972121EAA310C5511504D9E8
:10532000284A881424A4D201085C4170BDBCF95DF0
:10533000A456E07ADC888EBAFDC0840BF3813C145D
:105340008889ED1BFE86D4430A0A8D850A4C7E218E
:10535000FA73EBA190A0C008324970B82C8338A52D
:10536000C0229154CC4D30284816A47F72CF280417
:105370007831CD8643B77002CF2860F33B80083E7A
:105380007E1230196404099933662CC6FCCCE031D6
:10539000B0057F9CA5192110393A85809070D40DF5
:1053A000113B41605235B340E21801045D0A9FC9C8
:1053B0002120080103740CE08643227F80312510F0
:1053C0008C019CFB120B20FD0AC94619017F883411
:1053D000B38DFC06587EE78CDFD3A00282570FE224
:1053E0008D0426C628F886104F415F53F0C74068E9
:1053F000D62FA6F87F8C538FC7F919CBA301B36FB3
:10540000BF5BDB56E4F9283BE0C38CB3803FEE344E
:10541000E92FC71A088F77FB702B9B5528FA8CED64
:105420002959FF802A040232B5B58F60B3FF79EDA8
:10543000056DED002018A1DD9DF47D6267EDC3FBD5
:10544000F3456CF6CC29D6AF39D45F1867FF5E10F0
:10545000B070B32622D369C65C2BF6FE5BE904224A
:105460000250D1F6E8B8F851C48D6C3865C673C9DE
:105470001067B63CC8F8A67639E6AA28BD5F336B3C
:10548000F0791A2FB3FFE3FB3D4301799E88AF4DBE
:1054900008DA2DF2E6F119DA34FB06F36DBB06707B
:1054A00013CD2E118D2C6401B6598001DCEA69AA56
:1054B000FE9880467B56F6BF400271C88B7DC56D55
:1054C0005B93EB27706F5AE5099939FEE5631F7D01
:1054D000B248FE21BF8DF0BFFEB6CB415AD9018C38
:1054E000F57C17DC96F339DB61F0FB16FC3A10B162
:1054F000DF5F1650782BADD978F897D62A137657F8
:1055000040C4FF6D30B8FA4FC335FF209EA8D87055
:10551000FBCF2C02404D9914B680573A841D70A6DB
:1055200070E45066B304CF4E589101810EBE8B2AB1
:10553000BCB48FCEE60918FBD012C802EECAEDC883
:10554000088DF5A69DDDDBFCF999F8FD40E86DC6F8
:1055500076E53B639912EE9160F9CB311EFFBB3AC1
:10556000CB7DEFD634B5FAA836F7CE69D0F9F56E13
:10557000159C412CD873F61A0456ADC8805AEDE834
:10558000FF36F0114C8991618E7ED441D590401D3B
:10559000B03156E910C0B3618AFF40CC36F2F7E370
:1055A00098F9806717326F0D0CED84C08AFD7BC0BF
:1055B00029EC04C5AD047084DA30FB3D43200804B7
:1055C000811DA09E2E804020CEDB14552D10C7EFEC
:1055D000ECA8DED7201C20D312F5FF0ADCE040EE59
:1055E000C698FB3FED748642A0B8248BBA1D66882E
:1055F00022FB888EE0368BFA9E3FD765C8ADB39FFD
:1056000020109404E4E76A92D32CFFE6A6A0F032BF
:105610004004D82613EA2C7F1B10023640B212C079
:10562000600AF4012A280DE372BE30F4D4039CA36F
:10563000CB05160400808473F5804198B0268B0F4B
:10564000C870F36A28B085088197FDD66C3E339CFC
:105650004132D61842070C8280FC21D000664003FC
:105660004F946BE00567F86497A8267C400C1904FA
:105670001F03715B062662B8A91E1A1E4E1578D04C
:10568000FBDBE5EAE4E2C826DF9B50804012EB003A
:1056900063F881AD8419D3336E82FB0277B73D681E
:1056A000FF841028ED8E4AAFF7FDA2412FCE81F680
:1056B0004B1104F3C834B388BACC2B8D14BD4310FE
:1056C0007BF850FC66F0F0A3BED2F4A1C533B6025D
:1056D000B1808EF6EC18FE12FEC136BE0511ECEF5D
:1056E000B339758E026AF2D9BCFAFE282DCE58263F
:1056F0001001EC474BB3EDEF7EA2FFE3AB0420B803
:105700006A87EBFDA0FC66F5D7E00398E863B2E09A
:105710008D6DDF0718FD0A20127E5F0EC5AEB577CE
:10572000E53DF1C15C632CF7ED2E7F93CB6EDC057C
:105730005DC5C001028704A086098061AF3D1AAA39
:10574000FB623F0563AB63128C624BFAFD80F91775
:105750000F9396429EE3F36A341201C5181B8048EA
:10576000DB0810BA33D32B54AF6015D7C8A6156E1B
:10577000DF98A19298CF1783DE958378F3B2AAB50C
:1057800089E8B3FD4C1CB5A4048F722F04CB6C7652
:1057900080FAC30A7FD05D04837635B650FC5EED97
:1057A0002404087B4A286CB32C46222DFF33C3D631
:1057B000A810ED30C0F9AAEE12C68C7CFD2F91B472
:1057C0008CFBCA2FFB0870F99FE5249008414840E4
:1057D0009EDFEDCF10807C51641AD91104D9E6D632
:1057E000A0018E29B1825077D7810173E706948E8C
:1057F00002EECCA18CE6342D38FDEB4342C5FAE332
:1058000091DB3901BCD5CFD15A6E6FF7ABE8D7BD6C
:10581000B367023CF38201300DC8FAEB2E84B4DF8B
:105820009195E41E42C106C0A518DE8119D0E1B3EE
:105830006B05D4A0C0BC8A0CB5A50711A7E0490F21
:1058400025B338FA15D322402F10601224B68D925A
:10585000F18446E164C9D8040983B3422200F119F6
:1058600044030441F9A4058008061C8658E35997AF
:10587000B370B36614C176095B9DE58880118D21F4
:1058800057586B2360721B215DCFFF6A3011059062
:10589000C03AF9032010FE9F08F1264202584488BE
:1058A0000CB548CF7B800370161E704678202162AD
:1058B000D73DBECF401EC483780703E801B31C99CF
:1058C000B460807DF804F0400EC0135826E0CC810F
:1058D0000C19F053D30339E70E60B0EF10C8F95D2F
:1058E0009082F4DCF0948453A44DF30360CD461110
:1058F0001088F66205EDBF04AE5B21D32C674766C6
:105900009F95CF301640821830E161BE8C802930DF
:1059100008BEEDF7B38C8405B1303F014822FF1873
:1059200001A060410C8249CC000A25223821AD7FBC
:1059300025C081F810FF02842490188040129468DA
:1059400068905FF51F03405A46AF0D0AB8CDEC4B87
:10595000047E844010385542AC7F0121403C360023
:1059600006D4D385405785215AA01AFEDBD098086B
:10597000EC61B3802F2DD0BDDC067F5D439037C432
:105980004BC230BCBB6872829A4E0C7B40FEBEE3B9
:10599000BC98569ADAA8F062A3DD524D003ACD5D6C
:1059A00066E4EE98C120186EF678EA90F398BBF999
:1059B000035E98AFC0F7C7F8F904F99867BB8A206F
:1059C000F7120C9085F46ED7D391CB9DED10D429AE
:1059D00050C8A022A5471A410A20E3A45510FE7B17
:1059E0002122641101A043B4E243F88441B0FF16C0
:1059F000811018098B60089F2CB5321146C4AC8405
:105A0000E1816402E08221B3F7934839870540FBC6
:105A1000830960AD4178F5300140C146672008C672
:105A2000A5517F8371F8E0813C88F80370001EC0A7
:105A30007538EDC5013C78C505EDC578202CF30C13
:105A4000EF15E5EDEA98B04FD381190B68409F3C04
:105A500070F0200EC025D35323E620D7F8D7DC8082
:105A6000985ED281610C8688FFBFACCBE5A544DC93
:105A700088F8E5C96680CF7426E0FB31BCF1EC9A6A
:105A8000C0D30A77B92071FC3CB312C00418812638
:105A9000442189DC31B3F59802036AD2A4CECFEE5B
:105AA0001745206332C07A18010361F401009FC0DA
:105AB000B31008040BAF60E72140B048FB20811110
:105AC00084EB069004F80F6C216EF81C1F128858A6
:105AD00048025C23EC208184E7192040B45C305EEE
