:100000000C941D4A0C943C4A0C943C4A0C943C4A77
:100010000C943C4A0C94434E0C94A74E0C940B4FFA
:100020000C941E4F0C943C4A0C94754D0C943C4A15
:100030000C943C4A0C943C4A0C943C4A0C943C4A28
:100040000C943C4A0C943C4A0C943C4A0C943C4A18
:100050000C943C4A0C943C4A0C943C4A0C943C4A08
:100060000C943C4A0C943C4A0C943C4A0C943C4AF8
:100070000C943C4A0C943C4A0C943C4A0C943C4AE8
:100080000C943C4A0C943C4A0C943C4A7F7F7F7F02
:100090007F7F7F7F7F7F7F7F7F7F7F7F7F7F7F7F70
:1000A0007F7F7F7F7F7F070007047F7F7F7F7F7F4A
:1000B000077F7F7F7F7F057F047F7F7F7F7F7F7FBD
:1000C0000F7F0E7F067F0D7F0C7F7F7F7F7F1F7FDF
:1000D000177F167F157F1C7F147F7F7F7F7F007FB8
:1000E000277F1E7F257F1D7F247F7F7F7F7F187F57
:1000F000207F217F267F227F237F7F7F7F7F7F7FDF
:10010000107F197F1A7F1B7F137F7F7F7F7F0818E7
:10011000117F127F0A7F037F0B7F7F7F7F7F081015
:10012000081F097F080F027F08197F7F7F7F7F7F6D
:1001300008027F7F081308117F7F7F7F070C087FED
:10014000017F080B7F7F08077F7F7F7F7F7F080706
:100150007F7F7F7F7F7F7F7F07037F7F7F7F047F1E
:100160007F7F1C7F1B7F7F7F7F7F7F7F037F0810C8
:100170000C7F247F237F137F7A7F7F7F7F7F08110F
:10018000147F081908200B7F7F7F7F7F7F7F7F7F11
:100190007F7F7F7F7F7F7F7F7F7F7F7F7F7F7F7F6F
:1001A0007F7F7F7F7F7F7F7F7F7F7F7F7F7F7F7F5F
:1001B0007F7F7F7F7F7F7F7F7F7F7F7F7F7F7F7F4F
:1001C0007F7F7F7F7F7F7F7F7F7F7F7F7F7F7F7F3F
:1001D0007F7F7F7F7F7F7F7F7F7F7F7F7F7F7F7F2F
:1001E0007F7F7F7F7F7F7F7F7F7F7F7F7F7F7F7F1F
:1001F0007F7F7F7F7F7F7F7F7F7F7F7F7F7F7F7F0F
:100200007F7F7F7F7F7F7F7F7F7F7F7F7F7F7F7FFE
:100210007F7F7F7F7F7F7F7F7F7F7F7F7F7F7F7FEE
:1002200008277F7F7F7F7F7F7F7F7F7F7F7F7F7FAD
:100230007F7F7F7F7F7F7F7F7F7F7F7F7F7F7F7FCE
:10024000017F7F7F7F7F7F7F7F7F7F7F7F7F7F7F3C
:100250007F7F7F7F7F7F7F7F7F7F7F7F7F7F08158F
:100260007F7F072408057F7F7F7F7F7F080D070B37
:1002700007237F7F0713071B7A7F7F7F7F7F7F7F27
:10028000071C7F7F7F7F07147F7F7F7FFF1F627F39
:10029000C23C006088FFFFA0089001324006C8C63B
:1002A000001985030AF84414812241338AF320FEA1
:1002B0000365A00C982900CD7FFF0C948132600665
:1002C000CAFC5419280366A0D3F3A9C688009E98D7
:1002D000D364800C7FB948FA0014C00287580BF829
:1002E00060012C800460430ACD0270F34032F305B4
:1002F000A0E6180CE4B312CCE050DBC008286D1760
:10030000E05026D334D3B00416E1B998FC3164FF31
:10031000100C0240667AEA4004080C01206D04804B
:10032000A2E008CA60E4D8F9304866FF98FFFC20D4
:100330000604828D98917A80D2FB02D17E2467B721
:10034000CF20102DD30251E004DEEBBD50F310E0BE
:10035000D8FF06D288B601E3F156D00403E49F0922
:10036000F6F8100801412195F9FFC4BB1139CF05FA
:100370004009FBB8038582A9907AAFF835E14F694F
:1003800001D835800626BCC50388F44EC45234809B
:10039000E9060A05E6D3A044D4EDD3FEC71402D083
:1003A000FECD5C8730D079308899B726875A4D01C9
:1003B000F050FBA0FBD6EEF0AAE66064B607C0FBE7
:1003C0005D037036F6410824B4B603F08D0D568CEB
:1003D000C088EE3C57488B19F025D346CE81149146
:1003E0009368E341134E1914EA9802E6B38229E3B5
:1003F000708DD85B5428FB29098CE080018265163A
:1004000081D2FFD034F3B0D5621F30412B5FF72883
:10041000A6E2048660D1B511B4585AB3307FCC0F30
:10042000E4FC010CA0077020AE56A5B0AF3C8917C4
:1004300066F783160437D360419BC6202924ED1844
:10044000FC4DDD3EF9EEE5C00641F3AA4030C57F24
:100450007D187AFA8485D3B61AD3B61B20B0ABB315
:100460000477B32246C0A104B5FC461926B39D24E7
:10047000DC5804EBD3455FDA92237F320288BDFF5C
:10048000DFD06FFFC83489469023465F81EB9884A4
:1004900012F4E040DCE65A49ED45A0015BC60302D8
:1004A000C1706CBCFDDF9732C1F5DD19B57C866A81
:1004B000F8B7063FEEF614015FBBD310E0FB53BD67
:1004C000FC9BFFEDD906C4FD981C6EC76AF86898BE
:1004D000021CF59FC8FFCC6FE8982C5DC8FA08E6AF
:1004E000AB43B322407FEFAC68FB6911F3E5F9F948
:1004F00004721120FF5BFD220866D416FEA685CA91
:1005000060A0F47E1886CEFF429884625E986A27C7
:10051000D740045123A37437069E98DAA1F979983D
:1005200011DEBCFF5CD30572D702185E982CF3472E
:10053000A4B09DDF971EED6BE001C6C6E919242526
:10054000D9FC04678CFC72071866891EBFDE7B9C91
:100550005B9365F6522805D1AF6FB1223FE1979EBC
:10056000100B8FFCB960206249AE86FDBB90DDF4B4
:10057000480129CB86147FEFCC05B8FBCC457968C0
:10058000C8DDB41A42D0E530808B7030D77042DCC1
:100590007FD62395B66F660201F0986C9D6FAF60B1
:1005A00020E66A02C1C73830BE89CDE130660DED64
:1005B0006E30F992B37BBC08072BB3ECCC5B903068
:1005C0000C2606B318FE96B1E0BC302DF03D98B86D
:1005D00064FF7F602277F5628220D3643C68717C7F
:1005E000891C19C1BF509B5002118C719CEDE548CC
:1005F000FD17CF242FB304766605C002DE98B33012
:10060000C7659309825F7F69AB58095E403023BF9D
:1006100002D69818BC3072FB78E7061C80048AF07A
:10062000EF31985E5D303CCD300E04FE98B540E76A
:1006300030031A207B7058F86BE6A5FFCC5A3F01B7
:100640001866B72E3030FD3508ED4E8880CBC64099
:1006500081C6B8665AEFF1CACD585082DDF9F50966
:1006600002C042F7CC98199AB34497DB01ED1CDF26
:10067000CC7F2F0362FECC11F83B21B368D7800DED
:1006800038300440D04BD79868F1729FE2E0E05ACE
:100690004BEA1305DDE30B01A72D303C7AFED1199F
:1006A0000C7FED62C1FCD803113766F198146DEB35
:1006B00098835FDA3188E5C8A9B37FD5200547B3B1
:1006C00012811918C495B306F45A8D37D3C2E95C68
:1006D00093CB30E86DBF49F7B92C7B9822C06D9E53
:1006E0005C900405C414B241E4BD5A33A0DE090194
:1006F00036B640E63063FDC9D6AF108C60EFB01758
:10070000BFFA980C8C6647C64BE0828F4C5E200483
:100710001877DA7FE7C841FC64201958570F8DB865
:100720007130DE982CD7539A300C906D521E1038D1
:10073000303B4F5B98807A08FADFA05135DCD90551
:10074000A3196616FB7FF8CDDC33FF3798CEC8813E
:10075000FAC960E6240CBBDA6BC044FACC2EB30EA7
:1007600030C41719087A9805EE6E30815137B37B83
:10077000431001E8F843F744920D177695D012F331
:10078000989BDC053411ED178421751A39D3A2BB6F
:1007900048CE166FF52A14F698B0FFDFCD98F2E137
:1007A000D388306603115C1B103A6BEBCD01F66603
:1007B000DFFBDB10484FDB32A08BB36E4F5D9860E0
:1007C0009B453C10FE7F28A0B240F6B307C2DB2D4C
:1007D000C83D1E2C3BCFFF0825198C4D1980227D6A
:1007E000622B8B11CCFF475A1534014A8898634617
:1007F0008920B601D5C242ED4C32FBA22E24D0F99D
:100800006BDBB097CA0291668E88B418249287A1D8
:10081000881396681E49F5A3A97FAD98103F3270E2
:1008200079FAFE98D788049FC5EC9860813623EA50
:1008300098805F711EDA216422F683EDB158A7AF6C
:100840009830DB96627D49F43066F26BD464456281
:100850001D6436ED02F9C8A2016663DA0320BF9B6E
:100860003041F82BE83276BC988FACF0981D0931F6
:1008700002887E3282EEBDC0C308BF05E9E6B34000
:10088000736E9020DAB8FF1EDDB5CF028DC3341031
:1008900044C8908290B7081984DE986C3BB84AC36C
:1008A000EFB576D3A45E5A30E4657BAA610CE35DB4
:1008B000F2AE232003C53C93DDA4206CD23BEAE0DA
:1008C000FB211A606BE298E5D7EC324BC0983239C5
:1008D00030C06FE698BC30DAF8FC723022EFD71ADD
:1008E00041F618A490BE9830F5A0CB5A116FB320F2
:1008F00001F0A91A4CA4E230FBC52151F34666BDB4
:10090000515EF09144EF83890548796636E1340100
:1009100027F5CBF6A29C30051BFA170DB698E9FA1D
:10092000BC874EFB38400B9D438805701FA3EB9896
:1009300080123B19D098161FC630BE986FCD30E09C
:10094000FEA944E2FC94457269C13018B9FFB78C26
:1009500098D24016BE9868660381FB6CDF4776FB31
:10096000F00104AEC0BDA41944D830218AB440D7E8
:10097000BB352C805F6D9840833FCC22B640CBC8FE
:10098000FC7A9ED88488161202D3DCFC9858AC8A74
:1009900019065FEB9EC52CA841EF5E9820757FB6C7
:1009A0009868F984B3ED78EFA3A0FC6146F8629EE5
:1009B000E56FF6C2FE74BD2065D06819B7E07B1301
:1009C000308801C18FB3F4980C062BE79866E50ECA
:1009D000F3B3BE9F8F7EF798D0F9046467C82401F3
:1009E0007642C844B466BB12CC984CB36FCE5ACE94
:1009F000BF8249D3F73B40933FAE90F8B4043D200B
:100A0000E18CAF01DF1542D7DEFB983006625E4B0A
:100A1000776EBC63FA38DBE3FD98832F2DF6985090
:100A2000FCD7CD98F2C86E7074F3C54F31982F4F34
:100A30004C05C61EC0034B43E87E6F3018206D5D29
:100A4000A8F9C7DAC3100C7FEDC741FDC53062BEFF
:100A5000982937E00C699728FC9F273B661048FCD3
:100A600024B3FFCB8F2296B95D6171D78A16B35C30
:100A7000C893F60D100102BC307EA0AF905B687B7E
:100A80004B42083DA52209017B9806D00DAFE3AC8F
:100A90000480C432C8B44BD3925A2C75D9EB2A3394
:100AA000F0201902B5AC6D19401874026FDF06E32F
:100AB000AD1BE23037953FE0B7AC200BC6194EC2F4
:100AC00017F09D16BA3820A1D8E7B3F9987DA79FF3
:100AD000A5FCE4A2DC7F879871F03BAC0361108534
:100AE00056E9AF4DB1F70134DD0C040F6BCA138228
:100AF000F598049DBAA5083BB3AEBC5EB22113A322
:100B0000106866DCABFAD5DA18BB026B2AABB5C944
:100B10001EF5207FAD9884FB63016E052DE5B8308E
:100B2000BC70D3F8BB0824C7E88928ED1181FF1AEF
:100B300043401EFE5C1007BF0FA00F32804B6309BD
:100B4000BD980C40A219390E724388BE3CFE773026
:100B500003680192C6D358BB6F019B2CF4FE253766
:100B6000207019E866C440D68DC27437FD377C23E7
:100B7000B3E055F80C1A5AEFE621205D0AF628106A
:100B800069FDAD4248086E494CEF609846C035F7A4
:100B9000C548A0406AB364F37441265CA5736C0D2C
:100BA00008B511E44323A4D9B3206060FAB1B3FFC0
:100BB00073B33CEDC47961F0DDFF209518970C7A92
:100BC0005801CE33F38ED136ED00E0D8D30B66D387
:100BD00048FE030FCDFFDD4998FD2885466638396C
:100BE000D990FF5AD66798FF8ED9E1AB9E8025C673
:100BF00048B8FBA0CC23B59365B7109E666CEB405C
:100C00007351C6B11B126619FC8D97F639DC248D21
:100C1000448CDE44B1DFEC8ABFA5CCE6FE8D7CF9C6
:100C200026167FCC98FB67108A98679809BF2C7CA2
:100C300002EDA337B8D2CF50B3C121FF98B1FF1551
:100C4000EB10B7AC20405FCDA6C138327F5C786234
:100C50004B66211A1B812B036F5AC98080877986C6
:100C60002C7FFD68C75883D79E986C7F9AE3B63E69
:100C700028FE7AC580C9317ACEB3BBF54BFF6DE94A
:100C800058804859B76DE08D98C252023311E5CEB5
:100C900001CD74A0F8C6B5DE74BF01D6A34432718D
:100CA000BC012459B37D900CBDA0EF90BCFA203656
:100CB0008004916640AB64E0EEDD34B0A598A06995
:100CC00090E08ED12F95FAF844FDCB0336EC05E188
:100CD000A719FEBAA298F65404FE20410929FC8106
:100CE0007904B30C93B2407C022D62346DECE4863F
:100CF000C08AAF72EB62FB141DFEF8FF9C846FF795
:100D0000A4994EE3646802B1043F2567FBD8B1B3F0
:100D1000BF6D48848BB7E56DEB89A1C880BDE60146
:100D200072FB11D8139BF155FE53410BBAC5C49603
:100D300097D07119E697E67937EB32023BDB9528BD
:100D4000FC1BF57820856D54B8FF94822C0939403E
:100D5000FF44D99CFADFA267995BFFFC6E4FB30298
:100D60005B7B30FD04FE3030CFEC2EFCAFF73398C8
:100D7000542880DD616F1B6AB61928F97F99C6FE79
:100D8000EF6798C6B3D918FE6498B44E1FB510D358
:100D900023394AFC6699EFD9706153FFD8FA635D35
:100DA000DDB104136B23F6A0287F9B4B98B3B7D813
:100DB0002A53D6EBFC7DB10243730B1619F908FEDA
:100DC0004D8110CCB1FA95E1828E7E1F01CE6C046C
:100DD00098FCEE305AE7BB0880FE0FF6ED8D8BFCD9
:100DE0004BC6B3A210B040AF3B7AA8FA1F3185FFC3
:100DF0005B85807F7FC0FE64AC561082D6CAB93650
:100E00008530C58D60083666FFC42E9E5F6B79FD08
:100E1000848BC2043FDB37E0FA43F209C52C8D8C8A
:100E20007F1318F8658BF11708FFC608BF102F9EB7
:100E300008B1EFDEEC109CEDC0FF08C068A33D5484
:100E40009140762C50BC081676FA0A40AB0C202B49
:100E50005715408A6EA222C09D25BEE008C0EED183
:100E6000C69E5F2FE408048D90FEFB036E7755F15C
:100E7000F82006F5269DE312666924B2A0734E8120
:100E800002F9094D5C85049E64EE280C807EC11831
:100E90000A11604009F01B2E06B695E6A0D617BFD2
:100EA000377FCCD26A0554469980E441F8CB0C01D7
:100EB000CC3FF37E48E882D22119DC40F64B061481
:100EC00007209051E90260003224ED5080FCBF4CB5
:100ED000086A4E44D79647319914E41AE065FC3A03
:100EE000B2B33FA3F0B4F83CEDB4E54910A9DC2C53
:100EF000CB044BF42B108E709767AFBF882F83BD48
:100F000070E6C888FDC9F85A68B28C9821F20A3791
:100F1000D637D76C8DFCFA38DDF2409DCDC8C8FAC3
:100F20009BD69E14F5739FDDE5B0FF95F6F03DA6C8
:100F3000C33BCEAFF8FC08CA33B47E8CC2EDD8C731
:100F4000FA80670661ED8F9B0AB607DCFB57D8AEC7
:100F50004FBB0B4413CA9FFB7F0486FF98FFC7F665
:100F60004CC7F73F406CC3D990FB66003EAF67EEBD
:100F7000EC40C96CB169F9141619807FAC69407FE7
:100F80002C7BFF9B1619F831EF906EF6B18442BEB0
:100F9000E53FD46F7703087F2FC3417C7710020CA5
:100FA0008D280AB4D3FC0C1432C0AC9B03AF0C7375
:100FB0006E47FC3010D8B2FBDBD8E0811CF65160E4
:100FC00040757705F0FD370358CDF13C10F99D20B1
:100FD0006DC30FCD4130C2FD9A0863BEDB4EC20225
:100FE000C28429B3A320BAFEAAB60F98D34C109E90
:100FF000B020E8FACCEB2623F6D62226B34B9C058C
:10100000BED9045065A789EADC8007106114E72582
:10101000900119B8FF66193919AF626CB4E041FC50
:10102000C404F04006C8194A2637F10CEAF8C00497
:101030007898F3A91C3B50FE15F56D608A724C013F
:101040009466C0963BC7100C67891003602EA9ED0B
:10105000F05899ED4BA005B3F66841626AB345FFBD
:10106000DCC0089B831028E1018C02EE302003BD18
:101070000B9261B39934404729B30AFC8AB708ED53
:10108000DF04FFE30A81C47F680468E0144D83082D
:10109000BEB55B8204E798666309DFECCCFD8F9BED
:1010A0000464FD2FB22D06DFEC2BFE2680B1F0FC90
:1010B000D5D60E6E36688ECB382064122F662798F0
:1010C000F9C081582C118ED2CA18E9416D9EC076A4
:1010D00049B2DACEFD76408B6CA5A4BAFE20B6DF0D
:1010E0003682CE8B01F9EEDBB111FDD6E735BB8D33
:1010F000480C24153FB3DD98215108B20540BD9836
:1011000012432FEB29B5FB5B1916AD19077D980328
:10111000627A2C5E984E90C80248150F1B70F998A1
:101120007ECE0C2FA8FE045D5E65F6C106C775195C
:101130000542962DC8F0982589AF976B0B7DB3FFBC
:1011400060056638B3400288CC5F51711A360A2AAE
:10115000FF1EF750041364FE480548B369056A1979
:10116000E0BF18EC4A04404BD6CF449E982337F09A
:101170000285A82F94F59810FE985C30B1C86DCD0B
:1011800049609B048869C3B25310FFC0138064FD9B
:10119000DF76F1C0EFB17F2E4B00589111DE5D88F4
:1011A00040D3C198E6035AC908D4E4FEAE541D30BA
:1011B000CCFE0CB7D91FA52FD6D127F7D0FB98406E
:1011C000203C298C80294A2117F0F4A7631066E29D
:1011D000F84B3E11FE6DCB7BCA63604140115A193A
:1011E00008FB98400BEB52082CB7901217EC86982E
:1011F0005F7F8990D0B6F9E36A311903B278CDA246
:1012000098496801ED3C982448290790B20CBD9894
:101210002CDF1068E698793179C5BF99B8D98CBFB1
:1012200005933D50CB8496419B4F8D98EF796E4945
:10123000B003F683CD6CB3048C4B57F909FFC85A41
:1012400040C1132A138011DF0801ED5E2362DE988E
:10125000F73012A8FA71307CE1B3D95BC984401130
:1012600056198466C844D38ABB4402CB2524F19E18
:101270007082482069EDF6C934029C2DC730FD8A82
:101280009EFFBF81E42EA4DEBD209409A71ED119C4
:10129000F5300870FDF77F733D1E10676A2C02C49D
:1012A0005B66E801FD981E5B53379484111BC1E90E
:1012B000D6E01903D0FB6DF6A67E982C97B798213F
:1012C00080F998E96C407C7FEBE452A9F1F0501B67
:1012D0000943BBFC8B30963D42772CDA22AF5B98FA
:1012E00012752B13C96614023EF608408811B5C268
:1012F000C099029EA1FD5F7FF7104071FA2C19077B
:10130000EF3F988C304519247819BFA45A6CE081BE
:10131000F7C2F04016A2C0E1CCE52CC054FE5E98A6
:10132000B1061EB417F33437B61F41AA6608CBC8FE
:10133000F48F5D66E2A9D3E1660BAFFD1498697680
:1013400066FBE56844D94C04196CD942041F324A43
:10135000F588F2E50BB4229505B3ED981260FFBA5B
:10136000006BFB3FCBFDEFD46EB34108336D74626D
:10137000BC98776B48823F990D22200488469DD007
:10138000974008D987CB4434A9B4AFC53AC8F5AC67
:1013900005AAF201CBE360F2C8809F9A2CC2EB173A
:1013A00044E330B7FEF34B3736C860565BC8B743EB
:1013B0006501EEFA16E5B80C789825D51AEA6E6242
:1013C00027D0B388FD0862CB662011DEE3A080F24F
:1013D000A50ACCB9C8214BE7C2C0E3A7D2B040EA06
:1013E0007759648BB0265D5F6324B6F6621945F5C4
:1013F000F8287898C3E6845E983DF744480475B1B0
:101400007BCE3006BBD8CC98C51907ED2C78209739
:10141000B6D2ABB32097F8707B981820F30BE0801E
:101420000CBD325C3077388EE0413C7AE8FAE3302C
:10143000311F066A662C84C34B715EC3AF1499DCFE
:1014400013889D7F51A483FC7D0781FC5E98B120A9
:1014500010B3172183B86A516A1101FF32AF02FC41
:101460006460818C80092D0544FC7B7F864BD710FE
:1014700058A84BB4B38F795B7088F4BFB1E32EEFFB
:10148000161035CDD540DE9837C9348C9FEB0AACA9
:10149000F298C8F6FF0D4C19ED33620D51CFA73FFE
:1014A000D3D6980C6AC630B4FCD5ED0E7AEFE0DDE9
:1014B000CA402F5433BB395F60BD01D3160F0310F0
:1014C0007FDFD9EBD7C0BA3786F3C2F9BECC5BE772
:1014D0002C18208EEC5E0A01AEB71EF59830A3746E
:1014E000230C76ED563094DD40B3E8B02022B3FCF7
:1014F000ECC88210D5198191C630579E90F6AF1472
:10150000817D403713B2FDCC65C821DF8803B05F11
:1015100032B72CF93C50B341393080019A9DC50156
:101520000C76F8D4C0031802FBE2013C084C82C8D8
:10153000ED41123CDBF0FC19D8FB42B20C78CA59E1
:10154000D07DF6BB14B7440C9FD396BBBF5C1AFB8F
:10155000D7726B50C5C9E2DA6CF0240CAEB3E91E49
:10156000F888048B60BB17091007B43C0B64B53ACC
:10157000E440D05D66B4CB3D1A2BDCAA0A032057A9
:10158000F0C1B3D27CE5B830705918823C23020117
:101590000D680876069E98457791B1F7B8F979DF1E
:1015A000C6A0779B98990FFDE2B5C0F3983F5A37D4
:1015B00068FC14B37CB365ADCBC07C98DBB6FA9203
:1015C000FE9848FBF01D1680837030DFDD3CE99803
:1015D00080E969CD3090FC7617120B334FFCDDBAF1
:1015E000829408B208B930C0C90809DFEEDF4C2484
:1015F000D2B18B923C12364587E7E0F9044C1116C4
:10160000467C631903225FB7620A1943229E1CE4D9
:1016100030015C8C884B8023C1986011906F48FD2D
:10162000CCC804B246FFE5C8B503FB0F3BCF9875A5
:10163000194012C0CF3007E0010D6FE598C8302C7B
:101640003BD0F997DD0619908666DBCC625C3026CC
:10165000669661962801FE217E7AC80828FA3BF832
:10166000EC5BCFFD43090340148C9607657330840F
:1016700008FA4023600420D3AFBBCF58EF100B61B2
:10168000E80AD9A0F96DCE81885F021AD3E59FEDF3
:1016900069DAFB18D90141BD1B6FE898D06FF59846
:1016A0002D6B1C864623DB1A6C0AF61344B41E34D9
:1016B000FCD3CFF53C67A0D8C9CBE33065A808952B
:1016C00096C8CBA004CBDEDC5180FF60AFDEB6BC99
:1016D000DE36813CC485B4F295E0981797983C308B
:1016E0000FC0013D88C66EC180D5EF647B98E8FDD0
:1016F00043B9D4C2DA48402D66099A664022339332
:10170000F3C8A8B980E5428A08BB910CE5240434EB
:10171000F42BCC42923B2C9137046BFECC8031F5FC
:10172000C0DA0E4025D088F3ABC84480B210162032
:1017300018BE3E804CF397FD9885AFA03C982FBD16
:10174000988076782129FBE04EDB8D5E2330F354C0
:10175000B4580B03279BBA90026FBF694FF9F698F4
:101760000F62070D880777976BFCD70BE0410CD20F
:1017700076FAB610C9DEFA3110CBF5F504AAA50247
:10178000CC156696CC308441BD73E8036BDD3A69B5
:10179000FD0CB3EC82BFEBA7644A30016DCD7948F4
:1017A00008BF0B7D8555B384A3F24844F74360021C
:1017B0002C2E19A4658F1362ED77A440E0B3FD3C95
:1017C000B8CDCBD4CCB3FD3FA7AC2245D398CAFD4E
:1017D00020CFE2213FE28D68C8F3D58CE6EE5ECAE9
:1017E00024E06E886EC668D3B2580C665B4CF34B2F
:1017F000ACF84CEABF7F286599A0A6F37F18CADB36
:10180000D390FF66791319EBA6252E4646BE86595E
:10181000FFAFDA78FA18EF91E29E667FD96E7FFB10
:1018200046664BE668FD1201E3F82CEBFFB152432C
:101830006FFE8AC83291CB59F6CC20091FCCD998BB
:10184000FFE73AA51308DA96706FB6E52C077FCB51
:101850009AB30DCCFFFF6C35B8FD3476BA401080DA
:1018600042F380DBB78BFC1FFBF67F3FE66B7664B1
:10187000B820B0679B187EF9F0C59266209ECCEB2D
:10188000543593442DBCD6E440BFC6DB90F87A9B18
:1018900002CCF4C8A0B7E136D520AA78ACB3AED656
:1018A000B128ED8E70FF9E3F67F1BF99C51FB660EE
:1018B000685974EE5C720CC289FC46F1517D8FF55B
:1018C000B3053DBF084F6B0E528B8934FE22B3C463
:1018D00080FEBD0595502FED5FC00AF3D0FC48D8BF
:1018E000010293B6C008CFD0B4D1521050E0404BA3
:1018F000295D28FED881044878B4400368700C66DE
:10190000D8B3066EB7016E052B0270974404844568
:10191000455C96E82218C02041F598A49411A8705F
:1019200045811782BA1B300242CEBC2205769C68E4
:10193000FC11713F99C6A92FDCF8ACFFB3AB3BD4C7
:10194000042DFF4CC9CFB7C961DB02413FAD5AB985
:101950009C08305821DFEAF8D1E37D08FD5EA868D5
:1019600083625E22B6086CF3F0FB75B612651BC38A
:10197000F15379DD88B6D418FC1CF61820CDDE832F
:1019800098F9C325BA41BF992D6B5F9831198063CF
:10199000FE4B6619D18B64B01EE27DEBD965A302C4
:1019A0008F712E7030A3D2CD3FF75B80983DF659F2
:1019B000C38B14D80CFECCBECDF0BCCCCFED17C879
:1019C000FABC75CB3043D19E3861A6ED4980BE5933
:1019D000CA76860838FF1FEAB040C8FD7FFB8EF943
:1019E000FC853AE55C306141BB8FACB2983BCAC81C
:1019F000322ABF401080FDC121FF89B0FEE7EC8490
:101A0000EDECD8B8FF603CC27FDA6902B6D098FC32
:101A1000DE40676E4441C54DC4D7DB2086F564B611
:101A20008920FE3ACDB5100098C7782681AFEC78B2
:101A3000F85843CFCD7A01B9C6B9EFEBBC104DBF12
:101A4000852CC8B2D8164DF313FA4C04CD6CECD0EB
:101A5000FF7FC555A08B7DFB9EEBCBFE20CA1223DA
:101A6000D4EB733337667BF00258F29732A560FFF0
:101A700053C6B441C57FC904B20851CC02DAB20CD6
:101A800038FE7BF58508849E9DDE4004E06243DDE0
:101A9000E6F0B6FF0EC0CAD38F1647CE80B520023F
:101AA000EC627B82A1CBEF326881F887F3C7E9FC57
:101AB0005FE1A518E306B7A53780AB2FB061002C16
:101AC000F33A552E013CA420C50D25E7DE22D4ECC7
:101AD0001840072928AF05E68F9402BE0A61FD2849
:101AE000FA0920B8FB11C1D07B481110D6912147CB
:101AF000EC3C02491A41DD3025F984122D98ACA640
:101B00004CDF0504100118F803CAD00048279B0ECB
:101B1000C8BCFF83C27DD9FF203FFB7943E0411A57
:101B200007E4B4FC358E6CE3804070AABD18081140
:101B3000E7BFF80837054187040A34C182BDD85091
:101B4000FAEA7504C4FD5640667467668DD9ACF92F
:101B5000E54CE66660E1DEED1053687A792A9A4C2E
:101B6000623D89D8E0FA53B6F37EAC1502CF5AC372
:101B7000906D49879BDE6EB3B7FFE32616ED360402
:101B80009EDFB110349004DBCCFB19F2E1C4D8BA6B
:101B90007E41960B18E5A9B692CB03FA6E596802FE
:101BA00066813BF71D99CEFEC1D8B8FCF3C780080B
:101BB0006A7CB104A3DADB7B68FD28F2594F2BBBAA
:101BC000018C546CBFCEFE1449FBF5EB808A18D112
:101BD000F9B698C6D8B0FFF799A5EBEB0823F6D66F
:101BE0000C46A9C710A1F81D8C6A1604DC0ED8ECAF
:101BF000CB4BF108A637B5F9A0B349E2C477F7A0FB
:101C000043286688307AFD50281AFFB31021B0B3FC
:101C100049FF8CA09F51D302C80498B94073A01803
:101C20005B2261A8E64DD3A8F8BFF68B0360FEC522
:101C30005EBB46F32BA40B832FC2365E37E05ED328
:101C4000FABD391006C0B32BFA4EEB5CF11CE09BD9
:101C50000CD33038B786C0D6F0071E0803B962E04F
:101C60003C6AE994187ED32F66EE174614BEEF5CEB
:101C7000B3A39E3487C0841A9FB310880241306793
:101C8000FA3C849CB31840020F0B60810CED82017A
:101C9000318B66FFF045302228FBD28031B7C46615
:101CA0002721ED11D0D28B3B701280A082EC022153
:101CB000E4B388CEFD12E34120B68E261030DC4618
:101CC000B3B7303EBED0FCE00174F703F0190A58F8
:101CD000E4E93CF3D5B02006F8780707602C39E337
:101CE000B49BD30730BFEC78D1200FE0AB467840EF
:101CF00001CDD390FAFFF996C009BD114B26C088DB
:101D0000F884B5580867E915127AD310D3C515D3EE
:101D1000A819B9B3D338BDF9B3C11298BF38807FC1
:101D20008EE5B322029F06018C84093077E8BAA4BD
:101D3000FFE5CE2A0AFFCEFF9FC14418078360E368
:101D4000020C08C330641319D318F877EF1520ED8F
:101D50003828DB3348E1D290420EF31401D7399092
:101D6000A484FF7784B04CFFB111E2D926D0F10AE8
:101D7000201040A345EC7F69988D24F16496FF7C88
:101D8000DC3BB3407C0E0D81A7E63F24FF0CE466EC
:101D90000ADCFF86EDA3C285F2A7C9E5E90CCE4CAB
:101DA000E0FD60EC9A319E1EFBFAC6C009E0051802
:101DB0001DA3E6B889B304FF705C9F03FF84013D57
:101DC00080C807F4E06EF27837FDF34BDBD3E8FC14
:101DD00097D844FFAF402434B6056999103B01E021
:101DE0009B42BA454419A0A1FFF9249028FF3C0961
:101DF000348020E7199842E04140468EEEB38C04CF
:101E0000906BF95BE732C614C0BF026F7174E6468F
:101E10000218B33D49409044A2B3803BF7DF029ED5
:101E200020FF840530EE0FC810840BE5F9B0BF39F0
:101E3000E92C8009FADF71FEEE98F1400668D0586F
:101E40009D4CA639F00A0E57F3105AEE1119BBE259
:101E500066C33460C51988FD32201EC0037A7B98A2
:101E6000003DB510E8B13A0FE2FFBFF8F984BB01BD
:101E7000CCC59D578A061FEDD94404A679B393C9F2
:101E80002080E4D6200672D20403D321C6B230B239
:101E9000B672D309FF199226C85789BFF6454FB3CA
:101EA0008084180936B314DD68B524FDCC2A7E7F02
:101EB00040BDE54618BB49BD37088021BBB30A8841
:101EC000BB82F77FFD7F3C0650AF822EE26930A0D7
:101ED00045E012064A7CA668400120BCECB3BECCAB
:101EE000035FF032A001053126506E03F5EB0D2F94
:101EF000C022FACFF68B49244352DEF0FD26471963
:101F0000972610B71426671740DBCC0B66E0250830
:101F100080B2417276BCAB6DBFF87A642B51B3EAE4
:101F200016C0E4C47045C79D1E39616C6627C0EDBC
:101F30000744F0201810034DF8E2B700F79761D37B
:101F40000679DEF884B3B944662038B35104AB791E
:101F500067582095B811E0CAF9CC3409DD7EA7C0D6
:101F6000E418012318B7FADEC320607F15885130CA
:101F700002C0FC8E0469E81019215F8C4F3D340AC1
:101F800046807B740C402B0FEDC93ECCDFF1321143
:101F9000AB40E2543B833011B4ED061F1C01408C72
:101FA00081443BBE68FBD723B4723D58BAA27F463A
:101FB0008007722016085C30AE0FB6DBFDCC10AB8C
:101FC0006670812FE0F2984B190BE04219E36D4ED9
:101FD000650388FDB51F19A7BC1F86E198E8184561
:101FE0008575F2E6B35657B8978591981D36E888FF
:101FF00001FB29CA400462FC91FEBFEBBB1719111B
:10200000F930910B1206D7C0087A1740424C5DE6B2
:1020100021A6214F3F300204300A4600CB14186934
:102020009DAF053102A0B5A49C3C30BFBF9D3026BA
:102030005128FC3068792E2C3B84971AB4E5D47271
:102040003004D79F30A40180102689C018D6418360
:102050005CC8EC7BB4902801FE6BCBE4F9F453210F
:10206000CFF735DD2F915CE508E45C3001AF373008
:10207000900191089095B6FFDC27ED30FC603ED9C9
:10208000EE353056E1E0D61CA21502A3468BB3967E
:102090003002BE98AD817EEA07E0801CC881FE5AFE
:1020A000303CE74138107FB7B828FB3BF22682046A
:1020B0004E3F30FBAFD0828B8A95C049D4F1196472
:1020C000F3308A019C0418D2029EA496088C10E377
:1020D00093DBE62404DBB31BFBBAF86F7A82E130B2
:1020E0007ABF21E8405F2E122C6FFBB0FBCC278516
:1020F00030D62BC018CE98E8B625B36596FFE55CC0
:10210000975E6BDFD1FF92F5CAD38530F32EE4F0F2
:10211000E423380E0FE401FE525080BB02D79F30FB
:1021200061403C9001FDF08006C00278FC3069EC13
:1021300098031ABB16C26B3F857D4810985FB7C7DE
:10214000F980BF2B46CDC57FCC10716628190426B7
:10215000BA37B7750236ED84DE987F120866E9FE5D
:10216000D11724FEE7EFB0B3C02827119A040C372B
:10217000A0A097A9EDCC0478CA6BFA34399B421819
:10218000B435E08CC0305A7C7F2E444004BB2BC851
:102190007FB59822D4E3D9C482EE81A011FC7F20C0
:1021A000E6E80B0AA2A05EECB35FCC6DAF628209D9
:1021B000308A9F06E91A40016C0D91EEBB236C1426
:1021C00073D3103400FA6FE798EE5D41FEBC94BA09
:1021D000DDEA2046FFAA6611153FB3D3916620675A
:1021E0007B983108EFF0FF600FA30677B79807845C
:1021F0008819B4BF8070400C885C5D6CD16A66E65B
:10220000C00138B3302D18FF8FB6621565F3E99819
:1022100081D3DC68FD7BDF4684BD961220FFB4C904
:10222000C024C4E711C0E0DAFECC08D79FCA242836
:10223000842006A710B31361825EC56DBFC9440137
:102240002C84C005B0CBAAFDFA9D670801216C342F
:102250003A8227AA4219432025F5F1705D169FCCDA
:1022600015E6629A3DCE40C180050922CB556E53DA
:10227000B009C40844FA300470FAE0F61505B4EE6B
:10228000517A3850FE980171507130DC5D78657577
:10229000971D8D6643807ACFF05A631AE0FEACC07A
:1022A000B666F5D338A6A1FC415118D6AEAED440DF
:1022B000FDEC01FFD1B5885A8442AB6689AECBFBF9
:1022C0005FF67CDFDD6B812040FC97DC11FDEDAD1E
:1022D00016CE0910BB21482585FF3B8119135EB836
:1022E000DF0291DB84A45E5730283D30880536221A
:1022F000EFB30B41424CDE8821B576F08C020C30F6
:1023000091A006BBFCDC98205024A1F9A52E73B542
:1023100050225EFD8B280577868445B3C73074B0A4
:1023200045C330CF328B8AD03F460108690285B65B
:1023300010E730A30802BD45D3FD472A9B219BFF30
:10234000F22304F1F5E45C30B84066B830BC56F5D1
:1023500019106A3508DFD49803F37EF6AAF860995D
:102360007BA31EF4F2A860F3E0560E8BC5D6B9AA83
:102370000245B3D0641DF72AF2303962E0C2E11C95
:10238000902F5B986471302EF3066FD3B8FDC9E5CA
:10239000384B1E08B2E89CB31182409CF5462C9045
:1023A000BCE019EEBB64EBA0BC178905841D46C0D8
:1023B000780DADC0B62AE730426010AD059E695E6B
:1023C000F98011788A44410869A04279E165E6DF25
:1023D000DE4767756117B3AD99507AA95709C91AD5
:1023E0000FF59313F84E9080B0D3DB852201F930BE
:1023F00029BBF9993003F0707642D569C12367068D
:102400006F5840B50BCDC8841FBB9495FFE7E20120
:102410000CE0320077999859C8DF5810CB3008FC8F
:10242000E542497106AEAFDC413C79B65A917E6314
:1024300090DB94F74045BB04D678205665C840C968
:10244000FD15B9F9B3469BC827118DB33D8B10D745
:1024500012117BE04C0284D6A824BAFCAF28FC7F82
:102460008009340426FEF5984403404248DF943046
:102470000830120418D7C0647BC229D07FAB988182
:10248000F6D980D9C8FD0CA11014820217B3EDCC87
:102490004A7F3288F809048046D01F1A0113682148
:1024A000964C86BE98EB032810B0EE94EBC88F30A4
:1024B000F3E5429D36FCE18AB35DD928F39AED3508
:1024C000FC4A661295F7E5201808739088416DE480
:1024D00098D3A680B1B8F9FF3D98FD1034ED48B00F
:1024E000AC06D7C804A9980FF880B402DDD748AA73
:1024F00066C0038686B390BF8F0EEDE0010CBC98DA
:1025000045E45A4BBF80963006AB6848BBEB16E7F4
:10251000D18298F36802FB0D8048140A5FDACC027E
:10252000B3492028FC14F18808904080ED124182C4
:10253000BA17B5CF0DFF8249140210F98489456C92
:10254000C9E921EDE12244824030AF80BB4CD27614
:1025500020A88D453ECC036E2F46FF0646C4189832
:10256000081004C322208F30406BBC7701409B0BC6
:102570009698F2C82D34C563C35DF33CD780071726
:10258000309A8B65F5AFDECC4769CA3088DEAD1670
:10259000C0E3E02BDA980FE86F0C38F9E530020B56
:1025A0000ED6FCC5FE51540452C7B699B35CFC5E0E
:1025B000A5AD029968B6219646F3E5E7A3CFC98099
:1025C000BCFAB36E8919F54B2C1FE0909B53F38C2A
:1025D000085B344BD8A0279C308005320F15A1042E
:1025E00014FF4503400A0D8109326BEAFB42E0A962
:1025F0006BF617F99E980E1BBE8C5D6C932BFC0836
:10260000D740447B174C2845D56BA0C430F97F3F99
:10261000308009B48816D8F3241A1013634C19B704
:102620002B300BA467DADAD35066C881134DB84952
:10263000B58FE212DD1959F225E53008B70B30EC01
:10264000C046BFCD28F8308E236DD3F8FD39304019
:1026500079B372A50CB4EF12EC3720390E0CBC081C
:10266000B3B8308FC5F798C1011CB908B38477ADF2
:1026700098627E7FFFC955E0A4177F3B3016C202E7
:102680008FB3F2F5E21878AB0342010D3D90340AA6
:10269000C419FF4751F03055BF3F46C12458E540AB
:1026A000886032BF33300B620C90F94834027AFEF6
:1026B000805F46CA4240A157132C4C44F344C38662
:1026C0000395227692AEA98BB3CB984F15E1305586
:1026D0009912B3C086F301100408F3885E6379B3DE
:1026E000D98776AB5CF82BC8CEA5F198635ED2D7BC
:1026F0003C88163048C883B1E07A3C20072619BBD5
:102700009003D39030687F2C8805B2201697C8D3E9
:102710009A237A98838BC6C58BF7EC66024227F51D
:102720009EA784C55FBF28F0F31731A00569FBCCD5
:10273000D8FA167FFF8C41102004808640BE8CE3BF
:10274000D35E50EA03E25F80302079B9FBB3242ED8
:10275000465EB301B38716083FB32340048C885C00
:102760006F091722F6CC08029CCA9484BC5D38A07D
:1027700042133D042D84B660C81169442CA801C2DF
:1027800018FF6367FF17B3DFCCA4EAB347FA9FE9EA
:10279000E6E67BD3F0F95DC47EEEF040D3EC50F377
:1027A0004D8FF332DC78308D74F6C30338C60E7863
:1027B000FBC496701022EC79668E3B3998FC242875
:1027C000A0CE3C93BBD745FCEE9E73679F66960EEA
:1027D000C624E69BE67C9FCC628276BECC60F01875
:1027E000FD23A01C3742E3307E3C6F88D87B5B66BC
:1027F00036D778FA59739DF67D69A9B9E097F63214
:10280000E8D3F8EC6FECF9E3B41C6FD398FFCBCFAF
:10281000D44080466425C009DA06DD6BB69E6FDAC7
:102820001C7DE79DFDE138FD1A5CAC4D2057ECC4E2
:10283000D3136E590E01E9D7C066671C905A625EC9
:10284000895D4C667CC1B3AD56D7109F7FB581EBD7
:102850004C13F33E25E6406E885C732D764DCB9B82
:102860002578F933B676022BE6AE22B0642FB6098E
:10287000EA03EB8FCD66CCA1F3FF75A2019AB5B147
:10288000021FE9AA48F8AE90794779632DE908BE9E
:10289000CEB8ADC4BC40B52E216E898010D8A6BE7E
:1028A000B078E960FF202C954904943C627F235E58
:1028B000A8A5127C800DAF590407DB44B4B31135D1
:1028C00061A0F8AAB91060A8088448D8F1508537EB
:1028D0000514803EEC202824F107C1ADC3CCC036DE
:1028E000E958584227C0050D23A517B36BC01B48F4
:1028F000F9850C0598FD615B673AA982A8CA87270C
:1029000065860A48010720225E21B1050FFFBA90B3
:10291000B28C38845133FF0216401158215910D619
:102920000584B35D04026FDCF101242008F6FF0288
:1029300067AF9D20FCD502BF8EAC3543A56399934C
:10294000E1451AFD48A74287E4C8FC805AB1CA1E77
:1029500031AE5F92CC80BC240437747444930C274E
:10296000652707314DA699F8B9D9847B8DA202C39A
:1029700031AE46D270FEC9597A40867123C6CBA6C5
:10298000E070AEBD571788B3FE17BF04AC0C2063D0
:10299000A518E2FC87B1422EEFD5D8FC32A6FED8AE
:1029A000D3CC86476CE7DED9E710CDE6E8F988F6A8
:1029B000CB81E5FB508EED3488B697C0FC32CFB1A9
:1029C000826E58B54096575311CAB3A94E9447B872
:1029D00024E0C516B6082E555BE3BF82CC9E59DCB9
:1029E00080652D7420B6DFDBD617106A98FFCB0AFE
:1029F000A4DC37C7BD820846DC734F80FF66726275
:102A000001F3D31A373159D408FDDCDA38FC18BC8D
:102A100096D79D98AFDFEC3B24ECECB1B8FA5BECB9
:102A20005CF50208B99C8B254AD41985E7FFFDFAAD
:102A300071489EE7D850FA5EB47F197BE2B628B39E
:102A40002EF9B18065CB018A1869CAE319CC5919EE
:102A500002868C31E784713C881819E71B30F7F93E
:102A6000020864FE6E01C55BD3F0F919362B3759A5
:102A7000DB5618FBEFF965DC7866B34AF75601645C
:102A8000ACC580F5912089B6A718F935CBA72011E0
:102A9000F50108A20F84CD3DE846FBB640372F5A1A
:102AA0004D8018B8F1FF9FDE3808A8F8D8998DED51
:102AB000CD29F4F38CFBEFA3F9BC16769350FD20DF
:102AC00023D03C18AFED6B10CCFBC53140A3D3E84D
:102AD000FD6ED86EE911C67EBC1E0DAAEB04DF6C3C
:102AE00030AD366C35B477A888F80874E066ABD1A1
:102AF00022C440A6D1A51203ABCC044078421707EC
:102B0000190966401080C18ABEF2D039DF6B59D0F6
:102B10004B40A820F0DCA18FB1C9FBD16C639702B8
:102B2000C2A0CB01A3F0DDDF04108002F525FB631A
:102B3000BFD2A7CBD4BF7F0DE6B00230FA4F9BA423
:102B40000144BAD90981FE1861310A0164308B79D8
:102B5000DDC206C030CAD20C71AB4080A80FC9C01C
:102B600002900E1A7EAE488015A0C080AC34FFDB08
:102B700009203083FB21E9808E109314BD60A030C2
:102B80002977B244E66B054775415FB2F6C9AF19C4
:102B900003601820FC463009828511CFD006F4A0CE
:102BA000B597D68253FFED220281401A099E015F3C
:102BB0000A90FFF35E7F112DCDEE025EFA010BBC91
:102BC00005EED8B3E011A25FA0F514F6CC4FA2C871
:102BD00002BDED58ACFB8440C9EDCB11A7EF2642F6
:102BE00059EF087EB271B3C8D44406B10188E58EAE
:102BF000FE38239DFEE3E810FD32BCBAD892C6F43D
:102C0000080D02898EE4C16CF9DBEC739E163897CF
:102C100037B64A2FADCEC0F8E63F39964D72E24046
:102C2000C57BDFD8B3FCC850DCBC6AC5394120661F
:102C3000ACBA049109D1D760FDD9B659889620E481
:102C4000FD1A62A6B42E19DE80FBA2631B05B180BB
:102C500076C4044459829CE7D8F8FBC6D9F3FF6FC9
:102C60004541E586DBE95034838FED5EE0FCA662EA
:102C70004BBD3053F815592520E583C6CA67EFAE22
:102C8000015D7F18F1C099FC1841B3A802DCB9FEC0
:102C900080A6C0EA0401CC6CB258F85D83015AAC3E
:102CA00062DFCFD982017FA86A0CDB68FE994CE70E
:102CB000CD758D84A3FF8A225D2ADEC8F9F41D89B3
:102CC000F852B1817CB3CFFAB42B9BD9FFA094CD3D
:102CD000D0FC9F235385841102C58046034220C542
:102CE000086A888DC4BD4B14F09012081830430355
:102CF000C29D8D73308435BE0241BC3F4528C4F56A
:102D000006DCFD80B35FB17F190006C93A1EB2032D
:102D1000BA9ED9D2A0DBF960765A83BDD0E849A625
:102D200006FC9F184B60200C026227306AAD3240CF
:102D3000DDFF0360400482410C10D60631A4DC8321
:102D4000D34E88010C6CBDFBA59F80CA9D26DF5623
:102D500049236246F022B3FA0530040610FC6603EC
:102D6000612488F3A4F7D3902D234027C801F2F8FB
:102D7000FE2FF3F33CD0558C2E88F9FBCCFB44207E
:102D800024428414F136B7E1C04418CAA067D0A920
:102D900087A8C24859E988417EE911321270FEF6CF
:102DA000191040FFE9C9036883073EFC16C0037889
:102DB000150B88BF19E0012C8805F1021E7FD3385E
:102DC0001003E0813C33D3F0D3D0CC0338D3E009F7
:102DD0003CECB8FB6EF5B683AFA87302195DA9A6EB
:102DE000112865D106C0E0F996776F8EC1C991F4BC
:102DF000A082F3D2F86AD5B31377E7EC51FC140242
:102E00003FD30503412028627B62F4B00846C1B37A
:102E10005F5FFC408001311116FFC69020136044B3
:102E20002880D71131D7CC8B98DD5F519801A11D37
:102E30000CEE05682001C477820459867F65E51190
:102E4000EEE3E0D344C00A03FC28218DA420B41D86
:102E5000D8FBFE98639CDF6FE27F1DDFA596499C3F
:102E6000DFEF301068FE7F01C0BF7F03775F55ED55
:102E70008E201878C5B1E03166CD77B278C40319D9
:102E80008CE0AF4E11802BB8FDEF69A146C497A02E
:102E90006DD20FE068350BD3C53E7FFF707801021D
:102EA00064372C04B8D38418211F60414C9005F777
:102EB0003011EAF9F658C0F127B4DF8211C71B368A
:102EC00053448C29DDB7424035BB4989976D97B390
:102ED0001C2549828C744D40B819F6018007128573
:102EE00050E4C5FA81F006E0C80318580F9F97E434
:102EF00080A55E98F70278100FBAF0F04016D8EA75
:102F00007E0F60013C07D0FE04B540FDA883C66C6F
:102F100077D872BE87126D9E74801804491960C6F6
:102F2000E53020B11937EA16C278E5DAFD4C73BDF9
:102F30002240E5208B103189A4A7B086FE29981085
:102F40000360042CF5B1807CBFCCB312AC498D9AE0
:102F5000FC5E98BF808B30A6C10F05B75404CE0825
:102F60005A5168212B13DFED048612C0C0822697C8
:102F7000AE818F93F36BBF1384CEA290C958FCC46B
:102F80007D988077991E86BDABF8057D23A1CA3D4B
:102F9000DFE08CFD8BE9AF91F5980C71306983FC13
:102FA000307FD99FDB487E6EFFE2FAC9F57804AF27
:102FB000A96B08F30F40E63BB8FA8494B3C2D2BFC2
:102FC000A04B35D38B14B35125E0AC88A0190A7AF5
:102FD000201106107B65536021884F5D4B04F8CCAF
:102FE000429C8211B21CF8FAA51587C4A7C5594F97
:102FF0007D8040C0241208BBFE21623DFE4CDD01F5
:10300000C088189BD621485CBF86B7530A73C4C0DA
:10301000FF7F91987B17DC1C30F3A7F2090358104F
:103020001593EB982477F61C8805A630D382781C7C
:1030300007BFD0D36B1EC378F8400960813C3E586F
:10304000FE80418DEDBD98806BFDBF04038A6AAFA1
:1030500009B3EA06BBC1D021021AAF948049500AD5
:10306000B9AC9B98B31123DD984081512BF3C87301
:103070003603730C623DFE810630F40216C024D381
:10308000CB6004E05F9ACC9E60E66605206DB7FDDC
:10309000F2C8BDF38D24D4EAFCF3480240A308181B
:1030A000454C9FB787F101E0FB40C2085950BEEF85
:1030B000FEF3F310180AAB28E30C80224B94123372
:1030C000D698082AF46CA8B301F2C8CAF5C0387DB6
:1030D0007FC6539AAFAD0C1E1F35C1201E0E83183C
:1030E000032919106E9F5C30EBE2201CA17197D36D
:1030F0009AC62B8A0BE68556FAD7CFD2DDA50C09E6
:1031000039B3F38482EFB1BF0EBFFE7E28441002B4
:1031100042E5F50CA7F0804258172B3005C1D1E4E9
:103120002AFDD7178AA0A3E76A81213082099FD49C
:103130001108611280623DFE0073EA248501405E41
:103140002F8D81847797F8D3D366440A5D969622B3
:103150006699C8774EB1AB0FE023F3F50659C85C0A
:1031600030621FC0FA62803C9003D1124AB879D312
:1031700090EE701DC0303909E040569068669BFDA6
:10318000AC7E55014AD65100C3BE12CFFB7FF8106A
:103190006E1BC4CEA86040FCA39BC2B93010B90A14
:1031A00038D9771A30ED9929BC84B31690801970FC
:1031B0000A612E48CBFC52BA3DF4FF84C021B0FC1A
:1031C00026C024980403CBDD8C86FE45EE4E9D047C
:1031D00079112136E8FBBC985AA1FA9801BC98B83D
:1031E000307E8309232A4201CF3D66DF814D82185C
:1031F000410B0774B5FA50C108829D43378022DD28
:10320000C57E5EC82D627C8EB60433B201E4B7FE83
:10321000B78020C8C89A56F899C86B9AFF682EDE06
:103220002F30DD7230A61522ACA43C7F2055F3CCA4
:10323000F4E0E5013008D664BB3A61F298F7D5F0C6
:10324000F9247E9615DB7677D146D4818811FB2050
:103250004C020C101201550927B3A50508D76122AD
:10326000E974312A449F90CA400A05829C21EA925F
:10327000FB45CB1B469A691302D7950530A10F1861
:10328000445E208E08599D1F7F6DFBBF054FD7718F
:1032900002CE7F91A051FDE30010427340010AF875
:1032A000B017D8FCA660CD0711D36249EDE2817C4E
:1032B000982D5AAF9998DD6BF00CA001F2251E39BC
:1032C0007A78646B0C1033C80EC639CC20090C3DDB
:1032D0003D68FB0B20C36EAD442D02B83CF3BEC766
:1032E000DC66CAEDA530DF89BC18A9BB712042E6B7
:1032F0003C97D30A6BE2A1FA2806B3D7D5984CE4E1
:103300004B0C9F44410341200CB1084CF9C810C834
:103310000899C0866075B309309CD910584E136166
:1033200044BD113101DE982DF7F93082F3110621E9
:1033300080D142D720401C5066B50432663DE5C1BD
:1033400027F4674321E80A08054386B46B094C63F8
:103350002D224FB220C4FF65723008DFE548A5BEBC
:10336000DE6CB3627970672BF4C8EE7FE33D5E6577
:1033700030E041237B980E805F9F2CF64B68EAD3A8
:10338000BEA9BC98949641E85BF659C80D7A983866
:103390006261FBBF963D089C305A0898820C887584
:1033A00049EB414CCCC4E17AF7D344129D42401B17
:1033B0000C81BB11DB5E02989039057C8504097392
:1033C000C7B3302FE4FA3FEE38048837012611E501
:1033D000408220F37DB68A7E7F4478391808028BBC
:1033E000952690EA5E023F6221C80805F173303CE1
:1033F00090BF078630E80FB30B887FBA9883181008
:10340000F398117AFF3CA003F0F49802E52B0BE24D
:10341000BA7B6B401633D87819E05FE9CD38FA20D3
:10342000301EA3667F90C5B624F368256DFB62C08D
:1034300071B3D37F1730EDA70C34045F59A84180D6
:10344000FC300839DD1910E6A5BE4BF581112005C9
:10345000F8BF92CEF38B2470C8570D341C30B3F9EB
:1034600060202C8289F149D35829C2600A5D77EB2C
:1034700002A8F9CF98E130499202DDED3A7FC70802
:103480001A4001682085112CC604CFEB32A005EB51
:10349000B5FC6A4162289575D3EF5D504442088DB2
:1034A0004084E785A810D498FD623C30A480464251
:1034B000A3CD2C65EE14965D0D91C6305F7A415810
:1034C000FDE0E377F930835F6B5E985FF176EE297C
:1034D00062CCC83CB3F3151988C73DFA98029DD356
:1034E000C0010D0976D3C35ACF1D7FBCB0FEDD8469
:1034F00001E0D29E97C32102798977916020B14083
:10350000266610B10526CE6E90600A4A8BF7477C7E
:10351000108309404CC91102CCACFFADB1DF93C19F
:10352000B3E7EB049D108616C064F5E9944484D497
:10353000066775BEFA820A98834E4F4CF232111616
:103540008F0210F320134121C6088DB020AFFB5F1E
:103550009880E0981FE9983DF3AFF1AE5CC1330B62
:1035600046466BFFE081FF3CA007F2201EC401F736
:1035700058100F6835C6B020C530E98B60E63E664E
:10358000FD804130D17F8349C382F344B67EB203CC
:103590007A01CEF3DD4F7BE5100C8081C6D33F036B
:1035A000B612E6B9B8F95113EDFB4946FCAFF31872
:1035B0000103108442C4BBFE21F7300916C286B352
:1035C0005C3073D32818FD11036041488135F3A0A6
:1035D000FCE378A99015B675C88088F97F1A91E345
:1035E0006A02253127643022463BE31861B43A4829
:1035F000862E9AC01040CA28F32524083281FD7F08
:10360000EC4C40FE2D4F31AD1CBC7BEC5984D99A5B
:103610005F317ACCFC86B3A4A0C8CBC8FB64882CED
:10362000E7BCD9C8201D17AD8075AF1C0403CAEDD7
:10363000C0D856BD304004EE9F82013D6019FE9E09
:10364000B3C046441B7C83C816AEC86B232362EC10
:1036500003A383746609CFF4442F0B61218D4C08BA
:10366000DE30894A2B86FFE3010409B8FB4AA781B3
:103670002E6EA217EAFC5F04CAAA82E2F597809236
:1036800020B51814A752E9C4D2028F080129E640D8
:10369000128C26EE9817A124981102F8A8FF4EE587
:1036A00030F0B66BC801D4C5F416D7035A1B30E40A
:1036B0008A0D9002A96667C80730A520E078AFA2FE
:1036C00098F0CD1EE9587123733098FA433CC340FB
:1036D00064E5C8E5729B4E04275B6258026266EAA5
:1036E00064F3C5D2F3822EFF26B8191004EE6B30B6
:1036F00070FDF5D72296886E62C8236C04489E5AE6
:10370000B108ABB3047E4926C2289807236141AFB4
:103710002C65981206D3C1B3758C82CD30F0F9892F
:103720007AB310CFD131B3610BFFBCFE7753F5C232
:103730000240779A7882F36AF379B595C94524FDFA
:10374000679BD381F3C030FB6162FF20C65AE498C7
:10375000FD31AD839338D1C71BD3ABFC14FBCC0C2C
:10376000DBFF89FF7F969EA03E2E6EED66ADD308EF
:103770001BE638FD435163B175F340A9DE8B011799
:10378000651A17B6B199FB093FCCBC9819D9CA0183
:1037900067193AE6B3FB3659137FC3A6A3403955E0
:1037A000BF78897D7F9CA679F59659B640339214EF
:1037B000E7FF9267FEE302CDDB09CDC096F004423D
:1037C000E520CC6C39F0FF2CF26838C6591B398CD7
:1037D000017A0DFFC40DD2CC41495610B104869830
:1037E00038F88D38C8CDA02B19FD8180BFE48490B6
:1037F000AB74DB01982EDF18FEF9B341FB6DCD01F0
:103800000402B9E394D36E666C4EB62010A3C21EB8
:10381000A9032040D1F880DFEBED82998C4010D4D1
:1038200011A97B89E6781192E920D2906602DFE740
:1038300047342F2010B638FCD8FA47C83014F42289
:10384000400248EAC3A821E60D90C1D0500E0A42BA
:1038500076FA488022B3F11D80140244F8120A0857
:103860006001A03F5F7F8642604941F143A1300D76
:10387000BDD8FC800124A681A7046F595785A08478
:10388000FE103208524820036CD34043FFCA60F058
:103890000C8451E7113002D21A1C24D27FA7754044
:1038A0008A400BFE88810FA00D70FD0A23DCB12B2E
:1038B000C8B214FF33E0C966E1052DC105E53497B0
:1038C000EA684061CD58FE363FBCB42020449404E1
:1038D000D2FA62AEFF112001B416412300405A858E
:1038E000C63CF3100482D9C9085B96B801AEC5B9CD
:1038F0002588650BEB37BF42426769E669AF921FC7
:103900007FD82EC75BA6A5A008799287A020C38880
:10391000D665E7FEE88DF95F18D447A7E5732F90C9
:10392000FB68CA67FE47188C7E4B96B940676C8C63
:1039300003B519FAB919967A633D7E7ED1A5D09C5C
:10394000DB3BF2F8FE19E3E02BB6C1084FD9C1C644
:10395000B5EB7BFC3BEF99F39817D56140BE85E052
:103960006CB25DA96AB1ECE0F808DFB6E9F5C220F7
:103970008B6E4702CBD5EF501BD3361980FC242128
:1039800067987049FD28F0FD9DF291F4BC218C5C94
:103990005B4FE731A74F6D7188FA4C2247B6F7109D
:1039A00039FB670255D304BB43E8F86841158EF92B
:1039B0000A92400597DB94A074F3210C48FE061987
:1039C000ACFF80EFB1A24D37AFFD35088C98B4A79E
:1039D000EDFA6016B3502FEB07400A7B5EF8B3FA9E
:1039E0007E52C5F9C901679918EDC7B0FE8C7D9468
:1039F0008E65749C11A5013AFB861F8359E9628D7F
:103A0000A110F918E35AB3B12032EE6C0818FBA5E7
:103A10002C04852661EBF60676B0B8FD133BF791D2
:103A20008011E5D4989DB710F8E32C5F7B2640FC0D
:103A30004D32489DEC10014492B75FA76587E36261
:103A40002638DC0CB3F9BEFCC656F0803A05DE9091
:103A5000FFAD67AFB988376E33713811CFF1DBE056
:103A60007B24A8FB5BC847F582D02FD263E52004F6
:103A700090288B453FEBE1432DA2ECCB903FFBCD53
:103A800082407E347D0EBB5C88A69611F67914B810
:103A900017A197AEB2A302CB8093207E1281FBB315
:103AA0008E05E08814FDE7C0A0DDA4019C06D708C0
:103AB00060082453A9DA34E040060B6109204B0565
:103AC00048431B7E7CDC4060C00C30F8F08004581A
:103AD000505A0C01D7FA850280F49684520122FCD8
:103AE0006C800520D8FC5F43100AA28501488940FC
:103AF00005F3020D8221DFC2C18010E402238DC6CE
:103B00000B61107E666C088E04C0101F526290F923
:103B10005480950060AD5F89F0045040082109444D
:103B200030E428F900F67A823842821D48B74A2EDE
:103B3000FB31161ED10921581E1A580193E7E9FCE2
:103B4000957DFF4093C2ED4BB43A4DCFD08411F335
:103B5000658976B5084E2CFB8880F3BFF64499FD45
:103B600022101621F1EC88FFAFD94E30BC0367F567
:103B7000A1AAC304890FE0425D0D2C788FEC55B4E7
:103B8000FD21EB7A659008E0FC9B8BC0E55D3CADC8
:103B9000F81F08F8F97AEA81E3D9668341208DEFAE
:103BA00056BF04E76E9953AB0780F22FDDF1B0B535
:103BB000FBEB2D3B9676242DBBA92043A312E72DCA
:103BC00058FD0467758B7903E14298D3040220689D
:103BD0004B65B610F0FC59DD922862DABD5EFD6FD0
:103BE0009788251E4275A0891036E0FFFFD2BC40A1
:103BF0003BC676AF5ABDF98379EE94DE9704BFF4E5
:103C0000770BD83F4DAF88219ED8F7C7C5FFB3FBD0
:103C10008FD978F96BD04075F86092A5A3203CCC81
:103C20001F458C4064B6E9C8FF5AE120C22DD8F97F
:103C300004B66B9D2CAC645BEC4F60B3C556CC985E
:103C40007F4EFE0380108CB629D30F765A78FFD9A9
:103C5000EB4303600C03A085EB3090406F99F1C8F3
:103C60007D67B5368011DD2A5008A3E0808549FACA
:103C7000D05AAF10DC8C0582DB88F98BD7B31F22BA
:103C800072B25A4B821F1BE6A05B0E40FFDE8041E2
:103C9000F7851E03A778E0410C08AC06E665100323
:103CA000FB0CDF4C0F949040F8DD07F020184E3CE1
:103CB000E0B91ADB38607932F946F4F71A2D8B68CF
:103CC000A652D823181D8B36A7A02979B3FEBB8135
:103CD000C09807230437B3208A610C77BA112C04EB
:103CE0002D0DFCBFE6118110844ED305124423B87C
:103CF0008A63EB20D80887D38AD305405BE14870FC
:103D00008CAFE40118AFB1BDB8D4E08CFBD1B406E0
:103D1000C8C0034307F33C8001280CC8FB06E881B8
:103D2000CF27B3D38004F0E9401EC0E00F7A2330E0
:103D3000FF01050B7AA8FDCBFC7F807B307E2FA294
:103D4000B19F0F9432A0667FCD771904A1ED117C4D
:103D5000F3CFCBB0FE805178ECEBDC8360FE8E09B4
:103D60003020169A9D0483FEA58111CF5366A0A131
:103D700002C09420E076B88CAE99F11A1179DF1068
:103D80002CDAB1F95C56825DDA016378B85B42BD2A
:103D90004D23850C20B1245F5752C030DD03682EBF
:103DA0002DFECD161007585081DE6021E6AE9C90A6
:103DB00064731FE6F28739E552FF056EC1642FF484
:103DC000063774D2EA14EF1419B560FC19FAC9FC6D
:103DD00038ED42157D8712F1390784A6F38BE06434
:103DE0002C39DE3F795A6905F056F9836E808819BF
:103DF000D3591CFAB471ED81F07E7F34F18F467F88
:103E0000CDECD326279345B314412CF35399FFC02F
:103E100088C59A13E080F8929E06C0281A140BBD3C
:103E20000CD5E3BBFBF3FA10C09A1024EF77B5A0D2
:103E30004202E176C09B41D311137EB20510801877
:103E40002120ED5320887D084430D3902F41EEF29D
:103E500071FCBFEF804D261EC0B79EE2F35EC5D851
:103E60000FE299B47998CFE01A200FE4413949F371
:103E700063AE02BBA1DBD848FF6E59BD10DC38D859
:103E80000C84A31905C0D9401859AD36F383BF5E21
:103E9000DCF9F8FAB21695D3869AFF04ED918C718D
:103EA000FD8A7FCC081A02537BE0488149BF4D222E
:103EB000D79A20A88B4D747009FDA063B05F20EAEB
:103EC000A508FE7F0901BFAC44C7180303088DECA9
:103ED000003004FF154BA0F5D1ECE3016C2B0DF481
:103EE000E5731C0A018604685C3B6681304125C08D
:103EF000775FBEE6B49C9D46EB27A6455BE8C08095
:103F0000CB1008B34CFDBDF0FFE041381FDDEBA541
:103F100010FD4B07E430201CF3ECF40F4247F8820D
:103F2000400CB405D333C562F684A54186E0DE9823
:103F3000BC709F7EAFFF84053480E45D40A2B3EE89
:103F4000E9B1E7CD041AF308183997D18267EE4634
:103F500060018CE6A946D1245AB5D8F49848D7B365
:103F600080284602E0160144FDF01C1018427E2015
:103F700008012240760C30107B653011BB056BA127
:103F80007A088004F198C60A085A88FB98F8FACA99
:103F9000E001466BA81AC8C6A50341BC98EF15C539
:103FA000A3ED98413C9FB549CB1004BD780292190E
:103FB000E0C691D330651EF0AFBB98A8FE806EA11D
:103FC000406CE3729EC21B9CC9200482B166051836
:103FD000301F16C7F7F50FFFD672410CF4E4FDCD84
:103FE00026020604E0898A406D1926D03BF488B188
:103FF0008016B3843456BC7E9210A360082CBEECAD
:10400000B8DD5CF3E8B90DAEE899F9A6046F7399D1
:10401000232A38F7A0051C8010D2BB49DD51850149
:104020005089E63120902951E50AC0E3B3394ACDE1
:104030000408F325CDB3B0FCA6DAD0694AA65FF533
:10404000F205CC5846A9FF95B529F6A2FC5C396665
:10405000FD4015DF0801DB9E78F6E378E0C1201C07
:104060004BDB9804E412EDB130DEEF4BE0704CE630
:10407000A807E0FC90B7490E29F9F7F89B20E081EA
:10408000F9F3205B830A097CF614C0041A2913F79C
:10409000874810624AB3417E6742040A69228C57FE
:1040A000C62B30D0CB5EF71B0D35516AFDCB6A2293
:1040B000FD98100512195B242C041820E4EB382815
:1040C0008C4BB7AF427B98106202216E8130E0309A
:1040D0004B663BD384EFF03DD8FC60B73C80EB8C63
:1040E00003786990E83530409ABB19F31B12FBCF77
:1040F000FC9877E00178E4C89CC60916C40979F3F6
:104100006995C8FDD90806FD3CBF212BF1AEB24927
:104110000A6064F8625C2FBF08B16401DBFDFC7BC0
:104120004E0210BB04FC7E09FBA0EEA30246D79C06
:1041300012601147D57D5F24AD0B89206C094BEED1
:10414000CCCD5C5A00E08C0CD3D9F898423CDE040C
:104150008CF585FD20EFB010C0F731600C25FE9086
:1041600031348042C01852F3A90D25848897B33F9B
:1041700030C0025B040B62F822018085348B3FC89B
:104180000A44096421B98166D8A3FD936E9787BF5D
:10419000F230C2D8C8C7FD9830AC20A5C8EF60AADD
:1041A000BFFA657B38EA35060483C93DC0E0E808FC
:1041B00003F0F31AFDEDE489FDCDD9C8FC0EC00370
:1041C00018100CF0D33C9007F02000DDE48BE538AC
:1041D000B7F924373481995C3DCF0CA1B381A4C0D9
:1041E00077E5AC0A0189E6C804BF0884E0100590B1
:1041F000E60140D3B0BF9F04F2184013699C3B9581
:10420000B3FDCD6A1046FE988501449004FBBE22A2
:1042100000428008BD984046F327C9CA10E137D054
:10422000097FA8124233BA44EF11EF012448EE701F
:10423000FE60ECBFC8C6989D0F99F3900556B11E5D
:104240009F5698A06BC8163DA8400368DE5E44F3F5
:10425000C60F07027222FBFEBC71178E3C08EDF3FD
:1042600033FC98C4BCE5ECD2C8089620ED8EFFB8AC
:10427000EFBC8BD73DBB68FEA0B6A66F0BB12C9CE4
:10428000D3051412285819936039627EE5BB343D7A
:10429000C850108B7978C5BFAB1558B7992C29FD3C
:1042A000A8F918CCE002FC88D67063A8BC245FE5AE
:1042B000A6436FC40D80B331C7B5D7B410135008EF
:1042C000C018115C3084849FD3C1020A4108EE619A
:1042D00004215DE244EB98104CBCC8D1D459C69B74
:1042E000FF82407E3730CBC8DF1858F8804130ADB0
:1042F00020EB6018882FC8CDF507DC509583B0E619
:10430000B878B8FCED1C8805F0203A84F3A5DBE012
:1043100002E188D3F353B36AFB88EF092080C9A177
:10432000B32B3AA271A259E130EED98CA8FBE35B22
:1043300029F9210102C00464FB10694220A4BF874F
:10434000D0129A260268B83899FFD3FEF0F03102F5
:1043500020C2CC7608970CB7E5F57700106104B160
:10436000F71DFEE38410040540023450C19321453B
:1043700068FCBB488848121024DDFFD749F9E001EA
:10438000C52C88CEF08090007A360FE4ECAFF5AE05
:10439000C92523F3819EB44ED38004F0B810E5D331
:1043A00064DFC9AF32066BBC98D3D2E5044DDFABF6
:1043B000244D14BB3B605F97B1010FA1CBD366C204
:1043C0002018CB03015D5E940A2ED97F333079FF2C
:1043D000A3A8BF08223EFA6012288851E846E87870
:1043E0006BD9C880E4B476D7A020BF989A00236028
:1043F000044844E18332C602A6D7B317FEA6347739
:10440000890394E0FD228D883100A2DEE5C80123F6
:10441000E296207F56FDB98F012120D4F018110BB0
:1044200068B44D24EFFE16D0080A41090CD339C8F0
:10443000C0F9DFBB30ABE6B4DE61D36BDBF108FC67
:104440008B58B0C7113021FE6BAF042398EFDAF31D
:1044500018FEC9C8CB4A9D80FF8C0CC80115FE9878
:10446000BB80CC8B40B9BD620CEB800520E18C2079
:10447000E08EF56B40E0D31F9CC8C8FFEE53B0A0A0
:104480002E6615FA67D757F998788B2C4C04262599
:10449000C331E1105D69126075898809D1B1BF200F
:1044A0009A48A36022B82D510FFB0488D71002B39D
:1044B000A50C01568426B75912E7CF0920019B416C
:1044C000CA0810EF640431068005739A50103284D4
:1044D00005786BC61C181701049702F3EDE366C854
:1044E00090E419C4AF706DC5803C3C9822F1982CC3
:1044F000623E9859C87E79A81A200BF3768AF90C87
:10450000F56B40F9C8CA50F8F0F398FFB160288DF8
:1045100066DB4FCFF3013FF73281703025B229B708
:104520005A7117EDA59802F3EFB3FAA00501D11166
:1045300006F7770444280D11B3F3CF00042C0209C9
:10454000B1010F2E984630D0D71A49FB5F488085BD
:10455000FF2918FB091360144CD0B2F8FB203082FD
:10456000927943C0B3F5118B044211116486712313
:1045700088F3303022AF244E9851D38245FDEC5C55
:10458000C2408F689878F8265ADD1C73396ACA9B36
:1045900003C80816C8C9ED750B84BF01ECA28F6B68
:1045A00098F0FC28C8ED141EDDC010C25DF317E2C0
:1045B000801819D9C82CD3F2B73FE0C198AD4ABCD6
:1045C00004F3F598E093EB9828B64907460104BF39
:1045D0001A3FD5A80134041681D098AC48C7BB80D7
:1045E000B845DECBF972E0DD060AEC9860132C14B6
:1045F00040AFF31F98D31A445360022DE66562F969
:104600001ACBC8B9FE112FF1D151F3326D40A9B2C6
:10461000C12D80FF2665F6A78457D3B09842208B22
:10462000AC880E1CB930011F020477ED7F7032C8D0
:10463000FF43C519157898CD39F139C8D92BB6E0A3
:10464000D23D35666BABE801AFB152D378D300CC25
:10465000F298F34B6E3797E5DD06B657C82DA0806C
:1046600056EA50DF8B699AC8182317E055EC10B74B
:10467000353019FEE0982216AECAE193DE7FBB30DA
:104680000946C12218013EB302208805D89DDD11DC
:1046900080F549B44004FAD908ED3748A87AFBD32D
:1046A0000B61124C9BF6B0FE1AD32B3CB3BC96C5E3
:1046B000FAE2BFFBF84ACF802CE2D63F08DCF0F3E9
:1046C0000590F3625DAE6CF779D3A1A8111CF36479
:1046D0002EB3EBCCD16057F3D3439127CDC9BD4B5B
:1046E00078D9FA24EB661018586620DBD3FAF9461D
:1046F000CF24312CDE306CFFD8FB6FEC8155ED02FE
:10470000621ADF7366C8FE705E16204405C6F37930
:10471000B59224661FF3FECC91FF20C123FDCC98F7
:10472000FF401E69625D5D6117ECD040F59E80B36D
:1047300007F0FD67FEED03230C7E84F678B8FACF10
:1047400016E84BFBF967FDCBBF51FF20A9D31B2017
:1047500036CD60F941C2B1528D9A1B24A050AA7681
:10476000E635ED7E20F8B1D984CAAF202E6A321129
:10477000B72B0F6A70EC88FB80A5C001B1012CCC6F
:10478000014FF77704166E59E60B8D48F64EFE631F
:10479000C0F840B6515010B39263B10834B3108CD6
:1047A000B323635CCF8102F2E7F144FD805FB4790B
:1047B000C512F9C1216FF711F3E34F316A2D22625F
:1047C000EAE001ADFAF460FC0922097B9AFF6080FF
:1047D00001D346085A0AC080259F65F39402044419
:1047E00030E740B682A820B3E02B08966024C04E84
:1047F00013D05001949188B6F13410010AE61BC120
:104800000C36C8FF1D43FFADF43812024062FA4176
:10481000602206C07E5D034019082144C4BF810A9E
:10482000E80281904880822D2116923646AD9B8CFD
:1048300096FE715FD63C906DEF36C61623E67AFE83
:104840008246B766B54488FEB407F25AE99002265C
:104850001FF0F25DF376F004B1025DDEE2109234F7
:10486000C901A666717D97E69814F6B780C47BE609
:10487000F0B1F981D0666267199B8A790C9866B0AD
:10488000FDBFAC2C635B6198FE132F6EB71F3188A0
:104890003DEC2D840845E83864A51901B9BFDFF661
:1048A000E62D3805B60237A658F5E09F187DF9FFCA
:1048B000E6DDFC8647AEFBE228FF6E447E5BB599E1
:1048C0008BDACD63FF5E7F2C7D0A5356210839F5C4
:1048D00085F1EF5887E0CCF85721D8B18E8B2EB2F6
:1048E0000BDBFFB8FC3C6AF28731FE239C530115B9
:1048F000D68B48F8CDCDA130E60386A035E208DDA1
:10490000CC3FF5D639FFE2CBEBD9D21063FA0E7A61
:10491000E404CEFE7940F8C4D63A801975F4717D6E
:1049200097F61E19F50ABBD6B8FF62EBDD0538EF26
:10493000C7FD27906DDDFE300284657B968DE672A3
:104940007FB62BF8FE718D6D9684A6277AFF585B93
:104950001908C398CD92F508F5C25DECE002409FBE
:104960006ED8F0FD33143B901079B0857B92BD304A
:10497000FA44B1F963DE1F581A119FDF7F96807FDA
:1049800098C0CEE9E302E701622D45B8FEE6C7FE16
:104990000FB122AF33067AB4CFE692C8FB59982BF9
:1049A0001F10B8D151E4878A69AFBFACED4085AD27
:1049B000301AEB3B6F50F84043466FD8D484B18136
:1049C000B98E9844B2015AD968FC59A82006DF3A3A
:1049D000B544D3885A911E08D354CF82A29B08EFC6
:1049E000104CDA2EFB8D4558822EF722F54D2438D7
:1049F000F7414008F202FCCF23ADB74C8A37E1C043
:104A0000DC65B48A74FBEDD230A010D09C8D01A877
:104A1000405E80A01482F2C91AF6D6D90520E81BA0
:104A2000ACB101F84002847C394A06138C28030299
:104A3000C00A0C5A7730D898F97E9112044244117A
:104A40007807C84885842DFF2004A501308002CA5C
:104A5000FA40480CA160FB233B9F382058A28025D8
:104A60000B29690303B4B98130408A05966202FAC2
:104A7000155FF95A656FA271F28EE123592E11E28A
:104A8000130AC792E108C9F3E12BB9B1F8FFED6B46
:104A9000B04F17C5B9E6800490F140921909195832
:104AA0009DA7ADE542BA68CEEE0B78F8CEF50110C1
:104AB000843D1C689AB58216B38BFD17CB224099B2
:104AC0006DD85514DF9EEABA7885B2D4FB66036BC5
:104AD000F26219C5F7C4022C8C47B78018A042C2F5
:104AE000312CF645E8F904239B13101B585E40B6A1
:104AF000F6DFA9FBC6C8FDD82CB67DFF0846852386
:104B00009D67C8FAE6F658D8EFD7048058AD01C7BC
:104B10001BCCEC6B8CF3BAF2D1A35080FCC366FFC4
:104B20000844448EC40520B20216EEFE2FA6D3E63A
:104B300011116D74EDAE40FC96076127B29F200104
:104B4000C3D8D0B800DF5BCC88F82CD6C7D6FF011D
:104B500026F46A16DAF8FBAFBB063026AF56A5106E
:104B600079EF90197F1B64E54884E4BB0D48890404
:104B7000EFC97BBB6EB34452EB7B0EA168FB0C0DFF
:104B8000800535154EB38AFD28149FF70580220154
:104B900088492668CAFCA008342048FFB7A9599C58
:104BA00010282560150CA6D42C6466F7F96010480F
:104BB000C2211D90FF60B7DEDEDD6AC0E4C0816007
:104BC00015562AB581C018B808C02A5CD302D0D7C0
:104BD000836013D3F3B8F96FF734FCCBDEED0AF240
:104BE000DD1160B11518A2B3888269DC01D3970882
:104BF000D71C57D3C15020F678FF8005EA4422F233
:104C0000D53FAD786261449B040815771902890885
:104C1000F432E5B742C0F3737D60445FEDC31041E9
:104C2000E3FBE001B55D4319FBD63C46F302789BFC
:104C3000DD40341340B4F0AF169E46B2E0413C6410
:104C400076305A62F399C6013C632D669A3403624A
:104C500051930166EB83201DF43A20BDE3C6C047A3
:104C6000D7E4C89B65AFFC71B3769D24E08130A783
:104C7000BB32A2600A17EAA34DC008970430B330D4
:104C80001177C2081DC6DFB4B01070FE01B7F78CF3
:104C900008687A5334E7BD5A4403E608410CD1143E
:104CA000C47A139ED3841842017C8C2D249094697D
:104CB00006BBD71243A89805C55CE8B36AD9AF61B3
:104CC00057C980D75FC974933AB20C0DBFCBF4AC0F
:104CD0008BCEA2CEEF688F60208690EEFCDAFE8C41
:104CE00080BCC5B423239E731804836051B0999D82
:104CF000AADF0424A9BD1ECADB01F62219DD24EEB9
:104D0000D304A4FDE7FE16A9CD40B3D704019EC588
:104D1000A74A66216CF8B02053D20018E09E52904A
:104D2000090221FE9DA4C64128CD66B3FFBF572DC1
:104D3000BB85400488FAB0101C1320806629D3B1CB
:104D40006DC0C608034C558404BB3630240AFF03EB
:104D500060828480413ACF89F85A9D107B987940CF
:104D600025EAF3CE2E16C080BC986CF614E3B6D3B9
:104D7000D3F019C0597FAF0B1EA51632400E532C2D
:104D8000D3E4019B0CE7FE2333B502D6846DE29891
:104D900099C5774A307F77641083F19F7E9FC4FF67
:104DA000A27FCFFEBFB1F9DDD913F160114C805A5B
:104DB0007A9905560C587C9657C6EBB9D0D30E237A
:104DC000F6480645B565C0CE28501940243481F711
:104DD000B321E8F89F75DD712A0178D3D703461710
:104DE00011055D5C30B1253F7798D0204AF6E4A0EC
:104DF000BCB6BFA08A9C44BD020DCBC5344F238EE8
:104E000030E3F9B2CF234EBFF1CCFB73769341FC74
:104E10008EDD100CDEB7E0FE60DF94F4326E48BF2A
:104E200006459DFE78ECC00131F3BA959D70D5B171
:104E3000E7E5703D0B06F830F1E6F3D960FA0D9224
:104E400048111E18719F183D60010C20B1104F5F72
:104E50009880E498FFCC51B06C110A90F2D8EF2AF8
:104E600021300102FD136281FA37F0981A0A22718B
:104E700049088020B14C04C3627E988F40802ED5B3
:104E8000F8F3980242483290A614F18801FC0268B7
:104E9000F8E026BCF4DF8010F0D66705EF06C04FBF
:104EA000830F608024627E983B7016C48EF5F7985D
:104EB000073240DC0650565BF6F61090FB80471F29
:104EC00096E298D3818B978478C51627EA9840EBB1
:104ED0004442114BC5C442C9DAEE08DB38FA00B3CC
:104EE0009982F22C69341B20D143B1FC84D805127D
:104EF0008AB32296D6989F0CFC11300A20C002C8B3
:104F0000AD03D51F80113202E0B6FAF917C3BF6CAA
:104F10009B308006F5A32AE10141A2EC04064BC6B2
:104F200098D10278D6280880DD1001827A3E1A27AF
:104F3000230A21C08124F6B41064F847EFA660E389
:104F400030F84C02D2FF0EEEC63749226BEB90C010
:104F5000F63CD1FBF0B7FCE6530260EFBD66B31C34
:104F6000A690E40484C4B9CA0C7F7A64800358E232
:104F7000D467C60601F3D003470A7E9FB088660156
:104F8000F49A6207703052B390AB836B01ECCB5351
:104F9000BF12C014184020A2419124C6408049A0ED
:104FA000CF0E9075C409A3FBCCB444DC89AF455D3A
:104FB00098B0D8A1421123A0114282B1223F1F987C
:104FC000C58148134AF9104C8249B0AB5E63285C36
:104FD000A7B2712EE1FDB749207990AFA5D2A0D23A
:104FE0007A9803F5F3048AF030AEE06EC70FE0F76D
:104FF0009812201E40C6E60BD32C0EE0FFC8EBDA59
:10500000BC4EE3B67E96349327E49824E3108320C5
:10501000BB4DFC4D7C7FD5A928B3F6D7FF7F082C6C
:10502000889130CC1016F1983A20F8020158308A55
:10503000B34152C0B10B52E2B334487EF329892107
:10504000C84A0800B9B8F90B78B3E4E0834802B461
:105050001C0FF488C0282190A4F3D8977919D04266
:1050600002D6233D42A1C5348833B692EC680F25A1
:10507000A0FB093602D0F87E2C3081D584779FA61C
:10508000D63D2DD4B1FF6A34477409300DF75EDB8D
:1050900090820C34C0FDF76AB359C837FA382BF543
:1050A0001CDC3E4003C03627EEE5067020FFA7D982
:1050B000191C0804440CB35E129181D420FBB6FE87
:1050C0004C0B62E695340AE191109960B6A893B151
:1050D0000217B326840235230AC34F6D2221C42E42
:1050E0003DA66609F8B01068FC844D7F4B20E56250
:1050F0001040E4E85802093C412CFB4F78E440485A
:10510000DD0809A2231590C410CB42C4709FCF24A0
:1051100088111020C6E0FCDA010D7B28037877AFF8
:10512000A53D7D36C08058100389F030EBC407B030
:1051300029A83C0F3E432C8003106BD3045E050B63
:10514000E0812C6B78FCCDD2007F7022400C1BF4E8
:1051500056A3D2F314FD7F41DF841DF9C877DE7FAB
:10516000197B6030F941B39A72A420054C71CAC210
:10517000E2697BD9218008147EB30680821008235F
:10518000F7F5A2201099C0AB11B3F01288C484B90E
:105190004298FCCEBF31E67E9168078524847F73F8
:1051A000704260B681C70D202CF34B9C30C488023E
:1051B000C4C108FE80A80114C0421873640520EC25
:1051C00081E1A00906E06CF937E59761BA77105ADA
:1051D0003998F8C2FF208D10BF5F606BEA5EFAEB72
:1051E000244FBCA7ED0511A2BF8290F9E4188FA649
:1051F000980C98E0061890BB600F5FDF5F55302E6B
:10520000C89DB4AA6C1BFB086A669840B3248DBC89
:105210008C73EB6812F344625E98590CC82418E44E
:10522000DE140C805137100402C722405CEEE644C5
:105230008485B9BBBE32D73095106B249662809FAF
:1052400034AC61F6A202102125CC30260471039AF9
:1052500013BC200872BD9808C9010B7CFB5BA9F642
:1052600069FAE08183195079030368AE802F50D129
:105270004FD051798B8967C890073EE51EC8033827
:10528000E2E0E230F698C883EE483040B957F9655D
:10529000D5AF52640540DBD79842182E9E6EC806E3
:1052A000ED7103DFD85F9F8E02E1C60B7FA897D90F
:1052B000195E30D9ED13441272AF79E40802200A66
:1052C0000C2624B39DC04984582EC021F8E7151739
:1052D000CD30020368C39C1780E8FE46FF8B3FABCE
:1052E00001241030924AF51ACCC8140EA48424C4A8
:1052F00033C834FA1240C08802F8EF992D24A6DF93
:10530000A21691BB7A448528D6B510FFC9FAA5D25A
:105310004FCBC87E2F2331932319443761A14723F4
:105320000C2FF35D320CADAC48FB1BE07C0DE5703F
:105330000401DD267218AB70060EC458438BB310FF
:10534000075E98BBC09C30840138CAD3C2CBD3F966
:10535000B6B6FF2E98BFDEE8D818BFCC0673B35898
:1053600048086F82812009D8021080B3FEE9122814
:1053700058041324EF0298BBBC10AE402032791EB3
:1053800031215AFF8DABBBBC22AF84443802456645
:10539000F8AF42BBA048116E191081F498610C411E
:1053A00040816602CF011669982023CA60021CFE64
:1053B00004C0F88D5073C819070362BF403AC81E75
:1053C000D0E058BD68011C8979982B301E2EA8CFDB
:1053D000C80CA00781110EFAC083784003E230CCDC
:1053E000C80446FE98B540CBE8F2F58C4E4FFE7EE1
:1053F0002006C1808FD3FF8C31100468C669DDBEE2
:1054000091FBBFFF4A1362022A4241D3B020DF184A
:1054100008898B0AF68088091025DF6516D0049864
:10542000C16053E3210C10FA340245C422BAB3F42C
:1054300096A03B0896B38ABEB1FD0221200496884F
:10544000DE01030B6A31D304F6950823CA3046E522
:105450003049DB9388A0C8F7988D2250813438BF3B
:10546000FC6DC3BD98882DE7F9380C710C8DAEFF2B
:1054700041F3987E2F663B09EC7F8F2298AFF2E3D1
:1054800060F30370760E60407919D9D2D607E1A394
:10549000BF0320F61539E098855E9825F311761C38
:1054A000FEE3366F099804F7902001063D18036C5F
:1054B000020D7E9312D4E3D8AAE1D39DC14490D3C8
:1054C00083087C118409658AECC68C20E80C21D8FD
:1054D000191509651E0ECF4944804DB26502C10EF3
:1054E0002B448523CBE63A5757A6D6968CBDFB6452
:1054F00030015E98A000697F03600824A095845A5B
:10550000A5AFCB6A0123D2982CF3FE573051BB983C
:10551000400C105E16FB9FC566EA9834EF96037840
:10552000202BBDC298FE11001EC483781E0B629D05
:105530005618FA04B7C999E38C7F6E49042FF3A576
:1055400077A988AAB350DCB3D36F09D6BC0401DBBA
:10555000D76B60BACC20B0F81719F935192362FE61
:1055600033512002FE453093A182C5B26AB36E1159
:105570003CD30406D45E1908A3EF7D5849341210B9
:10558000C1E2B36960D4816CF8FD6FEC03F3B3FE44
:1055900008DDF02066F314FD20769759AE8540F3C0
:1055A000E738F3CE23A4ED53A5C0E0B318D358FEDB
:1055B0000C2E58FF04BBE698FBB028A866C71B3921
:1055C000A3FC25D522018899F3E6B1FFBC67A5FFAE
:1055D0008919A90693964E2E2E79B594E0B780F3DB
:1055E0003598D368F88D7616DC515BFF9844A7DEBA
:1055F000CC91B3403E7DF6B179FE8C1383EF24F35A
:10560000C31FEDCC90FFFA3F2343601EFD4708E225
:10561000DC6E8C63E6D650FB8CEC3D37FF6D7CD89E
:10562000F98CF1A6960220C711C540DA1939AD7779
:10563000D0FFBA1F04D439C7547C281D6DFD3A0829
:105640001096D2D9A4FA8056D9468027A7631BFDAD
:105650009FE7D4A7EE5F7EC08010A0A0B34CAF96AA
:105660005589865A32177E6FE38238F6DA2049CCA4
:10567000087A19FDD80333C948D602BC14A6C4FC65
:105680001A8FCA049AF3DDC8B0A78956FE08E90448
:1056900048FEBA107F834024F7F088EDF0D308D598
:1056A000805C3103B36FBFA7C847FCF367C714FE24
:1056B000FB8059FF4DEC02C0DE85872C6C8620BB39
:1056C0006A5426D4D6242B3D13E0031C10724718CD
:1056D000D0349D7B92A206D92018E4C10C10B30DE2
:1056E0009112BF8EE5263010EFC0CC820B900903DB
:1056F0000B3467FCC7F29F205C16973C50F4861C65
:105700000C09B4E7C00B90C8B2055F2AF883022CDD
:10571000D0FC8DBE7FDFEFFE31A77F5BDB887E5143
:1057200002DFCBFCEFDEEE2EB0FF8D548FE137BBF6
:10573000F94FD862597BDD1188E79803C5BF82F61F
:10574000BB209CCD77F6C82CFC7799233C96614B07
:10575000FF018471FA93ABAF1063E766410410C692
:10576000F6DFBE4F2B63C5D7D6D8F5FEBE9BD99EBC
:10577000B441629C2F6E9E67F20F68DC19B28CCB2D
:10578000E39843AD12E37C3B8DCFDB71F0FE165CFA
:105790008601D86156A05140D888A6767B80081132
:1057A0002CBA20D25FF3E525FF060241D49AC6F851
:1057B00075DC02D3ADB9F57B38B2FE92A51823D4BF
:1057C00015C5B648C6FDCCE0B1FCB3811FFD810410
:1057D0009212E504B8FF6E9CBC63FB8FA340C71216
:1057E000CEA3D9F9C6BEE5C70CFFFFEC1230FDB35E
:1057F0008F3C2BC5D6EE2022CED8B8F9586B67ACBB
:105800009C01A5CAFE86F9D859366617AC5864546F
:105810006E6619C2EDFF90FE8AFBBF40186DD63848
:105820003FEB970873E9536608FCABC7CBA4ACB158
:105830003F3FFF2EDED599FB8CF8665628E6964151
:10584000C57F9F25FD6DA8FD864C760104B3B98305
:10585000ED8180B1D89519028FACE590C6EA4CFB7A
:105860008C32A54D28CBFB501E6C6540014BFD27AB
:10587000A8FA2089AE864231FA22E5371F234E79F5
:105880002DF55096FFE158416646D8499999F9AFF0
:105890006BDD620490E6CDFAA6E5F0F930F6A89D3E
:1058A00036A0A82480DF42CCE0B26C4066CA5E20FD
:1058B0000490A342AFF36650BDFEB7106BD0B6DBC9
:1058C0001D72965F25BD4401200C74BB08D7D740DC
:1058D000D22DF4108FDC2C3CE501A8FB782966B0B2
:1058E00074864B40208659D8547CFB033043218674
:1058F000AECFD5BD0CC97052D5921AB392311818DB
:105900001C0A88680989810DE70658FAFA1A2836B0
:10591000BE129F30E9148032878A03840648CAA0E9
:10592000FB222A396671CF39046F487382CE75C85D
:10593000CC81282E0E947F8F4C87496DA0028F0159
:1059400010E950B0FD1C2067F4E646862C79191A40
:105950003319F93F5C281604F6CC60FFC9E58410C2
:10596000959B7D108CC6F0B4E486BF46EFCCE52F46
:105970008875A412BAFB829CE260F810B1B77E5819
:10598000A140AE4783DA1002997C5ED7030CF80180
:1059900085DAAEB1807299F64B010CC43962084BBE
:1059A000FE0318379AF9AA5D6FB542CDB6A8F99BE8
:1059B000DB40102831C5F840DFB43505FCBC22526D
:1059C0009BAA50F933FBDF20086FB1FC93B22BA0E8
:1059D000D1B27F56C0B0F8DB4F63F321313BA8B89A
:1059E000FC11C2ADD80D04AF13112778FD6196D814
:1059F0009791A436FFC8FAFF1AA380DB08565D20F2
:105A0000E6AE7FF4ACD8FBA362AB300217F8CFCC84
:105A100053DB7458F919CDDA048E7D7D9FEBD7D016
:105A20001A16B339281767E5F92EF310DCB5F8D24A
:105A3000FD065518D1B324818822CF1014F84943AC
:105A4000084E3E050411C457A126A08B686C852022
:105A5000A50CA036FCE0FC283ABB03F6F181321914
:105A60009B6084043BBD4D68FF606FB106227BE004
:105A70001002AD80E4EC01C0F0DAB3619943FEB3EB
:105A8000DA8007B9F40F8241F3A3012B21E2FE9ED5
:105A900020EE081610F5B304656A34FEC02266BD18
:105AA000602D01623FBBB54677EB4C8009B6F81814
:105AB00004D96FCAD8FA51E85DCF40EF0804CC5939
:105AC00006CF44E1A113018259F4E4B3C01610D704
:105AD0007079246B88F4BF02876DFF0590F86080B1
