:100000000C944C550C946B550C946B550C946B558F
:100010000C946B550C9472590C94D6590C943A5A12
:100020000C944D5A0C946B550C94A4580C946B552D
:100030000C946B550C946B550C946B550C946B5540
:100040000C946B550C946B550C946B550C946B5530
:100050000C946B550C946B550C946B550C946B5520
:100060000C946B550C946B550C946B550C946B5510
:100070000C946B550C946B550C946B550C946B5500
:100080000C946B550C946B550C946B557F7F7F7F54
:100090007F7F7F7F7F7F7F7F7F7F7F7F7F7F7F7F70
:1000A0007F7F7F7F7F7F070007047F7F7F7F7F7F4A
:1000B000077F7F7F7F7F057F047F7F7F7F7F7F7FBD
:1000C0000F7F0E7F067F0D7F0C7F7F7F7F7F1F7FDF
:1000D000177F167F157F1C7F147F7F7F7F7F007FB8
:1000E000277F1E7F257F1D7F247F7F7F7F7F187F57
:1000F000207F217F267F227F237F7F7F7F7F7F7FDF
:10010000107F197F1A7F1B7F137F7F7F7F7F0818E7
:10011000117F127F0A7F037F0B7F7F7F7F7F081015
:10012000081F097F080F027F08197F7F7F7F7F7F6D
:1001300008027F7F081308117F7F7F7F070C087FED
:10014000017F080B7F7F08077F7F7F7F7F7F080706
:100150007F7F7F7F7F7F7F7F07037F7F7F7F047F1E
:100160007F7F1C7F1B7F7F7F7F7F7F7F037F0810C8
:100170000C7F247F237F137F7A7F7F7F7F7F08110F
:10018000147F081908200B7F7F7F7F7F7F7F7F7F11
:100190007F7F7F7F7F7F7F7F7F7F7F7F7F7F7F7F6F
:1001A0007F7F7F7F7F7F7F7F7F7F7F7F7F7F7F7F5F
:1001B0007F7F7F7F7F7F7F7F7F7F7F7F7F7F7F7F4F
:1001C0007F7F7F7F7F7F7F7F7F7F7F7F7F7F7F7F3F
:1001D0007F7F7F7F7F7F7F7F7F7F7F7F7F7F7F7F2F
:1001E0007F7F7F7F7F7F7F7F7F7F7F7F7F7F7F7F1F
:1001F0007F7F7F7F7F7F7F7F7F7F7F7F7F7F7F7F0F
:100200007F7F7F7F7F7F7F7F7F7F7F7F7F7F7F7FFE
:100210007F7F7F7F7F7F7F7F7F7F7F7F7F7F7F7FEE
:1002200008277F7F7F7F7F7F7F7F7F7F7F7F7F7FAD
:100230007F7F7F7F7F7F7F7F7F7F7F7F7F7F7F7FCE
:10024000017F7F7F7F7F7F7F7F7F7F7F7F7F7F7F3C
:100250007F7F7F7F7F7F7F7F7F7F7F7F7F7F08158F
:100260007F7F072408057F7F7F7F7F7F080D070B37
:1002700007237F7F0713071B7A7F7F7F7F7F7F7F27
:10028000071C7F7F7F7F07147F7F7F7FFF1F627F39
:10029000C23C006088FFFFA0089001324006C8C63B
:1002A000001985030AF84414812241338AF320FEA1
:1002B0000365A00C942900CD7FFF0C988132500675
:1002C000CAFA541930036653E0A9C688009E98D331
:1002D00064800C40B9FCFC0014C002583F0B600164
:1002E0002CC38004020A1E027069F340F30590A03B
:1002F000E6C06726B312E05060DBC0432868E0B96F
:1003000050D33430D3B02516B918B3B2FF1006025B
:1003100040333DEA400208060120360480D1E0085F
:100320006530E4D8F9182433FF98FFFC2001A19828
:10033000AA2C8039FC438B360436360D79CF0C233A
:1003400016D0690A237316251443ED56102451F074
:10035000F3B958FF06C2044DB74008B34E200494C9
:1003600003FBD30096EA9A4121AAF88852D1C69895
:100370002F1001300306A00E9085867713B1F98205
:10038000099DFECF300139F11A4013DBD181045BA6
:1003900024694AA52C2201C4F43467A86634C466D3
:1003A000B348E70C2CA43F048206C010CEC609D285
:1003B00025221480D166F896C8A918190302DF6AAD
:1003C0007AA31054920F3062C45AFF8020007A52F0
:1003D000953B088FD35CF3085FCCD0FAF33CDCF894
:1003E000C0B39311B3BD30E4080621F38AA165F3CD
:1003F00042F39EB744E0D339700178C0B98016F457
:100400004FD30362400CCE6001E7F0FE6E99847317
:10041000E0981023F92C77EE8526085773384C2086
:10042000C6046209B301669C1071116CFEFC844520
:10043000204146D02718010AFC600240811005F2D5
:1004400057FD8009E3FFFD3D136082840232B9202D
:10045000C4AA258032E08811C6C49A194008FF80DA
:100460000280845FF18E064E753C09013E24407E79
:100470005911F0FDE041BED69950C88346AE0BFC41
:10048000D08007F0201EF35678100FE63CB308D951
:10049000B63C2032DF401EFFE9E2013C804CC60240
:1004A000C06F78200B2426F3F4FC8806CDBE3C41B7
:1004B0007369EBE1C1BFB1615FA89601F726662DB4
:1004C000B6FADB05C028F981F7806668F8FFB386C5
:1004D00023462011B311DF559F06E090020A604BBE
:1004E0005C01FF335247FF28F813FF93F911C00452
:1004F0009F191F01142802C0883032D322A67AD354
:100500000140846D5CE0F93E2A78A54220091E2551
:10051000B0800412FA7CF9E96A5F031E12E4B3505A
:10052000DDFF22D41CFFE3112080AFDD161AC0C00E
:100530007001047A880650F25EF4DE4545EA98CCF4
:10054000EB175FDF9A03D6E657AF1280F6E550420D
:100550006EFF0C4D6603FF06FE116FE78FF98BA14E
:10056000CADF45C8C8FB3028064150A58326C8C746
:100570005C2FE1812FACA0B2B3039757266602FF30
:10058000449B3806E0BFCC785D4171F37E7504BEB4
:10059000922664017B8FB8FE08679C236024E84C98
:1005A000A0809DBEA9F2FCF59802C419217A4611DB
:1005B000391A5E08C3A6D09958FA687173F32602F7
:1005C000CF1498D360082827026153F80A05E4B3D2
:1005D00002C9A089B8F98A84965908AE3A099108E7
:1005E000E1B35344A53743F874B08120C02E48F4DA
:1005F00066406F313021060B02194319B7415F3253
:100600008FF9E0053AD770201EF6D2400B8B16D238
:10061000B880B0EFC4F9E0BF2CE8CC21F166CD1B67
:1006200060808D3C07EFF2001EED34E4DE9880B070
:100630008BA3C3981FF30870FD8409AF8BC5CD5EF3
:100640001627E3A266373B8DB357F102A6ED31F8CA
:10065000C113FD9C0C9688734F9383F321FF7ED7C3
:10066000188BC53EBA548F4D6EB308023DC6CA42C0
:100670006BFACC13685E8011C0693C409B04BF2CB0
:10068000A417BAFA7922611448F1986FAEFC174AA0
:10069000016E301173BE89A2C18443D8F3639308FD
:1006A0002CF0140DC7B37DD4AFD732CF6C511804E2
:1006B000985F375F0EC50904C406505E98F30A00C0
:1006C0000C30ED09CB60FC7FBC62F338B4D4D7FBAF
:1006D000240320BC935CC73F46BBE566B5B8E2A5E2
:1006E000D7D78827F8C9E70D48F960776D54C279E4
:1006F00030C477AEC52042F3416DC7301BAA0C66EB
:10070000C03CC24DC08B1E03AF62B9871940C9807F
:10071000185DBCD70F62F9DC38FA24CDAF09D7D900
:10072000581D30A9D105E05DD00A036F6A8CE33013
:100730007FBFCCA7DE9404825C30850203A56049AC
:100740004873308208C79810E660248DEB056B660D
:10075000FFE632CAC410791188E0DD2C02CA5BC200
:10076000064437124088EC0980089FDECC02B3F0C3
:100770008210164416A182612FC7C811920609661D
:100780002A5DA744CACAFBE74A8001F04546CB6A06
:1007900007F8D4FE4630195C30BC2C19EFB5875FE2
:1007A0006670C1106606196862F064B6F798792021
:1007B0000377B69830FA9EE576A6E061FC08BA2485
:1007C000E3F3F49AEFB2927ECCD33D22310806AF28
:1007D000113089E74EE7C70C424A66A8F1981EF22D
:1007E00040C18858D3811993962CC85AEF5906CB2B
:1007F0008C8243FE87B930086BC230926B7606DC80
:100800006B052301EBD38841913080531960042E8E
:10081000A6E530FD67C821C0C15084CE428ACE2DE6
:100820003048F211A20AE687850105A4FCD25C30AB
:10083000B502E1307DC93480FB9676BA2481A801E7
:10084000E0303C825A441E2824202C41EB25D8FB62
:100850008D4AC8394688101CFFB494E154885C3036
:10086000B522E43001BCD3E0E09B05D3B6CB44D83D
:10087000DBCC48F8B2C887EA9D0361E0200C48430E
:10088000180086C685DDEE797EFC725C3005BF2BD4
:10089000303CCE78CD80601BAFFA6B72BFDC014A72
:1008A000D6FFF2B2E5DA140FD2F04CA081E7A480B3
:1008B00002BE58084DD805241AECAD210479302128
:1008C000023404A0BCE00A52C4AB4673C79008FFD0
:1008D00044BB01983083FD5051E70AAF2218CC0584
:1008E00093E02CA4E6A0C288659D0A20840179319A
:1008F00017CA9C98292F9B71F70122C42098A566DE
:100900002469AF7C72248732BD4CB178CBA1FAE068
:100910004BF5D6B2E5989C0E0FE23D2C88DE8B1984
:10092000CE11E0411CFFA5EC2112AF3E3069800CD6
:100930009005BC788B1EA6410C88B9030E81C04877
:1009400035C660B949686629ADA0202006254382D6
:100950006D04A716308EE5661020C9FDCC021F1964
:100960009B9BC05CCAC882F33BD3F057502E0CE669
:1009700030D1FBE5B316DD17E70B60129E0420AF04
:100980000A66981802B382BD4BB079BB7ECC0AD7F9
:100990009CCA8505310A203FD3EF7FE33083B31231
:1009A0008C6979F31190F8F559F5EE58401AE45D29
:1009B0008DEFEA1486E43083F1FB8501081B6D049A
:1009C000BF17CA8198323D98D47EA141A401048A00
:1009D0001750284AFA44090A24251B3799FCBAF310
:1009E000881F93FDB6A0E130E6B608CBAE2788306D
:1009F000E5F3E05D5F8D20D688CEC61098FD85506A
:100A00007A37B31003761A4177ED062178C5AEDD4B
:100A1000B77CDB1C7CBBC8900322F21E8419FD3F0F
:100A2000EF2FC8FBCC9ADBB0FA2FB5E9F914587355
:100A300021DD4882F5BFC33079090245B816DBF6DF
:100A4000CC80BCCA812AB0CE0814E042409F788096
:100A5000820520418106143E0808284440E63B3ABE
:100A6000FDBE99448B70453944A90D6A6EC41ACBFA
:100A700028FD98808490D3E5CCE9B700302BA740BF
:100A8000AFDE63667A4188EF5D9844CBC4C8B93065
:100A9000A03DB02006C8DF2FDDE401C250F36ED0C8
:100AA00019F5980CBFDACC9D6695C8E598C230AAB6
:100AB000BA897EC606B04016C4BD980B9E041608BF
:100AC00070FB528033C1E3D2F4A7CBF3986E163B90
:100AD00087A7F57DF9DE98BF046D3C3E84DF3DA518
:100AE0002009FBDED2F124C02098BD1004442C77ED
:100AF000A412464FA6090862444539D388F4524AE5
:100B0000FF40579A1138308009013F24C2009840B5
:100B1000AF03AC48807BB6C42620883028DF0C01A8
:100B20001AFDD0DC59C0108C5E98769725A3B804C6
:100B30007A8A488368F3E8FC9857B31E30795F7768
:100B4000E08221807E2610241A4091BD08A17725DD
:100B500030507937C6240C760AE0FF2398D56F3BD6
:100B6000C58850908F86CD2204173C0A30B22E667D
:100B70004A3081EE0888CC6DFF080359F758FCCA4B
:100B8000801CB3F50E46C09BE302345EFCF35C3080
:100B90007FCAEF37D3AC4EFD0FC801088007DFCC0A
:100BA00002624DF1D30CD9C8931C8F940F457993F1
:100BB000C8FAA4AFA0E6AC1211C080E3B3B9309874
:100BC000130B6228B3E0F2195021429B55D817A6A7
:100BD0001F0480468110831822C4000222D31EB352
:100BE00084081A7D262C444D0235D32BF8FE8C4206
:100BF00020C0BCA029E40304845E9D90C2AF2011F4
:100C000070212084D7100EB336BD6343F92D3034E4
:100C1000C542049240496CB810B2C806082049BDCC
:100C2000C6B3FC0A41F8E0012CF3EAF2001663783F
:100C30005F5C699BC816B2C8FF519801190A21442C
:100C40002266FFF498A087E01ED7C802AF9824C997
:100C5000C8635C305E7B2BF3292E2608960600BF06
:100C6000BC01AF8BB8FAFC985F51E4BB2C68E1D7AC
:100C700085812F8A412FF53F5BE5F9D31A437EEC3E
:100C80009986B38946060450371062242B21406EA2
:100C90003BAEF4232099B7D4425FCCBB40E9325E2F
:100CA000820E307FD3C00441200A6401112FA66751
:100CB000C821205C305FCCEB0470FB32C8A1BF3A86
:100CC000E6306804EF4098899AD0CB42E9FE9BCA8F
:100CD00011056D2FB396D4E69F32FD308034012686
:100CE000D0320D084274FF1F98A60A441008C92488
:100CF00005D777BF9028C8F75DD0D6E29BC34314D1
:100D0000B3207F92D8B34088BB19F56680CB07C269
:100D100080D6342314E17F19872FFC6EBB38B5646D
:100D20001CCD30400C733D080180C2B9307814CB23
:100D3000C681778ED2CBA15D4AA709ABF298032377
:100D40005842E0606BF6F448C2F3BA2AB5AFFB959F
:100D50002426F11AE41AC0FEEE0CA001B180067937
:100D6000F890105019820DBEACD7EFCCEBF1BD134B
:100D700010CA229186229F66F49805EBB3D0089E94
:100D800030224428007FB94238F88485305C17D778
:100D90000809879810A6B9494802930C018784086E
:100DA000523DD3EDCC992B8044ED335E186713EEA2
:100DB000302240D9F686AE8450145195F88606400C
:100DC000FEE0333CEA717F9798173DB08B07B02B5C
:100DD0000EC1E2EF0F60E330FECCD866BC78FFF7BF
:100DE000A9C8035AFA98888D433830FF3F98887D08
:100DF00049B8DEBF1E849D81FA0602DD0B5FBF7F0E
:100E00009C93E46609FF7396AC08B47EEE91C02013
:100E1000D78B30FB9268F9F930C85DC08E4019411C
:100E200077F92CA028980C99620C4008BB054BB7A9
:100E30008830F9FE67304041DE160120B3CE031B37
:100E40004C88E25CD93C7B97216B7F9FA8FE716C3C
:100E500073309A44F40B681101648B90D059C82107
:100E600030FB01A005B6F2D0C9E430203930DCA453
:100E7000D888A1FA670DA00134FD5282FC30C3204E
:100E800028F6340184FB9FF36FC0591193E727784C
:100E900098B85FEEB830235E5730880B0385F803AF
:100EA000DF8DAAF2BB3E98FFB6FAB830FF0098E19A
:100EB000C0F393C439FB125EB82F393BA18D307C4F
:100EC000986E073C2F84DA137AFE752075C60403EA
:100ED000E48BE05D177F7A22C0281A4C6611E0454A
:100EE0001AA1E2AAE96491C74D04BF212883FF8FAC
:100EF00066E7300884049489F6C5C1226843D3B3F9
:100F0000A62BE6D75E206B8FA008F543F98009C3B6
:100F100030E108126102F0983391B84816981BFD31
:100F20009848D010048EA5B6FF01A73830880880F5
:100F30005326475828527E44665FECE3184008D396
:100F400052A681108B42F95C4A5C30F74016C00211
:100F5000FB980C88D707B01F50EC98012C1B05425A
:100F600021CB73F93068AC40F3A834001ED3185E6F
:100F70009830BD90ADF039300FA5E8D360FEE52E76
:100F800026D65C2120D3D7B80276916157C962FF7B
:100F90009034FDCC58DFCB4D190C40C5D3D644F965
:100FA000CC29B6F3512EA969EF21FCB312E706C292
:100FB00000210B408D04845C565DA4C918119A0C65
:100FC00037C2B07A8802BFCC080DA721CA04E4302A
:100FD00008B353C00A2E84E31086690C08EF433E21
:100FE00028E012F8FF31A3FFCEB3DB045D3762586F
:100FF000E80293D3F8FA2BAAC807D2FCB37B8DF38F
:101000000FC73DBA66216AE00589B0D398F9184A3E
:10101000FF79668E3BDE98FE281E5966023C3063DF
:101020008D39A0FD8F1F6FF6CC122D44B809B3D2B5
:10103000407183B1C0AF1B89FCCC06E6E3672C6925
:1010400080BE775CB0FB049B5E91B1F3E7DE994410
:10105000E684792411B1C6AAF318C73E32CE31B462
:10106000C6D398FFCBF3C67225DBFF43F13861BAD4
:101070007A5E312021CFB65ADF08FA98FC032CBBE8
:10108000FEB3DA4FEDE54880B165B8FFB3ED09F185
:10109000D9FB620681782476ABBA10755442B0CB86
:1010A000B7901D98F960FB89ADC0405679804872B1
:1010B0008C3447F0662D4710855DF336D888FA509A
:1010C000BCB0D2EDFF9067F5171993E6ED2C90B305
:1010D000013FDE18B5FF37D12D059604CEE6167F09
:1010E00099982B040840EF28CDE1E8EEDAC8FF0319
:1010F000CA71AE91EB598417480810B4A8FA1BC204
:101100006D82D17822C720089C01D448FC82F094DB
:101110009898EDEE0940044FC3A19D54505637975F
:101120004019E8DF67F80304100C341050C69A1217
:10113000C90420B33827F8CB4AFE0328B50C05585C
:10114000FB74821504770B020330FB282F30733DAC
:10115000C88304A591B301FCCF786A21345A12C127
:10116000B507644018E7148141EFA480FC19D01141
:101170006640B11FA8104553EDA9F8080081A307E8
:10118000733518E148335AE668DBAC04B79D3F4E2F
:10119000FBD8F0F8947601C2BF44CDD3F8D196F6CF
:1011A0008223E280B681D110E116EE0888FC52411C
:1011B00003EE816ACAD9BDF95F182E8A16E0CD57B1
:1011C000986CB7ACD640EE9DA2D090F88A9B30F9CF
:1011D00022B9379FD69A7BEEE0FE6611E2C49CC22C
:1011E0002CE9266CFF50FD503559AA66F237CBF238
:1011F000085088351CD564E60E9FDD63BD59B202E8
:1012000042AAB12FED0F78FF4977E309629D63622F
:101210009987679D82EBE5FB1FFDF618B1C3E09A45
:1012200099DF704BEA035EEC4BF0FFF38C17EA1B7F
:101230003CD1C3B827D7EBF6AD578E966DE4B0FD21
:101240004CD9651D0267FD7F758389368478F94A1C
:10125000EB88CFFB813D9E01634D4288FBDAD1B222
:101260001457CE20867462A91605D3B506FBB9F8CB
:101270004F8F183FF39A9098F831C14FD15F02F029
:101280008BFDC8EA942132A99B4808FE16D36D381D
:1012900026587DFBFF80FC6EC561F8FFEC19FD80D0
:1012A0006496C2D5B3DCFE4B631E99B5100AABC67B
:1012B0007B62026CCAD8B8FD702A67B6A088FE505F
:1012C0002CDB9C20AE2310D33A166D044008C54594
:1012D000CBB9ACB66C2E20FE963BD9339B682082EE
:1012E000DEB3BF07C8BFF9F7DD909B91AC4D0A6133
:1012F00029402C51EFADD334C66C9018FBDFD1B32D
:101300000896855F38B8027E1D10E16D69FC1104F6
:1013100064FD3E646C56CBF5010908B083D151FCE5
:10132000B7FBE5FA808DF27D40F3CE3FE5C7209410
:10133000CDBCFB0AC6358C08623DAEB220DDD8209C
:101340008008B1F67F32111042EF9DE0078D02A6B2
:10135000B5D119F5671F95E4BF6D26FC7584F16E54
:10136000F46E89D950FCCB970885D1D3E2A79ECAE9
:101370001D23BF1080BF2BCE0A54AC40A4B504532C
:101380004E81E7EDF834F50C6683C0884FF2A8056E
:1013900028A0FC600181020658284027248508B255
:1013A00020B6AA9AB360807389124008D31A030149
:1013B0004C0E0569F124B10AE3420128E6400CE530
:1013C000FB3762D050A689B5044173D1B134933153
:1013D0005DF9F29006C005806FB221F64D04C0F6AB
:1013E0000A0C014CBBEC201F4A211C30FE0282601B
:1013F000080941237A27868019D7AF281C2C0B0DAA
:1014000084E50C30F84AE2D5B35EC44E499620BF5D
:10141000B240BBF14064FDC57DA4FB9FB2203C48B7
:10142000BF9020B908E6D8B5FDEB6B61FBA67FDE67
:10143000CCEB68F325D851E4B3192266A0AC0519AA
:10144000673902841537C441209DD7F1EF36B0FCCF
:10145000564BF2C9CDC2F9F084611F9B4BAEC2CC92
:10146000E5CA28EBBD01D6690C31B4E9E25EEF6C48
:101470008D5F32677B67F8FF66F2E524BA0AD8D140
:101480008D40C8C58DC77683762F68FAA6B56A1BCE
:1014900084C5B3270266191F6E4778FA08F1DD8EFE
:1014A00066713E8FEA6508C47718B0B1FB3FB1E2C0
:1014B000EE31D842D0D3FCCC88CF37E558EC08C801
:1014C0001AB24B4FF46CD788FFE3E8097CF2C49B57
:1014D000CCD9FB7F80993A3CAA6EBD63086DCBEEF8
:1014E000802B4514DD8D3B120838FB3F2D8CF9B95C
:1014F0004062DAF96FCBAE2031A580B6FD0CDFD9A2
:1015000095106498C95804DEB8FE5F6C6F63E6C23C
:10151000E63F25EFCD70F9A045FF04A11614240283
:101520004413F1292101A0B9348006EAB94AAB215C
:10153000AD22B37BCBB59232D11A98800485C4FC1E
:10154000BBD359681108D3E1A00535EDF0FC747CDC
:1015500068F003BE6DF330BD262063A55FC623E5AA
:101560003898048888CD91B310FC064100186C832C
:10157000600F0280813816079CA610031A9BAFE605
:101580003C12EE7E01C049D393D312420430DCF208
:10159000C27E94607679E108F0FF4C450726C64785
:1015A00019C32260CE0180190046BCE053CCDC0296
:1015B00028B1341F1E9FE4C010188E67DCE0B0D342
:1015C000F9C0F542605AFCFA89300250FED94EB596
:1015D00030C3983D0924012CCA871648B310EDFB8F
:1015E000200412E231DB47F6852F448480AD05BF2D
:1015F0009CE446B5CFCD50CD68FFE0FF010CA005BF
:1016000034401EC4FF0378100F68800C904A1916EE
:1016100066362003900CC43A5B7CE00132801ECF1A
:10162000193826E2013D49F34056CF8018F3E40112
:101630003CEE0870FBD2421220918D050CDF14AFF6
:10164000068EB1020246C4BF7A302DE04BE6ECD4E0
:101650009F56B282A6707819056E1B1464412364EC
:10166000899A46F7461CA2A760815C0804B142072C
:10167000B3100602CC8258BB605101DA01B07A97F0
:10168000907FB52080093004A08DF901D62491B750
:10169000EF1A4333AFA030E106E2500402E90348F9
:1016A0000285D93011BC4292A4E47556EB628109DF
:1016B000772C04081EB4F3CA2225B9FD1EFBC446CC
:1016C000536FF2E2868B43C38BDB0CFD80B697E64B
:1016D000D9FD3D75B40C001EF396FD98802B193191
:1016E0001B0700E8180403BD689609A7BFCC03E4F4
:1016F00060100FB30B203566842B86DC9820180809
:101700003E381002D4B4BEEB8EFBF06B33F9C73019
:101710009E098F04180189B3A20444E8DAE79360B4
:101720000486058567FECD2101ECA7C0DC50480189
:101730001DAF29E950FE21C8088119FF41FC00882E
:1017400030FE2040014410040B64DC4CB7C6AF06E9
:10175000834211C01060EC8082204B742F11EA2666
:101760008772220588003AC9C024855B699E45C1FD
:10177000FC60041CAF5DD30FC0660F62017998C096
:10178000F3247919B3B0FD9860CD800CD3F2C8E092
:10179000587903E06330F3F13A16C402F7986440D5
:1017A0000CF420A0F804A17E924DB30CD3EE05EC0E
:1017B000CB207D0C889AB666FD7B00A972A908DF54
:1017C000591048FBC7D60201C460C4052340B3B911
:1017D00031011650388D1320758CDBDB053FBF655A
:1017E000810886C020C740108B444C77F13F46C229
:1017F0002B90B58582EFF2800838F9F3A009360AFC
:10180000E480EB024003B417A0C2E2425104DC447E
:10181000205C23625AB57FB698A3089EECE626505A
:1018200028CF80B8307DD31404B8F8FC3D7A196015
:1018300084A26C331A407F5130F39F9BB70830A9C4
:10184000961902A1E7D7BCCBB8FC80812A882F1853
:10185000D7BC78A79841EB077032E4D0ACD3AC8406
:10186000DCDFD101CA3040E57D191E61EF0A044278
:10187000C95F8F4E05C8FC8C5D66F38EE313A56CC3
:10188000E509735091225C5DB808B33313E030076B
:101890008602127844A5DD6C02254814B5389AFA00
:1018A000FF045031A026640281EAEBD88C82D498E0
:1018B00005825EC74B9E5020BDD5F8092B33D298C8
:1018C000284E1F601240CC800583169AA7CDA12018
:1018D000B1A3F538CD303CA0DEA5CBD00343BDA5E8
:1018E00090FE04302006C0821858CC9F26303C5011
:1018F00032051E7978DC3D39660732C6BFC8C0980C
:101900007D2C0858F9841FA9E7C56CF39B9AA9059B
:10191000B236B89DCBDB06725E3D8959606BE298AA
:101920003F50B6F8CE378051C1F90711310427B3C3
:101930004C1023CE6441E08930BF320413018ABFCA
:1019400060F68C0523B9E346829258DE76D3C798B9
:10195000D3592035C682A8CAA0BA50FDDC2DA14AB1
:1019600014F0981168B08D24C6BB0233E850F30818
:10197000F68084110477A0E5285D34C7F9B7972570
:101980002874D7F8AF1A4103283C0DA081EDD39CF1
:10199000FD0FDAD342F2D1D5C84205FB6E67F8E5F8
:1019A000076995C6F6FC287AC60CE6EF58FDBCDF41
:1019B00098D480141E03612008BC3EF425040862FC
:1019C0001E0EE84130CE2766261004F0378684EDDF
:1019D000CFD9C89E22F388032079F3C00131AC2E01
:1019E000B3E9F4FBEB0A11038B3D78298802954299
:1019F000BFE160842180D91130DEE5D78401E09613
:101A0000C05C984CCA4C02B31F37B340A36042F38A
:101A10000CA0093071F93F928010400104AD18FE0E
:101A2000CF8048844530026966245562AE048284C2
:101A3000CEFA322F5DCB4020B4BBDF041E82B37BD5
:101A4000085D5AF962022C8009CBD1A1F8103A2323
:101A5000401ED0EDB1077B8B88047F35307810E6CF
:101A6000C529C330301EAFC4CEDD0BC63C900FF18C
:101A7000801EFEC80358200FE84142D3B4FAFAEEA4
:101A8000EAF1F2D7F8CC0390669189FD0A2CEED5E5
:101A90001902B7D76C5A7172F7C451194971EA7FAC
:101AA000E529FC0A05BAA3657108967BCA8405EB93
:101AB000110102A1B360206076408105239FC88098
:101AC000200501131811AF237DD990913021246492
:101AD00004A4D658818119F0EBFA2040DE98180052
:101AE0001A42BF612DA3A093F850B7890D5E7E6C9A
:101AF0006DB522FCC231F7CE84201479D6A73F30D1
:101B0000880618280241C90368D3D6873490B5F8EF
:101B10005E3A10F8AF82B20532E8EE37EAF38A7F18
:101B20003CDDA88F74E0308DFCC892F3A01957F308
:101B3000C28F3A1801604EB38192053002E550120F
:101B4000FEB86A666FF328083D42EDE0BA2F89417E
:101B5000DD06AC44AD8EFFA902C0010C08A8F91740
:101B60000402E1214401AE7E5F62084C8005042E30
:101B7000021157D3D174D61AADAD6E0A45F8E1788B
:101B8000A5D7A758DF92C230B3EE6652A360BDA8B6
:101B90004D00D2FE0396084E440805BFE68C2B602C
:101BA0009530C0C2FEF919AA36E182AB6640526692
:101BB00065D30612D878988639BCAE3446E4CF1186
:101BC00003A1AFFA77980698FC79C5AE43D5EB0F21
:101BD000E0819E30F04006D075632003E0B8D9DE86
:101BE00098DF010DE998C8D3AE205D303DBDF60EFB
:101BF000C0785ECEF34136F0F8B678B88AFD0102BF
:101C00000C309F30CA6617F2C9F9B8BF59FC5AA404
:101C1000DAC1407203884A661BFDEF101FEBFC7FA0
:101C2000F9FE99F7B226B58F01407EF1A63002CABF
:101C3000B366196441FA816C3904DE4DC921F6247A
:101C4000673120135BA64319C6045B9995404FA3E7
:101C5000B1A948E3FFA0059FF950041B40D70B0929
:101C6000A7D248C24411031A40DD8048FBBF84FC60
:101C7000E5C9E27377098216107BD52802CD0520CD
:101C8000D4886BA60A44C30828380211347B98FC18
:101C9000FBEBC21218DBC5A585792BE2C166E30315
:101CA00039FF0869B7497A4C81D949015D842636E4
:101CB0004FFA92CD905AEEF79120100C78C5BB5791
:101CC0007C2962100E89369066ECE2D7CD0CD35594
:101CD0006D03302B86685579E7C63110029FE00C02
:101CE0000868F8808C0929DB9A24ED83509222D071
:101CF000EB9844188030E48120E83B0953BB255E13
:101D0000A6A7C0A5034801844C94EA4039FD1012EF
:101D1000080121A87FBF1AFE5F56DC12064D9C9178
:101D2000F78C1005B396D419383C6214390444F684
:101D3000673D1B90300A16323020A3B977B588B0C2
:101D4000ECE4BBC8F31344D00895FA60E99831433A
:101D5000CFC4029D036080D73C8856B157E892C536
:101D6000E608CD2FB41C85D3F240EBE003588D304C
:101D700033BB16CAC483A3E4033CD640F94B3CB63C
:101D8000F609BF8B827E9FFCCB9640B2E80B5F5B6F
:101D9000A0C09FB1EAA518E330BCA552F3FB186DB3
:101DA000C6203D7E8180F975C02106C0A97102045C
:101DB000F94C80115C052B3E08BC7E0C81292B84DC
:101DC0003FA7B1E046C15EA5FC134001284810AF13
:101DD000B3F87B180143406E0117D0F2FCA0103617
:101DE000EE08BE02440B0A7378A011E126F75248B0
:101DF0000A427030ECF31401D719208430F09206B7
:101E0000504839411060711E08278806D2C74240E9
:101E1000FF03281245A4013408CB38FAAFC539A412
:101E200017C096A59B35703096F3D0ABF312516670
:101E3000945D3A7F7210612049EE13CA77C503772B
:101E4000936B14F0FB5DEB34FDC0ECAF03F2F1E0FB
:101E50004108E0FDAEB82D3033EFF64B0438C9E051
:101E6000E0B4E5A572838128D3C0A7BA57FFF8B2C2
:101E7000B8F90449538966083CB7134C40AE199B26
:101E800073BE42B4A490B329AC09DD19AF9A36C031
:101E9000FDD01002400A68A3E986C0AF48688B42B3
:101EA000088173C7D0FA53B2F32026C440C009FAA0
:101EB00004248C0108F877603F903020B23110295B
:101EC000D40CD9AB887EE4EC58009483CD73D7460C
:101ED000C07A40432021FF099110608CFA0AF5C5B1
:101EE00070799879C5FC305E9869CE30E8012C0B8A
:101EF0003FC698E0017A831EC0827EE064403CA029
:101F000007F16ED3C8F26B1DE68DFA80B7EBAC0318
:101F10008830F3ECB954C940960C4C22FFEB3020CA
:101F200006C598DD1FC3E58B95C8B45D00A480414C
:101F3000FC0F81300A064F490123440439E0413047
:101F4000ADF021028020E161F02CC0916C0AE6B472
:101F500028B0698604C002F460448C48D3F820C0DD
:101F60004058107860424E67B2A0FDB90591F14229
:101F7000D4405A8C0A84F0FD482492615041822753
:101F800059A2A084B30499B3A004B942D78C176CAA
:101F9000242093A03243D09108CC7E28012DA44167
:101FA00076995CFB9DD15EA1B783FD9540E5F7E690
:101FB000C5471B3BF276018BF52B624B18CEDFF049
:101FC000D369EA41D7100CB99E20B8FEF34ACCC4BD
:101FD000CEC8811002F4823004F15B292BFEF6BFDB
:101FE0001C76A4AF88EABBD139168360D35EF31D9B
:101FF000A7242331E90C4138D2F0FADD09B96A127D
:102000002FA0CEF5308089CDA00A21E0ED8104F427
:10201000BAD95E50016980345F2360ED9A28D88078
:10202000D18CC4F548812CA4BD49BBFBFAA6D7418D
:10203000020920D889073009C71602D0011137F6E6
:10204000FD908010BDB9B518750E0C0431FC8C10D4
:10205000983E136004453A597E097E876179628C07
:102060008150C4F521FE6080EDC5F0207330190069
:10207000F60F62803C99BB5E98DD0F60B63CBBEC0E
:102080006AABF168013C8860F27D1ED083784079AC
:1020900098FE8BFF06C80358100B60013BD3E8FE87
:1020A0004FD67F40AF1360E871EDFA371A350F5AFB
:1020B0001758A0B38CDE3196322061D3D7E86DF388
:1020C000B21DEFE773F1FD62221088201AE4E66189
:1020D00025C2D72749B3E5342639C7285AD51BB3BB
:1020E000E773040959D576BF352160202C0809E42F
:1020F000021140DBD069030C32193891FB18D9FF6B
:1021000095967B3EFFD1F8FB31FF5F2B9CEC32E3D1
:10211000F33BD6982436D3965066090EFF98FF28D5
:10212000C68C93E3D11C6C3990FF30237FBE63A42F
:1021300033BB90A8FED68010BD6F63DF91B120CF76
:10214000D17FFAB5B1B1B84416C64424B12DD3C07D
:10215000E0370417E0D331FB1823FDCC7D7FFFFA75
:10216000B40437195A131065AA8AF888DDBD14C45F
:102170007EE1B50CD8696FF8CB96FDA64969CBE630
:10218000EF59669DB7D91915BA45DCF0FDC96E7BCC
:10219000B1A035C74095FB818452F6E30D3BFAAD03
:1021A00050FC32B77D1B426CE767F13689AD0D10EC
:1021B000CF92516CF9F59C7A79A295F6CD7F9ACBA6
:1021C000FD0D98DAE810A0FCEA295F47FB9B80919F
:1021D00076F48818B3DFD2FBB2FE48A504ABF1FB5E
:1021E000902E09F85FAF33AA4C51F006AD89DDCED1
:1021F000081F4020455B9CD2C8F8A2B3500CE7B63C
:10220000095CE9E86DFBF18012FFD60420801D1BFC
:10221000E3B40D1080F49A42BB027E7430F8604043
:1022200008907EB0C051C8061B1603242E0D80995D
:10223000DB5010FE3EA821287020C41CB3251434A6
:102240000ED03A5A97F5487FF553809406FBC60F97
:10225000A80D5DB0F388291084A260FC4869024093
:102260000C984E211022371101503F4242A61820EF
:1022700083B1821EF3B1015C05B91AC3388AFFD25B
:102280002302100406C0308348493E7D0480686004
:102290002609F9BECCE1DC7179461F3FD68D35B5F4
:1022A000A6F6A7875B68619778FDABF42145CE66FB
:1022B000AF414D32AF10A0235F3FABAC7A53E88201
:1022C00098DFA0CA2F97BDEDF06CF6AA0818F88623
:1022D000C5BECE66F5DF9EB66AA02C734FAB4B68C9
:1022E00049BCCF17E4AAF68510CFE33A3D982446BF
:1022F000C2DDDFDBE8FB8BB5C228B5C63D4E086703
:102300007950BB8EE8F96FD28000CCDBFE1F3CFF1A
:102310004F5E8AF57BD0C8FE66F5848F28C0408466
:102320002350D40F36090672BE32CF37CFF32416AE
:1023300031AE7E52F9B866039AA2800132893EF628
:10234000B31180626BAF2039424064EFB9E8FE639D
:102350003D2E79A991E1AB58AFDB77B68A80FA427E
:10236000EF0CC836E65B9E0470BD6629AB16802D67
:102370000BC8B5FD5CA80494649A84AD0910562975
:1023800008A7CFBBAB2110444FD9A5248D51F8FF2E
:10239000AA0E02D7D7A1201B916AD330C633C860DA
:1023A0009201A0FDD7AD9F7FF058B1FDECB351FC79
:1023B0004CCFDBA07F59FFD01EE52C452D33FFFB12
:1023C0009FD8A3FB9B3FD64C04BFCA616EADFB9860
:1023D000C566C384A6C07FEDEB489B0550FD16FD86
:1023E000D580B19DE7E06D08B1E798B0B2103F2EFF
:1023F0008880FCC121FF98B0FFADD18079538B77E5
:102400004618FE7AE808CDE30A6DB06A949EF1A101
:10241000BCB1403E36CAE39D1333C5C59EB9AFF784
:102420007F70FBECEBB7C731E79E31231D3F9E4D1C
:1024300026FBB1FA625C55B30816B21079979BEB94
:10244000012446E6D8FEC77BBA0166996BCB1B9088
:1024500027DB44A0F88BDF367702E7EDB66D01A0ED
:1024600037D665E0AC194D5030FC6483B6B6F56CD8
:1024700020BADC0890AF8058A057ACDAB58959B5BE
:10248000123993DEFCF8F48620FC902ADB12E0413E
:10249000E15F9E77182E8F5A290AD7D021D6DF2FD9
:1024A00015FF3F29C66B419FFBFB69180130EEA069
:1024B0000268FFE960400533FB14E60AF8611A4040
:1024C0000304360C57DE9ABC1EA4B82F1680821F58
:1024D0001EC0819F01AEA50C2294CA0390E9E98B2E
:1024E000B9E026E0FDF870090A817C24108C4AC00E
:1024F000698B9032E9503FF04F950B0403EC234475
:1025000020BFA73CF683820481221C030243E129F9
:10251000200C8918FF0DC4414480128102C5118826
:102520009D489BF8FC1119DB1990427AAA82C531AB
:102530004F3DEFE90220CF084DD3FA41071E2FBCD3
:10254000F61EE8FBF4E204A2F3AFDB7FD4C580EC17
:1025500048E388AC4BAF644A86024400126DB282F5
:102560007E26FF8FBFFDB1108E304EBB7B8D8CF968
:1025700023BBCA90100AD2C40258CDEE8B28FDC4EA
:1025800096750131D6FD7FDBBF8D7E161874FE4631
:102590007EED0E40FE76CF1AF7FB08FB53278CA684
:1025A0009F7617E0FA087A4120CEEAC331BAA361D8
:1025B000768098FAC95FCB40D296B3C63F6D40672C
:1025C0001EC06E6E45DAF94019B5E4600762446FCB
:1025D000EA7A2702F3DBCDADFF7E19B2F90CD9D52B
:1025E000C4049A29B302FDD201677223FACF3F8453
:1025F0008EEA06B3E3E08CBAA3C71A57B2285BFE93
:102600008A4BC5FBCA33964880A67157D7D358D793
:10261000A3A498FD2CD825D31E2CADCEDB87DB00E0
:1026200038FD1EFD0B40B1D19EA25D2065A7DD08DF
:10263000B3A089C03421AED0575603346BA409DD52
:1026400081D21A3EE6628221288C8851751A924006
:10265000D81674A134800DFF1B4023600441A000F4
:10266000FA362210FF800FEBC049A803FC7ED29AF5
:10267000F318C7560918BF84AC30A7D8F38360108D
:10268000429BFCE4B339D1EAE0F334B30280B3A156
:1026900006FD61DC7040D367F97E1EC0B37ED71C97
:1026A000746706B4F3CE0379F3888073D340FEE8F1
:1026B000B4092E1902D8F3DA80111237F50BE0F2C3
:1026C00005C6887C4BBD27B312B802B39A6640108A
:1026D00040B3605B98FD300270FC8044FAC58718F7
:1026E000914DE18451DFEA9944E143F920D40AC4D1
:1026F0007E27E04E65D0C1A9E231EB42A15A841198
:1027000060D4A61087F0FEE1E0012CA6431EC4921F
:102710009403F3FD7D3A06C00318202C903CFE1470
:102720001EEDFC35E0C4B79E3BE080079090D3716E
:10273000FC0B60812C3D68FEC7C39346790C88AFC3
:1027400041D0C7C062D1D620399C1A6FC7BDA0D373
:10275000081C6602A004A99A61CF827EE788FAC0AD
:10276000112108E6B3800A61FB2CC3054296D59E71
:102770008904888401C47F7FB068F9A10AB3BE3A96
:10278000F3264449F3235CD7FF89200A10FEA08575
:102790001420C0AF6B980B6AEB5CD5C540E1983054
:1027A0001009E24D16F3CBBD2455F8B27D69FBED5F
:1027B000372D44FB982604800266D328ADA197C428
:1027C000BC7B980806BB02CC989FB305B51D0C6A6C
:1027D000F8B786DD5920E6D3BE29BF21C6D8C9FA8D
:1027E0001641103D077DDA0006A00CE07C06C4808F
:1027F000577EA20FD7EC92A1A706B4082F93F9AC8D
:102800000C808130C67A097AD39FD650FA8811207D
:102810009782C3A8F204B342E3A4C0F48AC1B30907
:1028200036391277B6E701048CB30B6203B3059A0D
:10283000B019446D560A083BEF43356689FECF0256
:102840004498BBB614A42CEE129CB3CC080A0944DD
:102850007A623C3AEE30B02042B309A702DB103175
:1028600012DC22A0488650FE7E4411F960012CA0A3
:102870002BFD987822262390FD9801BC1919CED201
:10288000F1F3A5FB17C0EB035840C96B63945D34AB
:10289000D082400944E2EEFB040157C3808A98D6F7
:1028A00035194B0F01EACC2F53AD64F5A410D302B8
:1028B000A1FA8150447C3BC929FE3026F386C0082A
:1028C00018BB60C1144C37D305FA980B731E8804EB
:1028D000F30962CEB343400134815832770432ACFD
:1028E0000A20B34EF37B78FA79F78490266331C3DC
:1028F00008CA91767282C0D09C307718659E924942
:10290000C26140D2DA21247B989B10FF4008448C9E
:102910002848340916FED8DEB819DFD6FA18DBF8D5
:1029200062FDB10341206DE798AEEF0CEE04F0FDBF
:10293000FE116AF74079AC30B406C12B1E8B30D63D
:10294000F84122B469E398BF60C9400C44B3C90799
:10295000B2F3D381500ECFE041F338F8849D0912D1
:102960004614FB37DF2401CE7FC04818B930212C34
:102970000F8F96CEE0DD6D7A51906E7942F78B32F3
:1029800088165C30A7426B0D8005FA300AE0F90426
:10299000735942C4282613F660088004BE985B89E8
:1029A0005C30B1902FDE3222158F2004AF8457980F
:1029B0004181987FBF988491901080FDFDE0010DCA
:1029C000A005F07B98037A46BDBE98F5C8031A208F
:1029D000E6B8221B7FBF9812C08078200B35E03C00
:1029E000E398C6C85E1043D3E648592E7F1F3DB713
:1029F0008375647824BBF38C30ACD9D9129EE5AED4
:102A0000089424653F34D3A058D203517C81BD85FE
:102A1000FD0A451926B8C1B366DC4C6BB0EE5C30DC
:102A200098A65C306579F0EBFF0167B32060028FF8
:102A3000880537F3447E5B0BEF569811672EFB1C1D
:102A400034A1D706143830112801F8A004FD8042C3
:102A5000D8723091D32DE8CC21ACD7CA50AB200925
:102A60004782C610A2D71280233008E644255E14A0
:102A70000D74723021D0D04AEA680653D7CF98F34C
:102A8000B83866F1A888B710D6560441F34FB2DAC9
:102A900075CFF8F992C826EF0182382653FB30BF74
:102AA000BF40AE1E3FFE4C35DF01560977E5A9F069
:102AB000AF692FDD719A3CD3B2E8171450D3237558
:102AC000E7B8FCFAB4205E983884220C47D688A078
:102AD000F30840C40266234B2782B6A9C4D5FF98E9
:102AE00094C8B38D210859C83356426B4CC38481B6
:102AF00034CBFF89FA0142C42418F2C461B3052122
:102B00003B4B62CE1E0D94126FE75388FFE10B948E
:102B100030A0E1197E34880C290DC2A0C9E952F316
:102B20001CFED40651FA60412CFF1598BDC83D2209
:102B30001D1C8003DC6DC282787799D5DF7F35E577
:102B40003CE20068ED9D73E001246D931619B0A07E
:102B50000BE2212CEBA8FDFAB90802F3E58FD5F3BF
:102B60004E5F2498F040B353FE7FBEB9BC0B5FCBE1
:102B700099C428E779667130DF72CD41FCC1A07538
:102B8000713FB39240044C880187300277A7988345
:102B9000B38C041F300267F9E517B35E47082B1AA0
:102BA000F4D082F7CAA220D3720812A8FEF7091245
:102BB000BBD0D8A96808B324F282D702D11330D28F
:102BC0000184C4091667F94BEE1442480B8BF8B523
:102BD000FCA2FD451A517A984185B96F7D7F663B0D
:102BE000C2E5DD22A27B048D19B6643B656E01B996
:102BF000AB175BD13E6F6D51B0EF2764FBEBD2702A
:102C0000FB8F30CAC8E23DF286C8E870C29FC52378
:102C1000EAC0383DA6FF446E5EB40CFDCC03FA0852
:102C2000A22D79E62383508BADFC91E0FA84BFA0FE
:102C300030C8406B28DA751105FDBF04FD1D3B56F9
:102C400044B4C2AB37E90DC478F3EFC00893400B2E
:102C5000908116148218B5FC48774096AEFD2C3052
:102C600084C861ED0B650C80317A71C097382302FE
:102C70005AB690DA45E3B57E3F30D79801376620E3
:102C800028F47ACACD54F477710670FC7030FCC910
:102C9000201EC483788243ECD75814B5980319ECEE
:102CA00098803C32BBCC36FFF598032BE7E0CB98FD
:102CB00098C716C81740E41ED17CF84AE306B64010
:102CC00042B686D32EC8CAAB5B65882C1902DF5B7F
:102CD00098017898A5FAF350A33EA1FFFB8011203C
:102CE0001216F6E307248C90FA01304240C23FD915
:102CF0009B3009313C67DBDA9823044FB321114440
:102D0000010439422322A95D24D61298A3621445F6
:102D100020778998DDB1FA84048016D0FB72BE0753
:102D2000136F23A7C875B334F9EBE8400368CFBD30
:102D300051167FF0AE0A446921E6F4E8FA8081BAC0
:102D4000037CAEC8A33D8B4E2F30B1122266FA60D1
:102D5000E3F76F327E5DE6E8F9C07C4B50E5806EAC
:102D600027E002A630085B4914DE191031667905A8
:102D7000EBCD08FECCE1B3D3BF2CCBD42EC8F9C425
:102D8000B3E598F9A0511ECE26DC080144D226C135
:102D9000B70394D022890589FFCC5810D32061BB9A
:102DA0000990EF082604E2F04E9304E68BFB0590B1
:102DB0007651C2EE8324442660B342FF8372629D43
:102DC00001874930B21940CAD2A4F398C255AE5116
:102DD0003042B3F9C83EF8821011FB6B502CCE98EC
:102DE000CBC8BE2FB93007BB112BF58E30CBE85FB7
:102DF000EDED50029B123C08FC9877904003F99847
:102E00000DEBF341F9D82BAB52FC110650D4B6B4FC
:102E1000A1CB7EFB17607E99FCF97B6DE498A985B8
:102E20000C805E98435EC65044F3F8D1D9F8A3AF46
:102E30008E98E60C81B930065BD62FCFCDC830B75F
:102E4000ADED48FF44B05A62765DC8A9AF11867BEC
:102E5000464320242286D66F70BFAF150820540247
:102E60001A20E0AFCD8180052265C81DD0EBFF069A
:102E700010F932E07FB1980168350D21ED9842D00C
:102E8000DEB2D10A445B6A98FDD322DE5B1878F982
:102E9000BCF819CC59BB541C307F9FCCE61C57178B
:102EA00017D3EC40FEE0088A52951988CB670CF9DD
:102EB00030C408BF6ECBD3D6AB0477C6CCEF800747
:102EC000A4FDAC2072262C51DBDAFE987FF10CFBBE
:102ED00004E5204665711D26987B053B24C0CE8CF9
:102EE000F58DB09D902E17E8DB46C179DE64020CAB
:102EF0005CA09093AD7C9857E43BCA040811B4E9F8
:102F00007D671360014CDC631EC157D378D0110C70
:102F100008EDFB6D206468AFD3D2A2661024CA44CA
:102F20000CB6C9C8C46BE99890F8B468F59890736A
:102F30006A031ADF100FC73064C823D00F7702303E
:102F400067F0309519D3BAC05800E0BD98F069E534
:102F500098E48B05E9FB8041C340770B3D91279AAC
:102F6000306240F9BF8C625D17B9A4F8213D8988B1
:102F700001292FA980F198F34FB3B8FF80093326B8
:102F800086B314EF010360CEC810448F19F12EE60A
:102F9000B1322E6E302640E891632F3BA5AD77BD50
:102FA000984939F870FB7AD736A1E7B69A7A680C57
:102FB0005F10FB0580469144FD988136563271B50D
:102FC000FCDC3F191A48A36824F181A21001701695
:102FD00052CFD3A14844FE85A231342138FCDBC650
:102FE000989A62D7883086C9F3AB3FA4AE727779DE
:102FF00049A79FA5979BF1047F03A8FB3AEA3808ED
:10300000CED818C805607CD9F7190807A0723061BE
:103010001A5BAB3C9BBEFE320C6EE3A2EA8417D374
:10302000BF703034B3BB508723B9D0FD3FAF3402FB
:103030000604245F6E80607AE0212082FDBF027862
:10304000D8CDE124C40AAABB10C913AB67C310F8DA
:10305000A360018C885C9008461904B3C50B22E775
:103060004C8401B96AF827730540415A00890B1254
:10307000862C4653DF226899D744335E986BF27EE4
:10308000DDDF9BCA1146F562205E460571CA65C840
:10309000DE98327C49DC1EFDE0272DA007FA700087
:1030A00016C083F2C5E530907BC506D05C2359C8B5
:1030B000ED0C20051BBB900262B3F498B40F0EC058
:1030C000037ACC400B4325CFF330D3C8825027631B
:1030D000B92C201EFC8566DDDE986DCD300241FFE7
:1030E000A87F1B306EE358D5B30C7F9C98664ACD01
:1030F00004E3D5D2D683B347C634C6E9B35B09AF80
:103100004490BCB31DEE980444C0EF619802147B58
:103110008121304151B3336FD3B176802BF16B1CD9
:10312000207EBBF3B542FD23AF40754B09200AC694
:103130007D36FFB704EB1E085DFFF8FB201F51C76B
:10314000101943C6F372AC22C6D8D3B8F90C121DBD
:10315000FF98FF248D1993C6D13839C4D8FB6084F9
:103160006CB842FBCE581920E9CB17E01B8D1973C0
:10317000DF64D980F866517837262417669BF3B14F
:10318000D3E0F81823FDCC7C7FB6DF5D8040B2C071
:10319000ECD9BE286EBE6BA50FA6E56E65FD08D204
:1031A0001B68A5D950B38426FF71119E4E79766DA8
:1031B000499BCA9B800EF5C7FAECCF2CFFADDDDE34
:1031C000D9FA526ED68C01C77F2310791C9891B51D
:1031D000806C06F8FDDFB722F9129E617BFF38FD97
:1031E0006AC2198CFDD98F761340D5F8D8B7F9D9B2
:1031F0006F4476A6DB20CC8182C915B2F5299602F0
:103200007FD7E3D02CE837A8BB108BB6F28FD0CE97
:103210000348FA8CBBD48622DDFD84E0F02C4040CC
:103220006046CC2BE34CBECFD17602D834B928F916
:10323000EA2FF378E512208001C798C13630F3D029
:10324000BC0920032CD9FB30C9B383DE00FCE0D4D9
:103250005A50210AE35C8508C014E260B402FF03FF
:103260004042413004052BB3C04CC781C31034FE2B
:103270000230440CA0126127F08120FF3002F86078
:1032800009040359B1440CC97D2291BA3E8E90E0E5
:10329000A20402DF78542A80F1AA40848867193A90
:1032A0002108C5A0FD71DDE41BAA7FC20A1516EE38
:1032B000E21D08316F5F9608F6C7BF87B51025F885
:1032C000C8FD7CACD6E9445A3875DB7DB06808ADE2
:1032D000B8D8208292B610DFE512E0AFDB98E702A3
:1032E000A4F96206D137E60426526DEBE5FE1725F8
:1032F000E5AB09849E53B508F669A8FD590184E938
:1033000013474CAEEA03E5E460A2E630C83C9B2DCF
:10331000E5DD4097E323D398EDFD4002C57E067DB1
:10332000A9E038994226CFDB8F7D33C3FAF15AF4F6
:10333000ACD778E51940C0CED8D6EC39015DE3F0C2
:103340007F59FEF9904B5F01BAF8C5BE30DF727746
:1033500011D1D986880358FD63FD386C9267F2B7A6
:1033600041CE766570FB0A57EC8240C3E03C98C7BB
:1033700018E278FB1644FFF86E1337E00191DC3E4B
:103380009EA266FA9314C96DC2D8FD41D15840AFD0
:10339000EDA9207F393063BF714DFF29FA9FB9280D
:1033A00001A9610AFF10C45BA5F8FA1631D3D5B3A1
:1033B000011950CCEC90FF06192CFF404F5B599C33
:1033C000FB09CDBFF8DFCA32ABFB07B880F9C121DA
:1033D000FF983619C0228136F90178ECB1EDEF6C17
:1033E00086F0F82B5B84206D428996B3D89666FFF1
:1033F000B50132A6FB29E8B1FCBCD94308EB2B1080
:10340000715FEA6616044BC4663F7073481B699C83
:10341000842B5D9025F4E8B7F9519B8051BA45049F
:10342000CB513E20919A79B340BEB29ABD68FD3F20
:1034300061659CB3B1BF695E8F737F0804625D5E96
:10344000DE78FC6C6EEC2C9E93931CD3BA305B1B25
:103450009619F87BE410012DB9CCDB7CB1CA760259
:1034600088F802C7E5ECE74240344184FDF0536D33
:1034700016AA02E755F01FAC92B70BE44D42B7F421
:1034800065AF80FBEA12E3E59090CB041CD309E022
:10349000E3330282F4107E8225667264045ED648AD
:1034A000090B64E48DEB5FFCA0F820030514C5B69E
:1034B000818758539C01BE800850A426D120F04338
:1034C000513028802E306D4D06603E0E38068C43FC
:1034D00070A41424BE020B50D06014890F7488A00D
:1034E00032D29484AB0A9E9EA105B0F80F3810D258
:1034F000C404018128E3F940A80880011EFFE2818D
:10350000191843F2401C810924DE3008666B9B7752
:10351000049CA630D08073FA82CFA0251F342024CB
:10352000E05006217C0C44819012FD6FD98257B87F
:10353000F81CDF0E2DB8B2CF51A6C912CFF310F28E
:103540000E33B0F517802D32B4D34AA6FAF29A653D
:10355000C5E0FDFA1FC0F9A421C429BCAA408820F7
:1035600064AF22F33219CEF3ACD761129CFA85B75F
:1035700010FB37FD0D20DBF9109ADAADE6080EE5F9
:1035800031F19D2366DE536421F4CC66EDE38FFABE
:10359000A380CA5BF908AFCD11F598FFB1BB8CF6DB
:1035A000BE20CD16E9E862EF028EEE65A2D8FB20C0
:1035B00018EBBEAD730496D0085A64048C9E43FA8F
:1035C000F8B8FDFB747390735FFE1EC9142AE8ED12
:1035D00062A60BE3886EF86C52B180ADB120FFBFDC
:1035E000B99B2828FC2FEF8530E89B8DC8D68748EB
:1035F000ADF318F9DEDF662C6F04225D7104F1F97A
:10360000596A8214D36255BB881EE50D2CDFDE3764
:1036100099EBB524B659DCE33CC6F07E5B2E9B6289
:10362000A50D03EC2DE242CCB07C01526C19FFFFDA
:1036300033E7FC4D585951A60AEDA5ACFF94E92C8F
:103640008DA3B91ACBFB7F4BFE02CC76D880FC57FA
:10365000F710BE6C14150E2492FB16D802D844F352
:103660002DF430B3425EBDA004068035143AC10388
:10367000684447BA80C41254D20A61B40108D034F5
:1036800076E0FC4FDB3671A9EE88200C0858B39227
:103690006C06F5FA61AACEC0C9F79290FB60020CE5
:1036A0005EC1DD9E10908081082F07C0208A0689A8
:1036B000F3B3386793B6A002C29A80BD031A87732A
:1036C0000C042E9F5960100CC201F7310830FF2EF8
:1036D00071163D0C53095F2AA2C2DD4DF38CF934FB
:1036E0009FEE1329300A5320E020419921F389F7F6
:1036F000D64604BD772362024C68D13F88FE801114
:10370000D63001F5661805BA632C568612E0F29998
:10371000780B62018C0C47FF2C488040104441E735
:103720005EE5FD320A40C4048124F12460FF7A2260
:10373000B0FEE0013D9023B7D61E7E6F400FE481BE
:103740003C6743F0F3C80340F34B163B99B3600169
:10375000E0EB05B040F3D65AFBE070F3CC09060C61
:10376000793C0F64083D7938F8C3BF30A8A8D6511A
:10377000C3667FC220185FF9425FF3CF571941CA71
:1037800060B9FDD921CBF1318DD314E682B9DC9833
:10379000F9B38844D5B380A609E0C108E3B3FF922A
:1037A00022670FB3760424829C88F7234093E5D3E5
:1037B000C646C10102FA100B64142CFFB211B8F90D
:1037C0003C7E0584064D4002FE96BBA4BEBA520460
:1037D0004A44BFD1457759B0BE43A624B02611BE96
:1037E0007FFD01680431B7D0270BDB684032E93137
:1037F000D1B696CEEBE35E811608B702FA803700A9
:10380000F29C33E07C6B8D2C1CF4C0F960F3331018
:103810000622198420ED5102C9EEBE080310688902
:10382000626FCD756684010CF48F93DF8310FF9F68
:103830000806C1203A6E032267B7010950FF28200D
:103840009C2EE5BE5840B37A98112AF66E10582483
:103850008B8CC1C4792680AC81D29DC1E9136BE207
:103860002CFC5F0224C05958F3CA4021EACE4F1203
:10387000FB40E08509C85B3F8B2382C04C0885B1C3
:10388000261222BFED64F60C4482317F8C989EB2E2
:1038900062751A5F1B60BCE241C4D78680ABC0442E
:1038A000B3B4B0A4F9FFE0011C8005F0201EFAC0FB
:1038B000037A000FF6B890077CEA16C40378390B38
:1038C000E6677998FEA5CA07F494F5A52078788173
:1038D000F3F026D3F359BEC967F310B384015DF743
:1038E000BBC1C7C5630C80BB41D77B20FAD804BCE1
:1038F000C5C4FA64F51060A157798B1FD3D357E67E
:1039000029A7FBFA2214C0F300981003460C44F3D5
:10391000B3031805C00B62A32CF33BE4CBEDEB051E
:10392000A4C0EB90D9788C02A6FF01268204190569
:103930000344BB22A24A6BA0F955F740D45AA177A1
:10394000B898048410F80242037880280485A5DE24
:103950009FB150E6042902213B0A09BECDEE0E308C
:10396000071A400B9A01A824FE8A88FEDFC8D2E21B
:103970008CE1AD3306FCAB58298E97F34BD1F8DBC5
:10398000C658FED743C0721A608BACC8C516649A7D
:1039900083B33E80410CCE4F6681E388072133C05C
:1039A00080D32041E35C8B45B3F28AD3759750FFF7
:1039B000E9D285B65FE35E4BF201802120D88BE52A
:1039C000A284652088359EFFF109310210CCB345F1
:1039D00055F49F36410CFB981043B86FB6F60CF8BF
:1039E000441BA2060B6753402C5B2001F026C02429
:1039F00018CC1B41545967676802093CF520C44044
:103A0000D2C4130E1082395604FFD70B60214C0824
:103A100011F3B210B8FADE2CE5A007F070FE98FDA5
:103A200068011C9007F4DC303E430BE8013DBEDC2E
:103A3000CBCE12E140DB8B10853DF1DC305E5EA425
:103A400002F3E087F3D0BFF9AB9EEEBEFAB9F1986E
:103A50003B5AFFA21849FB4873667CCAA784FDE362
:103A60005DBA44EFB5F3E6030802EE2543F3D01048
:103A700066EDBBA3C1C5D60CC33C7AB322081E4871
:103A8000810532D9B30A6AF8F78511314191E0D343
:103A9000DB1C4FA604188120A264B309D3FB0304E6
:103AA00014CD12208D40768C210EA4805DFFC83984
:103AB00008F709F27342CFF1F5E1DD1612C90509E5
:103AC000F49824B39269D350DD230AB5F6B904FB08
:103AD000E16FE698A6D022FFB6223311D7E004F5B5
:103AE00077AF3630FB409DA87943FC30F806C22002
:103AF00018C40B35F582E6C57F6EB10CCCA804075F
:103B0000786B3C813CFFD3044018080362207FB0EF
:103B10005E78FD179A98FD9FFC300326C0C2021004
:103B20007EB6EF050477AFE582E130B85C03BB08F1
:103B3000399B2124F48B5023CC6004F385D66FA2EB
:103B400043C818FE690818041362147C69843001A4
:103B5000C0D7E0915FFEC15059BDB9F304103242A5
:103B6000684838731301B04CCED721142C24EB864F
:103B70000304D53E509F7BF8E0412C3E46F1401EA9
:103B8000C0B93D0FBB629030F0330ED0F320F60F7A
:103B9000E0010D25C530E7988AD3E0010C303AD317
:103BA000C8022DD3F6F61080FCFFCF5CAA771E303A
:103BB000777F96B86CE820EEBBFE2ED5CAE83BE0D6
:103BC0004BFC54CA205F8001B8436ECA71C8C84D0F
:103BD000CFB3CFF5C12218AE017D23808805300216
:103BE0009FA4AFE076D1C3E0DEA5E00216C277184D
:103BF00011203EF345B000D0F8290F5F11FA400ABA
:103C0000601061F7A53014880AC0877E8611245F92
:103C1000906DFBCB8252B3CB38BA1725410BF5958B
:103C2000BD98D0D7229A3F3082812800340AD980AB
:103C3000FD1E982CAC9E4A35019B5AEBA0ACEE427F
:103C4000AF51980256BA52848DF77C98B930403201
:103C5000A0806E99D88370199082BC3506E4955681
:103C6000CC5D0F4096F0F6A619A81081EB8892194A
:103C700012CAC8E5103CFF92765D9BD02A35F0FD54
:103C8000D5EBD4BE75E7020824C309B1174610EB83
:103C9000140240950541E6097757178BA5D3BD78E7
:103CA0000B9F084081098410C604C89F11F30A00C5
:103CB000489008F03A4AFB848FC946C12835D01293
:103CC000D018A0892FACCDC7A860020A7BC6B088E7
:103CD0000453195766040832CC40C6F950F5D26037
:103CE0000424FFC321C440802BA9923048A944DD9D
:103CF000EBFFE041B4DEF050C90118261EE72C8826
:103D000007561EC8037810F009E0013D58967FC899
:103D1000F0200EC8037A0C55E778E6C8C8B930071A
:103D200076449BAFFA3BDF893D18615F4A772F3DB0
:103D3000C1F2D82F6635F8376EEBF5BC98FD2C38FC
:103D4000BFC8C698C6084A6CF3DA8F51DBF8B30CCB
:103D500069AF11FF53122C8089B00846CDC084B3DF
:103D6000931CE0B30D99B395ED3473D3980840E0FC
:103D7000BA9021B0D7FC141080AC90ADBB70CF10BE
:103D800028F82B84CB98F9EB4081A65C5D5C300170
:103D900067C821281A2076E230C2DED36F9FC83070
:103DA000C146021F0A03BB6349BC9002FD11408A51
:103DB00044236AE1C6B69CF84A8720DCFB5A10F41B
:103DC000C44677D7CA5984B964BB10AFA46DC63056
:103DD000F87D9818326019C557F62930312303331E
:103DE000EE0BE6382CDEE41938D7F532DD0EDA8436
:103DF0000820A6542022F31DC6F1E8FE72309090F0
:103E0000A6986523E6706AD7FB2657D1F8AA114514
:103E10002216347FE67F91ED44B3C848EE2061114D
:103E2000D7FC0A4614CD0210C601668E41707EEBA7
:103E3000F9AB09D898C008259C7DB920E01265C26D
:103E400028A677B30A80C7050167261A41A940B49E
:103E5000824AD3F92C9FCAA30267E230D0A2103065
:103E6000FEE1FAE0413CB93020FF1ED08278100F0D
:103E7000E28147F3E7E85820BB09C2C5B31366E007
:103E80002390F805F44016D01678D9C81716C4E563
:103E9000027840C6679BF0FF6DED9804837CF91AA9
:103EA00080FBF9F3C8226BE6986E80FC44EDE0DEFF
:103EB0000403A232710664B9302244C6E6D091F8F8
:103EC000CD67F230238BB320C86526C2F36E1A2269
:103ED000EF4398916BE6E5DF7F59C8A424E001E544
:103EE000D3144CE4702398123C08730AC6493CF37F
:103EF00088F920E06C84C62F785840602420D308CD
:103F0000F216C8C048DE1D01112019E68768736DDE
:103F1000B5105D6D9C1AE06904BF6489DD880BE40F
:103F2000618220BBE2F490F9B336B396DD02BCDACD
:103F30000191BB501453668D73560510C6FBF9C82A
:103F4000EE2018FBDE0906322C1CDFA770E0D2370A
:103F500007E0F4A13A0B33E6926601B3B93040DDD5
:103F6000188493F5AB387E4DC8B37175343E7290AA
:103F7000FA8409205626661B48F22473D40506B934
:103F800018BD145745E5821130FAA966ABF88829A7
:103F9000AD30952927DDA1122C3457211658E52084
:103FA0001308C07CECC4E7FC0C0F0812C802818126
:103FB0000327AFE089B04DB884587717040A4BDF68
:103FC00012396610F130024608E440496A80F96B04
:103FD00067718A2BF342F345B0D0FFFBE0011D80EF
:103FE00005B93003871A0F81E23CAF902FEF3F985D
:103FF00096303C73196041AC2CFBA8401EC483FC76
:1040000098B7F632FA2006D00219DEF6413C60601D
:10401000FA5740ED6FC1B415032325BB668817FF1F
:10402000513A72C0E02F40E03068EF5CC1C64D7C71
:1040300068FB7B3B224439C05810C09912ED21ED3A
:10404000EF16C18457B304ACAB0AE7B34508093097
:1040500093107D020340017C7FFF0C26C00440A02A
:104060008060BD11B3E0AEFC663080460B1843E1C2
:10407000AF211598F1F37EF523EB69802896304245
:1040800068B3FD7934A246010273F76121C781103C
:104090008032BE463E6023578C86980F48F86D9656
:1040A000015F4A7BDC2E66363059EA043EE5466005
:1040B000FE675A0F771B3037D9FF407ED922EF2099
:1040C00098236B39E806C1FD0117191D30F67F5E94
:1040D0007F6190813020062120D60AB29BEE20100D
:1040E000234BF5EC40FAC930DCE32428B04FF398B9
:1040F000418596CF4680A5402064C184442CE0ECE5
:10410000F0C88809B0176BB158B9901248ABDF847A
:10411000909E1C5360013869D3A8E0F98449F341AB
:1041200012C8AD09C10361854C05E7301040021883
:10413000010B22425C308002D7B6B918830272109C
:10414000AE32F94D88400413828E84B4563FC218B3
:1041500080E3080304D74C3A830648F8F3B25F576C
:104160009878AB98809B307040B2C85D19CB300511
:10417000532157ABE8012C30E0343A1EC083C99B71
:10418000E06B9E8E0278207DC6413C00D8DA155C3B
:104190005D64F898B21C32C82B5FED865802406609
:1041A000D6215FD5F7D9E5F5A6488E3F0BC6E511B8
:1041B000A0EE77304114C1F89837FB9846C15E2EC7
:1041C000F393400A08E6B0B5105AB308A7B3845673
:1041D00001A4F2C0885804D365C084E0DE1EAF801D
:1041E000A205C660F338FC31A3FF2F2C7B7DFFBCFA
:1041F000AEFFB411E01D0B2CA8E3F33780134B2462
:10420000FD1960D310FB30B1FF20632DE498FD8DC4
:104210009966C6D138D3B1ABAFBFCCCCA3296CE083
:1042200089FFC3860C451B66B3F6F8FD6599516698
:104230003726C4679CD3EB6A17B0994AFECC98FF27
:10424000C5562F103A0B35BE11E62ABE806A17D824
:10425000C8FECACF80CF3865EF2B176CD058FFA2AD
:104260009337FDF059ECCFDB8D10AC17805FFB72FC
:1042700008FD2CD3584852FF67F796A8FF62DD83EC
:10428000B30185D091963B46DEC0CB5AB75988F82A
:10429000FDF69636AF30B0D293D68908E79FEB0D86
:1042A00030F97F91DBE871B5039CA204FC00B3E018
:1042B000834C44C08DE08B82B126202B01EB5A6FDA
:1042C0007076EAC0FC80CDE00122BFCAA7F309A343
:1042D00084679AB304A0784F3B025E08184289BDF8
:1042E0001058D8CDFC207390C8B450741BFAD6ADCA
:1042F00008A08F141CEE09200D2880887F702819D3
:10430000E6060110AE0BBFC929FC042808B00D0257
:1043100001B8C800077A180461A1E8FDE724081F66
:10432000811839B41960A45B6AC504DC3FB1280068
:10433000601CA09B2153523CB27027861138880222
:10434000C286CA210730501290C1D574A201F28AE8
:104350004176E9FF0AA3436E40657F7A401062FE12
:104360003696013F87CE77B184206AC120A56F6859
:10437000FBF81997200E59D98040BEF98898ABBE3A
:10438000F6C4FA9952E0E848EF80428D86BE58BEE6
:104390004A94B3F8BB6FEBFC021EF2EEFB89D643E6
:1043A00082695313C67EB0FE2C9C4FB6B1402CA937
:1043B000B340FC2B8D3573AAFB76639D04BFECFFE5
:1043C000DD1BC2B6262DAE0844B67A630DFFC8FBCE
:1043D000E2D445CB3183EE8B74082DDC56CD20E53D
:1043E000CFC924F9FA6636B18008E9AEC07367F622
:1043F000FF10C534F4F6D6B0FACFF31E737E13FC6B
:104400007884B3FDFFD3886AF0D968FEE23BAFC27F
:104410008E358A5A3B0639F818FB081F614E9122E7
:10442000978C7F1FC8FA6637B82010F51AB9DF716C
:10443000C17940EAF12033FEB64BCCEE42B8FDD94B
:10444000F60C794098D15F4D6DF66A116E79D0BA4D
:10445000FECFFB4D7DB1D0E1E79569C684BF18D88A
:10446000D0FF5DB70DF54795F9C32040B4A06CF6B9
:10447000C0FEF37B16EB60657A02B65971FE1FD958
:1044800068F94B1904754C0189F969B9F18A7F1BE8
:1044900090FE46F7E7DD98F459EB9A10259B28B378
:1044A000FED62580BDC86579CF8D9B9AB6B2E0FC5B
:1044B00079EB8FF515B81AB38E3D3588667564842F
:1044C00099D176D649998799C34D8070F89FE75462
:1044D000AC85805FB7A3D0AC9480F68540025DE5E3
:1044E000E0E51AADB4887FA31038BB4880EB2CA55B
:1044F000FFBF8D43C241020DAFE8214469B4A01251
:10450000F3934FB17F537C097B0E2064FF9FA4FA85
:1045100067FED010C53C52E375652A08AA5120CC2D
:104520006CC6B8FF9FDF4001C6E656D170EC9877A5
:10453000B302F986022DE446A2B3FCC4CB3B2FC1E3
:104540003175D5141093FB4901FBFE206C88944211
:10455000E5C07E56A15949287B80EDDB1A0111CBBD
:10456000F6284A40BE8681AFAEBC84E407D0FE2068
:1045700072C041B8B3B7FB02B5224129104BDB0230
:1045800053DC610EC5B3207D7B0891A0AADAFC1B29
:104590000910FDEBFD20B031CF1653B31940C10314
:1045A00028F4090515209C25ABF36D2FA7ED92C0CB
:1045B0003FBA033A72C08053AF01A05011D62C28E5
:1045C000E2AFB01DED048830DD4221FF0510F8FD9B
:1045D00080300F068431A118B107253A288021DFE9
:1045E0008E843018FF2B62400A480103002D56C408
:1045F00065E7AF5619ABFD21CE3F2641404206810B
:10460000FE1069088F012888741920416581A2D89D
:10461000BFFCE894738464F564C546F2575BF2A866
:10462000B302B3E3F3C5D2F47DA413F6B708846CE8
:1046300005DDE0FFFB4604BE91EFD0D920F3989C46
:10464000345087F6048267F0E3BFD4F7AF8069EB9C
:10465000E29BF6DC88BFECB0DAFB50ACD78025D209
:1046600012207A69AC4B5B053CFB63DC30B18C8F6C
:1046700057CB97E817D4DF6F4C51F702E967214019
:10468000FB66FA2708FEBCD930CCEBFD16D65740A6
:1046900010C8E5C7FEBF9A0B6E490CE572129675FD
:1046A000B60232F788BCF2CFFFF038FD0462673300
:1046B000FDE888F617C097F9417D12B944FF7CB830
:1046C00010D30618FEC7FA7DC23D803EFDCACEFC5F
:1046D000A6FB306F1693F7DCBF625C44B6403B58D4
:1046E000624C373FB26E586CDCC8FE4F4C367F4D83
:1046F00074F600EEA0A4FD0E6DF3B8FE8D58FEE535
:10470000FF3342F59F01796C1962FE716FC0F87634
:10471000E8F9EAEC4135A400AEDD2681641A1E28D2
:104720009F03C3CF173460B6DDE8FF7ED860C79B18
:10473000A8AD70203836C95CE910B3DAB8FD164769
:10474000D9EFDFE4D920017EE966B1992008DA9B30
:104750007FEC490D48FBCF5940088480E010036985
:10476000A6EA0180E59C45292A41DD2167F7B304CB
:1047700080CC16C20F4189CE4D3862B5A01C0148CD
:1047800002CED168EFA80176EA78FEFFBED90360B9
:104790004480855CB7624D1806C079B7FB7A6FDB41
:1047A000F26046F350FD9AEA8001FCFBC097B363C8
:1047B000A10DE0C11EDE8318DD670FB5ED300806E0
:1047C000A2F4BD67D30C44F3800715CB797890220F
:1047D0000C37D8FCA8A210F363E001BD5CD00E98A2
:1047E000B25788E0E6CF7AFF300126D062E6036256
:1047F000532CD3C1248612650E501969B629D3FEF5
:10480000E002F216C008587A7BA48C82814FCC9CBF
:1048100004A6413882B030D9D9388C0506C4C0709E
:1048200093200372442C2F1C22C9F418B9D326C438
:10483000A0322EF0F8B92C88FC07F4401EC080E4AA
:10484000530FE0E0F3DD34400611782683F33CCECD
:104850001E68ED3D90071807D3037932D3E2F36465
:10486000A330F3D0D37009C1B910A2FB66FAAC1122
:104870009F55E80C935FF3D55BFE72820130CE1535
:10488000B3E0FA84C422D3D82FD3D1F3C2130AD30E
:10489000066DB928FFC6B35501F4B326CD0258966C
:1048A000686D1F893AB33002441ED3D460828C7382
:1048B000932012F308D30009D340809D21D3A8F997
:1048C0007BA50220D70484A9A1289B08BF35CF98D7
:1048D000CBA613F69834805DD3C32D764DAE245706
:1048E000D422A99842D78DA6A47924FCE3C9CCD9B7
:1048F000438DEDFC985A2DA0F8065B319BD8F998B2
:10490000BBDF18FAB540F398F65F66F33CCFE0D30F
:10491000B5300FE698772088645F30B3ACE00131A2
:10492000E08417C5DF4DE483607DBFDF07B4F9CBBA
:1049300080FA65224DAB34E4D21CF539B1042F4B1B
:1049400098B0855E790D2C804530DFB8122C79B394
:104950008C8205F7D70BFDF9222126C25D7725BB96
:104960004C93E70BBB6680810510FF7F8920065AB8
:104970009F8D580140B353921201E7184008D3416C
:104980000CA790B3D9FCE0FF413C8007F0201E0447
:104990002BB0C998EA01BF32E57FB02CE608FF14BE
:1049A00098D3B8CA1ED03BF49881A2F390F46B1848
:1049B000DD6B609919FBE36DE0E55FE098DBF102E8
:1049C00089FAE510BEEE5BD3EEBE0259C61C3ED09E
:1049D000A9FACD56A7B3F99871D1A2198CC4FD4B91
:1049E000A07FDC4945A784E020A4C0D7284057A475
:1049F000174735B740FFE7987D3317F25722AD9838
:104A000002793024A381E610F0981C8202D20E9A1B
:104A100050A1BA3598D3820630486B4993308198BB
:104A200014830AFA46DEBF2FB90145306479F18953
:104A3000E95975BD1E392A6466416089D3BAD0D759
:104A4000F8409A8F0365D740021D50CB301CF830D8
:104A50008CE6E2B522CAE02EB32F30176B197474BE
:104A6000BCD3E67AF658F824FBF6F830EF2E98C956
:104A700057119F3929CDEA2262496604E890D0B3E4
:104A8000AFA0E103C70111C6C2717D03E5E6F8845A
:104A900049AD469F46081301218CCB80118F4E10E3
:104AA00030FCFD820531029FFF7FB02010C23AC268
:104AB00003212F5D1EA5D1011898FD4F018800111B
:104AC000F8FB84E0B930F1AE20575D18B4C5413C25
:104AD000465C307036B1E61F4B983DB0B930029756
:104AE0007AE097F3263044D31093F32D59FD6FEB02
:104AF0009803FD981069D6072FC430EDAFC4800726
:104B000097D38220D3C05F18F71B2EC6380AB3D5BF
:104B1000B30249B3203F3FD4181103604462BC3054
:104B2000024061D350FA5260048C44D3222E5C2F91
:104B3000C61D8AF305B07998D9C8E3048010C50A68
:104B4000768A56F1D3CF6E58300187BE98A11602EF
:104B5000205A8E01F79805800281D19AF204230928
:104B600024B5103A1268D949F7468D4F2D3DC1F84A
:104B70008858E69657C851FED0FE9859DE2DA0F30E
:104B800017E8BBFE8874CB811684FE5C3001D9B770
:104B900083E3303FCB98973D1817B48D6BB7066A07
:104BA000EBC0BE92EFF6FF1048FEA742928AAB30F0
:104BB000F2D831CC5E1930ED26E4DE98505C7814E2
:104BC0000E9044A09CF48009023CD2FA2C1130EBE8
:104BD000E0C00886BAE62CFD7B6202845810F930EA
:104BE0004567FC7FF4CDB020C484CA0323FBF7984B
:104BF0000111121708485F7F3CA0829010F59CFEBF
:104C0000E041EF98F2201EC4D7031A979826300788
:104C1000EA1E8C8F5FDA980730F56B83C5E0CF9A78
:104C200005102016B4C4F76B2C08B8B3F97C985A59
:104C30008AF1708BFA9802BC98E246F398F9300832
:104C40004DC6400CDEFFDCA9FFE064F89866C2F3B5
:104C5000D3C57D9844E0C08410A5E02C34F322A491
:104C6000D3AC11AD8E9D3C7960FDB71C30262BF97D
:104C7000D59840D744760C251231E61CD7C81629A2
:104C80002C50E60D3AC6158062D34A44ACFE7B2018
:104C9000893408D8F9DF8D307CB8F3FD6F3352FCCE
:104CA00098B2C85BD3E7D53010BD04D7605E6B4EB9
:104CB000D4A0FE40FF3F63C4A523ADF348CFC01688
:104CC0006EE3D112F298DEC306C1D5E840237FD748
:104CD00007DFCCA332C91C3B66FF246CDEC8137609
:104CE00077F6D9220286622797C87CACDAD2503890
:104CF000D3822402DB18099CD48005A61E58FB84AD
:104D000017300226E3C208584F10C52C82111178C3
:104D10008B0E9880218BB2369B027FBF98210602B2
:104D2000010440BB08473CF330228EC0E3EABF5287
:104D3000859E1097FCE081BD98F0D7401E5AEB6627
:104D4000C8077AAF1EC4025846E4979D989AD5408A
:104D5000246343E2692DF335BD16B086B50F64EDCB
:104D60009890FABF91E5A0F9C87F403762DE98AD10
:104D700010BB75EF9E35D31CEA79100C05FB28F8A3
:104D80002328C866C8F5980AC6192998C844970206
:104D9000650DFCE0E01224C4765004A3BF25DD704D
:104DA000FAF83340988480929375BF1E347FA1DB5C
:104DB00005D10980887B98A00134DB46E0CD418194
:104DC000630166C88AECC0B7489E6ABE8009143584
:104DD0003CFC306FC3C7A7316EC72CF34BCF98FB99
:104DE00007F241DBD57918E7CE6EB7216B64FFC8B7
:104DF000B2304B97ACF410FFEBBF1E8035E80FE6E6
:104E00007E20195C307FA56B1026798B796B6BEF58
:104E100081605D1720BC62B0F9A3E5F93D8A7FA9E6
:104E20004330F5488C9A40B3AF4D337ED9B38504F7
:104E3000B3BC116457F4EB76C1C46B8C1C6008AF33
:104E4000C66B8623FEFD152126C870305A64ED1707
:104E5000812BD7C828C8D271F4413099EF6632113E
:104E600002C11B9808F52160220C919BB486C010EA
:104E70005E09988C4D11FAA1F9E7308007F0CF2038
:104E80001EBD78400FEBE2010C2EB25F1679C030E8
:104E900058978398BF2030C8012881C691D3D06E1F
:104EA00058DC1C2CEDA9FE84BC98BA87DF898A6681
:104EB000402C79578E3001D36047F301896DD9FEBC
:104EC00041F3B731D9E306BD61B311C040C28D983B
:104ED000A096605C25E94B29EDD224C1D352D3546E
:104EE0007822C6AF50B82C0C0F0550FA5ED2FF8066
:104EF000C6D0181A0360089F10BC3134804235F9BF
:104F00008AF1246920E60667FBE704801CF1E09A39
:104F100040082B42FC5284A002CCF30AF7693C4DB6
:104F2000A028341A90FAF34523745688732F38F367
:104F30008CBCE7CE3766E6171082DB4F53CAE74FCB
:104F40005982AD08D8F82EF75D194090F5E102D1ED
:104F500081C078C50903B0A00EE64C43863094F4B6
:104F60007186840348C06EFCCCC1995BD078F3A6EF
:104F70000271C8FB49A84EEF34F4616D5C3E30D33A
:104F80002046F71042030866C880CF1967B30A4D60
:104F9000FA2418411201E47D49482266CB180ADF41
:104FA000498C8091FFA40838FD84111022D612424A
:104FB000E71013574C805E0C2F9F4F7C415A051011
:104FC00001677F7F0581261DC14847E1D0800C2005
:104FD0006D12C126EA234F4C87F52FFCE0CD412C02
:104FE000DDB0690235460F62C43043DF16C8E2986F
:104FF000E6C4783069E0F0E002BB78D6980C9C30CB
:10500000CC8370C66402D30AE37D5EAC7DAEC83645
:105010006AEA1CF5B88419E6FE986DCBFD61FE7254
:105020005D5AFA7B03FB7FB9FEA84FB3280215A196
:10503000125478ED40010CAB6049D2C2DA88BEF957
:10504000E3E610F44B084FC0881005BB0AD198095D
:105050002B0230C89092B3043E103236A8FE7F99DE
:10506000B4C016D8049A04AE6863500980DD06C542
:1050700030E59898C8354C43957FA1DEC19A508899
:1050800070B8452439348420EFE3180923662140A1
:10509000F7042E90FBB2F5EF35E5F598811B3DE561
:1050A000CD79E5897998DE6B5CCEB608F1986672A9
:1050B000C680023F19C898E06EF360D5023CC8D3A1
:1050C0001C1403A3B344BC4BFCBCB5B32E0310B9F2
:1050D000D5412B0C2BC858752040A69A311568284D
:1050E00066805D24408CD8FC9D4E8D042471307DFB
:1050F000C4DA316C226FB583E5839EF5441209074B
:10510000488211FCA0802402449A64B6435F72DA9C
:1051100089F949FF1011424000890413AC0194C879
:10512000D4862BE8B0DE02C290899B997DBA38E71D
:105130001130DC10C2185A03F298F09A170967C8A8
:10514000A00B13240CD381448FF8E0AF014098B238
:10515000CF16C026200F60FB810CA00112F830642E
:1051600046E2E6B5D0356657ABE8173D8A9826F794
:105170009807E08147C6730383187F3B3008B8FE69
:10518000FC9822DA283726F0980E4D0C82E688AA81
:10519000B3508DB3F9F7045B095E984BE51197F3B3
:1051A0001890C6E3DFECFC90F5F608509E4B900596
:1051B000DFA1C87B58049068F2DBDF56FA0246D7BD
:1051C000E34D64D32279A573300A4477F0250B01AF
:1051D0000CC685ED41F0FE36A7C54CFFB3B31F6F7B
:1051E000FFF8FFCB14F41AF1129068F37E59B1E77F
:1051F0009B18E0C3D318FF62A29ADEC307FF98FB97
:1052000024628B93080A9066081ED3DC7AF9CF01DA
:10521000850273CBB8B1BCADF32475EA11EDFA1871
:10522000F985A63556D982CD4658FBC0511E510589
:105230008818179E91B0B1E4D3F96AD32F5060D388
:1052400089F93042F8CC8F6DD3B8FDBB3DA077997A
:10525000DF3EAAB148CFD21B40CD60CD6CE938FA11
:10526000EFB1FEFFBC80C3C4FFBFB069F67F13F986
:105270001818328A84105F0CEB98FF3F6D678CF929
:105280006919247AFAC0CA20795BACA1B3A16192F2
:10529000FF08F59E813656D0FF7A1B08D46AC69661
:1052A00065082688EC98F940C5C420FD4BB410333E
:1052B000C7B2C9F10032650BF3C1FD5A02A642C65E
:1052C000C0F8DC8D8FE622D8502DFD583C82A12AF3
:1052D000700E46BF8E5E9F9210F3CB13C3F4E63878
:1052E000FBBB68FFDC1B4203D32130F306601218BE
:1052F0002408E1E82880B11465300C358081BD4276
:10530000C601988328B08DA0A25E4BC3432187C4F9
:105310000CF52090F880A171FF8101908202481F56
:10532000981541F3704424BE0306C01D80B74C019C
:1053300067FFCE455A87A048AD091C2E5F8828E03C
:10534000E024C08AB658183F14204800B8D9F88223
:10535000FF388E40CFF8E40CCFA5D929091A3310B5
:10536000F1F2668D3E38FC07F06BD7A1682646B98E
:1053700057B1208E596F021EB4AC80B2A23F19946F
:10538000B1FC1E319BCED8F1019F518970186697F0
:105390002D5620BAFCC7F59708771BC537C628F8E5
:1053A0008BEDF10B76E5CF5D0768FBCCF92FB6B33B
:1053B00004142CAC01439B9250FE72EE3C60228C94
:1053C000F5611A02442BFA629FAAB6B059B320AB1A
:1053D0003E081FEA21337F5BAF50FF2FECAB58161E
:1053E000C7F9A61045E6C63014EDE6FD2D15A93621
:1053F000985B7F770F90FA10DDB856695FE6CF3F74
:10540000FB2E102D07689BFE61401430D68C57DDB3
:10541000AF014D7188F997C07D1877E0911119B1EE
:105420001C84BAA56FEBE44039D3F02C663F37FFFC
:105430006C2ECCFB6CD8C438C5C6BD7390B3FB7F53
:105440006C1061C95D7A9820BA0A97BC02AC7A20C8
:10545000FCB38EF8D0DB6C0143DBC5F8F919E3002F
:105460000A8F1CED64FDDFE67999877F7D7B5258BA
:10547000FD69D65DA8EAA00CBF580114A1C4E0885C
:10548000D8833380FD784FB3A7FA1BB6BEC23ED98E
:1054900015011FEDD868FF6628B604515C08F4BBFF
:1054A0005A38FF460E6A8902C2C5A708BF76E8A02F
:1054B000FC41BB863D1066367690FE23E90C01B4B4
:1054C000B104DEB4E80A21CD6FA7FA0A326A40229D
:1054D0003FCCD65B718A08DB852332C290DDDD6369
:1054E000203B66FC80336BF8372E02FE3610C4FB7F
:1054F00066204BE941BE012F200484785A04365DB2
:10550000D5BB42DC4BFC20831F06028081A108AB87
:105510005B130504E0200324DD34D1A2FB813009B4
:105520003DB3289C0DE51438E2E350D8FF192C2830
:105530000810C112E3805048010AE7052A409E88FE
:10554000FECF8044B350019C4921B5ACE314300434
:10555000F2812A23CF374002449B01E65634B47BC4
:1055600078012382983409C060F0434AA00ED21417
:10557000400105994C896861EFF8FF80FB8D731538
:1055800071F7D846E92FD448E6464357D3A9F358D4
:10559000FF7FCBB3997DD2C220D7108FAF58EF10C9
:1055A000976DB64155F704C28FCF2BFE7C21BE3BD1
:1055B000EEA0FA0B361AFFBC6B8FCFF913F1D8208F
:1055C000F859EB568118E5C808FE4B38920488A8B4
:1055D0002AD5D3016579F7845C38B624FEB4F0FC93
:1055E000FF2334DD1AEB3016CD695098F1C60AFD61
:1055F00062A6D62E308A025886A776E898FD1E6AE3
:105600001902CA2E06337DFE80975E8479B58CF22E
:10561000D840D5E2844BF61051B3F6BCE8B3CF3096
:105620004AC55C243BAB68FAB4B1FEB355F28AE3D9
:10563000E61CCA60DB9772856C55D0FA67ECF05FA8
:1056400056B318FBAEB2809B7DB8F83091C2C51C32
:105650000499DDCC54FB92EA618EDE557E6C65AF19
:10566000C8DC7F30F7D71A45FF6401A03104C106BA
:1056700023E619FD68964BE84235B9A0FC0116C037
:10568000065002FCDF9328248DA01D36123F78823D
:10569000084068012DE5A411B4CECBB3107FEEF91C
:1056A000800131968FD78780F5560684F9C803DCD0
:1056B000D10C02F3A06B4910E69D41B9D8FE799454
:1056C000FFACA288424CD330D3F29AFDD360FA806B
:1056D00033ACD3B310E3C1093EB320100C84405166
:1056E000C0296E5C2060A6824A31F9FD3234FD99F2
:1056F0007871F5A0200A26F438B3280C3DCF4DB3BD
:1057000085DA46DA45998BE40CFDCA30027E22C563
:105710006601F30ADAC0FFFB140810FE0B60444C6C
:1057200004882064E1A0590808DF014C801130B3DF
:105730002184B3E9EDC6488232F167B8B0F8C024DD
:105740000B0910C72084E181319057B0EE320CFF75
:10575000CC16C003837A0FFCE0011C9007920C1E4C
:10576000C05F78200FE2D9813CCF6660010CA0A118
:1057700007BDD3F018400F60263D85F04C09D35982
:105780001276042C946F190971660A26A9D11EE0BD
:10579000BFA1E572467DBF89F934AEAFCB0452C6D6
:1057A000C0F703BAC08357D24066B052E20710E098
:1057B000B31F91300246404EB3206104C4D0B329D8
:1057C0003A11148870361202226004054270B34FF9
:1057D00013442488E2021120FF58FCA08534A2065D
:1057E00038679B449F68104DA001E90491068343EC
:1057F0002EF3F6D93441CCD9B3BC386D82426BDF7D
:10580000F421690C8DA8AF3126A56C500827400DF6
:10581000A2599CD15CFCCCAF679160AD820165F56B
:1058200012BA660CD5F8067E9E771443EC46086CD7
:10583000D3293988E895F9A4EAA5201FB319100CDB
:105840008801032006E6B2000EE76151D0B39DCA7D
:105850006C646EF602C1FACCF2A53FC6C03BCA83A7
:1058600008F9EC78CFB0FD063122463FB59002A38F
:1058700040049E48EDA400267B94922008FD9830B9
:10588000B30AF9CC043565C0FF81A040112CF702A2
:10589000513009F65822749E4C0119E1FBF88464DA
:1058A0009010E09EF0FB2440444AA695F098E4F363
:1058B000D2974CB312CEF7980530419420DBDFE34A
:1058C0002284808102FF0116C22058040A60E92464
:1058D00080880209FEFC60402C8007F2EF5F985838
:1058E000E3D2F3922FF3F49802B3F3BF33E0CD8108
:1058F0003C43F0DEEF3FD30F64013C90D707F0B399
:105900006B8178F3604D1970FBFCAE85C1087A3C61
:1059100080ECDF9BA1C507D6DE21A650FED2B88061
:10592000D38BC6D34E18D46237F38820CCFC729147
:10593000200AEDBD988BFF40414C810520080601EF
:105940007E4E03BC14BF8809622EB320C2429EE67D
:10595000408128106FC6414CB3132F48CF1C01F66D
:10596000FCA010E6358606F88A2AF64C01A057EE10
:105970009D8BC9AC69CB3B8314023F9F3036C02658
:10598000D204E75A4413DD4DA0CE09B4FA0848BB4F
:105990001768CA02259B4337FE6BEB98084385279F
:1059A000D49804E1622E6604C040657383F47BB82A
:1059B00031106BD64D8FF890FB80407FB7980890E0
:1059C000675380412BACC2983FCB988343B3C7B396
:1059D000C0024009786B17785897C6A3F1031F8659
:1059E000B549C76AF998FA0E35D304E798791E7855
:1059F00098B7F3D55F14ABF88A1181A044FC01027B
:105A0000182123090F4C8811B02DF23803D134F836
:105A100047B3F998DFB9E4448C818FB871DE57FC45
:105A2000BB981081083F9E30310242C82F090520E3
:105A3000FF6204400810121116E7C22858C6204120
:105A40002BE6F95498FC5DAF2D1B9853C8B9306014
:105A5000D7810C1730ABB802D2986236CED77068B7
:105A6000012CEB880530D2A503E0B9033CBB80DCF8
:105A700098C88358EB63E8819481F8D62B80AF9166
:105A8000E230FDBF20FE982BE5CB98CCB7474F19ED
:105A9000D6E401616B2E84AF44F5E503AEB075909A
:105AA000FE26882D2677ED4050F33011B069FACCF0
:105AB000122DF3B1D70E6B302805913050B20A6821
:105AC000C8B903427AB3230C0AA782B348FCA0F3F7
:105AD00011318006C85A172004F0012DA205458215
