:100000000C949E300C94BE300C94BE300C94BE30D8
:100010000C94BE300C9405340C943A340C94A434F3
:100020000C94B7340C94BE300C948F330C94BE30C7
:100030000C94BE300C94BE300C94BE300C94BE3088
:100040000C94BE300C94BE300C94BE300C94BE3078
:100050000C94BE300C94BE300C94BE300C94BE3068
:100060000C94BE300C94BE300C94BE300C94BE3058
:100070000C94BE300C94BE300C94BE300C94BE3048
:100080000C94BE300C94BE300C94BE307F7F7E7FCB
:100090007F7F7F7F7F7F7F7F7F7F7B7F7F7F7D7F76
:1000A0007F7F7F7F7F7F070007047F7F7F7F7F7F4A
:1000B000077F7F7F7F7F057F047F7F7F7F7F7F7FBD
:1000C0000F7F0E7F067F0D7F0C7F7F7F7F7F1F7FDF
:1000D000177F167F157F1C7F147F7F7F7F7F007FB8
:1000E000277F1E7F257F1D7F247F7F7F7F7F187F57
:1000F000207F217F267F227F237F7F7F7F7F7F7FDF
:10010000107F197F1A7F1B7F137F7F7F7F7F0818E7
:10011000117F127F0A7F037F0B7F7F7F7F7F081015
:10012000081F097F080F027F08197F7F7F7F7F7F6D
:1001300008027F7F081308117F7F7F7F070C087FED
:10014000017F080B7F7F08077F7F7F7F7F7F080706
:100150007F7F7F7F7F7F7F7F07037F7F7F7F047F1E
:100160007F7F1C7F1B7F7F7F7F7F7F7F037F0810C8
:100170000C7F247F237F137F7A7F7F7F7C7F081112
:10018000147F081908200B7F7F7F7F7F7F7F7F7F11
:100190007F7F7F7F7F7F7F7F7F7F7F7F7F7F081550
:1001A0007F7F072408057F7F7F7F7F7F080D070BF8
:1001B00007237F7F0713071B7A7F7F7F7F7F7F7FE8
:1001C000071C7F7F7F7F07147F7F7F7FFF1F627FFA
:1001D000C23C006088FFFFA0089001324006C8C6FC
:1001E0000019FF03050A4414812241CF068AF32037
:1001F0000365FBA00C94290035FF0CFF9881325059
:1002000006CA5419A128E0F3A699C6880009D3E7C5
:1002100064800CB978FAFF0015E0025C800B70C3B3
:10022000012EC30468F32AA002F4F3503CF3C00586
:10023000A8C3E6A06727B312E05480C30AD0DA2A25
:10024000402EE0544FD374D3B8001738B960F84C3F
:10025000121BFF98FF1740E510C6024067A0EA4056
:100260004008C60120DA04802CE008A6E4D8F96032
:10027000FC203CE5D9C7801D29FC02CB04EC0128F9
:100280000CF1B3D39D05E01412C1E04CAB04779C94
:100290009FD3C08128E948F902C6100F12440628EE
:1002A000D5B4202FA7007E4BF57C246EDC4F0412C2
:1002B0009BE7BB21986124901442ECDE8201C6CBFF
:1002C000D0FCA22D34044BD14819F9E8BFA040B1AD
:1002D0008D54A804F5A142F0A54DE602F0863F7FBB
:1002E0006E83BD80FA087AFB0299A418FEED65AC16
:1002F000D6082052B334CE03F206FDAD30E2CDF67F
:100300009D5C2090F99C394BFC881C69B31004BF9C
:10031000017FDB477DB2EECD01E0FDCD5C74B0E145
:10032000632CB630060DC222E3662D09C13142BCF2
:10033000C08653A7A80950D9FE608C193C20B1D0C3
:10034000A7693C8001B5307391E0013CFBF00206E7
:10035000E4720FC1FD1CCB50FC6230868C8E68B3FA
:1003600096E004A746A8A9C009D9E6E081FE28675F
:100370000BD3DA1B51B314FA1B199EB3FFCF4C01F8
:10038000E61138FA2DEDBC6ADFCC9868668C969F32
:100390005D9822DD044023AFFD47ACFE80419CD137
:1003A000B1C003BE6EDEA906FA66F8987B035770EB
:1003B00060FBC0B101FF379816EA80DE98BC833439
:1003C000F5E918DE3A15FF2DDBFFA817B39EC5D15E
:1003D00036662239E199DEAD6FE898881203F8F6A7
:1003E000C4F3F8DFEDDD19EFB010B3635D644D6F5A
:1003F000C10493F37FFF58A510192CCFBA99FD6063
:100400004065FED63C0B1BF398D6BD20DE98B93D67
:10041000181EA5C0A60FCDEFE8FBA94CA19318B6F6
:1004200043D617579798F6CC0803BF5EDBA3FDAD04
:10043000DC88CCB37119262CFDC0191643ADB31856
:10044000FA36C58006157B9810146CD32ED4EA0DAD
:10045000775768142D7330A0FC69E6C119AFFF808F
:10046000FC7018DA59603B7B90F860BE38C29E1B66
:100470003023325E5C3060239E207604034089B4D2
:10048000B3C882FBDFB774029845EF5264C110F223
:10049000233CF7719E7523644280EF7B4710FA84FA
:1004A000058EE937A7FD7F208E7B98C4246DCA3066
:1004B00030F76B444008EE236122D0E71E60FCC099
:1004C00001394640181A36133C083FE698FC30B410
:1004D00041E730C003785E984E0CC0F988CFE13018
:1004E000A9638BFF013B9E300360200CF4A2FFA1A7
:1004F000EDF1FC4046DB251902F68D69139BC230F5
:10050000A54019CF8804BB2120F81A90D7FB1D20E5
:1005100001097D98D46DCDCF8404A6B01B200A219B
:10052000813B76DEFC16F9A49FC510E598EBDB084D
:10053000FBF4F864789A0612E5C8CE7B831840EF86
:10054000BF7AD39884B3107FF6CCD0FAE2C1E9C267
:100550005F3C988C8BAD573822ED3CC7663576BB37
:10056000FED5ACF67FEA6CB03139CF65984401D640
:1005700074BE25EA98817ED3884010236021F65A04
:10058000E1FBBAB1BE2FC2AF5D9810C830186B88BE
:1005900030D3FF41987AB90F2EB8BFF9AF1730B8F2
:1005A0009B9030C4199E9846599D63F3ABFB809095
:1005B000FA4673E52202611F9A9891C06328B30935
:1005C000F30D201A0C6A41FC5A51F23008DFD6981C
:1005D0000239C788733013087AD40693861ACF4A33
:1005E000DC1401F2D808FD8F4B368B08BCE0DF8DA0
:1005F00030F9E6D0BFFECC9EECB191E019AFF39894
:1006000093D3306E805DC27B2E60F9A5089E16E7FD
:10061000B2A92284F0146399C8D10222C2DE986F75
:10062000AEA020042CE6F6F2FC158897CD30B00879
:10063000844366BE60197D7FDE6BAE040B302429D7
:10064000EF20E8AFFC3298B930084B46401CF598D3
:10065000111FD3EB9841BC9802F5983AFC30F71083
:1006600040FE8418B657E79899249C3032B602C6EB
:100670000739FA80B509D9C7AB7AB30A6C0B286D74
:10068000B884711919CC1C30F70320420C379F50E5
:10069000FD7B98120165E6C808C6CB196F11E230E0
:1006A000D2A6F198F79203EFC1350237C614F89835
:1006B000BE57E798993E0B34187E6E4680FFCCC833
:1006C00005061467C78007A6C4230318E3198961C8
:1006D000B3026BED6120FCCBE014CD9DF5FC2463EF
:1006E0006AB3026EE040035FBE21BC1C1802419F4A
:1006F000CF304193FF80B811A1C84BB309D11C5D25
:100700006326F57F94D53BBB309D3058100BAFFD71
:100710008ED9F8E041B79E98FFA53CB0208E2F19E6
:10072000112D195F2681C9301EF3AE022F30659856
:1007300048FBB6A86BBD46660863BB4A0206DDD31C
:10074000407066B519C9DB57EDF3FDA0FCE9D396FF
:1007500030013DAB1416923CA3CCB649F6B39820B9
:1007600099A60C04C6E502C8F9EDFFCC25E36D9906
:100770009BC80119E330FD98A09749F4F230083A7C
:10078000FA4DD7B470FD80B64106C7C30CDFBD106B
:10079000C430C645A3EE13FEE001FFB37FFC9958B9
:1007A0008DBF29CA40231A40191A7230C08F257490
:1007B000D3E8F884B3BF06EDB14D19FCD6C5F830C7
:1007C00057DC42AD46D4EB8B049CD342B8FB040704
:1007D000B2067D4B08378918B6DB8C0428B3DD04DC
:1007E000C1ED98602432F63002D329A7A213D37B3F
:1007F000EC09E8FC40BCC5232FCD9816F60F2F94CA
:10080000C8D3091B8FF33083380E0F4EA90C70FD2F
:1008100051F06690D477D81245ABF2012B37C8203F
:1008200082D3DF88FBF7D12D2E8AD6B32836B3B614
:10083000A0E0303491D37E46C8A744D3100108AD60
:10084000FC6BA71226F8B9490A0C24F59810DEF0C3
:100850007F170CC69132C742F43B46C63CFED7AC6C
:10086000DE282FFFB5331795B612A8F761FF1AAD32
:10087000F0F957E810D17F069BEB98031668B2C4D5
:1008800080C8B6F9B2C8D7FBC96010FD98F8A5FEBC
:10089000C1827D7F694FE7EF2C89884BCD16D295B9
:1008A000406489F7B3206A0825F8F3EC250BFD0FA7
:1008B00030801040A501B3A3A7ED7F02BD418C702D
:1008C000A34676D255E2C0EFE77A6004BA11B0F8D9
:1008D0000816C022103E9360218C9E9106E1F860BC
:1008E000E2535AF6C0172999C55E98B604F30A7107
:1008F00066D3B9122678BB40DC988007F4190EC67F
:10090000BF7826C82EFBDF964103FEE5796611E32A
:10091000C6ABB3500267764660FD22157CEE20031D
:1009200060D3A05A2DEF492022598483B97BB20CA1
:100930004566119219BBC2BBC5620261B3AA34B34A
:1009400001D3F6B020C8FD31C68671B38FB7FFF86A
:10095000FAF98471FB7010D9A820A6F372D120C6D1
:10096000D8D3B8FF0C121DFF98FF28824266906C06
:100970006631DD3083BF6D45D7F6A87CCC0648A034
:1009800026E09318A166FF71667938B3D368F870D2
:10099000E20651D1B9DE8B7D1FFA6C5E744684A6E7
:1009A000F3A9D3E01966020661CFF6CCF8FB21E685
:1009B000AC1B7DCB75B186ABBE401158ECD85CB397
:1009C000B10413A84EC2E124B1B815B38085EB5928
:1009D000014FD8492873DBFE2025F40543FC66F857
:1009E00061C1B39FCDFDDCF985CB7308FE3FCC5CC4
:1009F000E922E51F04D0B2FEFF630461127501977E
:100A0000B38196F5850F8820F462880299BC98CA54
:100A1000FD8B08841EEFB9908E5844C0CCC80420CA
:100A2000B35352F01330F3AA3109305C66B952D88F
:100A300069B4013193F766700148191BA968ED0E7E
:100A4000141040334CD9B2E81F7F78B3B00587CC7F
:100A5000F759EBA8B0FEF7D4E81061B68058ECFD6A
:100A60005EB9B1088ED85BFFE1388C18C78AEC8874
:100A7000C10B56FC04BF16B2D84CB33FE7C098FB7D
:100A8000226EA06EFAB020D39D2B8030FE872B6C97
:100A90008035F818C0FF08B412FD5C0393F67E1988
:100AA000FF2620B2B0FDD3765A0224A9D828FC60D4
:100AB000B3672DEF82965E2030B361839A98FE6112
:100AC0007EAC6B044C19FDD896FD2438664098FB2B
:100AD0000C121BFF89FE7FD8AE0158C660ADD264F0
:100AE00078C596B3081436BC21209E02B502FE6973
:100AF000E0FFC433852061176CBC4047DB83E0FA1C
:100B000018D37A0BDB1298FD18F3201F6C60820853
:100B10009FB048BB4CFC753B08F638FF40017A8A11
:100B200001C35EEC5048FF127D4B98B0FFF7D64FE3
:100B3000204B17B9FC61E1BBEB794057B3E8FA08E9
:100B4000A501E7809DF6AF3E52B2409BF820104FC2
:100B5000D27EF99D04E3F765E5080BFBA31A52B8B2
:100B600041FC81F0C0898880A308C9DE840421FF8C
:100B7000E069F83064026A438A607BDD1404401A3D
:100B8000F54B14C9C21AFD4F7A051464A099028569
:100B900018CBA6A2C3D8FD06812299774851936449
:100BA000F9EA8DA7198A42044288409FCA28061094
:100BB000C01231F551939E2420DB2808F030B0B3E9
:100BC000A3F429104A79231B818FCBEAE8FB4079F3
:100BD00006B7D8CC49963DFFCC5F9F41B24B1ADA9D
:100BE000FBF8FC33EB56B81015F8E4B77959F45C10
:100BF000FDFE63EDB3802103FC6404AE67E9AF1E24
:100C000017056346133FCDB7D0F8AFA59D04F48711
:100C100047FFBB3190FA080BF60FC5F77690B0FC92
:100C2000BD6E0462FAADD818FA63FBE41010F52922
:100C300008EDB3FF40B20C02C2BD37AF08F472FE3C
:100C4000081051FEDB2BF9F51B8F9810FEBD873085
:100C5000FF204086A6BBFEFD3711A420FA506C6C25
:100C6000FD34497408BE35677E74E8581978FF6A08
:100C700028BC0864D7B6B1181CF953EAAC0458591B
:100C80009028EA6230C3E5B8033BBC10A8FD0445D8
:100C90006B01CDFC88FEEBF4C00DF3C6C0BD48F976
:100CA0000CA5022280A7EC32F03537B55DC60FDD0A
:100CB0004C68FBA1A086A6B5EBC60C9BFB58FF04B5
:100CC00074B330D866FC55E0B22C085B4FF6F5984B
:100CD00080848BB30C55F806A9F88A66A260C245D9
:100CE000B3088AEDE7BE6E4B036D1978FB8CD834E0
:100CF000D3BB295F12D8A9FE79EB534655F88CDE99
:100D000098B079F3BDFE80070293EC9848FE461D2B
:100D1000ACB206AFD85E124866B51458F80AC9B32B
:100D20007F7FFF1061FF5B1BFB9888FF6141668F2F
:100D3000B6FF88FA166D028D7230083EFD0CC11F99
:100D400080306CF2F823FD3222AAF811C597DF2C0F
:100D50007A9840C2CD31FC7386FD9850B0F88D1959
:100D600008611F36F6C1FE15FE8701C644B3196B34
:100D7000FB0F38CADBD74B0D36E4F4FE1C79E59F38
:100D8000DDB150F984BF8763FFC45E98D820F85660
:100D900019B109BF6C942BFD3CF50626B76B6408AE
:100DA000F67F19122C19407B9030015FA6AF11AD70
:100DB000200A7DEC05637F7FB183DEDAFE03ACACF5
:100DC0000257BBFE060227D698B81EEC49B6667DD0
:100DD00019889408E0FB8E1AD3B687440135E6984B
:100DE000F96EB0FFEFA8FE6DD51960590AD8D8F991
:100DF000EF583CEF6D6B16BE119BDF22B21DDB96E8
:100E0000631963F116F7CC0C8001426619C3A16621
:100E1000BD1DABE0E0819D1CFAFD048DFE7F04D476
:100E20007FC7CE9A5866D949C27DD5C556E72050AE
:100E3000194BF91DF3E51D599B402D5F11288E9B21
:100E4000B37E9802C22FD8B360EFD832F26605DBCA
:100E5000CE9858FDF0EF6C1705711180B610FDC4E7
:100E6000027B2FCAFF61E67683440847761709F8AC
:100E70001EAC66038FC0C53CD860FC7866B704FA28
:100E80007FE67DE9FCC23F580680B2E022CACDC8A9
:100E900018887A4BC6C256B340049BE8420127C06B
:100EA000983105B30688F4B10611F9C51966FADC64
:100EB0006319C767ED2E7D7F93ED98A8FC886D2997
:100EC000851CC35F1A6CEE77B698B0FF41B38CF601
:100ED000C510C4732E0CBF01ED32D066B03648FF8A
:100EE0002DC6DF3EFFBF0FACB19F71980898FE582A
:100EF0006DEB9D0CCC229F2D9800FCC3B5B31495CF
:100F0000EB98280E72C8CFE63080FBC24EB6CAFB03
:100F10004C1BFE20A8F8C6CCBBFFB132BE6C30C85B
:100F2000FF3C5BB310F9B03642DBFC11EE9618D8EB
:100F30007FCE6CE014028FEC7F01A177ED7F7BA464
:100F400090B5033166AE583008E119BFAD6BD88C4F
:100F50007F6F9B30ABFA08FF3908B50231F1BE6CE8
:100F600030A8FA28F3EC1F73FFF8FB20CF805F5204
:100F7000C9024081066719F3DF32B128B6D380FE7B
:100F8000030486FF98FFC6CC93E3D11C6C3990FF15
:100F9000FDD869046E66DE50FFA00192A061306644
:100FA0000651D3EDFF88F886EB77082839F68428B8
:100FB000F823047FAFCCB07F48FB3303F4B3CFFBFF
:100FC000490936BDC1796620617ABA40D1CD89B26E
:100FD000FABBB20161AB6D20107FC2F17EAEFCA006
:100FE000F46206ECFD81012F3F663B795871DBC846
:100FF000D0F81E31C1FCD6AE10F9C7BF0801BBD86E
:1010000004E873F67F7E7BF5CCFB080FC9B7B640CA
:101010008E0463660858F8109DFEB30136B5BFC64E
:10102000E86A66B08042586618173D17B001A3B64B
:101030009CA815AC66207566FDB00887CCB6255A0D
:101040009490652E8222AF88C7D61940FEC82CF531
:1010500075AE50B0FE996B015C9D63EB1908087E7C
:101060003413097ECCC70D198C1D3030B3FDAD9003
:10107000605C76B1103B1BCDC30494F3B0C09D6699
:1010800080613FECCC105DCB406BD06F98FF969A9F
:10109000AC5BFB7D6F4061166FAB015819FE171BEF
:1010A000E30193D6173BCD1361F88706B87EF6D0DF
:1010B00038FB86ED088B19FD358C046366767BD68C
:1010C000020171FB38FC224010FDC9FB209866B874
:1010D00004E5F3DF7CB1A22F4DE506FD05DFFADA6A
:1010E0000204A38728F9152068F8DB46BE17E67CC2
:1010F00002D7BB9F850A7F7B962054B8FC04BF5C57
:10110000E520AA61726680D8011B610314F1100802
:1011100038F818243666CCFB117D4C187E44B3D8C1
:10112000B8FB2B75B18FF1E287F97B4B1610531585
:1011300011DD920894F4B230BA64C7BB801063C664
:10114000661EFA9802CBFB7F1D16197333A6B07981
:101150000C817196C8FF7F63E313E390B0FDA3F6A3
:101160009B01339D8004817EA140C213B33CBD230B
:101170002D4F0277EE5A8C58961865EBE580105C7F
:10118000440CF9B0B0C7B6642062AB06E5F90FCDE8
:10119000F678FA860BB31065B401BE9AD02C664877
:1011A0002E60B330065BC07E6E44F7FA5810136AA7
:1011B000B3B018B9193C36FDF0BFCCB4E073661E6D
:1011C000C003F70E73F690F9618219C0D919410175
:1011D000E070AD034066B0BDB308642CB311D5B365
:1011E0000885DEE5B214BBF70166664FC4C24FDB6B
:1011F000CC0C6584697C8C671138FC612124BFADFF
:10120000003CFC988CACC15E00D8FE085FDBB110DE
:101210003BD64303ABF8C30BBFCC2864FE3205CDED
:10122000F63AC9F9C30EC4B4F06DE198DA2D228301
:101230005DE490FE04870B66013519FBB0FDC3AC7D
:1012400067F5B38BB68B62190FBF7F026FFD76F81F
:10125000FE84C6BA35BB45015555FF85DF32679719
:10126000EE1B303666FD04187FCC02016BEBE50205
:10127000FB64616EB3D8FF046066B324160E09DF09
:1012800032D8A0FF63E698ADF5E041AF2D3083BBC7
:10129000A0FAB008F7CF98E37D6F3097C7D69828AB
:1012A000DC30BF023638081BAEB30435AF59F788BF
:1012B0001CC2BF0D8C5737F598209FC30F0FF961E3
:1012C00087AF9820331137DC0E7F6C0EFC30F8CCE2
:1012D000AF325F5B640B02461923F8C35E6C30606B
:1012E000028E5A3088B61991FA1AF230781B23967A
:1012F0003003AD19E8FD86C6664F2D7D8356665BCB
:1013000018F9989EB3B52358B3C063C0302D44BCC0
:10131000DEF5B21ADF29B98CF530B0FBFF96301834
:10132000FE98D898FA69E798F90693C8300F0E6CC2
:1013300066FC0434F6986041CB3DAB6662B0FDDBE1
:10134000556214DB17017D5E620C97B0FBDBCE9813
:10135000CBC84619C883D7DD9898FE0886BE98B7D3
:1013600010E53010B366E9F961B7AD980196B3584E
:10137000ED1970FE86D9C896080EE29FAAF6A83C21
:10138000F8C38F3398D6FF901966C840F31173FFE6
:10139000BC98FDEC3FC8FE35FDCC08BE5EC8A47A03
:1013A0001993C31EA3FE79F8308DBAFD982C7302F1
:1013B00041F961D71A3016ED5FC8D2B1E7C3CE3319
:1013C000303BFE5361972D302056B3856AB308C475
:1013D00096B3041166C8228C0E8EBD165B88625FC0
:1013E00032B040D7D698D02266B1F0DFDACC308B5D
:1013F00011185FBC7F1696FFB023CD30D0888D7D4D
:10140000CCB95F7D7F9DBB8CFA3CB36C962877EDA1
:1014100032BD9804646A624CFEB10D1ED86430F788
:10142000AD98807D9841019197C83B9F48F808107E
:101430005866406BEC98E8FC0620B3B0049736C8B9
:10144000416AB320C2EF5A4B24F994CB2F88209FD6
:10145000F55B0885FB9677D939CBEB025FB093B784
:101460008D7DFC98572C9924BE98B3980C197FCD8C
:10147000A2D6F6607E4D73FFA28D9B19803FB3010B
:10148000F3C81265E6C82CF5D7FF8FE9C0EB6602FA
:10149000656628BE59C8FC302CE273769680ABB3E3
:1014A0005063B31BF698C1F8C23166116FD6FECBFC
:1014B000B3143CB36CE7FD2831B3F7FFF8FB2035DC
:1014C000CF80FD5C02402C3C01E3F338D1C718D338
:1014D00098FF0C1206FFB324C12166D888FBC2D343
:1014E00081155DD001DB54FF100293C68066343C49
:1014F000E0C1F3C65DBD89D3FD6771309BD6382A44
:10150000B101E7B191EE771EB1ECB0FA247E32F66C
:101510005B98FEC12FCCE53331784EECE8B8FC3651
:1015200058791087EC4E90164C191FDBB308046FE6
:10153000ECC258F908C6660408E066F6302FBBE333
:1015400002093B17487AFA11D9F1A1D8F9082436D3
:101550001990FF171866CB83A1FC6067799887E61E
:10156000B307EAB302DF9630FD071FF6CCDCFB07BA
:10157000011981FAB3B02085C7406675FDF91BD803
:10158000E8FB6B9B34082356F160CBE7300C722EDE
:10159000F57A80B1B392F8D8C0FA1F5EE563797C22
:1015A00067FE1280D5F8F0B0FF42DBE97DD8E30298
:1015B0007E22B6046BF7F8F9E516F199E670147A15
:1015C0005004F11EBFBD08BE0C85FA03C801860A8F
:1015D0008CDF316BFF524BC0CC05BEC294BA48A021
:1015E000B9011F30AFF8B1B06FB5F3339EBE915E55
:1015F000FFAEBD08A98072D290D3B67B8814F5FEE9
:101600008FF73BB8FF62866635FBC442C8FA66F3C3
:101610000C743E04EC5AFA104090C36657ECFBC3BE
:101620006F37E55B6E24FFB360FF2C6211D6FFC9F4
:10163000099CCAB10A0FB004D9B330B0FD38F930F3
:10164000DCB0FB7BDBE319F68DD8FEC1F7FBCC6089
:1016500020BCF9B87AD7AD43F94040647ECC086627
:10166000EC203B34D9F121628DB68010E8C908F72F
:10167000213BF39020018FF41DB2C4E0FB9DE6876F
:10168000123662812023ADFA38FC95EB0803083747
:10169000910C6ABBBC40335671ED0CC096CD58EB33
:1016A00066403376A50839FE32092110F5F3121988
:1016B000A8062C47E77F13FD4C086EAFB1605F5E54
:1016C000FCB09A3B3C612280F34F26FB1801A368D3
:1016D00025DB0868F764C003349D0F936BFBF37838
:1016E000155A183C0BD3BDD5F388AEB71EC403D42E
:1016F000E6DCB3FFDCCF0C536A6662DCE66AD3B487
:101700006069F30604A9036AE6B020D9B364BC811A
:10171000F38D19D5B312D5FEE1C5EF02F098504113
:1017200058AF9B98360C0884FE6B8044D0C6BC989A
:101730008FF2FE7278F8CAF6260402C73CEF582AE8
:10174000AE9E0D9328A9196EA601259A50082C5318
:101750001093743FD6D744FE6B47E09FC6E6D3BED6
:101760008BD7E0FEAF87801CA9F2148453B3016AC3
:10177000C163798A47D3F98BF9304BE9149DF34063
:10178000D2FBDFB9BB46DEAB0B60082CC9FD7F0185
:1017900089F66609DBC56BE0FF8CAE1623D4D39EB9
:1017A000ABB020A0F8BCDF1D07DEC5C28378A00364
:1017B000596C6BD898E001ED7D6B7A295BC6809AF5
:1017C00007F01EF3E25F6E98FC04F3D25F51C50C84
:1017D000B58DF9E571929BE0985CB668F3D720E18E
:1017E0009BE5ACB3445FD69814ABF88A155FB34160
:1017F000BD9288FCFC6A0DA7A0988131EE5B308415
:101800007B8709126DEC988204DFC622ED9828FCD4
:10181000FCAFB501D9BEE56132FF20C479A048BF55
:10182000F9836ABFC898AA6D46084C854F56B942DD
:10183000FE98B740F6981084D4D31780FE044BD698
:10184000225F5D9880F6F9127B9820086DEB98086E
:101850005F1D8BC6F8FF7F3202167FD2ACE910C83D
:10186000FD7F2494BBB5226DF891115AF72360FADD
:10187000EE57C6269798DF72DE910A08F9FE5D6A78
:1018800004E798F501BF98989F6FB1E0FB49C8D372
:101890005B8BC6DE9806C80379D3DD9850FC08DF61
:1018A0001FB502D0FF0C77D6988447ADE540FDE523
:1018B000106DEBD8E027C098EC114857CD98D69B17
:1018C00081E2B319D8B35A19B4B30408B33BBB20AF
:1018D00002FCC51D40939BC82212631904885A0A52
:1018E000F998EBF911F8301B5F6C98B0F82BCC33FA
:1018F00006B1BA9CEDF4F8F9F830F33215F598100A
:1019000099E7ED9BD3F230C0DB9823C8FF0DF83088
:10191000524BE5B0D827C4F7962400B52D59D3848F
:101920003C302FD3E63092F9E5C046A7AFC504EBB3
:10193000171ACFC88111302FC43CD33263F3462C21
:10194000DAC80B7F7222A0B4FCF3D2FDC540D90FD8
:1019500002BC30B380B93041DA0C107230195EF835
:10196000C63FFB1EC883784070F3D9EAFA3EE5799A
:1019700032B16697EBEC0A579C850130B620CBE874
:101980007F3698F7E52039FB64ACB310FE36305A49
:101990005708B6AB8801AC1903407670B3EE072048
:1019A000F9ED8EC0FF4EE7690121D634116FE6983C
:1019B00024FFB688FA21CBC85F635E8008C5090A98
:1019C000209B8898FB713373A510782099B659AB8A
:1019D0006E501AD34C76CB78FBFE5F3001C45D327B
:1019E0006E19627AB02CDD4B28C8C6F0F27BE8F89D
:1019F0007E1130665C6611892C7C406B2BC8C83622
:101A0000AC9A79FAFBE5300A71CAD9C8D1048CA125
:101A10009996C8AB190456F88905DB9430618B5E42
:101A20005E8416FF1198AB88E61B28FDB4020B4CB0
:101A3000E6C81003DE1CCCCBC86E33DAB93003B76E
:101A400078E6301EC4B6F6B3AE3DE208C0FDB2B2D1
:101A5000C88C664FC5E55E8D65C810F3E6DFF341BF
:101A6000E54BD7EB3BE0244C0438B3DF2C8371B358
:101A70004173B32010B5FEE36ABE6E10940427656F
:101A80007A59801337DBFC0880D092401CE05EFA64
:101A9000779B98F330E4FC64753B65C82D93104D3B
:101AA000C97ECCCDF3ED66F7010286D33908CB6B46
:101AB00041C8F9AD6E1D438218401B920BE1572FB0
:101AC000CDDE962141A9EF829279572DE806F930B3
:101AD00021B7FAE5E421FE4469B669FE90B3093AFC
:101AE000F602EBDB53D3F7168271F4BF3730BAFE40
:101AF000F16AC9F313E0CB0C01F352D2E35D117626
:101B0000FF801130BF7FDB014066C81805A3F99B39
:101B100096B051470030E819100FF3D4C9ECB2E881
:101B2000B404D59D80BD3CE8C02FE0DD7F90FE98D9
:101B3000DF03789DC810A093C27DC7CAE57D40979A
:101B4000DBB1046F5AE5318B66EDF83DCBE630C36F
:101B5000FCDCB374190A0C53B210CD19BCA0CF6FC2
:101B60001924043219F830BE3276DE90109C30B25F
:101B7000047C9805228916B3ADB9113F8D09BF01C8
:101B8000E370B4E33082A61BF6F972CCE3304F3039
:101B90009891FF406219F5DBD8FD6E06C0BABEC948
:101BA000F5981897D2C1E3D40359E047F0FA5E04E0
:101BB0001BC9A6E6F8BBFB853053E5D692C838C4EE
:101BC000F7B3126EF66F9BFE4262F7E130FC7FB214
:101BD00098B0FDE2236EF644044C084798989B2485
:101BE0008241B4B05A9343E9627A5E9805931DF539
:101BF000FD4598F9DE98DF0102CB304027D6987872
:101C000025F5C4CB4A3C5E5930183C306AF3341396
:101C1000FE735F7F6FC230F3C64F66E34A5D5915AE
:101C2000203C7D6859EE20B8FF5AED442FE024F3A4
:101C3000980900B3D9042DB34042FEEDDA50FFF10C
:101C40006A7C72DD1321F27FF3D7AC35F3FF7F2E70
:101C50009841AC0A6B95C8CE24100912FFED65902F
:101C6000F9F86A71732004D9FA1D627B42467A241E
:101C7000DADF90FDC66ABD4473AA880164F898064D
:101C80006E65BA68DDB9AAFE987F1B3034DBB0FE02
:101C900073B682F5C5049A8F67ADB328905CA16CCA
:101CA00044ECC02D309580B3DB51169EBB236008F9
:101CB0000CEEDA6446190C6B2818569A8C05DF96E0
:101CC0003014DE98AF185E9884D4DF18FAC66A998B
:101CD000C829DDF3A0D907023E98B507FDF203A39A
:101CE000F8E841DB3C08713095E798BBF308F0F861
:101CF0003726C82E06C92C66B458ED3D02A966BF2A
:101D00008BE5D83FC0983B817D5A11B7B3148C2C1A
:101D10001906ECB77BD207F3E676B36401CAF598EF
:101D200024CEF322E8F8DFECBB7FCCEC7DFFBCDDFA
:101D3000FF20C7BC647F96816A71F39FF63234D36B
:101D40008380FE018243FF89FE63666671D18E3611
:101D5000D3BAFD092266B3FCA3F8A07F3436009302
:101D6000F39312E3C761D3E06BF6B2EAF348F34BA7
:101D700053CBC0513658BE40A183E7CB9AD3910ACA
:101D8000B1BBF383F86093FDCC98FFA9D9BE9868E6
:101D9000DF199BEBE010293C90B0FBD7F693802530
:101DA000CB30FF0D56B33022B2D820FC6AB3B1025B
:101DB0001E571088A098505A06FEFB1CC9319A463F
:101DC000230250CAFDCE501DACF682DB9665784BDF
:101DD000B0E9F1FF18617FDECC2EDB4080FC2BB731
:101DE0007D6E7990FA3C5BE5B4A7B8491B1C5A613B
:101DF000402CB348BF892A10DC200215B4F8EDB19D
:101E000004EC1A400553F620B1C0B3B24DCBE2D377
:101E1000F85F532E12F8600A1A017DC6A005B0FBC8
:101E2000928ABC08A8C6DBB408103FF45D10A794E2
:101E300018FCF0ECD8FC0831FBCD3FAFF332BBBA55
:101E4000B15EA5D746E81829A1402F2025F6B38218
:101E500040FFB266BB2B0261E2B3B8C36E96B12AF3
:101E600022666087BD498040A76CA2FF34FC3D809C
:101E700076225518B166DED82301B1AF8899191FB3
:101E8000CCB3823AC8CE169EF824E0B2045B9A0422
:101E9000583BD64B301CFEC5A0C133CC9828F85314
:101EA00016503BADFB88FA9AEFB1040DED6010209F
:101EB0007A7FC7B59DE8B0F9DB566E10797F6DE388
:101EC0009A796798BF5293D890FD6D96DA2F92C891
:101ED0004DC10DFF88BCFE0BC28EB72131D41DEC65
:101EE0006978F977967D10279BF98013683228FC72
:101EF000E95ABBAFAE0431AEACB67B11BCD39C96F5
:101F00006B9B7B20469150F8CEED17089FD67C3214
:101F1000A3662C49B420FD3203AAAB01D808CF2315
:101F2000BBECDB8AA0FD163399F281C656DA408DF0
:101F300097C0FEE6A77E59EAFCBAB108BF5A8720CF
:101F40002CDCFD772FEC31C60563049CB77AC0FC0E
:101F5000CA16BA5212A0FFC03136CEFB02C516E82F
:101F6000203BBB31104060CD574A0836EDB0F851E8
:101F70002284D92EBB08C190BFCE9806B3E48F80CF
:101F80006E8854F90530A200805EF0AA09B2861866
:101F9000C63B1902A240E261360C80D730D2B5CCE4
:101FA0002A2F280530D358F9C808840E8875F9817E
:101FB00040E434E8BC02D23B23E81D9FDD2441020B
:101FC00006FFE5768310B6C8C68627A904834CDED3
:101FD0008103E80DE0FBEDF126B365755F95A68BF7
:101FE00049B3BFEF2F8117D8C677B104816A42DFAA
:101FF00058F8F784FD8300192DE056AF212DEBDB57
:10200000086307D4F784F87A81419B8A98FA1FE322
:10201000341FEB6276FF8CF9F3D2D366086902466F
:102020002B581AB7F13103FDED72203838CAC24F70
:10203000584B08DEEE2A04D3150CD6FF4224EBECF5
:10204000F8FD04CFD8E3289F991266DC2ADE35FC20
:10205000F0E6E53E186FFB85211FD3AF0477FF083C
:1020600018FF63ABDE040A3B4E80B89019131E3193
:10207000B0FF59E2403A15B008C12C60B320FCCC47
:10208000BE7FC294BF10061FFD7F71BD847E2D3AB6
:1020900055A8FAFFEC2216110A1ABAB4B2B26E4F62
:1020A00080EB42C5C1F39FFDDAA02031E014822508
:1020B00040E51EE053A704D30824218328050768C0
:1020C000FD45EFC65CBBF58E80C77E4FCF160F492E
:1020D0004FDCB819CD9007FC1EDADCE40C0201D00D
:1020E0005A31D3CF1551B3E01505757A0C6056FD02
:1020F000D9962DA340FAC3906688DE184009A384C0
:10210000F396E85031CD8B20422C1C21A5E15329B8
:10211000BD10C0F8B4F9FAA6DD4E13DB2C4EED0667
:10212000C1088E5358DB4987ABB005B51CC1FDEC27
:10213000030127BF11FC46C05D0D45CAFFC8321020
:1021400030FB49BDA026F42006D083AA734607F0D1
:10215000BC401958398A6A013F8005F0171ED0B972
:10216000030C814AD3E1FFEC03182002E2043CD9BE
:102170009CF999AB71660BF38614E5DD403A6F026A
:10218000C2800466EFB6CF5FD34198C010EE25B38E
:102190004482E8C50C0946262839D7C53AE7BE125D
:1021A00080265E1A93B6A07EB30B20100C8451B922
:1021B00041FE5F617FDA727898A2EDDEFFB18B4855
:1021C000208C416CA121DF67F528207D02011312CC
:1021D0004896905FBED429F17A810FA041960417EA
:1021E00066CB96465FD95C038B670C55F806DEA676
:1021F000A5C019011937ED49C0FEB1CAA7A298417F
:10220000BDCC80A703D460010CB30877026439ED1C
:102210008007519B18AE1243B3FC988BF03E3A0CEA
:102220001091F8E2945A15012DE3117F9703C8200D
:1022300011301632775F71FF99D02298088C09D03F
:10224000F0D9942C034434031AFD46EE8BE78BFD42
:1022500098B0B91096023FED1224821101B306FC2A
:102260009845C7308399EE03C88A8EFB52B3276026
:102270005F33CD203052FCFFEFD7308092D24BE05D
:10228000BCD20BFBA479030FE02C2C43DE983D80DD
:1022900004309BE0021AC6F00CE081C67A70400F51
:1022A000E4FEECD0FED48DD839DBFFFC60100C824C
:1022B00041B1300F1C98ED05C0EFE01003FB335F18
:1022C00069E583602C011F10DB5AFC4D26C004E336
:1022D000B0ED286EB3FB018C8011B06FDA4D14BFE6
:1022E000F88A80301102D0FD145C00036821B8B375
:1022F0009EF3B38C1011652890B3FE42DF0801EA0B
:1023000098A0E3CA4257F6C02808233C19EE733060
:10231000918852D308BD0436469A01D845FF7F8183
:1023200020883BF2E8F937CC987B2F91F4BB0873F7
:10233000942065900184EFEAB0FA6DBDE0207C98AE
:10234000D74672F3706CE46043545F6246CF05C1B8
:1023500068D083186BB9E430165D9C5DB19D019F18
:10236000A0FA20D812C2D07176B91D733008211A94
:1023700028CFE230E21142D2C0A5481022A16DDF81
:10238000937EF09009067460FCF234E5C26DBB9355
:10239000D7DB48F1E6DEC5960259472D302258F8C2
:1023A00041050BF53244CBCA205EF051C104583FC1
:1023B0006340022410088631BE7F7ABD8801305AFE
:1023C0001903F130C5B4DD81200FC6196E6B802171
:1023D000983004F0180EC85678FE98FC1EC80318F2
:1023E000400B0E013C0814F9C21530EC06C1809E6A
:1023F0000030FFE3122004D940F9CED048016692A4
:102400009679E0236F23E559FFAB307E9DFCCB5DD1
:10241000084F3698D9FF8DE0600444D908ED6682F4
:102420008023F4E07B0841036146EF44C293B3A0EC
:10243000D14CE08409316E28FAEA1B148DBCA0DA75
:102440004C2884B330EF12362804764B00D1FC9828
:102450002AC9C8AC6BF77FE7C80C21AFA8D79FF09B
:102460009B98713D97EB98608CF2F5B302E4BF093D
:102470006464D006EEBF0878FDD32DF017E70F1E79
:10248000E51A49DF03F667717E71307A98812D1C59
:102490007DD691CB30C094AE848F9718B3F998A7AE
:1024A000E5B1818693DBB18010501988FCFB0002F6
:1024B000422011CD97CED31D62D22AFB2BF80AAD54
:1024C0001776629BE726049F0C61112C8045661BE2
:1024D00069FB988818CB02816C5E533082D340042C
:1024E000C52010F63111E0FF9C309A20B9803FEAF8
:1024F00020C83B33F5380C6246F3239DC80470793D
:10250000EF65D5AF9C98D3C019105E98E800D8F954
:10251000DEB87DE2B632A97C98B970816FDB6B4A78
:102520005F5DE445EF98804018109683CAFC7D59A2
:102530001B356884FBC23981193D19037F8B629377
:10254000CBB346FCB310DFF6D30CADAB8180DD78A6
:10255000D7081A00306480B35AFCDA09327898AE92
:10256000DD3B34E5B9D9722816FFF1AC602081BBA0
:1025700044241035192426701901308BC0A5A32ED0
:102580008F83E7308221A8CD1184CCFEE671864B83
:10259000B90E11FE98791D695EA019B7ECD44302FB
:1025A000B5EA00CEDB8F6377C201083880197FD38C
:1025B0003FFDC0417F9F98CA300C59DB08AB666075
:1025C000BD98E1021C56F69FAFC5EAC730ED191F52
:1025D00053C07D2BA0AFD8F5BC0179D3AFABC56894
:1025E000A99AF5056BD76C9A5E3C7412100243AE43
:1025F0001E6D3080887F12532E0170700A28FED025
:1026000019DEE10866852C486BD9CC13CCE58C0427
:102610000991A96EB6E5D949A3FA62F3200B2411FA
:10262000B6503FF3C6C04458102BC33F3D80200234
:1026300030F95F554253F3E6C80FE28F392D19F296
:10264000690F604031C47D98058430BF3C785D7C63
:10265000BF01D4981ED380207EC61C1030FF08F323
:102660004143857CBF8BC78B9011A015AE9BBCE509
:10267000C8A26610FF5B21417030E2EA04887A212B
:102680002038FD031A026BF37F5C5122DD3676B3EE
:102690008808B071660FE3C8D0101AD60143CBE3A7
:1026A0005C57B3130820954C86D70B66C8A2036FFE
:1026B0006B98285076D6049F7F770B309955BA01D6
:1026C000919EC806100824400A02F5DE092BD71295
:1026D000BFE90308240120CD400417FDA14193ABBD
:1026E00077067E0030DF85C7F694E0944083CD5FA7
:1026F000A21DB7DFEC9E3A88D0F892F790EAD7CEC9
:10270000983F60AF176CF0800CECDD6E60EB2B3007
:10271000BD987268EB71F07537DA6B3D49D9FA08EC
:102720007DF6112DFA1AE57564B8D8B3685719808B
:102730003E6640444220083D21AF5FFCDA370AD9AB
:1027400033DCAE5AAFB16DDA80087E3F49DDB0C7E9
:102750007E60BB8CF609318968660A051FFCB518D6
:10276000101264AF81BB7F99300258AA8162248E17
:10277000106EEFFAE730A007346BEB98626CAEC8CE
:102780002550F33CB166755CBF8598BFF08B30C9AE
:1027900098B0078BF01E83D078AC10F9C80C0850A5
:1027A000FD35775A24F998B97D12591B30CEDDE3F7
:1027B00040E29666B676F389FCE5BFB5407E74C804
:1027C00003FE91DB0516FA5808DBE5F9EA72993148
:1027D000DFECD49F1F98B3081A10239E68D6A0057B
:1027E00002D8B302CFC81110F0A5F87E80DF267F93
:1027F000B09888092D8134C67CD441208404467F5A
:1028000097983D3412080201713809CB70F87EBAEE
:102810000B812130D560282E6610371CE33062F31F
:10282000EADE37F432B3C8133F8FBD23EADF7D6F92
:102830003DE8FDDDE324AF9798D6B95AD2E5F58897
:10284000A7FF60E08005933223347244DB867FD299
:10285000BCBF0C87A608F80473F9D048493D02F7BD
:102860005D275B066DFD3E0882B1F4B76BF785DF2F
:102870001E20404448500D7898AD0D350E09578400
:1028800081090AA288B3DE7AC228F4668CF7F63092
:1028900011462BC6236917B00866F1307B981244A5
:1028A000E7410848DD648433E285F02676B9C71332
:1028B0006221A84B0610B930905EC56BE098AD3C24
:1028C0007D98788B10642CF3439E303D8003F01587
:1028D0001EAFCE3CD30701EF438B70FD0BE0410CE4
:1028E000108875B1BE9F4F9571E78BE6C8404D9635
:1028F000F3109FE998300D42B64984E089BBE04669
:10290000FFDB6212C9C896DD80FFB8E6A07624BE60
:10291000985E58B446CC7B02D825448F3F303011A6
:1029200020C24218E741236895A0217EAEB2987F6D
:102930005C8C8041100168FD77AD98063930425CAF
:102940005D8A015D35CE6D68114D6C9604F41921D8
:102950000981D01DFE987FC0B75F6459C8D044017B
:10296000EADA57F9715D9DD2C8AD59DE3A18B6045E
:1029700035E9CFD00803026BE7C58BF8ECDBEBE859
:10298000FECFB34B2619FCB3C805B901E5607F9BA8
:102990004F1BB07FC471019B38FBE1BD987064642C
:1029A000C8A304B2BDA430BBF834F606F479CFD97D
:1029B000C801E530FCCC8050B3DA50B388358410C0
:1029C000BF1C4950030ABC2156DB94602C63DD0117
:1029D000BA9A2E0A3B7DF78C22EA8F02F5C2607408
:1029E000535D3120AF6DD2187BB14CE60530044108
:1029F0004265AC9046FCCAFF16C1021809034204A6
:102A000021991DA7A0FAF9C829CAA0786846DD0552
:102A100004DFDE7A4003622FE6DB3CB7270368F869
:102A2000E668010DD332061EC42BB930417645C885
:102A3000AE1E6023100F1EE60828F9BCF2B888DF2E
:102A400048BC66FF9E92860C02018DA61BECD80244
:102A50005366BD98C2019BCF300340100C73F3E95D
:102A6000FC680720473F36A8459AFC0A52BCC5655A
:102A7000FA315AAF1AEFBFB30481B44026D0FC0834
:102A80009944036824B62A53B3A0228101F620108A
:102A900098FE7F2CE60448F3D4B3D7D6E610BC7E6C
:102AA00066EB4350FA9620CFA2E21251A2C294F3F1
:102AB000677D32FA3B6FC61DE0C69A30D3E0FB1843
:102AC000243BFF98FF242866CE3359FAB1C6D8D3E9
:102AD000FAF98C3C77728040107535EBF438BECC37
:102AE000CC31E2B3C43FECACAD6BDC48FECC04604F
:102AF00044CE32B54DE07E7DDFE915E6A188F8C30E
:102B0000CF82CCC9FE3208FFF5A580B799D4FCD797
:102B100067B6FF4801C2ADCD1328D876C738FCDAB6
:102B2000D267982FD7ECC608EFBD7AF9C0BDFCE696
:102B30003062FF876EE8B14043B1272057EFD0F8ED
:102B400016E7ED2670B120426AD0E16DCDA37FA6D5
:102B500010012D90FECCDCBFB1D5DF59E0901A50AA
:102B600079AFE3FE19FA6342CB3FC255FF81A270F1
:102B7000FCD95004B2018F22F3BC11FBBF34036EA9
:102B8000381171F2120801967702ACFCF92E6D5CD7
:102B90006D03231520BCD35F95E6D0E6C9592A6A98
:102BA0007850D9F48269F58EF4C717C898FBE4030E
:102BB000610205ADDCE10A718305A0D21040D803A3
:102BC0006CF3A44064B5E8065F05DE02535E30F2A4
:102BD000902126C202FF5039601A0E800920C8E8F1
:102BE000FBA66F5FCC05AD269162AFE9D340B681FD
:102BF000B322D3B221C682F88039620240E67B1448
:102C00009EF0DC411834798735598C83C74808D940
:102C1000F90AFB9F6CEF62DF6A65AE0212F9A0B998
:102C20001502D2D7A8F9C2CC793EB75E0FB76B9226
:102C300047E6C47D15410D1AD717AFCB9228BA7459
:102C40001BBF07C8B1FD8ED1B804C48BFAD304CE24
:102C5000EBCC1434B33059A9FF0879317E77FCCF1F
:102C600031E5FEAFF6B3137A8E46D3732EE8FF63D9
:102C70008B751027AC9373B6D4802C196E8CB1046D
:102C800023A0F7E20168DC6E98E62104C0F2FDFCA7
:102C9000B1AB0E8CC9C5786BFDEDA90204369CCD95
:102CA00058E4B8C066D88424B7979586F5623F1A71
:102CB0008FF8086A446E3B63FFCBB2808CE8A6AB0A
:102CC00050FF8F0731039D3610F55F808EE7ED983A
:102CD000FD610F173A99112B590114F66A0408CCBB
:102CE00031B3CF58E102B7DBC0B65C28FA222F63BC
:102CF000DA68B1405D4B88F0660F4FFF3C0963B264
:102D00007BC5BC4DCCFD3B04845D96B1D06EB064F8
:102D1000934C987FD64B8039F6BE7F1B769F1296D8
:102D2000C819F27B10CD3D87F2FA63599479628F0E
:102D3000F16DBFF7A668F918F4899AF9FE6A5E6723
:102D400065D38B736D48F9631FEBB3403FE00162BD
:102D5000E502D70AFDC46915E6CF58CE36A7BA8476
:102D6000F72C6BB34819FE9C18FBCFFD141092FA98
:102D7000B240969C0449DD6572B9E7BB528CF96399
:102D8000DE216E6A67AC1C20E66520F8FCB1D2FD3E
:102D900058AE409E6DF208D7F510ADDBFAC5F4A72A
:102DA0001B4228F3809C82D831C2482C79EBA502C3
:102DB00041FFD7228020085891F8A4CA5032F6BDAE
:102DC000AD021D05B70B401062DF179380BACE210C
:102DD0002166B4CA0508D799C874FDF33DB3023023
:102DE0008020DD18226641C030E7325080D6038C47
:102DF00003051066FDE3FA999140BB7801C250B01B
:102E000028BF1CA0A120C080FC8A010B4006E41C46
:102E1000A8385AF8010684E4241040C35184495B61
:102E200006FB39EE2D42AE004EC1A208CA272CBACD
:102E3000802460840A4CC39C49E7F00C20F880C4CD
:102E40001C491813FF6AA8089754090E78B3F8BEF6
:102E5000AAF14FC71511307D9C21468587DC85F787
:102E600044F6D380408B86DB47A0FFC8D86EBEFAFD
:102E7000C947C00179D89FE7F47DB90BC9E45D610A
:102E8000A084405D08FD45020437A518FC18CFDE7C
:102E9000AC8A087F65EBDD1335FF4CFF7ADA20C57D
:102EA0003C4EC5B78040625ECB36BAE82BAAFC80A8
:102EB00008B6CAC8922E31B5559601ABF2A8FD6E80
:102EC000235FD15F327AC7023BD1DC409180797EAB
:102ED000BFD8CFCEEE6A015CB3FAC863BE18677C78
:102EE000C3D8C6289EB6F310F82BD547D4DAB962FA
:102EF000FA4A2CE0458EB8B1F98D40CB60B1189DEF
:102F00003C5E58BA3FDBD6650125B6963E0CBF0243
:102F1000EDA38C26B34155B38184B943631F7D4D26
:102F2000F718FEBFD8A79AD702D7F6D80138A4BFA2
:102F300020FBB498FD1631B79DAF143DBFE0026A87
:102F4000ED8C08D3FB69E0FC1A3329F461DC953D74
:102F50000188EF6D80FCF7A001044227EF05FD22F8
:102F6000416CE72B95938F24821163FE8B6EB57EA7
:102F7000D1499C856BFF10143FA3287BB3B7F8C0E1
:102F800045EBEBAA0C75E8830B22E611FD65309941
:102F9000ED4201A092E4CDE8F9CD900293BC024449
:102FA000DD5A2143D8FB04622667AB9F604F325243
:102FB000FBF6285F7FCFB140662418013BE0048C0C
:102FC00075E84367AD8411B1300EDB47B02FF712BF
:102FD0006CFA066897E470FC60023C61F9F0CF1E61
:102FE0007A78100F6CC3CFC003FC0FE041B13C03F3
:102FF0001865ED78A7F64007904AE498B6E3FFAE6F
:10300000CC9B79A90472C34DB30C3C318C7FCC604E
:10301000106866657B7090FA49E022B3DC0819B34A
:10302000B74C69E82302B30946C67919AF0BC9D377
:1030300043B32FF3CCFAE324B506F5982197C55F87
:10304000E1CCAC115FD6DE48A7D56A9F12DBF4FD58
:10305000F9666771619FC608FECCB706E02F36405F
:10306000FE9859046882D7F8FDAD12103C980B63A6
:10307000BE5ED786C09998BE10A304F673197F5A16
:103080009803B8EC69FD04F4B067A222B8E35A2FA4
:10309000AB31AC97637B3C40807F169889AFC8E228
:1030A000FB040877C232BB18D6782CECCC1304F69C
:1030B000258211B123FB7F40556642EBF946965EAF
:1030C0000BAFE472FA60409F3C20F0201E0877AC02
:1030D0009804BF6C98013CFCAFB0336B3D98947181
:1030E000D3B73174F8085BF9987D9895E598D64A7E
:1030F00031E498996FEB980157192BF980E611107C
:1031000012B382C496B32132B34619FE98B5137A2E
:10311000ECD0FF2005F1986742C117CCF298ED186A
:10312000069EB3DA2411F998A7761724924FB0A916
:1031300020FD3641302FBBA10116CBC87F59980422
:103140005E5FF5D8FCC001E298DDD462DFCC98EE7A
:103150003330F256D5B3A0657464ED1948B076C12A
:10316000C916C5D62DC23086D5F80268B377EDC52D
:1031700053BFB8F9BBC0815DEB02198130C12C6F20
:10318000D01718AF6D1730BB172469EB986427B9B7
:1031900084B0FA585EB26DC630CDCDC0837A98E265
:1031A000B830C7FC98E3766FFBE2B8FE40012BCC49
:1031B000987F963010C22D7EF36C8D1999B3F0FB79
:1031C000CD5E986206B32C19DA1022EE5D04D36E40
:1031D00043FD558BB72B30F82BDEE178A1C22C8252
:1031E00041C9CAC8FD330288FA9801D7D69824F994
:1031F000086FEDE22CF925F420EB8519C96DC63076
:103200007F0F08BBD8FA40287FF813B830CC4B1991
:10321000029A17CBC873712D4571F4FCA04804B312
:10322000282E19C9CDC8897898B1832F5998047E62
:10323000907F2D3543965AFF9E98BF4236C84CED7D
:103240004B0B0164C846239DC8301097FB32162BE8
:10325000D512F2E7987030377330200F059D96C86D
:103260003FEB9801BC6BD5ECC8BFFCC198B13C9654
:10327000C8E633E6984FDBCC38B3F3F8800E6CB376
:103280008818ECB1C86DDAE305FECC08D1190471D9
:10329000D3B6FB2DFC2004F3C80267EB1F292001E5
:1032A00088FA9804BC4BCEE3EA50ED59F8FFF46974
:1032B00096C86E50C366B18BB3FF3F27C86DFD4003
:1032C000BB0125C8607130999FC80884010C63E771
:1032D000B4FAB482D5F398EEF8A448CDC802886653
:1032E000C82C0521892DC1427F7F0A6A8B6577171B
:1032F000F9C40230BB1728A398E07376F3F54CECC1
:103300008045B047D64B12ABF7114E5930083D17E8
:10331000D708FE80986FCB30022F8C304B36C80C0C
:103320006F819864F330E8FDB048B3963020DB96A7
:10333000B2103C98DB397BD8F9CD62B9C8D844814A
:103340009F2D300156B30449B3B3E4FD208F0442EE
:103350006DAD66210893C830291B08A6106CB324F4
:1033600002AF519880F103D36AE4B2FB7DA24066BC
:103370007EE204BA2AC47830CFF39921C0F8775A94
:1033800064E5C89819CB0844E93CB3BAB9C618B388
:10339000A8FADD48100ADD4166723081BC986C9E47
:1033A000B0637BE3604445B30293CE1CDBFCC0609A
:1033B000E009078077F67F128CFDFDA713B3800527
:1033C00030B301C5B3D3AAF741D3CE9808CED5B355
:1033D00001B2F87C98032796300112E5C8C6D3EDF8
:1033E00097FC44FE9863FC3067E52EAF07F064F36A
:1033F0009473FD5C30A322B33F8B30DD9801100540
:103400008C7ECC22D32FC8EDA602B6752E2005E8FF
:1034100098908FF3993380307608021121E698A5B1
:10342000F8A679F9C8BD12C9043BF7FF80BDA28494
:103430004466FF610F36301008BEDDB740CBC87E52
:103440007E93E8FA600130802A32AEF8305F09E6F8
:103450009825CB3020332CC8AFFA1098FA8848FC56
:10346000E680B8902ECA2FE631983366568F6011E9
:10347000C8E52209AB3C3AF8767EC826C2888004AB
:10348000ECB7C84FCC93FD8C8049625F32B212F921
:10349000CA1673800304699EAE98FDE0073C880756
:1034A000AEF0B2B1F930037F18304BEB980356E61B
:1034B000C8FDB6966CB6404F8B30CC9863362E4024
:1034C0004F1C7D614DB9A9FCDE9830B388AC054333
:1034D0008C3049B3386DF0CC5BE7C88023689938ED
:1034E000ECFF200BCD9873C80D0593C1303B2490A1
:1034F000A411E330FECCFFAF143BA5DB9892486EDD
:10350000EC6408FAAE59700C9CA9627C3066F6F146
:10351000025BEEFBFBB0FA7F57915BB17330800129
:103520006A1914B1F62E33303F720671A1BFE54916
:10353000FB50DB29D942185A855DA6A0049076B0CD
:103540007270086DF60A57F584B5FA2201DBEC813A
:1035500056EDD0F9078830023DAC0898047A7840DF
:10356000EF5CF52697BB63FB3251B0738B7F35312F
:10357000E21DFBAEFBCC1635FB58C603ACECFF607E
:1035800005EEB2F0201EBCC55F26E6C557AC980418
:10359000CF4B0808D3535BD23624D37BE71EC80336
:1035A000579F48FF847F19303F12B20672C82B55CF
:1035B000B350BAB330CAD383F5C5081DB6AB15D81E
:1035C0004B6287301901056597B30F30B3091005B9
:1035D0006AB36472FD90D56620B8214FBC984070E4
:1035E000B5096066B0F931B3FF28B3C7D7FFBC7A1D
:1035F0004B80EFD221403C01CE33F38CD171D39874
:1036000080FFC120FF6CB328121B66A3FC4E30B5AF
:103610009C8258CBC6652E41B399FB14045ED8E05A
:1036200008B1B5927379ED9266C4B0FE01A8BE24CC
:10363000EB6E932FB131DEE359312CEBB0FB58FD2B
:103640003201867F3AB704D3621A30DBB0ACBAB12C
:10365000C60C674FF6CE80328FDA40F87D6E95D675
:10366000D1E6F427FB2C4053F975AA10BBAEF0FA53
:10367000649876562CB1010EEC4B99FE2B31BECDE1
:103680006DED98FE554A08F61AC65E3454B52033DF
:10369000BCD35A20E69C65F17DA6834C63BF38B746
:1036A0008025B3BF80E4C8B1C72004DAF0FF7E995B
:1036B00054BD8050CD0B05F6606D7318D3BFEF80FD
:1036C000085EE318FA368C208AD6037DB3800D207D
:1036D000E0FA888BD2E7FAB1118746F329F730F880
:1036E0000E3B30F729406EE7D8FC02C72CE9016396
:1036F000DA950210338A9BE118FF17F907D32C667D
:1037000077D6E20867F6A30CF8083B9EB608F5D812
:10371000FF85BD1EB3404CB8A66548FEC6CC3844F4
:10372000B3CB33B23FC758662C19103B6F1188FEDC
:1037300033A1D67B8019EA62FEC12F4615FC309674
:10374000F82227BBE5101AF8450DB4D4DD3928B0AE
:10375000FAF17301649BFA6AFC40C283C13F89A4F9
:103760006701684DDC90F961622BCC020B727286A6
:10377000FFB3FDC12FEC7F6BF6F10423F169D83460
:1037800079E5FF7F61AF59238DC350FBA9EF821309
:1037900066D8FF61BF59C2FD845BE360ABFB32209A
:1037A0001DF3931F6DFFB8FFC5C8528EF9E58FB7A3
:1037B000FF90F8F5DEA6D9115A73B1057FB1398DA6
:1037C000ECC0C8FE53F6350214FD1EBFF6F1F8F941
:1037D000279B95400835C318620DE448FF8EFDE62F
:1037E000846B120433486204CF31D13E59E6309FD6
:1037F000057EEDE3035CECB0FE9091AFE7999AB1E2
:10380000BC029112FB6E08B5440847C7B7F480FAB2
:1038100081F840EE19A1D75847AB53227F1E5ABBFF
:1038200074F8E072B81002432E4006DC2A576BC8C9
:103830007F4340580CD9B2FFD6DE9401664834115C
:103840003888F81E21100409E7E5084010A38829EC
:10385000D46E80E28A0859E6ED191001C27BC3F3E9
:1038600087D2BB18DC1B45650474B1B1ED5D1273E2
:10387000DCB3C5F5F9406AB3657F2888FAAF80B636
:10388000D0590A047F7FD88020F69EABCA6AD13C0B
:10389000BA2048FEB41B33ECFA15C30F687F8CF9CD
:1038A000BDC32E01440167F83FB1EC4D6C6240018D
:1038B00059B30C632D9718FE0B320B28288CF33567
:1038C000DD35B8A26610C1137B96FE8016E5620650
:1038D0008A2C9C10637B7338FB064CB12EF3FF3FA0
:1038E00094029CB36817B0044068AB50FFA7C60CA5
:1038F0008E7D710461DA1920DB76DB0842A902D7DC
:10390000DB4CE0FC059FAE7F6B1D269180316E0184
:103910000831944E5F3848C3D3E3108804E7134955
:1039200023028324A080216CFCFA47E3F2B5F3B3B1
:103930001DE949B54BFC012BEC7FC51960DE79E62A
:10394000C18006D918C5FB7701AF302530E0020AE7
:103950006AF614B0EE84735CF8FE621E1DCB80081C
:103960006318E57C80C7908FAB49B0108471F31E5B
:10397000CFD4D9E0FE8AD6417EFBC1821802036211
:1039800085E3D3893D6616C240583C3C048C88814F
:103990001D0A206C48C1FD617FACD508CFE7CCE0A3
:1039A00001B007F0031EC0DD0378FBC93C11EB63D7
:1039B000C4E096CCE00FD33CDEF300D378C63D7074
:1039C000FC98D64DED06407FEF03607F98B3936679
:1039D00006C045E0F9A20CD37F9293D36194C681CF
:1039E000F5620CB344C20B190952B3B00C8119DC57
:1039F00022D3AF0558E5FE8791E6247A980CF3C7E9
:103A000010D61540C0ECD74F2186E78890FFF171A2
:103A1000490802AF01D3FC11EDFE028C6E5306D7AC
:103A2000A469C37B202DCF08720F88C43A64E29B3F
:103A3000F322CCBCED5CCD646A59EDEBC00310CD34
:103A40009805D36125F30CFA7A98FF133FDBB8C0D1
:103A5000428C845FCD097285FF5E9890689B42F32B
:103A6000289DE43BFB049FE4B8E15F7FB1112FFA8E
:103A70007F80313009F798189002F960218C880511
:103A800013490898A2B461F61AA9FDC43DB8F226FC
:103A90008D397AE5F43C9C605EA57FB89840027849
:103AA0006EF7989007043AF3C403F28B1D7F61FE12
:103AB0000888FC05062DE5E5E7A5F8E50B02BCE561
:103AC000D7AF5AEB2D9B1FABFC11F5B8208F83B3FA
:103AD00001A2B322F6B30362154C88E62E20DFCD97
:103AE00098393412621F7EF1224004886608E0246F
:103AF0003421F32B8640426D49F7100A442D2C7A6D
:103B0000E8EF374BE3EC1CDBABD4E041225C035E17
:103B1000DB69EDC378FA899AD9713088F9E0AFB9D9
:103B2000988002102333190872F2D72004C9ECFBE5
:103B30007E5C47B2F8DBCF8091BD98486DEB98046E
:103B400017F398F72A8530E04453B9224144EAD369
:103B5000B33A54194405C002425FACBB20EC7F402D
:103B600013C8F4984CCC8F3087A02C58040E010257
:103B70002021E68710FD625C3001715D89F898B202
:103B8000FF7D98E2AF810C98FE6830200FE6285B3D
:103B9000FC043F9230C04CC6387DC9F0983440E0F8
:103BA000AFA0A5A2060C0066B3E977495172B30431
:103BB000C70DB3FD98053AF346417BF323600488B3
:103BC00083E63378CA99B84092E6129058F6AE660A
:103BD000C822EB48060920B3C8A09049A7DDEFE34F
:103BE00003080C45CEA081F6A8FBCFF1E7B67FAC69
:103BF0009420732FC8E384F823B431234E6C30B87B
:103C0000FBFCEEC80180EBB16E3330FC98BABBEF21
:103C10002C9886C8EF748BB020060C49E940D3B3CA
:103C2000F817B320F130CB330918F29838486729D8
:103C30006DCA058067F498883824E12682EAFFCCB3
:103C4000FD7F117330C02401715DFC30B1020FFBA8
:103C50007F1146C008BD98149F4C95322206A87F5C
:103C600040D4FD840104320A789BEB9881B830C8B7
:103C7000F59810897A98F12B7E5D3080EE98C80314
:103C8000791808F31D281919FE9871F78EF998BF55
:103C90002E30A0E47D01D20284F30958199FAC4B69
:103CA0000B21F0983B21304CEB4E0A6098770132A3
:103CB0001DF0FB109AD43AAF1008FA0F0287C4BE69
:103CC0007E5F97D7167A980418DA810673DD412350
:103CD00009A8223AEB1230311913CF195BFF20F9F2
:103CE0009807F42BA9CD9C3866397EB3FA3232C9D5
:103CF000CDC80389F898B7EDF5984070D7077A9842
:103D00008148AA3867B090F9059FE0982D88F2C8DD
:103D1000C6FC9846D3F40210410469C5600112053F
:103D200076F7CAFB6717CAA15446BF5962012C63D4
:103D3000B3B0C7AD731206F9C022188102E0CF4CB0
:103D400084AE1210A8125863AC04F8400810323B3D
:103D5000A0FD2DD0E0AF414E983168C083B2F5EEA2
:103D6000315D3F01981ED04402E0BBD3CF98CEC84E
:103D7000400FEF7698D8FF187F9EE5665F056107D4
:103D80008B981FFC9889D306310381FA621E988EA6
:103D900040C74DB3F3C8B00284EF639842605D4CF6
:103DA000CB23D02BD54B24F5A0E199DFF0291F962A
:103DB0006F78B3AFC1409D8240FB71A101F18406D1
:103DC0009730308008F9012050C4D978F9FC588E1A
:103DD00004C6F2CFB571405E296DA49539A310EFEA
:103DE000FDAE6864F51711EE0369628D66C80C6755
:103DF000E022E388025FD6771F30ED980361274FFA
:103E000001E648FC6565A0FE21EC44C0146728C8A3
:103E1000E0468B2F1F4DE106CF41D9C8E140242C4D
:103E2000CD21F09A9266CC60206E0507FDF16ADC28
:103E300001C573C801CF40C2E0830260AD104C627F
:103E4000B0F0A2E6590860B1207B653009E027F6A2
:103E5000CC78DC30BB20D698402B9FC88807F080F8
:103E60006B9AC8015FF3B093C8F3E45E98B2588DC3
:103E7000663CE504C10637A7156D2991C430667FFD
:103E8000E9B504E6A9B3FC8BB3D6B82836B39D4692
:103E9000939804B73730448067C86240818C853B73
:103EA000F320F85E5B3002FF7E809081484096638D
:103EB000F32BFF7F84260110E49A0422B96FA10935
:103EC0000184A510C84138D40DB0111B12F043195C
:103ED0003B8C787DFF011D97E7FA8DED00FEB8EC75
:103EE000B550CBC881B2D818AABA0C663C31C1848F
:103EF000B426FF3F98ABDA9772042DF370B93058AF
:103F00006DF54794F5F5B5A0E3901150B11044A1BB
:103F1000C1DC169404F65E5ACF08E79D080672FDD0
:103F2000046ABC92086909154965C8A69E62B86210
:103F30001E98AFB09312D56660C2218CAF88218BDA
:103F40002FA7F1020420106232ED68FE566E1E9E0D
:103F5000982BC2975040E5C88C7B98201EB6C0F6BF
:103F6000980304FE5F3010CB30D06E0330046FE452
:103F7000E5665D91631A15B2C272C800EBF79583CE
:103F800027F381F310FE6FF682EDB3E0826510A790
:103F9000AC980945B304AEC038D8B30C91DCF32615
:103FA000C6FD1360088802112586F9E3B7AD9808AD
:103FB00073C8902FFCEA16ED300489EAAE10064271
:103FC00003ED2C5995C825FCA740685133A005D3B3
:103FD00058B3FFFE9A58B743EB97034D1B33A9C064
:103FE0007E249225F9667E68C88062F30918C9C8E4
:103FF000B35E987642C8ADC239CCB4844BE6506FFC
:10400000E6CC9802C3245FEAE09819FDFBB2103CAD
:1040100013FC97C8B68671AF0239B8D311832C88C8
:104020005EF4AEF83C3DFF93F921D6453DFA26C03B
:1040300040DE789D02F385B0FD4D65FA8F3082C079
:10404000CF98B960214CAE82F57140C004B18C2B81
:104050004255CCB0A515C63D7780987E53C8F33C39
:1040600008B5045B66021766BC98F1201EC4087987
:10407000CFCAC8F16BF36BC330E3FC8480DFD6E5B5
:10408000404F9F98E8D830AD56B350C6B3DA15010B
:10409000B64AC8E73566F69888F9D8B3BAB1DB36C0
:1040A000C810E6B3DC7B6E116610B3F31A147AB352
:1040B00040244C01F698E8FC58C6C9FF96B363EE5D
:1040C000FFACFF20FF1279D21CB2F3CE33F38CD1B8
:1040D00071D39880FFC120FF6CB32C121866E3F8EF
:1040E0008C58988CDE476C51696651DBFA089EA0AB
:1040F000D54BA4100C481E669BC7FE18739373B172
:1041000053A4FA40C25317DBE6A3F805EFBC326FA5
:10411000C255110293ED7AB8FE879EF265EBDB186B
:10412000FF66F133FA136E5D6163A668F96097E08C
:104130004B1859E7B3AD3D029B4880028BF1FB82DF
:1041400005A09619FA22D463BEAD642BF628EC8440
:104150009FF6C5C8FC027F03DB616922BB80B8FD06
:104160007150BAC180DBCB474C87605DD3C27F22E0
:10417000F7D31925EAC077ADE5A0D7EF242BB60613
:10418000C69D4740C57EC3B4D4BD5506688C8388A0
:1041900090BD02B718338614B8FE633F84D87820E8
:1041A00097D7CD92094B60B69183B2CD90A7827616
:1041B000FC090C03F4E9B0FD12EC62E631162CE4C4
:1041C000A8CF59E5809FA9627DAF4478D7BF10E59D
:1041D000C8197667428FA66C51FCFD34F560049CCB
:1041E00058A608FEF0FBC50CD832E02D1BD8FE0502
:1041F000EED8B1806AB3B09048D46201B466301989
:1042000044E52B1089286610E0C2E6AF108038160E
:104210008822B3D820026A5E5D1761F9FFBF4B7B2D
:1042200066055F37E5EB911D1B19D84014EE64D885
:10423000FBC9FD6E0187276A98A37DFBCC04277616
:1042400094D8CB1910097BFF10633D3CB00C4CFB9C
:104250007F1BFBF706BF5998086E8E10FD08CA5ADF
:10426000E620FDCE6DC08AF22504B4B2BCC497E04E
:10427000016CA037EA3B0A5FF6A62E7966A9B9055C
:10428000AC628B081080B93CACCE58E2F9BFD8497B
:1042900055EBE621DBA8F8FC0C3C62DF4C90D2E841
:1042A000EBFE11F6081102C7CFB1171BB19F639542
:1042B0004CF6E12DB4E3DA15840C5B6420B276B9D8
:1042C00007E0BFF92CF9E54504B7D873C6DBA9FCB4
:1042D00006B6D369D2D0F919042CEA638C5BF3B328
:1042E000384CDC860758FB0A77D91460951EB62C2B
:1042F000E4F3666575200BE9CADAE0020152F38047
:10430000CE4499F8A8FA98D11496C0EBC6045FDCA5
:10431000A43083FB030205A02010FC8418EEFB8070
:1043200002F9EF908305A03DCD940208DE4B9E2854
:10433000F21008FDB4117BA540201892D624FC8809
:1043400093869ED248A00147CF1A02DE20FCEC18CB
:1043500024B48F08015E01F086809058FA724010F4
:104360004DC23019FFE234931B5F92129C8E58CFDE
:104370004BD718FEDF02E3F7DBFC50F95FD9F504F9
:104380007F32B902E482625E9C2534DCC09B7B10E4
:10439000044293D78139405FCC43BCF7F0B0FACBED
:1043A00096921057ED0F0447F57FE8FF613798ECC0
:1043B000BFAF862039CCCA18667564BFD1FFFB86B3
:1043C0000EFFA8FE10D8BADD6A1061290D9FAACC95
:1043D0006CF34B30FFC7FB6A026705B64B04029BC8
:1043E000EA50FD3FF7A90118DDBF5F65BBEB04D6BE
:1043F000D940738238F967ACB30521CB2B7389DBC5
:10440000CCC2504FEC2CC0FE503996D82027A4FDCA
:10441000E06C4E6DE719EE3987ED31151D3362CC36
:1044200040F3B0738833D2CE3019C114FF76A78021
:1044300030626620D8FBC5F4155CCDE36243E0F33F
:10444000D862CB6601087DA020686D6FFBF1A06586
:10445000B31AB2DD92EE4DB049FE02DBE0635DB20D
:10446000D34004B006D044B3AF7B6690FB6AE5B29C
:10447000180F036C6B6010684EDDE306B7C0FC5686
:10448000300DE0FBB1EAAAF80C77FDC44003F3B1AC
:10449000031F594B603F2FB9031607DB02208DA481
:1044A00066F89FFA07201263E1FDC49619206FBDDC
:1044B000ED8026C002B3038010B6C8F54B98ABF868
:1044C000300A8EC07E0C029060148C96F34077ED1B
:1044D0008C893EECE5132CE310B31810DE4F042357
:1044E000B630E5301EAB7A3C805B26981EB038793A
:1044F0000F02F3673666E00184D32828E0CE79D333
:10450000F4201EF98678FFB7DFEDB118B166A03B45
:104510004A6023E3F33966016ED371E0DD70B720A2
:10452000FEB51018DDB3026CB3D620C0BB85886021
:104530000A08DEB326C108408D193F17A06FB8E303
:10454000401748B5B09206AAB548C9ADE4D811B035
:104550009EE65C10DC08C9E06F89114148F43436EE
:10456000B447BB9803204027D7DB612D793188CB36
:104570007AD8E4C5F72C302DCFF97DC44753BDC997
:1045800001C0201603685EE3B33CBD07447962981E
:10459000B3B60405A3A0DAF90CB866412042CE17E1
:1045A000E546E62B60260D88153689101AC56B087E
:1045B0002B8DD1B97F02DA5BF8FAED580F8B608151
:1045C00073ED08469FC2F30410620CF02C80058145
:1045D0005897D77FAD780392EF16824BC62CDDB388
:1045E00001C9FCAB9B1EC80278D3D79807F9987E07
:1045F000BCE4590CFE9877FB96F0801E77A3073237
:1046000040CD1C08C610C0C63B70FC186FED7F8300
:10461000203FB9062882ECBD988046C62866B708B8
:104620002F193C98D3F6C67BFCD9D908EF2060241B
:104630004FED16D39810118C6214C1262CB3B248DA
:104640003978C101BBB31080EDF9A0017FB9132DFA
:1046500091BC98B930488F8120D805359F3B3010E8
:10466000408221EFD8ED280209778911CBC0FD9354
:1046700055E9839BCC730482B1936CB2424C199779
:10468000E318FAC0B501E51A03AF9761D3F9B04159
:10469000103BB2013014D04856184209C0C977E81F
:1046A00048FEA81FB3BDF36022C670850CEE4A40D9
:1046B0008021CF5EB320D636E20542664892D460B0
:1046C000CFE601A8FBD79B0F9804C7452609C05F1A
:1046D0007F3FEB01214082112CAE4FB21702D3D99C
:1046E000EF46DDC042ABF414B5B108DA48F8750EF8
:1046F0007BA58078BF40C5989E798B733003E0EC32
:10470000010D084BD6987057AE98F4FD9C78A7F62B
:10471000DFD0FAA69BFF1F7FD77F5A0A18799066D1
:1047200033D30464E9AFBE838296881942B311D0B3
:10473000B3EE0D3060FB24808205011370B3402876
:10474000989B8DB3F3487130A09C0DFA20FAA8ED28
:10475000241A423F10349280B3F777B46804E9AF6B
:104760008AF516B9A37DCE7998A73B3006B0FD5FD8
:1047700037D2DB49C99C59406359336EB1CB0241F2
:10478000D877C6F0FB4067677B06F228FC94FCB143
:10479000E83F5198204EBFE27FE0B64DC32020FE97
:1047A000A7BFE642181050600A7BF52610B828E52E
:1047B00013BFF80962661A4E75C81014E66CCCF483
:1047C000E1FC4B058819926F76013FD5FD5F926041
:1047D00041DAAF67FA9851FFB2EC3F7F05A2A0FC27
:1047E000CBC8DB8199FB4F3BC5FB3C7A10F696EFBB
:1047F000B5C9CEC80C20C4B3C8F0AC40B5C865A3D9
:104800000490C6AE66C81CACFFD796AA10BED246AE
:10481000B69EC5A120663E62BB96659B66F37D4A47
:10482000FC68E091140E9153BFBA4B10320416B3DA
:104830005A24B3BCD0B3C8CBDE5CC1C8B0D190FFA2
:104840007539E0040841EABD011906347042DDD72C
:104850004101D8B89F3730D044E5C8CCD29140C68A
:10486000DC4247ACF3DDE0F969EC988008C7F4203E
:104870006C804BE72134BADCE58CD39F2E4A32A3FF
:10488000397DA080FDD1DC1C9BC4EE10441934BFDF
:10489000D3C5982C9FA6AFA4D3E07A750CBFCC806B
:1048A0004B5218564AFC2CF6DB48822DA3E3065DDA
:1048B00026BF1053EF22398467AF192059394019A8
:1048C000C8EC125402875B22F984B909E08285148E
:1048D00023B662EF17081804C51262FB2C8009B1D9
:1048E0000013F79822982068A780B0BE32BBD5602D
:1048F00069FE73B8F8E8FF1D989DC003716AFE98C1
:10490000F0F0200EC03F78400FE8013C629E980214
:104910001EFE1B5A613C6F2198080C0FA0FEB49834
:10492000F1C566B883A0F3396CECC88130535715D4
:1049300040E6C80CE2393C66D3FF5FB1F1A262F2F7
:1049400049E019FB6DC530BC696141D8B311ABB307
:1049500002486BFB7F30BD988801AFBB4B02E0FB88
:104960004E573082D7419FE2E898101F02502049ED
:1049700021B10D1F349859D3021D17A240CF5EDA22
:1049800008A4DB48FD7D0D02ED6422CD012339151D
:104990002DFF3215FC98DDFFF8B5FEF6C514C4D71F
:1049A0009A1D100652B308A70FCFEB65C8C3D3C931
:1049B0002FE75B98066CD42E60FE28D3B4FE88AB3C
:1049C000BD41A90641D07C1062800C6B893D1980E5
:1049D000BC09CA59E03E981DB3A40179EEFA80499A
:1049E00061B30414769340419F7FFE804418010810
:1049F00041047BA250300939B2487FC7D764806632
:104A0000B698FF3206D9FD69EAC580F4981806DC2D
:104A100030D71EC43C5D03E2013C1625E598C00377
:104A2000993C30DA1C10F898ED5FFB84BD9803B612
:104A300040F05D09A9614BD64115F2E532D80C660C
:104A40009CED8EA2FA1AE08208CD8801A019E39E9F
:104A50008810E66084C60558F3A6CB49DE278F3060
:104A60003FB35CFC70FA2082E7EFFBAB418848243F
:104A70006E1430DDEA9D897F240188F33020120214
:104A800082F3F7F83046176BC93084BCB4FCF2A24D
:104A9000F14E666E807BFD040822E2B12F32E5F60E
:104AA00031B2C8DF594AB0FBB379DE789826BDB180
:104AB0006A239D0C8C30109AB5BB60F4C920266A1D
:104AC000DD657B983020F780FE0810AB19886F9762
:104AD000F7A9090614739A612136B40561B4B97E49
:104AE000757188FB981001DCF0F8669516FDED985D
:104AF0006041AF6517021D7A494C1166B1420FBF84
:104B0000328010975CFE5212EFDB3211771738FBC0
:104B1000734607043BB0C001238B3086C7F30FC434
:104B2000BD98414FD3F2201E047E5DD5C830B0360B
:104B30001CBC309A3C9CF9F1169373660260B72056
:104B4000E230D042B20C7958599866B6E0E38A3325
:104B5000D99868FBF078B3F6C1A17004FC30028AE2
:104B60007EE04C84093110C516B398EDC0028090E8
:104B7000B3F604A0FC209A91BB1A25D54A331946F6
:104B800012EE490208B97A11B1044FD97F181C30CE
:104B9000ED441024BF7F24ED10F8FE55E918D6FE31
:104BA000727941031F51FF0255BE70C8B8FF1E4302
:104BB00026B3434253B0538007940136DAD7200C12
:104BC00098809F0B30D627AC64A64E60FFD339F592
:104BD000441854BF20F3DE88EF282146F1600140DD
:104BE0008BA66F3816E6F5E309CB792221B312D6EE
:104BF00004286D44203BC89889F8453CF846014498
:104C0000FB5F8B60208C4EF9174498048B58FB8C0B
:104C10008245300A5FB7E25C5C0486D924581C30B8
:104C2000AF80348B2FE1D775FB0C5D26F0DDBDC85E
:104C3000E2A5D4BC08B830FF4098E0963CF1A666E7
:104C4000A5AB969BF9C87872E6D32006A638D32088
:104C5000C8DAF87D12723D83B2D5FDBFCF873059D7
:104C60000C82ED0130805BB350025319F850CAD367
:104C7000FCD6D3409ED8DAA8FF3CB3049808207134
:104C80005F99A804D37EFDE38C8029B07551AFD91C
:104C90004A3F1FD1C04229BA0902BC3EFFCC923024
:104CA000BCFD0637F60551B3B9248B35D360FB95AF
:104CB00095E54BB7CD79589CF3671ED1E0018B3059
:104CC000D398FE18243BFF98FF2C0A8C667139F2AA
:104CD000B8F9CF030A4F8136BED3F14DB6EB74E677
:104CE00078FA08B5659FE2D79498F399B58825E0DE
:104CF00050FDAB39FF1879A7C65186B169869FD69A
:104D0000657959BF4018EC21FA203EF8CC4D8BF361
:104D10008CCA63CCC0601AC55B4F80FA2B8CBCA3D5
:104D2000E0CC8D2C58FFE863E298993375570192D7
:104D30004B5E9862ABCEA008769ACE6D0550FBC84C
:104D4000E42BCC58F404F15FE6D64FF60D88FD2431
:104D5000D8A320DC0C5BFFD8F9539919F3B43F2892
:104D6000C32FCA3D870F483DF80830FD90BC4972FB
:104D700084E49308E5FC0462C7AA8B4EC9BE15B44F
:104D8000D7EE37C0FAC0D3F55666585066EAC8F970
:104D9000281C04F9DE8681021085E50A6821E09E60
:104DA000B3A4039FA04A02CD7A4ADB05F280141116
:104DB00040D50806FD447BF518B8FD571A40032E70
:104DC000BB22F18B30BE0680180828FEF6A44124D1
:104DD0000C29E94810FCDA6002890D87D6B540DE5F
:104DE00039F812CCC8516F364E0CEFC5BE36C4FF31
:104DF0005EF92CB3CF7A801008044020BDF304FB89
:104E0000B1F3536672905185048AA38BC4FB621E72
:104E10009B6CD6B160EF3351FDE5FA62FC9A46F81F
:104E200026192C525DFFFC6187976419906B590815
:104E30006623C0F8D8E7B86CC3ED6CAF38FEF64215
:104E40000102C34EAFB3585AF9B13579BE85EBB301
:104E5000FF27B1D510DB0C5FB62054FB6299125BC3
:104E600059629E84DEC0FC8069A6E961659DC67CAE
:104E7000C6D831BB7EE00C7E32BF4D0C627ECDD8F1
:104E8000D0FD75F641675676AC62024B60C058059E
:104E900050B7DB4004EAAFF8C930B89FCC4B57BBE2
:104EA000F690FF2454CDEB7F0BDB13FCFB16314354
:104EB000FFB3DCF46307F8FB106C7861F1FFBE967A
:104EC00062D78799BB7CE6158F999FF9F1AFF033D4
:104ED0009816B8801C2C661847342E60AE633FD4F9
:104EE000631C1DD8D8FFBFD97FFF7A63FB8BDBF82B
:104EF000FD19EBEAC71A308EB7F67FFA087DB1B319
:104F000008BC4BC276771020C7F6968CB44194202B
:104F100063FE34BF04D6FE1086CCFCCA6FA6023FE7
:104F2000EBDBC014573D30FB7E0201080B3CF8CF91
:104F3000378F754DB0FA82C7FBBBEC811020FE188D
:104F40001C4197F89E69A789AEB1103630EDC904AF
:104F500090AAA640E5FB6005097E780191A50A4D5F
:104F6000FA0322A814EE02504DD44AD4088C761CC1
:104F70000A0628050D250BF5DAB5D3604BC338FFBB
:104F8000328672FB42F78E2004444FBB02A34208D4
:104F9000F60A814128782ACFB506FB88042840AF5D
:104FA0007708056D08256230AC6F361024D998FB60
:104FB000FD517A0142F3C614FBDD3CD38F525EBB38
:104FC000F0B3B90248817AAB083B82F463014080B8
:104FD000BE65C4F4192363F4377E612008FA10CE4D
:104FE0004B8810DA0D79C38C6DE64BDC3F7A731475
:104FF000585C55A6F0FAAFB0F9B18301631C9D3B34
:105000003490FA432512EEB12001C2D61980FDDF9B
:10501000D6758069B285BDFD4DFF64FB8966CB0204
:10502000C73AB0DC3B0B37B604FA31F6E13DC66B4C
:105030007B7A08FF62497A08B678DC26166E959866
:10504000D7D6E5217AAF20C30F6C9408FCDE300C74
:10505000A354BD041D6636E6C8FD260246F3196654
:105060002EFFC5BD704062EB192030348289B559DE
:1050700019F8230DDE2478D823FD0334F90D3662A8
:105080003EA8B9C0FB0871D92EFB824DCF11C68056
:10509000FE1E2C6653A9E3B30C6117F68D0402C4FF
:1050A0009B26D930FB08E6181702A426E0381B031C
:1050B0001752C1807D06FFD67704D0EFB3178A80E0
:1050C000B459C7FA7EA27F8A5ADE31196EDB2B04EF
:1050D000FEB70DB46F51F1ABECD58029ECFAA8FC0A
:1050E00087D860020C7AB3A0E1F4FDC02C10D8B0D0
:1050F0004086B32F0246C658B910270244BB5CB4A1
:1051000098E4440942E4C9FFCC78100FB964889050
:1051100059E569FBC93C3CB473EDA007FB1E01AF28
:10512000FBA990070299F318401D4D3868F8926664
:1051300035E380A7419D66A4DE79625995A306C335
:1051400062E0DA1C3FF3C9B9C7F0B2FF94B30D199E
:1051500078E5572CD30471B32C402837220881F30B
:1051600035B385BD96FD1095E6989EA7BF24DD79E1
:10517000490284897E7E81C9F61B0481E58211A7DC
:105180008E36A498F9C5BA7ECAF39875F4060BCA90
:10519000BA16EC8BF8765F9E98F89BA0D0C0965715
:1051A000427ECAF37508F6D4B3F2D20A35DD5780D1
:1051B000D9F90C06CEAB8C5045E1289FB697219CBF
:1051C0005041208CAEDD0983B2F91AE2601435A794
:1051D000F598037A2682B201C47D98266A664194C6
:1051E0006912F31869D9B149FCECF9FE088F0198EE
:1051F0000F2DBD7C98BDBB07C7E001625E986C9D1A
:105200004D901C8037F31E049376D438FEB2187C80
:10521000E5C922662FF3C515F1E5FF6DE2C5F3D8A8
:10522000669B86A3FC2FCD9878CAFEEC64848851D7
:10523000B3A664FF3311166E194D5CB0F997AB6FCE
:105240002027D89801212C4FD69840BF8E017C276B
:1052500043D7480A11FC809C962DFA31B6162BB61E
:10526000987E5AEF91197E97BBE3037F31988D9B0F
:10527000F130045391B4AE8DBD55F141CBC0FD2B3F
:105280003DE54D0180BF9798189DFF0930DC0C8CDF
:1052900014D3A564CB717D9E237FF6320B042BEDD6
:1052A00098B0207DAEBB930A4034CD1862BC44193F
:1052B000232FF87F0F601601FE98158A7B988003D4
:1052C00046EADC30E2800732AF569818EB4D81BBDE
:1052D000CCFF042BBB3082011FF198756CD377F69D
:1052E000730682FE9846FB9E986EE0B2503D988809
:1052F00062BE98B5465AB24C72824299B360443449
:1053000040664B193F963080D9C8D80824AE5FC894
:10531000BBC341F41FF0AE61750DA051FBE3FF3735
:105320002CCCBCD8C8119F2CC701478BBF680FC7B6
:10533000C94DB310BD40FF326B92C8F3C40CB4AE7C
:105340005B3004F3306040800FBF5290D9FF085C9F
:10535000307AC250D727C8F3300563BC3001FC3027
:105360005FE12966F37A657717408CED800502F3DB
:10537000C820F68205A00821ED981016CDF90B0182
:10538000A149D9BB49D212B3BB91C2E532B930C2EF
:10539000B801D0ECBFC8D6983D25ED980501AF9176
:1053A0007888AF0C30C60EAE823230B696FFB7B9F1
:1053B000C8C81E82013008C4B830E2DC3CB3E48EB9
:1053C000F3F5E510EBC689332FC806B3D7C0FB1B36
:1053D000B30212F3985F3F01C5B8F3E0B31E19D9C9
:1053E000E8FE1A52F76841402004F2BF28DFE2814C
:1053F0000284801063BC3087C012BB82DE98440DEB
:105400002090B9CAFB6517661B9F98F243C6307699
:1054100076A750FD52B303F56D80A7F27F0242A438
:10542000C4BC98DF4EAFE53005AF60CA0FAFF6DF02
:1054300048FD0C40B3BDBAC14069DCBA8520B13922
:105440003E5930023C30E31002042652440CEDF683
:105450004982F8044B8A8C0429B369186BCEA005E5
:10546000B040C47D98446470305C0844D163988136
:10547000658E760CF0C9ECFE38A25363FA4F53B038
:105480008346E281B13CFE07303101FC30D00EE0B2
:105490008818FBCC8EDE1B100D36B6409EB85EE53C
:1054A00063FC3022F35018C637F6B1F1C9E9B100F8
:1054B000DF0D80C6309D64068158B3DF1330F811CC
:1054C000468442E0726FF5985893AD156808A7AD11
:1054D00098D0397A2DAE10B306D4B3247D6FE098FE
:1054E0001FBB9811BB01A04DD570FA99E7989BC1DD
:1054F000AC3901FF16AB415AED08DBCF83DE49F82A
:10550000FFC9F3715CDAC8F07B980E40625E98A325
:1055100020917F6D980C1038309730E07A98FBDC42
:10552000CFB8B703F5FCC0BD28F149B1212F6C9865
:105530003085954634AF0B30BCDB1981F8258B04E0
:105540006BE498FB9B13FD8C13F79820091664E716
:10555000C80106F3C148980479247B5F01F964F21D
:105560003010FF1B981920FD980362BE98D90702DE
:105570001E98E09005F0571ED18629368868F85F9E
:105580001130A21A66E5C88AFA9806D919022DF3D5
:10559000B830D1EE336573CA200DBD80192278B3BF
:1055A0000B84135BB30A29B38CF30436F34843B37B
:1055B000D8FB6FB7F279A9A71A307F0C4122960168
:1055C0004A25E298E0F5170139DB824092B4811157
:1055D000095FB4412D193F7FB7023CA8D55119FB93
:1055E0008E7A98015BB17D5DCDD3F8F9C0F71C23AD
:1055F000468EFC01BCC0A36CD42043F63280FE98DA
:105600009E6065100584B691EFB9C98790B2FBB36F
:10561000C80CDC0150836CC9EC29340167C998E4DB
:1056200034AE8026822F682101D35C89B5FBD29CE1
:10563000CFF5600C805E986BC4CADD17453071A849
:105640009D9C8A16C15B589CE88C8491FFAF248096
:1056500022580423614AD241FD7FFACB190798BD35
:10566000037A4D7C98E3F3F2C8C4BD9888F707F03D
:10567000801EEC56F8E00C900371131ED378BF1017
:10568000B7B128FA9806FFB3FC7C986C9C41532D67
:10569000C83EDCEC9A9BE00223F3C64FE08878FD1D
:1056A0003259B32C82C26EB3EC8088114BD6980964
:1056B0004AB3B00746428440B36624D221BD91FB71
:1056C0005F88B481ED050869B5DC8977033004088B
:1056D000898C47D59884E798723510B4FFEEBBDB10
:1056E00033C851C6445E8B8804BE7F8DC13DA00285
:1056F0006BEBE7C455F8848EF998BE5A1103D8EEC7
:105700001050F9FBD6BAC88443E1A346438E19234F
:10571000F3DC3BE532D3E4B416B401FEA90502EF95
:10572000FADC62100C406D9868FABC09FDB599F37B
:1057300041F92821ED902930CD70FD7530B505E394
:10574000CDD3FF92A414403B887C8E4E95FCA332AF
:105750002053964D0B61CD124CB3B169CF179A21EE
:105760005D2C4009D90A022737A476A0E0E9F45855
:1057700010A24C5FAEFF0A14012218054060E182BE
:105780008C847A802078F8F0B23907F2C05ED25962
:10579000D53BF39007D40C7AF3DB413C6E9410D5E3
:1057A000ABE8EB013D88D46B1E192FE0CDC830C4A7
:1057B000F3C630B90D72C8F973EF35C5F39842F3EB
:1057C0006F4D02610AF3D5B3506AB3A388E0FEAF10
:1057D000B3760C5ED83B9B80404E007DBF9F18B2D5
:1057E000F89EB30D800932D1F3089F6039814130B2
:1057F0000AB3043E46BCA5BEDF94B3236945F0F965
:10580000EC04F3FE41604480A401103640FD232BDC
:105810004C46FFB2098CB37DFFE0CBF920CFF810E6
:10582000FD36273FF3E825F3CE32D196D30159F365
:10583000CC88C8FC0608A4FFB1EC88FE2C4C93C2AF
:10584000E366D8D3C1FA8CBFDACC3191F6DE199376
:10585000BB976EEDB51037F346D30477F69161F838
:105860007FD89EFFEF911032888FF3D2F6CE74F876
:105870000CF351CDA08D374C5955B40468916BF69B
:105880005053592AFE667D6C869FCC5B4BA624D371
:1058900038F95D5DB6EEFC7A19E0AD768804E64134
:1058A0003EFF6ED8C1E0FE6090FFD998FF9ED563A1
:1058B000E2FF32C63F5EE8B5FBFB94098C3069E637
:1058C00010B3FB0C687FB67C10323BB0B8D7F6CC77
:1058D000405AAF08D1F548B3FF4D74F8D6CFF30264
:1058E000CCEB59E60177F6D678FA40964B1040D6C5
:1058F000ACB3C43D6F0240791FC4236D71F0EAB3AD
:10590000486BFBC8FB4FE426E7E6402800C9691254
:105910005AB17AB740CFF54B60CCD6A40148420DBE
:105920009B8880029DB310032CCD19F980A88EE2CC
:10593000C7C00825E752E4F190A508FE228CFECDF1
:105940000883CD38B7E3F1BC0765BFFF4AE79B8406
:105950004E0D875E4C5F32B2123FDE1066FD788FCF
:10596000F942E07E191E82B0FA43EDB710ED23A88C
:10597000FF95F6F61F7664FBC10D662069F6CCE64E
:1059800066B9E761DA13FFCC309EBD0F106572CAAD
:10599000FDC6344696591034C26BB1C0D0D777AF2C
:1059A0002CD0FB3216E32C0BBD89FE65988A5196EC
:1059B0008D598E1C6337D990FAC6DB19ADFF0816D6
:1059C000B2FF0A9AFC67F6BC105895D7ED4108342F
:1059D00005C96C2BA8F9AF589D044BE65D2AE8B2C7
:1059E00078BAFEC3EFE5C1DCFA49823BFF88FF6667
:1059F000FD6D879DB1608A6AB80166C3B5B304EBDB
:105A0000BC407519FB8BAC190158BEC5FF2530B1E0
:105A1000F8854A0284BE056EACD838FC9ADC80C694
:105A20003F6D88B5015CE006E0DA0520E833418E81
:105A3000F360F8C5F6E7C30F6CCC80FE50E85896CB
:105A400065DB64F91958E3409318080C7993E5E095
:105A5000DB6580C9F3D7C19B2019FC143FB9E1ACC9
:105A60005804D7DF349B36188DFABF7F587F4BB16F
:105A7000F52BEC4325EB0F33348042FCDCC8FFB53B
:105A80006EB8BC80265EA8A1463E37A6FDC0CA1BE4
:105A90007B6EF0FF4AE0A06EC55080402221CE010F
:105AA00020BB028651E0AC7DFB892D73027CCD804A
:105AB000DD6905A08B5026C8B144ED7A62F9C002B9
:105AC0008010B0F089FDEF08CED301B342A30E41A0
:105AD0000802EBD43F8947ED04AF1690D7AE136FA1
